{
  "_format": "hh-sol-artifact-1",
  "contractName": "OrderBook",
  "sourceName": "contracts/protocol/core/OrderBook.sol",
  "abi": [
    {
      "anonymous": false,
      "inputs": [
        {
          "indexed": true,
          "internalType": "address",
          "name": "account",
          "type": "address"
        },
        {
          "indexed": false,
          "internalType": "uint256",
          "name": "orderIndex",
          "type": "uint256"
        },
        {
          "indexed": false,
          "internalType": "address",
          "name": "collateralToken",
          "type": "address"
        },
        {
          "indexed": false,
          "internalType": "uint256",
          "name": "collateralDelta",
          "type": "uint256"
        },
        {
          "indexed": false,
          "internalType": "address",
          "name": "indexToken",
          "type": "address"
        },
        {
          "indexed": false,
          "internalType": "uint256",
          "name": "sizeDelta",
          "type": "uint256"
        },
        {
          "indexed": false,
          "internalType": "bool",
          "name": "isLong",
          "type": "bool"
        },
        {
          "indexed": false,
          "internalType": "uint256",
          "name": "triggerPrice",
          "type": "uint256"
        },
        {
          "indexed": false,
          "internalType": "bool",
          "name": "triggerAboveThreshold",
          "type": "bool"
        },
        {
          "indexed": false,
          "internalType": "uint256",
          "name": "executionFee",
          "type": "uint256"
        }
      ],
      "name": "CancelDecreaseOrder",
      "type": "event"
    },
    {
      "anonymous": false,
      "inputs": [
        {
          "indexed": true,
          "internalType": "address",
          "name": "account",
          "type": "address"
        },
        {
          "indexed": false,
          "internalType": "uint256",
          "name": "orderIndex",
          "type": "uint256"
        },
        {
          "indexed": false,
          "internalType": "address",
          "name": "purchaseToken",
          "type": "address"
        },
        {
          "indexed": false,
          "internalType": "uint256",
          "name": "purchaseTokenAmount",
          "type": "uint256"
        },
        {
          "indexed": false,
          "internalType": "address",
          "name": "collateralToken",
          "type": "address"
        },
        {
          "indexed": false,
          "internalType": "address",
          "name": "indexToken",
          "type": "address"
        },
        {
          "indexed": false,
          "internalType": "uint256",
          "name": "sizeDelta",
          "type": "uint256"
        },
        {
          "indexed": false,
          "internalType": "bool",
          "name": "isLong",
          "type": "bool"
        },
        {
          "indexed": false,
          "internalType": "uint256",
          "name": "triggerPrice",
          "type": "uint256"
        },
        {
          "indexed": false,
          "internalType": "bool",
          "name": "triggerAboveThreshold",
          "type": "bool"
        },
        {
          "indexed": false,
          "internalType": "uint256",
          "name": "executionFee",
          "type": "uint256"
        }
      ],
      "name": "CancelIncreaseOrder",
      "type": "event"
    },
    {
      "anonymous": false,
      "inputs": [
        {
          "indexed": true,
          "internalType": "address",
          "name": "account",
          "type": "address"
        },
        {
          "indexed": false,
          "internalType": "uint256",
          "name": "orderIndex",
          "type": "uint256"
        },
        {
          "indexed": false,
          "internalType": "address[]",
          "name": "path",
          "type": "address[]"
        },
        {
          "indexed": false,
          "internalType": "uint256",
          "name": "amountIn",
          "type": "uint256"
        },
        {
          "indexed": false,
          "internalType": "uint256",
          "name": "minOut",
          "type": "uint256"
        },
        {
          "indexed": false,
          "internalType": "uint256",
          "name": "triggerRatio",
          "type": "uint256"
        },
        {
          "indexed": false,
          "internalType": "bool",
          "name": "triggerAboveThreshold",
          "type": "bool"
        },
        {
          "indexed": false,
          "internalType": "bool",
          "name": "shouldUnwrap",
          "type": "bool"
        },
        {
          "indexed": false,
          "internalType": "uint256",
          "name": "executionFee",
          "type": "uint256"
        }
      ],
      "name": "CancelSwapOrder",
      "type": "event"
    },
    {
      "anonymous": false,
      "inputs": [
        {
          "indexed": true,
          "internalType": "address",
          "name": "account",
          "type": "address"
        },
        {
          "indexed": false,
          "internalType": "uint256",
          "name": "orderIndex",
          "type": "uint256"
        },
        {
          "indexed": false,
          "internalType": "address",
          "name": "collateralToken",
          "type": "address"
        },
        {
          "indexed": false,
          "internalType": "uint256",
          "name": "collateralDelta",
          "type": "uint256"
        },
        {
          "indexed": false,
          "internalType": "address",
          "name": "indexToken",
          "type": "address"
        },
        {
          "indexed": false,
          "internalType": "uint256",
          "name": "sizeDelta",
          "type": "uint256"
        },
        {
          "indexed": false,
          "internalType": "bool",
          "name": "isLong",
          "type": "bool"
        },
        {
          "indexed": false,
          "internalType": "uint256",
          "name": "triggerPrice",
          "type": "uint256"
        },
        {
          "indexed": false,
          "internalType": "bool",
          "name": "triggerAboveThreshold",
          "type": "bool"
        },
        {
          "indexed": false,
          "internalType": "uint256",
          "name": "executionFee",
          "type": "uint256"
        }
      ],
      "name": "CreateDecreaseOrder",
      "type": "event"
    },
    {
      "anonymous": false,
      "inputs": [
        {
          "indexed": true,
          "internalType": "address",
          "name": "account",
          "type": "address"
        },
        {
          "indexed": false,
          "internalType": "uint256",
          "name": "orderIndex",
          "type": "uint256"
        },
        {
          "indexed": false,
          "internalType": "address",
          "name": "purchaseToken",
          "type": "address"
        },
        {
          "indexed": false,
          "internalType": "uint256",
          "name": "purchaseTokenAmount",
          "type": "uint256"
        },
        {
          "indexed": false,
          "internalType": "address",
          "name": "collateralToken",
          "type": "address"
        },
        {
          "indexed": false,
          "internalType": "address",
          "name": "indexToken",
          "type": "address"
        },
        {
          "indexed": false,
          "internalType": "uint256",
          "name": "sizeDelta",
          "type": "uint256"
        },
        {
          "indexed": false,
          "internalType": "bool",
          "name": "isLong",
          "type": "bool"
        },
        {
          "indexed": false,
          "internalType": "uint256",
          "name": "triggerPrice",
          "type": "uint256"
        },
        {
          "indexed": false,
          "internalType": "bool",
          "name": "triggerAboveThreshold",
          "type": "bool"
        },
        {
          "indexed": false,
          "internalType": "uint256",
          "name": "executionFee",
          "type": "uint256"
        }
      ],
      "name": "CreateIncreaseOrder",
      "type": "event"
    },
    {
      "anonymous": false,
      "inputs": [
        {
          "indexed": true,
          "internalType": "address",
          "name": "account",
          "type": "address"
        },
        {
          "indexed": false,
          "internalType": "uint256",
          "name": "orderIndex",
          "type": "uint256"
        },
        {
          "indexed": false,
          "internalType": "address[]",
          "name": "path",
          "type": "address[]"
        },
        {
          "indexed": false,
          "internalType": "uint256",
          "name": "amountIn",
          "type": "uint256"
        },
        {
          "indexed": false,
          "internalType": "uint256",
          "name": "minOut",
          "type": "uint256"
        },
        {
          "indexed": false,
          "internalType": "uint256",
          "name": "triggerRatio",
          "type": "uint256"
        },
        {
          "indexed": false,
          "internalType": "bool",
          "name": "triggerAboveThreshold",
          "type": "bool"
        },
        {
          "indexed": false,
          "internalType": "bool",
          "name": "shouldUnwrap",
          "type": "bool"
        },
        {
          "indexed": false,
          "internalType": "uint256",
          "name": "executionFee",
          "type": "uint256"
        }
      ],
      "name": "CreateSwapOrder",
      "type": "event"
    },
    {
      "anonymous": false,
      "inputs": [
        {
          "indexed": true,
          "internalType": "address",
          "name": "account",
          "type": "address"
        },
        {
          "indexed": false,
          "internalType": "uint256",
          "name": "orderIndex",
          "type": "uint256"
        },
        {
          "indexed": false,
          "internalType": "address",
          "name": "collateralToken",
          "type": "address"
        },
        {
          "indexed": false,
          "internalType": "uint256",
          "name": "collateralDelta",
          "type": "uint256"
        },
        {
          "indexed": false,
          "internalType": "address",
          "name": "indexToken",
          "type": "address"
        },
        {
          "indexed": false,
          "internalType": "uint256",
          "name": "sizeDelta",
          "type": "uint256"
        },
        {
          "indexed": false,
          "internalType": "bool",
          "name": "isLong",
          "type": "bool"
        },
        {
          "indexed": false,
          "internalType": "uint256",
          "name": "triggerPrice",
          "type": "uint256"
        },
        {
          "indexed": false,
          "internalType": "bool",
          "name": "triggerAboveThreshold",
          "type": "bool"
        },
        {
          "indexed": false,
          "internalType": "uint256",
          "name": "executionFee",
          "type": "uint256"
        },
        {
          "indexed": false,
          "internalType": "uint256",
          "name": "executionPrice",
          "type": "uint256"
        }
      ],
      "name": "ExecuteDecreaseOrder",
      "type": "event"
    },
    {
      "anonymous": false,
      "inputs": [
        {
          "indexed": true,
          "internalType": "address",
          "name": "account",
          "type": "address"
        },
        {
          "indexed": false,
          "internalType": "uint256",
          "name": "orderIndex",
          "type": "uint256"
        },
        {
          "indexed": false,
          "internalType": "address",
          "name": "purchaseToken",
          "type": "address"
        },
        {
          "indexed": false,
          "internalType": "uint256",
          "name": "purchaseTokenAmount",
          "type": "uint256"
        },
        {
          "indexed": false,
          "internalType": "address",
          "name": "collateralToken",
          "type": "address"
        },
        {
          "indexed": false,
          "internalType": "address",
          "name": "indexToken",
          "type": "address"
        },
        {
          "indexed": false,
          "internalType": "uint256",
          "name": "sizeDelta",
          "type": "uint256"
        },
        {
          "indexed": false,
          "internalType": "bool",
          "name": "isLong",
          "type": "bool"
        },
        {
          "indexed": false,
          "internalType": "uint256",
          "name": "triggerPrice",
          "type": "uint256"
        },
        {
          "indexed": false,
          "internalType": "bool",
          "name": "triggerAboveThreshold",
          "type": "bool"
        },
        {
          "indexed": false,
          "internalType": "uint256",
          "name": "executionFee",
          "type": "uint256"
        },
        {
          "indexed": false,
          "internalType": "uint256",
          "name": "executionPrice",
          "type": "uint256"
        }
      ],
      "name": "ExecuteIncreaseOrder",
      "type": "event"
    },
    {
      "anonymous": false,
      "inputs": [
        {
          "indexed": true,
          "internalType": "address",
          "name": "account",
          "type": "address"
        },
        {
          "indexed": false,
          "internalType": "uint256",
          "name": "orderIndex",
          "type": "uint256"
        },
        {
          "indexed": false,
          "internalType": "address[]",
          "name": "path",
          "type": "address[]"
        },
        {
          "indexed": false,
          "internalType": "uint256",
          "name": "amountIn",
          "type": "uint256"
        },
        {
          "indexed": false,
          "internalType": "uint256",
          "name": "minOut",
          "type": "uint256"
        },
        {
          "indexed": false,
          "internalType": "uint256",
          "name": "amountOut",
          "type": "uint256"
        },
        {
          "indexed": false,
          "internalType": "uint256",
          "name": "triggerRatio",
          "type": "uint256"
        },
        {
          "indexed": false,
          "internalType": "bool",
          "name": "triggerAboveThreshold",
          "type": "bool"
        },
        {
          "indexed": false,
          "internalType": "bool",
          "name": "shouldUnwrap",
          "type": "bool"
        },
        {
          "indexed": false,
          "internalType": "uint256",
          "name": "executionFee",
          "type": "uint256"
        }
      ],
      "name": "ExecuteSwapOrder",
      "type": "event"
    },
    {
      "anonymous": false,
      "inputs": [
        {
          "indexed": false,
          "internalType": "address",
          "name": "router",
          "type": "address"
        },
        {
          "indexed": false,
          "internalType": "address",
          "name": "vault",
          "type": "address"
        },
        {
          "indexed": false,
          "internalType": "address",
          "name": "weth",
          "type": "address"
        },
        {
          "indexed": false,
          "internalType": "address",
          "name": "usdph",
          "type": "address"
        },
        {
          "indexed": false,
          "internalType": "uint256",
          "name": "minExecutionFee",
          "type": "uint256"
        },
        {
          "indexed": false,
          "internalType": "uint256",
          "name": "minPurchaseTokenAmountUsd",
          "type": "uint256"
        }
      ],
      "name": "Initialize",
      "type": "event"
    },
    {
      "anonymous": false,
      "inputs": [
        {
          "indexed": true,
          "internalType": "address",
          "name": "previousOwner",
          "type": "address"
        },
        {
          "indexed": true,
          "internalType": "address",
          "name": "newOwner",
          "type": "address"
        }
      ],
      "name": "OwnershipTransferred",
      "type": "event"
    },
    {
      "anonymous": false,
      "inputs": [
        {
          "indexed": true,
          "internalType": "address",
          "name": "account",
          "type": "address"
        },
        {
          "indexed": false,
          "internalType": "uint256",
          "name": "orderIndex",
          "type": "uint256"
        },
        {
          "indexed": false,
          "internalType": "address",
          "name": "collateralToken",
          "type": "address"
        },
        {
          "indexed": false,
          "internalType": "uint256",
          "name": "collateralDelta",
          "type": "uint256"
        },
        {
          "indexed": false,
          "internalType": "address",
          "name": "indexToken",
          "type": "address"
        },
        {
          "indexed": false,
          "internalType": "uint256",
          "name": "sizeDelta",
          "type": "uint256"
        },
        {
          "indexed": false,
          "internalType": "bool",
          "name": "isLong",
          "type": "bool"
        },
        {
          "indexed": false,
          "internalType": "uint256",
          "name": "triggerPrice",
          "type": "uint256"
        },
        {
          "indexed": false,
          "internalType": "bool",
          "name": "triggerAboveThreshold",
          "type": "bool"
        }
      ],
      "name": "UpdateDecreaseOrder",
      "type": "event"
    },
    {
      "anonymous": false,
      "inputs": [
        {
          "indexed": true,
          "internalType": "address",
          "name": "account",
          "type": "address"
        },
        {
          "indexed": false,
          "internalType": "uint256",
          "name": "orderIndex",
          "type": "uint256"
        },
        {
          "indexed": false,
          "internalType": "address",
          "name": "collateralToken",
          "type": "address"
        },
        {
          "indexed": false,
          "internalType": "address",
          "name": "indexToken",
          "type": "address"
        },
        {
          "indexed": false,
          "internalType": "bool",
          "name": "isLong",
          "type": "bool"
        },
        {
          "indexed": false,
          "internalType": "uint256",
          "name": "sizeDelta",
          "type": "uint256"
        },
        {
          "indexed": false,
          "internalType": "uint256",
          "name": "triggerPrice",
          "type": "uint256"
        },
        {
          "indexed": false,
          "internalType": "bool",
          "name": "triggerAboveThreshold",
          "type": "bool"
        }
      ],
      "name": "UpdateIncreaseOrder",
      "type": "event"
    },
    {
      "anonymous": false,
      "inputs": [
        {
          "indexed": false,
          "internalType": "uint256",
          "name": "minExecutionFee",
          "type": "uint256"
        }
      ],
      "name": "UpdateMinExecutionFee",
      "type": "event"
    },
    {
      "anonymous": false,
      "inputs": [
        {
          "indexed": false,
          "internalType": "uint256",
          "name": "minPurchaseTokenAmountUsd",
          "type": "uint256"
        }
      ],
      "name": "UpdateMinPurchaseTokenAmountUsd",
      "type": "event"
    },
    {
      "anonymous": false,
      "inputs": [
        {
          "indexed": true,
          "internalType": "address",
          "name": "account",
          "type": "address"
        },
        {
          "indexed": false,
          "internalType": "uint256",
          "name": "ordexIndex",
          "type": "uint256"
        },
        {
          "indexed": false,
          "internalType": "address[]",
          "name": "path",
          "type": "address[]"
        },
        {
          "indexed": false,
          "internalType": "uint256",
          "name": "amountIn",
          "type": "uint256"
        },
        {
          "indexed": false,
          "internalType": "uint256",
          "name": "minOut",
          "type": "uint256"
        },
        {
          "indexed": false,
          "internalType": "uint256",
          "name": "triggerRatio",
          "type": "uint256"
        },
        {
          "indexed": false,
          "internalType": "bool",
          "name": "triggerAboveThreshold",
          "type": "bool"
        },
        {
          "indexed": false,
          "internalType": "bool",
          "name": "shouldUnwrap",
          "type": "bool"
        },
        {
          "indexed": false,
          "internalType": "uint256",
          "name": "executionFee",
          "type": "uint256"
        }
      ],
      "name": "UpdateSwapOrder",
      "type": "event"
    },
    {
      "inputs": [],
      "name": "PRICE_PRECISION",
      "outputs": [
        {
          "internalType": "uint256",
          "name": "",
          "type": "uint256"
        }
      ],
      "stateMutability": "view",
      "type": "function"
    },
    {
      "inputs": [],
      "name": "USDPH_PRECISION",
      "outputs": [
        {
          "internalType": "uint256",
          "name": "",
          "type": "uint256"
        }
      ],
      "stateMutability": "view",
      "type": "function"
    },
    {
      "inputs": [
        {
          "internalType": "uint256",
          "name": "_orderIndex",
          "type": "uint256"
        }
      ],
      "name": "cancelDecreaseOrder",
      "outputs": [],
      "stateMutability": "nonpayable",
      "type": "function"
    },
    {
      "inputs": [
        {
          "internalType": "uint256",
          "name": "_orderIndex",
          "type": "uint256"
        }
      ],
      "name": "cancelIncreaseOrder",
      "outputs": [],
      "stateMutability": "nonpayable",
      "type": "function"
    },
    {
      "inputs": [
        {
          "internalType": "uint256[]",
          "name": "_swapOrderIndexes",
          "type": "uint256[]"
        },
        {
          "internalType": "uint256[]",
          "name": "_increaseOrderIndexes",
          "type": "uint256[]"
        },
        {
          "internalType": "uint256[]",
          "name": "_decreaseOrderIndexes",
          "type": "uint256[]"
        }
      ],
      "name": "cancelMultiple",
      "outputs": [],
      "stateMutability": "nonpayable",
      "type": "function"
    },
    {
      "inputs": [
        {
          "internalType": "uint256",
          "name": "_orderIndex",
          "type": "uint256"
        }
      ],
      "name": "cancelSwapOrder",
      "outputs": [],
      "stateMutability": "nonpayable",
      "type": "function"
    },
    {
      "inputs": [
        {
          "internalType": "address",
          "name": "_indexToken",
          "type": "address"
        },
        {
          "internalType": "uint256",
          "name": "_sizeDelta",
          "type": "uint256"
        },
        {
          "internalType": "address",
          "name": "_collateralToken",
          "type": "address"
        },
        {
          "internalType": "uint256",
          "name": "_collateralDelta",
          "type": "uint256"
        },
        {
          "internalType": "bool",
          "name": "_isLong",
          "type": "bool"
        },
        {
          "internalType": "uint256",
          "name": "_triggerPrice",
          "type": "uint256"
        },
        {
          "internalType": "bool",
          "name": "_triggerAboveThreshold",
          "type": "bool"
        }
      ],
      "name": "createDecreaseOrder",
      "outputs": [],
      "stateMutability": "payable",
      "type": "function"
    },
    {
      "inputs": [
        {
          "internalType": "address[]",
          "name": "_path",
          "type": "address[]"
        },
        {
          "internalType": "uint256",
          "name": "_amountIn",
          "type": "uint256"
        },
        {
          "internalType": "address",
          "name": "_indexToken",
          "type": "address"
        },
        {
          "internalType": "uint256",
          "name": "_minOut",
          "type": "uint256"
        },
        {
          "internalType": "uint256",
          "name": "_sizeDelta",
          "type": "uint256"
        },
        {
          "internalType": "address",
          "name": "_collateralToken",
          "type": "address"
        },
        {
          "internalType": "bool",
          "name": "_isLong",
          "type": "bool"
        },
        {
          "internalType": "uint256",
          "name": "_triggerPrice",
          "type": "uint256"
        },
        {
          "internalType": "bool",
          "name": "_triggerAboveThreshold",
          "type": "bool"
        },
        {
          "internalType": "uint256",
          "name": "_executionFee",
          "type": "uint256"
        },
        {
          "internalType": "bool",
          "name": "_shouldWrap",
          "type": "bool"
        }
      ],
      "name": "createIncreaseOrder",
      "outputs": [],
      "stateMutability": "payable",
      "type": "function"
    },
    {
      "inputs": [
        {
          "internalType": "address[]",
          "name": "_path",
          "type": "address[]"
        },
        {
          "internalType": "uint256",
          "name": "_amountIn",
          "type": "uint256"
        },
        {
          "internalType": "uint256",
          "name": "_minOut",
          "type": "uint256"
        },
        {
          "internalType": "uint256",
          "name": "_triggerRatio",
          "type": "uint256"
        },
        {
          "internalType": "bool",
          "name": "_triggerAboveThreshold",
          "type": "bool"
        },
        {
          "internalType": "uint256",
          "name": "_executionFee",
          "type": "uint256"
        },
        {
          "internalType": "bool",
          "name": "_shouldWrap",
          "type": "bool"
        },
        {
          "internalType": "bool",
          "name": "_shouldUnwrap",
          "type": "bool"
        }
      ],
      "name": "createSwapOrder",
      "outputs": [],
      "stateMutability": "payable",
      "type": "function"
    },
    {
      "inputs": [
        {
          "internalType": "address",
          "name": "",
          "type": "address"
        },
        {
          "internalType": "uint256",
          "name": "",
          "type": "uint256"
        }
      ],
      "name": "decreaseOrders",
      "outputs": [
        {
          "internalType": "address",
          "name": "account",
          "type": "address"
        },
        {
          "internalType": "address",
          "name": "collateralToken",
          "type": "address"
        },
        {
          "internalType": "uint256",
          "name": "collateralDelta",
          "type": "uint256"
        },
        {
          "internalType": "address",
          "name": "indexToken",
          "type": "address"
        },
        {
          "internalType": "uint256",
          "name": "sizeDelta",
          "type": "uint256"
        },
        {
          "internalType": "bool",
          "name": "isLong",
          "type": "bool"
        },
        {
          "internalType": "uint256",
          "name": "triggerPrice",
          "type": "uint256"
        },
        {
          "internalType": "bool",
          "name": "triggerAboveThreshold",
          "type": "bool"
        },
        {
          "internalType": "uint256",
          "name": "executionFee",
          "type": "uint256"
        }
      ],
      "stateMutability": "view",
      "type": "function"
    },
    {
      "inputs": [
        {
          "internalType": "address",
          "name": "",
          "type": "address"
        }
      ],
      "name": "decreaseOrdersIndex",
      "outputs": [
        {
          "internalType": "uint256",
          "name": "",
          "type": "uint256"
        }
      ],
      "stateMutability": "view",
      "type": "function"
    },
    {
      "inputs": [
        {
          "internalType": "address",
          "name": "_address",
          "type": "address"
        },
        {
          "internalType": "uint256",
          "name": "_orderIndex",
          "type": "uint256"
        },
        {
          "internalType": "address payable",
          "name": "_feeReceiver",
          "type": "address"
        }
      ],
      "name": "executeDecreaseOrder",
      "outputs": [],
      "stateMutability": "nonpayable",
      "type": "function"
    },
    {
      "inputs": [
        {
          "internalType": "address",
          "name": "_address",
          "type": "address"
        },
        {
          "internalType": "uint256",
          "name": "_orderIndex",
          "type": "uint256"
        },
        {
          "internalType": "address payable",
          "name": "_feeReceiver",
          "type": "address"
        }
      ],
      "name": "executeIncreaseOrder",
      "outputs": [],
      "stateMutability": "nonpayable",
      "type": "function"
    },
    {
      "inputs": [
        {
          "internalType": "address",
          "name": "_account",
          "type": "address"
        },
        {
          "internalType": "uint256",
          "name": "_orderIndex",
          "type": "uint256"
        },
        {
          "internalType": "address payable",
          "name": "_feeReceiver",
          "type": "address"
        }
      ],
      "name": "executeSwapOrder",
      "outputs": [],
      "stateMutability": "nonpayable",
      "type": "function"
    },
    {
      "inputs": [
        {
          "internalType": "address",
          "name": "_account",
          "type": "address"
        },
        {
          "internalType": "uint256",
          "name": "_orderIndex",
          "type": "uint256"
        }
      ],
      "name": "getDecreaseOrder",
      "outputs": [
        {
          "internalType": "address",
          "name": "collateralToken",
          "type": "address"
        },
        {
          "internalType": "uint256",
          "name": "collateralDelta",
          "type": "uint256"
        },
        {
          "internalType": "address",
          "name": "indexToken",
          "type": "address"
        },
        {
          "internalType": "uint256",
          "name": "sizeDelta",
          "type": "uint256"
        },
        {
          "internalType": "bool",
          "name": "isLong",
          "type": "bool"
        },
        {
          "internalType": "uint256",
          "name": "triggerPrice",
          "type": "uint256"
        },
        {
          "internalType": "bool",
          "name": "triggerAboveThreshold",
          "type": "bool"
        },
        {
          "internalType": "uint256",
          "name": "executionFee",
          "type": "uint256"
        }
      ],
      "stateMutability": "view",
      "type": "function"
    },
    {
      "inputs": [
        {
          "internalType": "address",
          "name": "_account",
          "type": "address"
        },
        {
          "internalType": "uint256",
          "name": "_orderIndex",
          "type": "uint256"
        }
      ],
      "name": "getIncreaseOrder",
      "outputs": [
        {
          "internalType": "address",
          "name": "purchaseToken",
          "type": "address"
        },
        {
          "internalType": "uint256",
          "name": "purchaseTokenAmount",
          "type": "uint256"
        },
        {
          "internalType": "address",
          "name": "collateralToken",
          "type": "address"
        },
        {
          "internalType": "address",
          "name": "indexToken",
          "type": "address"
        },
        {
          "internalType": "uint256",
          "name": "sizeDelta",
          "type": "uint256"
        },
        {
          "internalType": "bool",
          "name": "isLong",
          "type": "bool"
        },
        {
          "internalType": "uint256",
          "name": "triggerPrice",
          "type": "uint256"
        },
        {
          "internalType": "bool",
          "name": "triggerAboveThreshold",
          "type": "bool"
        },
        {
          "internalType": "uint256",
          "name": "executionFee",
          "type": "uint256"
        }
      ],
      "stateMutability": "view",
      "type": "function"
    },
    {
      "inputs": [
        {
          "internalType": "address",
          "name": "_account",
          "type": "address"
        },
        {
          "internalType": "uint256",
          "name": "_orderIndex",
          "type": "uint256"
        }
      ],
      "name": "getSwapOrder",
      "outputs": [
        {
          "internalType": "address",
          "name": "path0",
          "type": "address"
        },
        {
          "internalType": "address",
          "name": "path1",
          "type": "address"
        },
        {
          "internalType": "address",
          "name": "path2",
          "type": "address"
        },
        {
          "internalType": "uint256",
          "name": "amountIn",
          "type": "uint256"
        },
        {
          "internalType": "uint256",
          "name": "minOut",
          "type": "uint256"
        },
        {
          "internalType": "uint256",
          "name": "triggerRatio",
          "type": "uint256"
        },
        {
          "internalType": "bool",
          "name": "triggerAboveThreshold",
          "type": "bool"
        },
        {
          "internalType": "bool",
          "name": "shouldUnwrap",
          "type": "bool"
        },
        {
          "internalType": "uint256",
          "name": "executionFee",
          "type": "uint256"
        }
      ],
      "stateMutability": "view",
      "type": "function"
    },
    {
      "inputs": [
        {
          "internalType": "address",
          "name": "_otherToken",
          "type": "address"
        }
      ],
      "name": "getUsdphMinPrice",
      "outputs": [
        {
          "internalType": "uint256",
          "name": "",
          "type": "uint256"
        }
      ],
      "stateMutability": "view",
      "type": "function"
    },
    {
      "inputs": [
        {
          "internalType": "address",
          "name": "",
          "type": "address"
        },
        {
          "internalType": "uint256",
          "name": "",
          "type": "uint256"
        }
      ],
      "name": "increaseOrders",
      "outputs": [
        {
          "internalType": "address",
          "name": "account",
          "type": "address"
        },
        {
          "internalType": "address",
          "name": "purchaseToken",
          "type": "address"
        },
        {
          "internalType": "uint256",
          "name": "purchaseTokenAmount",
          "type": "uint256"
        },
        {
          "internalType": "address",
          "name": "collateralToken",
          "type": "address"
        },
        {
          "internalType": "address",
          "name": "indexToken",
          "type": "address"
        },
        {
          "internalType": "uint256",
          "name": "sizeDelta",
          "type": "uint256"
        },
        {
          "internalType": "bool",
          "name": "isLong",
          "type": "bool"
        },
        {
          "internalType": "uint256",
          "name": "triggerPrice",
          "type": "uint256"
        },
        {
          "internalType": "bool",
          "name": "triggerAboveThreshold",
          "type": "bool"
        },
        {
          "internalType": "uint256",
          "name": "executionFee",
          "type": "uint256"
        }
      ],
      "stateMutability": "view",
      "type": "function"
    },
    {
      "inputs": [
        {
          "internalType": "address",
          "name": "",
          "type": "address"
        }
      ],
      "name": "increaseOrdersIndex",
      "outputs": [
        {
          "internalType": "uint256",
          "name": "",
          "type": "uint256"
        }
      ],
      "stateMutability": "view",
      "type": "function"
    },
    {
      "inputs": [
        {
          "internalType": "address",
          "name": "_router",
          "type": "address"
        },
        {
          "internalType": "address",
          "name": "_vault",
          "type": "address"
        },
        {
          "internalType": "address",
          "name": "_weth",
          "type": "address"
        },
        {
          "internalType": "address",
          "name": "_usdph",
          "type": "address"
        },
        {
          "internalType": "uint256",
          "name": "_minExecutionFee",
          "type": "uint256"
        },
        {
          "internalType": "uint256",
          "name": "_minPurchaseTokenAmountUsd",
          "type": "uint256"
        }
      ],
      "name": "initialize",
      "outputs": [],
      "stateMutability": "nonpayable",
      "type": "function"
    },
    {
      "inputs": [],
      "name": "isInitialized",
      "outputs": [
        {
          "internalType": "bool",
          "name": "",
          "type": "bool"
        }
      ],
      "stateMutability": "view",
      "type": "function"
    },
    {
      "inputs": [],
      "name": "minExecutionFee",
      "outputs": [
        {
          "internalType": "uint256",
          "name": "",
          "type": "uint256"
        }
      ],
      "stateMutability": "view",
      "type": "function"
    },
    {
      "inputs": [],
      "name": "minPurchaseTokenAmountUsd",
      "outputs": [
        {
          "internalType": "uint256",
          "name": "",
          "type": "uint256"
        }
      ],
      "stateMutability": "view",
      "type": "function"
    },
    {
      "inputs": [],
      "name": "owner",
      "outputs": [
        {
          "internalType": "address",
          "name": "",
          "type": "address"
        }
      ],
      "stateMutability": "view",
      "type": "function"
    },
    {
      "inputs": [],
      "name": "renounceOwnership",
      "outputs": [],
      "stateMutability": "nonpayable",
      "type": "function"
    },
    {
      "inputs": [],
      "name": "router",
      "outputs": [
        {
          "internalType": "address",
          "name": "",
          "type": "address"
        }
      ],
      "stateMutability": "view",
      "type": "function"
    },
    {
      "inputs": [
        {
          "internalType": "uint256",
          "name": "_minExecutionFee",
          "type": "uint256"
        }
      ],
      "name": "setMinExecutionFee",
      "outputs": [],
      "stateMutability": "nonpayable",
      "type": "function"
    },
    {
      "inputs": [
        {
          "internalType": "uint256",
          "name": "_minPurchaseTokenAmountUsd",
          "type": "uint256"
        }
      ],
      "name": "setMinPurchaseTokenAmountUsd",
      "outputs": [],
      "stateMutability": "nonpayable",
      "type": "function"
    },
    {
      "inputs": [
        {
          "internalType": "address",
          "name": "",
          "type": "address"
        },
        {
          "internalType": "uint256",
          "name": "",
          "type": "uint256"
        }
      ],
      "name": "swapOrders",
      "outputs": [
        {
          "internalType": "address",
          "name": "account",
          "type": "address"
        },
        {
          "internalType": "uint256",
          "name": "amountIn",
          "type": "uint256"
        },
        {
          "internalType": "uint256",
          "name": "minOut",
          "type": "uint256"
        },
        {
          "internalType": "uint256",
          "name": "triggerRatio",
          "type": "uint256"
        },
        {
          "internalType": "bool",
          "name": "triggerAboveThreshold",
          "type": "bool"
        },
        {
          "internalType": "bool",
          "name": "shouldUnwrap",
          "type": "bool"
        },
        {
          "internalType": "uint256",
          "name": "executionFee",
          "type": "uint256"
        }
      ],
      "stateMutability": "view",
      "type": "function"
    },
    {
      "inputs": [
        {
          "internalType": "address",
          "name": "",
          "type": "address"
        }
      ],
      "name": "swapOrdersIndex",
      "outputs": [
        {
          "internalType": "uint256",
          "name": "",
          "type": "uint256"
        }
      ],
      "stateMutability": "view",
      "type": "function"
    },
    {
      "inputs": [
        {
          "internalType": "address",
          "name": "newOwner",
          "type": "address"
        }
      ],
      "name": "transferOwnership",
      "outputs": [],
      "stateMutability": "nonpayable",
      "type": "function"
    },
    {
      "inputs": [
        {
          "internalType": "uint256",
          "name": "_orderIndex",
          "type": "uint256"
        },
        {
          "internalType": "uint256",
          "name": "_collateralDelta",
          "type": "uint256"
        },
        {
          "internalType": "uint256",
          "name": "_sizeDelta",
          "type": "uint256"
        },
        {
          "internalType": "uint256",
          "name": "_triggerPrice",
          "type": "uint256"
        },
        {
          "internalType": "bool",
          "name": "_triggerAboveThreshold",
          "type": "bool"
        }
      ],
      "name": "updateDecreaseOrder",
      "outputs": [],
      "stateMutability": "nonpayable",
      "type": "function"
    },
    {
      "inputs": [
        {
          "internalType": "uint256",
          "name": "_orderIndex",
          "type": "uint256"
        },
        {
          "internalType": "uint256",
          "name": "_sizeDelta",
          "type": "uint256"
        },
        {
          "internalType": "uint256",
          "name": "_triggerPrice",
          "type": "uint256"
        },
        {
          "internalType": "bool",
          "name": "_triggerAboveThreshold",
          "type": "bool"
        }
      ],
      "name": "updateIncreaseOrder",
      "outputs": [],
      "stateMutability": "nonpayable",
      "type": "function"
    },
    {
      "inputs": [
        {
          "internalType": "uint256",
          "name": "_orderIndex",
          "type": "uint256"
        },
        {
          "internalType": "uint256",
          "name": "_minOut",
          "type": "uint256"
        },
        {
          "internalType": "uint256",
          "name": "_triggerRatio",
          "type": "uint256"
        },
        {
          "internalType": "bool",
          "name": "_triggerAboveThreshold",
          "type": "bool"
        }
      ],
      "name": "updateSwapOrder",
      "outputs": [],
      "stateMutability": "nonpayable",
      "type": "function"
    },
    {
      "inputs": [],
      "name": "usdph",
      "outputs": [
        {
          "internalType": "address",
          "name": "",
          "type": "address"
        }
      ],
      "stateMutability": "view",
      "type": "function"
    },
    {
      "inputs": [
        {
          "internalType": "bool",
          "name": "_triggerAboveThreshold",
          "type": "bool"
        },
        {
          "internalType": "uint256",
          "name": "_triggerPrice",
          "type": "uint256"
        },
        {
          "internalType": "address",
          "name": "_indexToken",
          "type": "address"
        },
        {
          "internalType": "bool",
          "name": "_maximizePrice",
          "type": "bool"
        },
        {
          "internalType": "bool",
          "name": "_raise",
          "type": "bool"
        }
      ],
      "name": "validatePositionOrderPrice",
      "outputs": [
        {
          "internalType": "uint256",
          "name": "",
          "type": "uint256"
        },
        {
          "internalType": "bool",
          "name": "",
          "type": "bool"
        }
      ],
      "stateMutability": "view",
      "type": "function"
    },
    {
      "inputs": [
        {
          "internalType": "address[]",
          "name": "_path",
          "type": "address[]"
        },
        {
          "internalType": "uint256",
          "name": "_triggerRatio",
          "type": "uint256"
        }
      ],
      "name": "validateSwapOrderPriceWithTriggerAboveThreshold",
      "outputs": [
        {
          "internalType": "bool",
          "name": "",
          "type": "bool"
        }
      ],
      "stateMutability": "view",
      "type": "function"
    },
    {
      "inputs": [],
      "name": "vault",
      "outputs": [
        {
          "internalType": "address",
          "name": "",
          "type": "address"
        }
      ],
      "stateMutability": "view",
      "type": "function"
    },
    {
      "inputs": [],
      "name": "weth",
      "outputs": [
        {
          "internalType": "address",
          "name": "",
          "type": "address"
        }
      ],
      "stateMutability": "view",
      "type": "function"
    },
    {
      "stateMutability": "payable",
      "type": "receive"
    }
  ],
  "bytecode": "0x6080604052600e805460ff191690553480156200001b57600080fd5b506000620000286200007c565b600080546001600160a01b0319166001600160a01b0383169081178255604051929350917f8be0079c531659141344cd1fd0a4f28419497f9722a3daafe3b4186f6b6457e0908290a3506001805562000080565b3390565b6153c480620000906000396000f3fe60806040526004361061023e5760003560e01c80639e71b0f01161012e578063d38ab519116100ab578063f2fde38b1161006f578063f2fde38b14610f0a578063f882ac0714610f3d578063f887ea4014610f67578063fbfa77cf14610f7c578063fc2cee6214610f91576102a4565b8063d38ab51914610d13578063d3bab1d114610d56578063d566d0ca14610dea578063d7c41c7914610e1d578063f2d2e01b14610e76576102a4565b8063c16cde8a116100f2578063c16cde8a14610b0f578063c4a1821b14610b5f578063c86b0f7d14610c0f578063c989d96414610c4d578063d0d40cd614610c80576102a4565b80639e71b0f01461096f578063a397ea5414610999578063a51b1e75146109dd578063aec22455146109f2578063b142a4b014610a25576102a4565b806347e0bbd0116101bc578063807c560011610180578063807c5600146107405780638da5cb5b146108f25780638de10c2e1461090757806395082d251461091c5780639983ee1b14610931576102a4565b806347e0bbd0146106035780634c54f0b01461062d57806363ae210314610697578063715018a6146106ac57806379221fa2146106c1576102a4565b80631352adce116102035780631352adce14610429578063269ae6c21461045a5780632b7d629014610525578063392e53cd146105c55780633fc8cef3146105ee576102a4565b8062cf066b146102a9578063026032ee146102ee57806307c7edc3146103795780630d5cc938146103bc57806311d9444a146103e6576102a4565b366102a4576008546001600160a01b031633146102a2576040805162461bcd60e51b815260206004820152601960248201527f4f72646572426f6f6b3a20696e76616c69642073656e64657200000000000000604482015290519081900360640190fd5b005b600080fd5b3480156102b557600080fd5b506102dc600480360360208110156102cc57600080fd5b50356001600160a01b0316610fbb565b60408051918252519081900360200190f35b3480156102fa57600080fd5b506103276004803603604081101561031157600080fd5b506001600160a01b038135169060200135610fcd565b604080516001600160a01b03998a168152602081019890985295909716868601526060860193909352901515608085015260a0840152151560c083015260e08201929092529051908190036101000190f35b34801561038557600080fd5b506102a26004803603606081101561039c57600080fd5b506001600160a01b03813581169160208101359160409091013516611081565b3480156103c857600080fd5b506102a2600480360360208110156103df57600080fd5b5035611481565b3480156103f257600080fd5b506102a26004803603606081101561040957600080fd5b506001600160a01b0381358116916020810135916040909101351661151e565b34801561043557600080fd5b5061043e6118c0565b604080516001600160a01b039092168252519081900360200190f35b6102a2600480360361010081101561047157600080fd5b810190602081018135600160201b81111561048b57600080fd5b82018360208201111561049d57600080fd5b803590602001918460208302840111600160201b831117156104be57600080fd5b91908080602002602001604051908101604052809392919081815260200183836020028082843760009201919091525092955050823593505050602081013590604081013590606081013515159060808101359060a081013515159060c0013515156118cf565b34801561053157600080fd5b5061055e6004803603604081101561054857600080fd5b506001600160a01b038135169060200135611c6a565b604080516001600160a01b039b8c168152998b1660208b015289810198909852958916606089015293909716608087015260a0860191909152151560c085015260e08401949094529215156101008301526101208201929092529051908190036101400190f35b3480156105d157600080fd5b506105da611cdb565b604080519115158252519081900360200190f35b3480156105fa57600080fd5b5061043e611ce4565b34801561060f57600080fd5b506102a26004803603602081101561062657600080fd5b5035611cf3565b34801561063957600080fd5b5061067e600480360360a081101561065057600080fd5b5080351515906020810135906001600160a01b03604082013516906060810135151590608001351515611ff0565b6040805192835290151560208301528051918290030190f35b3480156106a357600080fd5b506102dc612159565b3480156106b857600080fd5b506102a261215f565b3480156106cd57600080fd5b506106fa600480360360408110156106e457600080fd5b506001600160a01b03813516906020013561220b565b604080516001600160a01b039098168852602088019690965286860194909452606086019290925215156080850152151560a084015260c0830152519081900360e00190f35b34801561074c57600080fd5b506102a26004803603606081101561076357600080fd5b810190602081018135600160201b81111561077d57600080fd5b82018360208201111561078f57600080fd5b803590602001918460208302840111600160201b831117156107b057600080fd5b9190808060200260200160405190810160405280939291908181526020018383602002808284376000920191909152509295949360208101935035915050600160201b8111156107ff57600080fd5b82018360208201111561081157600080fd5b803590602001918460208302840111600160201b8311171561083257600080fd5b9190808060200260200160405190810160405280939291908181526020018383602002808284376000920191909152509295949360208101935035915050600160201b81111561088157600080fd5b82018360208201111561089357600080fd5b803590602001918460208302840111600160201b831117156108b457600080fd5b91908080602002602001604051908101604052809392919081815260200183836020028082843760009201919091525092955061225f945050505050565b3480156108fe57600080fd5b5061043e6122f7565b34801561091357600080fd5b506102dc612306565b34801561092857600080fd5b506102dc61230c565b34801561093d57600080fd5b506102a26004803603608081101561095457600080fd5b5080359060208101359060408101359060600135151561231d565b34801561097b57600080fd5b506102a26004803603602081101561099257600080fd5b5035612474565b3480156109a557600080fd5b506102a2600480360360a08110156109bc57600080fd5b508035906020810135906040810135906060810135906080013515156126d5565b3480156109e957600080fd5b506102dc61283d565b3480156109fe57600080fd5b506102dc60048036036020811015610a1557600080fd5b50356001600160a01b0316612849565b6102a26004803603610160811015610a3c57600080fd5b810190602081018135600160201b811115610a5657600080fd5b820183602082011115610a6857600080fd5b803590602001918460208302840111600160201b83111715610a8957600080fd5b9190808060200260200160405190810160405280939291908181526020018383602002808284376000920191909152509295505082359350506001600160a01b036020830135811692604081013592506060810135916080820135169060a081013515159060c08101359060e0810135151590610100810135906101200135151561285b565b6102a2600480360360e0811015610b2557600080fd5b506001600160a01b03813581169160208101359160408201351690606081013590608081013515159060a08101359060c001351515612c5c565b348015610b6b57600080fd5b506105da60048036036040811015610b8257600080fd5b810190602081018135600160201b811115610b9c57600080fd5b820183602082011115610bae57600080fd5b803590602001918460208302840111600160201b83111715610bcf57600080fd5b9190808060200260200160405190810160405280939291908181526020018383602002808284376000920191909152509295505091359250612d0c915050565b348015610c1b57600080fd5b506102a260048036036080811015610c3257600080fd5b50803590602081013590604081013590606001351515612f3d565b348015610c5957600080fd5b506102dc60048036036020811015610c7057600080fd5b50356001600160a01b0316613106565b348015610c8c57600080fd5b50610cb960048036036040811015610ca357600080fd5b506001600160a01b0381351690602001356132aa565b604080516001600160a01b039a8b168152988a1660208a015296909816878701526060870194909452608086019290925260a0850152151560c0840152151560e08301526101008201929092529051908190036101200190f35b348015610d1f57600080fd5b506102a260048036036060811015610d3657600080fd5b506001600160a01b03813581169160208101359160409091013516613465565b348015610d6257600080fd5b50610d8f60048036036040811015610d7957600080fd5b506001600160a01b0381351690602001356138c4565b604080516001600160a01b039a8b1681526020810199909952968916888801529490971660608701526080860192909252151560a085015260c084015292151560e08301526101008201929092529051908190036101200190f35b348015610df657600080fd5b506102dc60048036036020811015610e0d57600080fd5b50356001600160a01b031661398b565b348015610e2957600080fd5b506102a2600480360360c0811015610e4057600080fd5b506001600160a01b0381358116916020810135821691604082013581169160608101359091169060808101359060a0013561399d565b348015610e8257600080fd5b50610eaf60048036036040811015610e9957600080fd5b506001600160a01b038135169060200135613b18565b604080516001600160a01b039a8b168152988a1660208a0152888101979097529490971660608701526080860192909252151560a085015260c084015292151560e08301526101008201929092529051908190036101200190f35b348015610f1657600080fd5b506102a260048036036020811015610f2d57600080fd5b50356001600160a01b0316613b80565b348015610f4957600080fd5b506102a260048036036020811015610f6057600080fd5b5035613c82565b348015610f7357600080fd5b5061043e613fb7565b348015610f8857600080fd5b5061043e613fc6565b348015610f9d57600080fd5b506102a260048036036020811015610fb457600080fd5b5035613fd5565b60076020526000908152604090205481565b6001600160a01b039182166000908152600460208181526040808420948452938152918390208351610120810185528154861681526001820154861693810184905260028201549481018590526003820154909516606086018190529181015460808601819052600582015460ff908116151560a08801819052600684015460c089018190526007850154909216151560e08901819052600890940154610100909801889052949795969395919493909291565b600260015414156110c7576040805162461bcd60e51b815260206004820152601f6024820152600080516020615177833981519152604482015290519081900360640190fd5b600260019081556001600160a01b03808516600090815260066020908152604080832087845282528083208151610100810183528154909516855294850180548251818502810185019093528083529395938584019383018282801561115657602002820191906000526020600020905b81546001600160a01b03168152600190910190602001808311611138575b5050509183525050600282015460208201526003820154604082015260048201546060820152600582015460ff8082161515608084015261010090910416151560a082015260069091015460c09091015280519091506001600160a01b03166111f4576040805162461bcd60e51b815260206004820152601d6024820152600080516020615157833981519152604482015290519081900360640190fd5b8060a001511561124b5761121081602001518260800151612d0c565b61124b5760405162461bcd60e51b81526004018080602001828103825260268152602001806153116026913960400191505060405180910390fd5b6001600160a01b0384166000908152600660209081526040808320868452909152812080546001600160a01b03191681559061128a60018301826150bb565b50600060028201819055600382018190556004820181905560058201805461ffff191690556006909101819055600b546040830151602084015180516112fd946001600160a01b0390941693906112dd57fe5b60200260200101516001600160a01b03166140729092919063ffffffff16565b600854602082015180516000926001600160a01b03169190600019810190811061132357fe5b60200260200101516001600160a01b031614801561134257508160c001515b1561136f5761135a82602001518360600151306140c9565b905061136a81836000015161420a565b611389565b6113868260200151836060015184600001516140c9565b90505b6113978260e001518461420a565b846001600160a01b03167f7e1fe496989eea92b738a562dbf9c0ae6aa6fcf3f1ef09e95ee4f7603721706b858460200151856040015186606001518688608001518960a001518a60c001518b60e00151604051808a8152602001806020018981526020018881526020018781526020018681526020018515158152602001841515815260200183815260200182810382528a818151815260200191508051906020019060200280838360005b8381101561145b578181015183820152602001611443565b505050509050019a505050505050505050505060405180910390a2505060018055505050565b611489614287565b6001600160a01b031661149a6122f7565b6001600160a01b0316146114e3576040805162461bcd60e51b815260206004820181905260248201526000805160206152cb833981519152604482015290519081900360640190fd5b600d8190556040805182815290517fe46d9daf6d25f7615efa1d0183b90ac6759d85014b598e409aadf0fd918d59a69181900360200190a150565b60026001541415611564576040805162461bcd60e51b815260206004820152601f6024820152600080516020615177833981519152604482015290519081900360640190fd5b600260018181556001600160a01b0380861660009081526004602081815260408084208985528252928390208351610120810185528154861680825296820154861692810192909252958601549281019290925260038501549092166060820152908301546080820152600583015460ff908116151560a0830152600684015460c0830152600784015416151560e0820152600890920154610100830152611641576040805162461bcd60e51b815260206004820152601d6024820152600080516020615157833981519152604482015290519081900360640190fd5b60006116628260e001518360c0015184606001518560a00151156001611ff0565b506001600160a01b0380871660009081526004602081815260408084208a8552825280842080546001600160a01b031990811682556001820180548216905560028201869055600382018054909116905580840185905560058101805460ff19908116909155600682018690556007820180549091169055600801849055600a5488518984015160608b01518b85015160808d015160a08e01518751632662166b60e01b8152958c1699860199909952928a16602485015290891660448401526064830152608482015293151560a48501523060c4850152905195965092949290931692632662166b9260e48084019382900301818787803b15801561176757600080fd5b505af115801561177b573d6000803e3d6000fd5b505050506040513d602081101561179157600080fd5b505160085460208501519192506001600160a01b03918216911614156117c4576117bf81846000015161420a565b6117e1565b825160208401516117e1916001600160a01b039091169083614072565b6117f08361010001518561420a565b82600001516001600160a01b03167f9a382661d6573da86db000471303be6f0b2b1bb66089b08e3c16a85d7b6e94f88685602001518660400151876060015188608001518960a001518a60c001518b60e001518c61010001518c604051808b81526020018a6001600160a01b03168152602001898152602001886001600160a01b03168152602001878152602001861515815260200185815260200184151581526020018381526020018281526020019a505050505050505050505060405180910390a250506001805550505050565b6009546001600160a01b031681565b60026001541415611915576040805162461bcd60e51b815260206004820152601f6024820152600080516020615177833981519152604482015290519081900360640190fd5b600260018190558851148061192b575087516003145b61197c576040805162461bcd60e51b815260206004820152601f60248201527f4f72646572426f6f6b3a20696e76616c6964205f706174682e6c656e67746800604482015290519081900360640190fd5b8760018951038151811061198c57fe5b60200260200101516001600160a01b0316886000815181106119aa57fe5b60200260200101516001600160a01b03161415611a09576040805162461bcd60e51b815260206004820152601860248201527709ee4c8cae484deded67440d2dcecc2d8d2c840bee0c2e8d60431b604482015290519081900360640190fd5b60008711611a5e576040805162461bcd60e51b815260206004820152601c60248201527f4f72646572426f6f6b3a20696e76616c6964205f616d6f756e74496e00000000604482015290519081900360640190fd5b600c54831015611a9f5760405162461bcd60e51b81526004018080602001828103825260258152602001806152856025913960400191505060405180910390fd5b611aa761428b565b8115611b625760085488516001600160a01b03909116908990600090611ac957fe5b60200260200101516001600160a01b031614611b165760405162461bcd60e51b81526004018080602001828103825260258152602001806152606025913960400191505060405180910390fd5b611b2083886142fd565b3414611b5d5760405162461bcd60e51b81526004018080602001828103825260268152602001806152eb6026913960400191505060405180910390fd5b611c4c565b823414611ba05760405162461bcd60e51b815260040180806020018281038252602e815260200180615361602e913960400191505060405180910390fd5b600a5488516001600160a01b0390911690631b827878908a90600090611bc257fe5b602002602001015133308b6040518563ffffffff1660e01b815260040180856001600160a01b03168152602001846001600160a01b03168152602001836001600160a01b03168152602001828152602001945050505050600060405180830381600087803b158015611c3357600080fd5b505af1158015611c47573d6000803e3d6000fd5b505050505b611c5c338989898989878a614357565b505060018055505050505050565b6002602081815260009384526040808520909152918352912080546001820154928201546003830154600484015460058501546006860154600787015460088801546009909801546001600160a01b03978816998816989697958616969490951694929360ff92831693919216908a565b600e5460ff1681565b6008546001600160a01b031681565b60026001541415611d39576040805162461bcd60e51b815260206004820152601f6024820152600080516020615177833981519152604482015290519081900360640190fd5b600260018181553360009081526020838152604080832086845282529182902082516101408101845281546001600160a01b039081168083529583015481169382019390935294810154928501929092526003820154811660608501526004820154166080840152600581015460a0840152600681015460ff908116151560c0850152600782015460e0850152600882015416151561010084015260090154610120830152611e1d576040805162461bcd60e51b815260206004820152601d6024820152600080516020615157833981519152604482015290519081900360640190fd5b3360009081526002602081815260408084208685528252832080546001600160a01b0319908116825560018201805482169055928101849055600381018054841690556004810180549093169092556005820183905560068201805460ff19908116909155600783018490556008808401805490921690915560099092019290925554908201516001600160a01b0390811691161415611ee157611edc611ed682604001518361012001516142fd90919063ffffffff16565b3361420a565b611f16565b611f0733826040015183602001516001600160a01b03166140729092919063ffffffff16565b611f168161012001513361420a565b80600001516001600160a01b03167fd500f34e0ec655b7614ae42e1d9c666d5e4dde909a1297829f8c5ecf00805d328383602001518460400151856060015186608001518760a001518860c001518960e001518a61010001518b6101200151604051808b81526020018a6001600160a01b03168152602001898152602001886001600160a01b03168152602001876001600160a01b03168152602001868152602001851515815260200184815260200183151581526020018281526020019a505050505050505050505060405180910390a2505060018055565b60008060008461207857600b54604080516340d3096b60e11b81526001600160a01b038981166004830152915191909216916381a612d6916024808301926020929190829003018186803b15801561204757600080fd5b505afa15801561205b573d6000803e3d6000fd5b505050506040513d602081101561207157600080fd5b50516120f2565b600b5460408051637092736960e11b81526001600160a01b0389811660048301529151919092169163e124e6d2916024808301926020929190829003018186803b1580156120c557600080fd5b505afa1580156120d9573d6000803e3d6000fd5b505050506040513d60208110156120ef57600080fd5b50515b905060008861210357878210612107565b8782115b9050841561214b578061214b5760405162461bcd60e51b81526004018080602001828103825260268152602001806153116026913960400191505060405180910390fd5b909890975095505050505050565b600c5481565b612167614287565b6001600160a01b03166121786122f7565b6001600160a01b0316146121c1576040805162461bcd60e51b815260206004820181905260248201526000805160206152cb833981519152604482015290519081900360640190fd5b600080546040516001600160a01b03909116907f8be0079c531659141344cd1fd0a4f28419497f9722a3daafe3b4186f6b6457e0908390a3600080546001600160a01b0319169055565b600660208181526000938452604080852090915291835291208054600282015460038301546004840154600585015494909501546001600160a01b03909316949193909260ff808316926101009004169087565b60005b835181101561228f5761228784828151811061227a57fe5b6020026020010151613c82565b600101612262565b5060005b82518110156122c0576122b88382815181106122ab57fe5b6020026020010151611cf3565b600101612293565b5060005b81518110156122f1576122e98282815181106122dc57fe5b6020026020010151612474565b6001016122c4565b50505050565b6000546001600160a01b031690565b600d5481565b6c0c9f2c9cd04674edea4000000081565b60026001541415612363576040805162461bcd60e51b815260206004820152601f6024820152600080516020615177833981519152604482015290519081900360640190fd5b60026001819055336000908152602091825260408082208783529092522080546001600160a01b03166123cb576040805162461bcd60e51b815260206004820152601d6024820152600080516020615157833981519152604482015290519081900360640190fd5b6007810183905560088101805483151560ff19909116811790915560058201859055600382015460048301546006840154604080518a81526001600160a01b039485166020820152929093168284015260ff16151560608201526080810187905260a0810186905260c08101929092525133917f0a0360dd5c354235bbf8d386ba3b24ef8134088e0785677de1504df219d9149a919081900360e00190a2505060018055505050565b600260015414156124ba576040805162461bcd60e51b815260206004820152601f6024820152600080516020615177833981519152604482015290519081900360640190fd5b6002600181815533600090815260046020818152604080842087855282529283902083516101208101855281546001600160a01b0390811680835296830154811693820193909352958101549386019390935260038301541660608501528101546080840152600581015460ff908116151560a0850152600682015460c0850152600782015416151560e084015260080154610100830152612591576040805162461bcd60e51b815260206004820152601d6024820152600080516020615157833981519152604482015290519081900360640190fd5b336000818152600460208181526040808420878552909152822080546001600160a01b031990811682556001820180548216905560028201849055600382018054909116905590810182905560058101805460ff19908116909155600682018390556007820180549091169055600801556101008201516126119161420a565b80600001516001600160a01b03167f1154174c82984656b028c8021671988f60a346497e56fe02554761184f82a0758383602001518460400151856060015186608001518760a001518860c001518960e001518a6101000151604051808a8152602001896001600160a01b03168152602001888152602001876001600160a01b0316815260200186815260200185151581526020018481526020018315158152602001828152602001995050505050505050505060405180910390a2505060018055565b6002600154141561271b576040805162461bcd60e51b815260206004820152601f6024820152600080516020615177833981519152604482015290519081900360640190fd5b6002600155336000908152600460209081526040808320888452909152902080546001600160a01b0316612784576040805162461bcd60e51b815260206004820152601d6024820152600080516020615157833981519152604482015290519081900360640190fd5b6006810183905560078101805483151560ff1990911681179091556004820185905560028201869055600182015460038301546005840154604080518b81526001600160a01b0394851660208201528082018b90529290931660608301526080820188905260ff16151560a082015260c0810186905260e08101929092525133917f75781255bc71c83f89f29e5a2599f2c174a562d2cd8f2e818a47f132e728049891908190036101000190a250506001805550505050565b670de0b6b3a764000081565b60036020526000908152604090205481565b600260015414156128a1576040805162461bcd60e51b815260206004820152601f6024820152600080516020615177833981519152604482015290519081900360640190fd5b60026001556128ae61428b565b600c548210156128ef5760405162461bcd60e51b81526004018080602001828103825260258152602001806152856025913960400191505060405180910390fd5b80156129aa576008548b516001600160a01b03909116908c9060009061291157fe5b60200260200101516001600160a01b03161461295e5760405162461bcd60e51b81526004018080602001828103825260258152602001806152606025913960400191505060405180910390fd5b612968828b6142fd565b34146129a55760405162461bcd60e51b81526004018080602001828103825260268152602001806152eb6026913960400191505060405180910390fd5b612a94565b8134146129e85760405162461bcd60e51b815260040180806020018281038252602e815260200180615361602e913960400191505060405180910390fd5b600a548b516001600160a01b0390911690631b827878908d90600090612a0a57fe5b602002602001015133308e6040518563ffffffff1660e01b815260040180856001600160a01b03168152602001846001600160a01b03168152602001836001600160a01b03168152602001828152602001945050505050600060405180830381600087803b158015612a7b57600080fd5b505af1158015612a8f573d6000803e3d6000fd5b505050505b60008b60018d510381518110612aa657fe5b60200260200101519050600060018d511115612b6b57816001600160a01b03168d600081518110612ad357fe5b60200260200101516001600160a01b03161415612b32576040805162461bcd60e51b815260206004820152601860248201527709ee4c8cae484deded67440d2dcecc2d8d2c840bee0c2e8d60431b604482015290519081900360640190fd5b612b59600b60009054906101000a90046001600160a01b03168d8f6000815181106112dd57fe5b612b648d8b306140c9565b9050612b6e565b508a5b600b5460408051630a48d5a960e01b81526001600160a01b0385811660048301526024820185905291516000939290921691630a48d5a991604480820192602092909190829003018186803b158015612bc657600080fd5b505afa158015612bda573d6000803e3d6000fd5b505050506040513d6020811015612bf057600080fd5b5051600d54909150811015612c365760405162461bcd60e51b81526004018080602001828103825260228152602001806151976022913960400191505060405180910390fd5b50612c493383838b8f8e8d8d8d8d61454e565b5050600180555050505050505050505050565b60026001541415612ca2576040805162461bcd60e51b815260206004820152601f6024820152600080516020615177833981519152604482015290519081900360640190fd5b6002600155612caf61428b565b600c543411612cef5760405162461bcd60e51b81526004018080602001828103825260258152602001806152856025913960400191505060405180910390fd5b612cff3386868a8a888888614802565b5050600180555050505050565b6000825160021480612d1f575082516003145b612d70576040805162461bcd60e51b815260206004820152601f60248201527f4f72646572426f6f6b3a20696e76616c6964205f706174682e6c656e67746800604482015290519081900360640190fd5b600083600081518110612d7f57fe5b60200260200101519050600084600186510381518110612d9b57fe5b602090810291909101015160095490915060009081906001600160a01b0385811691161415612de857612de187600181518110612dd457fe5b6020026020010151613106565b9150612e64565b600b54604080516340d3096b60e11b81526001600160a01b038781166004830152915191909216916381a612d6916024808301926020929190829003018186803b158015612e3557600080fd5b505afa158015612e49573d6000803e3d6000fd5b505050506040513d6020811015612e5f57600080fd5b505191505b6009546001600160a01b0384811691161415612e8e57506c0c9f2c9cd04674edea40000000612f0a565b600b5460408051637092736960e11b81526001600160a01b0386811660048301529151919092169163e124e6d2916024808301926020929190829003018186803b158015612edb57600080fd5b505afa158015612eef573d6000803e3d6000fd5b505050506040513d6020811015612f0557600080fd5b505190505b6000612f2d83612f27846c0c9f2c9cd04674edea40000000614a6a565b90614ac3565b8710955050505050505b92915050565b60026001541415612f83576040805162461bcd60e51b815260206004820152601f6024820152600080516020615177833981519152604482015290519081900360640190fd5b6002600155336000908152600660209081526040808320878452909152902080546001600160a01b0316612fec576040805162461bcd60e51b815260206004820152601d6024820152600080516020615157833981519152604482015290519081900360640190fd5b838160030181905550828160040181905550818160050160006101000a81548160ff021916908315150217905550336001600160a01b03167fa7f9f4a25eb76f5ec01b1a429d95d6a00833f0f137c88827c58799a1c1ff0dfe868360010184600201548888888860050160019054906101000a900460ff16896006015460405180898152602001806020018881526020018781526020018681526020018515158152602001841515815260200183815260200182810382528981815481526020019150805480156130e657602002820191906000526020600020905b81546001600160a01b031681526001909101906020018083116130c8575b5050995050505050505050505060405180910390a2505060018055505050565b600b5460408051632c668ec160e01b81526001600160a01b038481166004830152670de0b6b3a76400006024830152915160009384931691632c668ec1916044808301926020929190829003018186803b15801561316357600080fd5b505afa158015613177573d6000803e3d6000fd5b505050506040513d602081101561318d57600080fd5b5051600b54604080516340d3096b60e11b81526001600160a01b038781166004830152915193945060009391909216916381a612d6916024808301926020929190829003018186803b1580156131e257600080fd5b505afa1580156131f6573d6000803e3d6000fd5b505050506040513d602081101561320c57600080fd5b5051600b54604080516323b95ceb60e21b81526001600160a01b03888116600483015291519394506000939190921691638ee573ac916024808301926020929190829003018186803b15801561326157600080fd5b505afa158015613275573d6000803e3d6000fd5b505050506040513d602081101561328b57600080fd5b505190506132a1600a82900a612f278585614a6a565b95945050505050565b6001600160a01b03808316600090815260066020908152604080832085845282528083208151610100810183528154909516855260018101805483518186028101860190945280845294958695869586958695869586958695869586959294938582019392909183018282801561334a57602002820191906000526020600020905b81546001600160a01b0316815260019091019060200180831161332c575b505050918352505060028201546020808301919091526003830154604083015260048301546060830152600583015460ff8082161515608085015261010090910416151560a083015260069092015460c090910152810151519091506133b15760006133cb565b80602001516000815181106133c257fe5b60200260200101515b6001826020015151116133df5760006133f9565b81602001516001815181106133f057fe5b60200260200101515b60028360200151511161340d576000613427565b826020015160028151811061341e57fe5b60200260200101515b8360400151846060015185608001518660a001518760c001518860e00151995099509950995099509950995099509950509295985092959850929598565b600260015414156134ab576040805162461bcd60e51b815260206004820152601f6024820152600080516020615177833981519152604482015290519081900360640190fd5b600260018181556001600160a01b038086166000908152602084815260408083208884528252918290208251610140810184528154851680825295820154851692810192909252948501549181019190915260038401548216606082015260048401549091166080820152600583015460a0820152600683015460ff908116151560c0830152600784015460e08301526008840154161515610100820152600990920154610120830152613594576040805162461bcd60e51b815260206004820152601d6024820152600080516020615157833981519152604482015290519081900360640190fd5b60006135b58261010001518360e0015184608001518560c001516001611ff0565b506001600160a01b0380871660009081526002602081815260408084208a8552825280842080546001600160a01b0319908116825560018201805482169055938101859055600381018054851690556004810180549094169093556005830184905560068301805460ff19908116909155600784018590556008840180549091169055600990920192909255600b54908601519186015193945061365d938316921690614072565b81606001516001600160a01b031682602001516001600160a01b031614613736576040805160028082526060820183526000926020830190803683370190505090508260200151816000815181106136b157fe5b60200260200101906001600160a01b031690816001600160a01b0316815250508260600151816001815181106136e357fe5b60200260200101906001600160a01b031690816001600160a01b0316815250506000613711826000306140c9565b600b546060860151919250613733916001600160a01b03908116911683614072565b50505b600a5482516060840151608085015160a086015160c087015160408051630f8ee8bb60e11b81526001600160a01b03968716600482015294861660248601529285166044850152606484019190915215156084830152519190921691631f1dd1769160a480830192600092919082900301818387803b1580156137b857600080fd5b505af11580156137cc573d6000803e3d6000fd5b505050506137df8261012001518461420a565b81600001516001600160a01b03167f7fb1c74d1ea6aa1c9c585e17ce8274c8ff98745e85e7459b73f87d784494f58e8584602001518560400151866060015187608001518860a001518960c001518a60e001518b61010001518c61012001518c604051808c81526020018b6001600160a01b031681526020018a8152602001896001600160a01b03168152602001886001600160a01b03168152602001878152602001861515815260200185815260200184151581526020018381526020018281526020019b50505050505050505050505060405180910390a2505060018055505050565b6001600160a01b0391821660009081526002602081815260408084209484529381529183902083516101408101855281548616815260018201548616938101849052918101549382018490526003810154851660608301819052600482015490951660808301819052600582015460a08401819052600683015460ff908116151560c08601819052600785015460e0870181905260088601549092161515610100870181905260099095015461012090960186905295989697969295919491939092909190565b60056020526000908152604090205481565b6139a5614287565b6001600160a01b03166139b66122f7565b6001600160a01b0316146139ff576040805162461bcd60e51b815260206004820181905260248201526000805160206152cb833981519152604482015290519081900360640190fd5b600e5460ff1615613a57576040805162461bcd60e51b815260206004820152601e60248201527f4f72646572426f6f6b3a20616c726561647920696e697469616c697a65640000604482015290519081900360640190fd5b600e805460ff19166001179055600a80546001600160a01b038089166001600160a01b03199283168117909355600b8054898316908416811790915560088054898416908516811790915560098054938916939094168317909355600c869055600d8590556040805194855260208501919091528381019290925260608301526080820184905260a08201839052517fcfb7ef8749fafc8da2af1ba3d025479ffc4e58f7dc420113e112512a3bda59639181900360c00190a1505050505050565b600460208181526000938452604080852090915291835291208054600182015460028301546003840154948401546005850154600686015460078701546008909701546001600160a01b039687169895871697949690951694929360ff928316939192169089565b613b88614287565b6001600160a01b0316613b996122f7565b6001600160a01b031614613be2576040805162461bcd60e51b815260206004820181905260248201526000805160206152cb833981519152604482015290519081900360640190fd5b6001600160a01b038116613c275760405162461bcd60e51b81526004018080602001828103825260268152602001806151b96026913960400191505060405180910390fd5b600080546040516001600160a01b03808516939216917f8be0079c531659141344cd1fd0a4f28419497f9722a3daafe3b4186f6b6457e091a3600080546001600160a01b0319166001600160a01b0392909216919091179055565b60026001541415613cc8576040805162461bcd60e51b815260206004820152601f6024820152600080516020615177833981519152604482015290519081900360640190fd5b60026001908155336000908152600660209081526040808320858452825280832081516101008101835281546001600160a01b0316815294810180548351818602810186019094528084529495949193858101939290830182828015613d5757602002820191906000526020600020905b81546001600160a01b03168152600190910190602001808311613d39575b5050509183525050600282015460208201526003820154604082015260048201546060820152600582015460ff8082161515608084015261010090910416151560a082015260069091015460c09091015280519091506001600160a01b0316613df5576040805162461bcd60e51b815260206004820152601d6024820152600080516020615157833981519152604482015290519081900360640190fd5b336000908152600660209081526040808320858452909152812080546001600160a01b031916815590613e2b60018301826150bb565b50600060028201819055600382018190556004820181905560058201805461ffff191690556006909101819055600854602083015180516001600160a01b03909216929091613e7657fe5b60200260200101516001600160a01b03161415613eb057613eab611ed682604001518360e001516142fd90919063ffffffff16565b613ed8565b613eca33826040015183602001516000815181106112dd57fe5b613ed88160e001513361420a565b336001600160a01b03167fefd66d4f9c2f880c70aedeb5b26a44fb474cea07e5d6c533f2d27c303d5d94538383602001518460400151856060015186608001518760a001518860c001518960e00151604051808981526020018060200188815260200187815260200186815260200185151581526020018415158152602001838152602001828103825289818151815260200191508051906020019060200280838360005b83811015613f95578181015183820152602001613f7d565b50505050905001995050505050505050505060405180910390a2505060018055565b600a546001600160a01b031681565b600b546001600160a01b031681565b613fdd614287565b6001600160a01b0316613fee6122f7565b6001600160a01b031614614037576040805162461bcd60e51b815260206004820181905260248201526000805160206152cb833981519152604482015290519081900360640190fd5b600c8190556040805182815290517fbde5eafdc37b81830d70124cddccaaa6d034e71dda3c8fc18a959ca76a7cbcfc9181900360200190a150565b604080516001600160a01b038416602482015260448082018490528251808303909101815260649091019091526020810180516001600160e01b031663a9059cbb60e01b1790526140c4908490614b2a565b505050565b600083516002141561411057614109846000815181106140e557fe5b6020026020010151856001815181106140fa57fe5b60200260200101518585614bdb565b9050614203565b8351600314156141b65760006141518560008151811061412c57fe5b60200260200101518660018151811061414157fe5b6020026020010151600030614bdb565b905061417a600b60009054906101000a90046001600160a01b031682876001815181106112dd57fe5b6141ae8560018151811061418a57fe5b60200260200101518660028151811061419f57fe5b60200260200101518686614bdb565b915050614203565b6040805162461bcd60e51b815260206004820152601f60248201527f4f72646572426f6f6b3a20696e76616c6964205f706174682e6c656e67746800604482015290519081900360640190fd5b9392505050565b60085460408051632e1a7d4d60e01b81526004810185905290516001600160a01b0390921691632e1a7d4d9160248082019260009290919082900301818387803b15801561425757600080fd5b505af115801561426b573d6000803e3d6000fd5b50614283925050506001600160a01b03821683614dba565b5050565b3390565b34156142fb57600860009054906101000a90046001600160a01b03166001600160a01b031663d0e30db0346040518263ffffffff1660e01b81526004016000604051808303818588803b1580156142e157600080fd5b505af11580156142f5573d6000803e3d6000fd5b50505050505b565b600082820183811015614203576040805162461bcd60e51b815260206004820152601b60248201527f536166654d6174683a206164646974696f6e206f766572666c6f770000000000604482015290519081900360640190fd5b6001600160a01b038816600081815260076020908152604091829020548251610100810184529384529083018a9052908201889052606082018790526080820186905284151560a083015283151560c083015260e08201839052906143bd8260016142fd565b6001600160a01b038b8116600090815260076020908152604080832094909455600681528382208683528152929020835181546001600160a01b0319169216919091178155828201518051849361441b9260018501929101906150dc565b5060408201518160020155606082015181600301556080820151816004015560a08201518160050160006101000a81548160ff02191690831515021790555060c08201518160050160016101000a81548160ff02191690831515021790555060e08201518160060155905050896001600160a01b03167fdf06bb56ffc4029dc0b62b68bb5bbadea93a38b530cefc9b81afb742a6555d88838b8b8b8b8b8b8b604051808981526020018060200188815260200187815260200186815260200185151581526020018415158152602001838152602001828103825289818151815260200191508051906020019060200280838360005b83811015614528578181015183820152602001614510565b50505050905001995050505050505050505060405180910390a250505050505050505050565b33600090815260036020908152604091829020548251610140810184526001600160a01b038e811682528d8116938201939093529283018b90528982166060840152908816608083015260a0820187905285151560c083015260e082018590528315156101008301526101208201839052906145cb8260016142fd565b600360008e6001600160a01b03166001600160a01b031681526020019081526020016000208190555080600260008e6001600160a01b03166001600160a01b03168152602001908152602001600020600084815260200190815260200160002060008201518160000160006101000a8154816001600160a01b0302191690836001600160a01b0316021790555060208201518160010160006101000a8154816001600160a01b0302191690836001600160a01b031602179055506040820151816002015560608201518160030160006101000a8154816001600160a01b0302191690836001600160a01b0316021790555060808201518160040160006101000a8154816001600160a01b0302191690836001600160a01b0316021790555060a0820151816005015560c08201518160060160006101000a81548160ff02191690831515021790555060e082015181600701556101008201518160080160006101000a81548160ff02191690831515021790555061012082015181600901559050508b6001600160a01b03167fb27b9afe3043b93788c40cfc3cc73f5d928a2e40f3ba01820b246426de8fa1b9838d8d8d8d8d8d8d8d8d604051808b81526020018a6001600160a01b03168152602001898152602001886001600160a01b03168152602001876001600160a01b03168152602001868152602001851515815260200184815260200183151581526020018281526020019a505050505050505050505060405180910390a2505050505050505050505050565b6001600160a01b03808916600081815260056020908152604091829020548251610120810184529384528b85169184019190915290820189905291871660608201526080810186905284151560a082015260c0810184905282151560e0820152346101008201526148748260016142fd565b600560008c6001600160a01b03166001600160a01b031681526020019081526020016000208190555080600460008c6001600160a01b03166001600160a01b03168152602001908152602001600020600084815260200190815260200160002060008201518160000160006101000a8154816001600160a01b0302191690836001600160a01b0316021790555060208201518160010160006101000a8154816001600160a01b0302191690836001600160a01b031602179055506040820151816002015560608201518160030160006101000a8154816001600160a01b0302191690836001600160a01b031602179055506080820151816004015560a08201518160050160006101000a81548160ff02191690831515021790555060c0820151816006015560e08201518160070160006101000a81548160ff0219169083151502179055506101008201518160080155905050896001600160a01b03167f48ee333d2a65cc45fdb83bc012920d89181c3377390cd239d2b63f2bef67a02d838b8b8b8b8b8b8b34604051808a8152602001896001600160a01b03168152602001888152602001876001600160a01b0316815260200186815260200185151581526020018481526020018315158152602001828152602001995050505050505050505060405180910390a250505050505050505050565b600082614a7957506000612f37565b82820282848281614a8657fe5b04146142035760405162461bcd60e51b81526004018080602001828103825260218152602001806152aa6021913960400191505060405180910390fd5b6000808211614b19576040805162461bcd60e51b815260206004820152601a60248201527f536166654d6174683a206469766973696f6e206279207a65726f000000000000604482015290519081900360640190fd5b818381614b2257fe5b049392505050565b6000614b7f826040518060400160405280602081526020017f5361666545524332303a206c6f772d6c6576656c2063616c6c206661696c6564815250856001600160a01b0316614e9f9092919063ffffffff16565b8051909150156140c457808060200190516020811015614b9e57600080fd5b50516140c45760405162461bcd60e51b815260040180806020018281038252602a815260200180615337602a913960400191505060405180910390fd5b60095460009081906001600160a01b0386811691161415614c8057600b5460408051635da69ed760e01b81526001600160a01b038981166004830152868116602483015291519190921691635da69ed79160448083019260209291908290030181600087803b158015614c4d57600080fd5b505af1158015614c61573d6000803e3d6000fd5b505050506040513d6020811015614c7757600080fd5b50519050614d7b565b6009546001600160a01b0387811691161415614ced57600b5460408051635bae426360e01b81526001600160a01b038881166004830152868116602483015291519190921691635bae42639160448083019260209291908290030181600087803b158015614c4d57600080fd5b600b5460408051634998b10960e11b81526001600160a01b038981166004830152888116602483015286811660448301529151919092169163933162129160648083019260209291908290030181600087803b158015614d4c57600080fd5b505af1158015614d60573d6000803e3d6000fd5b505050506040513d6020811015614d7657600080fd5b505190505b838110156132a15760405162461bcd60e51b815260040180806020018281038252602181526020018061523f6021913960400191505060405180910390fd5b80471015614e0f576040805162461bcd60e51b815260206004820152601d60248201527f416464726573733a20696e73756666696369656e742062616c616e6365000000604482015290519081900360640190fd5b6040516000906001600160a01b0384169083908381818185875af1925050503d8060008114614e5a576040519150601f19603f3d011682016040523d82523d6000602084013e614e5f565b606091505b50509050806140c45760405162461bcd60e51b815260040180806020018281038252603a8152602001806151df603a913960400191505060405180910390fd5b6060614eae8484600085614eb6565b949350505050565b606082471015614ef75760405162461bcd60e51b81526004018080602001828103825260268152602001806152196026913960400191505060405180910390fd5b614f0085615011565b614f51576040805162461bcd60e51b815260206004820152601d60248201527f416464726573733a2063616c6c20746f206e6f6e2d636f6e7472616374000000604482015290519081900360640190fd5b600080866001600160a01b031685876040518082805190602001908083835b60208310614f8f5780518252601f199092019160209182019101614f70565b6001836020036101000a03801982511681845116808217855250505050505090500191505060006040518083038185875af1925050503d8060008114614ff1576040519150601f19603f3d011682016040523d82523d6000602084013e614ff6565b606091505b5091509150615006828286615017565b979650505050505050565b3b151590565b60608315615026575081614203565b8251156150365782518084602001fd5b8160405162461bcd60e51b81526004018080602001828103825283818151815260200191508051906020019080838360005b83811015615080578181015183820152602001615068565b50505050905090810190601f1680156150ad5780820380516001836020036101000a031916815260200191505b509250505060405180910390fd5b50805460008255906000526020600020908101906150d99190615141565b50565b828054828255906000526020600020908101928215615131579160200282015b8281111561513157825182546001600160a01b0319166001600160a01b039091161782556020909201916001909101906150fc565b5061513d929150615141565b5090565b5b8082111561513d576000815560010161514256fe4f72646572426f6f6b3a206e6f6e2d6578697374656e74206f726465720000005265656e7472616e637947756172643a207265656e7472616e742063616c6c004f72646572426f6f6b3a20696e73756666696369656e7420636f6c6c61746572616c4f776e61626c653a206e6577206f776e657220697320746865207a65726f2061646472657373416464726573733a20756e61626c6520746f2073656e642076616c75652c20726563697069656e74206d61792068617665207265766572746564416464726573733a20696e73756666696369656e742062616c616e636520666f722063616c6c4f72646572426f6f6b3a20696e73756666696369656e7420616d6f756e744f75744f72646572426f6f6b3a206f6e6c79207765746820636f756c6420626520777261707065644f72646572426f6f6b3a20696e73756666696369656e7420657865637574696f6e20666565536166654d6174683a206d756c7469706c69636174696f6e206f766572666c6f774f776e61626c653a2063616c6c6572206973206e6f7420746865206f776e65724f72646572426f6f6b3a20696e636f72726563742076616c7565207472616e736665727265644f72646572426f6f6b3a20696e76616c696420707269636520666f7220657865637574696f6e5361666545524332303a204552433230206f7065726174696f6e20646964206e6f7420737563636565644f72646572426f6f6b3a20696e636f727265637420657865637574696f6e20666565207472616e73666572726564a2646970667358221220055634a8af44efa9d25880d0b662ac1cb2607ca29184c8241c05a8b20c8c6e6364736f6c63430007060033",
  "linkReferences": {},
  "deployedLinkReferences": {}
}