{
  "_format": "hh-sol-artifact-1",
  "contractName": "OrderBook",
  "sourceName": "contracts/protocol/core/OrderBook.sol",
  "abi": [
    {
      "inputs": [
        {
          "internalType": "contract IAddressesProvider",
          "name": "addressesProvider_",
          "type": "address"
        },
        {
          "internalType": "address",
          "name": "_weth",
          "type": "address"
        },
        {
          "internalType": "uint256",
          "name": "_minExecutionFee",
          "type": "uint256"
        },
        {
          "internalType": "uint256",
          "name": "_minPurchaseTokenAmountUsd",
          "type": "uint256"
        }
      ],
      "stateMutability": "nonpayable",
      "type": "constructor"
    },
    {
      "anonymous": false,
      "inputs": [
        {
          "indexed": true,
          "internalType": "address",
          "name": "account",
          "type": "address"
        },
        {
          "indexed": false,
          "internalType": "uint256",
          "name": "orderIndex",
          "type": "uint256"
        },
        {
          "indexed": false,
          "internalType": "address",
          "name": "collateralToken",
          "type": "address"
        },
        {
          "indexed": false,
          "internalType": "uint256",
          "name": "collateralDelta",
          "type": "uint256"
        },
        {
          "indexed": false,
          "internalType": "address",
          "name": "indexToken",
          "type": "address"
        },
        {
          "indexed": false,
          "internalType": "uint256",
          "name": "sizeDelta",
          "type": "uint256"
        },
        {
          "indexed": false,
          "internalType": "bool",
          "name": "isLong",
          "type": "bool"
        },
        {
          "indexed": false,
          "internalType": "uint256",
          "name": "triggerPrice",
          "type": "uint256"
        },
        {
          "indexed": false,
          "internalType": "bool",
          "name": "triggerAboveThreshold",
          "type": "bool"
        },
        {
          "indexed": false,
          "internalType": "uint256",
          "name": "executionFee",
          "type": "uint256"
        }
      ],
      "name": "CancelDecreaseOrder",
      "type": "event"
    },
    {
      "anonymous": false,
      "inputs": [
        {
          "indexed": true,
          "internalType": "address",
          "name": "account",
          "type": "address"
        },
        {
          "indexed": false,
          "internalType": "uint256",
          "name": "orderIndex",
          "type": "uint256"
        },
        {
          "indexed": false,
          "internalType": "address",
          "name": "purchaseToken",
          "type": "address"
        },
        {
          "indexed": false,
          "internalType": "uint256",
          "name": "purchaseTokenAmount",
          "type": "uint256"
        },
        {
          "indexed": false,
          "internalType": "address",
          "name": "collateralToken",
          "type": "address"
        },
        {
          "indexed": false,
          "internalType": "address",
          "name": "indexToken",
          "type": "address"
        },
        {
          "indexed": false,
          "internalType": "uint256",
          "name": "sizeDelta",
          "type": "uint256"
        },
        {
          "indexed": false,
          "internalType": "bool",
          "name": "isLong",
          "type": "bool"
        },
        {
          "indexed": false,
          "internalType": "uint256",
          "name": "triggerPrice",
          "type": "uint256"
        },
        {
          "indexed": false,
          "internalType": "bool",
          "name": "triggerAboveThreshold",
          "type": "bool"
        },
        {
          "indexed": false,
          "internalType": "uint256",
          "name": "executionFee",
          "type": "uint256"
        }
      ],
      "name": "CancelIncreaseOrder",
      "type": "event"
    },
    {
      "anonymous": false,
      "inputs": [
        {
          "indexed": true,
          "internalType": "address",
          "name": "account",
          "type": "address"
        },
        {
          "indexed": false,
          "internalType": "uint256",
          "name": "orderIndex",
          "type": "uint256"
        },
        {
          "indexed": false,
          "internalType": "address[]",
          "name": "path",
          "type": "address[]"
        },
        {
          "indexed": false,
          "internalType": "uint256",
          "name": "amountIn",
          "type": "uint256"
        },
        {
          "indexed": false,
          "internalType": "uint256",
          "name": "minOut",
          "type": "uint256"
        },
        {
          "indexed": false,
          "internalType": "uint256",
          "name": "triggerRatio",
          "type": "uint256"
        },
        {
          "indexed": false,
          "internalType": "bool",
          "name": "triggerAboveThreshold",
          "type": "bool"
        },
        {
          "indexed": false,
          "internalType": "bool",
          "name": "shouldUnwrap",
          "type": "bool"
        },
        {
          "indexed": false,
          "internalType": "uint256",
          "name": "executionFee",
          "type": "uint256"
        }
      ],
      "name": "CancelSwapOrder",
      "type": "event"
    },
    {
      "anonymous": false,
      "inputs": [
        {
          "indexed": true,
          "internalType": "address",
          "name": "account",
          "type": "address"
        },
        {
          "indexed": false,
          "internalType": "uint256",
          "name": "orderIndex",
          "type": "uint256"
        },
        {
          "indexed": false,
          "internalType": "address",
          "name": "collateralToken",
          "type": "address"
        },
        {
          "indexed": false,
          "internalType": "uint256",
          "name": "collateralDelta",
          "type": "uint256"
        },
        {
          "indexed": false,
          "internalType": "address",
          "name": "indexToken",
          "type": "address"
        },
        {
          "indexed": false,
          "internalType": "uint256",
          "name": "sizeDelta",
          "type": "uint256"
        },
        {
          "indexed": false,
          "internalType": "bool",
          "name": "isLong",
          "type": "bool"
        },
        {
          "indexed": false,
          "internalType": "uint256",
          "name": "triggerPrice",
          "type": "uint256"
        },
        {
          "indexed": false,
          "internalType": "bool",
          "name": "triggerAboveThreshold",
          "type": "bool"
        },
        {
          "indexed": false,
          "internalType": "uint256",
          "name": "executionFee",
          "type": "uint256"
        }
      ],
      "name": "CreateDecreaseOrder",
      "type": "event"
    },
    {
      "anonymous": false,
      "inputs": [
        {
          "indexed": true,
          "internalType": "address",
          "name": "account",
          "type": "address"
        },
        {
          "indexed": false,
          "internalType": "uint256",
          "name": "orderIndex",
          "type": "uint256"
        },
        {
          "indexed": false,
          "internalType": "address",
          "name": "purchaseToken",
          "type": "address"
        },
        {
          "indexed": false,
          "internalType": "uint256",
          "name": "purchaseTokenAmount",
          "type": "uint256"
        },
        {
          "indexed": false,
          "internalType": "address",
          "name": "collateralToken",
          "type": "address"
        },
        {
          "indexed": false,
          "internalType": "address",
          "name": "indexToken",
          "type": "address"
        },
        {
          "indexed": false,
          "internalType": "uint256",
          "name": "sizeDelta",
          "type": "uint256"
        },
        {
          "indexed": false,
          "internalType": "bool",
          "name": "isLong",
          "type": "bool"
        },
        {
          "indexed": false,
          "internalType": "uint256",
          "name": "triggerPrice",
          "type": "uint256"
        },
        {
          "indexed": false,
          "internalType": "bool",
          "name": "triggerAboveThreshold",
          "type": "bool"
        },
        {
          "indexed": false,
          "internalType": "uint256",
          "name": "executionFee",
          "type": "uint256"
        }
      ],
      "name": "CreateIncreaseOrder",
      "type": "event"
    },
    {
      "anonymous": false,
      "inputs": [
        {
          "indexed": true,
          "internalType": "address",
          "name": "account",
          "type": "address"
        },
        {
          "indexed": false,
          "internalType": "uint256",
          "name": "orderIndex",
          "type": "uint256"
        },
        {
          "indexed": false,
          "internalType": "address[]",
          "name": "path",
          "type": "address[]"
        },
        {
          "indexed": false,
          "internalType": "uint256",
          "name": "amountIn",
          "type": "uint256"
        },
        {
          "indexed": false,
          "internalType": "uint256",
          "name": "minOut",
          "type": "uint256"
        },
        {
          "indexed": false,
          "internalType": "uint256",
          "name": "triggerRatio",
          "type": "uint256"
        },
        {
          "indexed": false,
          "internalType": "bool",
          "name": "triggerAboveThreshold",
          "type": "bool"
        },
        {
          "indexed": false,
          "internalType": "bool",
          "name": "shouldUnwrap",
          "type": "bool"
        },
        {
          "indexed": false,
          "internalType": "uint256",
          "name": "executionFee",
          "type": "uint256"
        }
      ],
      "name": "CreateSwapOrder",
      "type": "event"
    },
    {
      "anonymous": false,
      "inputs": [
        {
          "indexed": true,
          "internalType": "address",
          "name": "account",
          "type": "address"
        },
        {
          "indexed": false,
          "internalType": "uint256",
          "name": "orderIndex",
          "type": "uint256"
        },
        {
          "indexed": false,
          "internalType": "address",
          "name": "collateralToken",
          "type": "address"
        },
        {
          "indexed": false,
          "internalType": "uint256",
          "name": "collateralDelta",
          "type": "uint256"
        },
        {
          "indexed": false,
          "internalType": "address",
          "name": "indexToken",
          "type": "address"
        },
        {
          "indexed": false,
          "internalType": "uint256",
          "name": "sizeDelta",
          "type": "uint256"
        },
        {
          "indexed": false,
          "internalType": "bool",
          "name": "isLong",
          "type": "bool"
        },
        {
          "indexed": false,
          "internalType": "uint256",
          "name": "triggerPrice",
          "type": "uint256"
        },
        {
          "indexed": false,
          "internalType": "bool",
          "name": "triggerAboveThreshold",
          "type": "bool"
        },
        {
          "indexed": false,
          "internalType": "uint256",
          "name": "executionFee",
          "type": "uint256"
        },
        {
          "indexed": false,
          "internalType": "uint256",
          "name": "executionPrice",
          "type": "uint256"
        }
      ],
      "name": "ExecuteDecreaseOrder",
      "type": "event"
    },
    {
      "anonymous": false,
      "inputs": [
        {
          "indexed": true,
          "internalType": "address",
          "name": "account",
          "type": "address"
        },
        {
          "indexed": false,
          "internalType": "uint256",
          "name": "orderIndex",
          "type": "uint256"
        },
        {
          "indexed": false,
          "internalType": "address",
          "name": "purchaseToken",
          "type": "address"
        },
        {
          "indexed": false,
          "internalType": "uint256",
          "name": "purchaseTokenAmount",
          "type": "uint256"
        },
        {
          "indexed": false,
          "internalType": "address",
          "name": "collateralToken",
          "type": "address"
        },
        {
          "indexed": false,
          "internalType": "address",
          "name": "indexToken",
          "type": "address"
        },
        {
          "indexed": false,
          "internalType": "uint256",
          "name": "sizeDelta",
          "type": "uint256"
        },
        {
          "indexed": false,
          "internalType": "bool",
          "name": "isLong",
          "type": "bool"
        },
        {
          "indexed": false,
          "internalType": "uint256",
          "name": "triggerPrice",
          "type": "uint256"
        },
        {
          "indexed": false,
          "internalType": "bool",
          "name": "triggerAboveThreshold",
          "type": "bool"
        },
        {
          "indexed": false,
          "internalType": "uint256",
          "name": "executionFee",
          "type": "uint256"
        },
        {
          "indexed": false,
          "internalType": "uint256",
          "name": "executionPrice",
          "type": "uint256"
        }
      ],
      "name": "ExecuteIncreaseOrder",
      "type": "event"
    },
    {
      "anonymous": false,
      "inputs": [
        {
          "indexed": true,
          "internalType": "address",
          "name": "account",
          "type": "address"
        },
        {
          "indexed": false,
          "internalType": "uint256",
          "name": "orderIndex",
          "type": "uint256"
        },
        {
          "indexed": false,
          "internalType": "address[]",
          "name": "path",
          "type": "address[]"
        },
        {
          "indexed": false,
          "internalType": "uint256",
          "name": "amountIn",
          "type": "uint256"
        },
        {
          "indexed": false,
          "internalType": "uint256",
          "name": "minOut",
          "type": "uint256"
        },
        {
          "indexed": false,
          "internalType": "uint256",
          "name": "amountOut",
          "type": "uint256"
        },
        {
          "indexed": false,
          "internalType": "uint256",
          "name": "triggerRatio",
          "type": "uint256"
        },
        {
          "indexed": false,
          "internalType": "bool",
          "name": "triggerAboveThreshold",
          "type": "bool"
        },
        {
          "indexed": false,
          "internalType": "bool",
          "name": "shouldUnwrap",
          "type": "bool"
        },
        {
          "indexed": false,
          "internalType": "uint256",
          "name": "executionFee",
          "type": "uint256"
        }
      ],
      "name": "ExecuteSwapOrder",
      "type": "event"
    },
    {
      "anonymous": false,
      "inputs": [
        {
          "indexed": false,
          "internalType": "address",
          "name": "router",
          "type": "address"
        },
        {
          "indexed": false,
          "internalType": "address",
          "name": "vault",
          "type": "address"
        },
        {
          "indexed": false,
          "internalType": "address",
          "name": "weth",
          "type": "address"
        },
        {
          "indexed": false,
          "internalType": "address",
          "name": "usdph",
          "type": "address"
        },
        {
          "indexed": false,
          "internalType": "uint256",
          "name": "minExecutionFee",
          "type": "uint256"
        },
        {
          "indexed": false,
          "internalType": "uint256",
          "name": "minPurchaseTokenAmountUsd",
          "type": "uint256"
        }
      ],
      "name": "Initialize",
      "type": "event"
    },
    {
      "anonymous": false,
      "inputs": [
        {
          "indexed": true,
          "internalType": "address",
          "name": "previousOwner",
          "type": "address"
        },
        {
          "indexed": true,
          "internalType": "address",
          "name": "newOwner",
          "type": "address"
        }
      ],
      "name": "OwnershipTransferred",
      "type": "event"
    },
    {
      "anonymous": false,
      "inputs": [
        {
          "indexed": true,
          "internalType": "address",
          "name": "account",
          "type": "address"
        },
        {
          "indexed": false,
          "internalType": "uint256",
          "name": "orderIndex",
          "type": "uint256"
        },
        {
          "indexed": false,
          "internalType": "address",
          "name": "collateralToken",
          "type": "address"
        },
        {
          "indexed": false,
          "internalType": "uint256",
          "name": "collateralDelta",
          "type": "uint256"
        },
        {
          "indexed": false,
          "internalType": "address",
          "name": "indexToken",
          "type": "address"
        },
        {
          "indexed": false,
          "internalType": "uint256",
          "name": "sizeDelta",
          "type": "uint256"
        },
        {
          "indexed": false,
          "internalType": "bool",
          "name": "isLong",
          "type": "bool"
        },
        {
          "indexed": false,
          "internalType": "uint256",
          "name": "triggerPrice",
          "type": "uint256"
        },
        {
          "indexed": false,
          "internalType": "bool",
          "name": "triggerAboveThreshold",
          "type": "bool"
        }
      ],
      "name": "UpdateDecreaseOrder",
      "type": "event"
    },
    {
      "anonymous": false,
      "inputs": [
        {
          "indexed": true,
          "internalType": "address",
          "name": "account",
          "type": "address"
        },
        {
          "indexed": false,
          "internalType": "uint256",
          "name": "orderIndex",
          "type": "uint256"
        },
        {
          "indexed": false,
          "internalType": "address",
          "name": "collateralToken",
          "type": "address"
        },
        {
          "indexed": false,
          "internalType": "address",
          "name": "indexToken",
          "type": "address"
        },
        {
          "indexed": false,
          "internalType": "bool",
          "name": "isLong",
          "type": "bool"
        },
        {
          "indexed": false,
          "internalType": "uint256",
          "name": "sizeDelta",
          "type": "uint256"
        },
        {
          "indexed": false,
          "internalType": "uint256",
          "name": "triggerPrice",
          "type": "uint256"
        },
        {
          "indexed": false,
          "internalType": "bool",
          "name": "triggerAboveThreshold",
          "type": "bool"
        }
      ],
      "name": "UpdateIncreaseOrder",
      "type": "event"
    },
    {
      "anonymous": false,
      "inputs": [
        {
          "indexed": false,
          "internalType": "uint256",
          "name": "minExecutionFee",
          "type": "uint256"
        }
      ],
      "name": "UpdateMinExecutionFee",
      "type": "event"
    },
    {
      "anonymous": false,
      "inputs": [
        {
          "indexed": false,
          "internalType": "uint256",
          "name": "minPurchaseTokenAmountUsd",
          "type": "uint256"
        }
      ],
      "name": "UpdateMinPurchaseTokenAmountUsd",
      "type": "event"
    },
    {
      "anonymous": false,
      "inputs": [
        {
          "indexed": true,
          "internalType": "address",
          "name": "account",
          "type": "address"
        },
        {
          "indexed": false,
          "internalType": "uint256",
          "name": "ordexIndex",
          "type": "uint256"
        },
        {
          "indexed": false,
          "internalType": "address[]",
          "name": "path",
          "type": "address[]"
        },
        {
          "indexed": false,
          "internalType": "uint256",
          "name": "amountIn",
          "type": "uint256"
        },
        {
          "indexed": false,
          "internalType": "uint256",
          "name": "minOut",
          "type": "uint256"
        },
        {
          "indexed": false,
          "internalType": "uint256",
          "name": "triggerRatio",
          "type": "uint256"
        },
        {
          "indexed": false,
          "internalType": "bool",
          "name": "triggerAboveThreshold",
          "type": "bool"
        },
        {
          "indexed": false,
          "internalType": "bool",
          "name": "shouldUnwrap",
          "type": "bool"
        },
        {
          "indexed": false,
          "internalType": "uint256",
          "name": "executionFee",
          "type": "uint256"
        }
      ],
      "name": "UpdateSwapOrder",
      "type": "event"
    },
    {
      "inputs": [],
      "name": "PRICE_PRECISION",
      "outputs": [
        {
          "internalType": "uint256",
          "name": "",
          "type": "uint256"
        }
      ],
      "stateMutability": "view",
      "type": "function"
    },
    {
      "inputs": [],
      "name": "USDPH_PRECISION",
      "outputs": [
        {
          "internalType": "uint256",
          "name": "",
          "type": "uint256"
        }
      ],
      "stateMutability": "view",
      "type": "function"
    },
    {
      "inputs": [],
      "name": "addressesProvider",
      "outputs": [
        {
          "internalType": "contract IAddressesProvider",
          "name": "",
          "type": "address"
        }
      ],
      "stateMutability": "view",
      "type": "function"
    },
    {
      "inputs": [
        {
          "internalType": "uint256",
          "name": "_orderIndex",
          "type": "uint256"
        }
      ],
      "name": "cancelDecreaseOrder",
      "outputs": [],
      "stateMutability": "nonpayable",
      "type": "function"
    },
    {
      "inputs": [
        {
          "internalType": "uint256",
          "name": "_orderIndex",
          "type": "uint256"
        }
      ],
      "name": "cancelIncreaseOrder",
      "outputs": [],
      "stateMutability": "nonpayable",
      "type": "function"
    },
    {
      "inputs": [
        {
          "internalType": "uint256[]",
          "name": "_swapOrderIndexes",
          "type": "uint256[]"
        },
        {
          "internalType": "uint256[]",
          "name": "_increaseOrderIndexes",
          "type": "uint256[]"
        },
        {
          "internalType": "uint256[]",
          "name": "_decreaseOrderIndexes",
          "type": "uint256[]"
        }
      ],
      "name": "cancelMultiple",
      "outputs": [],
      "stateMutability": "nonpayable",
      "type": "function"
    },
    {
      "inputs": [
        {
          "internalType": "uint256",
          "name": "_orderIndex",
          "type": "uint256"
        }
      ],
      "name": "cancelSwapOrder",
      "outputs": [],
      "stateMutability": "nonpayable",
      "type": "function"
    },
    {
      "inputs": [
        {
          "internalType": "address",
          "name": "_indexToken",
          "type": "address"
        },
        {
          "internalType": "uint256",
          "name": "_sizeDelta",
          "type": "uint256"
        },
        {
          "internalType": "address",
          "name": "_collateralToken",
          "type": "address"
        },
        {
          "internalType": "uint256",
          "name": "_collateralDelta",
          "type": "uint256"
        },
        {
          "internalType": "bool",
          "name": "_isLong",
          "type": "bool"
        },
        {
          "internalType": "uint256",
          "name": "_triggerPrice",
          "type": "uint256"
        },
        {
          "internalType": "bool",
          "name": "_triggerAboveThreshold",
          "type": "bool"
        }
      ],
      "name": "createDecreaseOrder",
      "outputs": [],
      "stateMutability": "payable",
      "type": "function"
    },
    {
      "inputs": [
        {
          "internalType": "address[]",
          "name": "_path",
          "type": "address[]"
        },
        {
          "internalType": "uint256",
          "name": "_amountIn",
          "type": "uint256"
        },
        {
          "internalType": "address",
          "name": "_indexToken",
          "type": "address"
        },
        {
          "internalType": "uint256",
          "name": "_minOut",
          "type": "uint256"
        },
        {
          "internalType": "uint256",
          "name": "_sizeDelta",
          "type": "uint256"
        },
        {
          "internalType": "address",
          "name": "_collateralToken",
          "type": "address"
        },
        {
          "internalType": "bool",
          "name": "_isLong",
          "type": "bool"
        },
        {
          "internalType": "uint256",
          "name": "_triggerPrice",
          "type": "uint256"
        },
        {
          "internalType": "bool",
          "name": "_triggerAboveThreshold",
          "type": "bool"
        },
        {
          "internalType": "uint256",
          "name": "_executionFee",
          "type": "uint256"
        },
        {
          "internalType": "bool",
          "name": "_shouldWrap",
          "type": "bool"
        }
      ],
      "name": "createIncreaseOrder",
      "outputs": [],
      "stateMutability": "payable",
      "type": "function"
    },
    {
      "inputs": [
        {
          "internalType": "address[]",
          "name": "_path",
          "type": "address[]"
        },
        {
          "internalType": "uint256",
          "name": "_amountIn",
          "type": "uint256"
        },
        {
          "internalType": "uint256",
          "name": "_minOut",
          "type": "uint256"
        },
        {
          "internalType": "uint256",
          "name": "_triggerRatio",
          "type": "uint256"
        },
        {
          "internalType": "bool",
          "name": "_triggerAboveThreshold",
          "type": "bool"
        },
        {
          "internalType": "uint256",
          "name": "_executionFee",
          "type": "uint256"
        },
        {
          "internalType": "bool",
          "name": "_shouldWrap",
          "type": "bool"
        },
        {
          "internalType": "bool",
          "name": "_shouldUnwrap",
          "type": "bool"
        }
      ],
      "name": "createSwapOrder",
      "outputs": [],
      "stateMutability": "payable",
      "type": "function"
    },
    {
      "inputs": [
        {
          "internalType": "address",
          "name": "",
          "type": "address"
        },
        {
          "internalType": "uint256",
          "name": "",
          "type": "uint256"
        }
      ],
      "name": "decreaseOrders",
      "outputs": [
        {
          "internalType": "address",
          "name": "account",
          "type": "address"
        },
        {
          "internalType": "address",
          "name": "collateralToken",
          "type": "address"
        },
        {
          "internalType": "uint256",
          "name": "collateralDelta",
          "type": "uint256"
        },
        {
          "internalType": "address",
          "name": "indexToken",
          "type": "address"
        },
        {
          "internalType": "uint256",
          "name": "sizeDelta",
          "type": "uint256"
        },
        {
          "internalType": "bool",
          "name": "isLong",
          "type": "bool"
        },
        {
          "internalType": "uint256",
          "name": "triggerPrice",
          "type": "uint256"
        },
        {
          "internalType": "bool",
          "name": "triggerAboveThreshold",
          "type": "bool"
        },
        {
          "internalType": "uint256",
          "name": "executionFee",
          "type": "uint256"
        }
      ],
      "stateMutability": "view",
      "type": "function"
    },
    {
      "inputs": [
        {
          "internalType": "address",
          "name": "",
          "type": "address"
        }
      ],
      "name": "decreaseOrdersIndex",
      "outputs": [
        {
          "internalType": "uint256",
          "name": "",
          "type": "uint256"
        }
      ],
      "stateMutability": "view",
      "type": "function"
    },
    {
      "inputs": [
        {
          "internalType": "address",
          "name": "_address",
          "type": "address"
        },
        {
          "internalType": "uint256",
          "name": "_orderIndex",
          "type": "uint256"
        },
        {
          "internalType": "address payable",
          "name": "_feeReceiver",
          "type": "address"
        }
      ],
      "name": "executeDecreaseOrder",
      "outputs": [],
      "stateMutability": "nonpayable",
      "type": "function"
    },
    {
      "inputs": [
        {
          "internalType": "address",
          "name": "_address",
          "type": "address"
        },
        {
          "internalType": "uint256",
          "name": "_orderIndex",
          "type": "uint256"
        },
        {
          "internalType": "address payable",
          "name": "_feeReceiver",
          "type": "address"
        }
      ],
      "name": "executeIncreaseOrder",
      "outputs": [],
      "stateMutability": "nonpayable",
      "type": "function"
    },
    {
      "inputs": [
        {
          "internalType": "address",
          "name": "_account",
          "type": "address"
        },
        {
          "internalType": "uint256",
          "name": "_orderIndex",
          "type": "uint256"
        },
        {
          "internalType": "address payable",
          "name": "_feeReceiver",
          "type": "address"
        }
      ],
      "name": "executeSwapOrder",
      "outputs": [],
      "stateMutability": "nonpayable",
      "type": "function"
    },
    {
      "inputs": [
        {
          "internalType": "address",
          "name": "_account",
          "type": "address"
        },
        {
          "internalType": "uint256",
          "name": "_orderIndex",
          "type": "uint256"
        }
      ],
      "name": "getDecreaseOrder",
      "outputs": [
        {
          "internalType": "address",
          "name": "collateralToken",
          "type": "address"
        },
        {
          "internalType": "uint256",
          "name": "collateralDelta",
          "type": "uint256"
        },
        {
          "internalType": "address",
          "name": "indexToken",
          "type": "address"
        },
        {
          "internalType": "uint256",
          "name": "sizeDelta",
          "type": "uint256"
        },
        {
          "internalType": "bool",
          "name": "isLong",
          "type": "bool"
        },
        {
          "internalType": "uint256",
          "name": "triggerPrice",
          "type": "uint256"
        },
        {
          "internalType": "bool",
          "name": "triggerAboveThreshold",
          "type": "bool"
        },
        {
          "internalType": "uint256",
          "name": "executionFee",
          "type": "uint256"
        }
      ],
      "stateMutability": "view",
      "type": "function"
    },
    {
      "inputs": [
        {
          "internalType": "address",
          "name": "_account",
          "type": "address"
        },
        {
          "internalType": "uint256",
          "name": "_orderIndex",
          "type": "uint256"
        }
      ],
      "name": "getIncreaseOrder",
      "outputs": [
        {
          "internalType": "address",
          "name": "purchaseToken",
          "type": "address"
        },
        {
          "internalType": "uint256",
          "name": "purchaseTokenAmount",
          "type": "uint256"
        },
        {
          "internalType": "address",
          "name": "collateralToken",
          "type": "address"
        },
        {
          "internalType": "address",
          "name": "indexToken",
          "type": "address"
        },
        {
          "internalType": "uint256",
          "name": "sizeDelta",
          "type": "uint256"
        },
        {
          "internalType": "bool",
          "name": "isLong",
          "type": "bool"
        },
        {
          "internalType": "uint256",
          "name": "triggerPrice",
          "type": "uint256"
        },
        {
          "internalType": "bool",
          "name": "triggerAboveThreshold",
          "type": "bool"
        },
        {
          "internalType": "uint256",
          "name": "executionFee",
          "type": "uint256"
        }
      ],
      "stateMutability": "view",
      "type": "function"
    },
    {
      "inputs": [
        {
          "internalType": "address",
          "name": "_account",
          "type": "address"
        },
        {
          "internalType": "uint256",
          "name": "_orderIndex",
          "type": "uint256"
        }
      ],
      "name": "getSwapOrder",
      "outputs": [
        {
          "internalType": "address",
          "name": "path0",
          "type": "address"
        },
        {
          "internalType": "address",
          "name": "path1",
          "type": "address"
        },
        {
          "internalType": "address",
          "name": "path2",
          "type": "address"
        },
        {
          "internalType": "uint256",
          "name": "amountIn",
          "type": "uint256"
        },
        {
          "internalType": "uint256",
          "name": "minOut",
          "type": "uint256"
        },
        {
          "internalType": "uint256",
          "name": "triggerRatio",
          "type": "uint256"
        },
        {
          "internalType": "bool",
          "name": "triggerAboveThreshold",
          "type": "bool"
        },
        {
          "internalType": "bool",
          "name": "shouldUnwrap",
          "type": "bool"
        },
        {
          "internalType": "uint256",
          "name": "executionFee",
          "type": "uint256"
        }
      ],
      "stateMutability": "view",
      "type": "function"
    },
    {
      "inputs": [
        {
          "internalType": "address",
          "name": "_otherToken",
          "type": "address"
        }
      ],
      "name": "getUsdphMinPrice",
      "outputs": [
        {
          "internalType": "uint256",
          "name": "",
          "type": "uint256"
        }
      ],
      "stateMutability": "view",
      "type": "function"
    },
    {
      "inputs": [
        {
          "internalType": "address",
          "name": "",
          "type": "address"
        },
        {
          "internalType": "uint256",
          "name": "",
          "type": "uint256"
        }
      ],
      "name": "increaseOrders",
      "outputs": [
        {
          "internalType": "address",
          "name": "account",
          "type": "address"
        },
        {
          "internalType": "address",
          "name": "purchaseToken",
          "type": "address"
        },
        {
          "internalType": "uint256",
          "name": "purchaseTokenAmount",
          "type": "uint256"
        },
        {
          "internalType": "address",
          "name": "collateralToken",
          "type": "address"
        },
        {
          "internalType": "address",
          "name": "indexToken",
          "type": "address"
        },
        {
          "internalType": "uint256",
          "name": "sizeDelta",
          "type": "uint256"
        },
        {
          "internalType": "bool",
          "name": "isLong",
          "type": "bool"
        },
        {
          "internalType": "uint256",
          "name": "triggerPrice",
          "type": "uint256"
        },
        {
          "internalType": "bool",
          "name": "triggerAboveThreshold",
          "type": "bool"
        },
        {
          "internalType": "uint256",
          "name": "executionFee",
          "type": "uint256"
        }
      ],
      "stateMutability": "view",
      "type": "function"
    },
    {
      "inputs": [
        {
          "internalType": "address",
          "name": "",
          "type": "address"
        }
      ],
      "name": "increaseOrdersIndex",
      "outputs": [
        {
          "internalType": "uint256",
          "name": "",
          "type": "uint256"
        }
      ],
      "stateMutability": "view",
      "type": "function"
    },
    {
      "inputs": [],
      "name": "minExecutionFee",
      "outputs": [
        {
          "internalType": "uint256",
          "name": "",
          "type": "uint256"
        }
      ],
      "stateMutability": "view",
      "type": "function"
    },
    {
      "inputs": [],
      "name": "minPurchaseTokenAmountUsd",
      "outputs": [
        {
          "internalType": "uint256",
          "name": "",
          "type": "uint256"
        }
      ],
      "stateMutability": "view",
      "type": "function"
    },
    {
      "inputs": [],
      "name": "owner",
      "outputs": [
        {
          "internalType": "address",
          "name": "",
          "type": "address"
        }
      ],
      "stateMutability": "view",
      "type": "function"
    },
    {
      "inputs": [],
      "name": "renounceOwnership",
      "outputs": [],
      "stateMutability": "nonpayable",
      "type": "function"
    },
    {
      "inputs": [
        {
          "internalType": "uint256",
          "name": "_minExecutionFee",
          "type": "uint256"
        }
      ],
      "name": "setMinExecutionFee",
      "outputs": [],
      "stateMutability": "nonpayable",
      "type": "function"
    },
    {
      "inputs": [
        {
          "internalType": "uint256",
          "name": "_minPurchaseTokenAmountUsd",
          "type": "uint256"
        }
      ],
      "name": "setMinPurchaseTokenAmountUsd",
      "outputs": [],
      "stateMutability": "nonpayable",
      "type": "function"
    },
    {
      "inputs": [
        {
          "internalType": "address",
          "name": "",
          "type": "address"
        },
        {
          "internalType": "uint256",
          "name": "",
          "type": "uint256"
        }
      ],
      "name": "swapOrders",
      "outputs": [
        {
          "internalType": "address",
          "name": "account",
          "type": "address"
        },
        {
          "internalType": "uint256",
          "name": "amountIn",
          "type": "uint256"
        },
        {
          "internalType": "uint256",
          "name": "minOut",
          "type": "uint256"
        },
        {
          "internalType": "uint256",
          "name": "triggerRatio",
          "type": "uint256"
        },
        {
          "internalType": "bool",
          "name": "triggerAboveThreshold",
          "type": "bool"
        },
        {
          "internalType": "bool",
          "name": "shouldUnwrap",
          "type": "bool"
        },
        {
          "internalType": "uint256",
          "name": "executionFee",
          "type": "uint256"
        }
      ],
      "stateMutability": "view",
      "type": "function"
    },
    {
      "inputs": [
        {
          "internalType": "address",
          "name": "",
          "type": "address"
        }
      ],
      "name": "swapOrdersIndex",
      "outputs": [
        {
          "internalType": "uint256",
          "name": "",
          "type": "uint256"
        }
      ],
      "stateMutability": "view",
      "type": "function"
    },
    {
      "inputs": [
        {
          "internalType": "address",
          "name": "newOwner",
          "type": "address"
        }
      ],
      "name": "transferOwnership",
      "outputs": [],
      "stateMutability": "nonpayable",
      "type": "function"
    },
    {
      "inputs": [
        {
          "internalType": "uint256",
          "name": "_orderIndex",
          "type": "uint256"
        },
        {
          "internalType": "uint256",
          "name": "_collateralDelta",
          "type": "uint256"
        },
        {
          "internalType": "uint256",
          "name": "_sizeDelta",
          "type": "uint256"
        },
        {
          "internalType": "uint256",
          "name": "_triggerPrice",
          "type": "uint256"
        },
        {
          "internalType": "bool",
          "name": "_triggerAboveThreshold",
          "type": "bool"
        }
      ],
      "name": "updateDecreaseOrder",
      "outputs": [],
      "stateMutability": "nonpayable",
      "type": "function"
    },
    {
      "inputs": [
        {
          "internalType": "uint256",
          "name": "_orderIndex",
          "type": "uint256"
        },
        {
          "internalType": "uint256",
          "name": "_sizeDelta",
          "type": "uint256"
        },
        {
          "internalType": "uint256",
          "name": "_triggerPrice",
          "type": "uint256"
        },
        {
          "internalType": "bool",
          "name": "_triggerAboveThreshold",
          "type": "bool"
        }
      ],
      "name": "updateIncreaseOrder",
      "outputs": [],
      "stateMutability": "nonpayable",
      "type": "function"
    },
    {
      "inputs": [
        {
          "internalType": "uint256",
          "name": "_orderIndex",
          "type": "uint256"
        },
        {
          "internalType": "uint256",
          "name": "_minOut",
          "type": "uint256"
        },
        {
          "internalType": "uint256",
          "name": "_triggerRatio",
          "type": "uint256"
        },
        {
          "internalType": "bool",
          "name": "_triggerAboveThreshold",
          "type": "bool"
        }
      ],
      "name": "updateSwapOrder",
      "outputs": [],
      "stateMutability": "nonpayable",
      "type": "function"
    },
    {
      "inputs": [
        {
          "internalType": "bool",
          "name": "_triggerAboveThreshold",
          "type": "bool"
        },
        {
          "internalType": "uint256",
          "name": "_triggerPrice",
          "type": "uint256"
        },
        {
          "internalType": "address",
          "name": "_indexToken",
          "type": "address"
        },
        {
          "internalType": "bool",
          "name": "_maximizePrice",
          "type": "bool"
        },
        {
          "internalType": "bool",
          "name": "_raise",
          "type": "bool"
        }
      ],
      "name": "validatePositionOrderPrice",
      "outputs": [
        {
          "internalType": "uint256",
          "name": "",
          "type": "uint256"
        },
        {
          "internalType": "bool",
          "name": "",
          "type": "bool"
        }
      ],
      "stateMutability": "view",
      "type": "function"
    },
    {
      "inputs": [
        {
          "internalType": "address[]",
          "name": "_path",
          "type": "address[]"
        },
        {
          "internalType": "uint256",
          "name": "_triggerRatio",
          "type": "uint256"
        }
      ],
      "name": "validateSwapOrderPriceWithTriggerAboveThreshold",
      "outputs": [
        {
          "internalType": "bool",
          "name": "",
          "type": "bool"
        }
      ],
      "stateMutability": "view",
      "type": "function"
    },
    {
      "inputs": [],
      "name": "weth",
      "outputs": [
        {
          "internalType": "address",
          "name": "",
          "type": "address"
        }
      ],
      "stateMutability": "view",
      "type": "function"
    },
    {
      "stateMutability": "payable",
      "type": "receive"
    }
  ],
  "bytecode": "0x60806040523480156200001157600080fd5b5060405162005666380380620056668339810160408190526200003491620000d1565b600062000040620000cd565b600080546001600160a01b0319166001600160a01b0383169081178255604051929350917f8be0079c531659141344cd1fd0a4f28419497f9722a3daafe3b4186f6b6457e0908290a35060018055600880546001600160a01b039586166001600160a01b0319918216179091556009805494909516931692909217909255600a91909155600b5562000136565b3390565b60008060008060808587031215620000e7578384fd5b8451620000f4816200011d565b602086015190945062000107816200011d565b6040860151606090960151949790965092505050565b6001600160a01b03811681146200013357600080fd5b50565b61552080620001466000396000f3fe6080604052600436106102125760003560e01c80639e71b0f011610118578063c989d964116100a0578063d566d0ca1161006f578063d566d0ca14610657578063f2d2e01b14610677578063f2fde38b146106ac578063f882ac07146106cc578063fc2cee62146106ec5761024c565b8063c989d964146105ad578063d0d40cd6146105cd578063d38ab51914610602578063d3bab1d1146106225761024c565b8063b142a4b0116100e7578063b142a4b014610525578063c16cde8a14610538578063c4a1821b1461054b578063c72c4d1014610578578063c86b0f7d1461058d5761024c565b80639e71b0f0146104b0578063a397ea54146104d0578063a51b1e75146104f0578063aec22455146105055761024c565b80634c54f0b01161019b578063807c56001161016a578063807c5600146104315780638da5cb5b146104515780638de10c2e1461046657806395082d251461047b5780639983ee1b146104905761024c565b80634c54f0b0146103a657806363ae2103146103d4578063715018a6146103e957806379221fa2146103fe5761024c565b806311d9444a116101e257806311d9444a146102fb578063269ae6c21461031b5780632b7d62901461032e5780633fc8cef31461036457806347e0bbd0146103865761024c565b8062cf066b14610251578063026032ee1461028757806307c7edc3146102bb5780630d5cc938146102db5761024c565b3661024c576009546001600160a01b0316331461024a5760405162461bcd60e51b815260040161024190614fb1565b60405180910390fd5b005b600080fd5b34801561025d57600080fd5b5061027161026c3660046144e8565b61070c565b60405161027e9190615036565b60405180910390f35b34801561029357600080fd5b506102a76102a2366004614520565b61071e565b60405161027e989796959493929190614ca9565b3480156102c757600080fd5b5061024a6102d636600461454b565b6107d2565b3480156102e757600080fd5b5061024a6102f6366004614927565b610b8b565b34801561030757600080fd5b5061024a61031636600461454b565b610c2d565b61024a61032936600461470f565b610fc1565b34801561033a57600080fd5b5061034e610349366004614520565b611298565b60405161027e9a99989796959493929190614b6f565b34801561037057600080fd5b50610379611309565b60405161027e9190614a2f565b34801561039257600080fd5b5061024a6103a1366004614927565b611318565b3480156103b257600080fd5b506103c66103c136600461482f565b61159b565b60405161027e929190615364565b3480156103e057600080fd5b506102716116eb565b3480156103f557600080fd5b5061024a6116f1565b34801561040a57600080fd5b5061041e610419366004614520565b61179d565b60405161027e9796959493929190614cf2565b34801561043d57600080fd5b5061024a61044c3660046147ab565b6117f1565b34801561045d57600080fd5b50610379611889565b34801561047257600080fd5b50610271611898565b34801561048757600080fd5b5061027161189e565b34801561049c57600080fd5b5061024a6104ab366004614957565b6118af565b3480156104bc57600080fd5b5061024a6104cb366004614927565b6119b5565b3480156104dc57600080fd5b5061024a6104eb366004614997565b611b9d565b3480156104fc57600080fd5b50610271611cab565b34801561051157600080fd5b506102716105203660046144e8565b611cb7565b61024a610533366004614649565b611cc9565b61024a61054636600461458c565b61212b565b34801561055757600080fd5b5061056b610566366004614606565b6121bc565b60405161027e9190614d31565b34801561058457600080fd5b506103796124d1565b34801561059957600080fd5b5061024a6105a8366004614957565b6124e0565b3480156105b957600080fd5b506102716105c83660046144e8565b6125de565b3480156105d957600080fd5b506105ed6105e8366004614520565b61289e565b60405161027e99989796959493929190614b1d565b34801561060e57600080fd5b5061024a61061d36600461454b565b612a59565b34801561062e57600080fd5b5061064261063d366004614520565b612f05565b60405161027e99989796959493929190614c54565b34801561066357600080fd5b506102716106723660046144e8565b612fcc565b34801561068357600080fd5b50610697610692366004614520565b612fde565b60405161027e99989796959493929190614bcb565b3480156106b857600080fd5b5061024a6106c73660046144e8565b613046565b3480156106d857600080fd5b5061024a6106e7366004614927565b613148565b3480156106f857600080fd5b5061024a610707366004614927565b6133de565b60076020526000908152604090205481565b6001600160a01b039182166000908152600460208181526040808420948452938152918390208351610120810185528154861681526001820154861693810184905260028201549481018590526003820154909516606086018190529181015460808601819052600582015460ff908116151560a08801819052600684015460c089018190526007850154909216151560e08901819052600890940154610100909801889052949795969395919493909291565b60026001541415610818576040805162461bcd60e51b815260206004820152601f60248201526000805160206153da833981519152604482015290519081900360640190fd5b600260019081556001600160a01b0380851660009081526006602090815260408083208784528252808320815161010081018352815490951685529485018054825181850281018501909352808352939593858401938301828280156108a757602002820191906000526020600020905b81546001600160a01b03168152600190910190602001808311610889575b5050509183525050600282015460208201526003820154604082015260048201546060820152600582015460ff8082161515608084015261010090910416151560a082015260069091015460c09091015280519091506001600160a01b03166109225760405162461bcd60e51b815260040161024190614f43565b8060a001511561095a5761093e816020015182608001516121bc565b61095a5760405162461bcd60e51b815260040161024190614efd565b6001600160a01b0384166000908152600660209081526040808320868452909152812080546001600160a01b0319168155906109996001830182614368565b5060006002820181905560038201819055600480830182905560058301805461ffff19169055600690920155600854604080516311b2515f60e31b81529051610a79936001600160a01b0390931692638d928af892808201926020929091829003018186803b158015610a0b57600080fd5b505afa158015610a1f573d6000803e3d6000fd5b505050506040513d601f19601f82011682018060405250810190610a439190614504565b82604001518360200151600081518110610a5957fe5b60200260200101516001600160a01b03166134759092919063ffffffff16565b600954602082015180516000926001600160a01b031691906000198101908110610a9f57fe5b60200260200101516001600160a01b0316148015610abe57508160c001515b15610aeb57610ad682602001518360600151306134cc565b9050610ae6818360000151613648565b610b05565b610b028260200151836060015184600001516134cc565b90505b610b138260e0015184613648565b846001600160a01b03167f7e1fe496989eea92b738a562dbf9c0ae6aa6fcf3f1ef09e95ee4f7603721706b858460200151856040015186606001518688608001518960a001518a60c001518b60e00151604051610b7899989796959493929190615272565b60405180910390a2505060018055505050565b610b936136c2565b6001600160a01b0316610ba4611889565b6001600160a01b031614610bed576040805162461bcd60e51b815260206004820181905260248201526000805160206154a1833981519152604482015290519081900360640190fd5b600b8190556040517fe46d9daf6d25f7615efa1d0183b90ac6759d85014b598e409aadf0fd918d59a690610c22908390615036565b60405180910390a150565b60026001541415610c73576040805162461bcd60e51b815260206004820152601f60248201526000805160206153da833981519152604482015290519081900360640190fd5b600260018181556001600160a01b0380861660009081526004602081815260408084208985528252928390208351610120810185528154861680825296820154861692810192909252958601549281019290925260038501549092166060820152908301546080820152600583015460ff908116151560a0830152600684015460c0830152600784015416151560e0820152600890920154610100830152610d2d5760405162461bcd60e51b815260040161024190614f43565b6000610d4e8260e001518360c0015184606001518560a0015115600161159b565b506001600160a01b0380871660009081526004602081815260408084208a8552825280842080546001600160a01b031990811682556001820180548216905560028201869055600382018054909116905580840185905560058101805460ff19908116909155600682018690556007820180549091169055600890810185905554815163b0f479a160e01b815291519697509395939094169363b0f479a193818401939091829003018186803b158015610e0757600080fd5b505afa158015610e1b573d6000803e3d6000fd5b505050506040513d601f19601f82011682018060405250810190610e3f9190614504565b6001600160a01b0316632662166b846000015185602001518660600151876040015188608001518960a00151306040518863ffffffff1660e01b8152600401610e8e9796959493929190614ade565b602060405180830381600087803b158015610ea857600080fd5b505af1158015610ebc573d6000803e3d6000fd5b505050506040513d601f19601f82011682018060405250810190610ee0919061493f565b60095460208501519192506001600160a01b0391821691161415610f1157610f0c818460000151613648565b610f2e565b82516020840151610f2e916001600160a01b039091169083613475565b610f3d83610100015185613648565b82600001516001600160a01b03167f9a382661d6573da86db000471303be6f0b2b1bb66089b08e3c16a85d7b6e94f88685602001518660400151876060015188608001518960a001518a60c001518b60e001518c61010001518c604051610fad9a999897969594939291906151cd565b60405180910390a250506001805550505050565b60026001541415611007576040805162461bcd60e51b815260206004820152601f60248201526000805160206153da833981519152604482015290519081900360640190fd5b600260018190558851148061101d575087516003145b6110395760405162461bcd60e51b815260040161024190614ec6565b8760018951038151811061104957fe5b60200260200101516001600160a01b03168860008151811061106757fe5b60200260200101516001600160a01b031614156110965760405162461bcd60e51b815260040161024190614e49565b600087116110b65760405162461bcd60e51b815260040161024190614f7a565b600a548310156110d85760405162461bcd60e51b815260040161024190614e04565b6110e06136c6565b811561115d5760095488516001600160a01b0390911690899060009061110257fe5b60200260200101516001600160a01b0316146111305760405162461bcd60e51b815260040161024190614dbf565b61113a8388613738565b34146111585760405162461bcd60e51b815260040161024190614e80565b61127a565b82341461117c5760405162461bcd60e51b815260040161024190614fe8565b600860009054906101000a90046001600160a01b03166001600160a01b031663b0f479a16040518163ffffffff1660e01b815260040160206040518083038186803b1580156111ca57600080fd5b505afa1580156111de573d6000803e3d6000fd5b505050506040513d601f19601f820116820180604052508101906112029190614504565b6001600160a01b0316631b8278788960008151811061121d57fe5b602002602001015133308b6040518563ffffffff1660e01b81526004016112479493929190614a5d565b600060405180830381600087803b15801561126157600080fd5b505af1158015611275573d6000803e3d6000fd5b505050505b61128a338989898989878a613792565b505060018055505050505050565b6002602081815260009384526040808520909152918352912080546001820154928201546003830154600484015460058501546006860154600787015460088801546009909801546001600160a01b03978816998816989697958616969490951694929360ff92831693919216908a565b6009546001600160a01b031681565b6002600154141561135e576040805162461bcd60e51b815260206004820152601f60248201526000805160206153da833981519152604482015290519081900360640190fd5b600260018181553360009081526020838152604080832086845282529182902082516101408101845281546001600160a01b039081168083529583015481169382019390935294810154928501929092526003820154811660608501526004820154166080840152600581015460a0840152600681015460ff908116151560c0850152600782015460e085015260088201541615156101008401526009015461012083015261141f5760405162461bcd60e51b815260040161024190614f43565b3360009081526002602081815260408084208685528252832080546001600160a01b0319908116825560018201805482169055928101849055600381018054841690556004810180549093169092556005820183905560068201805460ff1990811690915560078301849055600883018054909116905560099182019290925554908201516001600160a01b03908116911614156114e1576114dc6114d6826040015183610120015161373890919063ffffffff16565b33613648565b611516565b61150733826040015183602001516001600160a01b03166134759092919063ffffffff16565b61151681610120015133613648565b80600001516001600160a01b03167fd500f34e0ec655b7614ae42e1d9c666d5e4dde909a1297829f8c5ecf00805d328383602001518460400151856060015186608001518760a001518860c001518960e001518a61010001518b610120015160405161158b9a9998979695949392919061507d565b60405180910390a2505060018055565b6000806000600860009054906101000a90046001600160a01b03166001600160a01b031663fca513a86040518163ffffffff1660e01b815260040160206040518083038186803b1580156115ee57600080fd5b505afa158015611602573d6000803e3d6000fd5b505050506040513d601f19601f820116820180604052508101906116269190614504565b6001600160a01b03166376d6976087876040518363ffffffff1660e01b8152600401611653929190614c20565b60206040518083038186803b15801561166b57600080fd5b505afa15801561167f573d6000803e3d6000fd5b505050506040513d601f19601f820116820180604052508101906116a3919061493f565b90506000886116b4578782106116b8565b8782115b905084156116dd57806116dd5760405162461bcd60e51b815260040161024190614efd565b909890975095505050505050565b600a5481565b6116f96136c2565b6001600160a01b031661170a611889565b6001600160a01b031614611753576040805162461bcd60e51b815260206004820181905260248201526000805160206154a1833981519152604482015290519081900360640190fd5b600080546040516001600160a01b03909116907f8be0079c531659141344cd1fd0a4f28419497f9722a3daafe3b4186f6b6457e0908390a3600080546001600160a01b0319169055565b600660208181526000938452604080852090915291835291208054600282015460038301546004840154600585015494909501546001600160a01b03909316949193909260ff808316926101009004169087565b60005b83518110156118215761181984828151811061180c57fe5b6020026020010151613148565b6001016117f4565b5060005b82518110156118525761184a83828151811061183d57fe5b6020026020010151611318565b600101611825565b5060005b81518110156118835761187b82828151811061186e57fe5b60200260200101516119b5565b600101611856565b50505050565b6000546001600160a01b031690565b600b5481565b6c0c9f2c9cd04674edea4000000081565b600260015414156118f5576040805162461bcd60e51b815260206004820152601f60248201526000805160206153da833981519152604482015290519081900360640190fd5b60026001819055336000908152602091825260408082208783529092522080546001600160a01b031661193a5760405162461bcd60e51b815260040161024190614f43565b6007810183905560088101805460ff19168315151790556005810184905560038101546004820154600683015460405133937f0a0360dd5c354235bbf8d386ba3b24ef8134088e0785677de1504df219d9149a93610b78938b936001600160a01b03938416939092169160ff909116908b908b908b9061503f565b600260015414156119fb576040805162461bcd60e51b815260206004820152601f60248201526000805160206153da833981519152604482015290519081900360640190fd5b6002600181815533600090815260046020818152604080842087855282529283902083516101208101855281546001600160a01b0390811680835296830154811693820193909352958101549386019390935260038301541660608501528101546080840152600581015460ff908116151560a0850152600682015460c0850152600782015416151560e084015260080154610100830152611aaf5760405162461bcd60e51b815260040161024190614f43565b336000818152600460208181526040808420878552909152822080546001600160a01b031990811682556001820180548216905560028201849055600382018054909116905590810182905560058101805460ff1990811690915560068201839055600782018054909116905560080155610100820151611b2f91613648565b80600001516001600160a01b03167f1154174c82984656b028c8021671988f60a346497e56fe02554761184f82a0758383602001518460400151856060015186608001518760a001518860c001518960e001518a610100015160405161158b9998979695949392919061517d565b60026001541415611be3576040805162461bcd60e51b815260206004820152601f60248201526000805160206153da833981519152604482015290519081900360640190fd5b6002600155336000908152600460209081526040808320888452909152902080546001600160a01b0316611c295760405162461bcd60e51b815260040161024190614f43565b6006810183905560078101805460ff1916831515179055600481018490556002810185905560018101546003820154600583015460405133937f75781255bc71c83f89f29e5a2599f2c174a562d2cd8f2e818a47f132e728049893610fad938c936001600160a01b03938416938d9316918c9160ff909116908c908c90615136565b670de0b6b3a764000081565b60036020526000908152604090205481565b60026001541415611d0f576040805162461bcd60e51b815260206004820152601f60248201526000805160206153da833981519152604482015290519081900360640190fd5b6002600155611d1c6136c6565b600a54821015611d3e5760405162461bcd60e51b815260040161024190614e04565b8015611dbb576009548b516001600160a01b03909116908c90600090611d6057fe5b60200260200101516001600160a01b031614611d8e5760405162461bcd60e51b815260040161024190614dbf565b611d98828b613738565b3414611db65760405162461bcd60e51b815260040161024190614e80565b611ed8565b813414611dda5760405162461bcd60e51b815260040161024190614fe8565b600860009054906101000a90046001600160a01b03166001600160a01b031663b0f479a16040518163ffffffff1660e01b815260040160206040518083038186803b158015611e2857600080fd5b505afa158015611e3c573d6000803e3d6000fd5b505050506040513d601f19601f82011682018060405250810190611e609190614504565b6001600160a01b0316631b8278788c600081518110611e7b57fe5b602002602001015133308e6040518563ffffffff1660e01b8152600401611ea59493929190614a5d565b600060405180830381600087803b158015611ebf57600080fd5b505af1158015611ed3573d6000803e3d6000fd5b505050505b60008b60018d510381518110611eea57fe5b60200260200101519050600060018d511115611fe457816001600160a01b03168d600081518110611f1757fe5b60200260200101516001600160a01b03161415611f465760405162461bcd60e51b815260040161024190614e49565b600854604080516311b2515f60e31b81529051611fd2926001600160a01b031691638d928af8916004808301926020929190829003018186803b158015611f8c57600080fd5b505afa158015611fa0573d6000803e3d6000fd5b505050506040513d601f19601f82011682018060405250810190611fc49190614504565b8d8f600081518110610a5957fe5b611fdd8d8b306134cc565b9050611fe7565b508a5b600854604080516311b2515f60e31b815290516000926001600160a01b031691638d928af8916004808301926020929190829003018186803b15801561202c57600080fd5b505afa158015612040573d6000803e3d6000fd5b505050506040513d601f19601f820116820180604052508101906120649190614504565b6001600160a01b0316630a48d5a984846040518363ffffffff1660e01b8152600401612091929190614c3b565b60206040518083038186803b1580156120a957600080fd5b505afa1580156120bd573d6000803e3d6000fd5b505050506040513d601f19601f820116820180604052508101906120e1919061493f565b9050600b548110156121055760405162461bcd60e51b815260040161024190614d3c565b506121183383838b8f8e8d8d8d8d61390e565b5050600180555050505050505050505050565b60026001541415612171576040805162461bcd60e51b815260206004820152601f60248201526000805160206153da833981519152604482015290519081900360640190fd5b600260015561217e6136c6565b600a54341161219f5760405162461bcd60e51b815260040161024190614e04565b6121af3386868a8a888888613ac6565b5050600180555050505050565b60008251600214806121cf575082516003145b6121eb5760405162461bcd60e51b815260040161024190614ec6565b60085460408051631f94a27560e31b815290516000926001600160a01b03169163fca513a8916004808301926020929190829003018186803b15801561223057600080fd5b505afa158015612244573d6000803e3d6000fd5b505050506040513d601f19601f820116820180604052508101906122689190614504565b90506000600860009054906101000a90046001600160a01b03166001600160a01b0316638ad6de4e6040518163ffffffff1660e01b815260040160206040518083038186803b1580156122ba57600080fd5b505afa1580156122ce573d6000803e3d6000fd5b505050506040513d601f19601f820116820180604052508101906122f29190614504565b905060008560008151811061230357fe5b6020026020010151905060008660018851038151811061231f57fe5b60200260200101519050600080846001600160a01b0316846001600160a01b0316141561236a576123638960018151811061235657fe5b60200260200101516125de565b91506123ec565b6040516303b6b4bb60e51b81526001600160a01b038716906376d6976090612399908790600090600401614c20565b60206040518083038186803b1580156123b157600080fd5b505afa1580156123c5573d6000803e3d6000fd5b505050506040513d601f19601f820116820180604052508101906123e9919061493f565b91505b846001600160a01b0316836001600160a01b0316141561241a57506c0c9f2c9cd04674edea4000000061249c565b6040516303b6b4bb60e51b81526001600160a01b038716906376d6976090612449908690600190600401614c20565b60206040518083038186803b15801561246157600080fd5b505afa158015612475573d6000803e3d6000fd5b505050506040513d601f19601f82011682018060405250810190612499919061493f565b90505b60006124bf836124b9846c0c9f2c9cd04674edea40000000613c45565b90613c9e565b89109750505050505050505b92915050565b6008546001600160a01b031681565b60026001541415612526576040805162461bcd60e51b815260206004820152601f60248201526000805160206153da833981519152604482015290519081900360640190fd5b6002600155336000908152600660209081526040808320878452909152902080546001600160a01b031661256c5760405162461bcd60e51b815260040161024190614f43565b600381018490556004810183905560058101805460ff191683151517908190556002820154600683015460405133937fa7f9f4a25eb76f5ec01b1a429d95d6a00833f0f137c88827c58799a1c1ff0dfe93610b78938b9360018901938c928c928c9260ff6101009091041691906152c9565b600080600860009054906101000a90046001600160a01b03166001600160a01b0316638d928af86040518163ffffffff1660e01b815260040160206040518083038186803b15801561262f57600080fd5b505afa158015612643573d6000803e3d6000fd5b505050506040513d601f19601f820116820180604052508101906126679190614504565b90506000816001600160a01b0316632c668ec185670de0b6b3a76400006040518363ffffffff1660e01b81526004016126a1929190614c3b565b60206040518083038186803b1580156126b957600080fd5b505afa1580156126cd573d6000803e3d6000fd5b505050506040513d601f19601f820116820180604052508101906126f1919061493f565b90506000600860009054906101000a90046001600160a01b03166001600160a01b031663fca513a86040518163ffffffff1660e01b815260040160206040518083038186803b15801561274357600080fd5b505afa158015612757573d6000803e3d6000fd5b505050506040513d601f19601f8201168201806040525081019061277b9190614504565b6001600160a01b03166376d697608660006040518363ffffffff1660e01b81526004016127a9929190614c20565b60206040518083038186803b1580156127c157600080fd5b505afa1580156127d5573d6000803e3d6000fd5b505050506040513d601f19601f820116820180604052508101906127f9919061493f565b90506000836001600160a01b031663cb67e3b1876040518263ffffffff1660e01b81526004016128299190614a2f565b6101206040518083038186803b15801561284257600080fd5b505afa158015612856573d6000803e3d6000fd5b505050506040513d601f19601f8201168201806040525081019061287a9190614896565b602001519050612892600a82900a6124b98585613c45565b9450505050505b919050565b6001600160a01b03808316600090815260066020908152604080832085845282528083208151610100810183528154909516855260018101805483518186028101860190945280845294958695869586958695869586958695869586959294938582019392909183018282801561293e57602002820191906000526020600020905b81546001600160a01b03168152600190910190602001808311612920575b505050918352505060028201546020808301919091526003830154604083015260048301546060830152600583015460ff8082161515608085015261010090910416151560a083015260069092015460c090910152810151519091506129a55760006129bf565b80602001516000815181106129b657fe5b60200260200101515b6001826020015151116129d35760006129ed565b81602001516001815181106129e457fe5b60200260200101515b600283602001515111612a01576000612a1b565b8260200151600281518110612a1257fe5b60200260200101515b8360400151846060015185608001518660a001518760c001518860e00151995099509950995099509950995099509950509295985092959850929598565b60026001541415612a9f576040805162461bcd60e51b815260206004820152601f60248201526000805160206153da833981519152604482015290519081900360640190fd5b600260018181556001600160a01b038086166000908152602084815260408083208884528252918290208251610140810184528154851680825295820154851692810192909252948501549181019190915260038401548216606082015260048401549091166080820152600583015460a0820152600683015460ff908116151560c0830152600784015460e08301526008840154161515610100820152600990920154610120830152612b655760405162461bcd60e51b815260040161024190614f43565b6000612b868261010001518360e0015184608001518560c00151600161159b565b506001600160a01b0380871660009081526002602081815260408084208a8552825280842080546001600160a01b031990811682556001820180548216905593810185905560038101805485169055600480820180549095169094556005810185905560068101805460ff19908116909155600782018690556008808301805490921690915560099091018590555481516311b2515f60e31b8152915196975093959390941693638d928af893818401939091829003018186803b158015612c4d57600080fd5b505afa158015612c61573d6000803e3d6000fd5b505050506040513d601f19601f82011682018060405250810190612c859190614504565b9050612cad81846040015185602001516001600160a01b03166134759092919063ffffffff16565b82606001516001600160a01b031683602001516001600160a01b031614612d8057604080516002808252606082018352600092602083019080368337019050509050836020015181600081518110612d0157fe5b60200260200101906001600160a01b031690816001600160a01b031681525050836060015181600181518110612d3357fe5b60200260200101906001600160a01b031690816001600160a01b0316815250506000612d61826000306134cc565b6060860151909150612d7d906001600160a01b03168483613475565b50505b600860009054906101000a90046001600160a01b03166001600160a01b031663b0f479a16040518163ffffffff1660e01b815260040160206040518083038186803b158015612dce57600080fd5b505afa158015612de2573d6000803e3d6000fd5b505050506040513d601f19601f82011682018060405250810190612e069190614504565b6001600160a01b0316631f1dd1768460000151856060015186608001518760a001518860c001516040518663ffffffff1660e01b8152600401612e4d959493929190614aaa565b600060405180830381600087803b158015612e6757600080fd5b505af1158015612e7b573d6000803e3d6000fd5b50505050612e8e83610120015185613648565b82600001516001600160a01b03167f7fb1c74d1ea6aa1c9c585e17ce8274c8ff98745e85e7459b73f87d784494f58e8685602001518660400151876060015188608001518960a001518a60c001518b60e001518c61010001518d61012001518d604051610fad9b9a999897969594939291906150d4565b6001600160a01b0391821660009081526002602081815260408084209484529381529183902083516101408101855281548616815260018201548616938101849052918101549382018490526003810154851660608301819052600482015490951660808301819052600582015460a08401819052600683015460ff908116151560c08601819052600785015460e0870181905260088601549092161515610100870181905260099095015461012090960186905295989697969295919491939092909190565b60056020526000908152604090205481565b600460208181526000938452604080852090915291835291208054600182015460028301546003840154948401546005850154600686015460078701546008909701546001600160a01b039687169895871697949690951694929360ff928316939192169089565b61304e6136c2565b6001600160a01b031661305f611889565b6001600160a01b0316146130a8576040805162461bcd60e51b815260206004820181905260248201526000805160206154a1833981519152604482015290519081900360640190fd5b6001600160a01b0381166130ed5760405162461bcd60e51b81526004018080602001828103825260268152602001806153fa6026913960400191505060405180910390fd5b600080546040516001600160a01b03808516939216917f8be0079c531659141344cd1fd0a4f28419497f9722a3daafe3b4186f6b6457e091a3600080546001600160a01b0319166001600160a01b0392909216919091179055565b6002600154141561318e576040805162461bcd60e51b815260206004820152601f60248201526000805160206153da833981519152604482015290519081900360640190fd5b60026001908155336000908152600660209081526040808320858452825280832081516101008101835281546001600160a01b031681529481018054835181860281018601909452808452949594919385810193929083018282801561321d57602002820191906000526020600020905b81546001600160a01b031681526001909101906020018083116131ff575b5050509183525050600282015460208201526003820154604082015260048201546060820152600582015460ff8082161515608084015261010090910416151560a082015260069091015460c09091015280519091506001600160a01b03166132985760405162461bcd60e51b815260040161024190614f43565b336000908152600660209081526040808320858452909152812080546001600160a01b0319168155906132ce6001830182614368565b50600060028201819055600382018190556004820181905560058201805461ffff191690556006909101819055600954602083015180516001600160a01b0390921692909161331957fe5b60200260200101516001600160a01b031614156133535761334e6114d682604001518360e0015161373890919063ffffffff16565b61337b565b61336d3382604001518360200151600081518110610a5957fe5b61337b8160e0015133613648565b336001600160a01b03167fefd66d4f9c2f880c70aedeb5b26a44fb474cea07e5d6c533f2d27c303d5d94538383602001518460400151856060015186608001518760a001518860c001518960e0015160405161158b989796959493929190615223565b6133e66136c2565b6001600160a01b03166133f7611889565b6001600160a01b031614613440576040805162461bcd60e51b815260206004820181905260248201526000805160206154a1833981519152604482015290519081900360640190fd5b600a8190556040517fbde5eafdc37b81830d70124cddccaaa6d034e71dda3c8fc18a959ca76a7cbcfc90610c22908390615036565b604080516001600160a01b038416602482015260448082018490528251808303909101815260649091019091526020810180516001600160e01b031663a9059cbb60e01b1790526134c7908490613d05565b505050565b60008351600214156135135761350c846000815181106134e857fe5b6020026020010151856001815181106134fd57fe5b60200260200101518585613db6565b9050613641565b8351600314156136295760006135548560008151811061352f57fe5b60200260200101518660018151811061354457fe5b6020026020010151600030613db6565b90506135ed600860009054906101000a90046001600160a01b03166001600160a01b0316638d928af86040518163ffffffff1660e01b815260040160206040518083038186803b1580156135a757600080fd5b505afa1580156135bb573d6000803e3d6000fd5b505050506040513d601f19601f820116820180604052508101906135df9190614504565b8287600181518110610a5957fe5b613621856001815181106135fd57fe5b60200260200101518660028151811061361257fe5b60200260200101518686613db6565b915050613641565b60405162461bcd60e51b815260040161024190614ec6565b9392505050565b600954604051632e1a7d4d60e01b81526001600160a01b0390911690632e1a7d4d90613678908590600401615036565b600060405180830381600087803b15801561369257600080fd5b505af11580156136a6573d6000803e3d6000fd5b506136be925050506001600160a01b03821683614067565b5050565b3390565b341561373657600960009054906101000a90046001600160a01b03166001600160a01b031663d0e30db0346040518263ffffffff1660e01b81526004016000604051808303818588803b15801561371c57600080fd5b505af1158015613730573d6000803e3d6000fd5b50505050505b565b600082820183811015613641576040805162461bcd60e51b815260206004820152601b60248201527f536166654d6174683a206164646974696f6e206f766572666c6f770000000000604482015290519081900360640190fd5b6001600160a01b038816600081815260076020908152604091829020548251610100810184529384529083018a9052908201889052606082018790526080820186905284151560a083015283151560c083015260e08201839052906137f8826001613738565b6001600160a01b038b8116600090815260076020908152604080832094909455600681528382208683528152929020835181546001600160a01b03191692169190911781558282015180518493613856926001850192910190614389565b506040828101516002830155606083015160038301556080830151600483015560a083015160058301805460c086015115156101000261ff001993151560ff19909216919091179290921691909117905560e090920151600690910155516001600160a01b038b16907fdf06bb56ffc4029dc0b62b68bb5bbadea93a38b530cefc9b81afb742a6555d88906138fa9085908d908d908d908d908d908d908d90615223565b60405180910390a250505050505050505050565b33600090815260036020908152604091829020548251610140810184526001600160a01b038e811682528d8116938201939093529283018b90528982166060840152908816608083015260a0820187905285151560c083015260e0820185905283151561010083015261012082018390529061398b826001613738565b6001600160a01b03808e166000818152600360208181526040808420969096556002808252868420898552825292869020875181549087166001600160a01b0319918216178255918801516001820180549188169184169190911790558787015193810193909355606087015191830180549286169282169290921790915560808601516004830180549190951691161790925560a0840151600583015560c084015160068301805491151560ff1992831617905560e085015160078401556101008501516008840180549115159190921617905561012084015160099092019190915590517fb27b9afe3043b93788c40cfc3cc73f5d928a2e40f3ba01820b246426de8fa1b990613ab09085908f908f908f908f908f908f908f908f908f9061507d565b60405180910390a2505050505050505050505050565b6001600160a01b03808916600081815260056020908152604091829020548251610120810184529384528b85169184019190915290820189905291871660608201526080810186905284151560a082015260c0810184905282151560e082015234610100820152613b38826001613738565b6001600160a01b03808c166000818152600560208181526040808420969096556004808252868420898552825292869020875181549087166001600160a01b03199182161782559188015160018201805491881691841691909117905587870151600282015560608801516003820180549190971692169190911790945560808601519184019190915560a0850151908301805491151560ff1992831617905560c0850151600684015560e08501516007840180549115159190921617905561010084015160089092019190915590517f48ee333d2a65cc45fdb83bc012920d89181c3377390cd239d2b63f2bef67a02d906138fa9085908d908d908d908d908d908d908d90349061517d565b600082613c54575060006124cb565b82820282848281613c6157fe5b04146136415760405162461bcd60e51b81526004018080602001828103825260218152602001806154806021913960400191505060405180910390fd5b6000808211613cf4576040805162461bcd60e51b815260206004820152601a60248201527f536166654d6174683a206469766973696f6e206279207a65726f000000000000604482015290519081900360640190fd5b818381613cfd57fe5b049392505050565b6000613d5a826040518060400160405280602081526020017f5361666545524332303a206c6f772d6c6576656c2063616c6c206661696c6564815250856001600160a01b031661414c9092919063ffffffff16565b8051909150156134c757808060200190516020811015613d7957600080fd5b50516134c75760405162461bcd60e51b815260040180806020018281038252602a8152602001806154c1602a913960400191505060405180910390fd5b6000806000600860009054906101000a90046001600160a01b03166001600160a01b0316638ad6de4e6040518163ffffffff1660e01b815260040160206040518083038186803b158015613e0957600080fd5b505afa158015613e1d573d6000803e3d6000fd5b505050506040513d601f19601f82011682018060405250810190613e419190614504565b90506000600860009054906101000a90046001600160a01b03166001600160a01b0316638d928af86040518163ffffffff1660e01b815260040160206040518083038186803b158015613e9357600080fd5b505afa158015613ea7573d6000803e3d6000fd5b505050506040513d601f19601f82011682018060405250810190613ecb9190614504565b9050816001600160a01b0316876001600160a01b03161415613f6e57604051635da69ed760e01b81526001600160a01b03821690635da69ed790613f15908b908990600401614a43565b602060405180830381600087803b158015613f2f57600080fd5b505af1158015613f43573d6000803e3d6000fd5b505050506040513d601f19601f82011682018060405250810190613f67919061493f565b925061403b565b816001600160a01b0316886001600160a01b03161415613fb657604051635bae426360e01b81526001600160a01b03821690635bae426390613f15908a908990600401614a43565b604051634998b10960e11b81526001600160a01b03821690639331621290613fe6908b908b908a90600401614a87565b602060405180830381600087803b15801561400057600080fd5b505af1158015614014573d6000803e3d6000fd5b505050506040513d601f19601f82011682018060405250810190614038919061493f565b92505b8583101561405b5760405162461bcd60e51b815260040161024190614d7e565b50909695505050505050565b804710156140bc576040805162461bcd60e51b815260206004820152601d60248201527f416464726573733a20696e73756666696369656e742062616c616e6365000000604482015290519081900360640190fd5b6040516000906001600160a01b0384169083908381818185875af1925050503d8060008114614107576040519150601f19603f3d011682016040523d82523d6000602084013e61410c565b606091505b50509050806134c75760405162461bcd60e51b815260040180806020018281038252603a815260200180615420603a913960400191505060405180910390fd5b606061415b8484600085614163565b949350505050565b6060824710156141a45760405162461bcd60e51b815260040180806020018281038252602681526020018061545a6026913960400191505060405180910390fd5b6141ad856142be565b6141fe576040805162461bcd60e51b815260206004820152601d60248201527f416464726573733a2063616c6c20746f206e6f6e2d636f6e7472616374000000604482015290519081900360640190fd5b600080866001600160a01b031685876040518082805190602001908083835b6020831061423c5780518252601f19909201916020918201910161421d565b6001836020036101000a03801982511681845116808217855250505050505090500191505060006040518083038185875af1925050503d806000811461429e576040519150601f19603f3d011682016040523d82523d6000602084013e6142a3565b606091505b50915091506142b38282866142c4565b979650505050505050565b3b151590565b606083156142d3575081613641565b8251156142e35782518084602001fd5b8160405162461bcd60e51b81526004018080602001828103825283818151815260200191508051906020019080838360005b8381101561432d578181015183820152602001614315565b50505050905090810190601f16801561435a5780820380516001836020036101000a031916815260200191505b509250505060405180910390fd5b508054600082559060005260206000209081019061438691906143ee565b50565b8280548282559060005260206000209081019282156143de579160200282015b828111156143de57825182546001600160a01b0319166001600160a01b039091161782556020909201916001909101906143a9565b506143ea9291506143ee565b5090565b5b808211156143ea57600081556001016143ef565b600082601f830112614413578081fd5b8135602061442861442383615398565b615374565b8281528181019085830183850287018401881015614444578586fd5b855b8581101561446b578135614459816153b6565b84529284019290840190600101614446565b5090979650505050505050565b600082601f830112614488578081fd5b8135602061449861442383615398565b82815281810190858301838502870184018810156144b4578586fd5b855b8581101561446b578135845292840192908401906001016144b6565b8035612899816153cb565b8051612899816153cb565b6000602082840312156144f9578081fd5b8135613641816153b6565b600060208284031215614515578081fd5b8151613641816153b6565b60008060408385031215614532578081fd5b823561453d816153b6565b946020939093013593505050565b60008060006060848603121561455f578081fd5b833561456a816153b6565b9250602084013591506040840135614581816153b6565b809150509250925092565b600080600080600080600060e0888a0312156145a6578283fd5b87356145b1816153b6565b96506020880135955060408801356145c8816153b6565b94506060880135935060808801356145df816153cb565b925060a0880135915060c08801356145f6816153cb565b8091505092959891949750929550565b60008060408385031215614618578182fd5b823567ffffffffffffffff81111561462e578283fd5b61463a85828601614403565b95602094909401359450505050565b60008060008060008060008060008060006101608c8e03121561466a578384fd5b8b3567ffffffffffffffff811115614680578485fd5b61468c8e828f01614403565b9b505060208c0135995060408c01356146a4816153b6565b985060608c0135975060808c0135965060a08c01356146c2816153b6565b95506146d060c08d016144d2565b945060e08c013593506146e66101008d016144d2565b92506101208c013591506146fd6101408d016144d2565b90509295989b509295989b9093969950565b600080600080600080600080610100898b03121561472b578182fd5b883567ffffffffffffffff811115614741578283fd5b61474d8b828c01614403565b9850506020890135965060408901359550606089013594506080890135614773816153cb565b935060a0890135925060c089013561478a816153cb565b915060e089013561479a816153cb565b809150509295985092959890939650565b6000806000606084860312156147bf578081fd5b833567ffffffffffffffff808211156147d6578283fd5b6147e287838801614478565b945060208601359150808211156147f7578283fd5b61480387838801614478565b93506040860135915080821115614818578283fd5b5061482586828701614478565b9150509250925092565b600080600080600060a08688031215614846578283fd5b8535614851816153cb565b9450602086013593506040860135614868816153b6565b92506060860135614878816153cb565b91506080860135614888816153cb565b809150509295509295909350565b60006101208083850312156148a9578182fd5b6148b281615374565b90506148bd836144dd565b8152602083015160208201526040830151604082015260608301516060820152608083015160808201526148f360a084016144dd565b60a082015261490460c084016144dd565b60c082015260e08381015190820152610100928301519281019290925250919050565b600060208284031215614938578081fd5b5035919050565b600060208284031215614950578081fd5b5051919050565b6000806000806080858703121561496c578182fd5b843593506020850135925060408501359150606085013561498c816153cb565b939692955090935050565b600080600080600060a086880312156149ae578283fd5b853594506020860135935060408601359250606086013591506080860135614888816153cb565b6001600160a01b0316815260200190565b6000815180845260208085019450808401835b83811015614a1e5781516001600160a01b0316875295820195908201906001016149f9565b509495945050505050565b15159052565b6001600160a01b0391909116815260200190565b6001600160a01b0392831681529116602082015260400190565b6001600160a01b039485168152928416602084015292166040820152606081019190915260800190565b6001600160a01b0393841681529183166020830152909116604082015260600190565b6001600160a01b03958616815293851660208501529190931660408301526060820192909252901515608082015260a00190565b6001600160a01b0397881681529587166020870152938616604086015260608501929092526080840152151560a083015290911660c082015260e00190565b6001600160a01b03998a16815297891660208901529590971660408701526060860193909352608085019190915260a0840152151560c083015291151560e08201526101008101919091526101200190565b6001600160a01b039a8b168152988a1660208a01526040890197909752948816606088015292909616608086015260a085015293151560c084015260e08301939093529115156101008201526101208101919091526101400190565b6001600160a01b03998a168152978916602089015260408801969096529390961660608601526080850191909152151560a084015260c083019390935291151560e08201526101008101919091526101200190565b6001600160a01b039290921682521515602082015260400190565b6001600160a01b03929092168252602082015260400190565b6001600160a01b03998a168152602081019890985295881660408801529390961660608601526080850191909152151560a084015260c083019390935291151560e08201526101008101919091526101200190565b6001600160a01b039889168152602081019790975294909616604086015260608501929092521515608084015260a083015291151560c082015260e08101919091526101000190565b6001600160a01b0397909716875260208701959095526040860193909352606085019190915215156080840152151560a083015260c082015260e00190565b901515815260200190565b60208082526022908201527f4f72646572426f6f6b3a20696e73756666696369656e7420636f6c6c61746572604082015261185b60f21b606082015260800190565b60208082526021908201527f4f72646572426f6f6b3a20696e73756666696369656e7420616d6f756e744f756040820152601d60fa1b606082015260800190565b60208082526025908201527f4f72646572426f6f6b3a206f6e6c79207765746820636f756c64206265207772604082015264185c1c195960da1b606082015260800190565b60208082526025908201527f4f72646572426f6f6b3a20696e73756666696369656e7420657865637574696f6040820152646e2066656560d81b606082015260800190565b60208082526018908201527f4f72646572426f6f6b3a20696e76616c6964205f706174680000000000000000604082015260600190565b60208082526026908201527f4f72646572426f6f6b3a20696e636f72726563742076616c7565207472616e7360408201526519995c9c995960d21b606082015260800190565b6020808252601f908201527f4f72646572426f6f6b3a20696e76616c6964205f706174682e6c656e67746800604082015260600190565b60208082526026908201527f4f72646572426f6f6b3a20696e76616c696420707269636520666f722065786560408201526531baba34b7b760d11b606082015260800190565b6020808252601d908201527f4f72646572426f6f6b3a206e6f6e2d6578697374656e74206f72646572000000604082015260600190565b6020808252601c908201527f4f72646572426f6f6b3a20696e76616c6964205f616d6f756e74496e00000000604082015260600190565b60208082526019908201527f4f72646572426f6f6b3a20696e76616c69642073656e64657200000000000000604082015260600190565b6020808252602e908201527f4f72646572426f6f6b3a20696e636f727265637420657865637574696f6e206660408201526d1959481d1c985b9cd9995c9c995960921b606082015260800190565b90815260200190565b9687526001600160a01b0395861660208801529390941660408601529015156060850152608084015260a0830191909152151560c082015260e00190565b998a526001600160a01b0398891660208b015260408a0197909752948716606089015292909516608087015260a086015292151560c085015260e08401929092529015156101008301526101208201526101400190565b9a8b526001600160a01b03998a1660208c015260408b019890985295881660608a015293909616608088015260a0870191909152151560c086015260e08501939093529115156101008401526101208301919091526101408201526101600190565b9788526001600160a01b0396871660208901526040880195909552929094166060860152608085015291151560a084015260c0830191909152151560e08201526101000190565b9889526001600160a01b0397881660208a015260408901969096529390951660608701526080860191909152151560a085015260c084019290925290151560e08301526101008201526101200190565b998a526001600160a01b0398891660208b015260408a01979097529490961660608801526080870192909252151560a086015260c085015291151560e08401526101008301919091526101208201526101400190565b60006101008a835280602084015261523d8184018b6149e6565b604084019990995250506060810195909552608085019390935290151560a0840152151560c083015260e09091015292915050565b60006101208b835280602084015261528c8184018c6149e6565b604084019a909a5250506060810196909652608086019490945260a0850192909252151560c0840152151560e08301526101009091015292915050565b8881526101006020808301829052895491830182905260008a8152908120909161012084019190835b8181101561531e5782546153109085906001600160a01b03166149d5565b9350600192830192016152f2565b5050508091505087604083015286606083015285608083015261534460a0830186614a29565b61535160c0830185614a29565b8260e08301529998505050505050505050565b9182521515602082015260400190565b60405181810167ffffffffffffffff8111828210171561539057fe5b604052919050565b600067ffffffffffffffff8211156153ac57fe5b5060209081020190565b6001600160a01b038116811461438657600080fd5b801515811461438657600080fdfe5265656e7472616e637947756172643a207265656e7472616e742063616c6c004f776e61626c653a206e6577206f776e657220697320746865207a65726f2061646472657373416464726573733a20756e61626c6520746f2073656e642076616c75652c20726563697069656e74206d61792068617665207265766572746564416464726573733a20696e73756666696369656e742062616c616e636520666f722063616c6c536166654d6174683a206d756c7469706c69636174696f6e206f766572666c6f774f776e61626c653a2063616c6c6572206973206e6f7420746865206f776e65725361666545524332303a204552433230206f7065726174696f6e20646964206e6f742073756363656564a2646970667358221220b58323611d14b2ad0f1b69fe6085ea6e8c301deeaf139450ee9b05d6a4a87b7664736f6c63430007060033",
  "linkReferences": {},
  "deployedLinkReferences": {}
}