{
  "_format": "hh-sol-artifact-1",
  "contractName": "PhamousFeeDistribution",
  "sourceName": "contracts/protocol/staking/PhamousFeeDistribution.sol",
  "abi": [
    {
      "inputs": [
        {
          "internalType": "contract IAddressesProvider",
          "name": "addressesProvider_",
          "type": "address"
        },
        {
          "internalType": "address",
          "name": "weth_",
          "type": "address"
        },
        {
          "internalType": "address",
          "name": "stakingToken_",
          "type": "address"
        },
        {
          "internalType": "address",
          "name": "treasury_",
          "type": "address"
        }
      ],
      "stateMutability": "nonpayable",
      "type": "constructor"
    },
    {
      "anonymous": false,
      "inputs": [
        {
          "indexed": true,
          "internalType": "address",
          "name": "previousOwner",
          "type": "address"
        },
        {
          "indexed": true,
          "internalType": "address",
          "name": "newOwner",
          "type": "address"
        }
      ],
      "name": "OwnershipTransferred",
      "type": "event"
    },
    {
      "anonymous": false,
      "inputs": [
        {
          "indexed": false,
          "internalType": "address",
          "name": "token",
          "type": "address"
        },
        {
          "indexed": false,
          "internalType": "address",
          "name": "account",
          "type": "address"
        },
        {
          "indexed": false,
          "internalType": "uint256",
          "name": "amount",
          "type": "uint256"
        }
      ],
      "name": "Recovered",
      "type": "event"
    },
    {
      "anonymous": false,
      "inputs": [
        {
          "indexed": true,
          "internalType": "address",
          "name": "user",
          "type": "address"
        },
        {
          "indexed": true,
          "internalType": "address",
          "name": "rewardToken",
          "type": "address"
        },
        {
          "indexed": false,
          "internalType": "uint256",
          "name": "reward",
          "type": "uint256"
        }
      ],
      "name": "RewardPaid",
      "type": "event"
    },
    {
      "anonymous": false,
      "inputs": [
        {
          "indexed": true,
          "internalType": "address",
          "name": "user",
          "type": "address"
        },
        {
          "indexed": false,
          "internalType": "uint256",
          "name": "amount",
          "type": "uint256"
        }
      ],
      "name": "Staked",
      "type": "event"
    },
    {
      "anonymous": false,
      "inputs": [
        {
          "indexed": true,
          "internalType": "address",
          "name": "previousTreasury",
          "type": "address"
        },
        {
          "indexed": true,
          "internalType": "address",
          "name": "newTreasury",
          "type": "address"
        }
      ],
      "name": "TreasuryTransferred",
      "type": "event"
    },
    {
      "anonymous": false,
      "inputs": [
        {
          "indexed": true,
          "internalType": "address",
          "name": "user",
          "type": "address"
        }
      ],
      "name": "UnstakeCancelled",
      "type": "event"
    },
    {
      "anonymous": false,
      "inputs": [
        {
          "indexed": true,
          "internalType": "address",
          "name": "user",
          "type": "address"
        },
        {
          "indexed": false,
          "internalType": "uint256",
          "name": "amount",
          "type": "uint256"
        }
      ],
      "name": "Unstaked",
      "type": "event"
    },
    {
      "anonymous": false,
      "inputs": [
        {
          "indexed": true,
          "internalType": "address",
          "name": "user",
          "type": "address"
        },
        {
          "indexed": false,
          "internalType": "uint256",
          "name": "receivedAmount",
          "type": "uint256"
        }
      ],
      "name": "Withdrawn",
      "type": "event"
    },
    {
      "inputs": [],
      "name": "REWARD_DURATION",
      "outputs": [
        {
          "internalType": "uint256",
          "name": "",
          "type": "uint256"
        }
      ],
      "stateMutability": "view",
      "type": "function"
    },
    {
      "inputs": [],
      "name": "REWARD_RATE_PRECISION_ASSIST",
      "outputs": [
        {
          "internalType": "uint256",
          "name": "",
          "type": "uint256"
        }
      ],
      "stateMutability": "view",
      "type": "function"
    },
    {
      "inputs": [],
      "name": "UNSTAKE_DURATION",
      "outputs": [
        {
          "internalType": "uint256",
          "name": "",
          "type": "uint256"
        }
      ],
      "stateMutability": "view",
      "type": "function"
    },
    {
      "inputs": [],
      "name": "WITHDRAW_DURATION",
      "outputs": [
        {
          "internalType": "uint256",
          "name": "",
          "type": "uint256"
        }
      ],
      "stateMutability": "view",
      "type": "function"
    },
    {
      "inputs": [
        {
          "internalType": "address",
          "name": "tokenAddress",
          "type": "address"
        }
      ],
      "name": "addReward",
      "outputs": [],
      "stateMutability": "nonpayable",
      "type": "function"
    },
    {
      "inputs": [],
      "name": "addressesProvider",
      "outputs": [
        {
          "internalType": "contract IAddressesProvider",
          "name": "",
          "type": "address"
        }
      ],
      "stateMutability": "view",
      "type": "function"
    },
    {
      "inputs": [],
      "name": "cancelUnstake",
      "outputs": [],
      "stateMutability": "nonpayable",
      "type": "function"
    },
    {
      "inputs": [
        {
          "internalType": "address",
          "name": "account",
          "type": "address"
        }
      ],
      "name": "claimableRewards",
      "outputs": [
        {
          "components": [
            {
              "internalType": "address",
              "name": "token",
              "type": "address"
            },
            {
              "internalType": "uint256",
              "name": "amount",
              "type": "uint256"
            }
          ],
          "internalType": "struct IPhamousFeeDistribution.RewardAmount[]",
          "name": "rewards",
          "type": "tuple[]"
        }
      ],
      "stateMutability": "view",
      "type": "function"
    },
    {
      "inputs": [],
      "name": "collectReward",
      "outputs": [],
      "stateMutability": "nonpayable",
      "type": "function"
    },
    {
      "inputs": [],
      "name": "getReward",
      "outputs": [],
      "stateMutability": "nonpayable",
      "type": "function"
    },
    {
      "inputs": [
        {
          "internalType": "address",
          "name": "tokenAddress",
          "type": "address"
        }
      ],
      "name": "getRewardForDuration",
      "outputs": [
        {
          "internalType": "uint256",
          "name": "",
          "type": "uint256"
        }
      ],
      "stateMutability": "view",
      "type": "function"
    },
    {
      "inputs": [
        {
          "internalType": "address",
          "name": "tokenAddress",
          "type": "address"
        }
      ],
      "name": "lastTimeRewardApplicable",
      "outputs": [
        {
          "internalType": "uint256",
          "name": "",
          "type": "uint256"
        }
      ],
      "stateMutability": "view",
      "type": "function"
    },
    {
      "inputs": [],
      "name": "owner",
      "outputs": [
        {
          "internalType": "address",
          "name": "",
          "type": "address"
        }
      ],
      "stateMutability": "view",
      "type": "function"
    },
    {
      "inputs": [
        {
          "internalType": "address",
          "name": "tokenAddress",
          "type": "address"
        }
      ],
      "name": "recoverERC20",
      "outputs": [],
      "stateMutability": "nonpayable",
      "type": "function"
    },
    {
      "inputs": [],
      "name": "renounceOwnership",
      "outputs": [],
      "stateMutability": "nonpayable",
      "type": "function"
    },
    {
      "inputs": [
        {
          "internalType": "address",
          "name": "tokenAddress",
          "type": "address"
        }
      ],
      "name": "rewardPerToken",
      "outputs": [
        {
          "internalType": "uint256",
          "name": "",
          "type": "uint256"
        }
      ],
      "stateMutability": "view",
      "type": "function"
    },
    {
      "inputs": [
        {
          "internalType": "uint256",
          "name": "amount",
          "type": "uint256"
        }
      ],
      "name": "stake",
      "outputs": [],
      "stateMutability": "nonpayable",
      "type": "function"
    },
    {
      "inputs": [
        {
          "internalType": "address",
          "name": "user",
          "type": "address"
        }
      ],
      "name": "stakedBalance",
      "outputs": [
        {
          "internalType": "uint256",
          "name": "amount",
          "type": "uint256"
        }
      ],
      "stateMutability": "view",
      "type": "function"
    },
    {
      "inputs": [],
      "name": "stakingToken",
      "outputs": [
        {
          "internalType": "contract IERC20Capped",
          "name": "",
          "type": "address"
        }
      ],
      "stateMutability": "view",
      "type": "function"
    },
    {
      "inputs": [],
      "name": "stakingTokenPrecision",
      "outputs": [
        {
          "internalType": "uint256",
          "name": "",
          "type": "uint256"
        }
      ],
      "stateMutability": "view",
      "type": "function"
    },
    {
      "inputs": [
        {
          "internalType": "address",
          "name": "",
          "type": "address"
        }
      ],
      "name": "tokenRewards",
      "outputs": [
        {
          "internalType": "uint256",
          "name": "periodFinish",
          "type": "uint256"
        },
        {
          "internalType": "uint256",
          "name": "rewardRate",
          "type": "uint256"
        },
        {
          "internalType": "uint256",
          "name": "lastUpdateTime",
          "type": "uint256"
        },
        {
          "internalType": "uint256",
          "name": "rewardStored",
          "type": "uint256"
        },
        {
          "internalType": "uint256",
          "name": "balance",
          "type": "uint256"
        }
      ],
      "stateMutability": "view",
      "type": "function"
    },
    {
      "inputs": [
        {
          "internalType": "uint256",
          "name": "",
          "type": "uint256"
        }
      ],
      "name": "tokens",
      "outputs": [
        {
          "internalType": "address",
          "name": "",
          "type": "address"
        }
      ],
      "stateMutability": "view",
      "type": "function"
    },
    {
      "inputs": [],
      "name": "totalStakedSupply",
      "outputs": [
        {
          "internalType": "uint256",
          "name": "",
          "type": "uint256"
        }
      ],
      "stateMutability": "view",
      "type": "function"
    },
    {
      "inputs": [],
      "name": "totalSupply",
      "outputs": [
        {
          "internalType": "uint256",
          "name": "",
          "type": "uint256"
        }
      ],
      "stateMutability": "view",
      "type": "function"
    },
    {
      "inputs": [
        {
          "internalType": "address",
          "name": "newOwner",
          "type": "address"
        }
      ],
      "name": "transferOwnership",
      "outputs": [],
      "stateMutability": "nonpayable",
      "type": "function"
    },
    {
      "inputs": [
        {
          "internalType": "address",
          "name": "newTreasury",
          "type": "address"
        }
      ],
      "name": "transferTreasury",
      "outputs": [],
      "stateMutability": "nonpayable",
      "type": "function"
    },
    {
      "inputs": [],
      "name": "treasury",
      "outputs": [
        {
          "internalType": "address",
          "name": "",
          "type": "address"
        }
      ],
      "stateMutability": "view",
      "type": "function"
    },
    {
      "inputs": [
        {
          "internalType": "uint256",
          "name": "amount",
          "type": "uint256"
        }
      ],
      "name": "unstake",
      "outputs": [],
      "stateMutability": "nonpayable",
      "type": "function"
    },
    {
      "inputs": [
        {
          "internalType": "address",
          "name": "user",
          "type": "address"
        }
      ],
      "name": "unstakedBalance",
      "outputs": [
        {
          "components": [
            {
              "internalType": "uint256",
              "name": "amount",
              "type": "uint256"
            },
            {
              "internalType": "uint256",
              "name": "time",
              "type": "uint256"
            }
          ],
          "internalType": "struct IPhamousFeeDistribution.TimedBalance",
          "name": "balance",
          "type": "tuple"
        }
      ],
      "stateMutability": "view",
      "type": "function"
    },
    {
      "inputs": [],
      "name": "weth",
      "outputs": [
        {
          "internalType": "address",
          "name": "",
          "type": "address"
        }
      ],
      "stateMutability": "view",
      "type": "function"
    },
    {
      "inputs": [],
      "name": "withdraw",
      "outputs": [],
      "stateMutability": "nonpayable",
      "type": "function"
    },
    {
      "inputs": [
        {
          "internalType": "address",
          "name": "user",
          "type": "address"
        }
      ],
      "name": "withdrawableBalance",
      "outputs": [
        {
          "components": [
            {
              "internalType": "uint256",
              "name": "amount",
              "type": "uint256"
            },
            {
              "internalType": "uint256",
              "name": "time",
              "type": "uint256"
            }
          ],
          "internalType": "struct IPhamousFeeDistribution.TimedBalance",
          "name": "balance",
          "type": "tuple"
        }
      ],
      "stateMutability": "view",
      "type": "function"
    },
    {
      "stateMutability": "payable",
      "type": "receive"
    }
  ],
  "bytecode": "0x60e06040523480156200001157600080fd5b50604051620032153803806200321583398101604081905262000034916200021f565b806000620000416200021b565b600080546001600160a01b0319166001600160a01b0383169081178255604051929350917f8be0079c531659141344cd1fd0a4f28419497f9722a3daafe3b4186f6b6457e0908290a350600180546001600160a01b0319166001600160a01b0383169081179091556040516000907febebcc22237fa047dcfebf54b185ec126c9b24d45f4bd2a18e4fa02e07308c40908290a350600280546001600160a01b038087166001600160a01b0319928316179092556003805486841692169190911790556001600160601b0319606084901b166080526040805163313ce56760e01b815290519184169163313ce56791600480820192602092909190829003018186803b1580156200015057600080fd5b505afa15801562000165573d6000803e3d6000fd5b505050506040513d601f19601f820116820180604052508101906200018b91906200029f565b60ff16600a0a60a08181525050816001600160a01b031663355274ea6040518163ffffffff1660e01b815260040160206040518083038186803b158015620001d257600080fd5b505afa158015620001e7573d6000803e3d6000fd5b505050506040513d601f19601f820116820180604052508101906200020d919062000286565b60c05250620002e292505050565b3390565b6000806000806080858703121562000235578384fd5b84516200024281620002c9565b60208601519094506200025581620002c9565b60408601519093506200026881620002c9565b60608601519092506200027b81620002c9565b939692955090935050565b60006020828403121562000298578081fd5b5051919050565b600060208284031215620002b1578081fd5b815160ff81168114620002c2578182fd5b9392505050565b6001600160a01b0381168114620002df57600080fd5b50565b60805160601c60a05160c051612edb6200033a6000398061064c528061169b528061183b52806119df52806123795250806110315250806109e152806111135280611213528061136052806114755250612edb6000f3fe6080604052600436106101e75760003560e01c8063715018a611610102578063bcd1101411610095578063d8a6021c11610064578063d8a6021c14610527578063dc01f60d14610547578063f122977714610574578063f2fde38b1461059457610231565b8063bcd11014146104c8578063bcdc3cfc146104e8578063bf357b6c146104fd578063c72c4d101461051257610231565b80638eb0d354116100d15780638eb0d354146104485780639c9b2e21146104685780639e8c708e14610488578063a694fc3a146104a857610231565b8063715018a61461040957806372f702f31461041e578063779133221461038a5780638da5cb5b1461043357610231565b80634ab179691161017a5780636021726711610149578063602172671461039f57806361d027b3146103bf578063638634ee146103d45780636746c7b1146103f457610231565b80634ab17969146103405780634f64b2be1461035557806354c5aee1146103755780635ade228a1461038a57610231565b806330bd3eeb116101b657806330bd3eeb146102c35780633ccfd60b146102f45780633d18b912146103095780633fc8cef31461031e57610231565b806302b629381461023657806318160ddd1461026c57806328a9e1ff1461028e5780632e17de78146102a357610231565b36610231576003546001600160a01b03166102006105b4565b6001600160a01b03161461022f5760405162461bcd60e51b81526004016102269061299b565b60405180910390fd5b005b600080fd5b34801561024257600080fd5b5061025661025136600461279b565b6105b8565b6040516102639190612d2c565b60405180910390f35b34801561027857600080fd5b5061028161064a565b6040516102639190612d43565b34801561029a57600080fd5b5061028161066e565b3480156102af57600080fd5b5061022f6102be3660046127d3565b610675565b3480156102cf57600080fd5b506102e36102de36600461279b565b6107f5565b604051610263959493929190612d4c565b34801561030057600080fd5b5061022f610824565b34801561031557600080fd5b5061022f610a57565b34801561032a57600080fd5b50610333610a73565b6040516102639190612803565b34801561034c57600080fd5b5061022f610a82565b34801561036157600080fd5b506103336103703660046127d3565b610b63565b34801561038157600080fd5b5061022f610b8d565b34801561039657600080fd5b50610281610fcf565b3480156103ab57600080fd5b506102816103ba36600461279b565b610fd6565b3480156103cb57600080fd5b50610333610ff1565b3480156103e057600080fd5b506102816103ef36600461279b565b611000565b34801561040057600080fd5b5061028161102f565b34801561041557600080fd5b5061022f611053565b34801561042a57600080fd5b50610333611111565b34801561043f57600080fd5b50610333611135565b34801561045457600080fd5b5061025661046336600461279b565b611144565b34801561047457600080fd5b5061022f61048336600461279b565b61119d565b34801561049457600080fd5b5061022f6104a336600461279b565b611300565b3480156104b457600080fd5b5061022f6104c33660046127d3565b6113f5565b3480156104d457600080fd5b506102816104e336600461279b565b611543565b3480156104f457600080fd5b50610281611586565b34801561050957600080fd5b5061028161158c565b34801561051e57600080fd5b50610333611598565b34801561053357600080fd5b5061022f61054236600461279b565b6115a7565b34801561055357600080fd5b5061056761056236600461279b565b61166a565b6040516102639190612831565b34801561058057600080fd5b5061028161058f36600461279b565b611834565b3480156105a057600080fd5b5061022f6105af36600461279b565b611863565b3390565b6105c061276a565b506001600160a01b0381166000908152600a6020908152604091829020825180840190935280548084526001909101549183019190915261060057610645565b8060200151421061063a57602081015161061d9062093a80611977565b60208201819052421061063557600080825260208201525b610645565b600080825260208201525b919050565b7f000000000000000000000000000000000000000000000000000000000000000081565b6212750081565b600081116106955760405162461bcd60e51b815260040161022690612a7b565b6000600a60006106a36105b4565b6001600160a01b0316815260208082019290925260409081016000208151808301909252805480835260019091015492820192909252915015806106f8575060208101516106f49062093a80611977565b4210155b6107145760405162461bcd60e51b815260040161022690612cbc565b600960006107206105b4565b6001600160a01b03166001600160a01b03168152602001908152602001600020548211156107605760405162461bcd60e51b8152600401610226906128f0565b8181526107704262127500611977565b602082015280600a60006107826105b4565b6001600160a01b03168152602080820192909252604001600020825181559101516001909101556107b16105b4565b6001600160a01b03167f0f5bb82176feb1b5e747e28471aa92156a04d9f3ab9f45f28e2d704232b93f75836040516107e99190612d43565b60405180910390a25050565b600660205260009081526040902080546001820154600283015460038401546004909401549293919290919085565b6000600a60006108326105b4565b6001600160a01b031681526020808201929092526040908101600020815180830190925280548083526001909101549282019290925291501580159061087c575080602001514210155b8015610898575060208101516108959062093a80611977565b42105b6108b45760405162461bcd60e51b815260040161022690612bc4565b6108c66108bf6105b4565b60016119d1565b600a60006108d26105b4565b6001600160a01b03168152602081019190915260400160009081208181556001018190558151906009906109046105b4565b6001600160a01b03166001600160a01b0316815260200190815260200160002054141561096057600960006109376105b4565b6001600160a01b03166001600160a01b03168152602001908152602001600020600090556109b9565b805161099290600960006109726105b4565b6001600160a01b0316815260208101919091526040016000205490611b84565b6009600061099e6105b4565b6001600160a01b031681526020810191909152604001600020555b80516004546109c791611b84565b600455610a086109d56105b4565b82516001600160a01b037f0000000000000000000000000000000000000000000000000000000000000000169190611be1565b610a106105b4565b6001600160a01b03167f7084f5476618d8e60b11ef0d7d3f06914655adb8793e28ff7f018d4c76d505d58260000151604051610a4c9190612d43565b60405180910390a250565b610a69610a626105b4565b60006119d1565b610a71611c38565b565b6003546001600160a01b031681565b6000600a6000610a906105b4565b6001600160a01b0316815260208082019290925260409081016000208151808301909252805480835260019091015492820192909252915015801590610ad95750806020015142105b610af55760405162461bcd60e51b81526004016102269061294d565b600a6000610b016105b4565b6001600160a01b031681526020810191909152604001600090812081815560010155610b2b6105b4565b6001600160a01b03167f22cc830dad867e19cb47be932a438444a58da9fdc49c3f00d13fb9f0432b4e1660405160405180910390a250565b60058181548110610b7357600080fd5b6000918252602090912001546001600160a01b0316905081565b610b956105b4565b6001600160a01b0316610ba6610ff1565b6001600160a01b031614610beb5760405162461bcd60e51b815260040180806020018281038252602b815260200180612dd0602b913960400191505060405180910390fd5b600254604080516311b2515f60e31b815290516000926001600160a01b031691638d928af8916004808301926020929190829003018186803b158015610c3057600080fd5b505afa158015610c44573d6000803e3d6000fd5b505050506040513d601f19601f82011682018060405250810190610c6891906127b7565b90506000600260009054906101000a90046001600160a01b03166001600160a01b0316636a22dede6040518163ffffffff1660e01b815260040160206040518083038186803b158015610cba57600080fd5b505afa158015610cce573d6000803e3d6000fd5b505050506040513d601f19601f82011682018060405250810190610cf291906127b7565b90506000600260009054906101000a90046001600160a01b03166001600160a01b0316634bd9a9aa6040518163ffffffff1660e01b815260040160206040518083038186803b158015610d4457600080fd5b505afa158015610d58573d6000803e3d6000fd5b505050506040513d601f19601f82011682018060405250810190610d7c91906127b7565b905060005b836001600160a01b0316630842b0766040518163ffffffff1660e01b815260040160206040518083038186803b158015610dba57600080fd5b505afa158015610dce573d6000803e3d6000fd5b505050506040513d601f19601f82011682018060405250810190610df291906127eb565b811015610fc957604051630e468baf60e41b81526000906001600160a01b0386169063e468baf090610e28908590600401612d43565b60206040518083038186803b158015610e4057600080fd5b505afa158015610e54573d6000803e3d6000fd5b505050506040513d601f19601f82011682018060405250810190610e7891906127b7565b604051631e4aaa4f60e31b81529091506001600160a01b0386169063f255527890610ea99084903090600401612817565b602060405180830381600087803b158015610ec357600080fd5b505af1158015610ed7573d6000803e3d6000fd5b505050506040513d601f19601f82011682018060405250810190610efb91906127eb565b50604051631e4aaa4f60e31b81526001600160a01b0385169063f255527890610f2a9084903090600401612817565b600060405180830381600087803b158015610f4457600080fd5b505af1158015610f58573d6000803e3d6000fd5b5050604051631e4aaa4f60e31b81526001600160a01b038616925063f25552789150610f8a9084903090600401612817565b600060405180830381600087803b158015610fa457600080fd5b505af1158015610fb8573d6000803e3d6000fd5b505060019093019250610d81915050565b50505050565b62093a8081565b6001600160a01b031660009081526009602052604090205490565b6001546001600160a01b031690565b6001600160a01b0381166000908152600660205260408120544281116110265780611028565b425b9392505050565b7f000000000000000000000000000000000000000000000000000000000000000081565b61105b6105b4565b6001600160a01b031661106c611135565b6001600160a01b0316146110c7576040805162461bcd60e51b815260206004820181905260248201527f4f776e61626c653a2063616c6c6572206973206e6f7420746865206f776e6572604482015290519081900360640190fd5b600080546040516001600160a01b03909116907f8be0079c531659141344cd1fd0a4f28419497f9722a3daafe3b4186f6b6457e0908390a3600080546001600160a01b0319169055565b7f000000000000000000000000000000000000000000000000000000000000000081565b6000546001600160a01b031690565b61114c61276a565b506001600160a01b0381166000908152600a6020908152604091829020825180840190935280548084526001909101549183019190915261118c57610645565b806020015142101561063a57610645565b6111a56105b4565b6001600160a01b03166111b6611135565b6001600160a01b031614611211576040805162461bcd60e51b815260206004820181905260248201527f4f776e61626c653a2063616c6c6572206973206e6f7420746865206f776e6572604482015290519081900360640190fd5b7f00000000000000000000000000000000000000000000000000000000000000006001600160a01b0316816001600160a01b031614156112635760405162461bcd60e51b815260040161022690612889565b6001600160a01b0381166000908152600660205260409020600201541561129c5760405162461bcd60e51b815260040161022690612c11565b60058054600181019091557f036b6384b5eca791c62761152d0c79bb0604c104a5fb6f4eb0703f3154bb3db00180546001600160a01b039092166001600160a01b031990921682179055600090815260066020526040902042600282018190559055565b6113086105b4565b6001600160a01b0316611319610ff1565b6001600160a01b03161461135e5760405162461bcd60e51b815260040180806020018281038252602b815260200180612dd0602b913960400191505060405180910390fd5b7f00000000000000000000000000000000000000000000000000000000000000006001600160a01b0316816001600160a01b031614156113b05760405162461bcd60e51b8152600401610226906129e1565b6001600160a01b038116600090815260066020526040902060020154156113e95760405162461bcd60e51b815260040161022690612b71565b6113f281611fd0565b50565b600081116114155760405162461bcd60e51b815260040161022690612a35565b61141d610ff1565b6001600160a01b031661142e6105b4565b6001600160a01b031614156114555760405162461bcd60e51b815260040161022690612c6e565b6114606108bf6105b4565b61149d61146b6105b4565b6001600160a01b037f0000000000000000000000000000000000000000000000000000000000000000169030846120fb565b6114cd81600960006114ad6105b4565b6001600160a01b0316815260208101919091526040016000205490611977565b600960006114d96105b4565b6001600160a01b031681526020810191909152604001600020556004546115009082611977565b60045561150b6105b4565b6001600160a01b03167f9e71bc8eea02a63969f509818f2dafb9254532904319f9dbda79b67bd34a5f3d82604051610a4c9190612d43565b6001600160a01b03811660009081526006602052604081206001015461158090670de0b6b3a76400009061157a9062093a80612155565b906121ae565b92915050565b60045481565b670de0b6b3a764000081565b6002546001600160a01b031681565b6115af6105b4565b6001600160a01b03166115c0610ff1565b6001600160a01b0316146116055760405162461bcd60e51b815260040180806020018281038252602b815260200180612dd0602b913960400191505060405180910390fd5b6001600160a01b03811661162b5760405162461bcd60e51b815260040161022690612ac3565b6001600160a01b038116600090815260096020526040902054156116615760405162461bcd60e51b815260040161022690612b14565b6113f281612215565b60606000611676610ff1565b6001600160a01b0316836001600160a01b031614156116c7576004543093506116c0907f000000000000000000000000000000000000000000000000000000000000000090611b84565b90506116e2565b506001600160a01b0382166000908152600960205260409020545b6005548067ffffffffffffffff811180156116fc57600080fd5b5060405190808252806020026020018201604052801561173657816020015b611723612784565b81526020019060019003908161171b5790505b50925060005b8181101561182c576005818154811061175157fe5b9060005260206000200160009054906101000a90046001600160a01b031684828151811061177b57fe5b6020026020010151600001906001600160a01b031690816001600160a01b03168152505061180a670de0b6b3a764000061157a87600585815481106117bc57fe5b9060005260206000200160009054906101000a90046001600160a01b031687611805600588815481106117eb57fe5b6000918252602090912001546001600160a01b0316612271565b612331565b84828151811061181657fe5b602090810291909101810151015260010161173c565b505050919050565b60006115807f000000000000000000000000000000000000000000000000000000000000000061157a84612271565b61186b6105b4565b6001600160a01b031661187c611135565b6001600160a01b0316146118d7576040805162461bcd60e51b815260206004820181905260248201527f4f776e61626c653a2063616c6c6572206973206e6f7420746865206f776e6572604482015290519081900360640190fd5b6001600160a01b03811661191c5760405162461bcd60e51b8152600401808060200182810382526026815260200180612daa6026913960400191505060405180910390fd5b600080546040516001600160a01b03808516939216917f8be0079c531659141344cd1fd0a4f28419497f9722a3daafe3b4186f6b6457e091a3600080546001600160a01b0319166001600160a01b0392909216919091179055565b600082820183811015611028576040805162461bcd60e51b815260206004820152601b60248201527f536166654d6174683a206164646974696f6e206f766572666c6f770000000000604482015290519081900360640190fd5b6004543090600090611a04907f000000000000000000000000000000000000000000000000000000000000000090611b84565b9050611a0e610ff1565b6001600160a01b0316846001600160a01b03161415611a2f57819350600092505b6000826001600160a01b0316856001600160a01b031614611a68576001600160a01b038516600090815260096020526040902054611a6a565b815b60055490915060005b81811015611b7b57600060058281548110611a8a57fe5b60009182526020808320909101546001600160a01b031680835260069091526040822090925090611aba83612271565b600383018190559050611acc83611000565b6002830155611add8a848884612331565b6001600160a01b03808c1660008181526008602090815260408083209489168084529482528083209590955591815260078252838120928152919052208190558815611b7057611b2f88848984612331565b6001600160a01b03808a1660008181526008602090815260408083209489168084529482528083209590955591815260078252838120928152919052208190555b505050600101611a73565b50505050505050565b600082821115611bdb576040805162461bcd60e51b815260206004820152601e60248201527f536166654d6174683a207375627472616374696f6e206f766572666c6f770000604482015290519081900360640190fd5b50900390565b604080516001600160a01b038416602482015260448082018490528251808303909101815260649091019091526020810180516001600160e01b031663a9059cbb60e01b179052611c339084906123b8565b505050565b6000611c42610ff1565b6001600160a01b0316611c536105b4565b6001600160a01b031614611c6e57611c696105b4565b611c70565b305b60055490915060005b81811015611c3357600060058281548110611c9057fe5b60009182526020808320909101546001600160a01b038781168452600883526040808520919092168085529252822054909250611cd590670de0b6b3a76400006121ae565b6001600160a01b03831660008181526006602052604080822060048082015492516370a0823160e01b815295965090949193916370a0823191611d1a91309101612803565b60206040518083038186803b158015611d3257600080fd5b505afa158015611d46573d6000803e3d6000fd5b505050506040513d601f19601f82011682018060405250810190611d6a91906127eb565b905080821115611d78578091505b611d85426207e900611977565b835411611e41576000611d988284611b84565b90508015611e3f5783544210611dcb57611dc162093a8061157a83670de0b6b3a7640000612155565b6001850155611e22565b8354600090611dda9042611b84565b90506000611df586600101548361215590919063ffffffff16565b9050611e1a62093a8061157a83611e1487670de0b6b3a7640000612155565b90611977565b600187015550505b4260028501819055611e379062093a80611977565b845590915081905b505b83821015611e7e578193508360001415611e7e576001600160a01b0380891660009081526008602090815260408083209389168352929052908120555b611e888285611b84565b600484015583611e9c575050505050611fc8565b6001600160a01b03808916600090815260086020908152604080832089851680855292528220919091556003549091161415611f5457600354604051632e1a7d4d60e01b81526001600160a01b0390911690632e1a7d4d90611f02908790600401612d43565b600060405180830381600087803b158015611f1c57600080fd5b505af1158015611f30573d6000803e3d6000fd5b50505050611f4f84611f406105b4565b6001600160a01b031690612469565b611f70565b611f70611f5f6105b4565b6001600160a01b0387169086611be1565b846001600160a01b0316611f826105b4565b6001600160a01b03167f540798df468d7b23d11f156fdb954cb19ad414d150722a7b6d55ba369dea792e86604051611fba9190612d43565b60405180910390a350505050505b600101611c79565b604080516370a0823160e01b8152306004820152905182916000916001600160a01b038416916370a08231916024808301926020929190829003018186803b15801561201b57600080fd5b505afa15801561202f573d6000803e3d6000fd5b505050506040513d602081101561204557600080fd5b50519050806120855760405162461bcd60e51b8152600401808060200182810382526025815260200180612d856025913960400191505060405180910390fd5b6120a16120906105b4565b6001600160a01b0384169083611be1565b7ffff3b3844276f57024e0b42afec1a37f75db36511e43819a4f2a63ab7862b648836120cb6105b4565b604080516001600160a01b03938416815291909216602082015280820184905290519081900360600190a1505050565b604080516001600160a01b0380861660248301528416604482015260648082018490528251808303909101815260849091019091526020810180516001600160e01b03166323b872dd60e01b179052610fc99085906123b8565b60008261216457506000611580565b8282028284828161217157fe5b04146110285760405162461bcd60e51b8152600401808060200182810382526021815260200180612e5b6021913960400191505060405180910390fd5b6000808211612204576040805162461bcd60e51b815260206004820152601a60248201527f536166654d6174683a206469766973696f6e206279207a65726f000000000000604482015290519081900360640190fd5b81838161220d57fe5b049392505050565b6001546040516001600160a01b038084169216907febebcc22237fa047dcfebf54b185ec126c9b24d45f4bd2a18e4fa02e07308c4090600090a3600180546001600160a01b0319166001600160a01b0392909216919091179055565b60008061227d83611000565b6001600160a01b0384166000908152600660205260409020600201549091508114156122c65750506001600160a01b038116600090815260066020526040902060030154610645565b6001600160a01b038316600090815260066020526040812060018101546002909101546122ff91906122f9908590611b84565b90612155565b6001600160a01b0385166000908152600660205260409020600301549091506123289082611977565b92505050610645565b6001600160a01b0380851660008181526008602090815260408083209488168084529482528083205493835260078252808320948352939052918220546123af9190611e14907f00000000000000000000000000000000000000000000000000000000000000009061157a906123a8908890611b84565b8890612155565b95945050505050565b600061240d826040518060400160405280602081526020017f5361666545524332303a206c6f772d6c6576656c2063616c6c206661696c6564815250856001600160a01b031661254e9092919063ffffffff16565b805190915015611c335780806020019051602081101561242c57600080fd5b5051611c335760405162461bcd60e51b815260040180806020018281038252602a815260200180612e7c602a913960400191505060405180910390fd5b804710156124be576040805162461bcd60e51b815260206004820152601d60248201527f416464726573733a20696e73756666696369656e742062616c616e6365000000604482015290519081900360640190fd5b6040516000906001600160a01b0384169083908381818185875af1925050503d8060008114612509576040519150601f19603f3d011682016040523d82523d6000602084013e61250e565b606091505b5050905080611c335760405162461bcd60e51b815260040180806020018281038252603a815260200180612dfb603a913960400191505060405180910390fd5b606061255d8484600085612565565b949350505050565b6060824710156125a65760405162461bcd60e51b8152600401808060200182810382526026815260200180612e356026913960400191505060405180910390fd5b6125af856126c0565b612600576040805162461bcd60e51b815260206004820152601d60248201527f416464726573733a2063616c6c20746f206e6f6e2d636f6e7472616374000000604482015290519081900360640190fd5b600080866001600160a01b031685876040518082805190602001908083835b6020831061263e5780518252601f19909201916020918201910161261f565b6001836020036101000a03801982511681845116808217855250505050505090500191505060006040518083038185875af1925050503d80600081146126a0576040519150601f19603f3d011682016040523d82523d6000602084013e6126a5565b606091505b50915091506126b58282866126c6565b979650505050505050565b3b151590565b606083156126d5575081611028565b8251156126e55782518084602001fd5b8160405162461bcd60e51b81526004018080602001828103825283818151815260200191508051906020019080838360005b8381101561272f578181015183820152602001612717565b50505050905090810190601f16801561275c5780820380516001836020036101000a031916815260200191505b509250505060405180910390fd5b604051806040016040528060008152602001600081525090565b604080518082019091526000808252602082015290565b6000602082840312156127ac578081fd5b813561102881612d6f565b6000602082840312156127c8578081fd5b815161102881612d6f565b6000602082840312156127e4578081fd5b5035919050565b6000602082840312156127fc578081fd5b5051919050565b6001600160a01b0391909116815260200190565b6001600160a01b0392831681529116602082015260400190565b602080825282518282018190526000919060409081850190868401855b8281101561287c57815180516001600160a01b0316855286015186850152928401929085019060010161284e565b5091979650505050505050565b60208082526041908201527f5068616d6f7573466565446973747269627574696f6e3a2043616e206e6f742060408201527f616464207374616b696e6720746f6b656e2061732072657761726420746f6b656060820152603760f91b608082015260a00190565b6020808252603e908201527f5068616d6f7573466565446973747269627574696f6e3a2043616e6e6f74207560408201527f6e7374616b65206d6f7265207468616e207374616b656420616d6f756e740000606082015260800190565b6020808252602e908201527f5068616d6f7573466565446973747269627574696f6e3a204e6f20756e73746160408201526d1ada5b99c81d1bc818d85b98d95b60921b606082015260800190565b60208082526026908201527f5068616d6f7573466565446973747269627574696f6e3a20696e76616c69642060408201526539b2b73232b960d11b606082015260800190565b60208082526034908201527f5068616d6f7573466565446973747269627574696f6e3a2043616e6e6f74207260408201527332b1b7bb32b91039ba30b5b4b733903a37b5b2b760611b606082015260800190565b60208082526026908201527f5068616d6f7573466565446973747269627574696f6e3a2043616e6e6f742073604082015265074616b6520360d41b606082015260800190565b60208082526028908201527f5068616d6f7573466565446973747269627574696f6e3a2043616e6e6f74207560408201526706e7374616b6520360c41b606082015260800190565b60208082526031908201527f54726561737572794f776e61626c653a206e657720747265617375727920697360408201527020746865207a65726f206164647265737360781b606082015260800190565b6020808252603f908201527f5068616d6f7573466565446973747269627574696f6e3a206e6577207472656160408201527f737572792063616e206e6f742068617665207374616b656420746f6b656e7300606082015260800190565b60208082526033908201527f5068616d6f7573466565446973747269627574696f6e3a2043616e6e6f74207260408201527232b1b7bb32b9103932bbb0b932103a37b5b2b760691b606082015260800190565b6020808252602d908201527f5068616d6f7573466565446973747269627574696f6e3a204e6f20776974686460408201526c3930bbb0b13632903a37b5b2b760991b606082015260800190565b60208082526039908201527f5068616d6f7573466565446973747269627574696f6e3a2043616e206e6f742060408201527f616464206578697374696e672072657761726420746f6b656e00000000000000606082015260800190565b6020808252602e908201527f5068616d6f7573466565446973747269627574696f6e3a20747265617375727960408201526d2063616e206e6f74207374616b6560901b606082015260800190565b6020808252604a908201527f5068616d6f7573466565446973747269627574696f6e3a2043616e6e6f74207060408201527f6572666f726d206d756c7469706c6520756e7374616b696e67206174207468656060820152692073616d652074696d6560b01b608082015260a00190565b815181526020918201519181019190915260400190565b90815260200190565b948552602085019390935260408401919091526060830152608082015260a00190565b6001600160a01b03811681146113f257600080fdfe45524332305265636f76657261626c653a206e6f20746f6b656e20746f207265636f7665724f776e61626c653a206e6577206f776e657220697320746865207a65726f206164647265737354726561737572794f776e61626c653a2063616c6c6572206973206e6f7420746865207472656173757279416464726573733a20756e61626c6520746f2073656e642076616c75652c20726563697069656e74206d61792068617665207265766572746564416464726573733a20696e73756666696369656e742062616c616e636520666f722063616c6c536166654d6174683a206d756c7469706c69636174696f6e206f766572666c6f775361666545524332303a204552433230206f7065726174696f6e20646964206e6f742073756363656564a264697066735822122031b2cb58b067d6ebd5d6ce4957d87219e35c8e175d1e04f56b91c426850fbd9d64736f6c63430007060033",
  "linkReferences": {},
  "deployedLinkReferences": {}
}