{
  "_format": "hh-sol-artifact-1",
  "contractName": "PhamousUiDataProvider",
  "sourceName": "contracts/reader/PhamousUiDataProvider.sol",
  "abi": [
    {
      "inputs": [],
      "name": "BASIS_POINTS_DIVISOR",
      "outputs": [
        {
          "internalType": "uint256",
          "name": "",
          "type": "uint256"
        }
      ],
      "stateMutability": "view",
      "type": "function"
    },
    {
      "inputs": [],
      "name": "POSITION_PROPS_LENGTH",
      "outputs": [
        {
          "internalType": "uint256",
          "name": "",
          "type": "uint256"
        }
      ],
      "stateMutability": "view",
      "type": "function"
    },
    {
      "inputs": [],
      "name": "PRICE_PRECISION",
      "outputs": [
        {
          "internalType": "uint256",
          "name": "",
          "type": "uint256"
        }
      ],
      "stateMutability": "view",
      "type": "function"
    },
    {
      "inputs": [],
      "name": "USDPH_DECIMALS",
      "outputs": [
        {
          "internalType": "uint256",
          "name": "",
          "type": "uint256"
        }
      ],
      "stateMutability": "view",
      "type": "function"
    },
    {
      "inputs": [
        {
          "internalType": "contract IVault",
          "name": "vault",
          "type": "address"
        },
        {
          "internalType": "address",
          "name": "tokenIn",
          "type": "address"
        },
        {
          "internalType": "address",
          "name": "tokenOut",
          "type": "address"
        },
        {
          "internalType": "uint256",
          "name": "amountIn",
          "type": "uint256"
        }
      ],
      "name": "getAmountOut",
      "outputs": [
        {
          "internalType": "uint256",
          "name": "",
          "type": "uint256"
        },
        {
          "internalType": "uint256",
          "name": "",
          "type": "uint256"
        }
      ],
      "stateMutability": "view",
      "type": "function"
    },
    {
      "inputs": [
        {
          "internalType": "contract IVault",
          "name": "vault",
          "type": "address"
        },
        {
          "internalType": "address",
          "name": "tokenIn",
          "type": "address"
        },
        {
          "internalType": "address",
          "name": "tokenOut",
          "type": "address"
        },
        {
          "internalType": "uint256",
          "name": "amountIn",
          "type": "uint256"
        }
      ],
      "name": "getFeeBps",
      "outputs": [
        {
          "internalType": "uint256",
          "name": "",
          "type": "uint256"
        },
        {
          "internalType": "uint256",
          "name": "",
          "type": "uint256"
        },
        {
          "internalType": "uint256",
          "name": "",
          "type": "uint256"
        }
      ],
      "stateMutability": "view",
      "type": "function"
    },
    {
      "inputs": [
        {
          "internalType": "contract IVault",
          "name": "vault",
          "type": "address"
        },
        {
          "internalType": "address[]",
          "name": "tokens",
          "type": "address[]"
        }
      ],
      "name": "getFees",
      "outputs": [
        {
          "internalType": "uint256[]",
          "name": "",
          "type": "uint256[]"
        }
      ],
      "stateMutability": "view",
      "type": "function"
    },
    {
      "inputs": [
        {
          "internalType": "contract IVault",
          "name": "vault",
          "type": "address"
        },
        {
          "internalType": "address",
          "name": "weth",
          "type": "address"
        },
        {
          "internalType": "uint256",
          "name": "usdphAmount",
          "type": "uint256"
        },
        {
          "internalType": "address[]",
          "name": "tokens",
          "type": "address[]"
        }
      ],
      "name": "getFullVaultTokenInfo",
      "outputs": [
        {
          "internalType": "uint256[]",
          "name": "",
          "type": "uint256[]"
        }
      ],
      "stateMutability": "view",
      "type": "function"
    },
    {
      "inputs": [
        {
          "internalType": "contract IVault",
          "name": "vault",
          "type": "address"
        },
        {
          "internalType": "address",
          "name": "weth",
          "type": "address"
        },
        {
          "internalType": "address[]",
          "name": "tokens",
          "type": "address[]"
        }
      ],
      "name": "getFundingRates",
      "outputs": [
        {
          "internalType": "uint256[]",
          "name": "",
          "type": "uint256[]"
        }
      ],
      "stateMutability": "view",
      "type": "function"
    },
    {
      "inputs": [
        {
          "internalType": "contract IVault",
          "name": "vault",
          "type": "address"
        },
        {
          "internalType": "address",
          "name": "tokenIn",
          "type": "address"
        },
        {
          "internalType": "address",
          "name": "tokenOut",
          "type": "address"
        }
      ],
      "name": "getMaxAmountIn",
      "outputs": [
        {
          "internalType": "uint256",
          "name": "",
          "type": "uint256"
        }
      ],
      "stateMutability": "view",
      "type": "function"
    },
    {
      "inputs": [
        {
          "internalType": "contract IVault",
          "name": "vault",
          "type": "address"
        },
        {
          "internalType": "address",
          "name": "account",
          "type": "address"
        },
        {
          "internalType": "address[]",
          "name": "collateralTokens",
          "type": "address[]"
        },
        {
          "internalType": "address[]",
          "name": "indexTokens",
          "type": "address[]"
        },
        {
          "internalType": "bool[]",
          "name": "isLong",
          "type": "bool[]"
        }
      ],
      "name": "getPositions",
      "outputs": [
        {
          "internalType": "uint256[]",
          "name": "",
          "type": "uint256[]"
        }
      ],
      "stateMutability": "view",
      "type": "function"
    },
    {
      "inputs": [
        {
          "internalType": "contract IPhamousPriceOracle",
          "name": "oracle",
          "type": "address"
        },
        {
          "internalType": "address[]",
          "name": "tokens",
          "type": "address[]"
        }
      ],
      "name": "getPrices",
      "outputs": [
        {
          "internalType": "uint256[]",
          "name": "",
          "type": "uint256[]"
        }
      ],
      "stateMutability": "view",
      "type": "function"
    },
    {
      "inputs": [
        {
          "internalType": "address",
          "name": "account",
          "type": "address"
        },
        {
          "internalType": "address[]",
          "name": "tokens",
          "type": "address[]"
        }
      ],
      "name": "getTokenBalances",
      "outputs": [
        {
          "internalType": "uint256[]",
          "name": "",
          "type": "uint256[]"
        }
      ],
      "stateMutability": "view",
      "type": "function"
    },
    {
      "inputs": [
        {
          "internalType": "address",
          "name": "account",
          "type": "address"
        },
        {
          "internalType": "address[]",
          "name": "tokens",
          "type": "address[]"
        }
      ],
      "name": "getTokenBalancesWithSupplies",
      "outputs": [
        {
          "internalType": "uint256[]",
          "name": "",
          "type": "uint256[]"
        }
      ],
      "stateMutability": "view",
      "type": "function"
    },
    {
      "inputs": [
        {
          "internalType": "contract IERC20",
          "name": "token",
          "type": "address"
        },
        {
          "internalType": "address[]",
          "name": "excludedAccounts",
          "type": "address[]"
        }
      ],
      "name": "getTokenSupply",
      "outputs": [
        {
          "internalType": "uint256",
          "name": "",
          "type": "uint256"
        }
      ],
      "stateMutability": "view",
      "type": "function"
    },
    {
      "inputs": [
        {
          "internalType": "contract IERC20",
          "name": "token",
          "type": "address"
        },
        {
          "internalType": "address[]",
          "name": "accounts",
          "type": "address[]"
        }
      ],
      "name": "getTotalBalance",
      "outputs": [
        {
          "internalType": "uint256",
          "name": "",
          "type": "uint256"
        }
      ],
      "stateMutability": "view",
      "type": "function"
    },
    {
      "inputs": [
        {
          "internalType": "contract IVault",
          "name": "vault",
          "type": "address"
        },
        {
          "internalType": "address",
          "name": "weth",
          "type": "address"
        },
        {
          "internalType": "address[]",
          "name": "_tokens",
          "type": "address[]"
        }
      ],
      "name": "getVaultPositionStats",
      "outputs": [
        {
          "internalType": "uint256[]",
          "name": "",
          "type": "uint256[]"
        }
      ],
      "stateMutability": "view",
      "type": "function"
    },
    {
      "inputs": [
        {
          "internalType": "contract IVault",
          "name": "vault",
          "type": "address"
        },
        {
          "internalType": "address",
          "name": "weth",
          "type": "address"
        },
        {
          "internalType": "uint256",
          "name": "usdphAmount",
          "type": "uint256"
        },
        {
          "internalType": "address[]",
          "name": "tokens",
          "type": "address[]"
        }
      ],
      "name": "getVaultTokenInfo",
      "outputs": [
        {
          "internalType": "uint256[]",
          "name": "",
          "type": "uint256[]"
        }
      ],
      "stateMutability": "view",
      "type": "function"
    },
    {
      "inputs": [
        {
          "internalType": "contract IVault",
          "name": "vault",
          "type": "address"
        },
        {
          "internalType": "address",
          "name": "weth",
          "type": "address"
        },
        {
          "internalType": "uint256",
          "name": "usdphAmount",
          "type": "uint256"
        },
        {
          "internalType": "address[]",
          "name": "tokens",
          "type": "address[]"
        }
      ],
      "name": "getVaultTokenInfoV2",
      "outputs": [
        {
          "internalType": "uint256[]",
          "name": "",
          "type": "uint256[]"
        }
      ],
      "stateMutability": "view",
      "type": "function"
    },
    {
      "inputs": [
        {
          "internalType": "contract IVault",
          "name": "vault",
          "type": "address"
        },
        {
          "internalType": "contract IBasePositionManager",
          "name": "positionManager",
          "type": "address"
        },
        {
          "internalType": "address",
          "name": "weth",
          "type": "address"
        },
        {
          "internalType": "uint256",
          "name": "usdphAmount",
          "type": "uint256"
        },
        {
          "internalType": "address[]",
          "name": "_tokens",
          "type": "address[]"
        }
      ],
      "name": "getVaultTokenInfoV4",
      "outputs": [
        {
          "internalType": "uint256[]",
          "name": "",
          "type": "uint256[]"
        }
      ],
      "stateMutability": "view",
      "type": "function"
    }
  ],
  "bytecode": "0x608060405234801561001057600080fd5b5061583180620000216000396000f3fe608060405234801561001057600080fd5b506004361061012c5760003560e01c806395082d25116100ad578063d802178e11610071578063d802178e146108ec578063dc383cab1461099d578063e7bfe1d114610b5b578063f3535e6c14610c15578063fbdb05ca14610c4d5761012c565b806395082d251461070457806395a7535a1461070c578063ad7e5497146107c6578063d3f3265c146107ce578063d7176ca9146108975761012c565b80633613d527116100f45780633613d527146103c657806338a432c9146104775780637b906e93146104d157806386d4d0f5146105925780638e83ca32146106435761012c565b806303563e6714610131578063126082cf1461014b57806320542568146101535780632ac0184c146102645780632e3e334214610315575b600080fd5b610139610cfe565b60408051918252519081900360200190f35b610139610d03565b6102146004803603608081101561016957600080fd5b6001600160a01b03823581169260208101359091169160408201359190810190608081016060820135600160201b8111156101a357600080fd5b8201836020820111156101b557600080fd5b803590602001918460208302840111600160201b831117156101d657600080fd5b919080806020026020016040519081016040528093929190818152602001838360200280828437600092019190915250929550610d09945050505050565b60408051602080825283518183015283519192839290830191858101910280838360005b83811015610250578181015183820152602001610238565b505050509050019250505060405180910390f35b6101396004803603604081101561027a57600080fd5b6001600160a01b038235169190810190604081016020820135600160201b8111156102a457600080fd5b8201836020820111156102b657600080fd5b803590602001918460208302840111600160201b831117156102d757600080fd5b919080806020026020016040519081016040528093929190818152602001838360200280828437600092019190915250929550611412945050505050565b6102146004803603604081101561032b57600080fd5b6001600160a01b038235169190810190604081016020820135600160201b81111561035557600080fd5b82018360208201111561036757600080fd5b803590602001918460208302840111600160201b8311171561038857600080fd5b91908080602002602001604051908101604052809392919081815260200183836020028082843760009201919091525092955061153d945050505050565b610214600480360360408110156103dc57600080fd5b6001600160a01b038235169190810190604081016020820135600160201b81111561040657600080fd5b82018360208201111561041857600080fd5b803590602001918460208302840111600160201b8311171561043957600080fd5b919080806020026020016040519081016040528093929190818152602001838360200280828437600092019190915250929550611743945050505050565b6104b36004803603608081101561048d57600080fd5b506001600160a01b03813581169160208101358216916040820135169060600135611aa1565b60408051938452602084019290925282820152519081900360600190f35b610214600480360360808110156104e757600080fd5b6001600160a01b03823581169260208101359091169160408201359190810190608081016060820135600160201b81111561052157600080fd5b82018360208201111561053357600080fd5b803590602001918460208302840111600160201b8311171561055457600080fd5b919080806020026020016040519081016040528093929190818152602001838360200280828437600092019190915250929550612007945050505050565b610214600480360360408110156105a857600080fd5b6001600160a01b038235169190810190604081016020820135600160201b8111156105d257600080fd5b8201836020820111156105e457600080fd5b803590602001918460208302840111600160201b8311171561060557600080fd5b919080806020026020016040519081016040528093929190818152602001838360200280828437600092019190915250929550612834945050505050565b6102146004803603608081101561065957600080fd5b6001600160a01b03823581169260208101359091169160408201359190810190608081016060820135600160201b81111561069357600080fd5b8201836020820111156106a557600080fd5b803590602001918460208302840111600160201b831117156106c657600080fd5b919080806020026020016040519081016040528093929190818152602001838360200280828437600092019190915250929550612936945050505050565b610139613295565b6102146004803603606081101561072257600080fd5b6001600160a01b038235811692602081013590911691810190606081016040820135600160201b81111561075557600080fd5b82018360208201111561076757600080fd5b803590602001918460208302840111600160201b8311171561078857600080fd5b9190808060200260200160405190810160405280939291908181526020018383602002808284376000920191909152509295506132a6945050505050565b610139613772565b610214600480360360a08110156107e457600080fd5b6001600160a01b03823581169260208101358216926040820135909216916060820135919081019060a081016080820135600160201b81111561082657600080fd5b82018360208201111561083857600080fd5b803590602001918460208302840111600160201b8311171561085957600080fd5b919080806020026020016040519081016040528093929190818152602001838360200280828437600092019190915250929550613777945050505050565b6108d3600480360360808110156108ad57600080fd5b506001600160a01b03813581169160208101358216916040820135169060600135614179565b6040805192835260208301919091528051918290030190f35b6102146004803603604081101561090257600080fd5b6001600160a01b038235169190810190604081016020820135600160201b81111561092c57600080fd5b82018360208201111561093e57600080fd5b803590602001918460208302840111600160201b8311171561095f57600080fd5b919080806020026020016040519081016040528093929190818152602001838360200280828437600092019190915250929550614830945050505050565b610214600480360360a08110156109b357600080fd5b6001600160a01b038235811692602081013590911691810190606081016040820135600160201b8111156109e657600080fd5b8201836020820111156109f857600080fd5b803590602001918460208302840111600160201b83111715610a1957600080fd5b9190808060200260200160405190810160405280939291908181526020018383602002808284376000920191909152509295949360208101935035915050600160201b811115610a6857600080fd5b820183602082011115610a7a57600080fd5b803590602001918460208302840111600160201b83111715610a9b57600080fd5b9190808060200260200160405190810160405280939291908181526020018383602002808284376000920191909152509295949360208101935035915050600160201b811115610aea57600080fd5b820183602082011115610afc57600080fd5b803590602001918460208302840111600160201b83111715610b1d57600080fd5b91908080602002602001604051908101604052809392919081815260200183836020028082843760009201919091525092955061497e945050505050565b61021460048036036060811015610b7157600080fd5b6001600160a01b038235811692602081013590911691810190606081016040820135600160201b811115610ba457600080fd5b820183602082011115610bb657600080fd5b803590602001918460208302840111600160201b83111715610bd757600080fd5b919080806020026020016040519081016040528093929190818152602001838360200280828437600092019190915250929550614d7c945050505050565b61013960048036036060811015610c2b57600080fd5b506001600160a01b038135811691602081013582169160409091013516614fe2565b61013960048036036040811015610c6357600080fd5b6001600160a01b038235169190810190604081016020820135600160201b811115610c8d57600080fd5b820183602082011115610c9f57600080fd5b803590602001918460208302840111600160201b83111715610cc057600080fd5b9190808060200260200160405190810160405280939291908181526020018383602002808284376000920191909152509295506155aa945050505050565b601281565b61271081565b60606000600a90506000866001600160a01b0316632630c12f6040518163ffffffff1660e01b815260040160206040518083038186803b158015610d4c57600080fd5b505afa158015610d60573d6000803e3d6000fd5b505050506040513d6020811015610d7657600080fd5b50518451909150600090830267ffffffffffffffff81118015610d9857600080fd5b50604051908082528060200260200182016040528015610dc2578160200160208202803683370190505b50905060005b8551811015611406576000868281518110610ddf57fe5b6020026020010151905060006001600160a01b0316816001600160a01b03161415610e075750875b896001600160a01b03166352f55eed826040518263ffffffff1660e01b815260040180826001600160a01b0316815260200191505060206040518083038186803b158015610e5457600080fd5b505afa158015610e68573d6000803e3d6000fd5b505050506040513d6020811015610e7e57600080fd5b505183518490848802908110610e9057fe5b602002602001018181525050896001600160a01b031663c3c7b9e9826040518263ffffffff1660e01b815260040180826001600160a01b0316815260200191505060206040518083038186803b158015610ee957600080fd5b505afa158015610efd573d6000803e3d6000fd5b505050506040513d6020811015610f1357600080fd5b505183518490600185890201908110610f2857fe5b602002602001018181525050896001600160a01b03166342e85182826040518263ffffffff1660e01b815260040180826001600160a01b0316815260200191505060206040518083038186803b158015610f8157600080fd5b505afa158015610f95573d6000803e3d6000fd5b505050506040513d6020811015610fab57600080fd5b505183518490600285890201908110610fc057fe5b602002602001018181525050896001600160a01b0316632c668ec1828a6040518363ffffffff1660e01b815260040180836001600160a01b031681526020018281526020019250505060206040518083038186803b15801561102157600080fd5b505afa158015611035573d6000803e3d6000fd5b505050506040513d602081101561104b57600080fd5b50518351849060038589020190811061106057fe5b602002602001018181525050896001600160a01b031663ab2f3ad4826040518263ffffffff1660e01b815260040180826001600160a01b0316815260200191505060206040518083038186803b1580156110b957600080fd5b505afa1580156110cd573d6000803e3d6000fd5b505050506040513d60208110156110e357600080fd5b5051835184906004858902019081106110f857fe5b602002602001018181525050896001600160a01b03166381a612d6826040518263ffffffff1660e01b815260040180826001600160a01b0316815260200191505060206040518083038186803b15801561115157600080fd5b505afa158015611165573d6000803e3d6000fd5b505050506040513d602081101561117b57600080fd5b50518351849060058589020190811061119057fe5b602002602001018181525050896001600160a01b031663e124e6d2826040518263ffffffff1660e01b815260040180826001600160a01b0316815260200191505060206040518083038186803b1580156111e957600080fd5b505afa1580156111fd573d6000803e3d6000fd5b505050506040513d602081101561121357600080fd5b50518351849060068589020190811061122857fe5b602002602001018181525050896001600160a01b031663f07456ce826040518263ffffffff1660e01b815260040180826001600160a01b0316815260200191505060206040518083038186803b15801561128157600080fd5b505afa158015611295573d6000803e3d6000fd5b505050506040513d60208110156112ab57600080fd5b5051835184906007858902019081106112c057fe5b602090810291909101810191909152604080516303b6b4bb60e51b81526001600160a01b038481166004830152600060248301529151918716926376d6976092604480840193829003018186803b15801561131a57600080fd5b505afa15801561132e573d6000803e3d6000fd5b505050506040513d602081101561134457600080fd5b50518351849060088589020190811061135957fe5b602090810291909101810191909152604080516303b6b4bb60e51b81526001600160a01b038481166004830152600160248301529151918716926376d6976092604480840193829003018186803b1580156113b357600080fd5b505afa1580156113c7573d6000803e3d6000fd5b505050506040513d60208110156113dd57600080fd5b5051835184906009858902019081106113f257fe5b602090810291909101015250600101610dc8565b50979650505050505050565b600080836001600160a01b03166318160ddd6040518163ffffffff1660e01b815260040160206040518083038186803b15801561144e57600080fd5b505afa158015611462573d6000803e3d6000fd5b505050506040513d602081101561147857600080fd5b5051905060005b835181101561153357600084828151811061149657fe5b602002602001015190506000866001600160a01b03166370a08231836040518263ffffffff1660e01b815260040180826001600160a01b0316815260200191505060206040518083038186803b1580156114ef57600080fd5b505afa158015611503573d6000803e3d6000fd5b505050506040513d602081101561151957600080fd5b505190506115278482615663565b9350505060010161147f565b5090505b92915050565b606060006002905060008184510267ffffffffffffffff8111801561156157600080fd5b5060405190808252806020026020018201604052801561158b578160200160208202803683370190505b50905060005b845181101561173a5760008582815181106115a857fe5b6020026020010151905060006001600160a01b0316816001600160a01b0316141561161757866001600160a01b03163183858402815181106115e657fe5b6020026020010181815250506000838584026001018151811061160557fe5b60200260200101818152505050611732565b806001600160a01b03166370a08231886040518263ffffffff1660e01b815260040180826001600160a01b0316815260200191505060206040518083038186803b15801561166457600080fd5b505afa158015611678573d6000803e3d6000fd5b505050506040513d602081101561168e57600080fd5b5051835184908487029081106116a057fe5b602002602001018181525050806001600160a01b03166318160ddd6040518163ffffffff1660e01b815260040160206040518083038186803b1580156116e557600080fd5b505afa1580156116f9573d6000803e3d6000fd5b505050506040513d602081101561170f57600080fd5b50518351849060018588020190811061172457fe5b602002602001018181525050505b600101611591565b50949350505050565b606060006006905060008184510267ffffffffffffffff8111801561176757600080fd5b50604051908082528060200260200182016040528015611791578160200160208202803683370190505b50905060005b845181101561173a5760008582815181106117ae57fe5b60200260200101519050866001600160a01b03166376d697608260016040518363ffffffff1660e01b815260040180836001600160a01b0316815260200182151581526020019250505060206040518083038186803b15801561181057600080fd5b505afa158015611824573d6000803e3d6000fd5b505050506040513d602081101561183a57600080fd5b50518351849084870290811061184c57fe5b602090810291909101810191909152604080516303b6b4bb60e51b81526001600160a01b038481166004830152600060248301529151918a16926376d6976092604480840193829003018186803b1580156118a657600080fd5b505afa1580156118ba573d6000803e3d6000fd5b505050506040513d60208110156118d057600080fd5b5051835184906001858802019081106118e557fe5b60200260200101818152505082848302815181106118ff57fe5b6020026020010151838584026002018151811061191857fe5b602002602001018181525050828483026001018151811061193557fe5b6020026020010151838584026003018151811061194e57fe5b602002602001018181525050866001600160a01b0316636ce8a44b826040518263ffffffff1660e01b815260040180826001600160a01b0316815260200191505060206040518083038186803b1580156119a757600080fd5b505afa1580156119bb573d6000803e3d6000fd5b505050506040513d60208110156119d157600080fd5b50516119de5760006119e1565b60015b60ff1683858402600401815181106119f557fe5b602002602001018181525050866001600160a01b03166375ebabaa826040518263ffffffff1660e01b815260040180826001600160a01b0316815260200191505060206040518083038186803b158015611a4e57600080fd5b505afa158015611a62573d6000803e3d6000fd5b505050506040513d6020811015611a7857600080fd5b505183518490600585880201908110611a8d57fe5b602090810291909101015250600101611797565b600080600080876001600160a01b03166381a612d6886040518263ffffffff1660e01b815260040180826001600160a01b0316815260200191505060206040518083038186803b158015611af457600080fd5b505afa158015611b08573d6000803e3d6000fd5b505050506040513d6020811015611b1e57600080fd5b5051604080516323b95ceb60e21b81526001600160a01b038a811660048301529151929350600092918b1691638ee573ac91602480820192602092909190829003018186803b158015611b7057600080fd5b505afa158015611b84573d6000803e3d6000fd5b505050506040513d6020811015611b9a57600080fd5b505190506000611bc16c0c9f2c9cd04674edea40000000611bbb89866156c0565b90615719565b9050611bdd600a83900a611bbb83670de0b6b3a76400006156c0565b905060008a6001600160a01b03166342b60b038b6040518263ffffffff1660e01b815260040180826001600160a01b0316815260200191505060206040518083038186803b158015611c2e57600080fd5b505afa158015611c42573d6000803e3d6000fd5b505050506040513d6020811015611c5857600080fd5b50518015611cdb57508a6001600160a01b03166342b60b038a6040518263ffffffff1660e01b815260040180826001600160a01b0316815260200191505060206040518083038186803b158015611cae57600080fd5b505afa158015611cc2573d6000803e3d6000fd5b505050506040513d6020811015611cd857600080fd5b50515b9050600081611d4e578b6001600160a01b0316632ffdaf896040518163ffffffff1660e01b815260040160206040518083038186803b158015611d1d57600080fd5b505afa158015611d31573d6000803e3d6000fd5b505050506040513d6020811015611d4757600080fd5b5051611db4565b8b6001600160a01b0316631bcffcf86040518163ffffffff1660e01b815260040160206040518083038186803b158015611d8757600080fd5b505afa158015611d9b573d6000803e3d6000fd5b505050506040513d6020811015611db157600080fd5b50515b9050600082611e27578c6001600160a01b0316633eacd2f86040518163ffffffff1660e01b815260040160206040518083038186803b158015611df657600080fd5b505afa158015611e0a573d6000803e3d6000fd5b505050506040513d6020811015611e2057600080fd5b5051611e8d565b8c6001600160a01b031663c25317d46040518163ffffffff1660e01b815260040160206040518083038186803b158015611e6057600080fd5b505afa158015611e74573d6000803e3d6000fd5b505050506040513d6020811015611e8a57600080fd5b50515b905060008d6001600160a01b031663843d43998e87868660016040518663ffffffff1660e01b815260040180866001600160a01b0316815260200185815260200184815260200183815260200182151581526020019550505050505060206040518083038186803b158015611f0157600080fd5b505afa158015611f15573d6000803e3d6000fd5b505050506040513d6020811015611f2b57600080fd5b8101908080519060200190929190505050905060008e6001600160a01b031663843d43998e88878760006040518663ffffffff1660e01b815260040180866001600160a01b0316815260200185815260200184815260200183815260200182151581526020019550505050505060206040518083038186803b158015611fb057600080fd5b505afa158015611fc4573d6000803e3d6000fd5b505050506040513d6020811015611fda57600080fd5b505190506000818311611fed5781611fef565b825b9b509199509750505050505050509450945094915050565b60606000600c90506000866001600160a01b0316632630c12f6040518163ffffffff1660e01b815260040160206040518083038186803b15801561204a57600080fd5b505afa15801561205e573d6000803e3d6000fd5b505050506040513d602081101561207457600080fd5b50518451909150600090830267ffffffffffffffff8111801561209657600080fd5b506040519080825280602002602001820160405280156120c0578160200160208202803683370190505b50905060005b85518110156114065760008682815181106120dd57fe5b6020026020010151905060006001600160a01b0316816001600160a01b031614156121055750875b896001600160a01b03166352f55eed826040518263ffffffff1660e01b815260040180826001600160a01b0316815260200191505060206040518083038186803b15801561215257600080fd5b505afa158015612166573d6000803e3d6000fd5b505050506040513d602081101561217c57600080fd5b50518351849084880290811061218e57fe5b602002602001018181525050896001600160a01b031663c3c7b9e9826040518263ffffffff1660e01b815260040180826001600160a01b0316815260200191505060206040518083038186803b1580156121e757600080fd5b505afa1580156121fb573d6000803e3d6000fd5b505050506040513d602081101561221157600080fd5b50518351849060018589020190811061222657fe5b602002602001018181525050896001600160a01b03166342e85182826040518263ffffffff1660e01b815260040180826001600160a01b0316815260200191505060206040518083038186803b15801561227f57600080fd5b505afa158015612293573d6000803e3d6000fd5b505050506040513d60208110156122a957600080fd5b5051835184906002858902019081106122be57fe5b602002602001018181525050896001600160a01b0316632c668ec1828a6040518363ffffffff1660e01b815260040180836001600160a01b031681526020018281526020019250505060206040518083038186803b15801561231f57600080fd5b505afa158015612333573d6000803e3d6000fd5b505050506040513d602081101561234957600080fd5b50518351849060038589020190811061235e57fe5b602002602001018181525050896001600160a01b031663ab2f3ad4826040518263ffffffff1660e01b815260040180826001600160a01b0316815260200191505060206040518083038186803b1580156123b757600080fd5b505afa1580156123cb573d6000803e3d6000fd5b505050506040513d60208110156123e157600080fd5b5051835184906004858902019081106123f657fe5b602002602001018181525050896001600160a01b0316634a993ee9826040518263ffffffff1660e01b815260040180826001600160a01b0316815260200191505060206040518083038186803b15801561244f57600080fd5b505afa158015612463573d6000803e3d6000fd5b505050506040513d602081101561247957600080fd5b50518351849060058589020190811061248e57fe5b602002602001018181525050896001600160a01b03166329951c0f826040518263ffffffff1660e01b815260040180826001600160a01b0316815260200191505060206040518083038186803b1580156124e757600080fd5b505afa1580156124fb573d6000803e3d6000fd5b505050506040513d602081101561251157600080fd5b50518351849060068589020190811061252657fe5b602002602001018181525050896001600160a01b03166381a612d6826040518263ffffffff1660e01b815260040180826001600160a01b0316815260200191505060206040518083038186803b15801561257f57600080fd5b505afa158015612593573d6000803e3d6000fd5b505050506040513d60208110156125a957600080fd5b5051835184906007858902019081106125be57fe5b602002602001018181525050896001600160a01b031663e124e6d2826040518263ffffffff1660e01b815260040180826001600160a01b0316815260200191505060206040518083038186803b15801561261757600080fd5b505afa15801561262b573d6000803e3d6000fd5b505050506040513d602081101561264157600080fd5b50518351849060088589020190811061265657fe5b602002602001018181525050896001600160a01b031663f07456ce826040518263ffffffff1660e01b815260040180826001600160a01b0316815260200191505060206040518083038186803b1580156126af57600080fd5b505afa1580156126c3573d6000803e3d6000fd5b505050506040513d60208110156126d957600080fd5b5051835184906009858902019081106126ee57fe5b602090810291909101810191909152604080516303b6b4bb60e51b81526001600160a01b038481166004830152600060248301529151918716926376d6976092604480840193829003018186803b15801561274857600080fd5b505afa15801561275c573d6000803e3d6000fd5b505050506040513d602081101561277257600080fd5b505183518490600a8589020190811061278757fe5b602090810291909101810191909152604080516303b6b4bb60e51b81526001600160a01b038481166004830152600160248301529151918716926376d6976092604480840193829003018186803b1580156127e157600080fd5b505afa1580156127f5573d6000803e3d6000fd5b505050506040513d602081101561280b57600080fd5b505183518490600b8589020190811061282057fe5b6020908102919091010152506001016120c6565b60606000825167ffffffffffffffff8111801561285057600080fd5b5060405190808252806020026020018201604052801561287a578160200160208202803683370190505b50905060005b835181101561153357846001600160a01b0316631ce9cb8f8583815181106128a457fe5b60200260200101516040518263ffffffff1660e01b815260040180826001600160a01b0316815260200191505060206040518083038186803b1580156128e957600080fd5b505afa1580156128fd573d6000803e3d6000fd5b505050506040513d602081101561291357600080fd5b5051825183908390811061292357fe5b6020908102919091010152600101612880565b60606000600e90506000866001600160a01b0316632630c12f6040518163ffffffff1660e01b815260040160206040518083038186803b15801561297957600080fd5b505afa15801561298d573d6000803e3d6000fd5b505050506040513d60208110156129a357600080fd5b50518451909150600090830267ffffffffffffffff811180156129c557600080fd5b506040519080825280602002602001820160405280156129ef578160200160208202803683370190505b50905060005b8551811015611406576000868281518110612a0c57fe5b6020026020010151905060006001600160a01b0316816001600160a01b03161415612a345750875b60008a6001600160a01b0316639698d25a836040518263ffffffff1660e01b815260040180826001600160a01b0316815260200191505060206040518083038186803b158015612a8357600080fd5b505afa158015612a97573d6000803e3d6000fd5b505050506040513d6020811015612aad57600080fd5b5051604080516352f55eed60e01b81526001600160a01b0385811660048301529151929350908d16916352f55eed91602480820192602092909190829003018186803b158015612afc57600080fd5b505afa158015612b10573d6000803e3d6000fd5b505050506040513d6020811015612b2657600080fd5b505184518590858902908110612b3857fe5b6020026020010181815250508a6001600160a01b031663c3c7b9e9836040518263ffffffff1660e01b815260040180826001600160a01b0316815260200191505060206040518083038186803b158015612b9157600080fd5b505afa158015612ba5573d6000803e3d6000fd5b505050506040513d6020811015612bbb57600080fd5b5051845185906001868a0201908110612bd057fe5b6020026020010181815250508a6001600160a01b03166342e85182836040518263ffffffff1660e01b815260040180826001600160a01b0316815260200191505060206040518083038186803b158015612c2957600080fd5b505afa158015612c3d573d6000803e3d6000fd5b505050506040513d6020811015612c5357600080fd5b5051845185906002868a0201908110612c6857fe5b6020026020010181815250508a6001600160a01b0316632c668ec1838b6040518363ffffffff1660e01b815260040180836001600160a01b031681526020018281526020019250505060206040518083038186803b158015612cc957600080fd5b505afa158015612cdd573d6000803e3d6000fd5b505050506040513d6020811015612cf357600080fd5b5051845185906003868a0201908110612d0857fe5b6020026020010181815250508a6001600160a01b031663ab2f3ad4836040518263ffffffff1660e01b815260040180826001600160a01b0316815260200191505060206040518083038186803b158015612d6157600080fd5b505afa158015612d75573d6000803e3d6000fd5b505050506040513d6020811015612d8b57600080fd5b5051845185906004868a0201908110612da057fe5b6020026020010181815250508a6001600160a01b0316634a993ee9836040518263ffffffff1660e01b815260040180826001600160a01b0316815260200191505060206040518083038186803b158015612df957600080fd5b505afa158015612e0d573d6000803e3d6000fd5b505050506040513d6020811015612e2357600080fd5b5051845185906005868a0201908110612e3857fe5b6020026020010181815250508a6001600160a01b03166329951c0f836040518263ffffffff1660e01b815260040180826001600160a01b0316815260200191505060206040518083038186803b158015612e9157600080fd5b505afa158015612ea5573d6000803e3d6000fd5b505050506040513d6020811015612ebb57600080fd5b5051845185906006868a0201908110612ed057fe5b6020026020010181815250508a6001600160a01b0316638a78daa8836040518263ffffffff1660e01b815260040180826001600160a01b0316815260200191505060206040518083038186803b158015612f2957600080fd5b505afa158015612f3d573d6000803e3d6000fd5b505050506040513d6020811015612f5357600080fd5b5051845185906007868a0201908110612f6857fe5b602002602001018181525050808487850260080181518110612f8657fe5b6020026020010181815250508a6001600160a01b03166381a612d6836040518263ffffffff1660e01b815260040180826001600160a01b0316815260200191505060206040518083038186803b158015612fdf57600080fd5b505afa158015612ff3573d6000803e3d6000fd5b505050506040513d602081101561300957600080fd5b5051845185906009868a020190811061301e57fe5b6020026020010181815250508a6001600160a01b031663e124e6d2836040518263ffffffff1660e01b815260040180826001600160a01b0316815260200191505060206040518083038186803b15801561307757600080fd5b505afa15801561308b573d6000803e3d6000fd5b505050506040513d60208110156130a157600080fd5b505184518590600a868a02019081106130b657fe5b6020026020010181815250508a6001600160a01b031663f07456ce836040518263ffffffff1660e01b815260040180826001600160a01b0316815260200191505060206040518083038186803b15801561310f57600080fd5b505afa158015613123573d6000803e3d6000fd5b505050506040513d602081101561313957600080fd5b505184518590600b868a020190811061314e57fe5b602090810291909101810191909152604080516303b6b4bb60e51b81526001600160a01b038581166004830152600060248301529151918816926376d6976092604480840193829003018186803b1580156131a857600080fd5b505afa1580156131bc573d6000803e3d6000fd5b505050506040513d60208110156131d257600080fd5b505184518590600c868a02019081106131e757fe5b602090810291909101810191909152604080516303b6b4bb60e51b81526001600160a01b038581166004830152600160248301529151918816926376d6976092604480840193829003018186803b15801561324157600080fd5b505afa158015613255573d6000803e3d6000fd5b505050506040513d602081101561326b57600080fd5b505184518590600d868a020190811061328057fe5b602090810291909101015250506001016129f5565b6c0c9f2c9cd04674edea4000000081565b606060006002905060008184510267ffffffffffffffff811180156132ca57600080fd5b506040519080825280602002602001820160405280156132f4578160200160208202803683370190505b50905060005b845181101561376657600085828151811061331157fe5b6020026020010151905060006001600160a01b0316816001600160a01b031614156133395750855b6000886001600160a01b03166342b60b03836040518263ffffffff1660e01b815260040180826001600160a01b0316815260200191505060206040518083038186803b15801561338857600080fd5b505afa15801561339c573d6000803e3d6000fd5b505050506040513d60208110156133b257600080fd5b505161342257886001600160a01b031663c4f718bf6040518163ffffffff1660e01b815260040160206040518083038186803b1580156133f157600080fd5b505afa158015613405573d6000803e3d6000fd5b505050506040513d602081101561341b57600080fd5b5051613488565b886001600160a01b031663134ca63b6040518163ffffffff1660e01b815260040160206040518083038186803b15801561345b57600080fd5b505afa15801561346f573d6000803e3d6000fd5b505050506040513d602081101561348557600080fd5b50515b90506000896001600160a01b031663c3c7b9e9846040518263ffffffff1660e01b815260040180826001600160a01b0316815260200191505060206040518083038186803b1580156134d957600080fd5b505afa1580156134ed573d6000803e3d6000fd5b505050506040513d602081101561350357600080fd5b5051604080516352f55eed60e01b81526001600160a01b0386811660048301529151929350600092918d16916352f55eed91602480820192602092909190829003018186803b15801561355557600080fd5b505afa158015613569573d6000803e3d6000fd5b505050506040513d602081101561357f57600080fd5b5051905080156135b25761359781611bbb85856156c0565b86888702815181106135a557fe5b6020026020010181815250505b60008b6001600160a01b031663c65bc7b1866040518263ffffffff1660e01b815260040180826001600160a01b0316815260200191505060206040518083038186803b15801561360157600080fd5b505afa158015613615573d6000803e3d6000fd5b505050506040513d602081101561362b57600080fd5b505111156137565760008b6001600160a01b031663a93acac2866040518263ffffffff1660e01b815260040180826001600160a01b0316815260200191505060206040518083038186803b15801561368257600080fd5b505afa158015613696573d6000803e3d6000fd5b505050506040513d60208110156136ac57600080fd5b50516040805163c65bc7b160e01b81526001600160a01b0388811660048301529151929350600092918f169163c65bc7b191602480820192602092909190829003018186803b1580156136fe57600080fd5b505afa158015613712573d6000803e3d6000fd5b505050506040513d602081101561372857600080fd5b505190506137368183615780565b888a89026001018151811061374757fe5b60200260200101818152505050505b5050600190920191506132fa9050565b509150505b9392505050565b600981565b60606000600f90506000876001600160a01b0316632630c12f6040518163ffffffff1660e01b815260040160206040518083038186803b1580156137ba57600080fd5b505afa1580156137ce573d6000803e3d6000fd5b505050506040513d60208110156137e457600080fd5b50518451909150600090830267ffffffffffffffff8111801561380657600080fd5b50604051908082528060200260200182016040528015613830578160200160208202803683370190505b50905060005b855181101561416c57600086828151811061384d57fe5b6020026020010151905060006001600160a01b0316816001600160a01b031614156138755750875b8a6001600160a01b03166352f55eed826040518263ffffffff1660e01b815260040180826001600160a01b0316815260200191505060206040518083038186803b1580156138c257600080fd5b505afa1580156138d6573d6000803e3d6000fd5b505050506040513d60208110156138ec57600080fd5b5051835184908488029081106138fe57fe5b6020026020010181815250508a6001600160a01b031663c3c7b9e9826040518263ffffffff1660e01b815260040180826001600160a01b0316815260200191505060206040518083038186803b15801561395757600080fd5b505afa15801561396b573d6000803e3d6000fd5b505050506040513d602081101561398157600080fd5b50518351849060018589020190811061399657fe5b6020026020010181815250508a6001600160a01b03166342e85182826040518263ffffffff1660e01b815260040180826001600160a01b0316815260200191505060206040518083038186803b1580156139ef57600080fd5b505afa158015613a03573d6000803e3d6000fd5b505050506040513d6020811015613a1957600080fd5b505183518490600285890201908110613a2e57fe5b6020026020010181815250508a6001600160a01b0316632c668ec1828a6040518363ffffffff1660e01b815260040180836001600160a01b031681526020018281526020019250505060206040518083038186803b158015613a8f57600080fd5b505afa158015613aa3573d6000803e3d6000fd5b505050506040513d6020811015613ab957600080fd5b505183518490600385890201908110613ace57fe5b6020026020010181815250508a6001600160a01b031663ab2f3ad4826040518263ffffffff1660e01b815260040180826001600160a01b0316815260200191505060206040518083038186803b158015613b2757600080fd5b505afa158015613b3b573d6000803e3d6000fd5b505050506040513d6020811015613b5157600080fd5b505183518490600485890201908110613b6657fe5b6020026020010181815250508a6001600160a01b0316634a993ee9826040518263ffffffff1660e01b815260040180826001600160a01b0316815260200191505060206040518083038186803b158015613bbf57600080fd5b505afa158015613bd3573d6000803e3d6000fd5b505050506040513d6020811015613be957600080fd5b505183518490600585890201908110613bfe57fe5b6020026020010181815250508a6001600160a01b03166329951c0f826040518263ffffffff1660e01b815260040180826001600160a01b0316815260200191505060206040518083038186803b158015613c5757600080fd5b505afa158015613c6b573d6000803e3d6000fd5b505050506040513d6020811015613c8157600080fd5b505183518490600685890201908110613c9657fe5b6020026020010181815250508a6001600160a01b0316638a78daa8826040518263ffffffff1660e01b815260040180826001600160a01b0316815260200191505060206040518083038186803b158015613cef57600080fd5b505afa158015613d03573d6000803e3d6000fd5b505050506040513d6020811015613d1957600080fd5b505183518490600785890201908110613d2e57fe5b602002602001018181525050896001600160a01b0316639698d25a826040518263ffffffff1660e01b815260040180826001600160a01b0316815260200191505060206040518083038186803b158015613d8757600080fd5b505afa158015613d9b573d6000803e3d6000fd5b505050506040513d6020811015613db157600080fd5b505183518490600885890201908110613dc657fe5b602002602001018181525050896001600160a01b0316631045c74e826040518263ffffffff1660e01b815260040180826001600160a01b0316815260200191505060206040518083038186803b158015613e1f57600080fd5b505afa158015613e33573d6000803e3d6000fd5b505050506040513d6020811015613e4957600080fd5b505183518490600985890201908110613e5e57fe5b6020026020010181815250508a6001600160a01b03166381a612d6826040518263ffffffff1660e01b815260040180826001600160a01b0316815260200191505060206040518083038186803b158015613eb757600080fd5b505afa158015613ecb573d6000803e3d6000fd5b505050506040513d6020811015613ee157600080fd5b505183518490600a85890201908110613ef657fe5b6020026020010181815250508a6001600160a01b031663e124e6d2826040518263ffffffff1660e01b815260040180826001600160a01b0316815260200191505060206040518083038186803b158015613f4f57600080fd5b505afa158015613f63573d6000803e3d6000fd5b505050506040513d6020811015613f7957600080fd5b505183518490600b85890201908110613f8e57fe5b6020026020010181815250508a6001600160a01b031663f07456ce826040518263ffffffff1660e01b815260040180826001600160a01b0316815260200191505060206040518083038186803b158015613fe757600080fd5b505afa158015613ffb573d6000803e3d6000fd5b505050506040513d602081101561401157600080fd5b505183518490600c8589020190811061402657fe5b602090810291909101810191909152604080516303b6b4bb60e51b81526001600160a01b038481166004830152600060248301529151918716926376d6976092604480840193829003018186803b15801561408057600080fd5b505afa158015614094573d6000803e3d6000fd5b505050506040513d60208110156140aa57600080fd5b505183518490600d858902019081106140bf57fe5b602090810291909101810191909152604080516303b6b4bb60e51b81526001600160a01b038481166004830152600160248301529151918716926376d6976092604480840193829003018186803b15801561411957600080fd5b505afa15801561412d573d6000803e3d6000fd5b505050506040513d602081101561414357600080fd5b505183518490600e8589020190811061415857fe5b602090810291909101015250600101613836565b5098975050505050505050565b6000806000866001600160a01b03166381a612d6876040518263ffffffff1660e01b815260040180826001600160a01b0316815260200191505060206040518083038186803b1580156141cb57600080fd5b505afa1580156141df573d6000803e3d6000fd5b505050506040513d60208110156141f557600080fd5b5051604080516323b95ceb60e21b81526001600160a01b0389811660048301529151929350600092918a1691638ee573ac91602480820192602092909190829003018186803b15801561424757600080fd5b505afa15801561425b573d6000803e3d6000fd5b505050506040513d602081101561427157600080fd5b5051604080516323b95ceb60e21b81526001600160a01b0389811660048301529151929350600092918b1691638ee573ac91602480820192602092909190829003018186803b1580156142c357600080fd5b505afa1580156142d7573d6000803e3d6000fd5b505050506040513d60208110156142ed57600080fd5b5051905060008061430f6c0c9f2c9cd04674edea40000000611bbb8a886156c0565b905061432b600a85900a611bbb83670de0b6b3a76400006156c0565b905060008b6001600160a01b03166342b60b038c6040518263ffffffff1660e01b815260040180826001600160a01b0316815260200191505060206040518083038186803b15801561437c57600080fd5b505afa158015614390573d6000803e3d6000fd5b505050506040513d60208110156143a657600080fd5b5051801561442957508b6001600160a01b03166342b60b038b6040518263ffffffff1660e01b815260040180826001600160a01b0316815260200191505060206040518083038186803b1580156143fc57600080fd5b505afa158015614410573d6000803e3d6000fd5b505050506040513d602081101561442657600080fd5b50515b905060008161449c578c6001600160a01b0316632ffdaf896040518163ffffffff1660e01b815260040160206040518083038186803b15801561446b57600080fd5b505afa15801561447f573d6000803e3d6000fd5b505050506040513d602081101561449557600080fd5b5051614502565b8c6001600160a01b0316631bcffcf86040518163ffffffff1660e01b815260040160206040518083038186803b1580156144d557600080fd5b505afa1580156144e9573d6000803e3d6000fd5b505050506040513d60208110156144ff57600080fd5b50515b9050600082614575578d6001600160a01b0316633eacd2f86040518163ffffffff1660e01b815260040160206040518083038186803b15801561454457600080fd5b505afa158015614558573d6000803e3d6000fd5b505050506040513d602081101561456e57600080fd5b50516145db565b8d6001600160a01b031663c25317d46040518163ffffffff1660e01b815260040160206040518083038186803b1580156145ae57600080fd5b505afa1580156145c2573d6000803e3d6000fd5b505050506040513d60208110156145d857600080fd5b50515b905060008e6001600160a01b031663843d43998f87868660016040518663ffffffff1660e01b815260040180866001600160a01b0316815260200185815260200184815260200183815260200182151581526020019550505050505060206040518083038186803b15801561464f57600080fd5b505afa158015614663573d6000803e3d6000fd5b505050506040513d602081101561467957600080fd5b8101908080519060200190929190505050905060008f6001600160a01b031663843d43998f88878760006040518663ffffffff1660e01b815260040180866001600160a01b0316815260200185815260200184815260200183815260200182151581526020019550505050505060206040518083038186803b1580156146fe57600080fd5b505afa158015614712573d6000803e3d6000fd5b505050506040513d602081101561472857600080fd5b50519050808211614739578061473b565b815b965050505050505060008a6001600160a01b031663e124e6d28a6040518263ffffffff1660e01b815260040180826001600160a01b0316815260200191505060206040518083038186803b15801561479257600080fd5b505afa1580156147a6573d6000803e3d6000fd5b505050506040513d60208110156147bc57600080fd5b5051905060006147d082611bbb8b896156c0565b90506147ef85600a0a611bbb86600a0a846156c090919063ffffffff16565b9050600061480d612710611bbb6148068288615663565b85906156c0565b9050600061481b8383615663565b919e919d50909b505050505050505050505050565b60606000825167ffffffffffffffff8111801561484c57600080fd5b50604051908082528060200260200182016040528015614876578160200160208202803683370190505b50905060005b835181101561153357600084828151811061489357fe5b6020026020010151905060006001600160a01b0316816001600160a01b031614156148e157856001600160a01b0316318383815181106148cf57fe5b60200260200101818152505050614976565b806001600160a01b03166370a08231876040518263ffffffff1660e01b815260040180826001600160a01b0316815260200191505060206040518083038186803b15801561492e57600080fd5b505afa158015614942573d6000803e3d6000fd5b505050506040513d602081101561495857600080fd5b5051835184908490811061496857fe5b602002602001018181525050505b60010161487c565b60606000600985510267ffffffffffffffff8111801561499d57600080fd5b506040519080825280602002602001820160405280156149c7578160200160208202803683370190505b50905060005b8551811015614d715760008060008060008060008e6001600160a01b0316634a3f088d8f8f8b815181106149fd57fe5b60200260200101518f8c81518110614a1157fe5b60200260200101518f8d81518110614a2557fe5b60200260200101516040518563ffffffff1660e01b815260040180856001600160a01b03168152602001846001600160a01b03168152602001836001600160a01b0316815260200182151581526020019450505050506101006040518083038186803b158015614a9457600080fd5b505afa158015614aa8573d6000803e3d6000fd5b505050506040513d610100811015614abf57600080fd5b50805160208201516040830151606084015160a085015160c086015160e0909601518f51959d50939b509199509750955091935090915087908a9060098b02908110614b0757fe5b602002602001018181525050858960098a0260010181518110614b2657fe5b602002602001018181525050848960098a0260020181518110614b4557fe5b602002602001018181525050838960098a0260030181518110614b6457fe5b60200260200101818152505081614b7c576000614b7f565b60015b60ff168960098a0260040181518110614b9457fe5b602002602001018181525050828960098a0260050181518110614bb357fe5b602002602001018181525050808960098a0260060181518110614bd257fe5b602002602001018181525050505050505050506000826009830281518110614bf657fe5b602002602001015190506000836009840260020181518110614c1457fe5b602002602001015190506000846009850260060181518110614c3257fe5b602002602001015190506000821115614d66576000808c6001600160a01b0316635c07eaab8b8881518110614c6357fe5b602002602001015187878d8b81518110614c7957fe5b6020026020010151886040518663ffffffff1660e01b815260040180866001600160a01b03168152602001858152602001848152602001831515815260200182815260200195505050505050604080518083038186803b158015614cdc57600080fd5b505afa158015614cf0573d6000803e3d6000fd5b505050506040513d6040811015614d0657600080fd5b508051602090910151909250905081614d20576000614d23565b60015b60ff16876009880260070181518110614d3857fe5b60200260200101818152505080876009880260080181518110614d5757fe5b60200260200101818152505050505b5050506001016149cd565b509695505050505050565b6040805160028082526060808301845292600092919060208301908036833701905050905060005b835181101561173a576000848281518110614dbb57fe5b6020026020010151905060006001600160a01b0316816001600160a01b03161415614de35750845b866001600160a01b031663c3c7b9e9826040518263ffffffff1660e01b815260040180826001600160a01b0316815260200191505060206040518083038186803b158015614e3057600080fd5b505afa925050508015614e5557506040513d6020811015614e5057600080fd5b505160015b614e5e57614fd9565b8015614fd7576000886001600160a01b0316630a48d5a984846040518363ffffffff1660e01b815260040180836001600160a01b031681526020018281526020019250505060206040518083038186803b158015614ebb57600080fd5b505afa158015614ecf573d6000803e3d6000fd5b505050506040513d6020811015614ee557600080fd5b5051604080516342b60b0360e01b81526001600160a01b0386811660048301529151929350908b16916342b60b0391602480820192602092909190829003018186803b158015614f3457600080fd5b505afa158015614f48573d6000803e3d6000fd5b505050506040513d6020811015614f5e57600080fd5b505115614faa57614f8c8186600181518110614f7657fe5b602002602001015161578090919063ffffffff16565b85600181518110614f9957fe5b602002602001018181525050614fd5565b614fbb8186600081518110614f7657fe5b85600081518110614fc857fe5b6020026020010181815250505b505b505b50600101614da4565b600080846001600160a01b03166381a612d6856040518263ffffffff1660e01b815260040180826001600160a01b0316815260200191505060206040518083038186803b15801561503257600080fd5b505afa158015615046573d6000803e3d6000fd5b505050506040513d602081101561505c57600080fd5b505160408051637092736960e11b81526001600160a01b03868116600483015291519293506000929188169163e124e6d291602480820192602092909190829003018186803b1580156150ae57600080fd5b505afa1580156150c2573d6000803e3d6000fd5b505050506040513d60208110156150d857600080fd5b5051604080516323b95ceb60e21b81526001600160a01b038881166004830152915192935060009291891691638ee573ac91602480820192602092909190829003018186803b15801561512a57600080fd5b505afa15801561513e573d6000803e3d6000fd5b505050506040513d602081101561515457600080fd5b5051604080516323b95ceb60e21b81526001600160a01b0388811660048301529151929350600092918a1691638ee573ac91602480820192602092909190829003018186803b1580156151a657600080fd5b505afa1580156151ba573d6000803e3d6000fd5b505050506040513d60208110156151d057600080fd5b5051604080516352f55eed60e01b81526001600160a01b038981166004830152915192935060009283928c16916352f55eed916024808301926020929190829003018186803b15801561522257600080fd5b505afa158015615236573d6000803e3d6000fd5b505050506040513d602081101561524c57600080fd5b50516040805163c3c7b9e960e01b81526001600160a01b038b811660048301529151929350600092918d169163c3c7b9e991602480820192602092909190829003018186803b15801561529e57600080fd5b505afa1580156152b2573d6000803e3d6000fd5b505050506040513d60208110156152c857600080fd5b505160408051634a993ee960e01b81526001600160a01b038c811660048301529151929350600092918e1691634a993ee991602480820192602092909190829003018186803b15801561531a57600080fd5b505afa15801561532e573d6000803e3d6000fd5b505050506040513d602081101561534457600080fd5b5051905060008183116153575781615359565b825b9050838110615374576000995050505050505050505061376b565b60006153808583615663565b90506153ad87600a0a611bbb8a600a0a6153a78e611bbb8f886156c090919063ffffffff16565b906156c0565b955050505050506000896001600160a01b03166329951c0f8a6040518263ffffffff1660e01b815260040180826001600160a01b0316815260200191505060206040518083038186803b15801561540357600080fd5b505afa158015615417573d6000803e3d6000fd5b505050506040513d602081101561542d57600080fd5b50519050801561416c57896001600160a01b03166342e851828a6040518263ffffffff1660e01b815260040180826001600160a01b0316815260200191505060206040518083038186803b15801561548457600080fd5b505afa158015615498573d6000803e3d6000fd5b505050506040513d60208110156154ae57600080fd5b50518110156154c6576000965050505050505061376b565b600061554b8b6001600160a01b03166342e851828c6040518263ffffffff1660e01b815260040180826001600160a01b0316815260200191505060206040518083038186803b15801561551857600080fd5b505afa15801561552c573d6000803e3d6000fd5b505050506040513d602081101561554257600080fd5b50518390615663565b9050615567670de0b6b3a7640000611bbb83600a89900a6156c0565b905061558487611bbb836c0c9f2c9cd04674edea400000006156c0565b90508083111561559c57965061376b95505050505050565b505098975050505050505050565b600080805b83518110156115335760008482815181106155c657fe5b602002602001015190506000866001600160a01b03166370a08231836040518263ffffffff1660e01b815260040180826001600160a01b0316815260200191505060206040518083038186803b15801561561f57600080fd5b505afa158015615633573d6000803e3d6000fd5b505050506040513d602081101561564957600080fd5b505190506156578482615780565b935050506001016155af565b6000828211156156ba576040805162461bcd60e51b815260206004820152601e60248201527f536166654d6174683a207375627472616374696f6e206f766572666c6f770000604482015290519081900360640190fd5b50900390565b6000826156cf57506000611537565b828202828482816156dc57fe5b041461376b5760405162461bcd60e51b81526004018080602001828103825260218152602001806157db6021913960400191505060405180910390fd5b600080821161576f576040805162461bcd60e51b815260206004820152601a60248201527f536166654d6174683a206469766973696f6e206279207a65726f000000000000604482015290519081900360640190fd5b81838161577857fe5b049392505050565b60008282018381101561376b576040805162461bcd60e51b815260206004820152601b60248201527f536166654d6174683a206164646974696f6e206f766572666c6f770000000000604482015290519081900360640190fdfe536166654d6174683a206d756c7469706c69636174696f6e206f766572666c6f77a2646970667358221220bb8b9b334adb0ed2c5ed60f0cc3896ab63083802e907f872e66e7096b08cefe564736f6c63430007060033",
  "linkReferences": {},
  "deployedLinkReferences": {}
}