{
  "_format": "hh-sol-artifact-1",
  "contractName": "PhamousUiStakeDataProvider",
  "sourceName": "contracts/dataproviders/PhamousUiStakeDataProvider.sol",
  "abi": [
    {
      "inputs": [
        {
          "internalType": "contract IPulseXFactory",
          "name": "_pulsexFactory",
          "type": "address"
        },
        {
          "internalType": "address",
          "name": "_wPLS",
          "type": "address"
        }
      ],
      "stateMutability": "nonpayable",
      "type": "constructor"
    },
    {
      "inputs": [
        {
          "internalType": "contract IAddressesProvider",
          "name": "addressesProvider",
          "type": "address"
        },
        {
          "internalType": "address",
          "name": "user",
          "type": "address"
        }
      ],
      "name": "getPhlpUserData",
      "outputs": [
        {
          "components": [
            {
              "internalType": "uint256",
              "name": "totalSupply",
              "type": "uint256"
            },
            {
              "internalType": "uint256",
              "name": "walletBalance",
              "type": "uint256"
            },
            {
              "internalType": "uint256[]",
              "name": "aums",
              "type": "uint256[]"
            }
          ],
          "internalType": "struct IPhamousUiStakeDataProvider.UserPhlpData",
          "name": "data",
          "type": "tuple"
        }
      ],
      "stateMutability": "view",
      "type": "function"
    },
    {
      "inputs": [
        {
          "internalType": "contract IPhamousFeeDistribution",
          "name": "feeDistributor",
          "type": "address"
        }
      ],
      "name": "getStakingData",
      "outputs": [
        {
          "components": [
            {
              "internalType": "address",
              "name": "stakingToken",
              "type": "address"
            },
            {
              "internalType": "uint256",
              "name": "totalSupply",
              "type": "uint256"
            },
            {
              "internalType": "uint256",
              "name": "totalStakedSupply",
              "type": "uint256"
            },
            {
              "internalType": "uint256",
              "name": "stakingTokenPrecision",
              "type": "uint256"
            },
            {
              "internalType": "uint256",
              "name": "stakingTokenTotalSupplyInPls",
              "type": "uint256"
            },
            {
              "internalType": "uint256",
              "name": "rewardDuration",
              "type": "uint256"
            },
            {
              "internalType": "uint256",
              "name": "unstakeDuration",
              "type": "uint256"
            },
            {
              "internalType": "uint256",
              "name": "withdrawDuration",
              "type": "uint256"
            },
            {
              "components": [
                {
                  "internalType": "address",
                  "name": "token",
                  "type": "address"
                },
                {
                  "internalType": "uint256",
                  "name": "amount",
                  "type": "uint256"
                }
              ],
              "internalType": "struct IPhamousFeeDistribution.RewardAmount[]",
              "name": "rewardsPerToken",
              "type": "tuple[]"
            },
            {
              "internalType": "uint256",
              "name": "rewardDurationReturn",
              "type": "uint256"
            }
          ],
          "internalType": "struct IPhamousUiStakeDataProvider.StakingData",
          "name": "data",
          "type": "tuple"
        }
      ],
      "stateMutability": "view",
      "type": "function"
    },
    {
      "inputs": [
        {
          "internalType": "contract IPhamousFeeDistribution",
          "name": "feeDistributor",
          "type": "address"
        },
        {
          "internalType": "address",
          "name": "user",
          "type": "address"
        }
      ],
      "name": "getStakingUserData",
      "outputs": [
        {
          "components": [
            {
              "internalType": "address",
              "name": "stakingToken",
              "type": "address"
            },
            {
              "internalType": "uint256",
              "name": "totalSupply",
              "type": "uint256"
            },
            {
              "internalType": "uint256",
              "name": "totalStakedSupply",
              "type": "uint256"
            },
            {
              "internalType": "uint256",
              "name": "stakingTokenPrecision",
              "type": "uint256"
            },
            {
              "internalType": "uint256",
              "name": "stakingTokenTotalSupplyInPls",
              "type": "uint256"
            },
            {
              "internalType": "uint256",
              "name": "rewardDuration",
              "type": "uint256"
            },
            {
              "internalType": "uint256",
              "name": "unstakeDuration",
              "type": "uint256"
            },
            {
              "internalType": "uint256",
              "name": "withdrawDuration",
              "type": "uint256"
            },
            {
              "components": [
                {
                  "internalType": "address",
                  "name": "token",
                  "type": "address"
                },
                {
                  "internalType": "uint256",
                  "name": "amount",
                  "type": "uint256"
                }
              ],
              "internalType": "struct IPhamousFeeDistribution.RewardAmount[]",
              "name": "rewardsPerToken",
              "type": "tuple[]"
            },
            {
              "internalType": "uint256",
              "name": "rewardDurationReturn",
              "type": "uint256"
            }
          ],
          "internalType": "struct IPhamousUiStakeDataProvider.StakingData",
          "name": "data",
          "type": "tuple"
        },
        {
          "components": [
            {
              "internalType": "uint256",
              "name": "walletBalance",
              "type": "uint256"
            },
            {
              "internalType": "uint256",
              "name": "stakedBalance",
              "type": "uint256"
            },
            {
              "internalType": "uint256",
              "name": "unstakedBalance",
              "type": "uint256"
            },
            {
              "internalType": "uint256",
              "name": "withdrawTimestamp",
              "type": "uint256"
            },
            {
              "internalType": "uint256",
              "name": "withdrawableBalance",
              "type": "uint256"
            },
            {
              "internalType": "uint256",
              "name": "expirationTimestamp",
              "type": "uint256"
            },
            {
              "components": [
                {
                  "internalType": "address",
                  "name": "token",
                  "type": "address"
                },
                {
                  "internalType": "uint256",
                  "name": "amount",
                  "type": "uint256"
                }
              ],
              "internalType": "struct IPhamousFeeDistribution.RewardAmount[]",
              "name": "claimableRewards",
              "type": "tuple[]"
            }
          ],
          "internalType": "struct IPhamousUiStakeDataProvider.UserStakingData",
          "name": "userData",
          "type": "tuple"
        }
      ],
      "stateMutability": "view",
      "type": "function"
    },
    {
      "inputs": [],
      "name": "pulsexFactory",
      "outputs": [
        {
          "internalType": "contract IPulseXFactory",
          "name": "",
          "type": "address"
        }
      ],
      "stateMutability": "view",
      "type": "function"
    },
    {
      "inputs": [],
      "name": "wPLS",
      "outputs": [
        {
          "internalType": "address",
          "name": "",
          "type": "address"
        }
      ],
      "stateMutability": "view",
      "type": "function"
    }
  ],
  "bytecode": "0x60c060405234801561001057600080fd5b50604051620016f5380380620016f58339810160408190526100319161004f565b6001600160601b0319606092831b8116608052911b1660a0526100a0565b60008060408385031215610061578182fd5b825161006c81610088565b602084015190925061007d81610088565b809150509250929050565b6001600160a01b038116811461009d57600080fd5b50565b60805160601c60a05160601c611617620000de60003980610c1b5280610c415280610cc95280610e0652508061098a5280610c9a52506116176000f3fe608060405234801561001057600080fd5b50600436106100575760003560e01c806367a7b5f61461005c5780636fec74b214610085578063bd09a24a146100a6578063dbd6fd9d146100bb578063f9f6a4a4146100db575b600080fd5b61006f61006a36600461128f565b6100e3565b60405161007c919061147a565b60405180910390f35b6100986100933660046112ab565b61064d565b60405161007c92919061148d565b6100ae610988565b60405161007c919061144c565b6100ce6100c9366004611257565b6109ac565b60405161007c9190611501565b6100ae610c19565b6100eb610fff565b816001600160a01b03166372f702f36040518163ffffffff1660e01b815260040160206040518083038186803b15801561012457600080fd5b505afa158015610138573d6000803e3d6000fd5b505050506040513d601f19601f8201168201806040525081019061015c91906110d5565b6001600160a01b039081168252604080516318160ddd60e01b81529051918416916318160ddd91600480820192602092909190829003018186803b1580156101a357600080fd5b505afa1580156101b7573d6000803e3d6000fd5b505050506040513d601f19601f820116820180604052508101906101db9190611353565b816020018181525050816001600160a01b031663bcdc3cfc6040518163ffffffff1660e01b815260040160206040518083038186803b15801561021d57600080fd5b505afa158015610231573d6000803e3d6000fd5b505050506040513d601f19601f820116820180604052508101906102559190611353565b816040018181525050816001600160a01b0316636746c7b16040518163ffffffff1660e01b815260040160206040518083038186803b15801561029757600080fd5b505afa1580156102ab573d6000803e3d6000fd5b505050506040513d601f19601f820116820180604052508101906102cf9190611353565b6060820152805160208201516102e59190610c3d565b816080018181525050816001600160a01b0316635ade228a6040518163ffffffff1660e01b815260040160206040518083038186803b15801561032757600080fd5b505afa15801561033b573d6000803e3d6000fd5b505050506040513d601f19601f8201168201806040525081019061035f9190611353565b8160a0018181525050816001600160a01b03166328a9e1ff6040518163ffffffff1660e01b815260040160206040518083038186803b1580156103a157600080fd5b505afa1580156103b5573d6000803e3d6000fd5b505050506040513d601f19601f820116820180604052508101906103d99190611353565b8160c0018181525050816001600160a01b031663779133226040518163ffffffff1660e01b815260040160206040518083038186803b15801561041b57600080fd5b505afa15801561042f573d6000803e3d6000fd5b505050506040513d601f19601f820116820180604052508101906104539190611353565b60e082015260405163dc01f60d60e01b81526001600160a01b0383169063dc01f60d906104859060009060040161144c565b60006040518083038186803b15801561049d57600080fd5b505afa1580156104b1573d6000803e3d6000fd5b505050506040513d6000823e601f3d908101601f191682016040526104d991908101906110f1565b6101008201526000805b8261010001515181101561060c576000846001600160a01b031663bcd11014856101000151848151811061051357fe5b6020026020010151600001516040518263ffffffff1660e01b815260040161053b919061144c565b60206040518083038186803b15801561055357600080fd5b505afa158015610567573d6000803e3d6000fd5b505050506040513d601f19601f8201168201806040525081019061058b9190611353565b90506105bd6105b685610100015184815181106105a457fe5b60200260200101516000015183610c3d565b8490610ede565b92506105e484602001516105de866060015184610f3f90919063ffffffff16565b90610f98565b84610100015183815181106105f557fe5b6020908102919091018101510152506001016104e3565b50600061062183600001518460200151610c3d565b905080156106465761063f816105de84670de0b6b3a7640000610f3f565b6101208401525b5050919050565b610655610fff565b61065d61105b565b610666846100e3565b9150836001600160a01b03166372f702f36040518163ffffffff1660e01b815260040160206040518083038186803b1580156106a157600080fd5b505afa1580156106b5573d6000803e3d6000fd5b505050506040513d601f19601f820116820180604052508101906106d991906110d5565b6001600160a01b03166370a08231846040518263ffffffff1660e01b8152600401610704919061144c565b60206040518083038186803b15801561071c57600080fd5b505afa158015610730573d6000803e3d6000fd5b505050506040513d601f19601f820116820180604052508101906107549190611353565b8152604051636021726760e01b81526001600160a01b0385169063602172679061078290869060040161144c565b60206040518083038186803b15801561079a57600080fd5b505afa1580156107ae573d6000803e3d6000fd5b505050506040513d601f19601f820116820180604052508101906107d29190611353565b60208201526040516323ac34d560e21b81526000906001600160a01b03861690638eb0d3549061080690879060040161144c565b604080518083038186803b15801561081d57600080fd5b505afa158015610831573d6000803e3d6000fd5b505050506040513d601f19601f8201168201806040525081019061085591906112bd565b805160408085019190915260208201516060850152516256c52760e31b81529091506001600160a01b038616906302b629389061089690879060040161144c565b604080518083038186803b1580156108ad57600080fd5b505afa1580156108c1573d6000803e3d6000fd5b505050506040513d601f19601f820116820180604052508101906108e591906112bd565b80516080840152602081015160a084015260405163dc01f60d60e01b81529091506001600160a01b0386169063dc01f60d9061092590879060040161144c565b60006040518083038186803b15801561093d57600080fd5b505afa158015610951573d6000803e3d6000fd5b505050506040513d6000823e601f3d908101601f1916820160405261097991908101906110f1565b60c08301525090939092509050565b7f000000000000000000000000000000000000000000000000000000000000000081565b6109b4611098565b6000836001600160a01b031663fd591dcd6040518163ffffffff1660e01b815260040160206040518083038186803b1580156109ef57600080fd5b505afa158015610a03573d6000803e3d6000fd5b505050506040513d601f19601f82011682018060405250810190610a2791906110d5565b90506000846001600160a01b031663028d27d86040518163ffffffff1660e01b815260040160206040518083038186803b158015610a6457600080fd5b505afa158015610a78573d6000803e3d6000fd5b505050506040513d601f19601f82011682018060405250810190610a9c91906110d5565b9050816001600160a01b03166318160ddd6040518163ffffffff1660e01b815260040160206040518083038186803b158015610ad757600080fd5b505afa158015610aeb573d6000803e3d6000fd5b505050506040513d601f19601f82011682018060405250810190610b0f9190611353565b83526040516370a0823160e01b81526001600160a01b038316906370a0823190610b3d90879060040161144c565b60206040518083038186803b158015610b5557600080fd5b505afa158015610b69573d6000803e3d6000fd5b505050506040513d601f19601f82011682018060405250810190610b8d9190611353565b836020018181525050806001600160a01b031663ed0d1c046040518163ffffffff1660e01b815260040160006040518083038186803b158015610bcf57600080fd5b505afa158015610be3573d6000803e3d6000fd5b505050506040513d6000823e601f3d908101601f19168201604052610c0b91908101906111c7565b604084015250909392505050565b7f000000000000000000000000000000000000000000000000000000000000000081565b60007f00000000000000000000000000000000000000000000000000000000000000006001600160a01b0316836001600160a01b03161415610c80575080610ed8565b60405163e6a4390560e01b81526000906001600160a01b037f0000000000000000000000000000000000000000000000000000000000000000169063e6a4390590610cf19087907f000000000000000000000000000000000000000000000000000000000000000090600401611460565b60206040518083038186803b158015610d0957600080fd5b505afa158015610d1d573d6000803e3d6000fd5b505050506040513d601f19601f82011682018060405250810190610d4191906110d5565b90506001600160a01b038116610d5b576000915050610ed8565b600080826001600160a01b0316630902f1ac6040518163ffffffff1660e01b815260040160606040518083038186803b158015610d9757600080fd5b505afa158015610dab573d6000803e3d6000fd5b505050506040513d601f19601f82011682018060405250810190610dcf9190611305565b506001600160701b031691506001600160701b031691508160001480610df3575080155b15610e045760009350505050610ed8565b7f00000000000000000000000000000000000000000000000000000000000000006001600160a01b0316836001600160a01b0316630dfe16816040518163ffffffff1660e01b815260040160206040518083038186803b158015610e6757600080fd5b505afa158015610e7b573d6000803e3d6000fd5b505050506040513d601f19601f82011682018060405250810190610e9f91906110d5565b6001600160a01b03161415610ec357610ebc816105de8785610f3f565b9350610ed4565b610ed1826105de8784610f3f565b93505b5050505b92915050565b600082820183811015610f38576040805162461bcd60e51b815260206004820152601b60248201527f536166654d6174683a206164646974696f6e206f766572666c6f770000000000604482015290519081900360640190fd5b9392505050565b600082610f4e57506000610ed8565b82820282848281610f5b57fe5b0414610f385760405162461bcd60e51b81526004018080602001828103825260218152602001806115c16021913960400191505060405180910390fd5b6000808211610fee576040805162461bcd60e51b815260206004820152601a60248201527f536166654d6174683a206469766973696f6e206279207a65726f000000000000604482015290519081900360640190fd5b818381610ff757fe5b049392505050565b60405180610140016040528060006001600160a01b031681526020016000815260200160008152602001600081526020016000815260200160008152602001600081526020016000815260200160608152602001600081525090565b6040518060e00160405280600081526020016000815260200160008152602001600081526020016000815260200160008152602001606081525090565b60405180606001604052806000815260200160008152602001606081525090565b80516001600160701b03811681146110d057600080fd5b919050565b6000602082840312156110e6578081fd5b8151610f38816115a8565b60006020808385031215611103578182fd5b825167ffffffffffffffff8082111561111a578384fd5b818501915085601f83011261112d578384fd5b815161114061113b8261158a565b611566565b818152848101908486016040808502870188018b101561115e578889fd5b8896505b848710156111b85780828c031215611178578889fd5b8051818101818110888211171561118b57fe5b82528251611198816115a8565b815282890151898201528452600196909601959287019290810190611162565b50909998505050505050505050565b600060208083850312156111d9578182fd5b825167ffffffffffffffff8111156111ef578283fd5b8301601f810185136111ff578283fd5b805161120d61113b8261158a565b8181528381019083850185840285018601891015611229578687fd5b8694505b8385101561124b57805183526001949094019391850191850161122d565b50979650505050505050565b60008060408385031215611269578081fd5b8235611274816115a8565b91506020830135611284816115a8565b809150509250929050565b6000602082840312156112a0578081fd5b8135610f38816115a8565b60008060408385031215611269578182fd5b6000604082840312156112ce578081fd5b6040516040810181811067ffffffffffffffff821117156112eb57fe5b604052825181526020928301519281019290925250919050565b600080600060608486031215611319578081fd5b611322846110b9565b9250611330602085016110b9565b9150604084015163ffffffff81168114611348578182fd5b809150509250925092565b600060208284031215611364578081fd5b5051919050565b6001600160a01b03169052565b6000815180845260208085019450808401835b838110156113bb57815180516001600160a01b03168852830151838801526040909601959082019060010161138b565b509495945050505050565b60006101406113d684845161136b565b6020830151602085015260408301516040850152606083015160608501526080830151608085015260a083015160a085015260c083015160c085015260e083015160e085015261010080840151828287015261143483870182611378565b61012095860151969095019590955250919392505050565b6001600160a01b0391909116815260200190565b6001600160a01b0392831681529116602082015260400190565b600060208252610f3860208301846113c6565b6000604082526114a060408301856113c6565b8281036020840152835181526020840151602082015260408401516040820152606084015160608201526080840151608082015260a084015160a082015260c084015160e060c08301526114f760e0830182611378565b9695505050505050565b6000602080835260808301845182850152818501516040850152604085015160608086015281815180845260a08701915084830193508592505b8083101561155b578351825292840192600192909201919084019061153b565b509695505050505050565b60405181810167ffffffffffffffff8111828210171561158257fe5b604052919050565b600067ffffffffffffffff82111561159e57fe5b5060209081020190565b6001600160a01b03811681146115bd57600080fd5b5056fe536166654d6174683a206d756c7469706c69636174696f6e206f766572666c6f77a26469706673582212209e01259ce5d29f23f76e540c375248410b250bcfce2b63dd88c9651d2e2c88e464736f6c63430007060033",
  "linkReferences": {},
  "deployedLinkReferences": {}
}