{
  "_format": "hh-sol-artifact-1",
  "contractName": "PhamousUiStakeDataProvider",
  "sourceName": "contracts/dataproviders/PhamousUiStakeDataProvider.sol",
  "abi": [
    {
      "inputs": [
        {
          "internalType": "contract IPulseXFactory",
          "name": "_pulsexFactory",
          "type": "address"
        },
        {
          "internalType": "address",
          "name": "_wPLS",
          "type": "address"
        }
      ],
      "stateMutability": "nonpayable",
      "type": "constructor"
    },
    {
      "inputs": [
        {
          "internalType": "contract IPhamousFeeDistribution",
          "name": "feeDistributor",
          "type": "address"
        }
      ],
      "name": "getStakingData",
      "outputs": [
        {
          "components": [
            {
              "internalType": "address",
              "name": "stakingToken",
              "type": "address"
            },
            {
              "internalType": "uint256",
              "name": "totalSupply",
              "type": "uint256"
            },
            {
              "internalType": "uint256",
              "name": "totalStakedSupply",
              "type": "uint256"
            },
            {
              "internalType": "uint256",
              "name": "stakingTokenPrecision",
              "type": "uint256"
            },
            {
              "internalType": "uint256",
              "name": "rewardDuration",
              "type": "uint256"
            },
            {
              "internalType": "uint256",
              "name": "unstakeDuration",
              "type": "uint256"
            },
            {
              "internalType": "uint256",
              "name": "withdrawDuration",
              "type": "uint256"
            },
            {
              "components": [
                {
                  "internalType": "address",
                  "name": "token",
                  "type": "address"
                },
                {
                  "internalType": "uint256",
                  "name": "amount",
                  "type": "uint256"
                }
              ],
              "internalType": "struct IPhamousFeeDistribution.RewardAmount[]",
              "name": "rewardsPerToken",
              "type": "tuple[]"
            },
            {
              "internalType": "uint256",
              "name": "rewardDurationReturn",
              "type": "uint256"
            }
          ],
          "internalType": "struct IPhamousUiStakeDataProvider.StakingData",
          "name": "data",
          "type": "tuple"
        }
      ],
      "stateMutability": "view",
      "type": "function"
    },
    {
      "inputs": [
        {
          "internalType": "contract IPhamousFeeDistribution",
          "name": "feeDistributor",
          "type": "address"
        },
        {
          "internalType": "address",
          "name": "user",
          "type": "address"
        }
      ],
      "name": "getStakingUserData",
      "outputs": [
        {
          "components": [
            {
              "internalType": "address",
              "name": "stakingToken",
              "type": "address"
            },
            {
              "internalType": "uint256",
              "name": "totalSupply",
              "type": "uint256"
            },
            {
              "internalType": "uint256",
              "name": "totalStakedSupply",
              "type": "uint256"
            },
            {
              "internalType": "uint256",
              "name": "stakingTokenPrecision",
              "type": "uint256"
            },
            {
              "internalType": "uint256",
              "name": "rewardDuration",
              "type": "uint256"
            },
            {
              "internalType": "uint256",
              "name": "unstakeDuration",
              "type": "uint256"
            },
            {
              "internalType": "uint256",
              "name": "withdrawDuration",
              "type": "uint256"
            },
            {
              "components": [
                {
                  "internalType": "address",
                  "name": "token",
                  "type": "address"
                },
                {
                  "internalType": "uint256",
                  "name": "amount",
                  "type": "uint256"
                }
              ],
              "internalType": "struct IPhamousFeeDistribution.RewardAmount[]",
              "name": "rewardsPerToken",
              "type": "tuple[]"
            },
            {
              "internalType": "uint256",
              "name": "rewardDurationReturn",
              "type": "uint256"
            }
          ],
          "internalType": "struct IPhamousUiStakeDataProvider.StakingData",
          "name": "data",
          "type": "tuple"
        },
        {
          "components": [
            {
              "internalType": "uint256",
              "name": "walletBalance",
              "type": "uint256"
            },
            {
              "internalType": "uint256",
              "name": "stakedBalance",
              "type": "uint256"
            },
            {
              "internalType": "uint256",
              "name": "unstakedBalance",
              "type": "uint256"
            },
            {
              "internalType": "uint256",
              "name": "withdrawTimestamp",
              "type": "uint256"
            },
            {
              "internalType": "uint256",
              "name": "withdrawableBalance",
              "type": "uint256"
            },
            {
              "internalType": "uint256",
              "name": "expirationTimestamp",
              "type": "uint256"
            },
            {
              "components": [
                {
                  "internalType": "address",
                  "name": "token",
                  "type": "address"
                },
                {
                  "internalType": "uint256",
                  "name": "amount",
                  "type": "uint256"
                }
              ],
              "internalType": "struct IPhamousFeeDistribution.RewardAmount[]",
              "name": "claimableRewards",
              "type": "tuple[]"
            }
          ],
          "internalType": "struct IPhamousUiStakeDataProvider.UserStakingData",
          "name": "userData",
          "type": "tuple"
        }
      ],
      "stateMutability": "view",
      "type": "function"
    },
    {
      "inputs": [],
      "name": "pulsexFactory",
      "outputs": [
        {
          "internalType": "contract IPulseXFactory",
          "name": "",
          "type": "address"
        }
      ],
      "stateMutability": "view",
      "type": "function"
    },
    {
      "inputs": [],
      "name": "wPLS",
      "outputs": [
        {
          "internalType": "address",
          "name": "",
          "type": "address"
        }
      ],
      "stateMutability": "view",
      "type": "function"
    }
  ],
  "bytecode": "0x60c060405234801561001057600080fd5b506040516112da3803806112da83398101604081905261002f9161004d565b6001600160601b0319606092831b8116608052911b1660a05261009e565b6000806040838503121561005f578182fd5b825161006a81610086565b602084015190925061007b81610086565b809150509250929050565b6001600160a01b038116811461009b57600080fd5b50565b60805160601c60a05160601c6111ff6100db6000398061096252806109885280610a105280610b4d52508061093e52806109e152506111ff6000f3fe608060405234801561001057600080fd5b506004361061004c5760003560e01c806367a7b5f6146100515780636fec74b21461007a578063bd09a24a1461009b578063f9f6a4a4146100b0575b600080fd5b61006461005f366004610eec565b6100b8565b60405161007191906110e5565b60405180910390f35b61008d610088366004610f08565b610601565b6040516100719291906110f8565b6100a361093c565b60405161007191906110b7565b6100a3610960565b6100c0610d46565b816001600160a01b03166372f702f36040518163ffffffff1660e01b815260040160206040518083038186803b1580156100f957600080fd5b505afa15801561010d573d6000803e3d6000fd5b505050506040513d601f19601f820116820180604052508101906101319190610df4565b6001600160a01b039081168252604080516318160ddd60e01b81529051918416916318160ddd91600480820192602092909190829003018186803b15801561017857600080fd5b505afa15801561018c573d6000803e3d6000fd5b505050506040513d601f19601f820116820180604052508101906101b09190610fd6565b816020018181525050816001600160a01b031663bcdc3cfc6040518163ffffffff1660e01b815260040160206040518083038186803b1580156101f257600080fd5b505afa158015610206573d6000803e3d6000fd5b505050506040513d601f19601f8201168201806040525081019061022a9190610fd6565b816040018181525050816001600160a01b0316636746c7b16040518163ffffffff1660e01b815260040160206040518083038186803b15801561026c57600080fd5b505afa158015610280573d6000803e3d6000fd5b505050506040513d601f19601f820116820180604052508101906102a49190610fd6565b816060018181525050816001600160a01b0316635ade228a6040518163ffffffff1660e01b815260040160206040518083038186803b1580156102e657600080fd5b505afa1580156102fa573d6000803e3d6000fd5b505050506040513d601f19601f8201168201806040525081019061031e9190610fd6565b816080018181525050816001600160a01b03166328a9e1ff6040518163ffffffff1660e01b815260040160206040518083038186803b15801561036057600080fd5b505afa158015610374573d6000803e3d6000fd5b505050506040513d601f19601f820116820180604052508101906103989190610fd6565b8160a0018181525050816001600160a01b031663779133226040518163ffffffff1660e01b815260040160206040518083038186803b1580156103da57600080fd5b505afa1580156103ee573d6000803e3d6000fd5b505050506040513d601f19601f820116820180604052508101906104129190610fd6565b60c082015260405163dc01f60d60e01b81526001600160a01b0383169063dc01f60d90610444906000906004016110b7565b60006040518083038186803b15801561045c57600080fd5b505afa158015610470573d6000803e3d6000fd5b505050506040513d6000823e601f3d908101601f191682016040526104989190810190610e10565b60e08201526000805b8260e00151518110156105c6576000846001600160a01b031663bcd110148560e0015184815181106104cf57fe5b6020026020010151600001516040518263ffffffff1660e01b81526004016104f791906110b7565b60206040518083038186803b15801561050f57600080fd5b505afa158015610523573d6000803e3d6000fd5b505050506040513d601f19601f820116820180604052508101906105479190610fd6565b90506105786105718560e00151848151811061055f57fe5b60200260200101516000015183610984565b8490610c25565b925061059f8460200151610599866060015184610c8690919063ffffffff16565b90610cdf565b8460e0015183815181106105af57fe5b6020908102919091018101510152506001016104a1565b5060006105db83600001518460200151610984565b90506105f38161059984670de0b6b3a7640000610c86565b610100840152509092915050565b610609610d46565b610611610d9b565b61061a846100b8565b9150836001600160a01b03166372f702f36040518163ffffffff1660e01b815260040160206040518083038186803b15801561065557600080fd5b505afa158015610669573d6000803e3d6000fd5b505050506040513d601f19601f8201168201806040525081019061068d9190610df4565b6001600160a01b03166370a08231846040518263ffffffff1660e01b81526004016106b891906110b7565b60206040518083038186803b1580156106d057600080fd5b505afa1580156106e4573d6000803e3d6000fd5b505050506040513d601f19601f820116820180604052508101906107089190610fd6565b8152604051636021726760e01b81526001600160a01b038516906360217267906107369086906004016110b7565b60206040518083038186803b15801561074e57600080fd5b505afa158015610762573d6000803e3d6000fd5b505050506040513d601f19601f820116820180604052508101906107869190610fd6565b60208201526040516323ac34d560e21b81526000906001600160a01b03861690638eb0d354906107ba9087906004016110b7565b604080518083038186803b1580156107d157600080fd5b505afa1580156107e5573d6000803e3d6000fd5b505050506040513d601f19601f820116820180604052508101906108099190610f40565b805160408085019190915260208201516060850152516256c52760e31b81529091506001600160a01b038616906302b629389061084a9087906004016110b7565b604080518083038186803b15801561086157600080fd5b505afa158015610875573d6000803e3d6000fd5b505050506040513d601f19601f820116820180604052508101906108999190610f40565b80516080840152602081015160a084015260405163dc01f60d60e01b81529091506001600160a01b0386169063dc01f60d906108d99087906004016110b7565b60006040518083038186803b1580156108f157600080fd5b505afa158015610905573d6000803e3d6000fd5b505050506040513d6000823e601f3d908101601f1916820160405261092d9190810190610e10565b60c08301525090939092509050565b7f000000000000000000000000000000000000000000000000000000000000000081565b7f000000000000000000000000000000000000000000000000000000000000000081565b60007f00000000000000000000000000000000000000000000000000000000000000006001600160a01b0316836001600160a01b031614156109c7575080610c1f565b60405163e6a4390560e01b81526000906001600160a01b037f0000000000000000000000000000000000000000000000000000000000000000169063e6a4390590610a389087907f0000000000000000000000000000000000000000000000000000000000000000906004016110cb565b60206040518083038186803b158015610a5057600080fd5b505afa158015610a64573d6000803e3d6000fd5b505050506040513d601f19601f82011682018060405250810190610a889190610df4565b90506001600160a01b038116610aa2576000915050610c1f565b600080826001600160a01b0316630902f1ac6040518163ffffffff1660e01b815260040160606040518083038186803b158015610ade57600080fd5b505afa158015610af2573d6000803e3d6000fd5b505050506040513d601f19601f82011682018060405250810190610b169190610f88565b506001600160701b031691506001600160701b031691508160001480610b3a575080155b15610b4b5760009350505050610c1f565b7f00000000000000000000000000000000000000000000000000000000000000006001600160a01b0316836001600160a01b0316630dfe16816040518163ffffffff1660e01b815260040160206040518083038186803b158015610bae57600080fd5b505afa158015610bc2573d6000803e3d6000fd5b505050506040513d601f19601f82011682018060405250810190610be69190610df4565b6001600160a01b03161415610c0a57610c03816105998785610c86565b9350610c1b565b610c18826105998784610c86565b93505b5050505b92915050565b600082820183811015610c7f576040805162461bcd60e51b815260206004820152601b60248201527f536166654d6174683a206164646974696f6e206f766572666c6f770000000000604482015290519081900360640190fd5b9392505050565b600082610c9557506000610c1f565b82820282848281610ca257fe5b0414610c7f5760405162461bcd60e51b81526004018080602001828103825260218152602001806111a96021913960400191505060405180910390fd5b6000808211610d35576040805162461bcd60e51b815260206004820152601a60248201527f536166654d6174683a206469766973696f6e206279207a65726f000000000000604482015290519081900360640190fd5b818381610d3e57fe5b049392505050565b60405180610120016040528060006001600160a01b0316815260200160008152602001600081526020016000815260200160008152602001600081526020016000815260200160608152602001600081525090565b6040518060e00160405280600081526020016000815260200160008152602001600081526020016000815260200160008152602001606081525090565b80516001600160701b0381168114610def57600080fd5b919050565b600060208284031215610e05578081fd5b8151610c7f81611190565b60006020808385031215610e22578182fd5b825167ffffffffffffffff80821115610e39578384fd5b818501915085601f830112610e4c578384fd5b815181811115610e5857fe5b610e65848583020161116c565b818152848101908486016040808502870188018b1015610e83578889fd5b8896505b84871015610edd5780828c031215610e9d578889fd5b80518181018181108882111715610eb057fe5b82528251610ebd81611190565b815282890151898201528452600196909601959287019290810190610e87565b50909998505050505050505050565b600060208284031215610efd578081fd5b8135610c7f81611190565b60008060408385031215610f1a578081fd5b8235610f2581611190565b91506020830135610f3581611190565b809150509250929050565b600060408284031215610f51578081fd5b6040516040810181811067ffffffffffffffff82111715610f6e57fe5b604052825181526020928301519281019290925250919050565b600080600060608486031215610f9c578081fd5b610fa584610dd8565b9250610fb360208501610dd8565b9150604084015163ffffffff81168114610fcb578182fd5b809150509250925092565b600060208284031215610fe7578081fd5b5051919050565b6000815180845260208085019450808401835b8381101561103157815180516001600160a01b031688528301518388015260409096019590820190600101611001565b509495945050505050565b600061012060018060a01b0383511684526020830151602085015260408301516040850152606083015160608501526080830151608085015260a083015160a085015260c083015160c085015260e08301518160e08601526110a082860182610fee565b610100948501519590940194909452509092915050565b6001600160a01b0391909116815260200190565b6001600160a01b0392831681529116602082015260400190565b600060208252610c7f602083018461103c565b60006040825261110b604083018561103c565b8281036020840152835181526020840151602082015260408401516040820152606084015160608201526080840151608082015260a084015160a082015260c084015160e060c083015261116260e0830182610fee565b9695505050505050565b60405181810167ffffffffffffffff8111828210171561118857fe5b604052919050565b6001600160a01b03811681146111a557600080fd5b5056fe536166654d6174683a206d756c7469706c69636174696f6e206f766572666c6f77a264697066735822122043da191971d78d77116a269a462759f740c6c5cbf8933f50331dcdb4ce4f137564736f6c63430007060033",
  "linkReferences": {},
  "deployedLinkReferences": {}
}