{
  "_format": "hh-sol-artifact-1",
  "contractName": "PhamousUiDataProvider",
  "sourceName": "contracts/dataproviders/PhamousUiDataProvider.sol",
  "abi": [
    {
      "inputs": [],
      "name": "BASIS_POINTS_DIVISOR",
      "outputs": [
        {
          "internalType": "uint256",
          "name": "",
          "type": "uint256"
        }
      ],
      "stateMutability": "view",
      "type": "function"
    },
    {
      "inputs": [],
      "name": "POSITION_PROPS_LENGTH",
      "outputs": [
        {
          "internalType": "uint256",
          "name": "",
          "type": "uint256"
        }
      ],
      "stateMutability": "view",
      "type": "function"
    },
    {
      "inputs": [],
      "name": "PRICE_PRECISION",
      "outputs": [
        {
          "internalType": "uint256",
          "name": "",
          "type": "uint256"
        }
      ],
      "stateMutability": "view",
      "type": "function"
    },
    {
      "inputs": [],
      "name": "USDPH_DECIMALS",
      "outputs": [
        {
          "internalType": "uint256",
          "name": "",
          "type": "uint256"
        }
      ],
      "stateMutability": "view",
      "type": "function"
    },
    {
      "inputs": [
        {
          "internalType": "contract IAddressesProvider",
          "name": "addressesProvider",
          "type": "address"
        },
        {
          "internalType": "address",
          "name": "tokenIn",
          "type": "address"
        },
        {
          "internalType": "address",
          "name": "tokenOut",
          "type": "address"
        },
        {
          "internalType": "uint256",
          "name": "amountIn",
          "type": "uint256"
        }
      ],
      "name": "getAmountOut",
      "outputs": [
        {
          "internalType": "uint256",
          "name": "",
          "type": "uint256"
        },
        {
          "internalType": "uint256",
          "name": "",
          "type": "uint256"
        }
      ],
      "stateMutability": "view",
      "type": "function"
    },
    {
      "inputs": [
        {
          "internalType": "contract IAddressesProvider",
          "name": "addressesProvider",
          "type": "address"
        },
        {
          "internalType": "address",
          "name": "tokenIn",
          "type": "address"
        },
        {
          "internalType": "address",
          "name": "tokenOut",
          "type": "address"
        },
        {
          "internalType": "uint256",
          "name": "amountIn",
          "type": "uint256"
        }
      ],
      "name": "getFeeBps",
      "outputs": [
        {
          "internalType": "uint256",
          "name": "",
          "type": "uint256"
        },
        {
          "internalType": "uint256",
          "name": "",
          "type": "uint256"
        },
        {
          "internalType": "uint256",
          "name": "",
          "type": "uint256"
        }
      ],
      "stateMutability": "view",
      "type": "function"
    },
    {
      "inputs": [
        {
          "internalType": "contract IAddressesProvider",
          "name": "addressesProvider",
          "type": "address"
        },
        {
          "internalType": "address[]",
          "name": "tokens",
          "type": "address[]"
        }
      ],
      "name": "getFees",
      "outputs": [
        {
          "internalType": "uint256[]",
          "name": "",
          "type": "uint256[]"
        }
      ],
      "stateMutability": "view",
      "type": "function"
    },
    {
      "inputs": [
        {
          "internalType": "contract IAddressesProvider",
          "name": "addressesProvider",
          "type": "address"
        },
        {
          "internalType": "address",
          "name": "weth",
          "type": "address"
        },
        {
          "internalType": "address[]",
          "name": "tokens",
          "type": "address[]"
        }
      ],
      "name": "getFundingRates",
      "outputs": [
        {
          "internalType": "uint256[]",
          "name": "",
          "type": "uint256[]"
        }
      ],
      "stateMutability": "view",
      "type": "function"
    },
    {
      "inputs": [
        {
          "internalType": "contract IAddressesProvider",
          "name": "addressesProvider",
          "type": "address"
        },
        {
          "internalType": "address",
          "name": "tokenIn",
          "type": "address"
        },
        {
          "internalType": "address",
          "name": "tokenOut",
          "type": "address"
        }
      ],
      "name": "getMaxAmountIn",
      "outputs": [
        {
          "internalType": "uint256",
          "name": "",
          "type": "uint256"
        }
      ],
      "stateMutability": "view",
      "type": "function"
    },
    {
      "inputs": [
        {
          "internalType": "contract IAddressesProvider",
          "name": "addressesProvider",
          "type": "address"
        },
        {
          "internalType": "address",
          "name": "account",
          "type": "address"
        },
        {
          "internalType": "address[]",
          "name": "collateralTokens",
          "type": "address[]"
        },
        {
          "internalType": "address[]",
          "name": "indexTokens",
          "type": "address[]"
        },
        {
          "internalType": "bool[]",
          "name": "isLong",
          "type": "bool[]"
        }
      ],
      "name": "getPositions",
      "outputs": [
        {
          "internalType": "uint256[]",
          "name": "",
          "type": "uint256[]"
        }
      ],
      "stateMutability": "view",
      "type": "function"
    },
    {
      "inputs": [
        {
          "internalType": "contract IAddressesProvider",
          "name": "addressesProvider",
          "type": "address"
        },
        {
          "internalType": "address[]",
          "name": "tokens",
          "type": "address[]"
        }
      ],
      "name": "getPrices",
      "outputs": [
        {
          "internalType": "uint256[]",
          "name": "",
          "type": "uint256[]"
        }
      ],
      "stateMutability": "view",
      "type": "function"
    },
    {
      "inputs": [
        {
          "internalType": "address",
          "name": "account",
          "type": "address"
        },
        {
          "internalType": "address[]",
          "name": "tokens",
          "type": "address[]"
        }
      ],
      "name": "getTokenBalances",
      "outputs": [
        {
          "internalType": "uint256[]",
          "name": "",
          "type": "uint256[]"
        }
      ],
      "stateMutability": "view",
      "type": "function"
    },
    {
      "inputs": [
        {
          "internalType": "address",
          "name": "account",
          "type": "address"
        },
        {
          "internalType": "address[]",
          "name": "tokens",
          "type": "address[]"
        }
      ],
      "name": "getTokenBalancesWithSupplies",
      "outputs": [
        {
          "internalType": "uint256[]",
          "name": "",
          "type": "uint256[]"
        }
      ],
      "stateMutability": "view",
      "type": "function"
    },
    {
      "inputs": [
        {
          "internalType": "contract IERC20",
          "name": "token",
          "type": "address"
        },
        {
          "internalType": "address[]",
          "name": "excludedAccounts",
          "type": "address[]"
        }
      ],
      "name": "getTokenSupply",
      "outputs": [
        {
          "internalType": "uint256",
          "name": "",
          "type": "uint256"
        }
      ],
      "stateMutability": "view",
      "type": "function"
    },
    {
      "inputs": [
        {
          "internalType": "contract IERC20",
          "name": "token",
          "type": "address"
        },
        {
          "internalType": "address[]",
          "name": "accounts",
          "type": "address[]"
        }
      ],
      "name": "getTotalBalance",
      "outputs": [
        {
          "internalType": "uint256",
          "name": "",
          "type": "uint256"
        }
      ],
      "stateMutability": "view",
      "type": "function"
    },
    {
      "inputs": [
        {
          "internalType": "contract IAddressesProvider",
          "name": "addressesProvider",
          "type": "address"
        },
        {
          "internalType": "address",
          "name": "weth",
          "type": "address"
        },
        {
          "internalType": "address[]",
          "name": "_tokens",
          "type": "address[]"
        }
      ],
      "name": "getVaultPositionStats",
      "outputs": [
        {
          "internalType": "uint256[]",
          "name": "",
          "type": "uint256[]"
        }
      ],
      "stateMutability": "view",
      "type": "function"
    },
    {
      "inputs": [
        {
          "internalType": "contract IAddressesProvider",
          "name": "addressesProvider",
          "type": "address"
        },
        {
          "internalType": "address",
          "name": "weth",
          "type": "address"
        },
        {
          "internalType": "uint256",
          "name": "usdphAmount",
          "type": "uint256"
        },
        {
          "internalType": "address[]",
          "name": "_tokens",
          "type": "address[]"
        }
      ],
      "name": "getVaultTokenInfoV4",
      "outputs": [
        {
          "internalType": "uint256[]",
          "name": "",
          "type": "uint256[]"
        }
      ],
      "stateMutability": "view",
      "type": "function"
    }
  ],
  "bytecode": "0x608060405234801561001057600080fd5b5061412a806100206000396000f3fe608060405234801561001057600080fd5b506004361061010b5760003560e01c806395a7535a116100a2578063d802178e11610071578063d802178e14610208578063dc383cab1461021b578063e7bfe1d11461022e578063f3535e6c14610241578063fbdb05ca146102545761010b565b806395a7535a146101b9578063ad7e5497146101cc578063b2c5d997146101d4578063d7176ca9146101e75761010b565b80633613d527116100de5780633613d5271461016957806338a432c91461017c57806386d4d0f51461019e57806395082d25146101b15761010b565b806303563e6714610110578063126082cf1461012e5780632ac0184c146101365780632e3e334214610149575b600080fd5b610118610267565b6040516101259190614040565b60405180910390f35b61011861026c565b610118610144366004613cd3565b610272565b61015c6101573660046139d2565b6103ac565b6040516101259190613ff1565b61015c610177366004613cd3565b6105bc565b61018f61018a366004613ab2565b610995565b60405161012593929190614057565b61015c6101ac366004613cd3565b610efe565b610118611075565b61015c6101c7366004613b02565b611086565b610118611607565b61015c6101e2366004613c6a565b61160c565b6101fa6101f5366004613ab2565b612029565b604051610125929190614049565b61015c6102163660046139d2565b61275c565b61015c610229366004613b61565b6128aa565b61015c61023c366004613b02565b612d1d565b61011861024f366004613a68565b613004565b610118610262366004613cd3565b6136fe565b601281565b61271081565b600080836001600160a01b03166318160ddd6040518163ffffffff1660e01b815260040160206040518083038186803b1580156102ae57600080fd5b505afa1580156102c2573d6000803e3d6000fd5b505050506040513d601f19601f820116820180604052508101906102e69190613e7b565b905060005b83518110156103a257600084828151811061030257fe5b602002602001015190506000866001600160a01b03166370a08231836040518263ffffffff1660e01b815260040161033a9190613f1f565b60206040518083038186803b15801561035257600080fd5b505afa158015610366573d6000803e3d6000fd5b505050506040513d601f19601f8201168201806040525081019061038a9190613e7b565b905061039684826137ba565b935050506001016102eb565b5090505b92915050565b60606000600290506000818451026001600160401b03811180156103cf57600080fd5b506040519080825280602002602001820160405280156103f9578160200160208202803683370190505b50905060005b84518110156105b357600085828151811061041657fe5b6020026020010151905060006001600160a01b0316816001600160a01b0316141561048557866001600160a01b031631838584028151811061045457fe5b6020026020010181815250506000838584026001018151811061047357fe5b602002602001018181525050506105ab565b6040516370a0823160e01b81526001600160a01b038216906370a08231906104b1908a90600401613f1f565b60206040518083038186803b1580156104c957600080fd5b505afa1580156104dd573d6000803e3d6000fd5b505050506040513d601f19601f820116820180604052508101906105019190613e7b565b838584028151811061050f57fe5b602002602001018181525050806001600160a01b03166318160ddd6040518163ffffffff1660e01b815260040160206040518083038186803b15801561055457600080fd5b505afa158015610568573d6000803e3d6000fd5b505050506040513d601f19601f8201168201806040525081019061058c9190613e7b565b838584026001018151811061059d57fe5b602002602001018181525050505b6001016103ff565b50949350505050565b60606000836001600160a01b031663fca513a86040518163ffffffff1660e01b815260040160206040518083038186803b1580156105f957600080fd5b505afa15801561060d573d6000803e3d6000fd5b505050506040513d601f19601f8201168201806040525081019061063191906139b6565b90506000600690506000818551026001600160401b038111801561065457600080fd5b5060405190808252806020026020018201604052801561067e578160200160208202803683370190505b50905060005b855181101561098b57600086828151811061069b57fe5b60200260200101519050846001600160a01b03166376d697608260016040518363ffffffff1660e01b81526004016106d4929190613f5d565b60206040518083038186803b1580156106ec57600080fd5b505afa158015610700573d6000803e3d6000fd5b505050506040513d601f19601f820116820180604052508101906107249190613e7b565b838584028151811061073257fe5b60209081029190910101526040516303b6b4bb60e51b81526001600160a01b038616906376d697609061076c908490600090600401613f5d565b60206040518083038186803b15801561078457600080fd5b505afa158015610798573d6000803e3d6000fd5b505050506040513d601f19601f820116820180604052508101906107bc9190613e7b565b83858402600101815181106107cd57fe5b60200260200101818152505082848302815181106107e757fe5b6020026020010151838584026002018151811061080057fe5b602002602001018181525050828483026001018151811061081d57fe5b6020026020010151838584026003018151811061083657fe5b6020908102919091010152604051636ce8a44b60e01b81526001600160a01b03861690636ce8a44b9061086d908490600401613f1f565b60206040518083038186803b15801561088557600080fd5b505afa158015610899573d6000803e3d6000fd5b505050506040513d601f19601f820116820180604052508101906108bd9190613a1f565b6108c85760006108cb565b60015b60ff1683858402600401815181106108df57fe5b6020908102919091010152604051633af5d5d560e11b81526001600160a01b038616906375ebabaa90610916908490600401613f1f565b60206040518083038186803b15801561092e57600080fd5b505afa158015610942573d6000803e3d6000fd5b505050506040513d601f19601f820116820180604052508101906109669190613e7b565b838584026005018151811061097757fe5b602090810291909101015250600101610684565b5095945050505050565b600080600080876001600160a01b0316638d928af86040518163ffffffff1660e01b815260040160206040518083038186803b1580156109d457600080fd5b505afa1580156109e8573d6000803e3d6000fd5b505050506040513d601f19601f82011682018060405250810190610a0c91906139b6565b90506000886001600160a01b031663fca513a86040518163ffffffff1660e01b815260040160206040518083038186803b158015610a4957600080fd5b505afa158015610a5d573d6000803e3d6000fd5b505050506040513d601f19601f82011682018060405250810190610a8191906139b6565b90506000826001600160a01b031663cb67e3b18a6040518263ffffffff1660e01b8152600401610ab19190613f1f565b6101206040518083038186803b158015610aca57600080fd5b505afa158015610ade573d6000803e3d6000fd5b505050506040513d601f19601f82011682018060405250810190610b029190613ce5565b6020015190506000610baa6c0c9f2c9cd04674edea40000000610ba4856001600160a01b03166376d697608e60006040518363ffffffff1660e01b8152600401610b4d929190613f5d565b60206040518083038186803b158015610b6557600080fd5b505afa158015610b79573d6000803e3d6000fd5b505050506040513d601f19601f82011682018060405250810190610b9d9190613e7b565b8b90613817565b90613870565b9050610bc6600a83900a610ba483670de0b6b3a7640000613817565b90506000808c6001600160a01b031663d759932b6040518163ffffffff1660e01b815260040160206040518083038186803b158015610c0457600080fd5b505afa158015610c18573d6000803e3d6000fd5b505050506040513d601f19601f82011682018060405250810190610c3c91906139b6565b6001600160a01b031663eab4d7a9876001600160a01b031663cb67e3b18f6040518263ffffffff1660e01b8152600401610c769190613f1f565b6101206040518083038186803b158015610c8f57600080fd5b505afa158015610ca3573d6000803e3d6000fd5b505050506040513d601f19601f82011682018060405250810190610cc79190613ce5565b60a001518015610d545750876001600160a01b031663cb67e3b18e6040518263ffffffff1660e01b8152600401610cfe9190613f1f565b6101206040518083038186803b158015610d1757600080fd5b505afa158015610d2b573d6000803e3d6000fd5b505050506040513d601f19601f82011682018060405250810190610d4f9190613ce5565b60a001515b6040518263ffffffff1660e01b8152600401610d709190614035565b604080518083038186803b158015610d8757600080fd5b505afa158015610d9b573d6000803e3d6000fd5b505050506040513d601f19601f82011682018060405250810190610dbf9190613e93565b915091506000866001600160a01b031663843d43998e86868660016040518663ffffffff1660e01b8152600401610dfa959493929190613fc1565b60206040518083038186803b158015610e1257600080fd5b505afa158015610e26573d6000803e3d6000fd5b505050506040513d601f19601f82011682018060405250810190610e4a9190613e7b565b90506000876001600160a01b031663843d43998e87878760006040518663ffffffff1660e01b8152600401610e83959493929190613fc1565b60206040518083038186803b158015610e9b57600080fd5b505afa158015610eaf573d6000803e3d6000fd5b505050506040513d601f19601f82011682018060405250810190610ed39190613e7b565b90506000818311610ee45781610ee6565b825b9b509199509750505050505050509450945094915050565b60606000836001600160a01b0316638d928af86040518163ffffffff1660e01b815260040160206040518083038186803b158015610f3b57600080fd5b505afa158015610f4f573d6000803e3d6000fd5b505050506040513d601f19601f82011682018060405250810190610f7391906139b6565b9050600083516001600160401b0381118015610f8e57600080fd5b50604051908082528060200260200182016040528015610fb8578160200160208202803683370190505b50905060005b84518110156105b357826001600160a01b0316631ce9cb8f868381518110610fe257fe5b60200260200101516040518263ffffffff1660e01b81526004016110069190613f1f565b60206040518083038186803b15801561101e57600080fd5b505afa158015611032573d6000803e3d6000fd5b505050506040513d601f19601f820116820180604052508101906110569190613e7b565b82828151811061106257fe5b6020908102919091010152600101610fbe565b6c0c9f2c9cd04674edea4000000081565b60606000846001600160a01b0316638d928af86040518163ffffffff1660e01b815260040160206040518083038186803b1580156110c357600080fd5b505afa1580156110d7573d6000803e3d6000fd5b505050506040513d601f19601f820116820180604052508101906110fb91906139b6565b90506000600290506000818551026001600160401b038111801561111e57600080fd5b50604051908082528060200260200182016040528015611148578160200160208202803683370190505b50905060005b85518110156115fa57600086828151811061116557fe5b6020026020010151905060006001600160a01b0316816001600160a01b0316141561118d5750865b60405163cb67e3b160e01b81526000906001600160a01b0387169063cb67e3b1906111bc908590600401613f1f565b6101206040518083038186803b1580156111d557600080fd5b505afa1580156111e9573d6000803e3d6000fd5b505050506040513d601f19601f8201168201806040525081019061120d9190613ce5565b60a0015161129157856001600160a01b031663b2a2353e6040518163ffffffff1660e01b81526004016102606040518083038186803b15801561124f57600080fd5b505afa158015611263573d6000803e3d6000fd5b505050506040513d601f19601f820116820180604052508101906112879190613d76565b6102200151611309565b856001600160a01b031663b2a2353e6040518163ffffffff1660e01b81526004016102606040518083038186803b1580156112cb57600080fd5b505afa1580156112df573d6000803e3d6000fd5b505050506040513d601f19601f820116820180604052508101906113039190613d76565b61024001515b90506000866001600160a01b031663c3c7b9e9846040518263ffffffff1660e01b81526004016113399190613f1f565b60206040518083038186803b15801561135157600080fd5b505afa158015611365573d6000803e3d6000fd5b505050506040513d601f19601f820116820180604052508101906113899190613e7b565b90506000876001600160a01b03166352f55eed856040518263ffffffff1660e01b81526004016113b99190613f1f565b60206040518083038186803b1580156113d157600080fd5b505afa1580156113e5573d6000803e3d6000fd5b505050506040513d601f19601f820116820180604052508101906114099190613e7b565b9050801561143a5761141f81610ba48585613817565b868887028151811061142d57fe5b6020026020010181815250505b60405163c65bc7b160e01b81526000906001600160a01b038a169063c65bc7b190611469908890600401613f1f565b60206040518083038186803b15801561148157600080fd5b505afa158015611495573d6000803e3d6000fd5b505050506040513d601f19601f820116820180604052508101906114b99190613e7b565b11156115ea5760405163549d656160e11b81526000906001600160a01b038a169063a93acac2906114ee908890600401613f1f565b60206040518083038186803b15801561150657600080fd5b505afa15801561151a573d6000803e3d6000fd5b505050506040513d601f19601f8201168201806040525081019061153e9190613e7b565b90506000896001600160a01b031663c65bc7b1876040518263ffffffff1660e01b815260040161156e9190613f1f565b60206040518083038186803b15801561158657600080fd5b505afa15801561159a573d6000803e3d6000fd5b505050506040513d601f19601f820116820180604052508101906115be9190613e7b565b90506115ca81836138d7565b888a8902600101815181106115db57fe5b60200260200101818152505050505b50506001909201915061114e9050565b50925050505b9392505050565b600981565b60606000600f90506000866001600160a01b0316638d928af86040518163ffffffff1660e01b815260040160206040518083038186803b15801561164f57600080fd5b505afa158015611663573d6000803e3d6000fd5b505050506040513d601f19601f8201168201806040525081019061168791906139b6565b90506000876001600160a01b031663fca513a86040518163ffffffff1660e01b815260040160206040518083038186803b1580156116c457600080fd5b505afa1580156116d8573d6000803e3d6000fd5b505050506040513d601f19601f820116820180604052508101906116fc91906139b6565b90506000886001600160a01b0316634bd9a9aa6040518163ffffffff1660e01b815260040160206040518083038186803b15801561173957600080fd5b505afa15801561174d573d6000803e3d6000fd5b505050506040513d601f19601f8201168201806040525081019061177191906139b6565b90506000848751026001600160401b038111801561178e57600080fd5b506040519080825280602002602001820160405280156117b8578160200160208202803683370190505b50905060005b875181101561201b5760008882815181106117d557fe5b6020026020010151905060006001600160a01b0316816001600160a01b031614156117fd5750895b60405163cb67e3b160e01b81526000906001600160a01b0388169063cb67e3b19061182c908590600401613f1f565b6101206040518083038186803b15801561184557600080fd5b505afa158015611859573d6000803e3d6000fd5b505050506040513d601f19601f8201168201806040525081019061187d9190613ce5565b6040516352f55eed60e01b81529091506001600160a01b038816906352f55eed906118ac908590600401613f1f565b60206040518083038186803b1580156118c457600080fd5b505afa1580156118d8573d6000803e3d6000fd5b505050506040513d601f19601f820116820180604052508101906118fc9190613e7b565b848985028151811061190a57fe5b602090810291909101015260405163c3c7b9e960e01b81526001600160a01b0388169063c3c7b9e990611941908590600401613f1f565b60206040518083038186803b15801561195957600080fd5b505afa15801561196d573d6000803e3d6000fd5b505050506040513d601f19601f820116820180604052508101906119919190613e7b565b84898502600101815181106119a257fe5b602090810291909101015260405163217428c160e11b81526001600160a01b038816906342e85182906119d9908590600401613f1f565b60206040518083038186803b1580156119f157600080fd5b505afa158015611a05573d6000803e3d6000fd5b505050506040513d601f19601f82011682018060405250810190611a299190613e7b565b8489850260020181518110611a3a57fe5b6020908102919091010152604051632c668ec160e01b81526001600160a01b03881690632c668ec190611a739085908f90600401613f78565b60206040518083038186803b158015611a8b57600080fd5b505afa158015611a9f573d6000803e3d6000fd5b505050506040513d601f19601f82011682018060405250810190611ac39190613e7b565b8489850260030181518110611ad457fe5b60200260200101818152505080604001518489850260040181518110611af657fe5b6020026020010181815250508060e001518489850260050181518110611b1857fe5b60200260200101818152505080608001518489850260060181518110611b3a57fe5b602090810291909101015260405163114f1b5560e31b81526001600160a01b03881690638a78daa890611b71908590600401613f1f565b60206040518083038186803b158015611b8957600080fd5b505afa158015611b9d573d6000803e3d6000fd5b505050506040513d601f19601f82011682018060405250810190611bc19190613e7b565b8489850260070181518110611bd257fe5b6020908102919091010152604051634b4c692d60e11b81526001600160a01b03861690639698d25a90611c09908590600401613f1f565b60206040518083038186803b158015611c2157600080fd5b505afa158015611c35573d6000803e3d6000fd5b505050506040513d601f19601f82011682018060405250810190611c599190613e7b565b8489850260080181518110611c6a57fe5b6020908102919091010152604051630822e3a760e11b81526001600160a01b03861690631045c74e90611ca1908590600401613f1f565b60206040518083038186803b158015611cb957600080fd5b505afa158015611ccd573d6000803e3d6000fd5b505050506040513d601f19601f82011682018060405250810190611cf19190613e7b565b8489850260090181518110611d0257fe5b60209081029190910101526040516303b6b4bb60e51b81526001600160a01b038716906376d6976090611d3c908590600090600401613f5d565b60206040518083038186803b158015611d5457600080fd5b505afa158015611d68573d6000803e3d6000fd5b505050506040513d601f19601f82011682018060405250810190611d8c9190613e7b565b84898502600a0181518110611d9d57fe5b60209081029190910101526040516303b6b4bb60e51b81526001600160a01b038716906376d6976090611dd7908590600190600401613f5d565b60206040518083038186803b158015611def57600080fd5b505afa158015611e03573d6000803e3d6000fd5b505050506040513d601f19601f82011682018060405250810190611e279190613e7b565b84898502600b0181518110611e3857fe5b602090810291909101015260405163783a2b6760e11b81526001600160a01b0388169063f07456ce90611e6f908590600401613f1f565b60206040518083038186803b158015611e8757600080fd5b505afa158015611e9b573d6000803e3d6000fd5b505050506040513d601f19601f82011682018060405250810190611ebf9190613e7b565b84898502600c0181518110611ed057fe5b60209081029190910101526040516303b6b4bb60e51b81526001600160a01b038716906376d6976090611f0a908590600090600401613f5d565b60206040518083038186803b158015611f2257600080fd5b505afa158015611f36573d6000803e3d6000fd5b505050506040513d601f19601f82011682018060405250810190611f5a9190613e7b565b84898502600d0181518110611f6b57fe5b60209081029190910101526040516303b6b4bb60e51b81526001600160a01b038716906376d6976090611fa5908590600190600401613f5d565b60206040518083038186803b158015611fbd57600080fd5b505afa158015611fd1573d6000803e3d6000fd5b505050506040513d601f19601f82011682018060405250810190611ff59190613e7b565b84898502600e018151811061200657fe5b602090810291909101015250506001016117be565b509998505050505050505050565b6000806000866001600160a01b0316638d928af86040518163ffffffff1660e01b815260040160206040518083038186803b15801561206757600080fd5b505afa15801561207b573d6000803e3d6000fd5b505050506040513d601f19601f8201168201806040525081019061209f91906139b6565b90506000876001600160a01b031663fca513a86040518163ffffffff1660e01b815260040160206040518083038186803b1580156120dc57600080fd5b505afa1580156120f0573d6000803e3d6000fd5b505050506040513d601f19601f8201168201806040525081019061211491906139b6565b90506000816001600160a01b03166376d697608960006040518363ffffffff1660e01b8152600401612147929190613f5d565b60206040518083038186803b15801561215f57600080fd5b505afa158015612173573d6000803e3d6000fd5b505050506040513d601f19601f820116820180604052508101906121979190613e7b565b90506000806121b76c0c9f2c9cd04674edea40000000610ba48a86613817565b9050612252856001600160a01b031663cb67e3b18c6040518263ffffffff1660e01b81526004016121e89190613f1f565b6101206040518083038186803b15801561220157600080fd5b505afa158015612215573d6000803e3d6000fd5b505050506040513d601f19601f820116820180604052508101906122399190613ce5565b60200151600a0a610ba483670de0b6b3a7640000613817565b90506000808c6001600160a01b031663d759932b6040518163ffffffff1660e01b815260040160206040518083038186803b15801561229057600080fd5b505afa1580156122a4573d6000803e3d6000fd5b505050506040513d601f19601f820116820180604052508101906122c891906139b6565b6001600160a01b031663eab4d7a9886001600160a01b031663cb67e3b18f6040518263ffffffff1660e01b81526004016123029190613f1f565b6101206040518083038186803b15801561231b57600080fd5b505afa15801561232f573d6000803e3d6000fd5b505050506040513d601f19601f820116820180604052508101906123539190613ce5565b60a0015180156123e05750886001600160a01b031663cb67e3b18e6040518263ffffffff1660e01b815260040161238a9190613f1f565b6101206040518083038186803b1580156123a357600080fd5b505afa1580156123b7573d6000803e3d6000fd5b505050506040513d601f19601f820116820180604052508101906123db9190613ce5565b60a001515b6040518263ffffffff1660e01b81526004016123fc9190614035565b604080518083038186803b15801561241357600080fd5b505afa158015612427573d6000803e3d6000fd5b505050506040513d601f19601f8201168201806040525081019061244b9190613e93565b915091506000876001600160a01b031663843d43998e86868660016040518663ffffffff1660e01b8152600401612486959493929190613fc1565b60206040518083038186803b15801561249e57600080fd5b505afa1580156124b2573d6000803e3d6000fd5b505050506040513d601f19601f820116820180604052508101906124d69190613e7b565b90506000886001600160a01b031663843d43998e87878760006040518663ffffffff1660e01b815260040161250f959493929190613fc1565b60206040518083038186803b15801561252757600080fd5b505afa15801561253b573d6000803e3d6000fd5b505050506040513d601f19601f8201168201806040525081019061255f9190613e7b565b905080821161256e5780612570565b815b955050505050506000612605846001600160a01b03166376d697608b60016040518363ffffffff1660e01b81526004016125ab929190613f5d565b60206040518083038186803b1580156125c357600080fd5b505afa1580156125d7573d6000803e3d6000fd5b505050506040513d601f19601f820116820180604052508101906125fb9190613e7b565b610ba48a86613817565b905061271c856001600160a01b031663cb67e3b18c6040518263ffffffff1660e01b81526004016126369190613f1f565b6101206040518083038186803b15801561264f57600080fd5b505afa158015612663573d6000803e3d6000fd5b505050506040513d601f19601f820116820180604052508101906126879190613ce5565b60200151600a0a610ba4876001600160a01b031663cb67e3b18d6040518263ffffffff1660e01b81526004016126bd9190613f1f565b6101206040518083038186803b1580156126d657600080fd5b505afa1580156126ea573d6000803e3d6000fd5b505050506040513d601f19601f8201168201806040525081019061270e9190613ce5565b602001518490600a0a613817565b9050600061273a612710610ba461273382876137ba565b8590613817565b9050600061274883836137ba565b919d919c50909a5050505050505050505050565b6060600082516001600160401b038111801561277757600080fd5b506040519080825280602002602001820160405280156127a1578160200160208202803683370190505b50905060005b83518110156103a25760008482815181106127be57fe5b6020026020010151905060006001600160a01b0316816001600160a01b0316141561280c57856001600160a01b0316318383815181106127fa57fe5b602002602001018181525050506128a2565b6040516370a0823160e01b81526001600160a01b038216906370a0823190612838908990600401613f1f565b60206040518083038186803b15801561285057600080fd5b505afa158015612864573d6000803e3d6000fd5b505050506040513d601f19601f820116820180604052508101906128889190613e7b565b83838151811061289457fe5b602002602001018181525050505b6001016127a7565b6060600060098551026001600160401b03811180156128c857600080fd5b506040519080825280602002602001820160405280156128f2578160200160208202803683370190505b50905060005b8551811015612d125760008060008060008060008e6001600160a01b0316638d928af86040518163ffffffff1660e01b815260040160206040518083038186803b15801561294557600080fd5b505afa158015612959573d6000803e3d6000fd5b505050506040513d601f19601f8201168201806040525081019061297d91906139b6565b6001600160a01b0316634a3f088d8f8f8b8151811061299857fe5b60200260200101518f8c815181106129ac57fe5b60200260200101518f8d815181106129c057fe5b60200260200101516040518563ffffffff1660e01b81526004016129e79493929190613f33565b6101006040518083038186803b158015612a0057600080fd5b505afa158015612a14573d6000803e3d6000fd5b505050506040513d601f19601f82011682018060405250810190612a389190613eb6565b975097509750509650965096509650868960098a0281518110612a5757fe5b602002602001018181525050858960098a0260010181518110612a7657fe5b602002602001018181525050848960098a0260020181518110612a9557fe5b602002602001018181525050838960098a0260030181518110612ab457fe5b60200260200101818152505081612acc576000612acf565b60015b60ff168960098a0260040181518110612ae457fe5b602002602001018181525050828960098a0260050181518110612b0357fe5b602002602001018181525050808960098a0260060181518110612b2257fe5b602002602001018181525050505050505050506000826009830281518110612b4657fe5b602002602001015190506000836009840260020181518110612b6457fe5b602002602001015190506000846009850260060181518110612b8257fe5b602002602001015190506000821115612d07576000808c6001600160a01b0316638d928af86040518163ffffffff1660e01b815260040160206040518083038186803b158015612bd157600080fd5b505afa158015612be5573d6000803e3d6000fd5b505050506040513d601f19601f82011682018060405250810190612c0991906139b6565b6001600160a01b0316635c07eaab8b8881518110612c2357fe5b602002602001015187878d8b81518110612c3957fe5b6020026020010151886040518663ffffffff1660e01b8152600401612c62959493929190613f91565b604080518083038186803b158015612c7957600080fd5b505afa158015612c8d573d6000803e3d6000fd5b505050506040513d601f19601f82011682018060405250810190612cb19190613a3b565b9150915081612cc1576000612cc4565b60015b60ff16876009880260070181518110612cd957fe5b60200260200101818152505080876009880260080181518110612cf857fe5b60200260200101818152505050505b5050506001016128f8565b509695505050505050565b60606000846001600160a01b0316638d928af86040518163ffffffff1660e01b815260040160206040518083038186803b158015612d5a57600080fd5b505afa158015612d6e573d6000803e3d6000fd5b505050506040513d601f19601f82011682018060405250810190612d9291906139b6565b604080516002808252606082018352929350600092909160208301908036833701905050905060005b845181101561098b576000858281518110612dd257fe5b6020026020010151905060006001600160a01b0316816001600160a01b03161415612dfa5750855b60405163c3c7b9e960e01b81526001600160a01b0385169063c3c7b9e990612e26908490600401613f1f565b60206040518083038186803b158015612e3e57600080fd5b505afa925050508015612e6e575060408051601f3d908101601f19168201909252612e6b91810190613e7b565b60015b612e7757612ffb565b8015612ff957604051630a48d5a960e01b81526000906001600160a01b03871690630a48d5a990612eae9086908690600401613f78565b60206040518083038186803b158015612ec657600080fd5b505afa158015612eda573d6000803e3d6000fd5b505050506040513d601f19601f82011682018060405250810190612efe9190613e7b565b60405163cb67e3b160e01b81529091506001600160a01b0387169063cb67e3b190612f2d908690600401613f1f565b6101206040518083038186803b158015612f4657600080fd5b505afa158015612f5a573d6000803e3d6000fd5b505050506040513d601f19601f82011682018060405250810190612f7e9190613ce5565b60a0015115612fcc57612fae8186600181518110612f9857fe5b60200260200101516138d790919063ffffffff16565b85600181518110612fbb57fe5b602002602001018181525050612ff7565b612fdd8186600081518110612f9857fe5b85600081518110612fea57fe5b6020026020010181815250505b505b505b50600101612dbb565b600080846001600160a01b0316638d928af86040518163ffffffff1660e01b815260040160206040518083038186803b15801561304057600080fd5b505afa158015613054573d6000803e3d6000fd5b505050506040513d601f19601f8201168201806040525081019061307891906139b6565b90506000856001600160a01b031663fca513a86040518163ffffffff1660e01b815260040160206040518083038186803b1580156130b557600080fd5b505afa1580156130c9573d6000803e3d6000fd5b505050506040513d601f19601f820116820180604052508101906130ed91906139b6565b90506000816001600160a01b03166376d697608760006040518363ffffffff1660e01b8152600401613120929190613f5d565b60206040518083038186803b15801561313857600080fd5b505afa15801561314c573d6000803e3d6000fd5b505050506040513d601f19601f820116820180604052508101906131709190613e7b565b90506000826001600160a01b03166376d697608760016040518363ffffffff1660e01b81526004016131a3929190613f5d565b60206040518083038186803b1580156131bb57600080fd5b505afa1580156131cf573d6000803e3d6000fd5b505050506040513d601f19601f820116820180604052508101906131f39190613e7b565b90506000846001600160a01b031663cb67e3b1896040518263ffffffff1660e01b81526004016132239190613f1f565b6101206040518083038186803b15801561323c57600080fd5b505afa158015613250573d6000803e3d6000fd5b505050506040513d601f19601f820116820180604052508101906132749190613ce5565b6020015190506000856001600160a01b031663cb67e3b1896040518263ffffffff1660e01b81526004016132a89190613f1f565b6101206040518083038186803b1580156132c157600080fd5b505afa1580156132d5573d6000803e3d6000fd5b505050506040513d601f19601f820116820180604052508101906132f99190613ce5565b602001519050600080876001600160a01b03166352f55eed8b6040518263ffffffff1660e01b815260040161332e9190613f1f565b60206040518083038186803b15801561334657600080fd5b505afa15801561335a573d6000803e3d6000fd5b505050506040513d601f19601f8201168201806040525081019061337e9190613e7b565b90506000886001600160a01b031663c3c7b9e98c6040518263ffffffff1660e01b81526004016133ae9190613f1f565b60206040518083038186803b1580156133c657600080fd5b505afa1580156133da573d6000803e3d6000fd5b505050506040513d601f19601f820116820180604052508101906133fe9190613e7b565b90506000896001600160a01b031663cb67e3b18d6040518263ffffffff1660e01b815260040161342e9190613f1f565b6101206040518083038186803b15801561344757600080fd5b505afa15801561345b573d6000803e3d6000fd5b505050506040513d601f19601f8201168201806040525081019061347f9190613ce5565b60e00151905060008183116134945781613496565b825b90508381106134b35760009b505050505050505050505050611600565b60006134bf85836137ba565b90506134ec87600a0a610ba48a600a0a6134e68e610ba48f8861381790919063ffffffff16565b90613817565b955050505050506000876001600160a01b031663cb67e3b18c6040518263ffffffff1660e01b81526004016135219190613f1f565b6101206040518083038186803b15801561353a57600080fd5b505afa15801561354e573d6000803e3d6000fd5b505050506040513d601f19601f820116820180604052508101906135729190613ce5565b60800151905080156136ef5760405163217428c160e11b81526001600160a01b038916906342e85182906135aa908e90600401613f1f565b60206040518083038186803b1580156135c257600080fd5b505afa1580156135d6573d6000803e3d6000fd5b505050506040513d601f19601f820116820180604052508101906135fa9190613e7b565b81101561361257600098505050505050505050611600565b600061369a896001600160a01b03166342e851828e6040518263ffffffff1660e01b81526004016136439190613f1f565b60206040518083038186803b15801561365b57600080fd5b505afa15801561366f573d6000803e3d6000fd5b505050506040513d601f19601f820116820180604052508101906136939190613e7b565b83906137ba565b90506136b6670de0b6b3a7640000610ba483600a89900a613817565b90506136d387610ba4836c0c9f2c9cd04674edea40000000613817565b9050808311156136ed579850611600975050505050505050565b505b509a9950505050505050505050565b600080805b83518110156103a257600084828151811061371a57fe5b602002602001015190506000866001600160a01b03166370a08231836040518263ffffffff1660e01b81526004016137529190613f1f565b60206040518083038186803b15801561376a57600080fd5b505afa15801561377e573d6000803e3d6000fd5b505050506040513d601f19601f820116820180604052508101906137a29190613e7b565b90506137ae84826138d7565b93505050600101613703565b600082821115613811576040805162461bcd60e51b815260206004820152601e60248201527f536166654d6174683a207375627472616374696f6e206f766572666c6f770000604482015290519081900360640190fd5b50900390565b600082613826575060006103a6565b8282028284828161383357fe5b04146116005760405162461bcd60e51b81526004018080602001828103825260218152602001806140d46021913960400191505060405180910390fd5b60008082116138c6576040805162461bcd60e51b815260206004820152601a60248201527f536166654d6174683a206469766973696f6e206279207a65726f000000000000604482015290519081900360640190fd5b8183816138cf57fe5b049392505050565b600082820183811015611600576040805162461bcd60e51b815260206004820152601b60248201527f536166654d6174683a206164646974696f6e206f766572666c6f770000000000604482015290519081900360640190fd5b600082601f830112613941578081fd5b8135602061395661395183614090565b61406d565b8281528181019085830183850287018401881015613972578586fd5b855b85811015613999578135613987816140ad565b84529284019290840190600101613974565b5090979650505050505050565b80516139b1816140c5565b919050565b6000602082840312156139c7578081fd5b8151611600816140ad565b600080604083850312156139e4578081fd5b82356139ef816140ad565b915060208301356001600160401b03811115613a09578182fd5b613a1585828601613931565b9150509250929050565b600060208284031215613a30578081fd5b8151611600816140c5565b60008060408385031215613a4d578182fd5b8251613a58816140c5565b6020939093015192949293505050565b600080600060608486031215613a7c578081fd5b8335613a87816140ad565b92506020840135613a97816140ad565b91506040840135613aa7816140ad565b809150509250925092565b60008060008060808587031215613ac7578182fd5b8435613ad2816140ad565b93506020850135613ae2816140ad565b92506040850135613af2816140ad565b9396929550929360600135925050565b600080600060608486031215613b16578081fd5b8335613b21816140ad565b92506020840135613b31816140ad565b915060408401356001600160401b03811115613b4b578182fd5b613b5786828701613931565b9150509250925092565b600080600080600060a08688031215613b78578283fd5b8535613b83816140ad565b9450602086810135613b94816140ad565b945060408701356001600160401b0380821115613baf578586fd5b613bbb8a838b01613931565b95506060890135915080821115613bd0578384fd5b613bdc8a838b01613931565b94506080890135915080821115613bf1578384fd5b508701601f81018913613c02578283fd5b8035613c1061395182614090565b81815283810190838501858402850186018d1015613c2c578687fd5b8694505b83851015613c57578035613c43816140c5565b835260019490940193918501918501613c30565b5080955050505050509295509295909350565b60008060008060808587031215613c7f578182fd5b8435613c8a816140ad565b93506020850135613c9a816140ad565b92506040850135915060608501356001600160401b03811115613cbb578182fd5b613cc787828801613931565b91505092959194509250565b600080604083850312156139e4578182fd5b6000610120808385031215613cf8578182fd5b613d018161406d565b9050613d0c836139a6565b815260208301516020820152604083015160408201526060830151606082015260808301516080820152613d4260a084016139a6565b60a0820152613d5360c084016139a6565b60c082015260e08381015190820152610100928301519281019290925250919050565b6000610260808385031215613d89578182fd5b613d928161406d565b9050613d9d836139a6565b8152613dab602084016139a6565b602082015260408301516040820152606083015160608201526080830151608082015260a083015160a082015260c083015160c082015260e083015160e08201526101008084015181830152506101208084015181830152506101408084015181830152506101608084015181830152506101808084015181830152506101a08084015181830152506101c0613e428185016139a6565b908201526101e0838101519082015261020080840151908201526102208084015190820152610240928301519281019290925250919050565b600060208284031215613e8c578081fd5b5051919050565b60008060408385031215613ea5578182fd5b505080516020909101519092909150565b600080600080600080600080610100898b031215613ed2578586fd5b885197506020890151965060408901519550606089015194506080890151935060a0890151925060c0890151613f07816140c5565b8092505060e089015190509295985092959890939650565b6001600160a01b0391909116815260200190565b6001600160a01b039485168152928416602084015292166040820152901515606082015260800190565b6001600160a01b039290921682521515602082015260400190565b6001600160a01b03929092168252602082015260400190565b6001600160a01b039590951685526020850193909352604084019190915215156060830152608082015260a00190565b6001600160a01b039590951685526020850193909352604084019190915260608301521515608082015260a00190565b6020808252825182820181905260009190848201906040850190845b818110156140295783518352928401929184019160010161400d565b50909695505050505050565b901515815260200190565b90815260200190565b918252602082015260400190565b9283526020830191909152604082015260600190565b6040518181016001600160401b038111828210171561408857fe5b604052919050565b60006001600160401b038211156140a357fe5b5060209081020190565b6001600160a01b03811681146140c257600080fd5b50565b80151581146140c257600080fdfe536166654d6174683a206d756c7469706c69636174696f6e206f766572666c6f77a26469706673582212208b219ab67a44789b4404a43d09e705c49363208b81c6d8bf8b430b06f63ec6a364736f6c63430007060033",
  "linkReferences": {},
  "deployedLinkReferences": {}
}