{
  "_format": "hh-sol-artifact-1",
  "contractName": "PhlpManager",
  "sourceName": "contracts/protocol/core/PhlpManager.sol",
  "abi": [
    {
      "inputs": [
        {
          "internalType": "address",
          "name": "_vault",
          "type": "address"
        },
        {
          "internalType": "address",
          "name": "_usdph",
          "type": "address"
        },
        {
          "internalType": "address",
          "name": "_phlp",
          "type": "address"
        },
        {
          "internalType": "address",
          "name": "_weth",
          "type": "address"
        },
        {
          "internalType": "uint256",
          "name": "_cooldownDuration",
          "type": "uint256"
        }
      ],
      "stateMutability": "nonpayable",
      "type": "constructor"
    },
    {
      "anonymous": false,
      "inputs": [
        {
          "indexed": false,
          "internalType": "address",
          "name": "account",
          "type": "address"
        },
        {
          "indexed": false,
          "internalType": "address",
          "name": "token",
          "type": "address"
        },
        {
          "indexed": false,
          "internalType": "uint256",
          "name": "amount",
          "type": "uint256"
        },
        {
          "indexed": false,
          "internalType": "uint256",
          "name": "aumInUsdph",
          "type": "uint256"
        },
        {
          "indexed": false,
          "internalType": "uint256",
          "name": "phlpSupply",
          "type": "uint256"
        },
        {
          "indexed": false,
          "internalType": "uint256",
          "name": "usdphAmount",
          "type": "uint256"
        },
        {
          "indexed": false,
          "internalType": "uint256",
          "name": "mintAmount",
          "type": "uint256"
        }
      ],
      "name": "AddLiquidity",
      "type": "event"
    },
    {
      "anonymous": false,
      "inputs": [
        {
          "indexed": true,
          "internalType": "address",
          "name": "previousOwner",
          "type": "address"
        },
        {
          "indexed": true,
          "internalType": "address",
          "name": "newOwner",
          "type": "address"
        }
      ],
      "name": "OwnershipTransferred",
      "type": "event"
    },
    {
      "anonymous": false,
      "inputs": [
        {
          "indexed": false,
          "internalType": "address",
          "name": "account",
          "type": "address"
        },
        {
          "indexed": false,
          "internalType": "address",
          "name": "token",
          "type": "address"
        },
        {
          "indexed": false,
          "internalType": "uint256",
          "name": "phlpAmount",
          "type": "uint256"
        },
        {
          "indexed": false,
          "internalType": "uint256",
          "name": "aumInUsdph",
          "type": "uint256"
        },
        {
          "indexed": false,
          "internalType": "uint256",
          "name": "phlpSupply",
          "type": "uint256"
        },
        {
          "indexed": false,
          "internalType": "uint256",
          "name": "usdphAmount",
          "type": "uint256"
        },
        {
          "indexed": false,
          "internalType": "uint256",
          "name": "amountOut",
          "type": "uint256"
        }
      ],
      "name": "RemoveLiquidity",
      "type": "event"
    },
    {
      "inputs": [],
      "name": "MAX_COOLDOWN_DURATION",
      "outputs": [
        {
          "internalType": "uint256",
          "name": "",
          "type": "uint256"
        }
      ],
      "stateMutability": "view",
      "type": "function"
    },
    {
      "inputs": [],
      "name": "PRICE_PRECISION",
      "outputs": [
        {
          "internalType": "uint256",
          "name": "",
          "type": "uint256"
        }
      ],
      "stateMutability": "view",
      "type": "function"
    },
    {
      "inputs": [],
      "name": "USDPH_DECIMALS",
      "outputs": [
        {
          "internalType": "uint256",
          "name": "",
          "type": "uint256"
        }
      ],
      "stateMutability": "view",
      "type": "function"
    },
    {
      "inputs": [
        {
          "internalType": "address",
          "name": "_token",
          "type": "address"
        },
        {
          "internalType": "uint256",
          "name": "_amount",
          "type": "uint256"
        },
        {
          "internalType": "uint256",
          "name": "_minUsdph",
          "type": "uint256"
        },
        {
          "internalType": "uint256",
          "name": "_minPhlp",
          "type": "uint256"
        }
      ],
      "name": "addLiquidity",
      "outputs": [
        {
          "internalType": "uint256",
          "name": "",
          "type": "uint256"
        }
      ],
      "stateMutability": "nonpayable",
      "type": "function"
    },
    {
      "inputs": [
        {
          "internalType": "uint256",
          "name": "_minUsdph",
          "type": "uint256"
        },
        {
          "internalType": "uint256",
          "name": "_minPhlp",
          "type": "uint256"
        }
      ],
      "name": "addLiquidityETH",
      "outputs": [
        {
          "internalType": "uint256",
          "name": "",
          "type": "uint256"
        }
      ],
      "stateMutability": "payable",
      "type": "function"
    },
    {
      "inputs": [],
      "name": "aumAddition",
      "outputs": [
        {
          "internalType": "uint256",
          "name": "",
          "type": "uint256"
        }
      ],
      "stateMutability": "view",
      "type": "function"
    },
    {
      "inputs": [],
      "name": "aumDeduction",
      "outputs": [
        {
          "internalType": "uint256",
          "name": "",
          "type": "uint256"
        }
      ],
      "stateMutability": "view",
      "type": "function"
    },
    {
      "inputs": [],
      "name": "cooldownDuration",
      "outputs": [
        {
          "internalType": "uint256",
          "name": "",
          "type": "uint256"
        }
      ],
      "stateMutability": "view",
      "type": "function"
    },
    {
      "inputs": [
        {
          "internalType": "bool",
          "name": "maximise",
          "type": "bool"
        }
      ],
      "name": "getAum",
      "outputs": [
        {
          "internalType": "uint256",
          "name": "",
          "type": "uint256"
        }
      ],
      "stateMutability": "view",
      "type": "function"
    },
    {
      "inputs": [
        {
          "internalType": "bool",
          "name": "maximise",
          "type": "bool"
        }
      ],
      "name": "getAumInUsdph",
      "outputs": [
        {
          "internalType": "uint256",
          "name": "",
          "type": "uint256"
        }
      ],
      "stateMutability": "view",
      "type": "function"
    },
    {
      "inputs": [],
      "name": "getAums",
      "outputs": [
        {
          "internalType": "uint256[]",
          "name": "",
          "type": "uint256[]"
        }
      ],
      "stateMutability": "view",
      "type": "function"
    },
    {
      "inputs": [
        {
          "internalType": "address",
          "name": "",
          "type": "address"
        }
      ],
      "name": "lastAddedAt",
      "outputs": [
        {
          "internalType": "uint256",
          "name": "",
          "type": "uint256"
        }
      ],
      "stateMutability": "view",
      "type": "function"
    },
    {
      "inputs": [],
      "name": "owner",
      "outputs": [
        {
          "internalType": "address",
          "name": "",
          "type": "address"
        }
      ],
      "stateMutability": "view",
      "type": "function"
    },
    {
      "inputs": [],
      "name": "phlp",
      "outputs": [
        {
          "internalType": "address",
          "name": "",
          "type": "address"
        }
      ],
      "stateMutability": "view",
      "type": "function"
    },
    {
      "inputs": [
        {
          "internalType": "address",
          "name": "_tokenOut",
          "type": "address"
        },
        {
          "internalType": "uint256",
          "name": "_phlpAmount",
          "type": "uint256"
        },
        {
          "internalType": "uint256",
          "name": "_minOut",
          "type": "uint256"
        },
        {
          "internalType": "address",
          "name": "_receiver",
          "type": "address"
        }
      ],
      "name": "removeLiquidity",
      "outputs": [
        {
          "internalType": "uint256",
          "name": "",
          "type": "uint256"
        }
      ],
      "stateMutability": "nonpayable",
      "type": "function"
    },
    {
      "inputs": [
        {
          "internalType": "uint256",
          "name": "_phlpAmount",
          "type": "uint256"
        },
        {
          "internalType": "uint256",
          "name": "_minOut",
          "type": "uint256"
        },
        {
          "internalType": "address payable",
          "name": "_receiver",
          "type": "address"
        }
      ],
      "name": "removeLiquidityETH",
      "outputs": [
        {
          "internalType": "uint256",
          "name": "",
          "type": "uint256"
        }
      ],
      "stateMutability": "nonpayable",
      "type": "function"
    },
    {
      "inputs": [],
      "name": "renounceOwnership",
      "outputs": [],
      "stateMutability": "nonpayable",
      "type": "function"
    },
    {
      "inputs": [
        {
          "internalType": "uint256",
          "name": "_aumAddition",
          "type": "uint256"
        },
        {
          "internalType": "uint256",
          "name": "_aumDeduction",
          "type": "uint256"
        }
      ],
      "name": "setAumAdjustment",
      "outputs": [],
      "stateMutability": "nonpayable",
      "type": "function"
    },
    {
      "inputs": [
        {
          "internalType": "uint256",
          "name": "_cooldownDuration",
          "type": "uint256"
        }
      ],
      "name": "setCooldownDuration",
      "outputs": [],
      "stateMutability": "nonpayable",
      "type": "function"
    },
    {
      "inputs": [
        {
          "internalType": "address",
          "name": "newOwner",
          "type": "address"
        }
      ],
      "name": "transferOwnership",
      "outputs": [],
      "stateMutability": "nonpayable",
      "type": "function"
    },
    {
      "inputs": [],
      "name": "usdph",
      "outputs": [
        {
          "internalType": "address",
          "name": "",
          "type": "address"
        }
      ],
      "stateMutability": "view",
      "type": "function"
    },
    {
      "inputs": [],
      "name": "vault",
      "outputs": [
        {
          "internalType": "contract IVault",
          "name": "",
          "type": "address"
        }
      ],
      "stateMutability": "view",
      "type": "function"
    },
    {
      "inputs": [],
      "name": "weth",
      "outputs": [
        {
          "internalType": "address",
          "name": "",
          "type": "address"
        }
      ],
      "stateMutability": "view",
      "type": "function"
    },
    {
      "stateMutability": "payable",
      "type": "receive"
    }
  ],
  "bytecode": "0x608060405234801561001057600080fd5b50604051612548380380612548833981810160405260a081101561003357600080fd5b5080516020820151604083015160608401516080909401516001600090815593949293919291610061610105565b600180546001600160a01b0319166001600160a01b038316908117909155604051919250906000907f8be0079c531659141344cd1fd0a4f28419497f9722a3daafe3b4186f6b6457e0908290a350600280546001600160a01b03199081166001600160a01b03978816179091556003805482169587169590951790945560048054851693861693909317909255600580549093169316929092179055600655610109565b3390565b612430806101186000396000f3fe6080604052600436106101445760003560e01c80638b770e11116100b6578063966be0751161006f578063966be07514610443578063ad15c5561461046d578063b172bb0c14610482578063ed0d1c0414610497578063f2fde38b146104fc578063fbfa77cf1461052f576101aa565b80638b770e111461034c5780638da5cb5b1461037f5780638fed0b2c146103945780638ffc80a1146103db5780639116c4ae146103fe57806395082d251461042e576101aa565b80631e9049cf116101085780631e9049cf146102875780631ece366a1461029c57806335269315146102e15780633fc8cef3146102f65780636bd3b5a31461030b578063715018a614610337576101aa565b806303391476146101af57806303563e67146101ed578063124e61c6146102025780631352adce14610241578063196b68cb14610272576101aa565b366101aa576005546001600160a01b031633146101a8576040805162461bcd60e51b815260206004820152601b60248201527f50686c704d616e616765723a20696e76616c69642073656e6465720000000000604482015290519081900360640190fd5b005b600080fd5b3480156101bb57600080fd5b506101db600480360360208110156101d257600080fd5b50351515610544565b60408051918252519081900360200190f35b3480156101f957600080fd5b506101db610c65565b34801561020e57600080fd5b506101db6004803603606081101561022557600080fd5b50803590602081013590604001356001600160a01b0316610c6a565b34801561024d57600080fd5b50610256610d5c565b604080516001600160a01b039092168252519081900360200190f35b34801561027e57600080fd5b506101db610d6b565b34801561029357600080fd5b506101db610d71565b3480156102a857600080fd5b506101db600480360360808110156102bf57600080fd5b506001600160a01b038135169060208101359060408101359060600135610d78565b3480156102ed57600080fd5b506101db610e3b565b34801561030257600080fd5b50610256610e41565b34801561031757600080fd5b506101db6004803603602081101561032e57600080fd5b50351515610e50565b34801561034357600080fd5b506101a8610e88565b34801561035857600080fd5b506101db6004803603602081101561036f57600080fd5b50356001600160a01b0316610f34565b34801561038b57600080fd5b50610256610f46565b3480156103a057600080fd5b506101db600480360360808110156103b757600080fd5b506001600160a01b0381358116916020810135916040820135916060013516610f55565b6101db600480360360408110156103f157600080fd5b5080359060200135610faf565b34801561040a57600080fd5b506101a86004803603604081101561042157600080fd5b50803590602001356110d1565b34801561043a57600080fd5b506101db61113e565b34801561044f57600080fd5b506101a86004803603602081101561046657600080fd5b503561114f565b34801561047957600080fd5b506102566111f8565b34801561048e57600080fd5b506101db611207565b3480156104a357600080fd5b506104ac61120d565b60408051602080825283518183015283519192839290830191858101910280838360005b838110156104e85781810151838201526020016104d0565b505050509050019250505060405180910390f35b34801561050857600080fd5b506101a86004803603602081101561051f57600080fd5b50356001600160a01b031661127c565b34801561053b57600080fd5b5061025661137f565b600080600260009054906101000a90046001600160a01b03166001600160a01b0316630842b0766040518163ffffffff1660e01b815260040160206040518083038186803b15801561059557600080fd5b505afa1580156105a9573d6000803e3d6000fd5b505050506040513d60208110156105bf57600080fd5b50516008549091506000805b83811015610c215760025460408051630e468baf60e41b81526004810184905290516000926001600160a01b03169163e468baf0916024808301926020929190829003018186803b15801561061f57600080fd5b505afa158015610633573d6000803e3d6000fd5b505050506040513d602081101561064957600080fd5b505160025460408051630daf9c2160e41b81526001600160a01b0380851660048301529151939450600093919092169163daf9c210916024808301926020929190829003018186803b15801561069e57600080fd5b505afa1580156106b2573d6000803e3d6000fd5b505050506040513d60208110156106c857600080fd5b50519050806106d8575050610c19565b60008861075d57600254604080516340d3096b60e11b81526001600160a01b038681166004830152915191909216916381a612d6916024808301926020929190829003018186803b15801561072c57600080fd5b505afa158015610740573d6000803e3d6000fd5b505050506040513d602081101561075657600080fd5b50516107d7565b60025460408051637092736960e11b81526001600160a01b0386811660048301529151919092169163e124e6d2916024808301926020929190829003018186803b1580156107aa57600080fd5b505afa1580156107be573d6000803e3d6000fd5b505050506040513d60208110156107d457600080fd5b50515b600254604080516352f55eed60e01b81526001600160a01b038781166004830152915193945060009391909216916352f55eed916024808301926020929190829003018186803b15801561082a57600080fd5b505afa15801561083e573d6000803e3d6000fd5b505050506040513d602081101561085457600080fd5b5051600254604080516323b95ceb60e21b81526001600160a01b03888116600483015291519394506000939190921691638ee573ac916024808301926020929190829003018186803b1580156108a957600080fd5b505afa1580156108bd573d6000803e3d6000fd5b505050506040513d60208110156108d357600080fd5b5051600254604080516342b60b0360e01b81526001600160a01b03898116600483015291519394509116916342b60b0391602480820192602092909190829003018186803b15801561092457600080fd5b505afa158015610938573d6000803e3d6000fd5b505050506040513d602081101561094e57600080fd5b50511561097e57610977610970600a83900a61096a858761138e565b906113f0565b8990611457565b9750610c13565b6002546040805163114f1b5560e31b81526001600160a01b03888116600483015291516000939290921691638a78daa891602480820192602092909190829003018186803b1580156109cf57600080fd5b505afa1580156109e3573d6000803e3d6000fd5b505050506040513d60208110156109f957600080fd5b505190508015610ae25760025460408051636274980360e01b81526001600160a01b03898116600483015291516000939290921691636274980391602480820192602092909190829003018186803b158015610a5457600080fd5b505afa158015610a68573d6000803e3d6000fd5b505050506040513d6020811015610a7e57600080fd5b505190506000858211610a9a57610a9586836114b1565b610aa4565b610aa482876114b1565b90506000610ab68361096a868561138e565b905082871115610ad157610aca8c82611457565b9b50610ade565b610adb8b82611457565b9a505b5050505b6002546040805163783a2b6760e11b81526001600160a01b0389811660048301529151610b6793929092169163f07456ce91602480820192602092909190829003018186803b158015610b3457600080fd5b505afa158015610b48573d6000803e3d6000fd5b505050506040513d6020811015610b5e57600080fd5b50518a90611457565b6002546040805163c3c7b9e960e01b81526001600160a01b038a811660048301529151939c50600093919092169163c3c7b9e9916024808301926020929190829003018186803b158015610bba57600080fd5b505afa158015610bce573d6000803e3d6000fd5b505050506040513d6020811015610be457600080fd5b50519050610c0e610c07600a85900a61096a88610c0189876114b1565b9061138e565b8b90611457565b995050505b50505050505b6001016105cb565b50818111610c3857610c3382826114b1565b610c3b565b60005b91508160095411610c5957600954610c549083906114b1565b610c5c565b60005b95945050505050565b601281565b600060026000541415610cb2576040805162461bcd60e51b815260206004820152601f602482015260008051602061229f833981519152604482015290519081900360640190fd5b60026000908155600554610cd39033906001600160a01b031687873061150e565b60055460408051632e1a7d4d60e01b81526004810184905290519293506001600160a01b0390911691632e1a7d4d9160248082019260009290919082900301818387803b158015610d2357600080fd5b505af1158015610d37573d6000803e3d6000fd5b50610d4f925050506001600160a01b03841682611a9a565b6001600055949350505050565b6003546001600160a01b031681565b60085481565b6202a30081565b600060026000541415610dc0576040805162461bcd60e51b815260206004820152601f602482015260008051602061229f833981519152604482015290519081900360640190fd5b60026000556001600160a01b038516610e20576040805162461bcd60e51b815260206004820152601b60248201527f50686c704d616e616765723a20696e76616c6964205f746f6b656e0000000000604482015290519081900360640190fd5b610e2d3386868686611b84565b600160005595945050505050565b60065481565b6005546001600160a01b031681565b600080610e5c83610544565b9050610e816c0c9f2c9cd04674edea4000000061096a83670de0b6b3a764000061138e565b9392505050565b610e90611f47565b6001600160a01b0316610ea1610f46565b6001600160a01b031614610eea576040805162461bcd60e51b815260206004820181905260248201526000805160206123b1833981519152604482015290519081900360640190fd5b6001546040516000916001600160a01b0316907f8be0079c531659141344cd1fd0a4f28419497f9722a3daafe3b4186f6b6457e0908390a3600180546001600160a01b0319169055565b60076020526000908152604090205481565b6001546001600160a01b031690565b600060026000541415610f9d576040805162461bcd60e51b815260206004820152601f602482015260008051602061229f833981519152604482015290519081900360640190fd5b6002600055610e2d338686868661150e565b600060026000541415610ff7576040805162461bcd60e51b815260206004820152601f602482015260008051602061229f833981519152604482015290519081900360640190fd5b60026000553461104e576040805162461bcd60e51b815260206004820152601e60248201527f50686c704d616e616765723a20696e76616c6964206d73672e76616c75650000604482015290519081900360640190fd5b600560009054906101000a90046001600160a01b03166001600160a01b031663d0e30db0346040518263ffffffff1660e01b81526004016000604051808303818588803b15801561109e57600080fd5b505af11580156110b2573d6000803e3d6000fd5b50505050506110c5336000348686611b84565b60016000559392505050565b6110d9611f47565b6001600160a01b03166110ea610f46565b6001600160a01b031614611133576040805162461bcd60e51b815260206004820181905260248201526000805160206123b1833981519152604482015290519081900360640190fd5b600891909155600955565b6c0c9f2c9cd04674edea4000000081565b611157611f47565b6001600160a01b0316611168610f46565b6001600160a01b0316146111b1576040805162461bcd60e51b815260206004820181905260248201526000805160206123b1833981519152604482015290519081900360640190fd5b6202a3008111156111f35760405162461bcd60e51b81526004018080602001828103825260268152602001806122e56026913960400191505060405180910390fd5b600655565b6004546001600160a01b031681565b60095481565b6040805160028082526060808301845292600092919060208301908036833701905050905061123c6001610544565b8160008151811061124957fe5b60200260200101818152505061125f6000610544565b8160018151811061126c57fe5b6020908102919091010152905090565b611284611f47565b6001600160a01b0316611295610f46565b6001600160a01b0316146112de576040805162461bcd60e51b815260206004820181905260248201526000805160206123b1833981519152604482015290519081900360640190fd5b6001600160a01b0381166113235760405162461bcd60e51b81526004018080602001828103825260268152602001806122bf6026913960400191505060405180910390fd5b6001546040516001600160a01b038084169216907f8be0079c531659141344cd1fd0a4f28419497f9722a3daafe3b4186f6b6457e090600090a3600180546001600160a01b0319166001600160a01b0392909216919091179055565b6002546001600160a01b031681565b60008261139d575060006113ea565b828202828482816113aa57fe5b04146113e75760405162461bcd60e51b81526004018080602001828103825260218152602001806123906021913960400191505060405180910390fd5b90505b92915050565b6000808211611446576040805162461bcd60e51b815260206004820152601a60248201527f536166654d6174683a206469766973696f6e206279207a65726f000000000000604482015290519081900360640190fd5b81838161144f57fe5b049392505050565b6000828201838110156113e7576040805162461bcd60e51b815260206004820152601b60248201527f536166654d6174683a206164646974696f6e206f766572666c6f770000000000604482015290519081900360640190fd5b600082821115611508576040805162461bcd60e51b815260206004820152601e60248201527f536166654d6174683a207375627472616374696f6e206f766572666c6f770000604482015290519081900360640190fd5b50900390565b6000808411611564576040805162461bcd60e51b815260206004820181905260248201527f50686c704d616e616765723a20696e76616c6964205f70686c70416d6f756e74604482015290519081900360640190fd5b60006115706000610e50565b90506000600460009054906101000a90046001600160a01b03166001600160a01b03166318160ddd6040518163ffffffff1660e01b815260040160206040518083038186803b1580156115c257600080fd5b505afa1580156115d6573d6000803e3d6000fd5b505050506040513d60208110156115ec57600080fd5b5051905060006116008261096a898661138e565b600354604080516370a0823160e01b815230600482015290519293506000926001600160a01b03909216916370a0823191602480820192602092909190829003018186803b15801561165157600080fd5b505afa158015611665573d6000803e3d6000fd5b505050506040513d602081101561167b57600080fd5b5051905080821115611702576003546001600160a01b03166340c10f19306116a385856114b1565b6040518363ffffffff1660e01b815260040180836001600160a01b0316815260200182815260200192505050600060405180830381600087803b1580156116e957600080fd5b505af11580156116fd573d6000803e3d6000fd5b505050505b6004805460408051632770a7eb60e21b81526001600160a01b038e811694820194909452602481018c905290519290911691639dc29fac9160448082019260009290919082900301818387803b15801561175b57600080fd5b505af115801561176f573d6000803e3d6000fd5b50506003546002546040805163a9059cbb60e01b81526001600160a01b03928316600482015260248101889052905191909216935063a9059cbb925060448083019260209291908290030181600087803b1580156117cc57600080fd5b505af11580156117e0573d6000803e3d6000fd5b505050506040513d60208110156117f657600080fd5b50506002546040805163e16314b560e01b815290516000926001600160a01b03169163e16314b5916004808301926020929190829003018186803b15801561183d57600080fd5b505afa158015611851573d6000803e3d6000fd5b505050506040513d602081101561186757600080fd5b50519050838914156118da5760025460408051632413866560e01b8152612710600482015290516001600160a01b039092169163241386659160248082019260009290919082900301818387803b1580156118c157600080fd5b505af11580156118d5573d6000803e3d6000fd5b505050505b60025460408051635bae426360e01b81526001600160a01b038d811660048301528a8116602483015291516000939290921691635bae42639160448082019260209290919082900301818787803b15801561193457600080fd5b505af1158015611948573d6000803e3d6000fd5b505050506040513d602081101561195e57600080fd5b50519050848a14156119d05760025460408051632413866560e01b81526004810185905290516001600160a01b039092169163241386659160248082019260009290919082900301818387803b1580156119b757600080fd5b505af11580156119cb573d6000803e3d6000fd5b505050505b88811015611a25576040805162461bcd60e51b815260206004820181905260248201527f50686c704d616e616765723a20696e73756666696369656e74206f7574707574604482015290519081900360640190fd5b604080516001600160a01b03808f1682528d1660208201528082018c9052606081018890526080810187905260a0810186905260c0810183905290517f87b9679bb9a4944bafa98c267e7cd4a00ab29fed48afdefae25f0fca5da279409181900360e00190a19b9a5050505050505050505050565b80471015611aef576040805162461bcd60e51b815260206004820152601d60248201527f416464726573733a20696e73756666696369656e742062616c616e6365000000604482015290519081900360640190fd5b6040516000906001600160a01b0384169083908381818185875af1925050503d8060008114611b3a576040519150601f19603f3d011682016040523d82523d6000602084013e611b3f565b606091505b5050905080611b7f5760405162461bcd60e51b815260040180806020018281038252603a81526020018061230b603a913960400191505060405180910390fd5b505050565b6000808411611bda576040805162461bcd60e51b815260206004820152601c60248201527f50686c704d616e616765723a20696e76616c6964205f616d6f756e7400000000604482015290519081900360640190fd5b6000611be66001610e50565b90506000600460009054906101000a90046001600160a01b03166001600160a01b03166318160ddd6040518163ffffffff1660e01b815260040160206040518083038186803b158015611c3857600080fd5b505afa158015611c4c573d6000803e3d6000fd5b505050506040513d6020811015611c6257600080fd5b505190506001600160a01b038716611d0c576005546002546040805163a9059cbb60e01b81526001600160a01b039283166004820152602481018a90529051919092169163a9059cbb9160448083019260209291908290030181600087803b158015611ccd57600080fd5b505af1158015611ce1573d6000803e3d6000fd5b505050506040513d6020811015611cf757600080fd5b50506005546001600160a01b03169650611d28565b600254611d28906001600160a01b03898116918b911689611f4b565b60025460408051635da69ed760e01b81526001600160a01b038a8116600483015230602483015291516000939290921691635da69ed79160448082019260209290919082900301818787803b158015611d8057600080fd5b505af1158015611d94573d6000803e3d6000fd5b505050506040513d6020811015611daa57600080fd5b5051905085811015611ded5760405162461bcd60e51b81526004018080602001828103825260268152602001806122796026913960400191505060405180910390fd5b60008315611e0857611e038461096a848661138e565b611e0a565b815b905085811015611e4b5760405162461bcd60e51b815260040180806020018281038252602581526020018061236b6025913960400191505060405180910390fd5b60048054604080516340c10f1960e01b81526001600160a01b038e81169482019490945260248101859052905192909116916340c10f199160448082019260009290919082900301818387803b158015611ea457600080fd5b505af1158015611eb8573d6000803e3d6000fd5b5050506001600160a01b03808c166000818152600760209081526040918290204290558151928352928d16928201929092528082018b9052606081018790526080810186905260a0810185905260c0810184905290517f38dc38b96482be64113daffd8d464ebda93e856b70ccfc605e69ccf892ab981e92509081900360e00190a19998505050505050505050565b3390565b604080516001600160a01b0380861660248301528416604482015260648082018490528251808303909101815260849091019091526020810180516001600160e01b03166323b872dd60e01b179052611fa5908590611fab565b50505050565b6000612000826040518060400160405280602081526020017f5361666545524332303a206c6f772d6c6576656c2063616c6c206661696c6564815250856001600160a01b031661205c9092919063ffffffff16565b805190915015611b7f5780806020019051602081101561201f57600080fd5b5051611b7f5760405162461bcd60e51b815260040180806020018281038252602a8152602001806123d1602a913960400191505060405180910390fd5b606061206b8484600085612073565b949350505050565b6060824710156120b45760405162461bcd60e51b81526004018080602001828103825260268152602001806123456026913960400191505060405180910390fd5b6120bd856121ce565b61210e576040805162461bcd60e51b815260206004820152601d60248201527f416464726573733a2063616c6c20746f206e6f6e2d636f6e7472616374000000604482015290519081900360640190fd5b600080866001600160a01b031685876040518082805190602001908083835b6020831061214c5780518252601f19909201916020918201910161212d565b6001836020036101000a03801982511681845116808217855250505050505090500191505060006040518083038185875af1925050503d80600081146121ae576040519150601f19603f3d011682016040523d82523d6000602084013e6121b3565b606091505b50915091506121c38282866121d4565b979650505050505050565b3b151590565b606083156121e3575081610e81565b8251156121f35782518084602001fd5b8160405162461bcd60e51b81526004018080602001828103825283818151815260200191508051906020019080838360005b8381101561223d578181015183820152602001612225565b50505050905090810190601f16801561226a5780820380516001836020036101000a031916815260200191505b509250505060405180910390fdfe50686c704d616e616765723a20696e73756666696369656e74205553445048206f75747075745265656e7472616e637947756172643a207265656e7472616e742063616c6c004f776e61626c653a206e6577206f776e657220697320746865207a65726f206164647265737350686c704d616e616765723a20696e76616c6964205f636f6f6c646f776e4475726174696f6e416464726573733a20756e61626c6520746f2073656e642076616c75652c20726563697069656e74206d61792068617665207265766572746564416464726573733a20696e73756666696369656e742062616c616e636520666f722063616c6c50686c704d616e616765723a20696e73756666696369656e742050484c50206f7574707574536166654d6174683a206d756c7469706c69636174696f6e206f766572666c6f774f776e61626c653a2063616c6c6572206973206e6f7420746865206f776e65725361666545524332303a204552433230206f7065726174696f6e20646964206e6f742073756363656564a2646970667358221220f597951c856ae0bc5a9f62a6c63da3e287db06f2970dc0ae8bbfc3ae75d2f64064736f6c63430007060033",
  "linkReferences": {},
  "deployedLinkReferences": {}
}