{
  "_format": "hh-sol-artifact-1",
  "contractName": "PhlpManager",
  "sourceName": "contracts/protocol/core/PhlpManager.sol",
  "abi": [
    {
      "inputs": [
        {
          "internalType": "contract IAddressesProvider",
          "name": "addressesProvider_",
          "type": "address"
        },
        {
          "internalType": "address",
          "name": "_weth",
          "type": "address"
        },
        {
          "internalType": "uint256",
          "name": "_cooldownDuration",
          "type": "uint256"
        }
      ],
      "stateMutability": "nonpayable",
      "type": "constructor"
    },
    {
      "anonymous": false,
      "inputs": [
        {
          "indexed": false,
          "internalType": "address",
          "name": "account",
          "type": "address"
        },
        {
          "indexed": false,
          "internalType": "address",
          "name": "token",
          "type": "address"
        },
        {
          "indexed": false,
          "internalType": "uint256",
          "name": "amount",
          "type": "uint256"
        },
        {
          "indexed": false,
          "internalType": "uint256",
          "name": "aumInUsdph",
          "type": "uint256"
        },
        {
          "indexed": false,
          "internalType": "uint256",
          "name": "phlpSupply",
          "type": "uint256"
        },
        {
          "indexed": false,
          "internalType": "uint256",
          "name": "usdphAmount",
          "type": "uint256"
        },
        {
          "indexed": false,
          "internalType": "uint256",
          "name": "mintAmount",
          "type": "uint256"
        }
      ],
      "name": "AddLiquidity",
      "type": "event"
    },
    {
      "anonymous": false,
      "inputs": [
        {
          "indexed": true,
          "internalType": "address",
          "name": "previousOwner",
          "type": "address"
        },
        {
          "indexed": true,
          "internalType": "address",
          "name": "newOwner",
          "type": "address"
        }
      ],
      "name": "OwnershipTransferred",
      "type": "event"
    },
    {
      "anonymous": false,
      "inputs": [
        {
          "indexed": false,
          "internalType": "address",
          "name": "account",
          "type": "address"
        },
        {
          "indexed": false,
          "internalType": "address",
          "name": "token",
          "type": "address"
        },
        {
          "indexed": false,
          "internalType": "uint256",
          "name": "phlpAmount",
          "type": "uint256"
        },
        {
          "indexed": false,
          "internalType": "uint256",
          "name": "aumInUsdph",
          "type": "uint256"
        },
        {
          "indexed": false,
          "internalType": "uint256",
          "name": "phlpSupply",
          "type": "uint256"
        },
        {
          "indexed": false,
          "internalType": "uint256",
          "name": "usdphAmount",
          "type": "uint256"
        },
        {
          "indexed": false,
          "internalType": "uint256",
          "name": "amountOut",
          "type": "uint256"
        }
      ],
      "name": "RemoveLiquidity",
      "type": "event"
    },
    {
      "inputs": [],
      "name": "MAX_COOLDOWN_DURATION",
      "outputs": [
        {
          "internalType": "uint256",
          "name": "",
          "type": "uint256"
        }
      ],
      "stateMutability": "view",
      "type": "function"
    },
    {
      "inputs": [],
      "name": "PRICE_PRECISION",
      "outputs": [
        {
          "internalType": "uint256",
          "name": "",
          "type": "uint256"
        }
      ],
      "stateMutability": "view",
      "type": "function"
    },
    {
      "inputs": [],
      "name": "USDPH_DECIMALS",
      "outputs": [
        {
          "internalType": "uint256",
          "name": "",
          "type": "uint256"
        }
      ],
      "stateMutability": "view",
      "type": "function"
    },
    {
      "inputs": [
        {
          "internalType": "address",
          "name": "_token",
          "type": "address"
        },
        {
          "internalType": "uint256",
          "name": "_amount",
          "type": "uint256"
        },
        {
          "internalType": "uint256",
          "name": "_minUsdph",
          "type": "uint256"
        },
        {
          "internalType": "uint256",
          "name": "_minPhlp",
          "type": "uint256"
        }
      ],
      "name": "addLiquidity",
      "outputs": [
        {
          "internalType": "uint256",
          "name": "",
          "type": "uint256"
        }
      ],
      "stateMutability": "nonpayable",
      "type": "function"
    },
    {
      "inputs": [
        {
          "internalType": "uint256",
          "name": "_minUsdph",
          "type": "uint256"
        },
        {
          "internalType": "uint256",
          "name": "_minPhlp",
          "type": "uint256"
        }
      ],
      "name": "addLiquidityETH",
      "outputs": [
        {
          "internalType": "uint256",
          "name": "",
          "type": "uint256"
        }
      ],
      "stateMutability": "payable",
      "type": "function"
    },
    {
      "inputs": [],
      "name": "addressesProvider",
      "outputs": [
        {
          "internalType": "contract IAddressesProvider",
          "name": "",
          "type": "address"
        }
      ],
      "stateMutability": "view",
      "type": "function"
    },
    {
      "inputs": [],
      "name": "aumAddition",
      "outputs": [
        {
          "internalType": "uint256",
          "name": "",
          "type": "uint256"
        }
      ],
      "stateMutability": "view",
      "type": "function"
    },
    {
      "inputs": [],
      "name": "aumDeduction",
      "outputs": [
        {
          "internalType": "uint256",
          "name": "",
          "type": "uint256"
        }
      ],
      "stateMutability": "view",
      "type": "function"
    },
    {
      "inputs": [],
      "name": "cooldownDuration",
      "outputs": [
        {
          "internalType": "uint256",
          "name": "",
          "type": "uint256"
        }
      ],
      "stateMutability": "view",
      "type": "function"
    },
    {
      "inputs": [
        {
          "internalType": "bool",
          "name": "maximise",
          "type": "bool"
        }
      ],
      "name": "getAum",
      "outputs": [
        {
          "internalType": "uint256",
          "name": "",
          "type": "uint256"
        }
      ],
      "stateMutability": "view",
      "type": "function"
    },
    {
      "inputs": [
        {
          "internalType": "bool",
          "name": "maximise",
          "type": "bool"
        }
      ],
      "name": "getAumInUsdph",
      "outputs": [
        {
          "internalType": "uint256",
          "name": "",
          "type": "uint256"
        }
      ],
      "stateMutability": "view",
      "type": "function"
    },
    {
      "inputs": [],
      "name": "getAums",
      "outputs": [
        {
          "internalType": "uint256[]",
          "name": "",
          "type": "uint256[]"
        }
      ],
      "stateMutability": "view",
      "type": "function"
    },
    {
      "inputs": [
        {
          "internalType": "address",
          "name": "",
          "type": "address"
        }
      ],
      "name": "lastAddedAt",
      "outputs": [
        {
          "internalType": "uint256",
          "name": "",
          "type": "uint256"
        }
      ],
      "stateMutability": "view",
      "type": "function"
    },
    {
      "inputs": [],
      "name": "owner",
      "outputs": [
        {
          "internalType": "address",
          "name": "",
          "type": "address"
        }
      ],
      "stateMutability": "view",
      "type": "function"
    },
    {
      "inputs": [
        {
          "internalType": "address",
          "name": "_tokenOut",
          "type": "address"
        },
        {
          "internalType": "uint256",
          "name": "_phlpAmount",
          "type": "uint256"
        },
        {
          "internalType": "uint256",
          "name": "_minOut",
          "type": "uint256"
        },
        {
          "internalType": "address",
          "name": "_receiver",
          "type": "address"
        }
      ],
      "name": "removeLiquidity",
      "outputs": [
        {
          "internalType": "uint256",
          "name": "",
          "type": "uint256"
        }
      ],
      "stateMutability": "nonpayable",
      "type": "function"
    },
    {
      "inputs": [
        {
          "internalType": "uint256",
          "name": "_phlpAmount",
          "type": "uint256"
        },
        {
          "internalType": "uint256",
          "name": "_minOut",
          "type": "uint256"
        },
        {
          "internalType": "address payable",
          "name": "_receiver",
          "type": "address"
        }
      ],
      "name": "removeLiquidityETH",
      "outputs": [
        {
          "internalType": "uint256",
          "name": "",
          "type": "uint256"
        }
      ],
      "stateMutability": "nonpayable",
      "type": "function"
    },
    {
      "inputs": [],
      "name": "renounceOwnership",
      "outputs": [],
      "stateMutability": "nonpayable",
      "type": "function"
    },
    {
      "inputs": [
        {
          "internalType": "uint256",
          "name": "_aumAddition",
          "type": "uint256"
        },
        {
          "internalType": "uint256",
          "name": "_aumDeduction",
          "type": "uint256"
        }
      ],
      "name": "setAumAdjustment",
      "outputs": [],
      "stateMutability": "nonpayable",
      "type": "function"
    },
    {
      "inputs": [
        {
          "internalType": "uint256",
          "name": "_cooldownDuration",
          "type": "uint256"
        }
      ],
      "name": "setCooldownDuration",
      "outputs": [],
      "stateMutability": "nonpayable",
      "type": "function"
    },
    {
      "inputs": [
        {
          "internalType": "address",
          "name": "newOwner",
          "type": "address"
        }
      ],
      "name": "transferOwnership",
      "outputs": [],
      "stateMutability": "nonpayable",
      "type": "function"
    },
    {
      "inputs": [],
      "name": "weth",
      "outputs": [
        {
          "internalType": "address",
          "name": "",
          "type": "address"
        }
      ],
      "stateMutability": "view",
      "type": "function"
    },
    {
      "stateMutability": "payable",
      "type": "receive"
    }
  ],
  "bytecode": "0x60806040523480156200001157600080fd5b5060405162002b7b38038062002b7b8339810160408190526200003491620000d0565b6001600090815562000045620000cc565b600180546001600160a01b0319166001600160a01b038316908117909155604051919250906000907f8be0079c531659141344cd1fd0a4f28419497f9722a3daafe3b4186f6b6457e0908290a350600280546001600160a01b039485166001600160a01b031991821617909155600380549390941692169190911790915560045562000130565b3390565b600080600060608486031215620000e5578283fd5b8351620000f28162000117565b6020850151909350620001058162000117565b80925050604084015190509250925092565b6001600160a01b03811681146200012d57600080fd5b50565b612a3b80620001406000396000f3fe60806040526004361061012e5760003560e01c80638b770e11116100ab57806395082d251161006f57806395082d2514610316578063966be0751461032b578063b172bb0c1461034b578063c72c4d1014610360578063ed0d1c0414610375578063f2fde38b1461039757610168565b80638b770e111461028e5780638da5cb5b146102ae5780638fed0b2c146102c35780638ffc80a1146102e35780639116c4ae146102f657610168565b80631ece366a116100f25780631ece366a1461020257806335269315146102225780633fc8cef3146102375780636bd3b5a314610259578063715018a61461027957610168565b8063033914761461016d57806303563e67146101a3578063124e61c6146101b8578063196b68cb146101d85780631e9049cf146101ed57610168565b36610168576003546001600160a01b031633146101665760405162461bcd60e51b815260040161015d90612710565b60405180910390fd5b005b600080fd5b34801561017957600080fd5b5061018d61018836600461234f565b6103b7565b60405161019a919061268a565b60405180910390f35b3480156101af57600080fd5b5061018d610a7e565b3480156101c457600080fd5b5061018d6101d336600461256e565b610a83565b3480156101e457600080fd5b5061018d610b70565b3480156101f957600080fd5b5061018d610b76565b34801561020e57600080fd5b5061018d61021d366004612315565b610b7d565b34801561022e57600080fd5b5061018d610c0b565b34801561024357600080fd5b5061024c610c11565b60405161019a91906125a6565b34801561026557600080fd5b5061018d61027436600461234f565b610c20565b34801561028557600080fd5b50610166610c58565b34801561029a57600080fd5b5061018d6102a9366004612294565b610d04565b3480156102ba57600080fd5b5061024c610d16565b3480156102cf57600080fd5b5061018d6102de3660046122cc565b610d25565b61018d6102f136600461254d565b610d7f565b34801561030257600080fd5b5061016661031136600461254d565b610e6c565b34801561032257600080fd5b5061018d610ed9565b34801561033757600080fd5b5061016661034636600461251d565b610eea565b34801561035757600080fd5b5061018d610f74565b34801561036c57600080fd5b5061024c610f7a565b34801561038157600080fd5b5061038a610f89565b60405161019a9190612646565b3480156103a357600080fd5b506101666103b2366004612294565b610ff8565b600080600260009054906101000a90046001600160a01b03166001600160a01b0316638d928af86040518163ffffffff1660e01b815260040160206040518083038186803b15801561040857600080fd5b505afa15801561041c573d6000803e3d6000fd5b505050506040513d601f19601f8201168201806040525081019061044091906122b0565b90506000816001600160a01b0316630842b0766040518163ffffffff1660e01b815260040160206040518083038186803b15801561047d57600080fd5b505afa158015610491573d6000803e3d6000fd5b505050506040513d601f19601f820116820180604052508101906104b59190612535565b6006549091506000805b83811015610a3757604051630e468baf60e41b81526000906001600160a01b0387169063e468baf0906104f690859060040161268a565b60206040518083038186803b15801561050e57600080fd5b505afa158015610522573d6000803e3d6000fd5b505050506040513d601f19601f8201168201806040525081019061054691906122b0565b90506000866001600160a01b031663cb67e3b1836040518263ffffffff1660e01b815260040161057691906125a6565b6101206040518083038186803b15801561058f57600080fd5b505afa1580156105a3573d6000803e3d6000fd5b505050506040513d601f19601f820116820180604052508101906105c79190612387565b90506000600260009054906101000a90046001600160a01b03166001600160a01b031663fca513a86040518163ffffffff1660e01b815260040160206040518083038186803b15801561061957600080fd5b505afa15801561062d573d6000803e3d6000fd5b505050506040513d601f19601f8201168201806040525081019061065191906122b0565b6001600160a01b03166376d69760848c6040518363ffffffff1660e01b815260040161067e92919061262b565b60206040518083038186803b15801561069657600080fd5b505afa1580156106aa573d6000803e3d6000fd5b505050506040513d601f19601f820116820180604052508101906106ce9190612535565b90506000886001600160a01b03166352f55eed856040518263ffffffff1660e01b81526004016106fe91906125a6565b60206040518083038186803b15801561071657600080fd5b505afa15801561072a573d6000803e3d6000fd5b505050506040513d601f19601f8201168201806040525081019061074e9190612535565b602084015160a0850151919250901561078a5761078361077c600a83900a61077685876110fb565b9061115d565b89906111c4565b9750610a26565b60405163114f1b5560e31b81526000906001600160a01b038c1690638a78daa8906107b99089906004016125a6565b60206040518083038186803b1580156107d157600080fd5b505afa1580156107e5573d6000803e3d6000fd5b505050506040513d601f19601f820116820180604052508101906108099190612535565b905080156108f257604051636274980360e01b81526000906001600160a01b038d1690636274980390610840908a906004016125a6565b60206040518083038186803b15801561085857600080fd5b505afa15801561086c573d6000803e3d6000fd5b505050506040513d601f19601f820116820180604052508101906108909190612535565b905060008582116108aa576108a5868361121e565b6108b4565b6108b4828761121e565b905060006108c68361077686856110fb565b9050828711156108e1576108da8c826111c4565b9b506108ee565b6108eb8b826111c4565b9a505b5050505b60405163783a2b6760e11b8152610979906001600160a01b038d169063f07456ce90610922908a906004016125a6565b60206040518083038186803b15801561093a57600080fd5b505afa15801561094e573d6000803e3d6000fd5b505050506040513d601f19601f820116820180604052508101906109729190612535565b8a906111c4565b985060008b6001600160a01b031663c3c7b9e9886040518263ffffffff1660e01b81526004016109a991906125a6565b60206040518083038186803b1580156109c157600080fd5b505afa1580156109d5573d6000803e3d6000fd5b505050506040513d601f19601f820116820180604052508101906109f99190612535565b9050610a21610a1a600a85900a61077688610a14898761121e565b906110fb565b8b906111c4565b995050505b5050600190930192506104bf915050565b50818111610a4e57610a49828261121e565b610a51565b60005b91508160075411610a6f57600754610a6a90839061121e565b610a72565b60005b9450505050505b919050565b601281565b600060026000541415610acb576040805162461bcd60e51b815260206004820152601f60248201526000805160206128f5833981519152604482015290519081900360640190fd5b60026000908155600354610aec9033906001600160a01b031687873061127b565b600354604051632e1a7d4d60e01b81529192506001600160a01b031690632e1a7d4d90610b1d90849060040161268a565b600060405180830381600087803b158015610b3757600080fd5b505af1158015610b4b573d6000803e3d6000fd5b50610b63925050506001600160a01b03841682611a54565b6001600055949350505050565b60065481565b6202a30081565b600060026000541415610bc5576040805162461bcd60e51b815260206004820152601f60248201526000805160206128f5833981519152604482015290519081900360640190fd5b60026000556001600160a01b038516610bf05760405162461bcd60e51b815260040161015d9061283e565b610bfd3386868686611b3e565b600160005595945050505050565b60045481565b6003546001600160a01b031681565b600080610c2c836103b7565b9050610c516c0c9f2c9cd04674edea4000000061077683670de0b6b3a76400006110fb565b9392505050565b610c60611f58565b6001600160a01b0316610c71610d16565b6001600160a01b031614610cba576040805162461bcd60e51b815260206004820181905260248201526000805160206129bc833981519152604482015290519081900360640190fd5b6001546040516000916001600160a01b0316907f8be0079c531659141344cd1fd0a4f28419497f9722a3daafe3b4186f6b6457e0908390a3600180546001600160a01b0319169055565b60056020526000908152604090205481565b6001546001600160a01b031690565b600060026000541415610d6d576040805162461bcd60e51b815260206004820152601f60248201526000805160206128f5833981519152604482015290519081900360640190fd5b6002600055610bfd338686868661127b565b600060026000541415610dc7576040805162461bcd60e51b815260206004820152601f60248201526000805160206128f5833981519152604482015290519081900360640190fd5b600260005534610de95760405162461bcd60e51b815260040161015d906126d9565b600360009054906101000a90046001600160a01b03166001600160a01b031663d0e30db0346040518263ffffffff1660e01b81526004016000604051808303818588803b158015610e3957600080fd5b505af1158015610e4d573d6000803e3d6000fd5b5050505050610e60336000348686611b3e565b60016000559392505050565b610e74611f58565b6001600160a01b0316610e85610d16565b6001600160a01b031614610ece576040805162461bcd60e51b815260206004820181905260248201526000805160206129bc833981519152604482015290519081900360640190fd5b600691909155600755565b6c0c9f2c9cd04674edea4000000081565b610ef2611f58565b6001600160a01b0316610f03610d16565b6001600160a01b031614610f4c576040805162461bcd60e51b815260206004820181905260248201526000805160206129bc833981519152604482015290519081900360640190fd5b6202a300811115610f6f5760405162461bcd60e51b815260040161015d9061277e565b600455565b60075481565b6002546001600160a01b031681565b60408051600280825260608083018452926000929190602083019080368337019050509050610fb860016103b7565b81600081518110610fc557fe5b602002602001018181525050610fdb60006103b7565b81600181518110610fe857fe5b6020908102919091010152905090565b611000611f58565b6001600160a01b0316611011610d16565b6001600160a01b03161461105a576040805162461bcd60e51b815260206004820181905260248201526000805160206129bc833981519152604482015290519081900360640190fd5b6001600160a01b03811661109f5760405162461bcd60e51b81526004018080602001828103825260268152602001806129156026913960400191505060405180910390fd5b6001546040516001600160a01b038084169216907f8be0079c531659141344cd1fd0a4f28419497f9722a3daafe3b4186f6b6457e090600090a3600180546001600160a01b0319166001600160a01b0392909216919091179055565b60008261110a57506000611157565b8282028284828161111757fe5b04146111545760405162461bcd60e51b815260040180806020018281038252602181526020018061299b6021913960400191505060405180910390fd5b90505b92915050565b60008082116111b3576040805162461bcd60e51b815260206004820152601a60248201527f536166654d6174683a206469766973696f6e206279207a65726f000000000000604482015290519081900360640190fd5b8183816111bc57fe5b049392505050565b600082820183811015611154576040805162461bcd60e51b815260206004820152601b60248201527f536166654d6174683a206164646974696f6e206f766572666c6f770000000000604482015290519081900360640190fd5b600082821115611275576040805162461bcd60e51b815260206004820152601e60248201527f536166654d6174683a207375627472616374696f6e206f766572666c6f770000604482015290519081900360640190fd5b50900390565b600080841161129c5760405162461bcd60e51b815260040161015d90612875565b6002546040805163d759932b60e01b815290516000926001600160a01b03169163d759932b916004808301926020929190829003018186803b1580156112e157600080fd5b505afa1580156112f5573d6000803e3d6000fd5b505050506040513d601f19601f8201168201806040525081019061131991906122b0565b90506000600260009054906101000a90046001600160a01b03166001600160a01b031663fd591dcd6040518163ffffffff1660e01b815260040160206040518083038186803b15801561136b57600080fd5b505afa15801561137f573d6000803e3d6000fd5b505050506040513d601f19601f820116820180604052508101906113a391906122b0565b90506000600260009054906101000a90046001600160a01b03166001600160a01b0316638ad6de4e6040518163ffffffff1660e01b815260040160206040518083038186803b1580156113f557600080fd5b505afa158015611409573d6000803e3d6000fd5b505050506040513d601f19601f8201168201806040525081019061142d91906122b0565b9050600061143b6000610c20565b90506000836001600160a01b03166318160ddd6040518163ffffffff1660e01b815260040160206040518083038186803b15801561147857600080fd5b505afa15801561148c573d6000803e3d6000fd5b505050506040513d601f19601f820116820180604052508101906114b09190612535565b905060006114c2826107768c866110fb565b90506000846001600160a01b03166370a08231306040518263ffffffff1660e01b81526004016114f291906125a6565b60206040518083038186803b15801561150a57600080fd5b505afa15801561151e573d6000803e3d6000fd5b505050506040513d601f19601f820116820180604052508101906115429190612535565b9050808211156115b6576001600160a01b0385166340c10f1930611566858561121e565b6040518363ffffffff1660e01b81526004016115839291906125ba565b600060405180830381600087803b15801561159d57600080fd5b505af11580156115b1573d6000803e3d6000fd5b505050505b856001600160a01b0316639dc29fac8e8d6040518363ffffffff1660e01b81526004016115e49291906125ba565b600060405180830381600087803b1580156115fe57600080fd5b505af1158015611612573d6000803e3d6000fd5b50505050846001600160a01b031663a9059cbb600260009054906101000a90046001600160a01b03166001600160a01b0316638d928af86040518163ffffffff1660e01b815260040160206040518083038186803b15801561167357600080fd5b505afa158015611687573d6000803e3d6000fd5b505050506040513d601f19601f820116820180604052508101906116ab91906122b0565b846040518363ffffffff1660e01b81526004016116c99291906125ba565b602060405180830381600087803b1580156116e357600080fd5b505af11580156116f7573d6000803e3d6000fd5b505050506040513d601f19601f8201168201806040525081019061171b919061236b565b50600254604080516311b2515f60e31b815290516000926001600160a01b031691638d928af8916004808301926020929190829003018186803b15801561176157600080fd5b505afa158015611775573d6000803e3d6000fd5b505050506040513d601f19601f8201168201806040525081019061179991906122b0565b6001600160a01b031663b2a2353e6040518163ffffffff1660e01b81526004016102606040518083038186803b1580156117d257600080fd5b505afa1580156117e6573d6000803e3d6000fd5b505050506040513d601f19601f8201168201806040525081019061180a9190612418565b6101e0015190508b84141561187a57604051632413866560e01b81526001600160a01b03891690632413866590611847906127109060040161268a565b600060405180830381600087803b15801561186157600080fd5b505af1158015611875573d6000803e3d6000fd5b505050505b600254604080516311b2515f60e31b815290516000926001600160a01b031691638d928af8916004808301926020929190829003018186803b1580156118bf57600080fd5b505afa1580156118d3573d6000803e3d6000fd5b505050506040513d601f19601f820116820180604052508101906118f791906122b0565b6001600160a01b0316635bae42638f8d6040518363ffffffff1660e01b81526004016119249291906125d3565b602060405180830381600087803b15801561193e57600080fd5b505af1158015611952573d6000803e3d6000fd5b505050506040513d601f19601f820116820180604052508101906119769190612535565b90508c8514156119df57604051632413866560e01b81526001600160a01b038a16906324138665906119ac90859060040161268a565b600060405180830381600087803b1580156119c657600080fd5b505af11580156119da573d6000803e3d6000fd5b505050505b8b8110156119ff5760405162461bcd60e51b815260040161015d906127c4565b7f87b9679bb9a4944bafa98c267e7cd4a00ab29fed48afdefae25f0fca5da279408f8f8f89898987604051611a3a97969594939291906125ed565b60405180910390a19e9d5050505050505050505050505050565b80471015611aa9576040805162461bcd60e51b815260206004820152601d60248201527f416464726573733a20696e73756666696369656e742062616c616e6365000000604482015290519081900360640190fd5b6040516000906001600160a01b0384169083908381818185875af1925050503d8060008114611af4576040519150601f19603f3d011682016040523d82523d6000602084013e611af9565b606091505b5050905080611b395760405162461bcd60e51b815260040180806020018281038252603a81526020018061293b603a913960400191505060405180910390fd5b505050565b6000808411611b5f5760405162461bcd60e51b815260040161015d90612747565b600254604080516311b2515f60e31b815290516000926001600160a01b031691638d928af8916004808301926020929190829003018186803b158015611ba457600080fd5b505afa158015611bb8573d6000803e3d6000fd5b505050506040513d601f19601f82011682018060405250810190611bdc91906122b0565b90506000600260009054906101000a90046001600160a01b03166001600160a01b031663fd591dcd6040518163ffffffff1660e01b815260040160206040518083038186803b158015611c2e57600080fd5b505afa158015611c42573d6000803e3d6000fd5b505050506040513d601f19601f82011682018060405250810190611c6691906122b0565b90506000611c746001610c20565b90506000826001600160a01b03166318160ddd6040518163ffffffff1660e01b815260040160206040518083038186803b158015611cb157600080fd5b505afa158015611cc5573d6000803e3d6000fd5b505050506040513d601f19601f82011682018060405250810190611ce99190612535565b90506001600160a01b038916611d915760035460405163a9059cbb60e01b81526001600160a01b039091169063a9059cbb90611d2b9087908c906004016125ba565b602060405180830381600087803b158015611d4557600080fd5b505af1158015611d59573d6000803e3d6000fd5b505050506040513d601f19601f82011682018060405250810190611d7d919061236b565b506003546001600160a01b03169850611da6565b611da66001600160a01b038a168b868b611f5c565b604051635da69ed760e01b81526000906001600160a01b03861690635da69ed790611dd7908d9030906004016125d3565b602060405180830381600087803b158015611df157600080fd5b505af1158015611e05573d6000803e3d6000fd5b505050506040513d601f19601f82011682018060405250810190611e299190612535565b905087811015611e4b5760405162461bcd60e51b815260040161015d90612693565b60008315611e6657611e618461077684866110fb565b611e68565b815b905087811015611e8a5760405162461bcd60e51b815260040161015d906127f9565b6040516340c10f1960e01b81526001600160a01b038616906340c10f1990611eb8908f9085906004016125ba565b600060405180830381600087803b158015611ed257600080fd5b505af1158015611ee6573d6000803e3d6000fd5b5050506001600160a01b038d1660009081526005602052604090819020429055517f38dc38b96482be64113daffd8d464ebda93e856b70ccfc605e69ccf892ab981e9150611f41908e908e908e9089908990899089906125ed565b60405180910390a19b9a5050505050505050505050565b3390565b604080516001600160a01b0380861660248301528416604482015260648082018490528251808303909101815260849091019091526020810180516001600160e01b03166323b872dd60e01b179052611fb6908590611fbc565b50505050565b6000612011826040518060400160405280602081526020017f5361666545524332303a206c6f772d6c6576656c2063616c6c206661696c6564815250856001600160a01b031661206d9092919063ffffffff16565b805190915015611b395780806020019051602081101561203057600080fd5b5051611b395760405162461bcd60e51b815260040180806020018281038252602a8152602001806129dc602a913960400191505060405180910390fd5b606061207c8484600085612084565b949350505050565b6060824710156120c55760405162461bcd60e51b81526004018080602001828103825260268152602001806129756026913960400191505060405180910390fd5b6120ce856121df565b61211f576040805162461bcd60e51b815260206004820152601d60248201527f416464726573733a2063616c6c20746f206e6f6e2d636f6e7472616374000000604482015290519081900360640190fd5b600080866001600160a01b031685876040518082805190602001908083835b6020831061215d5780518252601f19909201916020918201910161213e565b6001836020036101000a03801982511681845116808217855250505050505090500191505060006040518083038185875af1925050503d80600081146121bf576040519150601f19603f3d011682016040523d82523d6000602084013e6121c4565b606091505b50915091506121d48282866121e5565b979650505050505050565b3b151590565b606083156121f4575081610c51565b8251156122045782518084602001fd5b8160405162461bcd60e51b81526004018080602001828103825283818151815260200191508051906020019080838360005b8381101561224e578181015183820152602001612236565b50505050905090810190601f16801561227b5780820380516001836020036101000a031916815260200191505b509250505060405180910390fd5b8051610a79816128e6565b6000602082840312156122a5578081fd5b8135611154816128ce565b6000602082840312156122c1578081fd5b8151611154816128ce565b600080600080608085870312156122e1578283fd5b84356122ec816128ce565b93506020850135925060408501359150606085013561230a816128ce565b939692955090935050565b6000806000806080858703121561232a578384fd5b8435612335816128ce565b966020860135965060408601359560600135945092505050565b600060208284031215612360578081fd5b8135611154816128e6565b60006020828403121561237c578081fd5b8151611154816128e6565b600061012080838503121561239a578182fd5b6123a3816128aa565b90506123ae83612289565b8152602083015160208201526040830151604082015260608301516060820152608083015160808201526123e460a08401612289565b60a08201526123f560c08401612289565b60c082015260e08381015190820152610100928301519281019290925250919050565b600061026080838503121561242b578182fd5b612434816128aa565b905061243f83612289565b815261244d60208401612289565b602082015260408301516040820152606083015160608201526080830151608082015260a083015160a082015260c083015160c082015260e083015160e08201526101008084015181830152506101208084015181830152506101408084015181830152506101608084015181830152506101808084015181830152506101a08084015181830152506101c06124e4818501612289565b908201526101e0838101519082015261020080840151908201526102208084015190820152610240928301519281019290925250919050565b60006020828403121561252e578081fd5b5035919050565b600060208284031215612546578081fd5b5051919050565b6000806040838503121561255f578182fd5b50508035926020909101359150565b600080600060608486031215612582578081fd5b8335925060208401359150604084013561259b816128ce565b809150509250925092565b6001600160a01b0391909116815260200190565b6001600160a01b03929092168252602082015260400190565b6001600160a01b0392831681529116602082015260400190565b6001600160a01b03978816815295909616602086015260408501939093526060840191909152608083015260a082015260c081019190915260e00190565b6001600160a01b039290921682521515602082015260400190565b6020808252825182820181905260009190848201906040850190845b8181101561267e57835183529284019291840191600101612662565b50909695505050505050565b90815260200190565b60208082526026908201527f50686c704d616e616765723a20696e73756666696369656e74205553445048206040820152651bdd5d1c1d5d60d21b606082015260800190565b6020808252601e908201527f50686c704d616e616765723a20696e76616c6964206d73672e76616c75650000604082015260600190565b6020808252601b908201527f50686c704d616e616765723a20696e76616c69642073656e6465720000000000604082015260600190565b6020808252601c908201527f50686c704d616e616765723a20696e76616c6964205f616d6f756e7400000000604082015260600190565b60208082526026908201527f50686c704d616e616765723a20696e76616c6964205f636f6f6c646f776e44756040820152653930ba34b7b760d11b606082015260800190565b6020808252818101527f50686c704d616e616765723a20696e73756666696369656e74206f7574707574604082015260600190565b60208082526025908201527f50686c704d616e616765723a20696e73756666696369656e742050484c50206f6040820152641d5d1c1d5d60da1b606082015260800190565b6020808252601b908201527f50686c704d616e616765723a20696e76616c6964205f746f6b656e0000000000604082015260600190565b6020808252818101527f50686c704d616e616765723a20696e76616c6964205f70686c70416d6f756e74604082015260600190565b60405181810167ffffffffffffffff811182821017156128c657fe5b604052919050565b6001600160a01b03811681146128e357600080fd5b50565b80151581146128e357600080fdfe5265656e7472616e637947756172643a207265656e7472616e742063616c6c004f776e61626c653a206e6577206f776e657220697320746865207a65726f2061646472657373416464726573733a20756e61626c6520746f2073656e642076616c75652c20726563697069656e74206d61792068617665207265766572746564416464726573733a20696e73756666696369656e742062616c616e636520666f722063616c6c536166654d6174683a206d756c7469706c69636174696f6e206f766572666c6f774f776e61626c653a2063616c6c6572206973206e6f7420746865206f776e65725361666545524332303a204552433230206f7065726174696f6e20646964206e6f742073756363656564a2646970667358221220a578e02afae23794e29880b53e769296abe46dac040e8244ae5ed58d770efb3b64736f6c63430007060033",
  "linkReferences": {},
  "deployedLinkReferences": {}
}