{
  "_format": "hh-sol-artifact-1",
  "contractName": "PositionManager",
  "sourceName": "contracts/protocol/core/PositionManager.sol",
  "abi": [
    {
      "inputs": [
        {
          "internalType": "contract IAddressesProvider",
          "name": "addressesProvider_",
          "type": "address"
        },
        {
          "internalType": "address",
          "name": "_weth",
          "type": "address"
        },
        {
          "internalType": "uint256",
          "name": "_depositFee",
          "type": "uint256"
        },
        {
          "internalType": "address",
          "name": "treasury",
          "type": "address"
        }
      ],
      "stateMutability": "nonpayable",
      "type": "constructor"
    },
    {
      "anonymous": false,
      "inputs": [
        {
          "indexed": true,
          "internalType": "address",
          "name": "previousOwner",
          "type": "address"
        },
        {
          "indexed": true,
          "internalType": "address",
          "name": "newOwner",
          "type": "address"
        }
      ],
      "name": "OwnershipTransferred",
      "type": "event"
    },
    {
      "anonymous": false,
      "inputs": [
        {
          "indexed": false,
          "internalType": "uint256",
          "name": "depositFee",
          "type": "uint256"
        }
      ],
      "name": "SetDepositFee",
      "type": "event"
    },
    {
      "anonymous": false,
      "inputs": [
        {
          "indexed": false,
          "internalType": "uint256",
          "name": "increasePositionBufferBps",
          "type": "uint256"
        }
      ],
      "name": "SetIncreasePositionBufferBps",
      "type": "event"
    },
    {
      "anonymous": false,
      "inputs": [
        {
          "indexed": true,
          "internalType": "address",
          "name": "account",
          "type": "address"
        },
        {
          "indexed": false,
          "internalType": "bool",
          "name": "isActive",
          "type": "bool"
        }
      ],
      "name": "SetLiquidator",
      "type": "event"
    },
    {
      "anonymous": false,
      "inputs": [
        {
          "indexed": false,
          "internalType": "address[]",
          "name": "tokens",
          "type": "address[]"
        },
        {
          "indexed": false,
          "internalType": "uint256[]",
          "name": "longSizes",
          "type": "uint256[]"
        },
        {
          "indexed": false,
          "internalType": "uint256[]",
          "name": "shortSizes",
          "type": "uint256[]"
        }
      ],
      "name": "SetMaxGlobalSizes",
      "type": "event"
    },
    {
      "anonymous": false,
      "inputs": [
        {
          "indexed": true,
          "internalType": "address",
          "name": "account",
          "type": "address"
        },
        {
          "indexed": false,
          "internalType": "bool",
          "name": "isActive",
          "type": "bool"
        }
      ],
      "name": "SetOrderKeeper",
      "type": "event"
    },
    {
      "anonymous": false,
      "inputs": [
        {
          "indexed": false,
          "internalType": "bool",
          "name": "shouldValidateIncreaseOrder",
          "type": "bool"
        }
      ],
      "name": "SetShouldValidateIncreaseOrder",
      "type": "event"
    },
    {
      "anonymous": false,
      "inputs": [
        {
          "indexed": true,
          "internalType": "address",
          "name": "previousTreasury",
          "type": "address"
        },
        {
          "indexed": true,
          "internalType": "address",
          "name": "newTreasury",
          "type": "address"
        }
      ],
      "name": "TreasuryTransferred",
      "type": "event"
    },
    {
      "anonymous": false,
      "inputs": [
        {
          "indexed": false,
          "internalType": "address",
          "name": "token",
          "type": "address"
        },
        {
          "indexed": false,
          "internalType": "address",
          "name": "receiver",
          "type": "address"
        },
        {
          "indexed": false,
          "internalType": "uint256",
          "name": "amount",
          "type": "uint256"
        }
      ],
      "name": "WithdrawFees",
      "type": "event"
    },
    {
      "inputs": [],
      "name": "BASIS_POINTS_DIVISOR",
      "outputs": [
        {
          "internalType": "uint256",
          "name": "",
          "type": "uint256"
        }
      ],
      "stateMutability": "view",
      "type": "function"
    },
    {
      "inputs": [],
      "name": "addressesProvider",
      "outputs": [
        {
          "internalType": "contract IAddressesProvider",
          "name": "",
          "type": "address"
        }
      ],
      "stateMutability": "view",
      "type": "function"
    },
    {
      "inputs": [
        {
          "internalType": "address",
          "name": "_token",
          "type": "address"
        },
        {
          "internalType": "address",
          "name": "_spender",
          "type": "address"
        },
        {
          "internalType": "uint256",
          "name": "_amount",
          "type": "uint256"
        }
      ],
      "name": "approve",
      "outputs": [],
      "stateMutability": "nonpayable",
      "type": "function"
    },
    {
      "inputs": [],
      "name": "depositFee",
      "outputs": [
        {
          "internalType": "uint256",
          "name": "",
          "type": "uint256"
        }
      ],
      "stateMutability": "view",
      "type": "function"
    },
    {
      "inputs": [
        {
          "internalType": "address",
          "name": "_account",
          "type": "address"
        },
        {
          "internalType": "uint256",
          "name": "_orderIndex",
          "type": "uint256"
        },
        {
          "internalType": "address payable",
          "name": "_feeReceiver",
          "type": "address"
        }
      ],
      "name": "executeDecreaseOrder",
      "outputs": [],
      "stateMutability": "nonpayable",
      "type": "function"
    },
    {
      "inputs": [
        {
          "internalType": "address",
          "name": "_account",
          "type": "address"
        },
        {
          "internalType": "uint256",
          "name": "_orderIndex",
          "type": "uint256"
        },
        {
          "internalType": "address payable",
          "name": "_feeReceiver",
          "type": "address"
        }
      ],
      "name": "executeIncreaseOrder",
      "outputs": [],
      "stateMutability": "nonpayable",
      "type": "function"
    },
    {
      "inputs": [
        {
          "internalType": "address",
          "name": "_account",
          "type": "address"
        },
        {
          "internalType": "uint256",
          "name": "_orderIndex",
          "type": "uint256"
        },
        {
          "internalType": "address payable",
          "name": "_feeReceiver",
          "type": "address"
        }
      ],
      "name": "executeSwapOrder",
      "outputs": [],
      "stateMutability": "nonpayable",
      "type": "function"
    },
    {
      "inputs": [
        {
          "internalType": "address",
          "name": "",
          "type": "address"
        }
      ],
      "name": "feeReserves",
      "outputs": [
        {
          "internalType": "uint256",
          "name": "",
          "type": "uint256"
        }
      ],
      "stateMutability": "view",
      "type": "function"
    },
    {
      "inputs": [],
      "name": "increasePositionBufferBps",
      "outputs": [
        {
          "internalType": "uint256",
          "name": "",
          "type": "uint256"
        }
      ],
      "stateMutability": "view",
      "type": "function"
    },
    {
      "inputs": [
        {
          "internalType": "address",
          "name": "",
          "type": "address"
        }
      ],
      "name": "isLiquidator",
      "outputs": [
        {
          "internalType": "bool",
          "name": "",
          "type": "bool"
        }
      ],
      "stateMutability": "view",
      "type": "function"
    },
    {
      "inputs": [
        {
          "internalType": "address",
          "name": "",
          "type": "address"
        }
      ],
      "name": "isOrderKeeper",
      "outputs": [
        {
          "internalType": "bool",
          "name": "",
          "type": "bool"
        }
      ],
      "stateMutability": "view",
      "type": "function"
    },
    {
      "inputs": [
        {
          "internalType": "address",
          "name": "_account",
          "type": "address"
        },
        {
          "internalType": "address",
          "name": "_collateralToken",
          "type": "address"
        },
        {
          "internalType": "address",
          "name": "_indexToken",
          "type": "address"
        },
        {
          "internalType": "bool",
          "name": "_isLong",
          "type": "bool"
        },
        {
          "internalType": "address",
          "name": "_feeReceiver",
          "type": "address"
        }
      ],
      "name": "liquidatePosition",
      "outputs": [],
      "stateMutability": "nonpayable",
      "type": "function"
    },
    {
      "inputs": [
        {
          "internalType": "address",
          "name": "",
          "type": "address"
        }
      ],
      "name": "maxGlobalLongSizes",
      "outputs": [
        {
          "internalType": "uint256",
          "name": "",
          "type": "uint256"
        }
      ],
      "stateMutability": "view",
      "type": "function"
    },
    {
      "inputs": [
        {
          "internalType": "address",
          "name": "",
          "type": "address"
        }
      ],
      "name": "maxGlobalShortSizes",
      "outputs": [
        {
          "internalType": "uint256",
          "name": "",
          "type": "uint256"
        }
      ],
      "stateMutability": "view",
      "type": "function"
    },
    {
      "inputs": [],
      "name": "owner",
      "outputs": [
        {
          "internalType": "address",
          "name": "",
          "type": "address"
        }
      ],
      "stateMutability": "view",
      "type": "function"
    },
    {
      "inputs": [],
      "name": "referralStorage",
      "outputs": [
        {
          "internalType": "address",
          "name": "",
          "type": "address"
        }
      ],
      "stateMutability": "view",
      "type": "function"
    },
    {
      "inputs": [],
      "name": "renounceOwnership",
      "outputs": [],
      "stateMutability": "nonpayable",
      "type": "function"
    },
    {
      "inputs": [
        {
          "internalType": "address payable",
          "name": "_receiver",
          "type": "address"
        },
        {
          "internalType": "uint256",
          "name": "_amount",
          "type": "uint256"
        }
      ],
      "name": "sendValue",
      "outputs": [],
      "stateMutability": "nonpayable",
      "type": "function"
    },
    {
      "inputs": [
        {
          "internalType": "uint256",
          "name": "_depositFee",
          "type": "uint256"
        }
      ],
      "name": "setDepositFee",
      "outputs": [],
      "stateMutability": "nonpayable",
      "type": "function"
    },
    {
      "inputs": [
        {
          "internalType": "uint256",
          "name": "_increasePositionBufferBps",
          "type": "uint256"
        }
      ],
      "name": "setIncreasePositionBufferBps",
      "outputs": [],
      "stateMutability": "nonpayable",
      "type": "function"
    },
    {
      "inputs": [
        {
          "internalType": "address",
          "name": "_account",
          "type": "address"
        },
        {
          "internalType": "bool",
          "name": "_isActive",
          "type": "bool"
        }
      ],
      "name": "setLiquidator",
      "outputs": [],
      "stateMutability": "nonpayable",
      "type": "function"
    },
    {
      "inputs": [
        {
          "internalType": "address[]",
          "name": "_tokens",
          "type": "address[]"
        },
        {
          "internalType": "uint256[]",
          "name": "_longSizes",
          "type": "uint256[]"
        },
        {
          "internalType": "uint256[]",
          "name": "_shortSizes",
          "type": "uint256[]"
        }
      ],
      "name": "setMaxGlobalSizes",
      "outputs": [],
      "stateMutability": "nonpayable",
      "type": "function"
    },
    {
      "inputs": [
        {
          "internalType": "address",
          "name": "_account",
          "type": "address"
        },
        {
          "internalType": "bool",
          "name": "_isActive",
          "type": "bool"
        }
      ],
      "name": "setOrderKeeper",
      "outputs": [],
      "stateMutability": "nonpayable",
      "type": "function"
    },
    {
      "inputs": [
        {
          "internalType": "bool",
          "name": "_shouldValidateIncreaseOrder",
          "type": "bool"
        }
      ],
      "name": "setShouldValidateIncreaseOrder",
      "outputs": [],
      "stateMutability": "nonpayable",
      "type": "function"
    },
    {
      "inputs": [],
      "name": "shouldValidateIncreaseOrder",
      "outputs": [
        {
          "internalType": "bool",
          "name": "",
          "type": "bool"
        }
      ],
      "stateMutability": "view",
      "type": "function"
    },
    {
      "inputs": [
        {
          "internalType": "address",
          "name": "newOwner",
          "type": "address"
        }
      ],
      "name": "transferOwnership",
      "outputs": [],
      "stateMutability": "nonpayable",
      "type": "function"
    },
    {
      "inputs": [
        {
          "internalType": "address",
          "name": "newTreasury",
          "type": "address"
        }
      ],
      "name": "transferTreasury",
      "outputs": [],
      "stateMutability": "nonpayable",
      "type": "function"
    },
    {
      "inputs": [],
      "name": "treasury",
      "outputs": [
        {
          "internalType": "address",
          "name": "",
          "type": "address"
        }
      ],
      "stateMutability": "view",
      "type": "function"
    },
    {
      "inputs": [],
      "name": "weth",
      "outputs": [
        {
          "internalType": "address",
          "name": "",
          "type": "address"
        }
      ],
      "stateMutability": "view",
      "type": "function"
    },
    {
      "inputs": [
        {
          "internalType": "address",
          "name": "_token",
          "type": "address"
        },
        {
          "internalType": "address",
          "name": "_receiver",
          "type": "address"
        }
      ],
      "name": "withdrawFees",
      "outputs": [],
      "stateMutability": "nonpayable",
      "type": "function"
    },
    {
      "stateMutability": "payable",
      "type": "receive"
    }
  ],
  "bytecode": "0x60806040526064600655600b805460ff1916600117905534801561002257600080fd5b50604051620029bc380380620029bc8339818101604052608081101561004757600080fd5b5080516020820151604083015160609093015160016000908155929391928490849084908490819061007761014d565b600180546001600160a01b0319166001600160a01b038316908117909155604051919250906000907f8be0079c531659141344cd1fd0a4f28419497f9722a3daafe3b4186f6b6457e0908290a350600280546001600160a01b0319166001600160a01b0383169081179091556040516000907febebcc22237fa047dcfebf54b185ec126c9b24d45f4bd2a18e4fa02e07308c40908290a35050600380546001600160a01b039485166001600160a01b03199182161790915560048054939094169216919091179091556005555061015192505050565b3390565b61285b80620001616000396000f3fe6080604052600436106101d05760003560e01c8063529a356f116100f7578063c72c4d1011610095578063e1f21c6711610064578063e1f21c67146106b8578063ef12c67e146106fb578063f2555278146108b3578063f2fde38b146108ee57610220565b8063c72c4d10146105d8578063d38ab519146105ed578063d8a6021c14610630578063de2ea9481461066357610220565b8063715018a6116100d1578063715018a6146105665780638da5cb5b1461057b5780639698d25a1461059057806398d1e03a146105c357610220565b8063529a356f1461050957806361d027b31461053c57806367a527931461055157610220565b80631e2615381161016f5780633fc8cef31161013e5780633fc8cef31461047a5780634453a3741461048f5780634584bd4b146104ca578063490ae210146104df57610220565b80631e26153814610395578063233bfe3b146103d057806324a084df146103fa5780633833f5f51461043357610220565b806311d9444a116101ab57806311d9444a146102de578063126082cf146103215780631b904359146103365780631ce9cb8f1461036257610220565b80626cc35e1461022557806307c7edc3146102565780631045c74e1461029957610220565b36610220576004546001600160a01b0316331461021e5760405162461bcd60e51b81526004018080602001828103825260238152602001806127d96023913960400191505060405180910390fd5b005b600080fd5b34801561023157600080fd5b5061023a610921565b604080516001600160a01b039092168252519081900360200190f35b34801561026257600080fd5b5061021e6004803603606081101561027957600080fd5b506001600160a01b03813581169160208101359160409091013516610930565b3480156102a557600080fd5b506102cc600480360360208110156102bc57600080fd5b50356001600160a01b0316610a6f565b60408051918252519081900360200190f35b3480156102ea57600080fd5b5061021e6004803603606081101561030157600080fd5b506001600160a01b03813581169160208101359160409091013516610a81565b34801561032d57600080fd5b506102cc610cf4565b34801561034257600080fd5b5061021e6004803603602081101561035957600080fd5b50351515610cfa565b34801561036e57600080fd5b506102cc6004803603602081101561038557600080fd5b50356001600160a01b0316610da3565b3480156103a157600080fd5b5061021e600480360360408110156103b857600080fd5b506001600160a01b0381351690602001351515610db5565b3480156103dc57600080fd5b5061021e600480360360208110156103f357600080fd5b5035610e77565b34801561040657600080fd5b5061021e6004803603604081101561041d57600080fd5b506001600160a01b038135169060200135610f14565b34801561043f57600080fd5b506104666004803603602081101561045657600080fd5b50356001600160a01b0316610f8d565b604080519115158252519081900360200190f35b34801561048657600080fd5b5061023a610fa2565b34801561049b57600080fd5b5061021e600480360360408110156104b257600080fd5b506001600160a01b0381351690602001351515610fb1565b3480156104d657600080fd5b50610466611073565b3480156104eb57600080fd5b5061021e6004803603602081101561050257600080fd5b503561107c565b34801561051557600080fd5b506104666004803603602081101561052c57600080fd5b50356001600160a01b0316611119565b34801561054857600080fd5b5061023a61112e565b34801561055d57600080fd5b506102cc61113d565b34801561057257600080fd5b5061021e611143565b34801561058757600080fd5b5061023a6111ef565b34801561059c57600080fd5b506102cc600480360360208110156105b357600080fd5b50356001600160a01b03166111fe565b3480156105cf57600080fd5b506102cc611210565b3480156105e457600080fd5b5061023a611216565b3480156105f957600080fd5b5061021e6004803603606081101561061057600080fd5b506001600160a01b03813581169160208101359160409091013516611225565b34801561063c57600080fd5b5061021e6004803603602081101561065357600080fd5b50356001600160a01b0316611427565b34801561066f57600080fd5b5061021e600480360360a081101561068657600080fd5b506001600160a01b038135811691602081013582169160408201358116916060810135151591608090910135166114d6565b3480156106c457600080fd5b5061021e600480360360608110156106db57600080fd5b506001600160a01b038135811691602081013590911690604001356117bd565b34801561070757600080fd5b5061021e6004803603606081101561071e57600080fd5b81019060208101813564010000000081111561073957600080fd5b82018360208201111561074b57600080fd5b8035906020019184602083028401116401000000008311171561076d57600080fd5b91908080602002602001604051908101604052809392919081815260200183836020028082843760009201919091525092959493602081019350359150506401000000008111156107bd57600080fd5b8201836020820111156107cf57600080fd5b803590602001918460208302840111640100000000831117156107f157600080fd5b919080806020026020016040519081016040528093929190818152602001838360200280828437600092019190915250929594936020810193503591505064010000000081111561084157600080fd5b82018360208201111561085357600080fd5b8035906020019184602083028401116401000000008311171561087557600080fd5b9190808060200260200160405190810160405280939291908181526020018383602002808284376000920191909152509295506118a7945050505050565b3480156108bf57600080fd5b5061021e600480360360408110156108d657600080fd5b506001600160a01b0381358116916020013516611aab565b3480156108fa57600080fd5b5061021e6004803603602081101561091157600080fd5b50356001600160a01b0316611ba0565b6007546001600160a01b031681565b336000908152600c602052604090205460ff1661097e5760405162461bcd60e51b815260040180806020018281038252602f8152602001806127aa602f913960400191505060405180910390fd5b600360009054906101000a90046001600160a01b03166001600160a01b031663b248c4ef6040518163ffffffff1660e01b815260040160206040518083038186803b1580156109cc57600080fd5b505afa1580156109e0573d6000803e3d6000fd5b505050506040513d60208110156109f657600080fd5b5051604080516307c7edc360e01b81526001600160a01b038681166004830152602482018690528481166044830152915191909216916307c7edc391606480830192600092919082900301818387803b158015610a5257600080fd5b505af1158015610a66573d6000803e3d6000fd5b50505050505050565b60096020526000908152604090205481565b336000908152600c602052604090205460ff16610acf5760405162461bcd60e51b815260040180806020018281038252602f8152602001806127aa602f913960400191505060405180910390fd5b6003546040805163d759932b60e01b815290516000926001600160a01b03169163d759932b916004808301926020929190829003018186803b158015610b1457600080fd5b505afa158015610b28573d6000803e3d6000fd5b505050506040513d6020811015610b3e57600080fd5b505160408051637c2eb9f760e01b81526001600482015290519192506001600160a01b03831691637c2eb9f79160248082019260009290919082900301818387803b158015610b8c57600080fd5b505af1158015610ba0573d6000803e3d6000fd5b50505050600360009054906101000a90046001600160a01b03166001600160a01b031663b248c4ef6040518163ffffffff1660e01b815260040160206040518083038186803b158015610bf257600080fd5b505afa158015610c06573d6000803e3d6000fd5b505050506040513d6020811015610c1c57600080fd5b5051604080516308eca22560e11b81526001600160a01b038781166004830152602482018790528581166044830152915191909216916311d9444a91606480830192600092919082900301818387803b158015610c7857600080fd5b505af1158015610c8c573d6000803e3d6000fd5b505060408051637c2eb9f760e01b815260006004820181905291516001600160a01b0386169450637c2eb9f793506024808301939282900301818387803b158015610cd657600080fd5b505af1158015610cea573d6000803e3d6000fd5b5050505050505050565b61271081565b610d02611ca3565b6001600160a01b0316610d136111ef565b6001600160a01b031614610d5c576040805162461bcd60e51b81526020600482018190526024820152600080516020612732833981519152604482015290519081900360640190fd5b600b805482151560ff19909116811790915560408051918252517fa956222e37fe025ff51e5440ac729a9bd417ff91e485e14dcffa2c0ba8894f409181900360200190a150565b60086020526000908152604090205481565b610dbd611ca3565b6001600160a01b0316610dce6111ef565b6001600160a01b031614610e17576040805162461bcd60e51b81526020600482018190526024820152600080516020612732833981519152604482015290519081900360640190fd5b6001600160a01b0382166000818152600c6020908152604091829020805460ff1916851515908117909155825190815291517f1d5bc0255b943d6a5b5279e8a55d74d620baccbceecb25e87a3558f14c4c118e9281900390910190a25050565b610e7f611ca3565b6001600160a01b0316610e906111ef565b6001600160a01b031614610ed9576040805162461bcd60e51b81526020600482018190526024820152600080516020612732833981519152604482015290519081900360640190fd5b60068190556040805182815290517f21167d0d4661af93817ebce920f18986eed3d75d5e1c03f2aed05efcbafbc4529181900360200190a150565b610f1c611ca3565b6001600160a01b0316610f2d6111ef565b6001600160a01b031614610f76576040805162461bcd60e51b81526020600482018190526024820152600080516020612732833981519152604482015290519081900360640190fd5b610f896001600160a01b03831682611ca7565b5050565b600c6020526000908152604090205460ff1681565b6004546001600160a01b031681565b610fb9611ca3565b6001600160a01b0316610fca6111ef565b6001600160a01b031614611013576040805162461bcd60e51b81526020600482018190526024820152600080516020612732833981519152604482015290519081900360640190fd5b6001600160a01b0382166000818152600d6020908152604091829020805460ff1916851515908117909155825190815291517f8c0d56805c3b43d441481229dc64bee168253ffe4305f37ab7cfe63b1c4268c69281900390910190a25050565b600b5460ff1681565b611084611ca3565b6001600160a01b03166110956111ef565b6001600160a01b0316146110de576040805162461bcd60e51b81526020600482018190526024820152600080516020612732833981519152604482015290519081900360640190fd5b60058190556040805182815290517f974fd3c1fcb4653dfc4fb740c4c692cd212d55c28f163f310128cb64d83006759181900360200190a150565b600d6020526000908152604090205460ff1681565b6002546001600160a01b031690565b60055481565b61114b611ca3565b6001600160a01b031661115c6111ef565b6001600160a01b0316146111a5576040805162461bcd60e51b81526020600482018190526024820152600080516020612732833981519152604482015290519081900360640190fd5b6001546040516000916001600160a01b0316907f8be0079c531659141344cd1fd0a4f28419497f9722a3daafe3b4186f6b6457e0908390a3600180546001600160a01b0319169055565b6001546001600160a01b031690565b600a6020526000908152604090205481565b60065481565b6003546001600160a01b031681565b336000908152600c602052604090205460ff166112735760405162461bcd60e51b815260040180806020018281038252602f8152602001806127aa602f913960400191505060405180910390fd5b61127d8383611d91565b506003546040805163d759932b60e01b815290516000926001600160a01b03169163d759932b916004808301926020929190829003018186803b1580156112c357600080fd5b505afa1580156112d7573d6000803e3d6000fd5b505050506040513d60208110156112ed57600080fd5b505160408051637c2eb9f760e01b81526001600482015290519192506001600160a01b03831691637c2eb9f79160248082019260009290919082900301818387803b15801561133b57600080fd5b505af115801561134f573d6000803e3d6000fd5b50505050600360009054906101000a90046001600160a01b03166001600160a01b031663b248c4ef6040518163ffffffff1660e01b815260040160206040518083038186803b1580156113a157600080fd5b505afa1580156113b5573d6000803e3d6000fd5b505050506040513d60208110156113cb57600080fd5b50516040805163d38ab51960e01b81526001600160a01b0387811660048301526024820187905285811660448301529151919092169163d38ab51991606480830192600092919082900301818387803b158015610c7857600080fd5b61142f611ca3565b6001600160a01b031661144061112e565b6001600160a01b0316146114855760405162461bcd60e51b815260040180806020018281038252602b81526020018061265d602b913960400191505060405180910390fd5b6001600160a01b0381166114ca5760405162461bcd60e51b81526004018080602001828103825260318152602001806127526031913960400191505060405180910390fd5b6114d38161219a565b50565b6002600054141561152e576040805162461bcd60e51b815260206004820152601f60248201527f5265656e7472616e637947756172643a207265656e7472616e742063616c6c00604482015290519081900360640190fd5b60026000908155338152600d602052604090205460ff166115805760405162461bcd60e51b81526004018080602001828103825260298152602001806126e86029913960400191505060405180910390fd5b6003546040805163d759932b60e01b815290516000926001600160a01b03169163d759932b916004808301926020929190829003018186803b1580156115c557600080fd5b505afa1580156115d9573d6000803e3d6000fd5b505050506040513d60208110156115ef57600080fd5b505160408051637c2eb9f760e01b81526001600482015290519192506001600160a01b03831691637c2eb9f79160248082019260009290919082900301818387803b15801561163d57600080fd5b505af1158015611651573d6000803e3d6000fd5b50505050600360009054906101000a90046001600160a01b03166001600160a01b0316638d928af86040518163ffffffff1660e01b815260040160206040518083038186803b1580156116a357600080fd5b505afa1580156116b7573d6000803e3d6000fd5b505050506040513d60208110156116cd57600080fd5b505160408051631bc5d52960e31b81526001600160a01b03898116600483015288811660248301528781166044830152861515606483015285811660848301529151919092169163de2ea9489160a480830192600092919082900301818387803b15801561173a57600080fd5b505af115801561174e573d6000803e3d6000fd5b505060408051637c2eb9f760e01b815260006004820181905291516001600160a01b0386169450637c2eb9f793506024808301939282900301818387803b15801561179857600080fd5b505af11580156117ac573d6000803e3d6000fd5b505060016000555050505050505050565b6117c5611ca3565b6001600160a01b03166117d66111ef565b6001600160a01b03161461181f576040805162461bcd60e51b81526020600482018190526024820152600080516020612732833981519152604482015290519081900360640190fd5b826001600160a01b031663095ea7b383836040518363ffffffff1660e01b815260040180836001600160a01b0316815260200182815260200192505050602060405180830381600087803b15801561187657600080fd5b505af115801561188a573d6000803e3d6000fd5b505050506040513d60208110156118a057600080fd5b5050505050565b6118af611ca3565b6001600160a01b03166118c06111ef565b6001600160a01b031614611909576040805162461bcd60e51b81526020600482018190526024820152600080516020612732833981519152604482015290519081900360640190fd5b60005b83518110156119a457600084828151811061192357fe5b6020026020010151905083828151811061193957fe5b602002602001015160096000836001600160a01b03166001600160a01b031681526020019081526020016000208190555082828151811061197657fe5b6020908102919091018101516001600160a01b039092166000908152600a909152604090205560010161190c565b507fae32d569b058895b9620d6552b09aaffedc9a6f396be4d595a224ad09f8b213983838360405180806020018060200180602001848103845287818151815260200191508051906020019060200280838360005b83811015611a115781810151838201526020016119f9565b50505050905001848103835286818151815260200191508051906020019060200280838360005b83811015611a50578181015183820152602001611a38565b50505050905001848103825285818151815260200191508051906020019060200280838360005b83811015611a8f578181015183820152602001611a77565b50505050905001965050505050505060405180910390a1505050565b611ab3611ca3565b6001600160a01b0316611ac461112e565b6001600160a01b031614611b095760405162461bcd60e51b815260040180806020018281038252602b81526020018061265d602b913960400191505060405180910390fd5b6001600160a01b03821660009081526008602052604090205480611b2d5750610f89565b6001600160a01b038316600081815260086020526040812055611b519083836121f6565b604080516001600160a01b0380861682528416602082015280820183905290517f4f1b51dd7a2fcb861aa2670f668be66835c4ee12b4bbbf037e4d0018f39819e49181900360600190a1505050565b611ba8611ca3565b6001600160a01b0316611bb96111ef565b6001600160a01b031614611c02576040805162461bcd60e51b81526020600482018190526024820152600080516020612732833981519152604482015290519081900360640190fd5b6001600160a01b038116611c475760405162461bcd60e51b81526004018080602001828103825260268152602001806126376026913960400191505060405180910390fd5b6001546040516001600160a01b038084169216907f8be0079c531659141344cd1fd0a4f28419497f9722a3daafe3b4186f6b6457e090600090a3600180546001600160a01b0319166001600160a01b0392909216919091179055565b3390565b80471015611cfc576040805162461bcd60e51b815260206004820152601d60248201527f416464726573733a20696e73756666696369656e742062616c616e6365000000604482015290519081900360640190fd5b6040516000906001600160a01b0384169083908381818185875af1925050503d8060008114611d47576040519150601f19603f3d011682016040523d82523d6000602084013e611d4c565b606091505b5050905080611d8c5760405162461bcd60e51b815260040180806020018281038252603a815260200180612688603a913960400191505060405180910390fd5b505050565b6000806000806000806000600360009054906101000a90046001600160a01b03166001600160a01b031663b248c4ef6040518163ffffffff1660e01b815260040160206040518083038186803b158015611dea57600080fd5b505afa158015611dfe573d6000803e3d6000fd5b505050506040513d6020811015611e1457600080fd5b50516040805163d3bab1d160e01b81526001600160a01b038c81166004830152602482018c90529151919092169163d3bab1d191604480830192610120929190829003018186803b158015611e6857600080fd5b505afa158015611e7c573d6000803e3d6000fd5b505050506040513d610120811015611e9357600080fd5b508051602082015160408301516060840151608085015160a090950151600b54949b50929950909750955091935090915060ff16611ed8575094506121949350505050565b80611eea575094506121949350505050565b60008211611f3f576040805162461bcd60e51b815260206004820152601d60248201527f506f736974696f6e4d616e616765723a206c6f6e67206465706f736974000000604482015290519081900360640190fd5b600354604080516311b2515f60e31b815290516000926001600160a01b031691638d928af8916004808301926020929190829003018186803b158015611f8457600080fd5b505afa158015611f98573d6000803e3d6000fd5b505050506040513d6020811015611fae57600080fd5b505160408051634a3f088d60e01b81526001600160a01b038d8116600483015288811660248301528781166044830152851515606483015291519293506000928392851691634a3f088d91608480830192610100929190829003018186803b15801561201957600080fd5b505afa15801561202d573d6000803e3d6000fd5b505050506040513d61010081101561204457600080fd5b50805160209091015190925090508161206857849950505050505050505050612194565b60006120748387612248565b90506000846001600160a01b0316630a48d5a98c8c6040518363ffffffff1660e01b815260040180836001600160a01b031681526020018281526020019250505060206040518083038186803b1580156120cd57600080fd5b505afa1580156120e1573d6000803e3d6000fd5b505050506040513d60208110156120f757600080fd5b5051905060006121078483612248565b905060006121218561211b886127106122a9565b90612302565b905060006121428361211b60065461271001886122a990919063ffffffff16565b9050818110156121835760405162461bcd60e51b81526004018080602001828103825260278152602001806127836027913960400191505060405180910390fd5b50979c505050505050505050505050505b92915050565b6002546040516001600160a01b038084169216907febebcc22237fa047dcfebf54b185ec126c9b24d45f4bd2a18e4fa02e07308c4090600090a3600280546001600160a01b0319166001600160a01b0392909216919091179055565b604080516001600160a01b038416602482015260448082018490528251808303909101815260649091019091526020810180516001600160e01b031663a9059cbb60e01b179052611d8c908490612369565b6000828201838110156122a2576040805162461bcd60e51b815260206004820152601b60248201527f536166654d6174683a206164646974696f6e206f766572666c6f770000000000604482015290519081900360640190fd5b9392505050565b6000826122b857506000612194565b828202828482816122c557fe5b04146122a25760405162461bcd60e51b81526004018080602001828103825260218152602001806127116021913960400191505060405180910390fd5b6000808211612358576040805162461bcd60e51b815260206004820152601a60248201527f536166654d6174683a206469766973696f6e206279207a65726f000000000000604482015290519081900360640190fd5b81838161236157fe5b049392505050565b60006123be826040518060400160405280602081526020017f5361666545524332303a206c6f772d6c6576656c2063616c6c206661696c6564815250856001600160a01b031661241a9092919063ffffffff16565b805190915015611d8c578080602001905160208110156123dd57600080fd5b5051611d8c5760405162461bcd60e51b815260040180806020018281038252602a8152602001806127fc602a913960400191505060405180910390fd5b60606124298484600085612431565b949350505050565b6060824710156124725760405162461bcd60e51b81526004018080602001828103825260268152602001806126c26026913960400191505060405180910390fd5b61247b8561258c565b6124cc576040805162461bcd60e51b815260206004820152601d60248201527f416464726573733a2063616c6c20746f206e6f6e2d636f6e7472616374000000604482015290519081900360640190fd5b600080866001600160a01b031685876040518082805190602001908083835b6020831061250a5780518252601f1990920191602091820191016124eb565b6001836020036101000a03801982511681845116808217855250505050505090500191505060006040518083038185875af1925050503d806000811461256c576040519150601f19603f3d011682016040523d82523d6000602084013e612571565b606091505b5091509150612581828286612592565b979650505050505050565b3b151590565b606083156125a15750816122a2565b8251156125b15782518084602001fd5b8160405162461bcd60e51b81526004018080602001828103825283818151815260200191508051906020019080838360005b838110156125fb5781810151838201526020016125e3565b50505050905090810190601f1680156126285780820380516001836020036101000a031916815260200191505b509250505060405180910390fdfe4f776e61626c653a206e6577206f776e657220697320746865207a65726f206164647265737354726561737572794f776e61626c653a2063616c6c6572206973206e6f7420746865207472656173757279416464726573733a20756e61626c6520746f2073656e642076616c75652c20726563697069656e74206d61792068617665207265766572746564416464726573733a20696e73756666696369656e742062616c616e636520666f722063616c6c506f736974696f6e4d616e616765723a2063616c6c6572206973206e6f74206c697175696461746f72536166654d6174683a206d756c7469706c69636174696f6e206f766572666c6f774f776e61626c653a2063616c6c6572206973206e6f7420746865206f776e657254726561737572794f776e61626c653a206e657720747265617375727920697320746865207a65726f2061646472657373506f736974696f6e4d616e616765723a206c6f6e67206c65766572616765206465637265617365506f736974696f6e4d616e616765723a2063616c6c6572206973206e6f7420746865206f72646572206b656570657242617365506f736974696f6e4d616e616765723a20696e76616c69642073656e6465725361666545524332303a204552433230206f7065726174696f6e20646964206e6f742073756363656564a2646970667358221220dd475410fb4cc1dd10bb5f8d2f42265788a0df8e2b088da9de691e09d03dedd364736f6c63430007060033",
  "linkReferences": {},
  "deployedLinkReferences": {}
}