{
  "_format": "hh-sol-artifact-1",
  "contractName": "PositionRouter",
  "sourceName": "contracts/protocol/core/PositionRouter.sol",
  "abi": [
    {
      "inputs": [
        {
          "internalType": "contract IAddressesProvider",
          "name": "addressesProvider_",
          "type": "address"
        },
        {
          "internalType": "address",
          "name": "_weth",
          "type": "address"
        },
        {
          "internalType": "uint256",
          "name": "_depositFee",
          "type": "uint256"
        },
        {
          "internalType": "uint256",
          "name": "_minExecutionFee",
          "type": "uint256"
        },
        {
          "internalType": "address",
          "name": "treasury",
          "type": "address"
        }
      ],
      "stateMutability": "nonpayable",
      "type": "constructor"
    },
    {
      "anonymous": false,
      "inputs": [
        {
          "indexed": true,
          "internalType": "address",
          "name": "account",
          "type": "address"
        },
        {
          "indexed": false,
          "internalType": "address[]",
          "name": "path",
          "type": "address[]"
        },
        {
          "indexed": false,
          "internalType": "address",
          "name": "indexToken",
          "type": "address"
        },
        {
          "indexed": false,
          "internalType": "uint256",
          "name": "collateralDelta",
          "type": "uint256"
        },
        {
          "indexed": false,
          "internalType": "uint256",
          "name": "sizeDelta",
          "type": "uint256"
        },
        {
          "indexed": false,
          "internalType": "bool",
          "name": "isLong",
          "type": "bool"
        },
        {
          "indexed": false,
          "internalType": "address",
          "name": "receiver",
          "type": "address"
        },
        {
          "indexed": false,
          "internalType": "uint256",
          "name": "acceptablePrice",
          "type": "uint256"
        },
        {
          "indexed": false,
          "internalType": "uint256",
          "name": "minOut",
          "type": "uint256"
        },
        {
          "indexed": false,
          "internalType": "uint256",
          "name": "executionFee",
          "type": "uint256"
        },
        {
          "indexed": false,
          "internalType": "uint256",
          "name": "blockGap",
          "type": "uint256"
        },
        {
          "indexed": false,
          "internalType": "uint256",
          "name": "timeGap",
          "type": "uint256"
        }
      ],
      "name": "CancelDecreasePosition",
      "type": "event"
    },
    {
      "anonymous": false,
      "inputs": [
        {
          "indexed": true,
          "internalType": "address",
          "name": "account",
          "type": "address"
        },
        {
          "indexed": false,
          "internalType": "address[]",
          "name": "path",
          "type": "address[]"
        },
        {
          "indexed": false,
          "internalType": "address",
          "name": "indexToken",
          "type": "address"
        },
        {
          "indexed": false,
          "internalType": "uint256",
          "name": "amountIn",
          "type": "uint256"
        },
        {
          "indexed": false,
          "internalType": "uint256",
          "name": "minOut",
          "type": "uint256"
        },
        {
          "indexed": false,
          "internalType": "uint256",
          "name": "sizeDelta",
          "type": "uint256"
        },
        {
          "indexed": false,
          "internalType": "bool",
          "name": "isLong",
          "type": "bool"
        },
        {
          "indexed": false,
          "internalType": "uint256",
          "name": "acceptablePrice",
          "type": "uint256"
        },
        {
          "indexed": false,
          "internalType": "uint256",
          "name": "executionFee",
          "type": "uint256"
        },
        {
          "indexed": false,
          "internalType": "uint256",
          "name": "blockGap",
          "type": "uint256"
        },
        {
          "indexed": false,
          "internalType": "uint256",
          "name": "timeGap",
          "type": "uint256"
        }
      ],
      "name": "CancelIncreasePosition",
      "type": "event"
    },
    {
      "anonymous": false,
      "inputs": [
        {
          "indexed": true,
          "internalType": "address",
          "name": "account",
          "type": "address"
        },
        {
          "indexed": false,
          "internalType": "address[]",
          "name": "path",
          "type": "address[]"
        },
        {
          "indexed": false,
          "internalType": "address",
          "name": "indexToken",
          "type": "address"
        },
        {
          "indexed": false,
          "internalType": "uint256",
          "name": "collateralDelta",
          "type": "uint256"
        },
        {
          "indexed": false,
          "internalType": "uint256",
          "name": "sizeDelta",
          "type": "uint256"
        },
        {
          "indexed": false,
          "internalType": "bool",
          "name": "isLong",
          "type": "bool"
        },
        {
          "indexed": false,
          "internalType": "address",
          "name": "receiver",
          "type": "address"
        },
        {
          "indexed": false,
          "internalType": "uint256",
          "name": "acceptablePrice",
          "type": "uint256"
        },
        {
          "indexed": false,
          "internalType": "uint256",
          "name": "minOut",
          "type": "uint256"
        },
        {
          "indexed": false,
          "internalType": "uint256",
          "name": "executionFee",
          "type": "uint256"
        },
        {
          "indexed": false,
          "internalType": "uint256",
          "name": "index",
          "type": "uint256"
        },
        {
          "indexed": false,
          "internalType": "uint256",
          "name": "blockNumber",
          "type": "uint256"
        },
        {
          "indexed": false,
          "internalType": "uint256",
          "name": "blockTime",
          "type": "uint256"
        }
      ],
      "name": "CreateDecreasePosition",
      "type": "event"
    },
    {
      "anonymous": false,
      "inputs": [
        {
          "indexed": true,
          "internalType": "address",
          "name": "account",
          "type": "address"
        },
        {
          "indexed": false,
          "internalType": "address[]",
          "name": "path",
          "type": "address[]"
        },
        {
          "indexed": false,
          "internalType": "address",
          "name": "indexToken",
          "type": "address"
        },
        {
          "indexed": false,
          "internalType": "uint256",
          "name": "amountIn",
          "type": "uint256"
        },
        {
          "indexed": false,
          "internalType": "uint256",
          "name": "minOut",
          "type": "uint256"
        },
        {
          "indexed": false,
          "internalType": "uint256",
          "name": "sizeDelta",
          "type": "uint256"
        },
        {
          "indexed": false,
          "internalType": "bool",
          "name": "isLong",
          "type": "bool"
        },
        {
          "indexed": false,
          "internalType": "uint256",
          "name": "acceptablePrice",
          "type": "uint256"
        },
        {
          "indexed": false,
          "internalType": "uint256",
          "name": "executionFee",
          "type": "uint256"
        },
        {
          "indexed": false,
          "internalType": "uint256",
          "name": "index",
          "type": "uint256"
        },
        {
          "indexed": false,
          "internalType": "uint256",
          "name": "blockNumber",
          "type": "uint256"
        },
        {
          "indexed": false,
          "internalType": "uint256",
          "name": "blockTime",
          "type": "uint256"
        },
        {
          "indexed": false,
          "internalType": "uint256",
          "name": "gasPrice",
          "type": "uint256"
        }
      ],
      "name": "CreateIncreasePosition",
      "type": "event"
    },
    {
      "anonymous": false,
      "inputs": [
        {
          "indexed": true,
          "internalType": "address",
          "name": "account",
          "type": "address"
        },
        {
          "indexed": false,
          "internalType": "address[]",
          "name": "path",
          "type": "address[]"
        },
        {
          "indexed": false,
          "internalType": "address",
          "name": "indexToken",
          "type": "address"
        },
        {
          "indexed": false,
          "internalType": "uint256",
          "name": "collateralDelta",
          "type": "uint256"
        },
        {
          "indexed": false,
          "internalType": "uint256",
          "name": "sizeDelta",
          "type": "uint256"
        },
        {
          "indexed": false,
          "internalType": "bool",
          "name": "isLong",
          "type": "bool"
        },
        {
          "indexed": false,
          "internalType": "address",
          "name": "receiver",
          "type": "address"
        },
        {
          "indexed": false,
          "internalType": "uint256",
          "name": "acceptablePrice",
          "type": "uint256"
        },
        {
          "indexed": false,
          "internalType": "uint256",
          "name": "minOut",
          "type": "uint256"
        },
        {
          "indexed": false,
          "internalType": "uint256",
          "name": "executionFee",
          "type": "uint256"
        },
        {
          "indexed": false,
          "internalType": "uint256",
          "name": "blockGap",
          "type": "uint256"
        },
        {
          "indexed": false,
          "internalType": "uint256",
          "name": "timeGap",
          "type": "uint256"
        }
      ],
      "name": "ExecuteDecreasePosition",
      "type": "event"
    },
    {
      "anonymous": false,
      "inputs": [
        {
          "indexed": true,
          "internalType": "address",
          "name": "account",
          "type": "address"
        },
        {
          "indexed": false,
          "internalType": "address[]",
          "name": "path",
          "type": "address[]"
        },
        {
          "indexed": false,
          "internalType": "address",
          "name": "indexToken",
          "type": "address"
        },
        {
          "indexed": false,
          "internalType": "uint256",
          "name": "amountIn",
          "type": "uint256"
        },
        {
          "indexed": false,
          "internalType": "uint256",
          "name": "minOut",
          "type": "uint256"
        },
        {
          "indexed": false,
          "internalType": "uint256",
          "name": "sizeDelta",
          "type": "uint256"
        },
        {
          "indexed": false,
          "internalType": "bool",
          "name": "isLong",
          "type": "bool"
        },
        {
          "indexed": false,
          "internalType": "uint256",
          "name": "acceptablePrice",
          "type": "uint256"
        },
        {
          "indexed": false,
          "internalType": "uint256",
          "name": "executionFee",
          "type": "uint256"
        },
        {
          "indexed": false,
          "internalType": "uint256",
          "name": "blockGap",
          "type": "uint256"
        },
        {
          "indexed": false,
          "internalType": "uint256",
          "name": "timeGap",
          "type": "uint256"
        }
      ],
      "name": "ExecuteIncreasePosition",
      "type": "event"
    },
    {
      "anonymous": false,
      "inputs": [
        {
          "indexed": true,
          "internalType": "address",
          "name": "previousOwner",
          "type": "address"
        },
        {
          "indexed": true,
          "internalType": "address",
          "name": "newOwner",
          "type": "address"
        }
      ],
      "name": "OwnershipTransferred",
      "type": "event"
    },
    {
      "anonymous": false,
      "inputs": [
        {
          "indexed": false,
          "internalType": "uint256",
          "name": "minBlockDelayKeeper",
          "type": "uint256"
        },
        {
          "indexed": false,
          "internalType": "uint256",
          "name": "minTimeDelayPublic",
          "type": "uint256"
        },
        {
          "indexed": false,
          "internalType": "uint256",
          "name": "maxTimeDelay",
          "type": "uint256"
        }
      ],
      "name": "SetDelayValues",
      "type": "event"
    },
    {
      "anonymous": false,
      "inputs": [
        {
          "indexed": false,
          "internalType": "uint256",
          "name": "depositFee",
          "type": "uint256"
        }
      ],
      "name": "SetDepositFee",
      "type": "event"
    },
    {
      "anonymous": false,
      "inputs": [
        {
          "indexed": false,
          "internalType": "uint256",
          "name": "increasePositionBufferBps",
          "type": "uint256"
        }
      ],
      "name": "SetIncreasePositionBufferBps",
      "type": "event"
    },
    {
      "anonymous": false,
      "inputs": [
        {
          "indexed": false,
          "internalType": "bool",
          "name": "isLeverageEnabled",
          "type": "bool"
        }
      ],
      "name": "SetIsLeverageEnabled",
      "type": "event"
    },
    {
      "anonymous": false,
      "inputs": [
        {
          "indexed": false,
          "internalType": "address[]",
          "name": "tokens",
          "type": "address[]"
        },
        {
          "indexed": false,
          "internalType": "uint256[]",
          "name": "longSizes",
          "type": "uint256[]"
        },
        {
          "indexed": false,
          "internalType": "uint256[]",
          "name": "shortSizes",
          "type": "uint256[]"
        }
      ],
      "name": "SetMaxGlobalSizes",
      "type": "event"
    },
    {
      "anonymous": false,
      "inputs": [
        {
          "indexed": false,
          "internalType": "uint256",
          "name": "minExecutionFee",
          "type": "uint256"
        }
      ],
      "name": "SetMinExecutionFee",
      "type": "event"
    },
    {
      "anonymous": false,
      "inputs": [
        {
          "indexed": true,
          "internalType": "address",
          "name": "account",
          "type": "address"
        },
        {
          "indexed": false,
          "internalType": "bool",
          "name": "isActive",
          "type": "bool"
        }
      ],
      "name": "SetPositionKeeper",
      "type": "event"
    },
    {
      "anonymous": false,
      "inputs": [
        {
          "indexed": false,
          "internalType": "uint256",
          "name": "increasePositionRequestKeysStart",
          "type": "uint256"
        },
        {
          "indexed": false,
          "internalType": "uint256",
          "name": "decreasePositionRequestKeysStart",
          "type": "uint256"
        }
      ],
      "name": "SetRequestKeysStartValues",
      "type": "event"
    },
    {
      "anonymous": false,
      "inputs": [
        {
          "indexed": true,
          "internalType": "address",
          "name": "previousTreasury",
          "type": "address"
        },
        {
          "indexed": true,
          "internalType": "address",
          "name": "newTreasury",
          "type": "address"
        }
      ],
      "name": "TreasuryTransferred",
      "type": "event"
    },
    {
      "anonymous": false,
      "inputs": [
        {
          "indexed": false,
          "internalType": "address",
          "name": "token",
          "type": "address"
        },
        {
          "indexed": false,
          "internalType": "address",
          "name": "receiver",
          "type": "address"
        },
        {
          "indexed": false,
          "internalType": "uint256",
          "name": "amount",
          "type": "uint256"
        }
      ],
      "name": "WithdrawFees",
      "type": "event"
    },
    {
      "inputs": [],
      "name": "BASIS_POINTS_DIVISOR",
      "outputs": [
        {
          "internalType": "uint256",
          "name": "",
          "type": "uint256"
        }
      ],
      "stateMutability": "view",
      "type": "function"
    },
    {
      "inputs": [],
      "name": "addressesProvider",
      "outputs": [
        {
          "internalType": "contract IAddressesProvider",
          "name": "",
          "type": "address"
        }
      ],
      "stateMutability": "view",
      "type": "function"
    },
    {
      "inputs": [
        {
          "internalType": "address",
          "name": "_token",
          "type": "address"
        },
        {
          "internalType": "address",
          "name": "_spender",
          "type": "address"
        },
        {
          "internalType": "uint256",
          "name": "_amount",
          "type": "uint256"
        }
      ],
      "name": "approve",
      "outputs": [],
      "stateMutability": "nonpayable",
      "type": "function"
    },
    {
      "inputs": [
        {
          "internalType": "bytes32",
          "name": "_key",
          "type": "bytes32"
        },
        {
          "internalType": "address payable",
          "name": "_executionFeeReceiver",
          "type": "address"
        }
      ],
      "name": "cancelDecreasePosition",
      "outputs": [
        {
          "internalType": "bool",
          "name": "",
          "type": "bool"
        }
      ],
      "stateMutability": "nonpayable",
      "type": "function"
    },
    {
      "inputs": [
        {
          "internalType": "bytes32",
          "name": "_key",
          "type": "bytes32"
        },
        {
          "internalType": "address payable",
          "name": "_executionFeeReceiver",
          "type": "address"
        }
      ],
      "name": "cancelIncreasePosition",
      "outputs": [
        {
          "internalType": "bool",
          "name": "",
          "type": "bool"
        }
      ],
      "stateMutability": "nonpayable",
      "type": "function"
    },
    {
      "inputs": [
        {
          "internalType": "address[]",
          "name": "_path",
          "type": "address[]"
        },
        {
          "internalType": "address",
          "name": "_indexToken",
          "type": "address"
        },
        {
          "internalType": "uint256",
          "name": "_collateralDelta",
          "type": "uint256"
        },
        {
          "internalType": "uint256",
          "name": "_sizeDelta",
          "type": "uint256"
        },
        {
          "internalType": "bool",
          "name": "_isLong",
          "type": "bool"
        },
        {
          "internalType": "address",
          "name": "_receiver",
          "type": "address"
        },
        {
          "internalType": "uint256",
          "name": "_acceptablePrice",
          "type": "uint256"
        },
        {
          "internalType": "uint256",
          "name": "_minOut",
          "type": "uint256"
        },
        {
          "internalType": "uint256",
          "name": "_executionFee",
          "type": "uint256"
        },
        {
          "internalType": "bool",
          "name": "_withdrawETH",
          "type": "bool"
        }
      ],
      "name": "createDecreasePosition",
      "outputs": [],
      "stateMutability": "payable",
      "type": "function"
    },
    {
      "inputs": [
        {
          "internalType": "address[]",
          "name": "_path",
          "type": "address[]"
        },
        {
          "internalType": "address",
          "name": "_indexToken",
          "type": "address"
        },
        {
          "internalType": "uint256",
          "name": "_amountIn",
          "type": "uint256"
        },
        {
          "internalType": "uint256",
          "name": "_minOut",
          "type": "uint256"
        },
        {
          "internalType": "uint256",
          "name": "_sizeDelta",
          "type": "uint256"
        },
        {
          "internalType": "bool",
          "name": "_isLong",
          "type": "bool"
        },
        {
          "internalType": "uint256",
          "name": "_acceptablePrice",
          "type": "uint256"
        },
        {
          "internalType": "uint256",
          "name": "_executionFee",
          "type": "uint256"
        }
      ],
      "name": "createIncreasePosition",
      "outputs": [],
      "stateMutability": "payable",
      "type": "function"
    },
    {
      "inputs": [
        {
          "internalType": "address[]",
          "name": "_path",
          "type": "address[]"
        },
        {
          "internalType": "address",
          "name": "_indexToken",
          "type": "address"
        },
        {
          "internalType": "uint256",
          "name": "_minOut",
          "type": "uint256"
        },
        {
          "internalType": "uint256",
          "name": "_sizeDelta",
          "type": "uint256"
        },
        {
          "internalType": "bool",
          "name": "_isLong",
          "type": "bool"
        },
        {
          "internalType": "uint256",
          "name": "_acceptablePrice",
          "type": "uint256"
        },
        {
          "internalType": "uint256",
          "name": "_executionFee",
          "type": "uint256"
        }
      ],
      "name": "createIncreasePositionETH",
      "outputs": [],
      "stateMutability": "payable",
      "type": "function"
    },
    {
      "inputs": [
        {
          "internalType": "uint256",
          "name": "",
          "type": "uint256"
        }
      ],
      "name": "decreasePositionRequestKeys",
      "outputs": [
        {
          "internalType": "bytes32",
          "name": "",
          "type": "bytes32"
        }
      ],
      "stateMutability": "view",
      "type": "function"
    },
    {
      "inputs": [],
      "name": "decreasePositionRequestKeysStart",
      "outputs": [
        {
          "internalType": "uint256",
          "name": "",
          "type": "uint256"
        }
      ],
      "stateMutability": "view",
      "type": "function"
    },
    {
      "inputs": [
        {
          "internalType": "bytes32",
          "name": "",
          "type": "bytes32"
        }
      ],
      "name": "decreasePositionRequests",
      "outputs": [
        {
          "internalType": "address",
          "name": "account",
          "type": "address"
        },
        {
          "internalType": "address",
          "name": "indexToken",
          "type": "address"
        },
        {
          "internalType": "uint256",
          "name": "collateralDelta",
          "type": "uint256"
        },
        {
          "internalType": "uint256",
          "name": "sizeDelta",
          "type": "uint256"
        },
        {
          "internalType": "bool",
          "name": "isLong",
          "type": "bool"
        },
        {
          "internalType": "address",
          "name": "receiver",
          "type": "address"
        },
        {
          "internalType": "uint256",
          "name": "acceptablePrice",
          "type": "uint256"
        },
        {
          "internalType": "uint256",
          "name": "minOut",
          "type": "uint256"
        },
        {
          "internalType": "uint256",
          "name": "executionFee",
          "type": "uint256"
        },
        {
          "internalType": "uint256",
          "name": "blockNumber",
          "type": "uint256"
        },
        {
          "internalType": "uint256",
          "name": "blockTime",
          "type": "uint256"
        },
        {
          "internalType": "bool",
          "name": "withdrawETH",
          "type": "bool"
        }
      ],
      "stateMutability": "view",
      "type": "function"
    },
    {
      "inputs": [
        {
          "internalType": "address",
          "name": "",
          "type": "address"
        }
      ],
      "name": "decreasePositionsIndex",
      "outputs": [
        {
          "internalType": "uint256",
          "name": "",
          "type": "uint256"
        }
      ],
      "stateMutability": "view",
      "type": "function"
    },
    {
      "inputs": [],
      "name": "depositFee",
      "outputs": [
        {
          "internalType": "uint256",
          "name": "",
          "type": "uint256"
        }
      ],
      "stateMutability": "view",
      "type": "function"
    },
    {
      "inputs": [
        {
          "internalType": "bytes32",
          "name": "_key",
          "type": "bytes32"
        },
        {
          "internalType": "address payable",
          "name": "_executionFeeReceiver",
          "type": "address"
        }
      ],
      "name": "executeDecreasePosition",
      "outputs": [
        {
          "internalType": "bool",
          "name": "",
          "type": "bool"
        }
      ],
      "stateMutability": "nonpayable",
      "type": "function"
    },
    {
      "inputs": [
        {
          "internalType": "uint256",
          "name": "_endIndex",
          "type": "uint256"
        },
        {
          "internalType": "address payable",
          "name": "_executionFeeReceiver",
          "type": "address"
        }
      ],
      "name": "executeDecreasePositions",
      "outputs": [],
      "stateMutability": "nonpayable",
      "type": "function"
    },
    {
      "inputs": [
        {
          "internalType": "bytes32",
          "name": "_key",
          "type": "bytes32"
        },
        {
          "internalType": "address payable",
          "name": "_executionFeeReceiver",
          "type": "address"
        }
      ],
      "name": "executeIncreasePosition",
      "outputs": [
        {
          "internalType": "bool",
          "name": "",
          "type": "bool"
        }
      ],
      "stateMutability": "nonpayable",
      "type": "function"
    },
    {
      "inputs": [
        {
          "internalType": "uint256",
          "name": "_endIndex",
          "type": "uint256"
        },
        {
          "internalType": "address payable",
          "name": "_executionFeeReceiver",
          "type": "address"
        }
      ],
      "name": "executeIncreasePositions",
      "outputs": [],
      "stateMutability": "nonpayable",
      "type": "function"
    },
    {
      "inputs": [
        {
          "internalType": "address",
          "name": "",
          "type": "address"
        }
      ],
      "name": "feeReserves",
      "outputs": [
        {
          "internalType": "uint256",
          "name": "",
          "type": "uint256"
        }
      ],
      "stateMutability": "view",
      "type": "function"
    },
    {
      "inputs": [
        {
          "internalType": "bytes32",
          "name": "_key",
          "type": "bytes32"
        }
      ],
      "name": "getDecreasePositionRequestPath",
      "outputs": [
        {
          "internalType": "address[]",
          "name": "",
          "type": "address[]"
        }
      ],
      "stateMutability": "view",
      "type": "function"
    },
    {
      "inputs": [
        {
          "internalType": "bytes32",
          "name": "_key",
          "type": "bytes32"
        }
      ],
      "name": "getIncreasePositionRequestPath",
      "outputs": [
        {
          "internalType": "address[]",
          "name": "",
          "type": "address[]"
        }
      ],
      "stateMutability": "view",
      "type": "function"
    },
    {
      "inputs": [
        {
          "internalType": "address",
          "name": "_account",
          "type": "address"
        },
        {
          "internalType": "uint256",
          "name": "_index",
          "type": "uint256"
        }
      ],
      "name": "getRequestKey",
      "outputs": [
        {
          "internalType": "bytes32",
          "name": "",
          "type": "bytes32"
        }
      ],
      "stateMutability": "pure",
      "type": "function"
    },
    {
      "inputs": [],
      "name": "getRequestQueueLengths",
      "outputs": [
        {
          "internalType": "uint256",
          "name": "",
          "type": "uint256"
        },
        {
          "internalType": "uint256",
          "name": "",
          "type": "uint256"
        },
        {
          "internalType": "uint256",
          "name": "",
          "type": "uint256"
        },
        {
          "internalType": "uint256",
          "name": "",
          "type": "uint256"
        }
      ],
      "stateMutability": "view",
      "type": "function"
    },
    {
      "inputs": [],
      "name": "increasePositionBufferBps",
      "outputs": [
        {
          "internalType": "uint256",
          "name": "",
          "type": "uint256"
        }
      ],
      "stateMutability": "view",
      "type": "function"
    },
    {
      "inputs": [
        {
          "internalType": "uint256",
          "name": "",
          "type": "uint256"
        }
      ],
      "name": "increasePositionRequestKeys",
      "outputs": [
        {
          "internalType": "bytes32",
          "name": "",
          "type": "bytes32"
        }
      ],
      "stateMutability": "view",
      "type": "function"
    },
    {
      "inputs": [],
      "name": "increasePositionRequestKeysStart",
      "outputs": [
        {
          "internalType": "uint256",
          "name": "",
          "type": "uint256"
        }
      ],
      "stateMutability": "view",
      "type": "function"
    },
    {
      "inputs": [
        {
          "internalType": "bytes32",
          "name": "",
          "type": "bytes32"
        }
      ],
      "name": "increasePositionRequests",
      "outputs": [
        {
          "internalType": "address",
          "name": "account",
          "type": "address"
        },
        {
          "internalType": "address",
          "name": "indexToken",
          "type": "address"
        },
        {
          "internalType": "uint256",
          "name": "amountIn",
          "type": "uint256"
        },
        {
          "internalType": "uint256",
          "name": "minOut",
          "type": "uint256"
        },
        {
          "internalType": "uint256",
          "name": "sizeDelta",
          "type": "uint256"
        },
        {
          "internalType": "bool",
          "name": "isLong",
          "type": "bool"
        },
        {
          "internalType": "uint256",
          "name": "acceptablePrice",
          "type": "uint256"
        },
        {
          "internalType": "uint256",
          "name": "executionFee",
          "type": "uint256"
        },
        {
          "internalType": "uint256",
          "name": "blockNumber",
          "type": "uint256"
        },
        {
          "internalType": "uint256",
          "name": "blockTime",
          "type": "uint256"
        },
        {
          "internalType": "bool",
          "name": "hasCollateralInETH",
          "type": "bool"
        }
      ],
      "stateMutability": "view",
      "type": "function"
    },
    {
      "inputs": [
        {
          "internalType": "address",
          "name": "",
          "type": "address"
        }
      ],
      "name": "increasePositionsIndex",
      "outputs": [
        {
          "internalType": "uint256",
          "name": "",
          "type": "uint256"
        }
      ],
      "stateMutability": "view",
      "type": "function"
    },
    {
      "inputs": [],
      "name": "isLeverageEnabled",
      "outputs": [
        {
          "internalType": "bool",
          "name": "",
          "type": "bool"
        }
      ],
      "stateMutability": "view",
      "type": "function"
    },
    {
      "inputs": [
        {
          "internalType": "address",
          "name": "",
          "type": "address"
        }
      ],
      "name": "isPositionKeeper",
      "outputs": [
        {
          "internalType": "bool",
          "name": "",
          "type": "bool"
        }
      ],
      "stateMutability": "view",
      "type": "function"
    },
    {
      "inputs": [
        {
          "internalType": "address",
          "name": "",
          "type": "address"
        }
      ],
      "name": "maxGlobalLongSizes",
      "outputs": [
        {
          "internalType": "uint256",
          "name": "",
          "type": "uint256"
        }
      ],
      "stateMutability": "view",
      "type": "function"
    },
    {
      "inputs": [
        {
          "internalType": "address",
          "name": "",
          "type": "address"
        }
      ],
      "name": "maxGlobalShortSizes",
      "outputs": [
        {
          "internalType": "uint256",
          "name": "",
          "type": "uint256"
        }
      ],
      "stateMutability": "view",
      "type": "function"
    },
    {
      "inputs": [],
      "name": "maxTimeDelay",
      "outputs": [
        {
          "internalType": "uint256",
          "name": "",
          "type": "uint256"
        }
      ],
      "stateMutability": "view",
      "type": "function"
    },
    {
      "inputs": [],
      "name": "minBlockDelayKeeper",
      "outputs": [
        {
          "internalType": "uint256",
          "name": "",
          "type": "uint256"
        }
      ],
      "stateMutability": "view",
      "type": "function"
    },
    {
      "inputs": [],
      "name": "minExecutionFee",
      "outputs": [
        {
          "internalType": "uint256",
          "name": "",
          "type": "uint256"
        }
      ],
      "stateMutability": "view",
      "type": "function"
    },
    {
      "inputs": [],
      "name": "minTimeDelayPublic",
      "outputs": [
        {
          "internalType": "uint256",
          "name": "",
          "type": "uint256"
        }
      ],
      "stateMutability": "view",
      "type": "function"
    },
    {
      "inputs": [],
      "name": "owner",
      "outputs": [
        {
          "internalType": "address",
          "name": "",
          "type": "address"
        }
      ],
      "stateMutability": "view",
      "type": "function"
    },
    {
      "inputs": [],
      "name": "referralStorage",
      "outputs": [
        {
          "internalType": "address",
          "name": "",
          "type": "address"
        }
      ],
      "stateMutability": "view",
      "type": "function"
    },
    {
      "inputs": [],
      "name": "renounceOwnership",
      "outputs": [],
      "stateMutability": "nonpayable",
      "type": "function"
    },
    {
      "inputs": [
        {
          "internalType": "address payable",
          "name": "_receiver",
          "type": "address"
        },
        {
          "internalType": "uint256",
          "name": "_amount",
          "type": "uint256"
        }
      ],
      "name": "sendValue",
      "outputs": [],
      "stateMutability": "nonpayable",
      "type": "function"
    },
    {
      "inputs": [
        {
          "internalType": "uint256",
          "name": "_minBlockDelayKeeper",
          "type": "uint256"
        },
        {
          "internalType": "uint256",
          "name": "_minTimeDelayPublic",
          "type": "uint256"
        },
        {
          "internalType": "uint256",
          "name": "_maxTimeDelay",
          "type": "uint256"
        }
      ],
      "name": "setDelayValues",
      "outputs": [],
      "stateMutability": "nonpayable",
      "type": "function"
    },
    {
      "inputs": [
        {
          "internalType": "uint256",
          "name": "_depositFee",
          "type": "uint256"
        }
      ],
      "name": "setDepositFee",
      "outputs": [],
      "stateMutability": "nonpayable",
      "type": "function"
    },
    {
      "inputs": [
        {
          "internalType": "uint256",
          "name": "_increasePositionBufferBps",
          "type": "uint256"
        }
      ],
      "name": "setIncreasePositionBufferBps",
      "outputs": [],
      "stateMutability": "nonpayable",
      "type": "function"
    },
    {
      "inputs": [
        {
          "internalType": "bool",
          "name": "_isLeverageEnabled",
          "type": "bool"
        }
      ],
      "name": "setIsLeverageEnabled",
      "outputs": [],
      "stateMutability": "nonpayable",
      "type": "function"
    },
    {
      "inputs": [
        {
          "internalType": "address[]",
          "name": "_tokens",
          "type": "address[]"
        },
        {
          "internalType": "uint256[]",
          "name": "_longSizes",
          "type": "uint256[]"
        },
        {
          "internalType": "uint256[]",
          "name": "_shortSizes",
          "type": "uint256[]"
        }
      ],
      "name": "setMaxGlobalSizes",
      "outputs": [],
      "stateMutability": "nonpayable",
      "type": "function"
    },
    {
      "inputs": [
        {
          "internalType": "uint256",
          "name": "_minExecutionFee",
          "type": "uint256"
        }
      ],
      "name": "setMinExecutionFee",
      "outputs": [],
      "stateMutability": "nonpayable",
      "type": "function"
    },
    {
      "inputs": [
        {
          "internalType": "address",
          "name": "_account",
          "type": "address"
        },
        {
          "internalType": "bool",
          "name": "_isActive",
          "type": "bool"
        }
      ],
      "name": "setPositionKeeper",
      "outputs": [],
      "stateMutability": "nonpayable",
      "type": "function"
    },
    {
      "inputs": [
        {
          "internalType": "uint256",
          "name": "_increasePositionRequestKeysStart",
          "type": "uint256"
        },
        {
          "internalType": "uint256",
          "name": "_decreasePositionRequestKeysStart",
          "type": "uint256"
        }
      ],
      "name": "setRequestKeysStartValues",
      "outputs": [],
      "stateMutability": "nonpayable",
      "type": "function"
    },
    {
      "inputs": [
        {
          "internalType": "address",
          "name": "newOwner",
          "type": "address"
        }
      ],
      "name": "transferOwnership",
      "outputs": [],
      "stateMutability": "nonpayable",
      "type": "function"
    },
    {
      "inputs": [
        {
          "internalType": "address",
          "name": "newTreasury",
          "type": "address"
        }
      ],
      "name": "transferTreasury",
      "outputs": [],
      "stateMutability": "nonpayable",
      "type": "function"
    },
    {
      "inputs": [],
      "name": "treasury",
      "outputs": [
        {
          "internalType": "address",
          "name": "",
          "type": "address"
        }
      ],
      "stateMutability": "view",
      "type": "function"
    },
    {
      "inputs": [],
      "name": "weth",
      "outputs": [
        {
          "internalType": "address",
          "name": "",
          "type": "address"
        }
      ],
      "stateMutability": "view",
      "type": "function"
    },
    {
      "inputs": [
        {
          "internalType": "address",
          "name": "_token",
          "type": "address"
        },
        {
          "internalType": "address",
          "name": "_receiver",
          "type": "address"
        }
      ],
      "name": "withdrawFees",
      "outputs": [],
      "stateMutability": "nonpayable",
      "type": "function"
    },
    {
      "stateMutability": "payable",
      "type": "receive"
    }
  ],
  "bytecode": "0x60806040526064600655600f805460ff191660011790553480156200002357600080fd5b5060405162005f1d38038062005f1d833981810160405260a08110156200004957600080fd5b508051602082015160408301516060840151608090940151600160009081559394929391929185908590859084908190620000836200015d565b600180546001600160a01b0319166001600160a01b038316908117909155604051919250906000907f8be0079c531659141344cd1fd0a4f28419497f9722a3daafe3b4186f6b6457e0908290a350600280546001600160a01b0319166001600160a01b0383169081179091556040516000907febebcc22237fa047dcfebf54b185ec126c9b24d45f4bd2a18e4fa02e07308c40908290a35050600380546001600160a01b039485166001600160a01b031991821617909155600480549390941692169190911790915560055550600b555062000161915050565b3390565b615dac80620001716000396000f3fe6080604052600436106103025760003560e01c806362f8a3fe11610190578063cb0269c9116100dc578063f255527811610095578063f3883d8b1161006f578063f3883d8b14610f88578063fa44457714610fc1578063faf990f314610ff4578063fc2cee621461108257610352565b8063f255527814610edf578063f2cea6a514610f1a578063f2fde38b14610f5557610352565b8063cb0269c914610af0578063ceed2cc114610b05578063d8a6021c14610bd5578063e1f21c6714610c08578063e70dd2fc14610c4b578063ef12c67e14610d2d57610352565b80638da5cb5b1161014957806398d1e03a1161012357806398d1e03a14610a785780639a20810014610a8d5780639b57862014610ac6578063c72c4d1014610adb57610352565b80638da5cb5b14610a0657806395e9bbd714610a1b5780639698d25a14610a4557610352565b806362f8a3fe1461092f578063633451de1461096857806363ae21031461099b57806367a52793146109b0578063715018a6146109c55780637c2eb9f7146109da57610352565b8063308aa81f1161024f5780634067b132116102085780635841fcaa116101e25780635841fcaa146108525780635d5c22e81461086757806360a362e2146108e157806361d027b31461091a57610352565b80634067b132146107c85780634278555f146107fe578063490ae2101461082857610352565b8063308aa81f146106eb5780633422ead11461071b57806336eba48a146107565780633a2a80c7146107895780633e72a2621461079e5780633fc8cef3146107b357610352565b80631bca8cf0116102bc578063225fc9fd11610296578063225fc9fd14610616578063233bfe3b1461064f57806324a084df1461067957806327b42c0f146106b257610352565b80631bca8cf0146105225780631ce9cb8f146105375780631f2851061461056a57610352565b80626cc35e1461035757806304225954146103885780630d4d003d146103c45780631045c74e14610411578063126082cf14610444578063133e5b171461045957610352565b36610352576004546001600160a01b031633146103505760405162461bcd60e51b8152600401808060200182810382526023815260200180615cd66023913960400191505060405180910390fd5b005b600080fd5b34801561036357600080fd5b5061036c6110ac565b604080516001600160a01b039092168252519081900360200190f35b34801561039457600080fd5b506103b2600480360360208110156103ab57600080fd5b50356110bb565b60408051918252519081900360200190f35b3480156103d057600080fd5b506103fd600480360360408110156103e757600080fd5b50803590602001356001600160a01b03166110dc565b604080519115158252519081900360200190f35b34801561041d57600080fd5b506103b26004803603602081101561043457600080fd5b50356001600160a01b03166115b0565b34801561045057600080fd5b506103b26115c2565b610350600480360360e081101561046f57600080fd5b810190602081018135600160201b81111561048957600080fd5b82018360208201111561049b57600080fd5b803590602001918460208302840111600160201b831117156104bc57600080fd5b919080806020026020016040519081016040528093929190818152602001838360200280828437600092019190915250929550506001600160a01b0383351693505050602081013590604081013590606081013515159060808101359060a001356115c8565b34801561052e57600080fd5b506103b2611796565b34801561054357600080fd5b506103b26004803603602081101561055a57600080fd5b50356001600160a01b031661179c565b34801561057657600080fd5b506105946004803603602081101561058d57600080fd5b50356117ae565b604051808d6001600160a01b031681526020018c6001600160a01b031681526020018b81526020018a81526020018915158152602001886001600160a01b0316815260200187815260200186815260200185815260200184815260200183815260200182151581526020019c5050505050505050505050505060405180910390f35b34801561062257600080fd5b506103fd6004803603604081101561063957600080fd5b50803590602001356001600160a01b031661181a565b34801561065b57600080fd5b506103506004803603602081101561067257600080fd5b5035611bba565b34801561068557600080fd5b506103506004803603604081101561069c57600080fd5b506001600160a01b038135169060200135611c57565b3480156106be57600080fd5b506103fd600480360360408110156106d557600080fd5b50803590602001356001600160a01b0316611cd0565b3480156106f757600080fd5b506103506004803603604081101561070e57600080fd5b50803590602001356120b3565b34801561072757600080fd5b506103506004803603604081101561073e57600080fd5b506001600160a01b038135169060200135151561215e565b34801561076257600080fd5b506103fd6004803603602081101561077957600080fd5b50356001600160a01b0316612220565b34801561079557600080fd5b506103b2612235565b3480156107aa57600080fd5b506103fd61223b565b3480156107bf57600080fd5b5061036c612244565b3480156107d457600080fd5b50610350600480360360608110156107eb57600080fd5b5080359060208101359060400135612253565b34801561080a57600080fd5b506103b26004803603602081101561082157600080fd5b5035612309565b34801561083457600080fd5b506103506004803603602081101561084b57600080fd5b5035612319565b34801561085e57600080fd5b506103b26123b6565b34801561087357600080fd5b506108916004803603602081101561088a57600080fd5b50356123bc565b60408051602080825283518183015283519192839290830191858101910280838360005b838110156108cd5781810151838201526020016108b5565b505050509050019250505060405180910390f35b3480156108ed57600080fd5b506103fd6004803603604081101561090457600080fd5b50803590602001356001600160a01b03166124e0565b34801561092657600080fd5b5061036c612866565b34801561093b57600080fd5b506103b26004803603604081101561095257600080fd5b506001600160a01b038135169060200135612875565b34801561097457600080fd5b506103b26004803603602081101561098b57600080fd5b50356001600160a01b03166128bb565b3480156109a757600080fd5b506103b26128cd565b3480156109bc57600080fd5b506103b26128d3565b3480156109d157600080fd5b506103506128d9565b3480156109e657600080fd5b50610350600480360360208110156109fd57600080fd5b50351515612985565b348015610a1257600080fd5b5061036c612a2e565b348015610a2757600080fd5b5061089160048036036020811015610a3e57600080fd5b5035612a3d565b348015610a5157600080fd5b506103b260048036036020811015610a6857600080fd5b50356001600160a01b0316612b53565b348015610a8457600080fd5b506103b2612b65565b348015610a9957600080fd5b5061035060048036036040811015610ab057600080fd5b50803590602001356001600160a01b0316612b6b565b348015610ad257600080fd5b506103b2612d47565b348015610ae757600080fd5b5061036c612d4d565b348015610afc57600080fd5b506103b2612d5c565b6103506004803603610100811015610b1c57600080fd5b810190602081018135600160201b811115610b3657600080fd5b820183602082011115610b4857600080fd5b803590602001918460208302840111600160201b83111715610b6957600080fd5b919080806020026020016040519081016040528093929190818152602001838360200280828437600092019190915250929550506001600160a01b0383351693505050602081013590604081013590606081013590608081013515159060a08101359060c00135612d62565b348015610be157600080fd5b5061035060048036036020811015610bf857600080fd5b50356001600160a01b0316612fbc565b348015610c1457600080fd5b5061035060048036036060811015610c2b57600080fd5b506001600160a01b0381358116916020810135909116906040013561306b565b6103506004803603610140811015610c6257600080fd5b810190602081018135600160201b811115610c7c57600080fd5b820183602082011115610c8e57600080fd5b803590602001918460208302840111600160201b83111715610caf57600080fd5b919080806020026020016040519081016040528093929190818152602001838360200280828437600092019190915250929550505081356001600160a01b0390811693506020830135926040810135925060608101351515916080820135169060a08101359060c08101359060e08101359061010001351515613155565b348015610d3957600080fd5b5061035060048036036060811015610d5057600080fd5b810190602081018135600160201b811115610d6a57600080fd5b820183602082011115610d7c57600080fd5b803590602001918460208302840111600160201b83111715610d9d57600080fd5b9190808060200260200160405190810160405280939291908181526020018383602002808284376000920191909152509295949360208101935035915050600160201b811115610dec57600080fd5b820183602082011115610dfe57600080fd5b803590602001918460208302840111600160201b83111715610e1f57600080fd5b9190808060200260200160405190810160405280939291908181526020018383602002808284376000920191909152509295949360208101935035915050600160201b811115610e6e57600080fd5b820183602082011115610e8057600080fd5b803590602001918460208302840111600160201b83111715610ea157600080fd5b919080806020026020016040519081016040528093929190818152602001838360200280828437600092019190915250929550613321945050505050565b348015610eeb57600080fd5b5061035060048036036040811015610f0257600080fd5b506001600160a01b0381358116916020013516613525565b348015610f2657600080fd5b50610f2f61361a565b604080519485526020850193909352838301919091526060830152519081900360800190f35b348015610f6157600080fd5b5061035060048036036020811015610f7857600080fd5b50356001600160a01b031661362c565b348015610f9457600080fd5b5061035060048036036040811015610fab57600080fd5b50803590602001356001600160a01b031661372f565b348015610fcd57600080fd5b506103b260048036036020811015610fe457600080fd5b50356001600160a01b031661390b565b34801561100057600080fd5b5061101e6004803603602081101561101757600080fd5b503561391d565b604080516001600160a01b039c8d1681529a909b1660208b0152898b01989098526060890196909652608088019490945291151560a087015260c086015260e085015261010084015261012083015215156101408201529051908190036101600190f35b34801561108e57600080fd5b50610350600480360360208110156110a557600080fd5b5035613987565b6007546001600160a01b031681565b601081815481106110cb57600080fd5b600091825260209091200154905081565b600060026000541415611124576040805162461bcd60e51b815260206004820152601f6024820152600080516020615a42833981519152604482015290519081900360640190fd5b6002600090815583815260186020908152604080832081516101a08101835281546001600160a01b0316815260018201805484518187028101870190955280855291949293858401939092908301828280156111a957602002820191906000526020600020905b81546001600160a01b0316815260019091019060200180831161118b575b505050918352505060028201546001600160a01b0390811660208301526003830154604083015260048301546060830152600583015460ff8082161515608085015261010091829004831660a0850152600685015460c0850152600785015460e08501526008850154918401919091526009840154610120840152600a840154610140840152600b909301549092161515610160909101528151919250166112555760019150506115a5565b60006112708261014001518361016001518460000151613a24565b905080611282576000925050506115a5565b600085815260186020526040812080546001600160a01b0319168155906112ac6001830182615957565b506002810180546001600160a01b0319169055600060038201819055600482018190556005820180546001600160a81b031916905560068201819055600782018190556008820181905560098201819055600a8201819055600b909101805460ff1916905582516020840151805161134f929190849061132857fe5b60200260200101518560400151866060015187608001518860a00151308a60e00151613bd8565b90506001836020015151111561141b57600354604080516311b2515f60e31b81529051611404926001600160a01b031691638d928af8916004808301926020929190829003018186803b1580156113a557600080fd5b505afa1580156113b9573d6000803e3d6000fd5b505050506040513d60208110156113cf57600080fd5b5051602085015180518491906000906113e457fe5b60200260200101516001600160a01b03166140409092919063ffffffff16565b611418836020015184610100015130614097565b90505b8261018001511561143957611434818460c00151614115565b61145a565b61145a8360c00151828560200151600187602001515103815181106113e457fe5b611469836101200151866141ae565b82600001516001600160a01b03167f21435c5b618d77ff3657140cd3318e2cffaebc5e0e1b7318f56a9ba4044c3ed284602001518560400151866060015187608001518860a001518960c001518a60e001518b61010001518c61012001516114df8e61014001514361422590919063ffffffff16565b6101608f01516114f0904290614225565b60405180806020018c6001600160a01b031681526020018b81526020018a81526020018915158152602001886001600160a01b0316815260200187815260200186815260200185815260200184815260200183815260200182810382528d818151815260200191508051906020019060200280838360005b83811015611580578181015183820152602001611568565b505050509050019c5050505050505050505050505060405180910390a2600193505050505b600160005592915050565b60096020526000908152604090205481565b61271081565b6002600054141561160e576040805162461bcd60e51b815260206004820152601f6024820152600080516020615a42833981519152604482015290519081900360640190fd5b6002600055600b548110156116545760405162461bcd60e51b8152600401808060200182810382526024815260200180615a1e6024913960400191505060405180910390fd5b803410156116935760405162461bcd60e51b8152600401808060200182810382526021815260200180615a626021913960400191505060405180910390fd5b8651600114806116a4575086516002145b6116df5760405162461bcd60e51b8152600401808060200182810382526024815260200180615aff6024913960400191505060405180910390fd5b60045487516001600160a01b039091169088906000906116fb57fe5b60200260200101516001600160a01b03161461175e576040805162461bcd60e51b815260206004820152601d60248201527f506f736974696f6e526f757465723a20696e76616c6964205f70617468000000604482015290519081900360640190fd5b611766614282565b60006117723483614225565b9050611787338989848a8a8a8a8a60016142e3565b50506001600055505050505050565b60135481565b60086020526000908152604090205481565b6018602052600090815260409020805460028201546003830154600484015460058501546006860154600787015460088801546009890154600a8a0154600b909a01546001600160a01b03998a169a988a16999798969760ff808816986101009098049091169691168c565b600060026000541415611862576040805162461bcd60e51b815260206004820152601f6024820152600080516020615a42833981519152604482015290519081900360640190fd5b6002600090815583815260166020908152604080832081516101808101835281546001600160a01b0316815260018201805484518187028101870190955280855291949293858401939092908301828280156118e757602002820191906000526020600020905b81546001600160a01b031681526001909101906020018083116118c9575b505050918352505060028201546001600160a01b039081166020830152600383015460408301526004830154606083015260058301546080830152600683015460ff908116151560a0840152600784015460c0840152600884015460e08401526009840154610100840152600a840154610120840152600b909301549092161515610140909101528151919250166119835760019150506115a5565b600061199e82610120015183610140015184600001516145b3565b9050806119b0576000925050506115a5565b600085815260166020526040812080546001600160a01b0319168155906119da6001830182615957565b506002810180546001600160a01b0319169055600060038201819055600482018190556005820181905560068201805460ff19908116909155600783018290556008830182905560098301829055600a830191909155600b9091018054909116905561016082015115611a5e57611a5982606001518360000151614115565b611a7c565b611a7c8260000151836060015184602001516000815181106113e457fe5b611a8b826101000151856141ae565b81600001516001600160a01b03167f35b638e650e2328786fb405bd69d2083dbedc018d086662e74b775b4f1dae4bf83602001518460400151856060015186608001518760a001518860c001518960e001518a6101000151611afb8c61012001514361422590919063ffffffff16565b6101408d0151611b0c904290614225565b60405180806020018b6001600160a01b031681526020018a8152602001898152602001888152602001871515815260200186815260200185815260200184815260200183815260200182810382528c818151815260200191508051906020019060200280838360005b83811015611b8d578181015183820152602001611b75565b505050509050019b50505050505050505050505060405180910390a2600192505050600160005592915050565b611bc2614631565b6001600160a01b0316611bd3612a2e565b6001600160a01b031614611c1c576040805162461bcd60e51b81526020600482018190526024820152600080516020615c03833981519152604482015290519081900360640190fd5b60068190556040805182815290517f21167d0d4661af93817ebce920f18986eed3d75d5e1c03f2aed05efcbafbc4529181900360200190a150565b611c5f614631565b6001600160a01b0316611c70612a2e565b6001600160a01b031614611cb9576040805162461bcd60e51b81526020600482018190526024820152600080516020615c03833981519152604482015290519081900360640190fd5b611ccc6001600160a01b03831682614635565b5050565b600060026000541415611d18576040805162461bcd60e51b815260206004820152601f6024820152600080516020615a42833981519152604482015290519081900360640190fd5b6002600090815583815260166020908152604080832081516101808101835281546001600160a01b031681526001820180548451818702810187019095528085529194929385840193909290830182828015611d9d57602002820191906000526020600020905b81546001600160a01b03168152600190910190602001808311611d7f575b505050918352505060028201546001600160a01b039081166020830152600383015460408301526004830154606083015260058301546080830152600683015460ff908116151560a0840152600784015460c0840152600884015460e08401526009840154610100840152600a840154610120840152600b90930154909216151561014090910152815191925016611e395760019150506115a5565b6000611e548261012001518361014001518460000151613a24565b905080611e66576000925050506115a5565b600085815260166020526040812080546001600160a01b031916815590611e906001830182615957565b506002810180546001600160a01b0319169055600060038201819055600482018190556005820181905560068201805460ff19908116909155600783018290556008830182905560098301829055600a830191909155600b90910180549091169055606082015115611ff6576060820151600354604080516311b2515f60e31b815290516000926001600160a01b031691638d928af8916004808301926020929190829003018186803b158015611f4657600080fd5b505afa158015611f5a573d6000803e3d6000fd5b505050506040513d6020811015611f7057600080fd5b505160208501515190915060011015611fb357611f9d81856060015186602001516000815181106113e457fe5b611fb08460200151856080015130614097565b91505b6000611fd33386602001518588604001518960c001518a60a0015161471a565b9050611ff282828760200151600189602001515103815181106113e457fe5b5050505b815160208301518051612034929190600019810190811061201357fe5b602002602001015184604001518560a001518660c001518760e001516147f9565b612043826101000151856141ae565b81600001516001600160a01b03167f1be316b94d38c07bd41cdb4913772d0a0a82802786a2f8b657b6e85dbcdfc64183602001518460400151856060015186608001518760a001518860c001518960e001518a6101000151611afb8c61012001514361422590919063ffffffff16565b6120bb614631565b6001600160a01b03166120cc612a2e565b6001600160a01b031614612115576040805162461bcd60e51b81526020600482018190526024820152600080516020615c03833981519152604482015290519081900360640190fd5b60128290556013819055604080518381526020810183905281517febb0f666150f4be5b60c45df8f3e49992510b0128027fe58eea6110f296493bc929181900390910190a15050565b612166614631565b6001600160a01b0316612177612a2e565b6001600160a01b0316146121c0576040805162461bcd60e51b81526020600482018190526024820152600080516020615c03833981519152604482015290519081900360640190fd5b6001600160a01b038216600081815260146020908152604091829020805460ff1916851515908117909155825190815291517ffbabc02389290a451c6e600d05bf9887b99bfad39d8e1237e4e3df042e4941fe9281900390910190a25050565b60146020526000908152604090205460ff1681565b600d5481565b600f5460ff1681565b6004546001600160a01b031681565b61225b614631565b6001600160a01b031661226c612a2e565b6001600160a01b0316146122b5576040805162461bcd60e51b81526020600482018190526024820152600080516020615c03833981519152604482015290519081900360640190fd5b600c839055600d829055600e819055604080518481526020810184905280820183905290517fb98e759701eaca2e60c25e91109003c1c7442ef731b5d569037063005da8254d9181900360600190a1505050565b601181815481106110cb57600080fd5b612321614631565b6001600160a01b0316612332612a2e565b6001600160a01b03161461237b576040805162461bcd60e51b81526020600482018190526024820152600080516020615c03833981519152604482015290519081900360640190fd5b60058190556040805182815290517f974fd3c1fcb4653dfc4fb740c4c692cd212d55c28f163f310128cb64d83006759181900360200190a150565b600c5481565b600081815260186020908152604080832081516101a08101835281546001600160a01b03168152600182018054845181870281018701909552808552606096959294858401939092919083018282801561243f57602002820191906000526020600020905b81546001600160a01b03168152600190910190602001808311612421575b505050918352505060028201546001600160a01b039081166020808401919091526003840154604084015260048401546060840152600584015460ff808216151560808601526101009182900490931660a0850152600685015460c0850152600785015460e08501526008850154908401526009840154610120840152600a840154610140840152600b909301541615156101609091015201519392505050565b600060026000541415612528576040805162461bcd60e51b815260206004820152601f6024820152600080516020615a42833981519152604482015290519081900360640190fd5b6002600090815583815260186020908152604080832081516101a08101835281546001600160a01b0316815260018201805484518187028101870190955280855291949293858401939092908301828280156125ad57602002820191906000526020600020905b81546001600160a01b0316815260019091019060200180831161258f575b505050918352505060028201546001600160a01b0390811660208301526003830154604083015260048301546060830152600583015460ff8082161515608085015261010091829004831660a0850152600685015460c0850152600785015460e08501526008850154918401919091526009840154610120840152600a840154610140840152600b909301549092161515610160909101528151919250166126595760019150506115a5565b600061267482610140015183610160015184600001516145b3565b905080612686576000925050506115a5565b600085815260186020526040812080546001600160a01b0319168155906126b06001830182615957565b506002810180546001600160a01b0319169055600060038201819055600482018190556005820180546001600160a81b031916905560068201819055600782018190556008820181905560098201819055600a820155600b01805460ff1916905561012082015161272190856141ae565b81600001516001600160a01b03167f87abfd78e844f28318363bdf3da99eab2f4a2da9ff7ae365484507f7b6c3f80583602001518460400151856060015186608001518760a001518860c001518960e001518a61010001518b61012001516127978d61014001514361422590919063ffffffff16565b6101608e01516127a8904290614225565b60405180806020018c6001600160a01b031681526020018b81526020018a81526020018915158152602001886001600160a01b0316815260200187815260200186815260200185815260200184815260200183815260200182810382528d818151815260200191508051906020019060200280838360005b83811015612838578181015183820152602001612820565b505050509050019c5050505050505050505050505060405180910390a2600192505050600160005592915050565b6002546001600160a01b031690565b6000828260405160200180836001600160a01b031660601b8152601401828152602001925050506040516020818303038152906040528051906020012090505b92915050565b60156020526000908152604090205481565b600b5481565b60055481565b6128e1614631565b6001600160a01b03166128f2612a2e565b6001600160a01b03161461293b576040805162461bcd60e51b81526020600482018190526024820152600080516020615c03833981519152604482015290519081900360640190fd5b6001546040516000916001600160a01b0316907f8be0079c531659141344cd1fd0a4f28419497f9722a3daafe3b4186f6b6457e0908390a3600180546001600160a01b0319169055565b61298d614631565b6001600160a01b031661299e612a2e565b6001600160a01b0316146129e7576040805162461bcd60e51b81526020600482018190526024820152600080516020615c03833981519152604482015290519081900360640190fd5b600f805482151560ff19909116811790915560408051918252517f4eb87a5935d402aa24c01b45bfb30adefcd2328b480f2d967864de4b64ea929f9181900360200190a150565b6001546001600160a01b031690565b600081815260166020908152604080832081516101808101835281546001600160a01b031681526001820180548451818702810187019095528085526060969592948584019390929190830182828015612ac057602002820191906000526020600020905b81546001600160a01b03168152600190910190602001808311612aa2575b505050918352505060028201546001600160a01b0316602080830191909152600383015460408301526004830154606083015260058301546080830152600683015460ff908116151560a0840152600784015460c0840152600884015460e08401526009840154610100840152600a840154610120840152600b9093015490921615156101409091015201519392505050565b600a6020526000908152604090205481565b60065481565b3360009081526014602052604090205460ff16612bb95760405162461bcd60e51b8152600401808060200182810382526031815260200180615d236031913960400191505060405180910390fd5b601254601054808210612bcd575050611ccc565b80841115612bd9578093505b83821015612d3f57600060108381548110612bf057fe5b90600052602060002001549050306001600160a01b03166327b42c0f82866040518363ffffffff1660e01b815260040180838152602001826001600160a01b0316815260200192505050602060405180830381600087803b158015612c5457600080fd5b505af1925050508015612c7957506040513d6020811015612c7457600080fd5b505160015b612d0d576040805163225fc9fd60e01b8152600481018390526001600160a01b03861660248201529051309163225fc9fd9160448083019260209291908290030181600087803b158015612ccc57600080fd5b505af1925050508015612cf157506040513d6020811015612cec57600080fd5b505160015b612cfa57612d08565b80612d06575050612d3f565b505b612d1b565b80612d19575050612d3f565b505b60108381548110612d2857fe5b600091825260208220015550600190910190612bd9565b506012555050565b60125481565b6003546001600160a01b031681565b600e5481565b60026000541415612da8576040805162461bcd60e51b815260206004820152601f6024820152600080516020615a42833981519152604482015290519081900360640190fd5b6002600055600b54811015612dee5760405162461bcd60e51b8152600401808060200182810382526024815260200180615a1e6024913960400191505060405180910390fd5b803414612e2c5760405162461bcd60e51b8152600401808060200182810382526021815260200180615a626021913960400191505060405180910390fd5b875160011480612e3d575087516002145b612e785760405162461bcd60e51b8152600401808060200182810382526024815260200180615aff6024913960400191505060405180910390fd5b612e80614282565b8515612fa957600360009054906101000a90046001600160a01b03166001600160a01b031663b0f479a16040518163ffffffff1660e01b815260040160206040518083038186803b158015612ed457600080fd5b505afa158015612ee8573d6000803e3d6000fd5b505050506040513d6020811015612efe57600080fd5b505188516001600160a01b0390911690631b827878908a90600090612f1f57fe5b602002602001015133308a6040518563ffffffff1660e01b815260040180856001600160a01b03168152602001846001600160a01b03168152602001836001600160a01b03168152602001828152602001945050505050600060405180830381600087803b158015612f9057600080fd5b505af1158015612fa4573d6000803e3d6000fd5b505050505b61178733898989898989898960006142e3565b612fc4614631565b6001600160a01b0316612fd5612866565b6001600160a01b03161461301a5760405162461bcd60e51b815260040180806020018281038252602b815260200180615ad4602b913960400191505060405180910390fd5b6001600160a01b03811661305f5760405162461bcd60e51b8152600401808060200182810382526031815260200180615c236031913960400191505060405180910390fd5b61306881614e42565b50565b613073614631565b6001600160a01b0316613084612a2e565b6001600160a01b0316146130cd576040805162461bcd60e51b81526020600482018190526024820152600080516020615c03833981519152604482015290519081900360640190fd5b826001600160a01b031663095ea7b383836040518363ffffffff1660e01b815260040180836001600160a01b0316815260200182815260200192505050602060405180830381600087803b15801561312457600080fd5b505af1158015613138573d6000803e3d6000fd5b505050506040513d602081101561314e57600080fd5b5050505050565b6002600054141561319b576040805162461bcd60e51b815260206004820152601f6024820152600080516020615a42833981519152604482015290519081900360640190fd5b6002600055600b548210156131e15760405162461bcd60e51b8152600401808060200182810382526024815260200180615a1e6024913960400191505060405180910390fd5b81341461321f5760405162461bcd60e51b8152600401808060200182810382526021815260200180615a626021913960400191505060405180910390fd5b895160011480613230575089516002145b61326b5760405162461bcd60e51b8152600401808060200182810382526024815260200180615aff6024913960400191505060405180910390fd5b80156132f5576004548a516001600160a01b03909116908b90600019810190811061329257fe5b60200260200101516001600160a01b0316146132f5576040805162461bcd60e51b815260206004820152601d60248201527f506f736974696f6e526f757465723a20696e76616c6964205f70617468000000604482015290519081900360640190fd5b6132fd614282565b613310338b8b8b8b8b8b8b8b8b8b614e9e565b505060016000555050505050505050565b613329614631565b6001600160a01b031661333a612a2e565b6001600160a01b031614613383576040805162461bcd60e51b81526020600482018190526024820152600080516020615c03833981519152604482015290519081900360640190fd5b60005b835181101561341e57600084828151811061339d57fe5b602002602001015190508382815181106133b357fe5b602002602001015160096000836001600160a01b03166001600160a01b03168152602001908152602001600020819055508282815181106133f057fe5b6020908102919091018101516001600160a01b039092166000908152600a9091526040902055600101613386565b507fae32d569b058895b9620d6552b09aaffedc9a6f396be4d595a224ad09f8b213983838360405180806020018060200180602001848103845287818151815260200191508051906020019060200280838360005b8381101561348b578181015183820152602001613473565b50505050905001848103835286818151815260200191508051906020019060200280838360005b838110156134ca5781810151838201526020016134b2565b50505050905001848103825285818151815260200191508051906020019060200280838360005b838110156135095781810151838201526020016134f1565b50505050905001965050505050505060405180910390a1505050565b61352d614631565b6001600160a01b031661353e612866565b6001600160a01b0316146135835760405162461bcd60e51b815260040180806020018281038252602b815260200180615ad4602b913960400191505060405180910390fd5b6001600160a01b038216600090815260086020526040902054806135a75750611ccc565b6001600160a01b0383166000818152600860205260408120556135cb908383614040565b604080516001600160a01b0380861682528416602082015280820183905290517f4f1b51dd7a2fcb861aa2670f668be66835c4ee12b4bbbf037e4d0018f39819e49181900360600190a1505050565b60125460105460135460115490919293565b613634614631565b6001600160a01b0316613645612a2e565b6001600160a01b03161461368e576040805162461bcd60e51b81526020600482018190526024820152600080516020615c03833981519152604482015290519081900360640190fd5b6001600160a01b0381166136d35760405162461bcd60e51b8152600401808060200182810382526026815260200180615a836026913960400191505060405180910390fd5b6001546040516001600160a01b038084169216907f8be0079c531659141344cd1fd0a4f28419497f9722a3daafe3b4186f6b6457e090600090a3600180546001600160a01b0319166001600160a01b0392909216919091179055565b3360009081526014602052604090205460ff1661377d5760405162461bcd60e51b8152600401808060200182810382526031815260200180615d236031913960400191505060405180910390fd5b601354601154808210613791575050611ccc565b8084111561379d578093505b83821015613903576000601183815481106137b457fe5b90600052602060002001549050306001600160a01b0316630d4d003d82866040518363ffffffff1660e01b815260040180838152602001826001600160a01b0316815260200192505050602060405180830381600087803b15801561381857600080fd5b505af192505050801561383d57506040513d602081101561383857600080fd5b505160015b6138d15760408051633051b17160e11b8152600481018390526001600160a01b0386166024820152905130916360a362e29160448083019260209291908290030181600087803b15801561389057600080fd5b505af19250505080156138b557506040513d60208110156138b057600080fd5b505160015b6138be576138cc565b806138ca575050613903565b505b6138df565b806138dd575050613903565b505b601183815481106138ec57fe5b60009182526020822001555060019091019061379d565b506013555050565b60176020526000908152604090205481565b6016602052600090815260409020805460028201546003830154600484015460058501546006860154600787015460088801546009890154600a8a0154600b909a01546001600160a01b03998a169a999098169896979596949560ff94851695939492939192168b565b61398f614631565b6001600160a01b03166139a0612a2e565b6001600160a01b0316146139e9576040805162461bcd60e51b81526020600482018190526024820152600080516020615c03833981519152604482015290519081900360640190fd5b600b8190556040805182815290517f52a8358457e20bbb36e4086b83fb0749599f1893fe4c35a876c46dc4886d12db9181900360200190a150565b600042613a3c600e54856151ce90919063ffffffff16565b11613a785760405162461bcd60e51b8152600401808060200182810382526023815260200180615d546023913960400191505060405180910390fd5b600033301480613a9757503360009081526014602052604090205460ff165b600f5490915060ff16158015613aab575080155b15613af9576040805162461bcd60e51b81526020600482015260196024820152782837b9b4ba34b7b72937baba32b91d103337b93134b23232b760391b604482015290519081900360640190fd5b8015613b1f5743613b15600c54876151ce90919063ffffffff16565b1115915050613bd1565b336001600160a01b03841614613b78576040805162461bcd60e51b81526020600482015260196024820152782837b9b4ba34b7b72937baba32b91d103337b93134b23232b760391b604482015290519081900360640190fd5b42613b8e600d54866151ce90919063ffffffff16565b1115613bcb5760405162461bcd60e51b8152600401808060200182810382526028815260200180615c856028913960400191505060405180910390fd5b60019150505b9392505050565b600080600360009054906101000a90046001600160a01b03166001600160a01b031663fca513a86040518163ffffffff1660e01b815260040160206040518083038186803b158015613c2957600080fd5b505afa158015613c3d573d6000803e3d6000fd5b505050506040513d6020811015613c5357600080fd5b505190508415613d1c57604080516303b6b4bb60e51b81526001600160a01b038a8116600483015260006024830152915185928416916376d69760916044808301926020929190829003018186803b158015613cae57600080fd5b505afa158015613cc2573d6000803e3d6000fd5b505050506040513d6020811015613cd857600080fd5b50511015613d175760405162461bcd60e51b8152600401808060200182810382526030815260200180615b836030913960400191505060405180910390fd5b613dd6565b604080516303b6b4bb60e51b81526001600160a01b038a8116600483015260016024830152915185928416916376d69760916044808301926020929190829003018186803b158015613d6d57600080fd5b505afa158015613d81573d6000803e3d6000fd5b505050506040513d6020811015613d9757600080fd5b50511115613dd65760405162461bcd60e51b8152600401808060200182810382526031815260200180615c546031913960400191505060405180910390fd5b6003546040805163d759932b60e01b815290516000926001600160a01b03169163d759932b916004808301926020929190829003018186803b158015613e1b57600080fd5b505afa158015613e2f573d6000803e3d6000fd5b505050506040513d6020811015613e4557600080fd5b505160408051637c2eb9f760e01b81526001600482015290519192506001600160a01b03831691637c2eb9f79160248082019260009290919082900301818387803b158015613e9357600080fd5b505af1158015613ea7573d6000803e3d6000fd5b505050506000600360009054906101000a90046001600160a01b03166001600160a01b031663b0f479a16040518163ffffffff1660e01b815260040160206040518083038186803b158015613efb57600080fd5b505afa158015613f0f573d6000803e3d6000fd5b505050506040513d6020811015613f2557600080fd5b505160408051632662166b60e01b81526001600160a01b038f811660048301528e811660248301528d81166044830152606482018d9052608482018c90528a151560a483015289811660c483015291519190921691632662166b9160e48083019260209291908290030181600087803b158015613fa157600080fd5b505af1158015613fb5573d6000803e3d6000fd5b505050506040513d6020811015613fcb57600080fd5b505160408051637c2eb9f760e01b815260006004820181905291519293506001600160a01b03851692637c2eb9f79260248084019391929182900301818387803b15801561401857600080fd5b505af115801561402c573d6000803e3d6000fd5b50929e9d5050505050505050505050505050565b604080516001600160a01b038416602482015260448082018490528251808303909101815260649091019091526020810180516001600160e01b031663a9059cbb60e01b179052614092908490615228565b505050565b60008351600214156140de576140d7846000815181106140b357fe5b6020026020010151856001815181106140c857fe5b602002602001015185856152d9565b9050613bd1565b60405162461bcd60e51b8152600401808060200182810382526029815260200180615cad6029913960400191505060405180910390fd5b6004805460408051632e1a7d4d60e01b8152928301859052516001600160a01b0390911691632e1a7d4d91602480830192600092919082900301818387803b15801561416057600080fd5b505af1158015614174573d6000803e3d6000fd5b50506040516001600160a01b038416925084156108fc02915084906000818181858888f19350505050158015614092573d6000803e3d6000fd5b6004805460408051632e1a7d4d60e01b8152928301859052516001600160a01b0390911691632e1a7d4d91602480830192600092919082900301818387803b1580156141f957600080fd5b505af115801561420d573d6000803e3d6000fd5b50611ccc925050506001600160a01b03821683614635565b60008282111561427c576040805162461bcd60e51b815260206004820152601e60248201527f536166654d6174683a207375627472616374696f6e206f766572666c6f770000604482015290519081900360640190fd5b50900390565b34156142e1576004805460408051630d0e30db60e41b815290516001600160a01b039092169263d0e30db0923492808301926000929182900301818588803b1580156142cd57600080fd5b505af115801561314e573d6000803e3d6000fd5b565b6001600160a01b038a166000908152601560205260408120546143079060016151ce565b6001600160a01b03808d1660008181526015602090815260408083208690558051610180810182529384529083018f9052928d1692820192909252606081018b9052608081018a905260a0810189905287151560c082015260e08101879052610100810186905243610120820152426101408201528415156101608201529192506143928d84612875565b6000818152601660209081526040909120845181546001600160a01b0319166001600160a01b03909116178155848201518051939450859391926143de92600185019290910190615975565b5060408201518160020160006101000a8154816001600160a01b0302191690836001600160a01b03160217905550606082015181600301556080820151816004015560a0820151816005015560c08201518160060160006101000a81548160ff02191690831515021790555060e082015181600701556101008201518160080155610120820151816009015561014082015181600a015561016082015181600b0160006101000a81548160ff02191690831515021790555090505060108190806001815401808255809150506001900390600052602060002001600090919091909150558c6001600160a01b03167fa89f00a1c1cd0de066abac1a05f9314520fef2a9b98f6a99ff4548ed1161c03c8d8d8d8d8d8d8d8d8c43423a60405180806020018d6001600160a01b031681526020018c81526020018b81526020018a8152602001891515815260200188815260200187815260200186815260200185815260200184815260200183815260200182810382528e818151815260200191508051906020019060200280838360005b8381101561458657818101518382015260200161456e565b505050509050019d505050505050505050505050505060405180910390a250505050505050505050505050565b60008033301480613a9757503360009081526014602052604090205460ff16600f5490915060ff16158015613aab575080613af9576040805162461bcd60e51b81526020600482015260196024820152782837b9b4ba34b7b72937baba32b91d103337b93134b23232b760391b604482015290519081900360640190fd5b3390565b8047101561468a576040805162461bcd60e51b815260206004820152601d60248201527f416464726573733a20696e73756666696369656e742062616c616e6365000000604482015290519081900360640190fd5b6040516000906001600160a01b0384169083908381818185875af1925050503d80600081146146d5576040519150601f19603f3d011682016040523d82523d6000602084013e6146da565b606091505b50509050806140925760405162461bcd60e51b815260040180806020018281038252603a815260200180615b23603a913960400191505060405180910390fd5b60008061472b888888888888615428565b905080156147ea57600061476261271061475c61475560055461271061422590919063ffffffff16565b8a9061567b565b906156d4565b905060006147708883614225565b905060008960018b51038151811061478457fe5b602002602001015190506147c68260086000846001600160a01b03166001600160a01b03168152602001908152602001600020546151ce90919063ffffffff16565b6001600160a01b039091166000908152600860205260409020555091506147ef9050565b859150505b9695505050505050565b600354604080516311b2515f60e31b815290516000926001600160a01b031691638d928af8916004808301926020929190829003018186803b15801561483e57600080fd5b505afa158015614852573d6000803e3d6000fd5b505050506040513d602081101561486857600080fd5b505160035460408051631f94a27560e31b815290519293506000926001600160a01b039092169163fca513a891600480820192602092909190829003018186803b1580156148b557600080fd5b505afa1580156148c9573d6000803e3d6000fd5b505050506040513d60208110156148df57600080fd5b5051905083156149a857604080516303b6b4bb60e51b81526001600160a01b03888116600483015260016024830152915185928416916376d69760916044808301926020929190829003018186803b15801561493a57600080fd5b505afa15801561494e573d6000803e3d6000fd5b505050506040513d602081101561496457600080fd5b505111156149a35760405162461bcd60e51b8152600401808060200182810382526031815260200180615c546031913960400191505060405180910390fd5b614a62565b604080516303b6b4bb60e51b81526001600160a01b03888116600483015260006024830152915185928416916376d69760916044808301926020929190829003018186803b1580156149f957600080fd5b505afa158015614a0d573d6000803e3d6000fd5b505050506040513d6020811015614a2357600080fd5b50511015614a625760405162461bcd60e51b8152600401808060200182810382526030815260200180615b836030913960400191505060405180910390fd5b8315614b53576001600160a01b0386166000908152600960205260409020548015801590614b11575080614b0f87856001600160a01b031663f07456ce8b6040518263ffffffff1660e01b815260040180826001600160a01b0316815260200191505060206040518083038186803b158015614add57600080fd5b505afa158015614af1573d6000803e3d6000fd5b505050506040513d6020811015614b0757600080fd5b5051906151ce565b115b15614b4d5760405162461bcd60e51b815260040180806020018281038252602e8152602001806159f0602e913960400191505060405180910390fd5b50614c08565b6001600160a01b0386166000908152600a60205260409020548015801590614bca575080614bc887856001600160a01b0316638a78daa88b6040518263ffffffff1660e01b815260040180826001600160a01b0316815260200191505060206040518083038186803b158015614add57600080fd5b115b15614c065760405162461bcd60e51b815260040180806020018281038252602f815260200180615bb3602f913960400191505060405180910390fd5b505b6003546040805163d759932b60e01b815290516000926001600160a01b03169163d759932b916004808301926020929190829003018186803b158015614c4d57600080fd5b505afa158015614c61573d6000803e3d6000fd5b505050506040513d6020811015614c7757600080fd5b505160408051637c2eb9f760e01b81526001600482015290519192506001600160a01b03831691637c2eb9f79160248082019260009290919082900301818387803b158015614cc557600080fd5b505af1158015614cd9573d6000803e3d6000fd5b50505050600360009054906101000a90046001600160a01b03166001600160a01b031663b0f479a16040518163ffffffff1660e01b815260040160206040518083038186803b158015614d2b57600080fd5b505afa158015614d3f573d6000803e3d6000fd5b505050506040513d6020811015614d5557600080fd5b505160408051630f8ee8bb60e11b81526001600160a01b038c811660048301528b811660248301528a81166044830152606482018a9052881515608483015291519190921691631f1dd1769160a480830192600092919082900301818387803b158015614dc157600080fd5b505af1158015614dd5573d6000803e3d6000fd5b505060408051637c2eb9f760e01b815260006004820181905291516001600160a01b0386169450637c2eb9f793506024808301939282900301818387803b158015614e1f57600080fd5b505af1158015614e33573d6000803e3d6000fd5b50505050505050505050505050565b6002546040516001600160a01b038084169216907febebcc22237fa047dcfebf54b185ec126c9b24d45f4bd2a18e4fa02e07308c4090600090a3600280546001600160a01b0319166001600160a01b0392909216919091179055565b6001600160a01b038b16600090815260176020526040812054614ec29060016151ce565b905080601760008e6001600160a01b03166001600160a01b03168152602001908152602001600020819055506000604051806101a001604052808e6001600160a01b031681526020018d81526020018c6001600160a01b031681526020018b81526020018a81526020018915158152602001886001600160a01b0316815260200187815260200186815260200185815260200143815260200142815260200184151581525090506000614f758e84612875565b6000818152601860209081526040909120845181546001600160a01b0319166001600160a01b0390911617815584820151805193945085939192614fc192600185019290910190615975565b5060408201518160020160006101000a8154816001600160a01b0302191690836001600160a01b03160217905550606082015181600301556080820151816004015560a08201518160050160006101000a81548160ff02191690831515021790555060c08201518160050160016101000a8154816001600160a01b0302191690836001600160a01b0316021790555060e0820151816006015561010082015181600701556101208201518160080155610140820151816009015561016082015181600a015561018082015181600b0160006101000a81548160ff02191690831515021790555090505060118190806001815401808255809150506001900390600052602060002001600090919091909150558d6001600160a01b03167f506f2634e4508d88b04b7511af75c6d4c29b2b6f4f5067676b9400b28f3761d28e8e8e8e8e8e8e8e8e8d434260405180806020018d6001600160a01b031681526020018c81526020018b81526020018a15158152602001896001600160a01b0316815260200188815260200187815260200186815260200185815260200184815260200183815260200182810382528e818151815260200191508051906020019060200280838360005b838110156151a0578181015183820152602001615188565b505050509050019d505050505050505050505050505060405180910390a25050505050505050505050505050565b600082820183811015613bd1576040805162461bcd60e51b815260206004820152601b60248201527f536166654d6174683a206164646974696f6e206f766572666c6f770000000000604482015290519081900360640190fd5b600061527d826040518060400160405280602081526020017f5361666545524332303a206c6f772d6c6576656c2063616c6c206661696c6564815250856001600160a01b031661573b9092919063ffffffff16565b8051909150156140925780806020019051602081101561529c57600080fd5b50516140925760405162461bcd60e51b815260040180806020018281038252602a815260200180615cf9602a913960400191505060405180910390fd5b600080600360009054906101000a90046001600160a01b03166001600160a01b0316638d928af86040518163ffffffff1660e01b815260040160206040518083038186803b15801561532a57600080fd5b505afa15801561533e573d6000803e3d6000fd5b505050506040513d602081101561535457600080fd5b505160408051634998b10960e11b81526001600160a01b038981166004830152888116602483015286811660448301529151919092169163933162129160648083019260209291908290030181600087803b1580156153b257600080fd5b505af11580156153c6573d6000803e3d6000fd5b505050506040513d60208110156153dc57600080fd5b505190508381101561541f5760405162461bcd60e51b815260040180806020018281038252602b815260200180615aa9602b913960400191505060405180910390fd5b95945050505050565b600082615437575060006147ef565b81615444575060016147ef565b60008660018851038151811061545657fe5b602002602001015190506000600360009054906101000a90046001600160a01b03166001600160a01b0316638d928af86040518163ffffffff1660e01b815260040160206040518083038186803b1580156154b057600080fd5b505afa1580156154c4573d6000803e3d6000fd5b505050506040513d60208110156154da57600080fd5b505160408051634a3f088d60e01b81526001600160a01b038c8116600483015285811660248301528981166044830152881515606483015291519293506000928392851691634a3f088d91608480830192610100929190829003018186803b15801561554557600080fd5b505afa158015615559573d6000803e3d6000fd5b505050506040513d61010081101561557057600080fd5b5080516020909101519092509050816155905760009450505050506147ef565b600061559c83886151ce565b90506000846001600160a01b0316630a48d5a9878d6040518363ffffffff1660e01b815260040180836001600160a01b031681526020018281526020019250505060206040518083038186803b1580156155f557600080fd5b505afa158015615609573d6000803e3d6000fd5b505050506040513d602081101561561f57600080fd5b50519050600061562f84836151ce565b905060006156438561475c8861271061567b565b905060006156648361475c600654612710018861567b90919063ffffffff16565b919091109f9e505050505050505050505050505050565b60008261568a575060006128b5565b8282028284828161569757fe5b0414613bd15760405162461bcd60e51b8152600401808060200182810382526021815260200180615be26021913960400191505060405180910390fd5b600080821161572a576040805162461bcd60e51b815260206004820152601a60248201527f536166654d6174683a206469766973696f6e206279207a65726f000000000000604482015290519081900360640190fd5b81838161573357fe5b049392505050565b606061574a8484600085615752565b949350505050565b6060824710156157935760405162461bcd60e51b8152600401808060200182810382526026815260200180615b5d6026913960400191505060405180910390fd5b61579c856158ad565b6157ed576040805162461bcd60e51b815260206004820152601d60248201527f416464726573733a2063616c6c20746f206e6f6e2d636f6e7472616374000000604482015290519081900360640190fd5b600080866001600160a01b031685876040518082805190602001908083835b6020831061582b5780518252601f19909201916020918201910161580c565b6001836020036101000a03801982511681845116808217855250505050505090500191505060006040518083038185875af1925050503d806000811461588d576040519150601f19603f3d011682016040523d82523d6000602084013e615892565b606091505b50915091506158a28282866158b3565b979650505050505050565b3b151590565b606083156158c2575081613bd1565b8251156158d25782518084602001fd5b8160405162461bcd60e51b81526004018080602001828103825283818151815260200191508051906020019080838360005b8381101561591c578181015183820152602001615904565b50505050905090810190601f1680156159495780820380516001836020036101000a031916815260200191505b509250505060405180910390fd5b508054600082559060005260206000209081019061306891906159da565b8280548282559060005260206000209081019282156159ca579160200282015b828111156159ca57825182546001600160a01b0319166001600160a01b03909116178255602090920191600190910190615995565b506159d69291506159da565b5090565b5b808211156159d657600081556001016159db56fe42617365506f736974696f6e4d616e616765723a206d617820676c6f62616c206c6f6e6773206578636565646564506f736974696f6e526f757465723a20696e76616c696420657865637574696f6e4665655265656e7472616e637947756172643a207265656e7472616e742063616c6c00506f736974696f6e526f757465723a20696e76616c6964206d73672e76616c75654f776e61626c653a206e6577206f776e657220697320746865207a65726f206164647265737342617365506f736974696f6e4d616e616765723a20696e73756666696369656e7420616d6f756e744f757454726561737572794f776e61626c653a2063616c6c6572206973206e6f7420746865207472656173757279506f736974696f6e526f757465723a20696e76616c6964205f70617468206c656e677468416464726573733a20756e61626c6520746f2073656e642076616c75652c20726563697069656e74206d61792068617665207265766572746564416464726573733a20696e73756666696369656e742062616c616e636520666f722063616c6c42617365506f736974696f6e4d616e616765723a206d61726b207072696365206c6f776572207468616e206c696d697442617365506f736974696f6e4d616e616765723a206d617820676c6f62616c2073686f727473206578636565646564536166654d6174683a206d756c7469706c69636174696f6e206f766572666c6f774f776e61626c653a2063616c6c6572206973206e6f7420746865206f776e657254726561737572794f776e61626c653a206e657720747265617375727920697320746865207a65726f206164647265737342617365506f736974696f6e4d616e616765723a206d61726b20707269636520686967686572207468616e206c696d6974506f736974696f6e526f757465723a206d696e2064656c6179206e6f74207965742070617373656442617365506f736974696f6e4d616e616765723a20696e76616c6964205f706174682e6c656e67746842617365506f736974696f6e4d616e616765723a20696e76616c69642073656e6465725361666545524332303a204552433230206f7065726174696f6e20646964206e6f742073756363656564506f736974696f6e526f757465723a2063616c6c6572206973206e6f742074686520706f736974696f6e206b6565706572506f736974696f6e526f757465723a2072657175657374206861732065787069726564a2646970667358221220b07100eb149897989ab632391872d233fb568af2a5c81e13c8b12c65ddc7491064736f6c63430007060033",
  "linkReferences": {},
  "deployedLinkReferences": {}
}