{
  "_format": "hh-sol-artifact-1",
  "contractName": "PositionRouter",
  "sourceName": "contracts/protocol/core/PositionRouter.sol",
  "abi": [
    {
      "inputs": [
        {
          "internalType": "address",
          "name": "_vault",
          "type": "address"
        },
        {
          "internalType": "address",
          "name": "_router",
          "type": "address"
        },
        {
          "internalType": "address",
          "name": "_weth",
          "type": "address"
        },
        {
          "internalType": "uint256",
          "name": "_depositFee",
          "type": "uint256"
        },
        {
          "internalType": "uint256",
          "name": "_minExecutionFee",
          "type": "uint256"
        }
      ],
      "stateMutability": "nonpayable",
      "type": "constructor"
    },
    {
      "anonymous": false,
      "inputs": [
        {
          "indexed": true,
          "internalType": "address",
          "name": "account",
          "type": "address"
        },
        {
          "indexed": false,
          "internalType": "address[]",
          "name": "path",
          "type": "address[]"
        },
        {
          "indexed": false,
          "internalType": "address",
          "name": "indexToken",
          "type": "address"
        },
        {
          "indexed": false,
          "internalType": "uint256",
          "name": "collateralDelta",
          "type": "uint256"
        },
        {
          "indexed": false,
          "internalType": "uint256",
          "name": "sizeDelta",
          "type": "uint256"
        },
        {
          "indexed": false,
          "internalType": "bool",
          "name": "isLong",
          "type": "bool"
        },
        {
          "indexed": false,
          "internalType": "address",
          "name": "receiver",
          "type": "address"
        },
        {
          "indexed": false,
          "internalType": "uint256",
          "name": "acceptablePrice",
          "type": "uint256"
        },
        {
          "indexed": false,
          "internalType": "uint256",
          "name": "minOut",
          "type": "uint256"
        },
        {
          "indexed": false,
          "internalType": "uint256",
          "name": "executionFee",
          "type": "uint256"
        },
        {
          "indexed": false,
          "internalType": "uint256",
          "name": "blockGap",
          "type": "uint256"
        },
        {
          "indexed": false,
          "internalType": "uint256",
          "name": "timeGap",
          "type": "uint256"
        }
      ],
      "name": "CancelDecreasePosition",
      "type": "event"
    },
    {
      "anonymous": false,
      "inputs": [
        {
          "indexed": true,
          "internalType": "address",
          "name": "account",
          "type": "address"
        },
        {
          "indexed": false,
          "internalType": "address[]",
          "name": "path",
          "type": "address[]"
        },
        {
          "indexed": false,
          "internalType": "address",
          "name": "indexToken",
          "type": "address"
        },
        {
          "indexed": false,
          "internalType": "uint256",
          "name": "amountIn",
          "type": "uint256"
        },
        {
          "indexed": false,
          "internalType": "uint256",
          "name": "minOut",
          "type": "uint256"
        },
        {
          "indexed": false,
          "internalType": "uint256",
          "name": "sizeDelta",
          "type": "uint256"
        },
        {
          "indexed": false,
          "internalType": "bool",
          "name": "isLong",
          "type": "bool"
        },
        {
          "indexed": false,
          "internalType": "uint256",
          "name": "acceptablePrice",
          "type": "uint256"
        },
        {
          "indexed": false,
          "internalType": "uint256",
          "name": "executionFee",
          "type": "uint256"
        },
        {
          "indexed": false,
          "internalType": "uint256",
          "name": "blockGap",
          "type": "uint256"
        },
        {
          "indexed": false,
          "internalType": "uint256",
          "name": "timeGap",
          "type": "uint256"
        }
      ],
      "name": "CancelIncreasePosition",
      "type": "event"
    },
    {
      "anonymous": false,
      "inputs": [
        {
          "indexed": true,
          "internalType": "address",
          "name": "account",
          "type": "address"
        },
        {
          "indexed": false,
          "internalType": "address[]",
          "name": "path",
          "type": "address[]"
        },
        {
          "indexed": false,
          "internalType": "address",
          "name": "indexToken",
          "type": "address"
        },
        {
          "indexed": false,
          "internalType": "uint256",
          "name": "collateralDelta",
          "type": "uint256"
        },
        {
          "indexed": false,
          "internalType": "uint256",
          "name": "sizeDelta",
          "type": "uint256"
        },
        {
          "indexed": false,
          "internalType": "bool",
          "name": "isLong",
          "type": "bool"
        },
        {
          "indexed": false,
          "internalType": "address",
          "name": "receiver",
          "type": "address"
        },
        {
          "indexed": false,
          "internalType": "uint256",
          "name": "acceptablePrice",
          "type": "uint256"
        },
        {
          "indexed": false,
          "internalType": "uint256",
          "name": "minOut",
          "type": "uint256"
        },
        {
          "indexed": false,
          "internalType": "uint256",
          "name": "executionFee",
          "type": "uint256"
        },
        {
          "indexed": false,
          "internalType": "uint256",
          "name": "index",
          "type": "uint256"
        },
        {
          "indexed": false,
          "internalType": "uint256",
          "name": "blockNumber",
          "type": "uint256"
        },
        {
          "indexed": false,
          "internalType": "uint256",
          "name": "blockTime",
          "type": "uint256"
        }
      ],
      "name": "CreateDecreasePosition",
      "type": "event"
    },
    {
      "anonymous": false,
      "inputs": [
        {
          "indexed": true,
          "internalType": "address",
          "name": "account",
          "type": "address"
        },
        {
          "indexed": false,
          "internalType": "address[]",
          "name": "path",
          "type": "address[]"
        },
        {
          "indexed": false,
          "internalType": "address",
          "name": "indexToken",
          "type": "address"
        },
        {
          "indexed": false,
          "internalType": "uint256",
          "name": "amountIn",
          "type": "uint256"
        },
        {
          "indexed": false,
          "internalType": "uint256",
          "name": "minOut",
          "type": "uint256"
        },
        {
          "indexed": false,
          "internalType": "uint256",
          "name": "sizeDelta",
          "type": "uint256"
        },
        {
          "indexed": false,
          "internalType": "bool",
          "name": "isLong",
          "type": "bool"
        },
        {
          "indexed": false,
          "internalType": "uint256",
          "name": "acceptablePrice",
          "type": "uint256"
        },
        {
          "indexed": false,
          "internalType": "uint256",
          "name": "executionFee",
          "type": "uint256"
        },
        {
          "indexed": false,
          "internalType": "uint256",
          "name": "index",
          "type": "uint256"
        },
        {
          "indexed": false,
          "internalType": "uint256",
          "name": "blockNumber",
          "type": "uint256"
        },
        {
          "indexed": false,
          "internalType": "uint256",
          "name": "blockTime",
          "type": "uint256"
        },
        {
          "indexed": false,
          "internalType": "uint256",
          "name": "gasPrice",
          "type": "uint256"
        }
      ],
      "name": "CreateIncreasePosition",
      "type": "event"
    },
    {
      "anonymous": false,
      "inputs": [
        {
          "indexed": true,
          "internalType": "address",
          "name": "account",
          "type": "address"
        },
        {
          "indexed": false,
          "internalType": "address[]",
          "name": "path",
          "type": "address[]"
        },
        {
          "indexed": false,
          "internalType": "address",
          "name": "indexToken",
          "type": "address"
        },
        {
          "indexed": false,
          "internalType": "uint256",
          "name": "collateralDelta",
          "type": "uint256"
        },
        {
          "indexed": false,
          "internalType": "uint256",
          "name": "sizeDelta",
          "type": "uint256"
        },
        {
          "indexed": false,
          "internalType": "bool",
          "name": "isLong",
          "type": "bool"
        },
        {
          "indexed": false,
          "internalType": "address",
          "name": "receiver",
          "type": "address"
        },
        {
          "indexed": false,
          "internalType": "uint256",
          "name": "acceptablePrice",
          "type": "uint256"
        },
        {
          "indexed": false,
          "internalType": "uint256",
          "name": "minOut",
          "type": "uint256"
        },
        {
          "indexed": false,
          "internalType": "uint256",
          "name": "executionFee",
          "type": "uint256"
        },
        {
          "indexed": false,
          "internalType": "uint256",
          "name": "blockGap",
          "type": "uint256"
        },
        {
          "indexed": false,
          "internalType": "uint256",
          "name": "timeGap",
          "type": "uint256"
        }
      ],
      "name": "ExecuteDecreasePosition",
      "type": "event"
    },
    {
      "anonymous": false,
      "inputs": [
        {
          "indexed": true,
          "internalType": "address",
          "name": "account",
          "type": "address"
        },
        {
          "indexed": false,
          "internalType": "address[]",
          "name": "path",
          "type": "address[]"
        },
        {
          "indexed": false,
          "internalType": "address",
          "name": "indexToken",
          "type": "address"
        },
        {
          "indexed": false,
          "internalType": "uint256",
          "name": "amountIn",
          "type": "uint256"
        },
        {
          "indexed": false,
          "internalType": "uint256",
          "name": "minOut",
          "type": "uint256"
        },
        {
          "indexed": false,
          "internalType": "uint256",
          "name": "sizeDelta",
          "type": "uint256"
        },
        {
          "indexed": false,
          "internalType": "bool",
          "name": "isLong",
          "type": "bool"
        },
        {
          "indexed": false,
          "internalType": "uint256",
          "name": "acceptablePrice",
          "type": "uint256"
        },
        {
          "indexed": false,
          "internalType": "uint256",
          "name": "executionFee",
          "type": "uint256"
        },
        {
          "indexed": false,
          "internalType": "uint256",
          "name": "blockGap",
          "type": "uint256"
        },
        {
          "indexed": false,
          "internalType": "uint256",
          "name": "timeGap",
          "type": "uint256"
        }
      ],
      "name": "ExecuteIncreasePosition",
      "type": "event"
    },
    {
      "anonymous": false,
      "inputs": [
        {
          "indexed": true,
          "internalType": "address",
          "name": "previousOwner",
          "type": "address"
        },
        {
          "indexed": true,
          "internalType": "address",
          "name": "newOwner",
          "type": "address"
        }
      ],
      "name": "OwnershipTransferred",
      "type": "event"
    },
    {
      "anonymous": false,
      "inputs": [
        {
          "indexed": false,
          "internalType": "uint256",
          "name": "minBlockDelayKeeper",
          "type": "uint256"
        },
        {
          "indexed": false,
          "internalType": "uint256",
          "name": "minTimeDelayPublic",
          "type": "uint256"
        },
        {
          "indexed": false,
          "internalType": "uint256",
          "name": "maxTimeDelay",
          "type": "uint256"
        }
      ],
      "name": "SetDelayValues",
      "type": "event"
    },
    {
      "anonymous": false,
      "inputs": [
        {
          "indexed": false,
          "internalType": "uint256",
          "name": "depositFee",
          "type": "uint256"
        }
      ],
      "name": "SetDepositFee",
      "type": "event"
    },
    {
      "anonymous": false,
      "inputs": [
        {
          "indexed": false,
          "internalType": "uint256",
          "name": "increasePositionBufferBps",
          "type": "uint256"
        }
      ],
      "name": "SetIncreasePositionBufferBps",
      "type": "event"
    },
    {
      "anonymous": false,
      "inputs": [
        {
          "indexed": false,
          "internalType": "bool",
          "name": "isLeverageEnabled",
          "type": "bool"
        }
      ],
      "name": "SetIsLeverageEnabled",
      "type": "event"
    },
    {
      "anonymous": false,
      "inputs": [
        {
          "indexed": false,
          "internalType": "address[]",
          "name": "tokens",
          "type": "address[]"
        },
        {
          "indexed": false,
          "internalType": "uint256[]",
          "name": "longSizes",
          "type": "uint256[]"
        },
        {
          "indexed": false,
          "internalType": "uint256[]",
          "name": "shortSizes",
          "type": "uint256[]"
        }
      ],
      "name": "SetMaxGlobalSizes",
      "type": "event"
    },
    {
      "anonymous": false,
      "inputs": [
        {
          "indexed": false,
          "internalType": "uint256",
          "name": "minExecutionFee",
          "type": "uint256"
        }
      ],
      "name": "SetMinExecutionFee",
      "type": "event"
    },
    {
      "anonymous": false,
      "inputs": [
        {
          "indexed": true,
          "internalType": "address",
          "name": "account",
          "type": "address"
        },
        {
          "indexed": false,
          "internalType": "bool",
          "name": "isActive",
          "type": "bool"
        }
      ],
      "name": "SetPositionKeeper",
      "type": "event"
    },
    {
      "anonymous": false,
      "inputs": [
        {
          "indexed": false,
          "internalType": "uint256",
          "name": "increasePositionRequestKeysStart",
          "type": "uint256"
        },
        {
          "indexed": false,
          "internalType": "uint256",
          "name": "decreasePositionRequestKeysStart",
          "type": "uint256"
        }
      ],
      "name": "SetRequestKeysStartValues",
      "type": "event"
    },
    {
      "anonymous": false,
      "inputs": [
        {
          "indexed": false,
          "internalType": "address",
          "name": "token",
          "type": "address"
        },
        {
          "indexed": false,
          "internalType": "address",
          "name": "receiver",
          "type": "address"
        },
        {
          "indexed": false,
          "internalType": "uint256",
          "name": "amount",
          "type": "uint256"
        }
      ],
      "name": "WithdrawFees",
      "type": "event"
    },
    {
      "inputs": [],
      "name": "BASIS_POINTS_DIVISOR",
      "outputs": [
        {
          "internalType": "uint256",
          "name": "",
          "type": "uint256"
        }
      ],
      "stateMutability": "view",
      "type": "function"
    },
    {
      "inputs": [
        {
          "internalType": "address",
          "name": "_token",
          "type": "address"
        },
        {
          "internalType": "address",
          "name": "_spender",
          "type": "address"
        },
        {
          "internalType": "uint256",
          "name": "_amount",
          "type": "uint256"
        }
      ],
      "name": "approve",
      "outputs": [],
      "stateMutability": "nonpayable",
      "type": "function"
    },
    {
      "inputs": [
        {
          "internalType": "bytes32",
          "name": "_key",
          "type": "bytes32"
        },
        {
          "internalType": "address payable",
          "name": "_executionFeeReceiver",
          "type": "address"
        }
      ],
      "name": "cancelDecreasePosition",
      "outputs": [
        {
          "internalType": "bool",
          "name": "",
          "type": "bool"
        }
      ],
      "stateMutability": "nonpayable",
      "type": "function"
    },
    {
      "inputs": [
        {
          "internalType": "bytes32",
          "name": "_key",
          "type": "bytes32"
        },
        {
          "internalType": "address payable",
          "name": "_executionFeeReceiver",
          "type": "address"
        }
      ],
      "name": "cancelIncreasePosition",
      "outputs": [
        {
          "internalType": "bool",
          "name": "",
          "type": "bool"
        }
      ],
      "stateMutability": "nonpayable",
      "type": "function"
    },
    {
      "inputs": [
        {
          "internalType": "address[]",
          "name": "_path",
          "type": "address[]"
        },
        {
          "internalType": "address",
          "name": "_indexToken",
          "type": "address"
        },
        {
          "internalType": "uint256",
          "name": "_collateralDelta",
          "type": "uint256"
        },
        {
          "internalType": "uint256",
          "name": "_sizeDelta",
          "type": "uint256"
        },
        {
          "internalType": "bool",
          "name": "_isLong",
          "type": "bool"
        },
        {
          "internalType": "address",
          "name": "_receiver",
          "type": "address"
        },
        {
          "internalType": "uint256",
          "name": "_acceptablePrice",
          "type": "uint256"
        },
        {
          "internalType": "uint256",
          "name": "_minOut",
          "type": "uint256"
        },
        {
          "internalType": "uint256",
          "name": "_executionFee",
          "type": "uint256"
        },
        {
          "internalType": "bool",
          "name": "_withdrawETH",
          "type": "bool"
        }
      ],
      "name": "createDecreasePosition",
      "outputs": [],
      "stateMutability": "payable",
      "type": "function"
    },
    {
      "inputs": [
        {
          "internalType": "address[]",
          "name": "_path",
          "type": "address[]"
        },
        {
          "internalType": "address",
          "name": "_indexToken",
          "type": "address"
        },
        {
          "internalType": "uint256",
          "name": "_amountIn",
          "type": "uint256"
        },
        {
          "internalType": "uint256",
          "name": "_minOut",
          "type": "uint256"
        },
        {
          "internalType": "uint256",
          "name": "_sizeDelta",
          "type": "uint256"
        },
        {
          "internalType": "bool",
          "name": "_isLong",
          "type": "bool"
        },
        {
          "internalType": "uint256",
          "name": "_acceptablePrice",
          "type": "uint256"
        },
        {
          "internalType": "uint256",
          "name": "_executionFee",
          "type": "uint256"
        }
      ],
      "name": "createIncreasePosition",
      "outputs": [],
      "stateMutability": "payable",
      "type": "function"
    },
    {
      "inputs": [
        {
          "internalType": "address[]",
          "name": "_path",
          "type": "address[]"
        },
        {
          "internalType": "address",
          "name": "_indexToken",
          "type": "address"
        },
        {
          "internalType": "uint256",
          "name": "_minOut",
          "type": "uint256"
        },
        {
          "internalType": "uint256",
          "name": "_sizeDelta",
          "type": "uint256"
        },
        {
          "internalType": "bool",
          "name": "_isLong",
          "type": "bool"
        },
        {
          "internalType": "uint256",
          "name": "_acceptablePrice",
          "type": "uint256"
        },
        {
          "internalType": "uint256",
          "name": "_executionFee",
          "type": "uint256"
        }
      ],
      "name": "createIncreasePositionETH",
      "outputs": [],
      "stateMutability": "payable",
      "type": "function"
    },
    {
      "inputs": [
        {
          "internalType": "uint256",
          "name": "",
          "type": "uint256"
        }
      ],
      "name": "decreasePositionRequestKeys",
      "outputs": [
        {
          "internalType": "bytes32",
          "name": "",
          "type": "bytes32"
        }
      ],
      "stateMutability": "view",
      "type": "function"
    },
    {
      "inputs": [],
      "name": "decreasePositionRequestKeysStart",
      "outputs": [
        {
          "internalType": "uint256",
          "name": "",
          "type": "uint256"
        }
      ],
      "stateMutability": "view",
      "type": "function"
    },
    {
      "inputs": [
        {
          "internalType": "bytes32",
          "name": "",
          "type": "bytes32"
        }
      ],
      "name": "decreasePositionRequests",
      "outputs": [
        {
          "internalType": "address",
          "name": "account",
          "type": "address"
        },
        {
          "internalType": "address",
          "name": "indexToken",
          "type": "address"
        },
        {
          "internalType": "uint256",
          "name": "collateralDelta",
          "type": "uint256"
        },
        {
          "internalType": "uint256",
          "name": "sizeDelta",
          "type": "uint256"
        },
        {
          "internalType": "bool",
          "name": "isLong",
          "type": "bool"
        },
        {
          "internalType": "address",
          "name": "receiver",
          "type": "address"
        },
        {
          "internalType": "uint256",
          "name": "acceptablePrice",
          "type": "uint256"
        },
        {
          "internalType": "uint256",
          "name": "minOut",
          "type": "uint256"
        },
        {
          "internalType": "uint256",
          "name": "executionFee",
          "type": "uint256"
        },
        {
          "internalType": "uint256",
          "name": "blockNumber",
          "type": "uint256"
        },
        {
          "internalType": "uint256",
          "name": "blockTime",
          "type": "uint256"
        },
        {
          "internalType": "bool",
          "name": "withdrawETH",
          "type": "bool"
        }
      ],
      "stateMutability": "view",
      "type": "function"
    },
    {
      "inputs": [
        {
          "internalType": "address",
          "name": "",
          "type": "address"
        }
      ],
      "name": "decreasePositionsIndex",
      "outputs": [
        {
          "internalType": "uint256",
          "name": "",
          "type": "uint256"
        }
      ],
      "stateMutability": "view",
      "type": "function"
    },
    {
      "inputs": [],
      "name": "depositFee",
      "outputs": [
        {
          "internalType": "uint256",
          "name": "",
          "type": "uint256"
        }
      ],
      "stateMutability": "view",
      "type": "function"
    },
    {
      "inputs": [
        {
          "internalType": "bytes32",
          "name": "_key",
          "type": "bytes32"
        },
        {
          "internalType": "address payable",
          "name": "_executionFeeReceiver",
          "type": "address"
        }
      ],
      "name": "executeDecreasePosition",
      "outputs": [
        {
          "internalType": "bool",
          "name": "",
          "type": "bool"
        }
      ],
      "stateMutability": "nonpayable",
      "type": "function"
    },
    {
      "inputs": [
        {
          "internalType": "uint256",
          "name": "_endIndex",
          "type": "uint256"
        },
        {
          "internalType": "address payable",
          "name": "_executionFeeReceiver",
          "type": "address"
        }
      ],
      "name": "executeDecreasePositions",
      "outputs": [],
      "stateMutability": "nonpayable",
      "type": "function"
    },
    {
      "inputs": [
        {
          "internalType": "bytes32",
          "name": "_key",
          "type": "bytes32"
        },
        {
          "internalType": "address payable",
          "name": "_executionFeeReceiver",
          "type": "address"
        }
      ],
      "name": "executeIncreasePosition",
      "outputs": [
        {
          "internalType": "bool",
          "name": "",
          "type": "bool"
        }
      ],
      "stateMutability": "nonpayable",
      "type": "function"
    },
    {
      "inputs": [
        {
          "internalType": "uint256",
          "name": "_endIndex",
          "type": "uint256"
        },
        {
          "internalType": "address payable",
          "name": "_executionFeeReceiver",
          "type": "address"
        }
      ],
      "name": "executeIncreasePositions",
      "outputs": [],
      "stateMutability": "nonpayable",
      "type": "function"
    },
    {
      "inputs": [
        {
          "internalType": "address",
          "name": "",
          "type": "address"
        }
      ],
      "name": "feeReserves",
      "outputs": [
        {
          "internalType": "uint256",
          "name": "",
          "type": "uint256"
        }
      ],
      "stateMutability": "view",
      "type": "function"
    },
    {
      "inputs": [
        {
          "internalType": "bytes32",
          "name": "_key",
          "type": "bytes32"
        }
      ],
      "name": "getDecreasePositionRequestPath",
      "outputs": [
        {
          "internalType": "address[]",
          "name": "",
          "type": "address[]"
        }
      ],
      "stateMutability": "view",
      "type": "function"
    },
    {
      "inputs": [
        {
          "internalType": "bytes32",
          "name": "_key",
          "type": "bytes32"
        }
      ],
      "name": "getIncreasePositionRequestPath",
      "outputs": [
        {
          "internalType": "address[]",
          "name": "",
          "type": "address[]"
        }
      ],
      "stateMutability": "view",
      "type": "function"
    },
    {
      "inputs": [
        {
          "internalType": "address",
          "name": "_account",
          "type": "address"
        },
        {
          "internalType": "uint256",
          "name": "_index",
          "type": "uint256"
        }
      ],
      "name": "getRequestKey",
      "outputs": [
        {
          "internalType": "bytes32",
          "name": "",
          "type": "bytes32"
        }
      ],
      "stateMutability": "pure",
      "type": "function"
    },
    {
      "inputs": [],
      "name": "getRequestQueueLengths",
      "outputs": [
        {
          "internalType": "uint256",
          "name": "",
          "type": "uint256"
        },
        {
          "internalType": "uint256",
          "name": "",
          "type": "uint256"
        },
        {
          "internalType": "uint256",
          "name": "",
          "type": "uint256"
        },
        {
          "internalType": "uint256",
          "name": "",
          "type": "uint256"
        }
      ],
      "stateMutability": "view",
      "type": "function"
    },
    {
      "inputs": [],
      "name": "increasePositionBufferBps",
      "outputs": [
        {
          "internalType": "uint256",
          "name": "",
          "type": "uint256"
        }
      ],
      "stateMutability": "view",
      "type": "function"
    },
    {
      "inputs": [
        {
          "internalType": "uint256",
          "name": "",
          "type": "uint256"
        }
      ],
      "name": "increasePositionRequestKeys",
      "outputs": [
        {
          "internalType": "bytes32",
          "name": "",
          "type": "bytes32"
        }
      ],
      "stateMutability": "view",
      "type": "function"
    },
    {
      "inputs": [],
      "name": "increasePositionRequestKeysStart",
      "outputs": [
        {
          "internalType": "uint256",
          "name": "",
          "type": "uint256"
        }
      ],
      "stateMutability": "view",
      "type": "function"
    },
    {
      "inputs": [
        {
          "internalType": "bytes32",
          "name": "",
          "type": "bytes32"
        }
      ],
      "name": "increasePositionRequests",
      "outputs": [
        {
          "internalType": "address",
          "name": "account",
          "type": "address"
        },
        {
          "internalType": "address",
          "name": "indexToken",
          "type": "address"
        },
        {
          "internalType": "uint256",
          "name": "amountIn",
          "type": "uint256"
        },
        {
          "internalType": "uint256",
          "name": "minOut",
          "type": "uint256"
        },
        {
          "internalType": "uint256",
          "name": "sizeDelta",
          "type": "uint256"
        },
        {
          "internalType": "bool",
          "name": "isLong",
          "type": "bool"
        },
        {
          "internalType": "uint256",
          "name": "acceptablePrice",
          "type": "uint256"
        },
        {
          "internalType": "uint256",
          "name": "executionFee",
          "type": "uint256"
        },
        {
          "internalType": "uint256",
          "name": "blockNumber",
          "type": "uint256"
        },
        {
          "internalType": "uint256",
          "name": "blockTime",
          "type": "uint256"
        },
        {
          "internalType": "bool",
          "name": "hasCollateralInETH",
          "type": "bool"
        }
      ],
      "stateMutability": "view",
      "type": "function"
    },
    {
      "inputs": [
        {
          "internalType": "address",
          "name": "",
          "type": "address"
        }
      ],
      "name": "increasePositionsIndex",
      "outputs": [
        {
          "internalType": "uint256",
          "name": "",
          "type": "uint256"
        }
      ],
      "stateMutability": "view",
      "type": "function"
    },
    {
      "inputs": [],
      "name": "isLeverageEnabled",
      "outputs": [
        {
          "internalType": "bool",
          "name": "",
          "type": "bool"
        }
      ],
      "stateMutability": "view",
      "type": "function"
    },
    {
      "inputs": [
        {
          "internalType": "address",
          "name": "",
          "type": "address"
        }
      ],
      "name": "isPositionKeeper",
      "outputs": [
        {
          "internalType": "bool",
          "name": "",
          "type": "bool"
        }
      ],
      "stateMutability": "view",
      "type": "function"
    },
    {
      "inputs": [
        {
          "internalType": "address",
          "name": "",
          "type": "address"
        }
      ],
      "name": "maxGlobalLongSizes",
      "outputs": [
        {
          "internalType": "uint256",
          "name": "",
          "type": "uint256"
        }
      ],
      "stateMutability": "view",
      "type": "function"
    },
    {
      "inputs": [
        {
          "internalType": "address",
          "name": "",
          "type": "address"
        }
      ],
      "name": "maxGlobalShortSizes",
      "outputs": [
        {
          "internalType": "uint256",
          "name": "",
          "type": "uint256"
        }
      ],
      "stateMutability": "view",
      "type": "function"
    },
    {
      "inputs": [],
      "name": "maxTimeDelay",
      "outputs": [
        {
          "internalType": "uint256",
          "name": "",
          "type": "uint256"
        }
      ],
      "stateMutability": "view",
      "type": "function"
    },
    {
      "inputs": [],
      "name": "minBlockDelayKeeper",
      "outputs": [
        {
          "internalType": "uint256",
          "name": "",
          "type": "uint256"
        }
      ],
      "stateMutability": "view",
      "type": "function"
    },
    {
      "inputs": [],
      "name": "minExecutionFee",
      "outputs": [
        {
          "internalType": "uint256",
          "name": "",
          "type": "uint256"
        }
      ],
      "stateMutability": "view",
      "type": "function"
    },
    {
      "inputs": [],
      "name": "minTimeDelayPublic",
      "outputs": [
        {
          "internalType": "uint256",
          "name": "",
          "type": "uint256"
        }
      ],
      "stateMutability": "view",
      "type": "function"
    },
    {
      "inputs": [],
      "name": "owner",
      "outputs": [
        {
          "internalType": "address",
          "name": "",
          "type": "address"
        }
      ],
      "stateMutability": "view",
      "type": "function"
    },
    {
      "inputs": [],
      "name": "referralStorage",
      "outputs": [
        {
          "internalType": "address",
          "name": "",
          "type": "address"
        }
      ],
      "stateMutability": "view",
      "type": "function"
    },
    {
      "inputs": [],
      "name": "renounceOwnership",
      "outputs": [],
      "stateMutability": "nonpayable",
      "type": "function"
    },
    {
      "inputs": [],
      "name": "router",
      "outputs": [
        {
          "internalType": "address",
          "name": "",
          "type": "address"
        }
      ],
      "stateMutability": "view",
      "type": "function"
    },
    {
      "inputs": [
        {
          "internalType": "address payable",
          "name": "_receiver",
          "type": "address"
        },
        {
          "internalType": "uint256",
          "name": "_amount",
          "type": "uint256"
        }
      ],
      "name": "sendValue",
      "outputs": [],
      "stateMutability": "nonpayable",
      "type": "function"
    },
    {
      "inputs": [
        {
          "internalType": "uint256",
          "name": "_minBlockDelayKeeper",
          "type": "uint256"
        },
        {
          "internalType": "uint256",
          "name": "_minTimeDelayPublic",
          "type": "uint256"
        },
        {
          "internalType": "uint256",
          "name": "_maxTimeDelay",
          "type": "uint256"
        }
      ],
      "name": "setDelayValues",
      "outputs": [],
      "stateMutability": "nonpayable",
      "type": "function"
    },
    {
      "inputs": [
        {
          "internalType": "uint256",
          "name": "_depositFee",
          "type": "uint256"
        }
      ],
      "name": "setDepositFee",
      "outputs": [],
      "stateMutability": "nonpayable",
      "type": "function"
    },
    {
      "inputs": [
        {
          "internalType": "uint256",
          "name": "_increasePositionBufferBps",
          "type": "uint256"
        }
      ],
      "name": "setIncreasePositionBufferBps",
      "outputs": [],
      "stateMutability": "nonpayable",
      "type": "function"
    },
    {
      "inputs": [
        {
          "internalType": "bool",
          "name": "_isLeverageEnabled",
          "type": "bool"
        }
      ],
      "name": "setIsLeverageEnabled",
      "outputs": [],
      "stateMutability": "nonpayable",
      "type": "function"
    },
    {
      "inputs": [
        {
          "internalType": "address[]",
          "name": "_tokens",
          "type": "address[]"
        },
        {
          "internalType": "uint256[]",
          "name": "_longSizes",
          "type": "uint256[]"
        },
        {
          "internalType": "uint256[]",
          "name": "_shortSizes",
          "type": "uint256[]"
        }
      ],
      "name": "setMaxGlobalSizes",
      "outputs": [],
      "stateMutability": "nonpayable",
      "type": "function"
    },
    {
      "inputs": [
        {
          "internalType": "uint256",
          "name": "_minExecutionFee",
          "type": "uint256"
        }
      ],
      "name": "setMinExecutionFee",
      "outputs": [],
      "stateMutability": "nonpayable",
      "type": "function"
    },
    {
      "inputs": [
        {
          "internalType": "address",
          "name": "_account",
          "type": "address"
        },
        {
          "internalType": "bool",
          "name": "_isActive",
          "type": "bool"
        }
      ],
      "name": "setPositionKeeper",
      "outputs": [],
      "stateMutability": "nonpayable",
      "type": "function"
    },
    {
      "inputs": [
        {
          "internalType": "uint256",
          "name": "_increasePositionRequestKeysStart",
          "type": "uint256"
        },
        {
          "internalType": "uint256",
          "name": "_decreasePositionRequestKeysStart",
          "type": "uint256"
        }
      ],
      "name": "setRequestKeysStartValues",
      "outputs": [],
      "stateMutability": "nonpayable",
      "type": "function"
    },
    {
      "inputs": [
        {
          "internalType": "address",
          "name": "newOwner",
          "type": "address"
        }
      ],
      "name": "transferOwnership",
      "outputs": [],
      "stateMutability": "nonpayable",
      "type": "function"
    },
    {
      "inputs": [],
      "name": "vault",
      "outputs": [
        {
          "internalType": "address",
          "name": "",
          "type": "address"
        }
      ],
      "stateMutability": "view",
      "type": "function"
    },
    {
      "inputs": [],
      "name": "weth",
      "outputs": [
        {
          "internalType": "address",
          "name": "",
          "type": "address"
        }
      ],
      "stateMutability": "view",
      "type": "function"
    },
    {
      "inputs": [
        {
          "internalType": "address",
          "name": "_token",
          "type": "address"
        },
        {
          "internalType": "address",
          "name": "_receiver",
          "type": "address"
        }
      ],
      "name": "withdrawFees",
      "outputs": [],
      "stateMutability": "nonpayable",
      "type": "function"
    },
    {
      "stateMutability": "payable",
      "type": "receive"
    }
  ],
  "bytecode": "0x60806040526064600655600f805460ff191660011790553480156200002357600080fd5b50604051620057db380380620057db833981810160405260a08110156200004957600080fd5b50805160208201516040830151606084015160809094015160016000908155939492939192918590859085908590620000816200011d565b600180546001600160a01b0319166001600160a01b038316908117909155604051919250906000907f8be0079c531659141344cd1fd0a4f28419497f9722a3daafe3b4186f6b6457e0908290a350600280546001600160a01b03199081166001600160a01b0396871617909155600380548216948616949094179093556004805490931691909316179055600555600b55506200012192505050565b3390565b6156aa80620001316000396000f3fe6080604052600436106102e75760003560e01c806362f8a3fe11610190578063ceed2cc1116100dc578063f2fde38b11610095578063fa4445771161006f578063fa44457714610f5e578063faf990f314610f91578063fbfa77cf1461101f578063fc2cee621461103457610337565b8063f2fde38b14610edd578063f3883d8b14610f10578063f887ea4014610f4957610337565b8063ceed2cc114610ac0578063e1f21c6714610b90578063e70dd2fc14610bd3578063ef12c67e14610cb5578063f255527814610e67578063f2cea6a514610ea257610337565b80638da5cb5b1161014957806398d1e03a1161012357806398d1e03a14610a485780639a20810014610a5d5780639b57862014610a96578063cb0269c914610aab57610337565b80638da5cb5b146109d657806395e9bbd7146109eb5780639698d25a14610a1557610337565b806362f8a3fe146108ff578063633451de1461093857806363ae21031461096b57806367a5279314610980578063715018a6146109955780637c2eb9f7146109aa57610337565b806327b42c0f1161024f5780633fc8cef311610208578063490ae210116101e2578063490ae2101461080d5780635841fcaa146108375780635d5c22e81461084c57806360a362e2146108c657610337565b80633fc8cef3146107985780634067b132146107ad5780634278555f146107e357610337565b806327b42c0f14610697578063308aa81f146106d05780633422ead11461070057806336eba48a1461073b5780633a2a80c71461076e5780633e72a2621461078357610337565b80631bca8cf0116102a15780631bca8cf0146105075780631ce9cb8f1461051c5780631f2851061461054f578063225fc9fd146105fb578063233bfe3b1461063457806324a084df1461065e57610337565b80626cc35e1461033c578063042259541461036d5780630d4d003d146103a95780631045c74e146103f6578063126082cf14610429578063133e5b171461043e57610337565b36610337576004546001600160a01b031633146103355760405162461bcd60e51b81526004018080602001828103825260238152602001806155d46023913960400191505060405180910390fd5b005b600080fd5b34801561034857600080fd5b5061035161105e565b604080516001600160a01b039092168252519081900360200190f35b34801561037957600080fd5b506103976004803603602081101561039057600080fd5b503561106d565b60408051918252519081900360200190f35b3480156103b557600080fd5b506103e2600480360360408110156103cc57600080fd5b50803590602001356001600160a01b031661108e565b604080519115158252519081900360200190f35b34801561040257600080fd5b506103976004803603602081101561041957600080fd5b50356001600160a01b0316611500565b34801561043557600080fd5b50610397611512565b610335600480360360e081101561045457600080fd5b810190602081018135600160201b81111561046e57600080fd5b82018360208201111561048057600080fd5b803590602001918460208302840111600160201b831117156104a157600080fd5b919080806020026020016040519081016040528093929190818152602001838360200280828437600092019190915250929550506001600160a01b0383351693505050602081013590604081013590606081013515159060808101359060a00135611518565b34801561051357600080fd5b506103976116e6565b34801561052857600080fd5b506103976004803603602081101561053f57600080fd5b50356001600160a01b03166116ec565b34801561055b57600080fd5b506105796004803603602081101561057257600080fd5b50356116fe565b604051808d6001600160a01b031681526020018c6001600160a01b031681526020018b81526020018a81526020018915158152602001886001600160a01b0316815260200187815260200186815260200185815260200184815260200183815260200182151581526020019c5050505050505050505050505060405180910390f35b34801561060757600080fd5b506103e26004803603604081101561061e57600080fd5b50803590602001356001600160a01b031661176a565b34801561064057600080fd5b506103356004803603602081101561065757600080fd5b5035611b0a565b34801561066a57600080fd5b506103356004803603604081101561068157600080fd5b506001600160a01b038135169060200135611ba7565b3480156106a357600080fd5b506103e2600480360360408110156106ba57600080fd5b50803590602001356001600160a01b0316611c20565b3480156106dc57600080fd5b50610335600480360360408110156106f357600080fd5b5080359060200135611fab565b34801561070c57600080fd5b506103356004803603604081101561072357600080fd5b506001600160a01b0381351690602001351515612056565b34801561074757600080fd5b506103e26004803603602081101561075e57600080fd5b50356001600160a01b0316612118565b34801561077a57600080fd5b5061039761212d565b34801561078f57600080fd5b506103e2612133565b3480156107a457600080fd5b5061035161213c565b3480156107b957600080fd5b50610335600480360360608110156107d057600080fd5b508035906020810135906040013561214b565b3480156107ef57600080fd5b506103976004803603602081101561080657600080fd5b5035612201565b34801561081957600080fd5b506103356004803603602081101561083057600080fd5b5035612211565b34801561084357600080fd5b506103976122ae565b34801561085857600080fd5b506108766004803603602081101561086f57600080fd5b50356122b4565b60408051602080825283518183015283519192839290830191858101910280838360005b838110156108b257818101518382015260200161089a565b505050509050019250505060405180910390f35b3480156108d257600080fd5b506103e2600480360360408110156108e957600080fd5b50803590602001356001600160a01b03166123d8565b34801561090b57600080fd5b506103976004803603604081101561092257600080fd5b506001600160a01b03813516906020013561275e565b34801561094457600080fd5b506103976004803603602081101561095b57600080fd5b50356001600160a01b03166127a4565b34801561097757600080fd5b506103976127b6565b34801561098c57600080fd5b506103976127bc565b3480156109a157600080fd5b506103356127c2565b3480156109b657600080fd5b50610335600480360360208110156109cd57600080fd5b5035151561286e565b3480156109e257600080fd5b50610351612917565b3480156109f757600080fd5b5061087660048036036020811015610a0e57600080fd5b5035612926565b348015610a2157600080fd5b5061039760048036036020811015610a3857600080fd5b50356001600160a01b0316612a3c565b348015610a5457600080fd5b50610397612a4e565b348015610a6957600080fd5b5061033560048036036040811015610a8057600080fd5b50803590602001356001600160a01b0316612a54565b348015610aa257600080fd5b50610397612c30565b348015610ab757600080fd5b50610397612c36565b6103356004803603610100811015610ad757600080fd5b810190602081018135600160201b811115610af157600080fd5b820183602082011115610b0357600080fd5b803590602001918460208302840111600160201b83111715610b2457600080fd5b919080806020026020016040519081016040528093929190818152602001838360200280828437600092019190915250929550506001600160a01b0383351693505050602081013590604081013590606081013590608081013515159060a08101359060c00135612c3c565b348015610b9c57600080fd5b5061033560048036036060811015610bb357600080fd5b506001600160a01b03813581169160208101359091169060400135612e1f565b6103356004803603610140811015610bea57600080fd5b810190602081018135600160201b811115610c0457600080fd5b820183602082011115610c1657600080fd5b803590602001918460208302840111600160201b83111715610c3757600080fd5b919080806020026020016040519081016040528093929190818152602001838360200280828437600092019190915250929550505081356001600160a01b0390811693506020830135926040810135925060608101351515916080820135169060a08101359060c08101359060e08101359061010001351515612f09565b348015610cc157600080fd5b5061033560048036036060811015610cd857600080fd5b810190602081018135600160201b811115610cf257600080fd5b820183602082011115610d0457600080fd5b803590602001918460208302840111600160201b83111715610d2557600080fd5b9190808060200260200160405190810160405280939291908181526020018383602002808284376000920191909152509295949360208101935035915050600160201b811115610d7457600080fd5b820183602082011115610d8657600080fd5b803590602001918460208302840111600160201b83111715610da757600080fd5b9190808060200260200160405190810160405280939291908181526020018383602002808284376000920191909152509295949360208101935035915050600160201b811115610df657600080fd5b820183602082011115610e0857600080fd5b803590602001918460208302840111600160201b83111715610e2957600080fd5b9190808060200260200160405190810160405280939291908181526020018383602002808284376000920191909152509295506130d5945050505050565b348015610e7357600080fd5b5061033560048036036040811015610e8a57600080fd5b506001600160a01b03813581169160200135166132d9565b348015610eae57600080fd5b50610eb76133d2565b604080519485526020850193909352838301919091526060830152519081900360800190f35b348015610ee957600080fd5b5061033560048036036020811015610f0057600080fd5b50356001600160a01b03166133e4565b348015610f1c57600080fd5b5061033560048036036040811015610f3357600080fd5b50803590602001356001600160a01b03166134e7565b348015610f5557600080fd5b506103516136c3565b348015610f6a57600080fd5b5061039760048036036020811015610f8157600080fd5b50356001600160a01b03166136d2565b348015610f9d57600080fd5b50610fbb60048036036020811015610fb457600080fd5b50356136e4565b604080516001600160a01b039c8d1681529a909b1660208b0152898b01989098526060890196909652608088019490945291151560a087015260c086015260e085015261010084015261012083015215156101408201529051908190036101600190f35b34801561102b57600080fd5b5061035161374e565b34801561104057600080fd5b506103356004803603602081101561105757600080fd5b503561375d565b6007546001600160a01b031681565b6010818154811061107d57600080fd5b600091825260209091200154905081565b6000600260005414156110d6576040805162461bcd60e51b815260206004820152601f602482015260008051602061539c833981519152604482015290519081900360640190fd5b6002600090815583815260186020908152604080832081516101a08101835281546001600160a01b03168152600182018054845181870281018701909552808552919492938584019390929083018282801561115b57602002820191906000526020600020905b81546001600160a01b0316815260019091019060200180831161113d575b505050918352505060028201546001600160a01b0390811660208301526003830154604083015260048301546060830152600583015460ff8082161515608085015261010091829004831660a0850152600685015460c0850152600785015460e08501526008850154918401919091526009840154610120840152600a840154610140840152600b909301549092161515610160909101528151919250166112075760019150506114f5565b600061122282610140015183610160015184600001516137fa565b905080611234576000925050506114f5565b600085815260186020526040812080546001600160a01b03191681559061125e60018301826152ae565b506002810180546001600160a01b0319169055600060038201819055600482018190556005820180546001600160a81b031916905560068201819055600782018190556008820181905560098201819055600a8201819055600b909101805460ff1916905582516020840151805161130192919084906112da57fe5b60200260200101518560400151866060015187608001518860a00151308a60e001516139ae565b90506001836020015151111561136b5760025460208401518051611354926001600160a01b031691849160009061133457fe5b60200260200101516001600160a01b0316613cb49092919063ffffffff16565b611368836020015184610100015130613d0b565b90505b8261018001511561138957611384818460c00151613d89565b6113aa565b6113aa8360c001518285602001516001876020015151038151811061133457fe5b6113b983610120015186613e22565b82600001516001600160a01b03167f21435c5b618d77ff3657140cd3318e2cffaebc5e0e1b7318f56a9ba4044c3ed284602001518560400151866060015187608001518860a001518960c001518a60e001518b61010001518c610120015161142f8e610140015143613e9990919063ffffffff16565b6101608f0151611440904290613e99565b60405180806020018c6001600160a01b031681526020018b81526020018a81526020018915158152602001886001600160a01b0316815260200187815260200186815260200185815260200184815260200183815260200182810382528d818151815260200191508051906020019060200280838360005b838110156114d05781810151838201526020016114b8565b505050509050019c5050505050505050505050505060405180910390a2600193505050505b600160005592915050565b60096020526000908152604090205481565b61271081565b6002600054141561155e576040805162461bcd60e51b815260206004820152601f602482015260008051602061539c833981519152604482015290519081900360640190fd5b6002600055600b548110156115a45760405162461bcd60e51b81526004018080602001828103825260248152602001806153786024913960400191505060405180910390fd5b803410156115e35760405162461bcd60e51b81526004018080602001828103825260218152602001806153bc6021913960400191505060405180910390fd5b8651600114806115f4575086516002145b61162f5760405162461bcd60e51b815260040180806020018281038252602481526020018061542e6024913960400191505060405180910390fd5b60045487516001600160a01b0390911690889060009061164b57fe5b60200260200101516001600160a01b0316146116ae576040805162461bcd60e51b815260206004820152601d60248201527f506f736974696f6e526f757465723a20696e76616c6964205f70617468000000604482015290519081900360640190fd5b6116b6613ef6565b60006116c23483613e99565b90506116d7338989848a8a8a8a8a6001613f57565b50506001600055505050505050565b60135481565b60086020526000908152604090205481565b6018602052600090815260409020805460028201546003830154600484015460058501546006860154600787015460088801546009890154600a8a0154600b909a01546001600160a01b03998a169a988a16999798969760ff808816986101009098049091169691168c565b6000600260005414156117b2576040805162461bcd60e51b815260206004820152601f602482015260008051602061539c833981519152604482015290519081900360640190fd5b6002600090815583815260166020908152604080832081516101808101835281546001600160a01b03168152600182018054845181870281018701909552808552919492938584019390929083018282801561183757602002820191906000526020600020905b81546001600160a01b03168152600190910190602001808311611819575b505050918352505060028201546001600160a01b039081166020830152600383015460408301526004830154606083015260058301546080830152600683015460ff908116151560a0840152600784015460c0840152600884015460e08401526009840154610100840152600a840154610120840152600b909301549092161515610140909101528151919250166118d35760019150506114f5565b60006118ee8261012001518361014001518460000151614227565b905080611900576000925050506114f5565b600085815260166020526040812080546001600160a01b03191681559061192a60018301826152ae565b506002810180546001600160a01b0319169055600060038201819055600482018190556005820181905560068201805460ff19908116909155600783018290556008830182905560098301829055600a830191909155600b90910180549091169055610160820151156119ae576119a982606001518360000151613d89565b6119cc565b6119cc82600001518360600151846020015160008151811061133457fe5b6119db82610100015185613e22565b81600001516001600160a01b03167f35b638e650e2328786fb405bd69d2083dbedc018d086662e74b775b4f1dae4bf83602001518460400151856060015186608001518760a001518860c001518960e001518a6101000151611a4b8c610120015143613e9990919063ffffffff16565b6101408d0151611a5c904290613e99565b60405180806020018b6001600160a01b031681526020018a8152602001898152602001888152602001871515815260200186815260200185815260200184815260200183815260200182810382528c818151815260200191508051906020019060200280838360005b83811015611add578181015183820152602001611ac5565b505050509050019b50505050505050505050505060405180910390a2600192505050600160005592915050565b611b126142a5565b6001600160a01b0316611b23612917565b6001600160a01b031614611b6c576040805162461bcd60e51b81526020600482018190526024820152600080516020615532833981519152604482015290519081900360640190fd5b60068190556040805182815290517f21167d0d4661af93817ebce920f18986eed3d75d5e1c03f2aed05efcbafbc4529181900360200190a150565b611baf6142a5565b6001600160a01b0316611bc0612917565b6001600160a01b031614611c09576040805162461bcd60e51b81526020600482018190526024820152600080516020615532833981519152604482015290519081900360640190fd5b611c1c6001600160a01b038316826142a9565b5050565b600060026000541415611c68576040805162461bcd60e51b815260206004820152601f602482015260008051602061539c833981519152604482015290519081900360640190fd5b6002600090815583815260166020908152604080832081516101808101835281546001600160a01b031681526001820180548451818702810187019095528085529194929385840193909290830182828015611ced57602002820191906000526020600020905b81546001600160a01b03168152600190910190602001808311611ccf575b505050918352505060028201546001600160a01b039081166020830152600383015460408301526004830154606083015260058301546080830152600683015460ff908116151560a0840152600784015460c0840152600884015460e08401526009840154610100840152600a840154610120840152600b90930154909216151561014090910152815191925016611d895760019150506114f5565b6000611da482610120015183610140015184600001516137fa565b905080611db6576000925050506114f5565b600085815260166020526040812080546001600160a01b031916815590611de060018301826152ae565b506002810180546001600160a01b0319169055600060038201819055600482018190556005820181905560068201805460ff19908116909155600783018290556008830182905560098301829055600a830191909155600b90910180549091169055606082015115611eee57606082015160208301515160011015611e9d57600254606084015160208501518051611e87936001600160a01b031692919060009061133457fe5b611e9a8360200151846080015130613d0b565b90505b6000611ebd3385602001518487604001518860c001518960a0015161438e565b60025460208601518051929350611eeb926001600160a01b0390921691849190600019810190811061133457fe5b50505b815160208301518051611f2c9291906000198101908110611f0b57fe5b602002602001015184604001518560a001518660c001518760e0015161446d565b611f3b82610100015185613e22565b81600001516001600160a01b03167f1be316b94d38c07bd41cdb4913772d0a0a82802786a2f8b657b6e85dbcdfc64183602001518460400151856060015186608001518760a001518860c001518960e001518a6101000151611a4b8c610120015143613e9990919063ffffffff16565b611fb36142a5565b6001600160a01b0316611fc4612917565b6001600160a01b03161461200d576040805162461bcd60e51b81526020600482018190526024820152600080516020615532833981519152604482015290519081900360640190fd5b60128290556013819055604080518381526020810183905281517febb0f666150f4be5b60c45df8f3e49992510b0128027fe58eea6110f296493bc929181900390910190a15050565b61205e6142a5565b6001600160a01b031661206f612917565b6001600160a01b0316146120b8576040805162461bcd60e51b81526020600482018190526024820152600080516020615532833981519152604482015290519081900360640190fd5b6001600160a01b038216600081815260146020908152604091829020805460ff1916851515908117909155825190815291517ffbabc02389290a451c6e600d05bf9887b99bfad39d8e1237e4e3df042e4941fe9281900390910190a25050565b60146020526000908152604090205460ff1681565b600d5481565b600f5460ff1681565b6004546001600160a01b031681565b6121536142a5565b6001600160a01b0316612164612917565b6001600160a01b0316146121ad576040805162461bcd60e51b81526020600482018190526024820152600080516020615532833981519152604482015290519081900360640190fd5b600c839055600d829055600e819055604080518481526020810184905280820183905290517fb98e759701eaca2e60c25e91109003c1c7442ef731b5d569037063005da8254d9181900360600190a1505050565b6011818154811061107d57600080fd5b6122196142a5565b6001600160a01b031661222a612917565b6001600160a01b031614612273576040805162461bcd60e51b81526020600482018190526024820152600080516020615532833981519152604482015290519081900360640190fd5b60058190556040805182815290517f974fd3c1fcb4653dfc4fb740c4c692cd212d55c28f163f310128cb64d83006759181900360200190a150565b600c5481565b600081815260186020908152604080832081516101a08101835281546001600160a01b03168152600182018054845181870281018701909552808552606096959294858401939092919083018282801561233757602002820191906000526020600020905b81546001600160a01b03168152600190910190602001808311612319575b505050918352505060028201546001600160a01b039081166020808401919091526003840154604084015260048401546060840152600584015460ff808216151560808601526101009182900490931660a0850152600685015460c0850152600785015460e08501526008850154908401526009840154610120840152600a840154610140840152600b909301541615156101609091015201519392505050565b600060026000541415612420576040805162461bcd60e51b815260206004820152601f602482015260008051602061539c833981519152604482015290519081900360640190fd5b6002600090815583815260186020908152604080832081516101a08101835281546001600160a01b0316815260018201805484518187028101870190955280855291949293858401939092908301828280156124a557602002820191906000526020600020905b81546001600160a01b03168152600190910190602001808311612487575b505050918352505060028201546001600160a01b0390811660208301526003830154604083015260048301546060830152600583015460ff8082161515608085015261010091829004831660a0850152600685015460c0850152600785015460e08501526008850154918401919091526009840154610120840152600a840154610140840152600b909301549092161515610160909101528151919250166125515760019150506114f5565b600061256c8261014001518361016001518460000151614227565b90508061257e576000925050506114f5565b600085815260186020526040812080546001600160a01b0319168155906125a860018301826152ae565b506002810180546001600160a01b0319169055600060038201819055600482018190556005820180546001600160a81b031916905560068201819055600782018190556008820181905560098201819055600a820155600b01805460ff191690556101208201516126199085613e22565b81600001516001600160a01b03167f87abfd78e844f28318363bdf3da99eab2f4a2da9ff7ae365484507f7b6c3f80583602001518460400151856060015186608001518760a001518860c001518960e001518a61010001518b610120015161268f8d610140015143613e9990919063ffffffff16565b6101608e01516126a0904290613e99565b60405180806020018c6001600160a01b031681526020018b81526020018a81526020018915158152602001886001600160a01b0316815260200187815260200186815260200185815260200184815260200183815260200182810382528d818151815260200191508051906020019060200280838360005b83811015612730578181015183820152602001612718565b505050509050019c5050505050505050505050505060405180910390a2600192505050600160005592915050565b6000828260405160200180836001600160a01b031660601b8152601401828152602001925050506040516020818303038152906040528051906020012090505b92915050565b60156020526000908152604090205481565b600b5481565b60055481565b6127ca6142a5565b6001600160a01b03166127db612917565b6001600160a01b031614612824576040805162461bcd60e51b81526020600482018190526024820152600080516020615532833981519152604482015290519081900360640190fd5b6001546040516000916001600160a01b0316907f8be0079c531659141344cd1fd0a4f28419497f9722a3daafe3b4186f6b6457e0908390a3600180546001600160a01b0319169055565b6128766142a5565b6001600160a01b0316612887612917565b6001600160a01b0316146128d0576040805162461bcd60e51b81526020600482018190526024820152600080516020615532833981519152604482015290519081900360640190fd5b600f805482151560ff19909116811790915560408051918252517f4eb87a5935d402aa24c01b45bfb30adefcd2328b480f2d967864de4b64ea929f9181900360200190a150565b6001546001600160a01b031690565b600081815260166020908152604080832081516101808101835281546001600160a01b0316815260018201805484518187028101870190955280855260609695929485840193909291908301828280156129a957602002820191906000526020600020905b81546001600160a01b0316815260019091019060200180831161298b575b505050918352505060028201546001600160a01b0316602080830191909152600383015460408301526004830154606083015260058301546080830152600683015460ff908116151560a0840152600784015460c0840152600884015460e08401526009840154610100840152600a840154610120840152600b9093015490921615156101409091015201519392505050565b600a6020526000908152604090205481565b60065481565b3360009081526014602052604090205460ff16612aa25760405162461bcd60e51b81526004018080602001828103825260318152602001806156216031913960400191505060405180910390fd5b601254601054808210612ab6575050611c1c565b80841115612ac2578093505b83821015612c2857600060108381548110612ad957fe5b90600052602060002001549050306001600160a01b03166327b42c0f82866040518363ffffffff1660e01b815260040180838152602001826001600160a01b0316815260200192505050602060405180830381600087803b158015612b3d57600080fd5b505af1925050508015612b6257506040513d6020811015612b5d57600080fd5b505160015b612bf6576040805163225fc9fd60e01b8152600481018390526001600160a01b03861660248201529051309163225fc9fd9160448083019260209291908290030181600087803b158015612bb557600080fd5b505af1925050508015612bda57506040513d6020811015612bd557600080fd5b505160015b612be357612bf1565b80612bef575050612c28565b505b612c04565b80612c02575050612c28565b505b60108381548110612c1157fe5b600091825260208220015550600190910190612ac2565b506012555050565b60125481565b600e5481565b60026000541415612c82576040805162461bcd60e51b815260206004820152601f602482015260008051602061539c833981519152604482015290519081900360640190fd5b6002600055600b54811015612cc85760405162461bcd60e51b81526004018080602001828103825260248152602001806153786024913960400191505060405180910390fd5b803414612d065760405162461bcd60e51b81526004018080602001828103825260218152602001806153bc6021913960400191505060405180910390fd5b875160011480612d17575087516002145b612d525760405162461bcd60e51b815260040180806020018281038252602481526020018061542e6024913960400191505060405180910390fd5b612d5a613ef6565b8515612e0c5760035488516001600160a01b0390911690631b827878908a90600090612d8257fe5b602002602001015133308a6040518563ffffffff1660e01b815260040180856001600160a01b03168152602001846001600160a01b03168152602001836001600160a01b03168152602001828152602001945050505050600060405180830381600087803b158015612df357600080fd5b505af1158015612e07573d6000803e3d6000fd5b505050505b6116d73389898989898989896000613f57565b612e276142a5565b6001600160a01b0316612e38612917565b6001600160a01b031614612e81576040805162461bcd60e51b81526020600482018190526024820152600080516020615532833981519152604482015290519081900360640190fd5b826001600160a01b031663095ea7b383836040518363ffffffff1660e01b815260040180836001600160a01b0316815260200182815260200192505050602060405180830381600087803b158015612ed857600080fd5b505af1158015612eec573d6000803e3d6000fd5b505050506040513d6020811015612f0257600080fd5b5050505050565b60026000541415612f4f576040805162461bcd60e51b815260206004820152601f602482015260008051602061539c833981519152604482015290519081900360640190fd5b6002600055600b54821015612f955760405162461bcd60e51b81526004018080602001828103825260248152602001806153786024913960400191505060405180910390fd5b813414612fd35760405162461bcd60e51b81526004018080602001828103825260218152602001806153bc6021913960400191505060405180910390fd5b895160011480612fe4575089516002145b61301f5760405162461bcd60e51b815260040180806020018281038252602481526020018061542e6024913960400191505060405180910390fd5b80156130a9576004548a516001600160a01b03909116908b90600019810190811061304657fe5b60200260200101516001600160a01b0316146130a9576040805162461bcd60e51b815260206004820152601d60248201527f506f736974696f6e526f757465723a20696e76616c6964205f70617468000000604482015290519081900360640190fd5b6130b1613ef6565b6130c4338b8b8b8b8b8b8b8b8b8b6148e4565b505060016000555050505050505050565b6130dd6142a5565b6001600160a01b03166130ee612917565b6001600160a01b031614613137576040805162461bcd60e51b81526020600482018190526024820152600080516020615532833981519152604482015290519081900360640190fd5b60005b83518110156131d257600084828151811061315157fe5b6020026020010151905083828151811061316757fe5b602002602001015160096000836001600160a01b03166001600160a01b03168152602001908152602001600020819055508282815181106131a457fe5b6020908102919091018101516001600160a01b039092166000908152600a909152604090205560010161313a565b507fae32d569b058895b9620d6552b09aaffedc9a6f396be4d595a224ad09f8b213983838360405180806020018060200180602001848103845287818151815260200191508051906020019060200280838360005b8381101561323f578181015183820152602001613227565b50505050905001848103835286818151815260200191508051906020019060200280838360005b8381101561327e578181015183820152602001613266565b50505050905001848103825285818151815260200191508051906020019060200280838360005b838110156132bd5781810151838201526020016132a5565b50505050905001965050505050505060405180910390a1505050565b6132e16142a5565b6001600160a01b03166132f2612917565b6001600160a01b03161461333b576040805162461bcd60e51b81526020600482018190526024820152600080516020615532833981519152604482015290519081900360640190fd5b6001600160a01b0382166000908152600860205260409020548061335f5750611c1c565b6001600160a01b038316600081815260086020526040812055613383908383613cb4565b604080516001600160a01b0380861682528416602082015280820183905290517f4f1b51dd7a2fcb861aa2670f668be66835c4ee12b4bbbf037e4d0018f39819e49181900360600190a1505050565b60125460105460135460115490919293565b6133ec6142a5565b6001600160a01b03166133fd612917565b6001600160a01b031614613446576040805162461bcd60e51b81526020600482018190526024820152600080516020615532833981519152604482015290519081900360640190fd5b6001600160a01b03811661348b5760405162461bcd60e51b81526004018080602001828103825260268152602001806153dd6026913960400191505060405180910390fd5b6001546040516001600160a01b038084169216907f8be0079c531659141344cd1fd0a4f28419497f9722a3daafe3b4186f6b6457e090600090a3600180546001600160a01b0319166001600160a01b0392909216919091179055565b3360009081526014602052604090205460ff166135355760405162461bcd60e51b81526004018080602001828103825260318152602001806156216031913960400191505060405180910390fd5b601354601154808210613549575050611c1c565b80841115613555578093505b838210156136bb5760006011838154811061356c57fe5b90600052602060002001549050306001600160a01b0316630d4d003d82866040518363ffffffff1660e01b815260040180838152602001826001600160a01b0316815260200192505050602060405180830381600087803b1580156135d057600080fd5b505af19250505080156135f557506040513d60208110156135f057600080fd5b505160015b6136895760408051633051b17160e11b8152600481018390526001600160a01b0386166024820152905130916360a362e29160448083019260209291908290030181600087803b15801561364857600080fd5b505af192505050801561366d57506040513d602081101561366857600080fd5b505160015b61367657613684565b806136825750506136bb565b505b613697565b806136955750506136bb565b505b601183815481106136a457fe5b600091825260208220015550600190910190613555565b506013555050565b6003546001600160a01b031681565b60176020526000908152604090205481565b6016602052600090815260409020805460028201546003830154600484015460058501546006860154600787015460088801546009890154600a8a0154600b909a01546001600160a01b03998a169a999098169896979596949560ff94851695939492939192168b565b6002546001600160a01b031681565b6137656142a5565b6001600160a01b0316613776612917565b6001600160a01b0316146137bf576040805162461bcd60e51b81526020600482018190526024820152600080516020615532833981519152604482015290519081900360640190fd5b600b8190556040805182815290517f52a8358457e20bbb36e4086b83fb0749599f1893fe4c35a876c46dc4886d12db9181900360200190a150565b600042613812600e5485614c1490919063ffffffff16565b1161384e5760405162461bcd60e51b81526004018080602001828103825260238152602001806156526023913960400191505060405180910390fd5b60003330148061386d57503360009081526014602052604090205460ff165b600f5490915060ff16158015613881575080155b156138cf576040805162461bcd60e51b81526020600482015260196024820152782837b9b4ba34b7b72937baba32b91d103337b93134b23232b760391b604482015290519081900360640190fd5b80156138f557436138eb600c5487614c1490919063ffffffff16565b11159150506139a7565b336001600160a01b0384161461394e576040805162461bcd60e51b81526020600482015260196024820152782837b9b4ba34b7b72937baba32b91d103337b93134b23232b760391b604482015290519081900360640190fd5b42613964600d5486614c1490919063ffffffff16565b11156139a15760405162461bcd60e51b81526004018080602001828103825260288152602001806155836028913960400191505060405180910390fd5b60019150505b9392505050565b6002546000906001600160a01b03168415613a7f5782816001600160a01b03166381a612d68a6040518263ffffffff1660e01b815260040180826001600160a01b0316815260200191505060206040518083038186803b158015613a1157600080fd5b505afa158015613a25573d6000803e3d6000fd5b505050506040513d6020811015613a3b57600080fd5b50511015613a7a5760405162461bcd60e51b81526004018080602001828103825260308152602001806154b26030913960400191505060405180910390fd5b613b36565b82816001600160a01b031663e124e6d28a6040518263ffffffff1660e01b815260040180826001600160a01b0316815260200191505060206040518083038186803b158015613acd57600080fd5b505afa158015613ae1573d6000803e3d6000fd5b505050506040513d6020811015613af757600080fd5b50511115613b365760405162461bcd60e51b81526004018080602001828103825260318152602001806155526031913960400191505060405180910390fd5b60408051637c2eb9f760e01b81526001600482015290516001600160a01b03831691637c2eb9f791602480830192600092919082900301818387803b158015613b7e57600080fd5b505af1158015613b92573d6000803e3d6000fd5b505060035460408051632662166b60e01b81526001600160a01b038f811660048301528e811660248301528d81166044830152606482018d9052608482018c90528a151560a483015289811660c4830152915160009550919092169250632662166b9160e48082019260209290919082900301818787803b158015613c1657600080fd5b505af1158015613c2a573d6000803e3d6000fd5b505050506040513d6020811015613c4057600080fd5b505160408051637c2eb9f760e01b815260006004820181905291519293506001600160a01b03851692637c2eb9f79260248084019391929182900301818387803b158015613c8d57600080fd5b505af1158015613ca1573d6000803e3d6000fd5b50929d9c50505050505050505050505050565b604080516001600160a01b038416602482015260448082018490528251808303909101815260649091019091526020810180516001600160e01b031663a9059cbb60e01b179052613d06908490614c6e565b505050565b6000835160021415613d5257613d4b84600081518110613d2757fe5b602002602001015185600181518110613d3c57fe5b60200260200101518585614d1f565b90506139a7565b60405162461bcd60e51b81526004018080602001828103825260298152602001806155ab6029913960400191505060405180910390fd5b6004805460408051632e1a7d4d60e01b8152928301859052516001600160a01b0390911691632e1a7d4d91602480830192600092919082900301818387803b158015613dd457600080fd5b505af1158015613de8573d6000803e3d6000fd5b50506040516001600160a01b038416925084156108fc02915084906000818181858888f19350505050158015613d06573d6000803e3d6000fd5b6004805460408051632e1a7d4d60e01b8152928301859052516001600160a01b0390911691632e1a7d4d91602480830192600092919082900301818387803b158015613e6d57600080fd5b505af1158015613e81573d6000803e3d6000fd5b50611c1c925050506001600160a01b038216836142a9565b600082821115613ef0576040805162461bcd60e51b815260206004820152601e60248201527f536166654d6174683a207375627472616374696f6e206f766572666c6f770000604482015290519081900360640190fd5b50900390565b3415613f55576004805460408051630d0e30db60e41b815290516001600160a01b039092169263d0e30db0923492808301926000929182900301818588803b158015613f4157600080fd5b505af1158015612f02573d6000803e3d6000fd5b565b6001600160a01b038a16600090815260156020526040812054613f7b906001614c14565b6001600160a01b03808d1660008181526015602090815260408083208690558051610180810182529384529083018f9052928d1692820192909252606081018b9052608081018a905260a0810189905287151560c082015260e08101879052610100810186905243610120820152426101408201528415156101608201529192506140068d8461275e565b6000818152601660209081526040909120845181546001600160a01b0319166001600160a01b0390911617815584820151805193945085939192614052926001850192909101906152cf565b5060408201518160020160006101000a8154816001600160a01b0302191690836001600160a01b03160217905550606082015181600301556080820151816004015560a0820151816005015560c08201518160060160006101000a81548160ff02191690831515021790555060e082015181600701556101008201518160080155610120820151816009015561014082015181600a015561016082015181600b0160006101000a81548160ff02191690831515021790555090505060108190806001815401808255809150506001900390600052602060002001600090919091909150558c6001600160a01b03167fa89f00a1c1cd0de066abac1a05f9314520fef2a9b98f6a99ff4548ed1161c03c8d8d8d8d8d8d8d8d8c43423a60405180806020018d6001600160a01b031681526020018c81526020018b81526020018a8152602001891515815260200188815260200187815260200186815260200185815260200184815260200183815260200182810382528e818151815260200191508051906020019060200280838360005b838110156141fa5781810151838201526020016141e2565b505050509050019d505050505050505050505050505060405180910390a250505050505050505050505050565b6000803330148061386d57503360009081526014602052604090205460ff16600f5490915060ff161580156138815750806138cf576040805162461bcd60e51b81526020600482015260196024820152782837b9b4ba34b7b72937baba32b91d103337b93134b23232b760391b604482015290519081900360640190fd5b3390565b804710156142fe576040805162461bcd60e51b815260206004820152601d60248201527f416464726573733a20696e73756666696369656e742062616c616e6365000000604482015290519081900360640190fd5b6040516000906001600160a01b0384169083908381818185875af1925050503d8060008114614349576040519150601f19603f3d011682016040523d82523d6000602084013e61434e565b606091505b5050905080613d065760405162461bcd60e51b815260040180806020018281038252603a815260200180615452603a913960400191505060405180910390fd5b60008061439f888888888888614df5565b9050801561445e5760006143d66127106143d06143c9600554612710613e9990919063ffffffff16565b8a90614fd2565b9061502b565b905060006143e48883613e99565b905060008960018b5103815181106143f857fe5b6020026020010151905061443a8260086000846001600160a01b03166001600160a01b0316815260200190815260200160002054614c1490919063ffffffff16565b6001600160a01b039091166000908152600860205260409020555091506144639050565b859150505b9695505050505050565b6002546001600160a01b0316821561453b5781816001600160a01b031663e124e6d2876040518263ffffffff1660e01b815260040180826001600160a01b0316815260200191505060206040518083038186803b1580156144cd57600080fd5b505afa1580156144e1573d6000803e3d6000fd5b505050506040513d60208110156144f757600080fd5b505111156145365760405162461bcd60e51b81526004018080602001828103825260318152602001806155526031913960400191505060405180910390fd5b6145f2565b81816001600160a01b03166381a612d6876040518263ffffffff1660e01b815260040180826001600160a01b0316815260200191505060206040518083038186803b15801561458957600080fd5b505afa15801561459d573d6000803e3d6000fd5b505050506040513d60208110156145b357600080fd5b505110156145f25760405162461bcd60e51b81526004018080602001828103825260308152602001806154b26030913960400191505060405180910390fd5b82156146e3576001600160a01b03851660009081526009602052604090205480158015906146a157508061469f86846001600160a01b031663f07456ce8a6040518263ffffffff1660e01b815260040180826001600160a01b0316815260200191505060206040518083038186803b15801561466d57600080fd5b505afa158015614681573d6000803e3d6000fd5b505050506040513d602081101561469757600080fd5b505190614c14565b115b156146dd5760405162461bcd60e51b815260040180806020018281038252602e81526020018061534a602e913960400191505060405180910390fd5b50614798565b6001600160a01b0385166000908152600a6020526040902054801580159061475a57508061475886846001600160a01b0316638a78daa88a6040518263ffffffff1660e01b815260040180826001600160a01b0316815260200191505060206040518083038186803b15801561466d57600080fd5b115b156147965760405162461bcd60e51b815260040180806020018281038252602f8152602001806154e2602f913960400191505060405180910390fd5b505b60408051637c2eb9f760e01b81526001600482015290516001600160a01b03831691637c2eb9f791602480830192600092919082900301818387803b1580156147e057600080fd5b505af11580156147f4573d6000803e3d6000fd5b505060035460408051630f8ee8bb60e11b81526001600160a01b038c811660048301528b811660248301528a81166044830152606482018a905288151560848301529151919092169350631f1dd176925060a480830192600092919082900301818387803b15801561486557600080fd5b505af1158015614879573d6000803e3d6000fd5b505060408051637c2eb9f760e01b815260006004820181905291516001600160a01b0386169450637c2eb9f793506024808301939282900301818387803b1580156148c357600080fd5b505af11580156148d7573d6000803e3d6000fd5b5050505050505050505050565b6001600160a01b038b16600090815260176020526040812054614908906001614c14565b905080601760008e6001600160a01b03166001600160a01b03168152602001908152602001600020819055506000604051806101a001604052808e6001600160a01b031681526020018d81526020018c6001600160a01b031681526020018b81526020018a81526020018915158152602001886001600160a01b03168152602001878152602001868152602001858152602001438152602001428152602001841515815250905060006149bb8e8461275e565b6000818152601860209081526040909120845181546001600160a01b0319166001600160a01b0390911617815584820151805193945085939192614a07926001850192909101906152cf565b5060408201518160020160006101000a8154816001600160a01b0302191690836001600160a01b03160217905550606082015181600301556080820151816004015560a08201518160050160006101000a81548160ff02191690831515021790555060c08201518160050160016101000a8154816001600160a01b0302191690836001600160a01b0316021790555060e0820151816006015561010082015181600701556101208201518160080155610140820151816009015561016082015181600a015561018082015181600b0160006101000a81548160ff02191690831515021790555090505060118190806001815401808255809150506001900390600052602060002001600090919091909150558d6001600160a01b03167f506f2634e4508d88b04b7511af75c6d4c29b2b6f4f5067676b9400b28f3761d28e8e8e8e8e8e8e8e8e8d434260405180806020018d6001600160a01b031681526020018c81526020018b81526020018a15158152602001896001600160a01b0316815260200188815260200187815260200186815260200185815260200184815260200183815260200182810382528e818151815260200191508051906020019060200280838360005b83811015614be6578181015183820152602001614bce565b505050509050019d505050505050505050505050505060405180910390a25050505050505050505050505050565b6000828201838110156139a7576040805162461bcd60e51b815260206004820152601b60248201527f536166654d6174683a206164646974696f6e206f766572666c6f770000000000604482015290519081900360640190fd5b6000614cc3826040518060400160405280602081526020017f5361666545524332303a206c6f772d6c6576656c2063616c6c206661696c6564815250856001600160a01b03166150929092919063ffffffff16565b805190915015613d0657808060200190516020811015614ce257600080fd5b5051613d065760405162461bcd60e51b815260040180806020018281038252602a8152602001806155f7602a913960400191505060405180910390fd5b60025460408051634998b10960e11b81526001600160a01b03878116600483015286811660248301528481166044830152915160009384931691639331621291606480830192602092919082900301818787803b158015614d7f57600080fd5b505af1158015614d93573d6000803e3d6000fd5b505050506040513d6020811015614da957600080fd5b5051905083811015614dec5760405162461bcd60e51b815260040180806020018281038252602b815260200180615403602b913960400191505060405180910390fd5b95945050505050565b600082614e0457506000614463565b81614e1157506001614463565b600086600188510381518110614e2357fe5b602090810291909101015160025460408051634a3f088d60e01b81526001600160a01b038c81166004830152808516602483015289811660448301528815156064830152915193945091169160009182918491634a3f088d91608480830192610100929190829003018186803b158015614e9c57600080fd5b505afa158015614eb0573d6000803e3d6000fd5b505050506040513d610100811015614ec757600080fd5b508051602090910151909250905081614ee7576000945050505050614463565b6000614ef38388614c14565b90506000846001600160a01b0316630a48d5a9878d6040518363ffffffff1660e01b815260040180836001600160a01b031681526020018281526020019250505060206040518083038186803b158015614f4c57600080fd5b505afa158015614f60573d6000803e3d6000fd5b505050506040513d6020811015614f7657600080fd5b505190506000614f868483614c14565b90506000614f9a856143d088612710614fd2565b90506000614fbb836143d06006546127100188614fd290919063ffffffff16565b919091109f9e505050505050505050505050505050565b600082614fe15750600061279e565b82820282848281614fee57fe5b04146139a75760405162461bcd60e51b81526004018080602001828103825260218152602001806155116021913960400191505060405180910390fd5b6000808211615081576040805162461bcd60e51b815260206004820152601a60248201527f536166654d6174683a206469766973696f6e206279207a65726f000000000000604482015290519081900360640190fd5b81838161508a57fe5b049392505050565b60606150a184846000856150a9565b949350505050565b6060824710156150ea5760405162461bcd60e51b815260040180806020018281038252602681526020018061548c6026913960400191505060405180910390fd5b6150f385615204565b615144576040805162461bcd60e51b815260206004820152601d60248201527f416464726573733a2063616c6c20746f206e6f6e2d636f6e7472616374000000604482015290519081900360640190fd5b600080866001600160a01b031685876040518082805190602001908083835b602083106151825780518252601f199092019160209182019101615163565b6001836020036101000a03801982511681845116808217855250505050505090500191505060006040518083038185875af1925050503d80600081146151e4576040519150601f19603f3d011682016040523d82523d6000602084013e6151e9565b606091505b50915091506151f982828661520a565b979650505050505050565b3b151590565b606083156152195750816139a7565b8251156152295782518084602001fd5b8160405162461bcd60e51b81526004018080602001828103825283818151815260200191508051906020019080838360005b8381101561527357818101518382015260200161525b565b50505050905090810190601f1680156152a05780820380516001836020036101000a031916815260200191505b509250505060405180910390fd5b50805460008255906000526020600020908101906152cc9190615334565b50565b828054828255906000526020600020908101928215615324579160200282015b8281111561532457825182546001600160a01b0319166001600160a01b039091161782556020909201916001909101906152ef565b50615330929150615334565b5090565b5b80821115615330576000815560010161533556fe42617365506f736974696f6e4d616e616765723a206d617820676c6f62616c206c6f6e6773206578636565646564506f736974696f6e526f757465723a20696e76616c696420657865637574696f6e4665655265656e7472616e637947756172643a207265656e7472616e742063616c6c00506f736974696f6e526f757465723a20696e76616c6964206d73672e76616c75654f776e61626c653a206e6577206f776e657220697320746865207a65726f206164647265737342617365506f736974696f6e4d616e616765723a20696e73756666696369656e7420616d6f756e744f7574506f736974696f6e526f757465723a20696e76616c6964205f70617468206c656e677468416464726573733a20756e61626c6520746f2073656e642076616c75652c20726563697069656e74206d61792068617665207265766572746564416464726573733a20696e73756666696369656e742062616c616e636520666f722063616c6c42617365506f736974696f6e4d616e616765723a206d61726b207072696365206c6f776572207468616e206c696d697442617365506f736974696f6e4d616e616765723a206d617820676c6f62616c2073686f727473206578636565646564536166654d6174683a206d756c7469706c69636174696f6e206f766572666c6f774f776e61626c653a2063616c6c6572206973206e6f7420746865206f776e657242617365506f736974696f6e4d616e616765723a206d61726b20707269636520686967686572207468616e206c696d6974506f736974696f6e526f757465723a206d696e2064656c6179206e6f74207965742070617373656442617365506f736974696f6e4d616e616765723a20696e76616c6964205f706174682e6c656e67746842617365506f736974696f6e4d616e616765723a20696e76616c69642073656e6465725361666545524332303a204552433230206f7065726174696f6e20646964206e6f742073756363656564506f736974696f6e526f757465723a2063616c6c6572206973206e6f742074686520706f736974696f6e206b6565706572506f736974696f6e526f757465723a2072657175657374206861732065787069726564a26469706673582212206c4a3b00f5e665401de331edd8a335330031a907ecb2193df52567502d8153b364736f6c63430007060033",
  "linkReferences": {},
  "deployedLinkReferences": {}
}