{
  "_format": "hh-sol-artifact-1",
  "contractName": "PositionManager",
  "sourceName": "contracts/protocol/core/PositionManager.sol",
  "abi": [
    {
      "inputs": [
        {
          "internalType": "address",
          "name": "_vault",
          "type": "address"
        },
        {
          "internalType": "address",
          "name": "_router",
          "type": "address"
        },
        {
          "internalType": "address",
          "name": "_weth",
          "type": "address"
        },
        {
          "internalType": "uint256",
          "name": "_depositFee",
          "type": "uint256"
        },
        {
          "internalType": "address",
          "name": "_orderBook",
          "type": "address"
        }
      ],
      "stateMutability": "nonpayable",
      "type": "constructor"
    },
    {
      "anonymous": false,
      "inputs": [
        {
          "indexed": true,
          "internalType": "address",
          "name": "previousOwner",
          "type": "address"
        },
        {
          "indexed": true,
          "internalType": "address",
          "name": "newOwner",
          "type": "address"
        }
      ],
      "name": "OwnershipTransferred",
      "type": "event"
    },
    {
      "anonymous": false,
      "inputs": [
        {
          "indexed": false,
          "internalType": "uint256",
          "name": "depositFee",
          "type": "uint256"
        }
      ],
      "name": "SetDepositFee",
      "type": "event"
    },
    {
      "anonymous": false,
      "inputs": [
        {
          "indexed": false,
          "internalType": "uint256",
          "name": "increasePositionBufferBps",
          "type": "uint256"
        }
      ],
      "name": "SetIncreasePositionBufferBps",
      "type": "event"
    },
    {
      "anonymous": false,
      "inputs": [
        {
          "indexed": true,
          "internalType": "address",
          "name": "account",
          "type": "address"
        },
        {
          "indexed": false,
          "internalType": "bool",
          "name": "isActive",
          "type": "bool"
        }
      ],
      "name": "SetLiquidator",
      "type": "event"
    },
    {
      "anonymous": false,
      "inputs": [
        {
          "indexed": false,
          "internalType": "address[]",
          "name": "tokens",
          "type": "address[]"
        },
        {
          "indexed": false,
          "internalType": "uint256[]",
          "name": "longSizes",
          "type": "uint256[]"
        },
        {
          "indexed": false,
          "internalType": "uint256[]",
          "name": "shortSizes",
          "type": "uint256[]"
        }
      ],
      "name": "SetMaxGlobalSizes",
      "type": "event"
    },
    {
      "anonymous": false,
      "inputs": [
        {
          "indexed": true,
          "internalType": "address",
          "name": "account",
          "type": "address"
        },
        {
          "indexed": false,
          "internalType": "bool",
          "name": "isActive",
          "type": "bool"
        }
      ],
      "name": "SetOrderKeeper",
      "type": "event"
    },
    {
      "anonymous": false,
      "inputs": [
        {
          "indexed": false,
          "internalType": "bool",
          "name": "shouldValidateIncreaseOrder",
          "type": "bool"
        }
      ],
      "name": "SetShouldValidateIncreaseOrder",
      "type": "event"
    },
    {
      "anonymous": false,
      "inputs": [
        {
          "indexed": false,
          "internalType": "address",
          "name": "token",
          "type": "address"
        },
        {
          "indexed": false,
          "internalType": "address",
          "name": "receiver",
          "type": "address"
        },
        {
          "indexed": false,
          "internalType": "uint256",
          "name": "amount",
          "type": "uint256"
        }
      ],
      "name": "WithdrawFees",
      "type": "event"
    },
    {
      "inputs": [],
      "name": "BASIS_POINTS_DIVISOR",
      "outputs": [
        {
          "internalType": "uint256",
          "name": "",
          "type": "uint256"
        }
      ],
      "stateMutability": "view",
      "type": "function"
    },
    {
      "inputs": [
        {
          "internalType": "address",
          "name": "_token",
          "type": "address"
        },
        {
          "internalType": "address",
          "name": "_spender",
          "type": "address"
        },
        {
          "internalType": "uint256",
          "name": "_amount",
          "type": "uint256"
        }
      ],
      "name": "approve",
      "outputs": [],
      "stateMutability": "nonpayable",
      "type": "function"
    },
    {
      "inputs": [],
      "name": "depositFee",
      "outputs": [
        {
          "internalType": "uint256",
          "name": "",
          "type": "uint256"
        }
      ],
      "stateMutability": "view",
      "type": "function"
    },
    {
      "inputs": [
        {
          "internalType": "address",
          "name": "_account",
          "type": "address"
        },
        {
          "internalType": "uint256",
          "name": "_orderIndex",
          "type": "uint256"
        },
        {
          "internalType": "address payable",
          "name": "_feeReceiver",
          "type": "address"
        }
      ],
      "name": "executeDecreaseOrder",
      "outputs": [],
      "stateMutability": "nonpayable",
      "type": "function"
    },
    {
      "inputs": [
        {
          "internalType": "address",
          "name": "_account",
          "type": "address"
        },
        {
          "internalType": "uint256",
          "name": "_orderIndex",
          "type": "uint256"
        },
        {
          "internalType": "address payable",
          "name": "_feeReceiver",
          "type": "address"
        }
      ],
      "name": "executeIncreaseOrder",
      "outputs": [],
      "stateMutability": "nonpayable",
      "type": "function"
    },
    {
      "inputs": [
        {
          "internalType": "address",
          "name": "_account",
          "type": "address"
        },
        {
          "internalType": "uint256",
          "name": "_orderIndex",
          "type": "uint256"
        },
        {
          "internalType": "address payable",
          "name": "_feeReceiver",
          "type": "address"
        }
      ],
      "name": "executeSwapOrder",
      "outputs": [],
      "stateMutability": "nonpayable",
      "type": "function"
    },
    {
      "inputs": [
        {
          "internalType": "address",
          "name": "",
          "type": "address"
        }
      ],
      "name": "feeReserves",
      "outputs": [
        {
          "internalType": "uint256",
          "name": "",
          "type": "uint256"
        }
      ],
      "stateMutability": "view",
      "type": "function"
    },
    {
      "inputs": [],
      "name": "increasePositionBufferBps",
      "outputs": [
        {
          "internalType": "uint256",
          "name": "",
          "type": "uint256"
        }
      ],
      "stateMutability": "view",
      "type": "function"
    },
    {
      "inputs": [
        {
          "internalType": "address",
          "name": "",
          "type": "address"
        }
      ],
      "name": "isLiquidator",
      "outputs": [
        {
          "internalType": "bool",
          "name": "",
          "type": "bool"
        }
      ],
      "stateMutability": "view",
      "type": "function"
    },
    {
      "inputs": [
        {
          "internalType": "address",
          "name": "",
          "type": "address"
        }
      ],
      "name": "isOrderKeeper",
      "outputs": [
        {
          "internalType": "bool",
          "name": "",
          "type": "bool"
        }
      ],
      "stateMutability": "view",
      "type": "function"
    },
    {
      "inputs": [
        {
          "internalType": "address",
          "name": "_account",
          "type": "address"
        },
        {
          "internalType": "address",
          "name": "_collateralToken",
          "type": "address"
        },
        {
          "internalType": "address",
          "name": "_indexToken",
          "type": "address"
        },
        {
          "internalType": "bool",
          "name": "_isLong",
          "type": "bool"
        },
        {
          "internalType": "address",
          "name": "_feeReceiver",
          "type": "address"
        }
      ],
      "name": "liquidatePosition",
      "outputs": [],
      "stateMutability": "nonpayable",
      "type": "function"
    },
    {
      "inputs": [
        {
          "internalType": "address",
          "name": "",
          "type": "address"
        }
      ],
      "name": "maxGlobalLongSizes",
      "outputs": [
        {
          "internalType": "uint256",
          "name": "",
          "type": "uint256"
        }
      ],
      "stateMutability": "view",
      "type": "function"
    },
    {
      "inputs": [
        {
          "internalType": "address",
          "name": "",
          "type": "address"
        }
      ],
      "name": "maxGlobalShortSizes",
      "outputs": [
        {
          "internalType": "uint256",
          "name": "",
          "type": "uint256"
        }
      ],
      "stateMutability": "view",
      "type": "function"
    },
    {
      "inputs": [],
      "name": "orderBook",
      "outputs": [
        {
          "internalType": "address",
          "name": "",
          "type": "address"
        }
      ],
      "stateMutability": "view",
      "type": "function"
    },
    {
      "inputs": [],
      "name": "owner",
      "outputs": [
        {
          "internalType": "address",
          "name": "",
          "type": "address"
        }
      ],
      "stateMutability": "view",
      "type": "function"
    },
    {
      "inputs": [],
      "name": "referralStorage",
      "outputs": [
        {
          "internalType": "address",
          "name": "",
          "type": "address"
        }
      ],
      "stateMutability": "view",
      "type": "function"
    },
    {
      "inputs": [],
      "name": "renounceOwnership",
      "outputs": [],
      "stateMutability": "nonpayable",
      "type": "function"
    },
    {
      "inputs": [],
      "name": "router",
      "outputs": [
        {
          "internalType": "address",
          "name": "",
          "type": "address"
        }
      ],
      "stateMutability": "view",
      "type": "function"
    },
    {
      "inputs": [
        {
          "internalType": "address payable",
          "name": "_receiver",
          "type": "address"
        },
        {
          "internalType": "uint256",
          "name": "_amount",
          "type": "uint256"
        }
      ],
      "name": "sendValue",
      "outputs": [],
      "stateMutability": "nonpayable",
      "type": "function"
    },
    {
      "inputs": [
        {
          "internalType": "uint256",
          "name": "_depositFee",
          "type": "uint256"
        }
      ],
      "name": "setDepositFee",
      "outputs": [],
      "stateMutability": "nonpayable",
      "type": "function"
    },
    {
      "inputs": [
        {
          "internalType": "uint256",
          "name": "_increasePositionBufferBps",
          "type": "uint256"
        }
      ],
      "name": "setIncreasePositionBufferBps",
      "outputs": [],
      "stateMutability": "nonpayable",
      "type": "function"
    },
    {
      "inputs": [
        {
          "internalType": "address",
          "name": "_account",
          "type": "address"
        },
        {
          "internalType": "bool",
          "name": "_isActive",
          "type": "bool"
        }
      ],
      "name": "setLiquidator",
      "outputs": [],
      "stateMutability": "nonpayable",
      "type": "function"
    },
    {
      "inputs": [
        {
          "internalType": "address[]",
          "name": "_tokens",
          "type": "address[]"
        },
        {
          "internalType": "uint256[]",
          "name": "_longSizes",
          "type": "uint256[]"
        },
        {
          "internalType": "uint256[]",
          "name": "_shortSizes",
          "type": "uint256[]"
        }
      ],
      "name": "setMaxGlobalSizes",
      "outputs": [],
      "stateMutability": "nonpayable",
      "type": "function"
    },
    {
      "inputs": [
        {
          "internalType": "address",
          "name": "_account",
          "type": "address"
        },
        {
          "internalType": "bool",
          "name": "_isActive",
          "type": "bool"
        }
      ],
      "name": "setOrderKeeper",
      "outputs": [],
      "stateMutability": "nonpayable",
      "type": "function"
    },
    {
      "inputs": [
        {
          "internalType": "bool",
          "name": "_shouldValidateIncreaseOrder",
          "type": "bool"
        }
      ],
      "name": "setShouldValidateIncreaseOrder",
      "outputs": [],
      "stateMutability": "nonpayable",
      "type": "function"
    },
    {
      "inputs": [],
      "name": "shouldValidateIncreaseOrder",
      "outputs": [
        {
          "internalType": "bool",
          "name": "",
          "type": "bool"
        }
      ],
      "stateMutability": "view",
      "type": "function"
    },
    {
      "inputs": [
        {
          "internalType": "address",
          "name": "newOwner",
          "type": "address"
        }
      ],
      "name": "transferOwnership",
      "outputs": [],
      "stateMutability": "nonpayable",
      "type": "function"
    },
    {
      "inputs": [],
      "name": "vault",
      "outputs": [
        {
          "internalType": "address",
          "name": "",
          "type": "address"
        }
      ],
      "stateMutability": "view",
      "type": "function"
    },
    {
      "inputs": [],
      "name": "weth",
      "outputs": [
        {
          "internalType": "address",
          "name": "",
          "type": "address"
        }
      ],
      "stateMutability": "view",
      "type": "function"
    },
    {
      "inputs": [
        {
          "internalType": "address",
          "name": "_token",
          "type": "address"
        },
        {
          "internalType": "address",
          "name": "_receiver",
          "type": "address"
        }
      ],
      "name": "withdrawFees",
      "outputs": [],
      "stateMutability": "nonpayable",
      "type": "function"
    },
    {
      "stateMutability": "payable",
      "type": "receive"
    }
  ],
  "bytecode": "0x60806040526064600655600b805460ff60a01b1916600160a01b17905534801561002857600080fd5b506040516124e03803806124e0833981810160405260a081101561004b57600080fd5b5080516020820151604083015160608401516080909401516001600090815593949293919291859085908590859061008161012c565b600180546001600160a01b0319166001600160a01b038316908117909155604051919250906000907f8be0079c531659141344cd1fd0a4f28419497f9722a3daafe3b4186f6b6457e0908290a350600280546001600160a01b03199081166001600160a01b03968716179091556003805482169486169490941790935560048054841692851692909217909155600555600b8054909116929091169190911790555061013092505050565b3390565b6123a18061013f6000396000f3fe6080604052600436106101d05760003560e01c8063529a356f116100f7578063d38ab51911610095578063f255527811610064578063f25552781461086b578063f2fde38b146108a6578063f887ea40146108d9578063fbfa77cf146108ee57610220565b8063d38ab519146105d8578063de2ea9481461061b578063e1f21c6714610670578063ef12c67e146106b357610220565b8063776af5ba116100d1578063776af5ba146105665780638da5cb5b1461057b5780639698d25a1461059057806398d1e03a146105c357610220565b8063529a356f1461050957806367a527931461053c578063715018a61461055157610220565b80631e2615381161016f5780633fc8cef31161013e5780633fc8cef31461047a5780634453a3741461048f5780634584bd4b146104ca578063490ae210146104df57610220565b80631e26153814610395578063233bfe3b146103d057806324a084df146103fa5780633833f5f51461043357610220565b806311d9444a116101ab57806311d9444a146102de578063126082cf146103215780631b904359146103365780631ce9cb8f1461036257610220565b80626cc35e1461022557806307c7edc3146102565780631045c74e1461029957610220565b36610220576004546001600160a01b0316331461021e5760405162461bcd60e51b815260040180806020018281038252602381526020018061231f6023913960400191505060405180910390fd5b005b600080fd5b34801561023157600080fd5b5061023a610903565b604080516001600160a01b039092168252519081900360200190f35b34801561026257600080fd5b5061021e6004803603606081101561027957600080fd5b506001600160a01b03813581169160208101359160409091013516610912565b3480156102a557600080fd5b506102cc600480360360208110156102bc57600080fd5b50356001600160a01b03166109da565b60408051918252519081900360200190f35b3480156102ea57600080fd5b5061021e6004803603606081101561030157600080fd5b506001600160a01b038135811691602081013591604090910135166109ec565b34801561032d57600080fd5b506102cc610c08565b34801561034257600080fd5b5061021e6004803603602081101561035957600080fd5b50351515610c0e565b34801561036e57600080fd5b506102cc6004803603602081101561038557600080fd5b50356001600160a01b0316610cc3565b3480156103a157600080fd5b5061021e600480360360408110156103b857600080fd5b506001600160a01b0381351690602001351515610cd5565b3480156103dc57600080fd5b5061021e600480360360208110156103f357600080fd5b5035610d97565b34801561040657600080fd5b5061021e6004803603604081101561041d57600080fd5b506001600160a01b038135169060200135610e34565b34801561043f57600080fd5b506104666004803603602081101561045657600080fd5b50356001600160a01b0316610ead565b604080519115158252519081900360200190f35b34801561048657600080fd5b5061023a610ec2565b34801561049b57600080fd5b5061021e600480360360408110156104b257600080fd5b506001600160a01b0381351690602001351515610ed1565b3480156104d657600080fd5b50610466610f93565b3480156104eb57600080fd5b5061021e6004803603602081101561050257600080fd5b5035610fa3565b34801561051557600080fd5b506104666004803603602081101561052c57600080fd5b50356001600160a01b0316611040565b34801561054857600080fd5b506102cc611055565b34801561055d57600080fd5b5061021e61105b565b34801561057257600080fd5b5061023a611107565b34801561058757600080fd5b5061023a611116565b34801561059c57600080fd5b506102cc600480360360208110156105b357600080fd5b50356001600160a01b0316611125565b3480156105cf57600080fd5b506102cc611137565b3480156105e457600080fd5b5061021e600480360360608110156105fb57600080fd5b506001600160a01b0381358116916020810135916040909101351661113d565b34801561062757600080fd5b5061021e600480360360a081101561063e57600080fd5b506001600160a01b0381358116916020810135821691604082013581169160608101351515916080909101351661125c565b34801561067c57600080fd5b5061021e6004803603606081101561069357600080fd5b506001600160a01b0381358116916020810135909116906040013561145f565b3480156106bf57600080fd5b5061021e600480360360608110156106d657600080fd5b8101906020810181356401000000008111156106f157600080fd5b82018360208201111561070357600080fd5b8035906020019184602083028401116401000000008311171561072557600080fd5b919080806020026020016040519081016040528093929190818152602001838360200280828437600092019190915250929594936020810193503591505064010000000081111561077557600080fd5b82018360208201111561078757600080fd5b803590602001918460208302840111640100000000831117156107a957600080fd5b91908080602002602001604051908101604052809392919081815260200183836020028082843760009201919091525092959493602081019350359150506401000000008111156107f957600080fd5b82018360208201111561080b57600080fd5b8035906020019184602083028401116401000000008311171561082d57600080fd5b919080806020026020016040519081016040528093929190818152602001838360200280828437600092019190915250929550611549945050505050565b34801561087757600080fd5b5061021e6004803603604081101561088e57600080fd5b506001600160a01b038135811691602001351661174d565b3480156108b257600080fd5b5061021e600480360360208110156108c957600080fd5b50356001600160a01b0316611846565b3480156108e557600080fd5b5061023a611949565b3480156108fa57600080fd5b5061023a611958565b6007546001600160a01b031681565b336000908152600c602052604090205460ff166109605760405162461bcd60e51b815260040180806020018281038252602f8152602001806122f0602f913960400191505060405180910390fd5b600b54604080516307c7edc360e01b81526001600160a01b038681166004830152602482018690528481166044830152915191909216916307c7edc391606480830192600092919082900301818387803b1580156109bd57600080fd5b505af11580156109d1573d6000803e3d6000fd5b50505050505050565b60096020526000908152604090205481565b336000908152600c602052604090205460ff16610a3a5760405162461bcd60e51b815260040180806020018281038252602f8152602001806122f0602f913960400191505060405180910390fd5b600b5460408051630130197760e11b81526001600160a01b038681166004830152602482018690529151600093929092169163026032ee9160448082019261010092909190829003018186803b158015610a9357600080fd5b505afa158015610aa7573d6000803e3d6000fd5b505050506040513d610100811015610abe57600080fd5b506060015160025460408051637c2eb9f760e01b81526001600482015290519293506001600160a01b0390911691637c2eb9f79160248082019260009290919082900301818387803b158015610b1357600080fd5b505af1158015610b27573d6000803e3d6000fd5b5050600b54604080516308eca22560e11b81526001600160a01b03898116600483015260248201899052878116604483015291519190921693506311d9444a9250606480830192600092919082900301818387803b158015610b8857600080fd5b505af1158015610b9c573d6000803e3d6000fd5b505060025460408051637c2eb9f760e01b815260006004820181905291516001600160a01b039093169450637c2eb9f793506024808201939182900301818387803b158015610bea57600080fd5b505af1158015610bfe573d6000803e3d6000fd5b5050505050505050565b61271081565b610c16611967565b6001600160a01b0316610c27611116565b6001600160a01b031614610c70576040805162461bcd60e51b815260206004820181905260248201526000805160206122a9833981519152604482015290519081900360640190fd5b600b8054821515600160a01b810260ff60a01b199092169190911790915560408051918252517fa956222e37fe025ff51e5440ac729a9bd417ff91e485e14dcffa2c0ba8894f409181900360200190a150565b60086020526000908152604090205481565b610cdd611967565b6001600160a01b0316610cee611116565b6001600160a01b031614610d37576040805162461bcd60e51b815260206004820181905260248201526000805160206122a9833981519152604482015290519081900360640190fd5b6001600160a01b0382166000818152600c6020908152604091829020805460ff1916851515908117909155825190815291517f1d5bc0255b943d6a5b5279e8a55d74d620baccbceecb25e87a3558f14c4c118e9281900390910190a25050565b610d9f611967565b6001600160a01b0316610db0611116565b6001600160a01b031614610df9576040805162461bcd60e51b815260206004820181905260248201526000805160206122a9833981519152604482015290519081900360640190fd5b60068190556040805182815290517f21167d0d4661af93817ebce920f18986eed3d75d5e1c03f2aed05efcbafbc4529181900360200190a150565b610e3c611967565b6001600160a01b0316610e4d611116565b6001600160a01b031614610e96576040805162461bcd60e51b815260206004820181905260248201526000805160206122a9833981519152604482015290519081900360640190fd5b610ea96001600160a01b0383168261196b565b5050565b600c6020526000908152604090205460ff1681565b6004546001600160a01b031681565b610ed9611967565b6001600160a01b0316610eea611116565b6001600160a01b031614610f33576040805162461bcd60e51b815260206004820181905260248201526000805160206122a9833981519152604482015290519081900360640190fd5b6001600160a01b0382166000818152600d6020908152604091829020805460ff1916851515908117909155825190815291517f8c0d56805c3b43d441481229dc64bee168253ffe4305f37ab7cfe63b1c4268c69281900390910190a25050565b600b54600160a01b900460ff1681565b610fab611967565b6001600160a01b0316610fbc611116565b6001600160a01b031614611005576040805162461bcd60e51b815260206004820181905260248201526000805160206122a9833981519152604482015290519081900360640190fd5b60058190556040805182815290517f974fd3c1fcb4653dfc4fb740c4c692cd212d55c28f163f310128cb64d83006759181900360200190a150565b600d6020526000908152604090205460ff1681565b60055481565b611063611967565b6001600160a01b0316611074611116565b6001600160a01b0316146110bd576040805162461bcd60e51b815260206004820181905260248201526000805160206122a9833981519152604482015290519081900360640190fd5b6001546040516000916001600160a01b0316907f8be0079c531659141344cd1fd0a4f28419497f9722a3daafe3b4186f6b6457e0908390a3600180546001600160a01b0319169055565b600b546001600160a01b031681565b6001546001600160a01b031690565b600a6020526000908152604090205481565b60065481565b336000908152600c602052604090205460ff1661118b5760405162461bcd60e51b815260040180806020018281038252602f8152602001806122f0602f913960400191505060405180910390fd5b60006111978484611a55565b60025460408051637c2eb9f760e01b81526001600482015290519293506001600160a01b0390911691637c2eb9f79160248082019260009290919082900301818387803b1580156111e757600080fd5b505af11580156111fb573d6000803e3d6000fd5b5050600b546040805163d38ab51960e01b81526001600160a01b038981166004830152602482018990528781166044830152915191909216935063d38ab5199250606480830192600092919082900301818387803b158015610b8857600080fd5b600260005414156112b4576040805162461bcd60e51b815260206004820152601f60248201527f5265656e7472616e637947756172643a207265656e7472616e742063616c6c00604482015290519081900360640190fd5b60026000908155338152600d602052604090205460ff166113065760405162461bcd60e51b815260040180806020018281038252602981526020018061225f6029913960400191505060405180910390fd5b60025460408051637c2eb9f760e01b81526001600482015290516001600160a01b0390921691637c2eb9f79160248082019260009290919082900301818387803b15801561135357600080fd5b505af1158015611367573d6000803e3d6000fd5b505060025460408051631bc5d52960e31b81526001600160a01b038a811660048301528981166024830152888116604483015287151560648301528681166084830152915191909216935063de2ea948925060a480830192600092919082900301818387803b1580156113d957600080fd5b505af11580156113ed573d6000803e3d6000fd5b505060025460408051637c2eb9f760e01b815260006004820181905291516001600160a01b039093169450637c2eb9f793506024808201939182900301818387803b15801561143b57600080fd5b505af115801561144f573d6000803e3d6000fd5b5050600160005550505050505050565b611467611967565b6001600160a01b0316611478611116565b6001600160a01b0316146114c1576040805162461bcd60e51b815260206004820181905260248201526000805160206122a9833981519152604482015290519081900360640190fd5b826001600160a01b031663095ea7b383836040518363ffffffff1660e01b815260040180836001600160a01b0316815260200182815260200192505050602060405180830381600087803b15801561151857600080fd5b505af115801561152c573d6000803e3d6000fd5b505050506040513d602081101561154257600080fd5b5050505050565b611551611967565b6001600160a01b0316611562611116565b6001600160a01b0316146115ab576040805162461bcd60e51b815260206004820181905260248201526000805160206122a9833981519152604482015290519081900360640190fd5b60005b83518110156116465760008482815181106115c557fe5b602002602001015190508382815181106115db57fe5b602002602001015160096000836001600160a01b03166001600160a01b031681526020019081526020016000208190555082828151811061161857fe5b6020908102919091018101516001600160a01b039092166000908152600a90915260409020556001016115ae565b507fae32d569b058895b9620d6552b09aaffedc9a6f396be4d595a224ad09f8b213983838360405180806020018060200180602001848103845287818151815260200191508051906020019060200280838360005b838110156116b357818101518382015260200161169b565b50505050905001848103835286818151815260200191508051906020019060200280838360005b838110156116f25781810151838201526020016116da565b50505050905001848103825285818151815260200191508051906020019060200280838360005b83811015611731578181015183820152602001611719565b50505050905001965050505050505060405180910390a1505050565b611755611967565b6001600160a01b0316611766611116565b6001600160a01b0316146117af576040805162461bcd60e51b815260206004820181905260248201526000805160206122a9833981519152604482015290519081900360640190fd5b6001600160a01b038216600090815260086020526040902054806117d35750610ea9565b6001600160a01b0383166000818152600860205260408120556117f7908383611d98565b604080516001600160a01b0380861682528416602082015280820183905290517f4f1b51dd7a2fcb861aa2670f668be66835c4ee12b4bbbf037e4d0018f39819e49181900360600190a1505050565b61184e611967565b6001600160a01b031661185f611116565b6001600160a01b0316146118a8576040805162461bcd60e51b815260206004820181905260248201526000805160206122a9833981519152604482015290519081900360640190fd5b6001600160a01b0381166118ed5760405162461bcd60e51b81526004018080602001828103825260268152602001806121d96026913960400191505060405180910390fd5b6001546040516001600160a01b038084169216907f8be0079c531659141344cd1fd0a4f28419497f9722a3daafe3b4186f6b6457e090600090a3600180546001600160a01b0319166001600160a01b0392909216919091179055565b6003546001600160a01b031681565b6002546001600160a01b031681565b3390565b804710156119c0576040805162461bcd60e51b815260206004820152601d60248201527f416464726573733a20696e73756666696369656e742062616c616e6365000000604482015290519081900360640190fd5b6040516000906001600160a01b0384169083908381818185875af1925050503d8060008114611a0b576040519150601f19603f3d011682016040523d82523d6000602084013e611a10565b606091505b5050905080611a505760405162461bcd60e51b815260040180806020018281038252603a8152602001806121ff603a913960400191505060405180910390fd5b505050565b6000806000806000806000600b60009054906101000a90046001600160a01b03166001600160a01b031663d3bab1d18a8a6040518363ffffffff1660e01b815260040180836001600160a01b03168152602001828152602001925050506101206040518083038186803b158015611acb57600080fd5b505afa158015611adf573d6000803e3d6000fd5b505050506040513d610120811015611af657600080fd5b508051602082015160408301516060840151608085015160a090950151600b54949b509299509097509550919350909150600160a01b900460ff16611b4257509450611d929350505050565b80611b5457509450611d929350505050565b60008211611ba9576040805162461bcd60e51b815260206004820152601d60248201527f506f736974696f6e4d616e616765723a206c6f6e67206465706f736974000000604482015290519081900360640190fd5b60025460408051634a3f088d60e01b81526001600160a01b038c811660048301528781166024830152868116604483015284151560648301529151919092169160009182918491634a3f088d9160848082019261010092909190829003018186803b158015611c1757600080fd5b505afa158015611c2b573d6000803e3d6000fd5b505050506040513d610100811015611c4257600080fd5b508051602090910151909250905081611c6657849950505050505050505050611d92565b6000611c728387611dea565b90506000846001600160a01b0316630a48d5a98c8c6040518363ffffffff1660e01b815260040180836001600160a01b031681526020018281526020019250505060206040518083038186803b158015611ccb57600080fd5b505afa158015611cdf573d6000803e3d6000fd5b505050506040513d6020811015611cf557600080fd5b505190506000611d058483611dea565b90506000611d1f85611d1988612710611e4b565b90611ea4565b90506000611d4083611d196006546127100188611e4b90919063ffffffff16565b905081811015611d815760405162461bcd60e51b81526004018080602001828103825260278152602001806122c96027913960400191505060405180910390fd5b50979c505050505050505050505050505b92915050565b604080516001600160a01b038416602482015260448082018490528251808303909101815260649091019091526020810180516001600160e01b031663a9059cbb60e01b179052611a50908490611f0b565b600082820183811015611e44576040805162461bcd60e51b815260206004820152601b60248201527f536166654d6174683a206164646974696f6e206f766572666c6f770000000000604482015290519081900360640190fd5b9392505050565b600082611e5a57506000611d92565b82820282848281611e6757fe5b0414611e445760405162461bcd60e51b81526004018080602001828103825260218152602001806122886021913960400191505060405180910390fd5b6000808211611efa576040805162461bcd60e51b815260206004820152601a60248201527f536166654d6174683a206469766973696f6e206279207a65726f000000000000604482015290519081900360640190fd5b818381611f0357fe5b049392505050565b6000611f60826040518060400160405280602081526020017f5361666545524332303a206c6f772d6c6576656c2063616c6c206661696c6564815250856001600160a01b0316611fbc9092919063ffffffff16565b805190915015611a5057808060200190516020811015611f7f57600080fd5b5051611a505760405162461bcd60e51b815260040180806020018281038252602a815260200180612342602a913960400191505060405180910390fd5b6060611fcb8484600085611fd3565b949350505050565b6060824710156120145760405162461bcd60e51b81526004018080602001828103825260268152602001806122396026913960400191505060405180910390fd5b61201d8561212e565b61206e576040805162461bcd60e51b815260206004820152601d60248201527f416464726573733a2063616c6c20746f206e6f6e2d636f6e7472616374000000604482015290519081900360640190fd5b600080866001600160a01b031685876040518082805190602001908083835b602083106120ac5780518252601f19909201916020918201910161208d565b6001836020036101000a03801982511681845116808217855250505050505090500191505060006040518083038185875af1925050503d806000811461210e576040519150601f19603f3d011682016040523d82523d6000602084013e612113565b606091505b5091509150612123828286612134565b979650505050505050565b3b151590565b60608315612143575081611e44565b8251156121535782518084602001fd5b8160405162461bcd60e51b81526004018080602001828103825283818151815260200191508051906020019080838360005b8381101561219d578181015183820152602001612185565b50505050905090810190601f1680156121ca5780820380516001836020036101000a031916815260200191505b509250505060405180910390fdfe4f776e61626c653a206e6577206f776e657220697320746865207a65726f2061646472657373416464726573733a20756e61626c6520746f2073656e642076616c75652c20726563697069656e74206d61792068617665207265766572746564416464726573733a20696e73756666696369656e742062616c616e636520666f722063616c6c506f736974696f6e4d616e616765723a2063616c6c6572206973206e6f74206c697175696461746f72536166654d6174683a206d756c7469706c69636174696f6e206f766572666c6f774f776e61626c653a2063616c6c6572206973206e6f7420746865206f776e6572506f736974696f6e4d616e616765723a206c6f6e67206c65766572616765206465637265617365506f736974696f6e4d616e616765723a2063616c6c6572206973206e6f7420746865206f72646572206b656570657242617365506f736974696f6e4d616e616765723a20696e76616c69642073656e6465725361666545524332303a204552433230206f7065726174696f6e20646964206e6f742073756363656564a2646970667358221220556093ea4b3a54a2a144252cd3121d2ff7207cf8c557dabfc8a470b69893b63564736f6c63430007060033",
  "linkReferences": {},
  "deployedLinkReferences": {}
}