{
  "_format": "hh-sol-artifact-1",
  "contractName": "Router",
  "sourceName": "contracts/protocol/core/Router.sol",
  "abi": [
    {
      "inputs": [
        {
          "internalType": "contract IAddressesProvider",
          "name": "addressesProvider_",
          "type": "address"
        },
        {
          "internalType": "address",
          "name": "_weth",
          "type": "address"
        }
      ],
      "stateMutability": "nonpayable",
      "type": "constructor"
    },
    {
      "anonymous": false,
      "inputs": [
        {
          "indexed": true,
          "internalType": "address",
          "name": "previousOwner",
          "type": "address"
        },
        {
          "indexed": true,
          "internalType": "address",
          "name": "newOwner",
          "type": "address"
        }
      ],
      "name": "OwnershipTransferred",
      "type": "event"
    },
    {
      "anonymous": false,
      "inputs": [
        {
          "indexed": false,
          "internalType": "address",
          "name": "account",
          "type": "address"
        },
        {
          "indexed": false,
          "internalType": "address",
          "name": "tokenIn",
          "type": "address"
        },
        {
          "indexed": false,
          "internalType": "address",
          "name": "tokenOut",
          "type": "address"
        },
        {
          "indexed": false,
          "internalType": "uint256",
          "name": "amountIn",
          "type": "uint256"
        },
        {
          "indexed": false,
          "internalType": "uint256",
          "name": "amountOut",
          "type": "uint256"
        }
      ],
      "name": "Swap",
      "type": "event"
    },
    {
      "inputs": [],
      "name": "addressesProvider",
      "outputs": [
        {
          "internalType": "contract IAddressesProvider",
          "name": "",
          "type": "address"
        }
      ],
      "stateMutability": "view",
      "type": "function"
    },
    {
      "inputs": [
        {
          "internalType": "address",
          "name": "_plugin",
          "type": "address"
        }
      ],
      "name": "approvePlugin",
      "outputs": [],
      "stateMutability": "nonpayable",
      "type": "function"
    },
    {
      "inputs": [
        {
          "internalType": "address",
          "name": "",
          "type": "address"
        },
        {
          "internalType": "address",
          "name": "",
          "type": "address"
        }
      ],
      "name": "approvedPlugins",
      "outputs": [
        {
          "internalType": "bool",
          "name": "",
          "type": "bool"
        }
      ],
      "stateMutability": "view",
      "type": "function"
    },
    {
      "inputs": [
        {
          "internalType": "address",
          "name": "_collateralToken",
          "type": "address"
        },
        {
          "internalType": "address",
          "name": "_indexToken",
          "type": "address"
        },
        {
          "internalType": "uint256",
          "name": "_collateralDelta",
          "type": "uint256"
        },
        {
          "internalType": "uint256",
          "name": "_sizeDelta",
          "type": "uint256"
        },
        {
          "internalType": "bool",
          "name": "_isLong",
          "type": "bool"
        },
        {
          "internalType": "address",
          "name": "_receiver",
          "type": "address"
        },
        {
          "internalType": "uint256",
          "name": "_price",
          "type": "uint256"
        }
      ],
      "name": "decreasePosition",
      "outputs": [],
      "stateMutability": "nonpayable",
      "type": "function"
    },
    {
      "inputs": [
        {
          "internalType": "address[]",
          "name": "_path",
          "type": "address[]"
        },
        {
          "internalType": "address",
          "name": "_indexToken",
          "type": "address"
        },
        {
          "internalType": "uint256",
          "name": "_collateralDelta",
          "type": "uint256"
        },
        {
          "internalType": "uint256",
          "name": "_sizeDelta",
          "type": "uint256"
        },
        {
          "internalType": "bool",
          "name": "_isLong",
          "type": "bool"
        },
        {
          "internalType": "address",
          "name": "_receiver",
          "type": "address"
        },
        {
          "internalType": "uint256",
          "name": "_price",
          "type": "uint256"
        },
        {
          "internalType": "uint256",
          "name": "_minOut",
          "type": "uint256"
        }
      ],
      "name": "decreasePositionAndSwap",
      "outputs": [],
      "stateMutability": "nonpayable",
      "type": "function"
    },
    {
      "inputs": [
        {
          "internalType": "address[]",
          "name": "_path",
          "type": "address[]"
        },
        {
          "internalType": "address",
          "name": "_indexToken",
          "type": "address"
        },
        {
          "internalType": "uint256",
          "name": "_collateralDelta",
          "type": "uint256"
        },
        {
          "internalType": "uint256",
          "name": "_sizeDelta",
          "type": "uint256"
        },
        {
          "internalType": "bool",
          "name": "_isLong",
          "type": "bool"
        },
        {
          "internalType": "address payable",
          "name": "_receiver",
          "type": "address"
        },
        {
          "internalType": "uint256",
          "name": "_price",
          "type": "uint256"
        },
        {
          "internalType": "uint256",
          "name": "_minOut",
          "type": "uint256"
        }
      ],
      "name": "decreasePositionAndSwapETH",
      "outputs": [],
      "stateMutability": "nonpayable",
      "type": "function"
    },
    {
      "inputs": [
        {
          "internalType": "address",
          "name": "_collateralToken",
          "type": "address"
        },
        {
          "internalType": "address",
          "name": "_indexToken",
          "type": "address"
        },
        {
          "internalType": "uint256",
          "name": "_collateralDelta",
          "type": "uint256"
        },
        {
          "internalType": "uint256",
          "name": "_sizeDelta",
          "type": "uint256"
        },
        {
          "internalType": "bool",
          "name": "_isLong",
          "type": "bool"
        },
        {
          "internalType": "address payable",
          "name": "_receiver",
          "type": "address"
        },
        {
          "internalType": "uint256",
          "name": "_price",
          "type": "uint256"
        }
      ],
      "name": "decreasePositionETH",
      "outputs": [],
      "stateMutability": "nonpayable",
      "type": "function"
    },
    {
      "inputs": [
        {
          "internalType": "address",
          "name": "_plugin",
          "type": "address"
        }
      ],
      "name": "denyPlugin",
      "outputs": [],
      "stateMutability": "nonpayable",
      "type": "function"
    },
    {
      "inputs": [
        {
          "internalType": "address",
          "name": "_token",
          "type": "address"
        },
        {
          "internalType": "uint256",
          "name": "_amount",
          "type": "uint256"
        }
      ],
      "name": "directPoolDeposit",
      "outputs": [],
      "stateMutability": "nonpayable",
      "type": "function"
    },
    {
      "inputs": [
        {
          "internalType": "address[]",
          "name": "_path",
          "type": "address[]"
        },
        {
          "internalType": "address",
          "name": "_indexToken",
          "type": "address"
        },
        {
          "internalType": "uint256",
          "name": "_amountIn",
          "type": "uint256"
        },
        {
          "internalType": "uint256",
          "name": "_minOut",
          "type": "uint256"
        },
        {
          "internalType": "uint256",
          "name": "_sizeDelta",
          "type": "uint256"
        },
        {
          "internalType": "bool",
          "name": "_isLong",
          "type": "bool"
        },
        {
          "internalType": "uint256",
          "name": "_price",
          "type": "uint256"
        }
      ],
      "name": "increasePosition",
      "outputs": [],
      "stateMutability": "nonpayable",
      "type": "function"
    },
    {
      "inputs": [
        {
          "internalType": "address[]",
          "name": "_path",
          "type": "address[]"
        },
        {
          "internalType": "address",
          "name": "_indexToken",
          "type": "address"
        },
        {
          "internalType": "uint256",
          "name": "_minOut",
          "type": "uint256"
        },
        {
          "internalType": "uint256",
          "name": "_sizeDelta",
          "type": "uint256"
        },
        {
          "internalType": "bool",
          "name": "_isLong",
          "type": "bool"
        },
        {
          "internalType": "uint256",
          "name": "_price",
          "type": "uint256"
        }
      ],
      "name": "increasePositionETH",
      "outputs": [],
      "stateMutability": "payable",
      "type": "function"
    },
    {
      "inputs": [],
      "name": "owner",
      "outputs": [
        {
          "internalType": "address",
          "name": "",
          "type": "address"
        }
      ],
      "stateMutability": "view",
      "type": "function"
    },
    {
      "inputs": [
        {
          "internalType": "address",
          "name": "_account",
          "type": "address"
        },
        {
          "internalType": "address",
          "name": "_collateralToken",
          "type": "address"
        },
        {
          "internalType": "address",
          "name": "_indexToken",
          "type": "address"
        },
        {
          "internalType": "uint256",
          "name": "_collateralDelta",
          "type": "uint256"
        },
        {
          "internalType": "uint256",
          "name": "_sizeDelta",
          "type": "uint256"
        },
        {
          "internalType": "bool",
          "name": "_isLong",
          "type": "bool"
        },
        {
          "internalType": "address",
          "name": "_receiver",
          "type": "address"
        }
      ],
      "name": "pluginDecreasePosition",
      "outputs": [
        {
          "internalType": "uint256",
          "name": "",
          "type": "uint256"
        }
      ],
      "stateMutability": "nonpayable",
      "type": "function"
    },
    {
      "inputs": [
        {
          "internalType": "address",
          "name": "_account",
          "type": "address"
        },
        {
          "internalType": "address",
          "name": "_collateralToken",
          "type": "address"
        },
        {
          "internalType": "address",
          "name": "_indexToken",
          "type": "address"
        },
        {
          "internalType": "uint256",
          "name": "_sizeDelta",
          "type": "uint256"
        },
        {
          "internalType": "bool",
          "name": "_isLong",
          "type": "bool"
        }
      ],
      "name": "pluginIncreasePosition",
      "outputs": [],
      "stateMutability": "nonpayable",
      "type": "function"
    },
    {
      "inputs": [
        {
          "internalType": "address",
          "name": "_token",
          "type": "address"
        },
        {
          "internalType": "address",
          "name": "_account",
          "type": "address"
        },
        {
          "internalType": "address",
          "name": "_receiver",
          "type": "address"
        },
        {
          "internalType": "uint256",
          "name": "_amount",
          "type": "uint256"
        }
      ],
      "name": "pluginTransfer",
      "outputs": [],
      "stateMutability": "nonpayable",
      "type": "function"
    },
    {
      "inputs": [],
      "name": "renounceOwnership",
      "outputs": [],
      "stateMutability": "nonpayable",
      "type": "function"
    },
    {
      "inputs": [
        {
          "internalType": "address[]",
          "name": "_path",
          "type": "address[]"
        },
        {
          "internalType": "uint256",
          "name": "_amountIn",
          "type": "uint256"
        },
        {
          "internalType": "uint256",
          "name": "_minOut",
          "type": "uint256"
        },
        {
          "internalType": "address",
          "name": "_receiver",
          "type": "address"
        }
      ],
      "name": "swap",
      "outputs": [],
      "stateMutability": "nonpayable",
      "type": "function"
    },
    {
      "inputs": [
        {
          "internalType": "address[]",
          "name": "_path",
          "type": "address[]"
        },
        {
          "internalType": "uint256",
          "name": "_minOut",
          "type": "uint256"
        },
        {
          "internalType": "address",
          "name": "_receiver",
          "type": "address"
        }
      ],
      "name": "swapETHToTokens",
      "outputs": [],
      "stateMutability": "payable",
      "type": "function"
    },
    {
      "inputs": [
        {
          "internalType": "address[]",
          "name": "_path",
          "type": "address[]"
        },
        {
          "internalType": "uint256",
          "name": "_amountIn",
          "type": "uint256"
        },
        {
          "internalType": "uint256",
          "name": "_minOut",
          "type": "uint256"
        },
        {
          "internalType": "address payable",
          "name": "_receiver",
          "type": "address"
        }
      ],
      "name": "swapTokensToETH",
      "outputs": [],
      "stateMutability": "nonpayable",
      "type": "function"
    },
    {
      "inputs": [
        {
          "internalType": "address",
          "name": "newOwner",
          "type": "address"
        }
      ],
      "name": "transferOwnership",
      "outputs": [],
      "stateMutability": "nonpayable",
      "type": "function"
    },
    {
      "inputs": [],
      "name": "weth",
      "outputs": [
        {
          "internalType": "address",
          "name": "",
          "type": "address"
        }
      ],
      "stateMutability": "view",
      "type": "function"
    },
    {
      "stateMutability": "payable",
      "type": "receive"
    }
  ],
  "bytecode": "0x60806040523480156200001157600080fd5b5060405162002d4638038062002d46833981810160405260408110156200003757600080fd5b50805160209091015160006200004c620000c8565b600080546001600160a01b0319166001600160a01b0383169081178255604051929350917f8be0079c531659141344cd1fd0a4f28419497f9722a3daafe3b4186f6b6457e0908290a350600180546001600160a01b039384166001600160a01b03199182161790915560028054929093169116179055620000cc565b3390565b612c6a80620000dc6000396000f3fe60806040526004361061012e5760003560e01c8063715018a6116100ab578063abe68eaa1161006f578063abe68eaa146107b7578063b32755de14610866578063b7ddc99214610929578063c72c4d10146109ff578063cedd437514610a14578063f2fde38b14610a475761018d565b8063715018a6146106a65780638da5cb5b146106bb57806390205d8c146106d057806390b64ad31461072f578063956f285e146107685761018d565b806338c74dd9116100f257806338c74dd9146104415780633fc8cef314610474578063430ed37c146104a55780635fc8500e146105045780636023e966146105e45761018d565b80631b827878146101925780631f1dd176146101db5780632662166b1461022c5780632d4ba6a71461029f5780633039e37f146103615761018d565b3661018d576002546001600160a01b0316331461018b576040805162461bcd60e51b81526020600482015260166024820152752937baba32b91d1034b73b30b634b21039b2b73232b960511b604482015290519081900360640190fd5b005b600080fd5b34801561019e57600080fd5b5061018b600480360360808110156101b557600080fd5b506001600160a01b03813581169160208101358216916040820135169060600135610a7a565b3480156101e757600080fd5b5061018b600480360360a08110156101fe57600080fd5b506001600160a01b038135811691602081013582169160408201351690606081013590608001351515610a9e565b34801561023857600080fd5b5061028d600480360360e081101561024f57600080fd5b506001600160a01b0381358116916020810135821691604082013581169160608101359160808201359160a081013515159160c09091013516610baa565b60408051918252519081900360200190f35b3480156102ab57600080fd5b5061018b600480360360808110156102c257600080fd5b810190602081018135600160201b8111156102dc57600080fd5b8201836020820111156102ee57600080fd5b803590602001918460208302840111600160201b8311171561030f57600080fd5b91908080602002602001604051908101604052809392919081815260200183836020028082843760009201919091525092955050823593505050602081013590604001356001600160a01b0316610ce1565b34801561036d57600080fd5b5061018b600480360361010081101561038557600080fd5b810190602081018135600160201b81111561039f57600080fd5b8201836020820111156103b157600080fd5b803590602001918460208302840111600160201b831117156103d257600080fd5b919080806020026020016040519081016040528093929190818152602001838360200280828437600092019190915250929550505081356001600160a01b0390811693506020830135926040810135925060608101351515916080820135169060a08101359060c00135610ecf565b34801561044d57600080fd5b5061018b6004803603602081101561046457600080fd5b50356001600160a01b0316611043565b34801561048057600080fd5b50610489611074565b604080516001600160a01b039092168252519081900360200190f35b3480156104b157600080fd5b5061018b600480360360e08110156104c857600080fd5b506001600160a01b0381358116916020810135821691604082013591606081013591608082013515159160a08101359091169060c00135611083565b34801561051057600080fd5b5061018b600480360361010081101561052857600080fd5b810190602081018135600160201b81111561054257600080fd5b82018360208201111561055457600080fd5b803590602001918460208302840111600160201b8311171561057557600080fd5b919080806020026020016040519081016040528093929190818152602001838360200280828437600092019190915250929550505081356001600160a01b0390811693506020830135926040810135925060608101351515916080820135169060a08101359060c001356110aa565b3480156105f057600080fd5b5061018b6004803603608081101561060757600080fd5b810190602081018135600160201b81111561062157600080fd5b82018360208201111561063357600080fd5b803590602001918460208302840111600160201b8311171561065457600080fd5b91908080602002602001604051908101604052809392919081815260200183836020028082843760009201919091525092955050823593505050602081013590604001356001600160a01b031661111a565b3480156106b257600080fd5b5061018b611163565b3480156106c757600080fd5b50610489611221565b3480156106dc57600080fd5b5061018b600480360360e08110156106f357600080fd5b506001600160a01b0381358116916020810135821691604082013591606081013591608082013515159160a08101359091169060c00135611230565b34801561073b57600080fd5b5061018b6004803603604081101561075257600080fd5b506001600160a01b03813516906020013561123f565b34801561077457600080fd5b506107a36004803603604081101561078b57600080fd5b506001600160a01b038135811691602001351661133b565b604080519115158252519081900360200190f35b61018b600480360360608110156107cd57600080fd5b810190602081018135600160201b8111156107e757600080fd5b8201836020820111156107f957600080fd5b803590602001918460208302840111600160201b8311171561081a57600080fd5b91908080602002602001604051908101604052809392919081815260200183836020028082843760009201919091525092955050823593505050602001356001600160a01b031661135b565b61018b600480360360c081101561087c57600080fd5b810190602081018135600160201b81111561089657600080fd5b8201836020820111156108a857600080fd5b803590602001918460208302840111600160201b831117156108c957600080fd5b919080806020026020016040519081016040528093929190818152602001838360200280828437600092019190915250929550506001600160a01b038335169350505060208101359060408101359060608101351515906080013561148c565b34801561093557600080fd5b5061018b600480360360e081101561094c57600080fd5b810190602081018135600160201b81111561096657600080fd5b82018360208201111561097857600080fd5b803590602001918460208302840111600160201b8311171561099957600080fd5b919080806020026020016040519081016040528093929190818152602001838360200280828437600092019190915250929550506001600160a01b0383351693505050602081013590604081013590606081013590608081013515159060a001356115f5565b348015610a0b57600080fd5b506104896116e8565b348015610a2057600080fd5b5061018b60048036036020811015610a3757600080fd5b50356001600160a01b03166116f7565b348015610a5357600080fd5b5061018b60048036036020811015610a6a57600080fd5b50356001600160a01b0316611725565b610a8383611839565b610a986001600160a01b038516848484611a7a565b50505050565b610aa785611839565b600160009054906101000a90046001600160a01b03166001600160a01b0316638d928af86040518163ffffffff1660e01b815260040160206040518083038186803b158015610af557600080fd5b505afa158015610b09573d6000803e3d6000fd5b505050506040513d6020811015610b1f57600080fd5b5051604080516348d91abf60e01b81526001600160a01b03888116600483015287811660248301528681166044830152606482018690528415156084830152915191909216916348d91abf9160a480830192600092919082900301818387803b158015610b8b57600080fd5b505af1158015610b9f573d6000803e3d6000fd5b505050505050505050565b6000610bb588611839565b600160009054906101000a90046001600160a01b03166001600160a01b0316638d928af86040518163ffffffff1660e01b815260040160206040518083038186803b158015610c0357600080fd5b505afa158015610c17573d6000803e3d6000fd5b505050506040513d6020811015610c2d57600080fd5b50516040805163082a084960e41b81526001600160a01b038b811660048301528a811660248301528981166044830152606482018990526084820188905286151560a483015285811660c4830152915191909216916382a084909160e48083019260209291908290030181600087803b158015610ca957600080fd5b505af1158015610cbd573d6000803e3d6000fd5b505050506040513d6020811015610cd357600080fd5b505198975050505050505050565b60025484516001600160a01b039091169085906000198101908110610d0257fe5b60200260200101516001600160a01b031614610d5d576040805162461bcd60e51b81526020600482015260156024820152740a4deeae8cae47440d2dcecc2d8d2c840bee0c2e8d605b1b604482015290519081900360640190fd5b610e12610d68611ad4565b600160009054906101000a90046001600160a01b03166001600160a01b0316638d928af86040518163ffffffff1660e01b815260040160206040518083038186803b158015610db657600080fd5b505afa158015610dca573d6000803e3d6000fd5b505050506040513d6020811015610de057600080fd5b5051865186908890600090610df157fe5b60200260200101516001600160a01b0316611a7a909392919063ffffffff16565b6000610e1f858430611ad8565b9050610e2b8183611c80565b7fcd3829a3813dc3cdd188fd3d01dcf3268c16be2fdd2dd21d0665418816e460623386600081518110610e5a57fe5b602002602001015187600189510381518110610e7257fe5b6020026020010151878560405180866001600160a01b03168152602001856001600160a01b03168152602001846001600160a01b031681526020018381526020018281526020019550505050505060405180910390a15050505050565b60025488516001600160a01b039091169089906000198101908110610ef057fe5b60200260200101516001600160a01b031614610f4b576040805162461bcd60e51b81526020600482015260156024820152740a4deeae8cae47440d2dcecc2d8d2c840bee0c2e8d605b1b604482015290519081900360640190fd5b6000610f7089600081518110610f5d57fe5b6020026020010151898989893089611cfd565b905061101e600160009054906101000a90046001600160a01b03166001600160a01b0316638d928af86040518163ffffffff1660e01b815260040160206040518083038186803b158015610fc357600080fd5b505afa158015610fd7573d6000803e3d6000fd5b505050506040513d6020811015610fed57600080fd5b50518a5183908c90600090610ffe57fe5b60200260200101516001600160a01b03166120399092919063ffffffff16565b600061102b8a8430611ad8565b90506110378186611c80565b50505050505050505050565b3360009081526003602090815260408083206001600160a01b0394909416835292905220805460ff19166001179055565b6002546001600160a01b031681565b600061109488888888883088611cfd565b90506110a08184611c80565b5050505050505050565b60006110bc89600081518110610f5d57fe5b905061110f600160009054906101000a90046001600160a01b03166001600160a01b0316638d928af86040518163ffffffff1660e01b815260040160206040518083038186803b158015610fc357600080fd5b611037898386611ad8565b611125610d68611ad4565b6000611132858484611ad8565b90507fcd3829a3813dc3cdd188fd3d01dcf3268c16be2fdd2dd21d0665418816e460623386600081518110610e5a57fe5b61116b611ad4565b6001600160a01b031661117c611221565b6001600160a01b0316146111d7576040805162461bcd60e51b815260206004820181905260248201527f4f776e61626c653a2063616c6c6572206973206e6f7420746865206f776e6572604482015290519081900360640190fd5b600080546040516001600160a01b03909116907f8be0079c531659141344cd1fd0a4f28419497f9722a3daafe3b4186f6b6457e0908390a3600080546001600160a01b0319169055565b6000546001600160a01b031690565b6110a087878787878787611cfd565b600154604080516311b2515f60e31b815290516000926001600160a01b031691638d928af8916004808301926020929190829003018186803b15801561128457600080fd5b505afa158015611298573d6000803e3d6000fd5b505050506040513d60208110156112ae57600080fd5b505190506112cf6112bd611ad4565b6001600160a01b038516908385611a7a565b806001600160a01b0316635f7bc119846040518263ffffffff1660e01b815260040180826001600160a01b03168152602001915050600060405180830381600087803b15801561131e57600080fd5b505af1158015611332573d6000803e3d6000fd5b50505050505050565b600360209081526000928352604080842090915290825290205460ff1681565b60025483516001600160a01b0390911690849060009061137757fe5b60200260200101516001600160a01b0316146113d2576040805162461bcd60e51b81526020600482015260156024820152740a4deeae8cae47440d2dcecc2d8d2c840bee0c2e8d605b1b604482015290519081900360640190fd5b6113da612090565b60006113e7848484611ad8565b90507fcd3829a3813dc3cdd188fd3d01dcf3268c16be2fdd2dd21d0665418816e46062338560008151811061141857fe5b60200260200101518660018851038151811061143057fe5b6020026020010151348560405180866001600160a01b03168152602001856001600160a01b03168152602001846001600160a01b031681526020018381526020018281526020019550505050505060405180910390a150505050565b60025486516001600160a01b039091169087906000906114a857fe5b60200260200101516001600160a01b031614611503576040805162461bcd60e51b81526020600482015260156024820152740a4deeae8cae47440d2dcecc2d8d2c840bee0c2e8d605b1b604482015290519081900360640190fd5b341561151157611511612090565b600186511180156115225750600034115b156115c9576000611534878630611ad8565b90506115c7600160009054906101000a90046001600160a01b03166001600160a01b0316638d928af86040518163ffffffff1660e01b815260040160206040518083038186803b15801561158757600080fd5b505afa15801561159b573d6000803e3d6000fd5b505050506040513d60208110156115b157600080fd5b5051885183908a906000198101908110610ffe57fe5b505b6115ed866001885103815181106115dc57fe5b60200260200101518685858561218b565b505050505050565b600154604080516311b2515f60e31b815290516000926001600160a01b031691638d928af8916004808301926020929190829003018186803b15801561163a57600080fd5b505afa15801561164e573d6000803e3d6000fd5b505050506040513d602081101561166457600080fd5b50519050851561168857611688611679611ad4565b82888b600081518110610df157fe5b600188511180156116995750600086115b156116c45760006116ab898730611ad8565b90506116c282828b60018d510381518110610ffe57fe5b505b6110a08860018a5103815181106116d757fe5b60200260200101518886868661218b565b6001546001600160a01b031681565b3360009081526003602090815260408083206001600160a01b0394909416835292905220805460ff19169055565b61172d611ad4565b6001600160a01b031661173e611221565b6001600160a01b031614611799576040805162461bcd60e51b815260206004820181905260248201527f4f776e61626c653a2063616c6c6572206973206e6f7420746865206f776e6572604482015290519081900360640190fd5b6001600160a01b0381166117de5760405162461bcd60e51b8152600401808060200182810382526026815260200180612b3e6026913960400191505060405180910390fd5b600080546040516001600160a01b03808516939216917f8be0079c531659141344cd1fd0a4f28419497f9722a3daafe3b4186f6b6457e091a3600080546001600160a01b0319166001600160a01b0392909216919091179055565b6001546040805163b248c4ef60e01b8152905133926001600160a01b03169163b248c4ef916004808301926020929190829003018186803b15801561187d57600080fd5b505afa158015611891573d6000803e3d6000fd5b505050506040513d60208110156118a757600080fd5b50516001600160a01b031614806119345750600154604080516335116f6f60e11b8152905133926001600160a01b031691636a22dede916004808301926020929190829003018186803b1580156118fd57600080fd5b505afa158015611911573d6000803e3d6000fd5b505050506040513d602081101561192757600080fd5b50516001600160a01b0316145b806119b55750600154604080516325ecd4d560e11b8152905133926001600160a01b031691634bd9a9aa916004808301926020929190829003018186803b15801561197e57600080fd5b505afa158015611992573d6000803e3d6000fd5b505050506040513d60208110156119a857600080fd5b50516001600160a01b0316145b6119ff576040805162461bcd60e51b81526020600482015260166024820152752937baba32b91d1034b73b30b634b21038363ab3b4b760511b604482015290519081900360640190fd5b6001600160a01b038116600090815260036020908152604080832033845290915290205460ff16611a77576040805162461bcd60e51b815260206004820152601b60248201527f526f757465723a20706c7567696e206e6f7420617070726f7665640000000000604482015290519081900360640190fd5b50565b604080516001600160a01b0380861660248301528416604482015260648082018490528251808303909101815260849091019091526020810180516001600160e01b03166323b872dd60e01b179052610a98908590612486565b3390565b6000835160021415611b1f57611b1884600081518110611af457fe5b602002602001015185600181518110611b0957fe5b60200260200101518585612537565b9050611c79565b835160031415611c2c576000611b6085600081518110611b3b57fe5b602002602001015186600181518110611b5057fe5b6020026020010151600030612537565b9050611bf0600160009054906101000a90046001600160a01b03166001600160a01b0316638d928af86040518163ffffffff1660e01b815260040160206040518083038186803b158015611bb357600080fd5b505afa158015611bc7573d6000803e3d6000fd5b505050506040513d6020811015611bdd57600080fd5b50518651839088906001908110610ffe57fe5b611c2485600181518110611c0057fe5b602002602001015186600281518110611c1557fe5b60200260200101518686612537565b915050611c79565b6040805162461bcd60e51b815260206004820152601c60248201527f526f757465723a20696e76616c6964205f706174682e6c656e67746800000000604482015290519081900360640190fd5b9392505050565b60025460408051632e1a7d4d60e01b81526004810185905290516001600160a01b0390921691632e1a7d4d9160248082019260009290919082900301818387803b158015611ccd57600080fd5b505af1158015611ce1573d6000803e3d6000fd5b50611cf9925050506001600160a01b0382168361283c565b5050565b600080600160009054906101000a90046001600160a01b03166001600160a01b031663fca513a86040518163ffffffff1660e01b815260040160206040518083038186803b158015611d4e57600080fd5b505afa158015611d62573d6000803e3d6000fd5b505050506040513d6020811015611d7857600080fd5b505190508415611e4157604080516303b6b4bb60e51b81526001600160a01b038a8116600483015260006024830152915185928416916376d69760916044808301926020929190829003018186803b158015611dd357600080fd5b505afa158015611de7573d6000803e3d6000fd5b505050506040513d6020811015611dfd57600080fd5b50511015611e3c5760405162461bcd60e51b8152600401808060200182810382526023815260200180612bc46023913960400191505060405180910390fd5b611efb565b604080516303b6b4bb60e51b81526001600160a01b038a8116600483015260016024830152915185928416916376d69760916044808301926020929190829003018186803b158015611e9257600080fd5b505afa158015611ea6573d6000803e3d6000fd5b505050506040513d6020811015611ebc57600080fd5b50511115611efb5760405162461bcd60e51b8152600401808060200182810382526024815260200180612c116024913960400191505060405180910390fd5b600160009054906101000a90046001600160a01b03166001600160a01b0316638d928af86040518163ffffffff1660e01b815260040160206040518083038186803b158015611f4957600080fd5b505afa158015611f5d573d6000803e3d6000fd5b505050506040513d6020811015611f7357600080fd5b50516001600160a01b03166382a08490611f8b611ad4565b604080516001600160e01b031960e085901b1681526001600160a01b039283166004820152828e166024820152828d166044820152606481018c9052608481018b905289151560a482015291881660c48301525160e48083019260209291908290030181600087803b15801561200057600080fd5b505af1158015612014573d6000803e3d6000fd5b505050506040513d602081101561202a57600080fd5b50519998505050505050505050565b604080516001600160a01b038416602482015260448082018490528251808303909101815260649091019091526020810180516001600160e01b031663a9059cbb60e01b17905261208b908490612486565b505050565b600260009054906101000a90046001600160a01b03166001600160a01b031663d0e30db0346040518263ffffffff1660e01b81526004016000604051808303818588803b1580156120e057600080fd5b505af11580156120f4573d6000803e3d6000fd5b5050505050612189600160009054906101000a90046001600160a01b03166001600160a01b0316638d928af86040518163ffffffff1660e01b815260040160206040518083038186803b15801561214a57600080fd5b505afa15801561215e573d6000803e3d6000fd5b505050506040513d602081101561217457600080fd5b50516002546001600160a01b03169034612039565b565b60015460408051631f94a27560e31b815290516000926001600160a01b03169163fca513a8916004808301926020929190829003018186803b1580156121d057600080fd5b505afa1580156121e4573d6000803e3d6000fd5b505050506040513d60208110156121fa57600080fd5b5051905082156122c357604080516303b6b4bb60e51b81526001600160a01b03878116600483015260016024830152915184928416916376d69760916044808301926020929190829003018186803b15801561225557600080fd5b505afa158015612269573d6000803e3d6000fd5b505050506040513d602081101561227f57600080fd5b505111156122be5760405162461bcd60e51b8152600401808060200182810382526024815260200180612c116024913960400191505060405180910390fd5b61237d565b604080516303b6b4bb60e51b81526001600160a01b03878116600483015260006024830152915184928416916376d69760916044808301926020929190829003018186803b15801561231457600080fd5b505afa158015612328573d6000803e3d6000fd5b505050506040513d602081101561233e57600080fd5b5051101561237d5760405162461bcd60e51b8152600401808060200182810382526023815260200180612bc46023913960400191505060405180910390fd5b600160009054906101000a90046001600160a01b03166001600160a01b0316638d928af86040518163ffffffff1660e01b815260040160206040518083038186803b1580156123cb57600080fd5b505afa1580156123df573d6000803e3d6000fd5b505050506040513d60208110156123f557600080fd5b50516001600160a01b03166348d91abf61240d611ad4565b604080516001600160e01b031960e085901b1681526001600160a01b039283166004820152828b16602482015291891660448301526064820188905286151560848301525160a480830192600092919082900301818387803b15801561247257600080fd5b505af1158015611037573d6000803e3d6000fd5b60006124db826040518060400160405280602081526020017f5361666545524332303a206c6f772d6c6576656c2063616c6c206661696c6564815250856001600160a01b03166129219092919063ffffffff16565b80519091501561208b578080602001905160208110156124fa57600080fd5b505161208b5760405162461bcd60e51b815260040180806020018281038252602a815260200180612be7602a913960400191505060405180910390fd5b6000806000600160009054906101000a90046001600160a01b03166001600160a01b0316638ad6de4e6040518163ffffffff1660e01b815260040160206040518083038186803b15801561258a57600080fd5b505afa15801561259e573d6000803e3d6000fd5b505050506040513d60208110156125b457600080fd5b5051600154604080516311b2515f60e31b815290519293506000926001600160a01b0390921691638d928af891600480820192602092909190829003018186803b15801561260157600080fd5b505afa158015612615573d6000803e3d6000fd5b505050506040513d602081101561262b57600080fd5b505190506001600160a01b0387811690831614156126d657806001600160a01b0316635da69ed789876040518363ffffffff1660e01b815260040180836001600160a01b03168152602001826001600160a01b0316815260200192505050602060405180830381600087803b1580156126a357600080fd5b505af11580156126b7573d6000803e3d6000fd5b505050506040513d60208110156126cd57600080fd5b505192506127db565b816001600160a01b0316886001600160a01b0316141561275057806001600160a01b0316635bae426388876040518363ffffffff1660e01b815260040180836001600160a01b03168152602001826001600160a01b0316815260200192505050602060405180830381600087803b1580156126a357600080fd5b60408051634998b10960e11b81526001600160a01b038a81166004830152898116602483015287811660448301529151918316916393316212916064808201926020929091908290030181600087803b1580156127ac57600080fd5b505af11580156127c0573d6000803e3d6000fd5b505050506040513d60208110156127d657600080fd5b505192505b85831015612830576040805162461bcd60e51b815260206004820152601e60248201527f526f757465723a20696e73756666696369656e7420616d6f756e744f75740000604482015290519081900360640190fd5b50909695505050505050565b80471015612891576040805162461bcd60e51b815260206004820152601d60248201527f416464726573733a20696e73756666696369656e742062616c616e6365000000604482015290519081900360640190fd5b6040516000906001600160a01b0384169083908381818185875af1925050503d80600081146128dc576040519150601f19603f3d011682016040523d82523d6000602084013e6128e1565b606091505b505090508061208b5760405162461bcd60e51b815260040180806020018281038252603a815260200180612b64603a913960400191505060405180910390fd5b60606129308484600085612938565b949350505050565b6060824710156129795760405162461bcd60e51b8152600401808060200182810382526026815260200180612b9e6026913960400191505060405180910390fd5b61298285612a93565b6129d3576040805162461bcd60e51b815260206004820152601d60248201527f416464726573733a2063616c6c20746f206e6f6e2d636f6e7472616374000000604482015290519081900360640190fd5b600080866001600160a01b031685876040518082805190602001908083835b60208310612a115780518252601f1990920191602091820191016129f2565b6001836020036101000a03801982511681845116808217855250505050505090500191505060006040518083038185875af1925050503d8060008114612a73576040519150601f19603f3d011682016040523d82523d6000602084013e612a78565b606091505b5091509150612a88828286612a99565b979650505050505050565b3b151590565b60608315612aa8575081611c79565b825115612ab85782518084602001fd5b8160405162461bcd60e51b81526004018080602001828103825283818151815260200191508051906020019080838360005b83811015612b02578181015183820152602001612aea565b50505050905090810190601f168015612b2f5780820380516001836020036101000a031916815260200191505b509250505060405180910390fdfe4f776e61626c653a206e6577206f776e657220697320746865207a65726f2061646472657373416464726573733a20756e61626c6520746f2073656e642076616c75652c20726563697069656e74206d61792068617665207265766572746564416464726573733a20696e73756666696369656e742062616c616e636520666f722063616c6c526f757465723a206d61726b207072696365206c6f776572207468616e206c696d69745361666545524332303a204552433230206f7065726174696f6e20646964206e6f742073756363656564526f757465723a206d61726b20707269636520686967686572207468616e206c696d6974a2646970667358221220f25a3718f990388842e18481175f694c4856d6e3573d34a123f40816a6c386ec64736f6c63430007060033",
  "linkReferences": {},
  "deployedLinkReferences": {}
}