{
  "_format": "hh-sol-artifact-1",
  "contractName": "Router",
  "sourceName": "contracts/protocol/core/Router.sol",
  "abi": [
    {
      "inputs": [
        {
          "internalType": "address",
          "name": "_vault",
          "type": "address"
        },
        {
          "internalType": "address",
          "name": "_usdph",
          "type": "address"
        },
        {
          "internalType": "address",
          "name": "_weth",
          "type": "address"
        }
      ],
      "stateMutability": "nonpayable",
      "type": "constructor"
    },
    {
      "anonymous": false,
      "inputs": [
        {
          "indexed": true,
          "internalType": "address",
          "name": "previousOwner",
          "type": "address"
        },
        {
          "indexed": true,
          "internalType": "address",
          "name": "newOwner",
          "type": "address"
        }
      ],
      "name": "OwnershipTransferred",
      "type": "event"
    },
    {
      "anonymous": false,
      "inputs": [
        {
          "indexed": false,
          "internalType": "address",
          "name": "account",
          "type": "address"
        },
        {
          "indexed": false,
          "internalType": "address",
          "name": "tokenIn",
          "type": "address"
        },
        {
          "indexed": false,
          "internalType": "address",
          "name": "tokenOut",
          "type": "address"
        },
        {
          "indexed": false,
          "internalType": "uint256",
          "name": "amountIn",
          "type": "uint256"
        },
        {
          "indexed": false,
          "internalType": "uint256",
          "name": "amountOut",
          "type": "uint256"
        }
      ],
      "name": "Swap",
      "type": "event"
    },
    {
      "inputs": [
        {
          "internalType": "address",
          "name": "_plugin",
          "type": "address"
        }
      ],
      "name": "addPlugin",
      "outputs": [],
      "stateMutability": "nonpayable",
      "type": "function"
    },
    {
      "inputs": [
        {
          "internalType": "address",
          "name": "_plugin",
          "type": "address"
        }
      ],
      "name": "approvePlugin",
      "outputs": [],
      "stateMutability": "nonpayable",
      "type": "function"
    },
    {
      "inputs": [
        {
          "internalType": "address",
          "name": "",
          "type": "address"
        },
        {
          "internalType": "address",
          "name": "",
          "type": "address"
        }
      ],
      "name": "approvedPlugins",
      "outputs": [
        {
          "internalType": "bool",
          "name": "",
          "type": "bool"
        }
      ],
      "stateMutability": "view",
      "type": "function"
    },
    {
      "inputs": [
        {
          "internalType": "address",
          "name": "_collateralToken",
          "type": "address"
        },
        {
          "internalType": "address",
          "name": "_indexToken",
          "type": "address"
        },
        {
          "internalType": "uint256",
          "name": "_collateralDelta",
          "type": "uint256"
        },
        {
          "internalType": "uint256",
          "name": "_sizeDelta",
          "type": "uint256"
        },
        {
          "internalType": "bool",
          "name": "_isLong",
          "type": "bool"
        },
        {
          "internalType": "address",
          "name": "_receiver",
          "type": "address"
        },
        {
          "internalType": "uint256",
          "name": "_price",
          "type": "uint256"
        }
      ],
      "name": "decreasePosition",
      "outputs": [],
      "stateMutability": "nonpayable",
      "type": "function"
    },
    {
      "inputs": [
        {
          "internalType": "address[]",
          "name": "_path",
          "type": "address[]"
        },
        {
          "internalType": "address",
          "name": "_indexToken",
          "type": "address"
        },
        {
          "internalType": "uint256",
          "name": "_collateralDelta",
          "type": "uint256"
        },
        {
          "internalType": "uint256",
          "name": "_sizeDelta",
          "type": "uint256"
        },
        {
          "internalType": "bool",
          "name": "_isLong",
          "type": "bool"
        },
        {
          "internalType": "address",
          "name": "_receiver",
          "type": "address"
        },
        {
          "internalType": "uint256",
          "name": "_price",
          "type": "uint256"
        },
        {
          "internalType": "uint256",
          "name": "_minOut",
          "type": "uint256"
        }
      ],
      "name": "decreasePositionAndSwap",
      "outputs": [],
      "stateMutability": "nonpayable",
      "type": "function"
    },
    {
      "inputs": [
        {
          "internalType": "address[]",
          "name": "_path",
          "type": "address[]"
        },
        {
          "internalType": "address",
          "name": "_indexToken",
          "type": "address"
        },
        {
          "internalType": "uint256",
          "name": "_collateralDelta",
          "type": "uint256"
        },
        {
          "internalType": "uint256",
          "name": "_sizeDelta",
          "type": "uint256"
        },
        {
          "internalType": "bool",
          "name": "_isLong",
          "type": "bool"
        },
        {
          "internalType": "address payable",
          "name": "_receiver",
          "type": "address"
        },
        {
          "internalType": "uint256",
          "name": "_price",
          "type": "uint256"
        },
        {
          "internalType": "uint256",
          "name": "_minOut",
          "type": "uint256"
        }
      ],
      "name": "decreasePositionAndSwapETH",
      "outputs": [],
      "stateMutability": "nonpayable",
      "type": "function"
    },
    {
      "inputs": [
        {
          "internalType": "address",
          "name": "_collateralToken",
          "type": "address"
        },
        {
          "internalType": "address",
          "name": "_indexToken",
          "type": "address"
        },
        {
          "internalType": "uint256",
          "name": "_collateralDelta",
          "type": "uint256"
        },
        {
          "internalType": "uint256",
          "name": "_sizeDelta",
          "type": "uint256"
        },
        {
          "internalType": "bool",
          "name": "_isLong",
          "type": "bool"
        },
        {
          "internalType": "address payable",
          "name": "_receiver",
          "type": "address"
        },
        {
          "internalType": "uint256",
          "name": "_price",
          "type": "uint256"
        }
      ],
      "name": "decreasePositionETH",
      "outputs": [],
      "stateMutability": "nonpayable",
      "type": "function"
    },
    {
      "inputs": [
        {
          "internalType": "address",
          "name": "_plugin",
          "type": "address"
        }
      ],
      "name": "denyPlugin",
      "outputs": [],
      "stateMutability": "nonpayable",
      "type": "function"
    },
    {
      "inputs": [
        {
          "internalType": "address",
          "name": "_token",
          "type": "address"
        },
        {
          "internalType": "uint256",
          "name": "_amount",
          "type": "uint256"
        }
      ],
      "name": "directPoolDeposit",
      "outputs": [],
      "stateMutability": "nonpayable",
      "type": "function"
    },
    {
      "inputs": [
        {
          "internalType": "address[]",
          "name": "_path",
          "type": "address[]"
        },
        {
          "internalType": "address",
          "name": "_indexToken",
          "type": "address"
        },
        {
          "internalType": "uint256",
          "name": "_amountIn",
          "type": "uint256"
        },
        {
          "internalType": "uint256",
          "name": "_minOut",
          "type": "uint256"
        },
        {
          "internalType": "uint256",
          "name": "_sizeDelta",
          "type": "uint256"
        },
        {
          "internalType": "bool",
          "name": "_isLong",
          "type": "bool"
        },
        {
          "internalType": "uint256",
          "name": "_price",
          "type": "uint256"
        }
      ],
      "name": "increasePosition",
      "outputs": [],
      "stateMutability": "nonpayable",
      "type": "function"
    },
    {
      "inputs": [
        {
          "internalType": "address[]",
          "name": "_path",
          "type": "address[]"
        },
        {
          "internalType": "address",
          "name": "_indexToken",
          "type": "address"
        },
        {
          "internalType": "uint256",
          "name": "_minOut",
          "type": "uint256"
        },
        {
          "internalType": "uint256",
          "name": "_sizeDelta",
          "type": "uint256"
        },
        {
          "internalType": "bool",
          "name": "_isLong",
          "type": "bool"
        },
        {
          "internalType": "uint256",
          "name": "_price",
          "type": "uint256"
        }
      ],
      "name": "increasePositionETH",
      "outputs": [],
      "stateMutability": "payable",
      "type": "function"
    },
    {
      "inputs": [],
      "name": "owner",
      "outputs": [
        {
          "internalType": "address",
          "name": "",
          "type": "address"
        }
      ],
      "stateMutability": "view",
      "type": "function"
    },
    {
      "inputs": [
        {
          "internalType": "address",
          "name": "_account",
          "type": "address"
        },
        {
          "internalType": "address",
          "name": "_collateralToken",
          "type": "address"
        },
        {
          "internalType": "address",
          "name": "_indexToken",
          "type": "address"
        },
        {
          "internalType": "uint256",
          "name": "_collateralDelta",
          "type": "uint256"
        },
        {
          "internalType": "uint256",
          "name": "_sizeDelta",
          "type": "uint256"
        },
        {
          "internalType": "bool",
          "name": "_isLong",
          "type": "bool"
        },
        {
          "internalType": "address",
          "name": "_receiver",
          "type": "address"
        }
      ],
      "name": "pluginDecreasePosition",
      "outputs": [
        {
          "internalType": "uint256",
          "name": "",
          "type": "uint256"
        }
      ],
      "stateMutability": "nonpayable",
      "type": "function"
    },
    {
      "inputs": [
        {
          "internalType": "address",
          "name": "_account",
          "type": "address"
        },
        {
          "internalType": "address",
          "name": "_collateralToken",
          "type": "address"
        },
        {
          "internalType": "address",
          "name": "_indexToken",
          "type": "address"
        },
        {
          "internalType": "uint256",
          "name": "_sizeDelta",
          "type": "uint256"
        },
        {
          "internalType": "bool",
          "name": "_isLong",
          "type": "bool"
        }
      ],
      "name": "pluginIncreasePosition",
      "outputs": [],
      "stateMutability": "nonpayable",
      "type": "function"
    },
    {
      "inputs": [
        {
          "internalType": "address",
          "name": "_token",
          "type": "address"
        },
        {
          "internalType": "address",
          "name": "_account",
          "type": "address"
        },
        {
          "internalType": "address",
          "name": "_receiver",
          "type": "address"
        },
        {
          "internalType": "uint256",
          "name": "_amount",
          "type": "uint256"
        }
      ],
      "name": "pluginTransfer",
      "outputs": [],
      "stateMutability": "nonpayable",
      "type": "function"
    },
    {
      "inputs": [
        {
          "internalType": "address",
          "name": "",
          "type": "address"
        }
      ],
      "name": "plugins",
      "outputs": [
        {
          "internalType": "bool",
          "name": "",
          "type": "bool"
        }
      ],
      "stateMutability": "view",
      "type": "function"
    },
    {
      "inputs": [
        {
          "internalType": "address",
          "name": "_plugin",
          "type": "address"
        }
      ],
      "name": "removePlugin",
      "outputs": [],
      "stateMutability": "nonpayable",
      "type": "function"
    },
    {
      "inputs": [],
      "name": "renounceOwnership",
      "outputs": [],
      "stateMutability": "nonpayable",
      "type": "function"
    },
    {
      "inputs": [
        {
          "internalType": "address[]",
          "name": "_path",
          "type": "address[]"
        },
        {
          "internalType": "uint256",
          "name": "_amountIn",
          "type": "uint256"
        },
        {
          "internalType": "uint256",
          "name": "_minOut",
          "type": "uint256"
        },
        {
          "internalType": "address",
          "name": "_receiver",
          "type": "address"
        }
      ],
      "name": "swap",
      "outputs": [],
      "stateMutability": "nonpayable",
      "type": "function"
    },
    {
      "inputs": [
        {
          "internalType": "address[]",
          "name": "_path",
          "type": "address[]"
        },
        {
          "internalType": "uint256",
          "name": "_minOut",
          "type": "uint256"
        },
        {
          "internalType": "address",
          "name": "_receiver",
          "type": "address"
        }
      ],
      "name": "swapETHToTokens",
      "outputs": [],
      "stateMutability": "payable",
      "type": "function"
    },
    {
      "inputs": [
        {
          "internalType": "address[]",
          "name": "_path",
          "type": "address[]"
        },
        {
          "internalType": "uint256",
          "name": "_amountIn",
          "type": "uint256"
        },
        {
          "internalType": "uint256",
          "name": "_minOut",
          "type": "uint256"
        },
        {
          "internalType": "address payable",
          "name": "_receiver",
          "type": "address"
        }
      ],
      "name": "swapTokensToETH",
      "outputs": [],
      "stateMutability": "nonpayable",
      "type": "function"
    },
    {
      "inputs": [
        {
          "internalType": "address",
          "name": "newOwner",
          "type": "address"
        }
      ],
      "name": "transferOwnership",
      "outputs": [],
      "stateMutability": "nonpayable",
      "type": "function"
    },
    {
      "inputs": [],
      "name": "usdph",
      "outputs": [
        {
          "internalType": "address",
          "name": "",
          "type": "address"
        }
      ],
      "stateMutability": "view",
      "type": "function"
    },
    {
      "inputs": [],
      "name": "vault",
      "outputs": [
        {
          "internalType": "address",
          "name": "",
          "type": "address"
        }
      ],
      "stateMutability": "view",
      "type": "function"
    },
    {
      "inputs": [],
      "name": "weth",
      "outputs": [
        {
          "internalType": "address",
          "name": "",
          "type": "address"
        }
      ],
      "stateMutability": "view",
      "type": "function"
    },
    {
      "stateMutability": "payable",
      "type": "receive"
    }
  ],
  "bytecode": "0x608060405234801561001057600080fd5b50604051620026e8380380620026e88339818101604052606081101561003557600080fd5b508051602082015160409092015190919060006100506100dc565b600080546001600160a01b0319166001600160a01b0383169081178255604051929350917f8be0079c531659141344cd1fd0a4f28419497f9722a3daafe3b4186f6b6457e0908290a350600380546001600160a01b039485166001600160a01b0319918216179091556002805493851693821693909317909255600180549190931691161790556100e0565b3390565b6125f880620000f06000396000f3fe60806040526004361061016a5760003560e01c8063715018a6116100d1578063abe68eaa1161008a578063cedd437511610064578063cedd437514610ab6578063d8867fc814610ae9578063f2fde38b14610b1c578063fbfa77cf14610b4f576101c9565b8063abe68eaa1461086e578063b32755de1461091d578063b7ddc992146109e0576101c9565b8063715018a61461073e5780638da5cb5b1461075357806390205d8c1461076857806390b64ad3146107c7578063956f285e14610800578063a4d95b641461083b576101c9565b806338c74dd91161012357806338c74dd9146104ae5780633fc8cef3146104e1578063430ed37c146104f65780634b12e643146105555780635fc8500e1461059c5780636023e9661461067c576101c9565b80631352adce146101ce5780631b827878146101ff5780631f1dd176146102485780632662166b146102995780632d4ba6a71461030c5780633039e37f146103ce576101c9565b366101c9576001546001600160a01b031633146101c7576040805162461bcd60e51b81526020600482015260166024820152752937baba32b91d1034b73b30b634b21039b2b73232b960511b604482015290519081900360640190fd5b005b600080fd5b3480156101da57600080fd5b506101e3610b64565b604080516001600160a01b039092168252519081900360200190f35b34801561020b57600080fd5b506101c76004803603608081101561022257600080fd5b506001600160a01b03813581169160208101358216916040820135169060600135610b73565b34801561025457600080fd5b506101c7600480360360a081101561026b57600080fd5b506001600160a01b038135811691602081013582169160408201351690606081013590608001351515610b97565b3480156102a557600080fd5b506102fa600480360360e08110156102bc57600080fd5b506001600160a01b0381358116916020810135821691604082013581169160608101359160808201359160a081013515159160c09091013516610c2c565b60408051918252519081900360200190f35b34801561031857600080fd5b506101c76004803603608081101561032f57600080fd5b810190602081018135600160201b81111561034957600080fd5b82018360208201111561035b57600080fd5b803590602001918460208302840111600160201b8311171561037c57600080fd5b91908080602002602001604051908101604052809392919081815260200183836020028082843760009201919091525092955050823593505050602081013590604001356001600160a01b0316610cec565b3480156103da57600080fd5b506101c760048036036101008110156103f257600080fd5b810190602081018135600160201b81111561040c57600080fd5b82018360208201111561041e57600080fd5b803590602001918460208302840111600160201b8311171561043f57600080fd5b919080806020026020016040519081016040528093929190818152602001838360200280828437600092019190915250929550505081356001600160a01b0390811693506020830135926040810135925060608101351515916080820135169060a08101359060c00135610e6f565b3480156104ba57600080fd5b506101c7600480360360208110156104d157600080fd5b50356001600160a01b0316610f7e565b3480156104ed57600080fd5b506101e3610faf565b34801561050257600080fd5b506101c7600480360360e081101561051957600080fd5b506001600160a01b0381358116916020810135821691604082013591606081013591608082013515159160a08101359091169060c00135610fbe565b34801561056157600080fd5b506105886004803603602081101561057857600080fd5b50356001600160a01b0316610fe5565b604080519115158252519081900360200190f35b3480156105a857600080fd5b506101c760048036036101008110156105c057600080fd5b810190602081018135600160201b8111156105da57600080fd5b8201836020820111156105ec57600080fd5b803590602001918460208302840111600160201b8311171561060d57600080fd5b919080806020026020016040519081016040528093929190818152602001838360200280828437600092019190915250929550505081356001600160a01b0390811693506020830135926040810135925060608101351515916080820135169060a08101359060c00135610ffa565b34801561068857600080fd5b506101c76004803603608081101561069f57600080fd5b810190602081018135600160201b8111156106b957600080fd5b8201836020820111156106cb57600080fd5b803590602001918460208302840111600160201b831117156106ec57600080fd5b91908080602002602001604051908101604052809392919081815260200183836020028082843760009201919091525092955050823593505050602081013590604001356001600160a01b0316611040565b34801561074a57600080fd5b506101c7611089565b34801561075f57600080fd5b506101e3611135565b34801561077457600080fd5b506101c7600480360360e081101561078b57600080fd5b506001600160a01b0381358116916020810135821691604082013591606081013591608082013515159160a08101359091169060c00135611144565b3480156107d357600080fd5b506101c7600480360360408110156107ea57600080fd5b506001600160a01b038135169060200135611153565b34801561080c57600080fd5b506105886004803603604081101561082357600080fd5b506001600160a01b03813581169160200135166111df565b34801561084757600080fd5b506101c76004803603602081101561085e57600080fd5b50356001600160a01b03166111ff565b6101c76004803603606081101561088457600080fd5b810190602081018135600160201b81111561089e57600080fd5b8201836020820111156108b057600080fd5b803590602001918460208302840111600160201b831117156108d157600080fd5b91908080602002602001604051908101604052809392919081815260200183836020028082843760009201919091525092955050823593505050602001356001600160a01b0316611282565b6101c7600480360360c081101561093357600080fd5b810190602081018135600160201b81111561094d57600080fd5b82018360208201111561095f57600080fd5b803590602001918460208302840111600160201b8311171561098057600080fd5b919080806020026020016040519081016040528093929190818152602001838360200280828437600092019190915250929550506001600160a01b03833516935050506020810135906040810135906060810135151590608001356113b3565b3480156109ec57600080fd5b506101c7600480360360e0811015610a0357600080fd5b810190602081018135600160201b811115610a1d57600080fd5b820183602082011115610a2f57600080fd5b803590602001918460208302840111600160201b83111715610a5057600080fd5b919080806020026020016040519081016040528093929190818152602001838360200280828437600092019190915250929550506001600160a01b0383351693505050602081013590604081013590606081013590608081013515159060a001356114ad565b348015610ac257600080fd5b506101c760048036036020811015610ad957600080fd5b50356001600160a01b031661155a565b348015610af557600080fd5b506101c760048036036020811015610b0c57600080fd5b50356001600160a01b0316611588565b348015610b2857600080fd5b506101c760048036036020811015610b3f57600080fd5b50356001600160a01b031661160e565b348015610b5b57600080fd5b506101e3611710565b6002546001600160a01b031681565b610b7c8361171f565b610b916001600160a01b0385168484846117f7565b50505050565b610ba08561171f565b600354604080516348d91abf60e01b81526001600160a01b03888116600483015287811660248301528681166044830152606482018690528415156084830152915191909216916348d91abf9160a480830192600092919082900301818387803b158015610c0d57600080fd5b505af1158015610c21573d6000803e3d6000fd5b505050505050505050565b6000610c378861171f565b6003546040805163082a084960e41b81526001600160a01b038b811660048301528a811660248301528981166044830152606482018990526084820188905286151560a483015285811660c4830152915191909216916382a084909160e48083019260209291908290030181600087803b158015610cb457600080fd5b505af1158015610cc8573d6000803e3d6000fd5b505050506040513d6020811015610cde57600080fd5b505198975050505050505050565b60015484516001600160a01b039091169085906000198101908110610d0d57fe5b60200260200101516001600160a01b031614610d68576040805162461bcd60e51b81526020600482015260156024820152740a4deeae8cae47440d2dcecc2d8d2c840bee0c2e8d605b1b604482015290519081900360640190fd5b610db2610d73611851565b60035486516001600160a01b039091169086908890600090610d9157fe5b60200260200101516001600160a01b03166117f7909392919063ffffffff16565b6000610dbf858430611855565b9050610dcb8183611996565b7fcd3829a3813dc3cdd188fd3d01dcf3268c16be2fdd2dd21d0665418816e460623386600081518110610dfa57fe5b602002602001015187600189510381518110610e1257fe5b6020026020010151878560405180866001600160a01b03168152602001856001600160a01b03168152602001846001600160a01b031681526020018381526020018281526020019550505050505060405180910390a15050505050565b60015488516001600160a01b039091169089906000198101908110610e9057fe5b60200260200101516001600160a01b031614610eeb576040805162461bcd60e51b81526020600482015260156024820152740a4deeae8cae47440d2dcecc2d8d2c840bee0c2e8d605b1b604482015290519081900360640190fd5b6000610f1089600081518110610efd57fe5b6020026020010151898989893089611a13565b9050610f59600360009054906101000a90046001600160a01b0316828b600081518110610f3957fe5b60200260200101516001600160a01b0316611c209092919063ffffffff16565b6000610f668a8430611855565b9050610f728186611996565b50505050505050505050565b3360009081526005602090815260408083206001600160a01b0394909416835292905220805460ff19166001179055565b6001546001600160a01b031681565b6000610fcf88888888883088611a13565b9050610fdb8184611996565b5050505050505050565b60046020526000908152604090205460ff1681565b600061100c89600081518110610efd57fe5b9050611035600360009054906101000a90046001600160a01b0316828b600081518110610f3957fe5b610f72898386611855565b61104b610d73611851565b6000611058858484611855565b90507fcd3829a3813dc3cdd188fd3d01dcf3268c16be2fdd2dd21d0665418816e460623386600081518110610dfa57fe5b611091611851565b6001600160a01b03166110a2611135565b6001600160a01b0316146110eb576040805162461bcd60e51b81526020600482018190526024820152600080516020612555833981519152604482015290519081900360640190fd5b600080546040516001600160a01b03909116907f8be0079c531659141344cd1fd0a4f28419497f9722a3daafe3b4186f6b6457e0908390a3600080546001600160a01b0319169055565b6000546001600160a01b031690565b610fdb87878787878787611a13565b61117561115e611851565b6003546001600160a01b03858116929116846117f7565b60035460408051635f7bc11960e01b81526001600160a01b03858116600483015291519190921691635f7bc11991602480830192600092919082900301818387803b1580156111c357600080fd5b505af11580156111d7573d6000803e3d6000fd5b505050505050565b600560209081526000928352604080842090915290825290205460ff1681565b611207611851565b6001600160a01b0316611218611135565b6001600160a01b031614611261576040805162461bcd60e51b81526020600482018190526024820152600080516020612555833981519152604482015290519081900360640190fd5b6001600160a01b03166000908152600460205260409020805460ff19169055565b60015483516001600160a01b0390911690849060009061129e57fe5b60200260200101516001600160a01b0316146112f9576040805162461bcd60e51b81526020600482015260156024820152740a4deeae8cae47440d2dcecc2d8d2c840bee0c2e8d605b1b604482015290519081900360640190fd5b611301611c77565b600061130e848484611855565b90507fcd3829a3813dc3cdd188fd3d01dcf3268c16be2fdd2dd21d0665418816e46062338560008151811061133f57fe5b60200260200101518660018851038151811061135757fe5b6020026020010151348560405180866001600160a01b03168152602001856001600160a01b03168152602001846001600160a01b031681526020018381526020018281526020019550505050505060405180910390a150505050565b60015486516001600160a01b039091169087906000906113cf57fe5b60200260200101516001600160a01b03161461142a576040805162461bcd60e51b81526020600482015260156024820152740a4deeae8cae47440d2dcecc2d8d2c840bee0c2e8d605b1b604482015290519081900360640190fd5b341561143857611438611c77565b600186511180156114495750600034115b1561148957600061145b878630611855565b9050611487600360009054906101000a90046001600160a01b0316828960018b510381518110610f3957fe5b505b6111d78660018851038151811061149c57fe5b602002602001015186858585611d00565b84156114dc576114dc6114be611851565b60035489516001600160a01b039091169088908b90600090610d9157fe5b600187511180156114ed5750600085115b1561152d5760006114ff888630611855565b905061152b600360009054906101000a90046001600160a01b0316828a60018c510381518110610f3957fe5b505b6115518760018951038151811061154057fe5b602002602001015187858585611d00565b50505050505050565b3360009081526005602090815260408083206001600160a01b0394909416835292905220805460ff19169055565b611590611851565b6001600160a01b03166115a1611135565b6001600160a01b0316146115ea576040805162461bcd60e51b81526020600482018190526024820152600080516020612555833981519152604482015290519081900360640190fd5b6001600160a01b03166000908152600460205260409020805460ff19166001179055565b611616611851565b6001600160a01b0316611627611135565b6001600160a01b031614611670576040805162461bcd60e51b81526020600482018190526024820152600080516020612555833981519152604482015290519081900360640190fd5b6001600160a01b0381166116b55760405162461bcd60e51b81526004018080602001828103825260268152602001806124ac6026913960400191505060405180910390fd5b600080546040516001600160a01b03808516939216917f8be0079c531659141344cd1fd0a4f28419497f9722a3daafe3b4186f6b6457e091a3600080546001600160a01b0319166001600160a01b0392909216919091179055565b6003546001600160a01b031681565b3360009081526004602052604090205460ff1661177c576040805162461bcd60e51b81526020600482015260166024820152752937baba32b91d1034b73b30b634b21038363ab3b4b760511b604482015290519081900360640190fd5b6001600160a01b038116600090815260056020908152604080832033845290915290205460ff166117f4576040805162461bcd60e51b815260206004820152601b60248201527f526f757465723a20706c7567696e206e6f7420617070726f7665640000000000604482015290519081900360640190fd5b50565b604080516001600160a01b0380861660248301528416604482015260648082018490528251808303909101815260849091019091526020810180516001600160e01b03166323b872dd60e01b179052610b91908590611efb565b3390565b600083516002141561189c576118958460008151811061187157fe5b60200260200101518560018151811061188657fe5b60200260200101518585611fac565b905061198f565b8351600314156119425760006118dd856000815181106118b857fe5b6020026020010151866001815181106118cd57fe5b6020026020010151600030611fac565b9050611906600360009054906101000a90046001600160a01b03168287600181518110610f3957fe5b61193a8560018151811061191657fe5b60200260200101518660028151811061192b57fe5b60200260200101518686611fac565b91505061198f565b6040805162461bcd60e51b815260206004820152601c60248201527f526f757465723a20696e76616c6964205f706174682e6c656e67746800000000604482015290519081900360640190fd5b9392505050565b60015460408051632e1a7d4d60e01b81526004810185905290516001600160a01b0390921691632e1a7d4d9160248082019260009290919082900301818387803b1580156119e357600080fd5b505af11580156119f7573d6000803e3d6000fd5b50611a0f925050506001600160a01b038216836121aa565b5050565b60008315611ad957600354604080516340d3096b60e11b81526001600160a01b038a811660048301529151859392909216916381a612d691602480820192602092909190829003018186803b158015611a6b57600080fd5b505afa158015611a7f573d6000803e3d6000fd5b505050506040513d6020811015611a9557600080fd5b50511015611ad45760405162461bcd60e51b81526004018080602001828103825260238152602001806125326023913960400191505060405180910390fd5b611b92565b60035460408051637092736960e11b81526001600160a01b038a8116600483015291518593929092169163e124e6d291602480820192602092909190829003018186803b158015611b2957600080fd5b505afa158015611b3d573d6000803e3d6000fd5b505050506040513d6020811015611b5357600080fd5b50511115611b925760405162461bcd60e51b815260040180806020018281038252602481526020018061259f6024913960400191505060405180910390fd5b6003546001600160a01b03166382a08490611bab611851565b604080516001600160e01b031960e085901b1681526001600160a01b039283166004820152828d166024820152828c166044820152606481018b9052608481018a905288151560a482015291871660c48301525160e48083019260209291908290030181600087803b158015610cb457600080fd5b604080516001600160a01b038416602482015260448082018490528251808303909101815260649091019091526020810180516001600160e01b031663a9059cbb60e01b179052611c72908490611efb565b505050565b600160009054906101000a90046001600160a01b03166001600160a01b031663d0e30db0346040518263ffffffff1660e01b81526004016000604051808303818588803b158015611cc757600080fd5b505af1158015611cdb573d6000803e3d6000fd5b5050600354600154611cfe94506001600160a01b03908116935016905034611c20565b565b8115611dc45760035460408051637092736960e11b81526001600160a01b03878116600483015291518493929092169163e124e6d291602480820192602092909190829003018186803b158015611d5657600080fd5b505afa158015611d6a573d6000803e3d6000fd5b505050506040513d6020811015611d8057600080fd5b50511115611dbf5760405162461bcd60e51b815260040180806020018281038252602481526020018061259f6024913960400191505060405180910390fd5b611e7d565b600354604080516340d3096b60e11b81526001600160a01b0387811660048301529151849392909216916381a612d691602480820192602092909190829003018186803b158015611e1457600080fd5b505afa158015611e28573d6000803e3d6000fd5b505050506040513d6020811015611e3e57600080fd5b50511015611e7d5760405162461bcd60e51b81526004018080602001828103825260238152602001806125326023913960400191505060405180910390fd5b6003546001600160a01b03166348d91abf611e96611851565b604080516001600160e01b031960e085901b1681526001600160a01b039283166004820152828a16602482015291881660448301526064820187905285151560848301525160a480830192600092919082900301818387803b158015610c0d57600080fd5b6000611f50826040518060400160405280602081526020017f5361666545524332303a206c6f772d6c6576656c2063616c6c206661696c6564815250856001600160a01b031661228f9092919063ffffffff16565b805190915015611c7257808060200190516020811015611f6f57600080fd5b5051611c725760405162461bcd60e51b815260040180806020018281038252602a815260200180612575602a913960400191505060405180910390fd5b60025460009081906001600160a01b03868116911614156120515760035460408051635da69ed760e01b81526001600160a01b038981166004830152868116602483015291519190921691635da69ed79160448083019260209291908290030181600087803b15801561201e57600080fd5b505af1158015612032573d6000803e3d6000fd5b505050506040513d602081101561204857600080fd5b5051905061214c565b6002546001600160a01b03878116911614156120be5760035460408051635bae426360e01b81526001600160a01b038881166004830152868116602483015291519190921691635bae42639160448083019260209291908290030181600087803b15801561201e57600080fd5b60035460408051634998b10960e11b81526001600160a01b038981166004830152888116602483015286811660448301529151919092169163933162129160648083019260209291908290030181600087803b15801561211d57600080fd5b505af1158015612131573d6000803e3d6000fd5b505050506040513d602081101561214757600080fd5b505190505b838110156121a1576040805162461bcd60e51b815260206004820152601e60248201527f526f757465723a20696e73756666696369656e7420616d6f756e744f75740000604482015290519081900360640190fd5b95945050505050565b804710156121ff576040805162461bcd60e51b815260206004820152601d60248201527f416464726573733a20696e73756666696369656e742062616c616e6365000000604482015290519081900360640190fd5b6040516000906001600160a01b0384169083908381818185875af1925050503d806000811461224a576040519150601f19603f3d011682016040523d82523d6000602084013e61224f565b606091505b5050905080611c725760405162461bcd60e51b815260040180806020018281038252603a8152602001806124d2603a913960400191505060405180910390fd5b606061229e84846000856122a6565b949350505050565b6060824710156122e75760405162461bcd60e51b815260040180806020018281038252602681526020018061250c6026913960400191505060405180910390fd5b6122f085612401565b612341576040805162461bcd60e51b815260206004820152601d60248201527f416464726573733a2063616c6c20746f206e6f6e2d636f6e7472616374000000604482015290519081900360640190fd5b600080866001600160a01b031685876040518082805190602001908083835b6020831061237f5780518252601f199092019160209182019101612360565b6001836020036101000a03801982511681845116808217855250505050505090500191505060006040518083038185875af1925050503d80600081146123e1576040519150601f19603f3d011682016040523d82523d6000602084013e6123e6565b606091505b50915091506123f6828286612407565b979650505050505050565b3b151590565b6060831561241657508161198f565b8251156124265782518084602001fd5b8160405162461bcd60e51b81526004018080602001828103825283818151815260200191508051906020019080838360005b83811015612470578181015183820152602001612458565b50505050905090810190601f16801561249d5780820380516001836020036101000a031916815260200191505b509250505060405180910390fdfe4f776e61626c653a206e6577206f776e657220697320746865207a65726f2061646472657373416464726573733a20756e61626c6520746f2073656e642076616c75652c20726563697069656e74206d61792068617665207265766572746564416464726573733a20696e73756666696369656e742062616c616e636520666f722063616c6c526f757465723a206d61726b207072696365206c6f776572207468616e206c696d69744f776e61626c653a2063616c6c6572206973206e6f7420746865206f776e65725361666545524332303a204552433230206f7065726174696f6e20646964206e6f742073756363656564526f757465723a206d61726b20707269636520686967686572207468616e206c696d6974a26469706673582212200a0e348f4c00276dd83de56d060b0ce8db87523c76aa1c8778d73bbfacb1e0f464736f6c63430007060033",
  "linkReferences": {},
  "deployedLinkReferences": {}
}