{
  "_format": "hh-sol-artifact-1",
  "contractName": "Vault",
  "sourceName": "contracts/protocol/core/Vault.sol",
  "abi": [
    {
      "inputs": [],
      "stateMutability": "nonpayable",
      "type": "constructor"
    },
    {
      "anonymous": false,
      "inputs": [
        {
          "indexed": false,
          "internalType": "address",
          "name": "account",
          "type": "address"
        },
        {
          "indexed": false,
          "internalType": "address",
          "name": "token",
          "type": "address"
        },
        {
          "indexed": false,
          "internalType": "uint256",
          "name": "tokenAmount",
          "type": "uint256"
        },
        {
          "indexed": false,
          "internalType": "uint256",
          "name": "usdphAmount",
          "type": "uint256"
        },
        {
          "indexed": false,
          "internalType": "uint256",
          "name": "feeBps",
          "type": "uint256"
        }
      ],
      "name": "BuyUSDPH",
      "type": "event"
    },
    {
      "anonymous": false,
      "inputs": [
        {
          "indexed": false,
          "internalType": "bytes32",
          "name": "key",
          "type": "bytes32"
        },
        {
          "indexed": false,
          "internalType": "uint256",
          "name": "size",
          "type": "uint256"
        },
        {
          "indexed": false,
          "internalType": "uint256",
          "name": "collateral",
          "type": "uint256"
        },
        {
          "indexed": false,
          "internalType": "uint256",
          "name": "averagePrice",
          "type": "uint256"
        },
        {
          "indexed": false,
          "internalType": "uint256",
          "name": "entryFundingRate",
          "type": "uint256"
        },
        {
          "indexed": false,
          "internalType": "uint256",
          "name": "reserveAmount",
          "type": "uint256"
        },
        {
          "indexed": false,
          "internalType": "int256",
          "name": "realisedPnl",
          "type": "int256"
        }
      ],
      "name": "ClosePosition",
      "type": "event"
    },
    {
      "anonymous": false,
      "inputs": [
        {
          "indexed": false,
          "internalType": "address",
          "name": "token",
          "type": "address"
        },
        {
          "indexed": false,
          "internalType": "uint256",
          "name": "feeUsd",
          "type": "uint256"
        },
        {
          "indexed": false,
          "internalType": "uint256",
          "name": "feeTokens",
          "type": "uint256"
        }
      ],
      "name": "CollectMarginFees",
      "type": "event"
    },
    {
      "anonymous": false,
      "inputs": [
        {
          "indexed": false,
          "internalType": "address",
          "name": "token",
          "type": "address"
        },
        {
          "indexed": false,
          "internalType": "uint256",
          "name": "feeUsd",
          "type": "uint256"
        },
        {
          "indexed": false,
          "internalType": "uint256",
          "name": "feeTokens",
          "type": "uint256"
        }
      ],
      "name": "CollectSwapFees",
      "type": "event"
    },
    {
      "anonymous": false,
      "inputs": [
        {
          "indexed": false,
          "internalType": "address",
          "name": "token",
          "type": "address"
        },
        {
          "indexed": false,
          "internalType": "uint256",
          "name": "amount",
          "type": "uint256"
        }
      ],
      "name": "DecreaseGuaranteedUsd",
      "type": "event"
    },
    {
      "anonymous": false,
      "inputs": [
        {
          "indexed": false,
          "internalType": "address",
          "name": "token",
          "type": "address"
        },
        {
          "indexed": false,
          "internalType": "uint256",
          "name": "amount",
          "type": "uint256"
        }
      ],
      "name": "DecreasePoolAmount",
      "type": "event"
    },
    {
      "anonymous": false,
      "inputs": [
        {
          "indexed": false,
          "internalType": "bytes32",
          "name": "key",
          "type": "bytes32"
        },
        {
          "indexed": false,
          "internalType": "address",
          "name": "account",
          "type": "address"
        },
        {
          "indexed": false,
          "internalType": "address",
          "name": "collateralToken",
          "type": "address"
        },
        {
          "indexed": false,
          "internalType": "address",
          "name": "indexToken",
          "type": "address"
        },
        {
          "indexed": false,
          "internalType": "uint256",
          "name": "collateralDelta",
          "type": "uint256"
        },
        {
          "indexed": false,
          "internalType": "uint256",
          "name": "sizeDelta",
          "type": "uint256"
        },
        {
          "indexed": false,
          "internalType": "bool",
          "name": "isLong",
          "type": "bool"
        },
        {
          "indexed": false,
          "internalType": "uint256",
          "name": "price",
          "type": "uint256"
        },
        {
          "indexed": false,
          "internalType": "uint256",
          "name": "fee",
          "type": "uint256"
        }
      ],
      "name": "DecreasePosition",
      "type": "event"
    },
    {
      "anonymous": false,
      "inputs": [
        {
          "indexed": false,
          "internalType": "address",
          "name": "token",
          "type": "address"
        },
        {
          "indexed": false,
          "internalType": "uint256",
          "name": "amount",
          "type": "uint256"
        }
      ],
      "name": "DecreaseReservedAmount",
      "type": "event"
    },
    {
      "anonymous": false,
      "inputs": [
        {
          "indexed": false,
          "internalType": "address",
          "name": "token",
          "type": "address"
        },
        {
          "indexed": false,
          "internalType": "uint256",
          "name": "amount",
          "type": "uint256"
        }
      ],
      "name": "DecreaseUsdphAmount",
      "type": "event"
    },
    {
      "anonymous": false,
      "inputs": [
        {
          "indexed": false,
          "internalType": "address",
          "name": "token",
          "type": "address"
        },
        {
          "indexed": false,
          "internalType": "uint256",
          "name": "amount",
          "type": "uint256"
        }
      ],
      "name": "DirectPoolDeposit",
      "type": "event"
    },
    {
      "anonymous": false,
      "inputs": [
        {
          "indexed": false,
          "internalType": "address",
          "name": "token",
          "type": "address"
        },
        {
          "indexed": false,
          "internalType": "uint256",
          "name": "amount",
          "type": "uint256"
        }
      ],
      "name": "IncreaseGuaranteedUsd",
      "type": "event"
    },
    {
      "anonymous": false,
      "inputs": [
        {
          "indexed": false,
          "internalType": "address",
          "name": "token",
          "type": "address"
        },
        {
          "indexed": false,
          "internalType": "uint256",
          "name": "amount",
          "type": "uint256"
        }
      ],
      "name": "IncreasePoolAmount",
      "type": "event"
    },
    {
      "anonymous": false,
      "inputs": [
        {
          "indexed": false,
          "internalType": "bytes32",
          "name": "key",
          "type": "bytes32"
        },
        {
          "indexed": false,
          "internalType": "address",
          "name": "account",
          "type": "address"
        },
        {
          "indexed": false,
          "internalType": "address",
          "name": "collateralToken",
          "type": "address"
        },
        {
          "indexed": false,
          "internalType": "address",
          "name": "indexToken",
          "type": "address"
        },
        {
          "indexed": false,
          "internalType": "uint256",
          "name": "collateralDelta",
          "type": "uint256"
        },
        {
          "indexed": false,
          "internalType": "uint256",
          "name": "sizeDelta",
          "type": "uint256"
        },
        {
          "indexed": false,
          "internalType": "bool",
          "name": "isLong",
          "type": "bool"
        },
        {
          "indexed": false,
          "internalType": "uint256",
          "name": "price",
          "type": "uint256"
        },
        {
          "indexed": false,
          "internalType": "uint256",
          "name": "fee",
          "type": "uint256"
        }
      ],
      "name": "IncreasePosition",
      "type": "event"
    },
    {
      "anonymous": false,
      "inputs": [
        {
          "indexed": false,
          "internalType": "address",
          "name": "token",
          "type": "address"
        },
        {
          "indexed": false,
          "internalType": "uint256",
          "name": "amount",
          "type": "uint256"
        }
      ],
      "name": "IncreaseReservedAmount",
      "type": "event"
    },
    {
      "anonymous": false,
      "inputs": [
        {
          "indexed": false,
          "internalType": "address",
          "name": "token",
          "type": "address"
        },
        {
          "indexed": false,
          "internalType": "uint256",
          "name": "amount",
          "type": "uint256"
        }
      ],
      "name": "IncreaseUsdphAmount",
      "type": "event"
    },
    {
      "anonymous": false,
      "inputs": [
        {
          "indexed": false,
          "internalType": "bytes32",
          "name": "key",
          "type": "bytes32"
        },
        {
          "indexed": false,
          "internalType": "address",
          "name": "account",
          "type": "address"
        },
        {
          "indexed": false,
          "internalType": "address",
          "name": "collateralToken",
          "type": "address"
        },
        {
          "indexed": false,
          "internalType": "address",
          "name": "indexToken",
          "type": "address"
        },
        {
          "indexed": false,
          "internalType": "bool",
          "name": "isLong",
          "type": "bool"
        },
        {
          "indexed": false,
          "internalType": "uint256",
          "name": "size",
          "type": "uint256"
        },
        {
          "indexed": false,
          "internalType": "uint256",
          "name": "collateral",
          "type": "uint256"
        },
        {
          "indexed": false,
          "internalType": "uint256",
          "name": "reserveAmount",
          "type": "uint256"
        },
        {
          "indexed": false,
          "internalType": "int256",
          "name": "realisedPnl",
          "type": "int256"
        },
        {
          "indexed": false,
          "internalType": "uint256",
          "name": "markPrice",
          "type": "uint256"
        }
      ],
      "name": "LiquidatePosition",
      "type": "event"
    },
    {
      "anonymous": false,
      "inputs": [
        {
          "indexed": true,
          "internalType": "address",
          "name": "newOwner",
          "type": "address"
        }
      ],
      "name": "OwnerAdded",
      "type": "event"
    },
    {
      "anonymous": false,
      "inputs": [
        {
          "indexed": true,
          "internalType": "address",
          "name": "previousOwner",
          "type": "address"
        }
      ],
      "name": "OwnerRemoved",
      "type": "event"
    },
    {
      "anonymous": false,
      "inputs": [
        {
          "indexed": false,
          "internalType": "address",
          "name": "account",
          "type": "address"
        },
        {
          "indexed": false,
          "internalType": "address",
          "name": "token",
          "type": "address"
        },
        {
          "indexed": false,
          "internalType": "uint256",
          "name": "usdphAmount",
          "type": "uint256"
        },
        {
          "indexed": false,
          "internalType": "uint256",
          "name": "tokenAmount",
          "type": "uint256"
        },
        {
          "indexed": false,
          "internalType": "uint256",
          "name": "feeBps",
          "type": "uint256"
        }
      ],
      "name": "SellUSDPH",
      "type": "event"
    },
    {
      "anonymous": false,
      "inputs": [
        {
          "indexed": false,
          "internalType": "address",
          "name": "account",
          "type": "address"
        },
        {
          "indexed": false,
          "internalType": "address",
          "name": "tokenIn",
          "type": "address"
        },
        {
          "indexed": false,
          "internalType": "address",
          "name": "tokenOut",
          "type": "address"
        },
        {
          "indexed": false,
          "internalType": "uint256",
          "name": "amountIn",
          "type": "uint256"
        },
        {
          "indexed": false,
          "internalType": "uint256",
          "name": "amountOut",
          "type": "uint256"
        },
        {
          "indexed": false,
          "internalType": "uint256",
          "name": "amountOutAfterFees",
          "type": "uint256"
        },
        {
          "indexed": false,
          "internalType": "uint256",
          "name": "feeBps",
          "type": "uint256"
        }
      ],
      "name": "Swap",
      "type": "event"
    },
    {
      "anonymous": false,
      "inputs": [
        {
          "indexed": false,
          "internalType": "address",
          "name": "token",
          "type": "address"
        },
        {
          "indexed": false,
          "internalType": "uint256",
          "name": "fundingRate",
          "type": "uint256"
        }
      ],
      "name": "UpdateFundingRate",
      "type": "event"
    },
    {
      "anonymous": false,
      "inputs": [
        {
          "indexed": false,
          "internalType": "bytes32",
          "name": "key",
          "type": "bytes32"
        },
        {
          "indexed": false,
          "internalType": "bool",
          "name": "hasProfit",
          "type": "bool"
        },
        {
          "indexed": false,
          "internalType": "uint256",
          "name": "delta",
          "type": "uint256"
        }
      ],
      "name": "UpdatePnl",
      "type": "event"
    },
    {
      "anonymous": false,
      "inputs": [
        {
          "indexed": false,
          "internalType": "bytes32",
          "name": "key",
          "type": "bytes32"
        },
        {
          "indexed": false,
          "internalType": "uint256",
          "name": "size",
          "type": "uint256"
        },
        {
          "indexed": false,
          "internalType": "uint256",
          "name": "collateral",
          "type": "uint256"
        },
        {
          "indexed": false,
          "internalType": "uint256",
          "name": "averagePrice",
          "type": "uint256"
        },
        {
          "indexed": false,
          "internalType": "uint256",
          "name": "entryFundingRate",
          "type": "uint256"
        },
        {
          "indexed": false,
          "internalType": "uint256",
          "name": "reserveAmount",
          "type": "uint256"
        },
        {
          "indexed": false,
          "internalType": "int256",
          "name": "realisedPnl",
          "type": "int256"
        },
        {
          "indexed": false,
          "internalType": "uint256",
          "name": "markPrice",
          "type": "uint256"
        }
      ],
      "name": "UpdatePosition",
      "type": "event"
    },
    {
      "inputs": [],
      "name": "BASIS_POINTS_DIVISOR",
      "outputs": [
        {
          "internalType": "uint256",
          "name": "",
          "type": "uint256"
        }
      ],
      "stateMutability": "view",
      "type": "function"
    },
    {
      "inputs": [],
      "name": "FUNDING_RATE_PRECISION",
      "outputs": [
        {
          "internalType": "uint256",
          "name": "",
          "type": "uint256"
        }
      ],
      "stateMutability": "view",
      "type": "function"
    },
    {
      "inputs": [],
      "name": "MAX_FEE_BASIS_POINTS",
      "outputs": [
        {
          "internalType": "uint256",
          "name": "",
          "type": "uint256"
        }
      ],
      "stateMutability": "view",
      "type": "function"
    },
    {
      "inputs": [],
      "name": "MAX_FUNDING_RATE_FACTOR",
      "outputs": [
        {
          "internalType": "uint256",
          "name": "",
          "type": "uint256"
        }
      ],
      "stateMutability": "view",
      "type": "function"
    },
    {
      "inputs": [],
      "name": "MAX_LIQUIDATION_FEE_USD",
      "outputs": [
        {
          "internalType": "uint256",
          "name": "",
          "type": "uint256"
        }
      ],
      "stateMutability": "view",
      "type": "function"
    },
    {
      "inputs": [],
      "name": "MAX_STAKING_BASIS_POINTS",
      "outputs": [
        {
          "internalType": "uint256",
          "name": "",
          "type": "uint256"
        }
      ],
      "stateMutability": "view",
      "type": "function"
    },
    {
      "inputs": [],
      "name": "MIN_FUNDING_RATE_INTERVAL",
      "outputs": [
        {
          "internalType": "uint256",
          "name": "",
          "type": "uint256"
        }
      ],
      "stateMutability": "view",
      "type": "function"
    },
    {
      "inputs": [],
      "name": "MIN_LEVERAGE",
      "outputs": [
        {
          "internalType": "uint256",
          "name": "",
          "type": "uint256"
        }
      ],
      "stateMutability": "view",
      "type": "function"
    },
    {
      "inputs": [],
      "name": "PRICE_PRECISION",
      "outputs": [
        {
          "internalType": "uint256",
          "name": "",
          "type": "uint256"
        }
      ],
      "stateMutability": "view",
      "type": "function"
    },
    {
      "inputs": [],
      "name": "USDPH_DECIMALS",
      "outputs": [
        {
          "internalType": "uint256",
          "name": "",
          "type": "uint256"
        }
      ],
      "stateMutability": "view",
      "type": "function"
    },
    {
      "inputs": [
        {
          "internalType": "address",
          "name": "newOwner",
          "type": "address"
        }
      ],
      "name": "addOwner",
      "outputs": [],
      "stateMutability": "nonpayable",
      "type": "function"
    },
    {
      "inputs": [
        {
          "internalType": "uint256",
          "name": "_amount",
          "type": "uint256"
        },
        {
          "internalType": "address",
          "name": "_tokenDiv",
          "type": "address"
        },
        {
          "internalType": "address",
          "name": "_tokenMul",
          "type": "address"
        }
      ],
      "name": "adjustForDecimals",
      "outputs": [
        {
          "internalType": "uint256",
          "name": "",
          "type": "uint256"
        }
      ],
      "stateMutability": "view",
      "type": "function"
    },
    {
      "inputs": [
        {
          "internalType": "uint256",
          "name": "",
          "type": "uint256"
        }
      ],
      "name": "allWhitelistedTokens",
      "outputs": [
        {
          "internalType": "address",
          "name": "",
          "type": "address"
        }
      ],
      "stateMutability": "view",
      "type": "function"
    },
    {
      "inputs": [],
      "name": "allWhitelistedTokensLength",
      "outputs": [
        {
          "internalType": "uint256",
          "name": "",
          "type": "uint256"
        }
      ],
      "stateMutability": "view",
      "type": "function"
    },
    {
      "inputs": [
        {
          "internalType": "address",
          "name": "",
          "type": "address"
        }
      ],
      "name": "bufferAmounts",
      "outputs": [
        {
          "internalType": "uint256",
          "name": "",
          "type": "uint256"
        }
      ],
      "stateMutability": "view",
      "type": "function"
    },
    {
      "inputs": [
        {
          "internalType": "address",
          "name": "_token",
          "type": "address"
        },
        {
          "internalType": "address",
          "name": "_receiver",
          "type": "address"
        }
      ],
      "name": "buyUSDPH",
      "outputs": [
        {
          "internalType": "uint256",
          "name": "",
          "type": "uint256"
        }
      ],
      "stateMutability": "nonpayable",
      "type": "function"
    },
    {
      "inputs": [
        {
          "internalType": "address",
          "name": "_token",
          "type": "address"
        }
      ],
      "name": "clearTokenConfig",
      "outputs": [],
      "stateMutability": "nonpayable",
      "type": "function"
    },
    {
      "inputs": [
        {
          "internalType": "address",
          "name": "",
          "type": "address"
        }
      ],
      "name": "cumulativeFundingRates",
      "outputs": [
        {
          "internalType": "uint256",
          "name": "",
          "type": "uint256"
        }
      ],
      "stateMutability": "view",
      "type": "function"
    },
    {
      "inputs": [
        {
          "internalType": "address",
          "name": "_account",
          "type": "address"
        },
        {
          "internalType": "address",
          "name": "_collateralToken",
          "type": "address"
        },
        {
          "internalType": "address",
          "name": "_indexToken",
          "type": "address"
        },
        {
          "internalType": "uint256",
          "name": "_collateralDelta",
          "type": "uint256"
        },
        {
          "internalType": "uint256",
          "name": "_sizeDelta",
          "type": "uint256"
        },
        {
          "internalType": "bool",
          "name": "_isLong",
          "type": "bool"
        },
        {
          "internalType": "address",
          "name": "_receiver",
          "type": "address"
        }
      ],
      "name": "decreasePosition",
      "outputs": [
        {
          "internalType": "uint256",
          "name": "",
          "type": "uint256"
        }
      ],
      "stateMutability": "nonpayable",
      "type": "function"
    },
    {
      "inputs": [
        {
          "internalType": "address",
          "name": "_token",
          "type": "address"
        }
      ],
      "name": "directPoolDeposit",
      "outputs": [],
      "stateMutability": "nonpayable",
      "type": "function"
    },
    {
      "inputs": [
        {
          "internalType": "uint256",
          "name": "",
          "type": "uint256"
        }
      ],
      "name": "errors",
      "outputs": [
        {
          "internalType": "string",
          "name": "",
          "type": "string"
        }
      ],
      "stateMutability": "view",
      "type": "function"
    },
    {
      "inputs": [
        {
          "internalType": "address",
          "name": "",
          "type": "address"
        }
      ],
      "name": "feeReserves",
      "outputs": [
        {
          "internalType": "uint256",
          "name": "",
          "type": "uint256"
        }
      ],
      "stateMutability": "view",
      "type": "function"
    },
    {
      "inputs": [],
      "name": "fundingInterval",
      "outputs": [
        {
          "internalType": "uint256",
          "name": "",
          "type": "uint256"
        }
      ],
      "stateMutability": "view",
      "type": "function"
    },
    {
      "inputs": [],
      "name": "fundingRateFactor",
      "outputs": [
        {
          "internalType": "uint256",
          "name": "",
          "type": "uint256"
        }
      ],
      "stateMutability": "view",
      "type": "function"
    },
    {
      "inputs": [
        {
          "internalType": "address",
          "name": "_indexToken",
          "type": "address"
        },
        {
          "internalType": "uint256",
          "name": "_size",
          "type": "uint256"
        },
        {
          "internalType": "uint256",
          "name": "_averagePrice",
          "type": "uint256"
        },
        {
          "internalType": "bool",
          "name": "_isLong",
          "type": "bool"
        },
        {
          "internalType": "uint256",
          "name": "_lastIncreasedTime",
          "type": "uint256"
        }
      ],
      "name": "getDelta",
      "outputs": [
        {
          "internalType": "bool",
          "name": "",
          "type": "bool"
        },
        {
          "internalType": "uint256",
          "name": "",
          "type": "uint256"
        }
      ],
      "stateMutability": "view",
      "type": "function"
    },
    {
      "inputs": [
        {
          "internalType": "address",
          "name": "_collateralToken",
          "type": "address"
        },
        {
          "internalType": "address",
          "name": "_indexToken",
          "type": "address"
        },
        {
          "internalType": "bool",
          "name": "_isLong",
          "type": "bool"
        }
      ],
      "name": "getEntryFundingRate",
      "outputs": [
        {
          "internalType": "uint256",
          "name": "",
          "type": "uint256"
        }
      ],
      "stateMutability": "view",
      "type": "function"
    },
    {
      "inputs": [
        {
          "internalType": "address",
          "name": "_token",
          "type": "address"
        },
        {
          "internalType": "uint256",
          "name": "_usdphDelta",
          "type": "uint256"
        },
        {
          "internalType": "uint256",
          "name": "_feeBps",
          "type": "uint256"
        },
        {
          "internalType": "uint256",
          "name": "_taxBps",
          "type": "uint256"
        },
        {
          "internalType": "bool",
          "name": "_increment",
          "type": "bool"
        }
      ],
      "name": "getFeeBps",
      "outputs": [
        {
          "internalType": "uint256",
          "name": "",
          "type": "uint256"
        }
      ],
      "stateMutability": "view",
      "type": "function"
    },
    {
      "inputs": [
        {
          "internalType": "address",
          "name": "_account",
          "type": "address"
        },
        {
          "internalType": "address",
          "name": "_collateralToken",
          "type": "address"
        },
        {
          "internalType": "address",
          "name": "_indexToken",
          "type": "address"
        },
        {
          "internalType": "bool",
          "name": "_isLong",
          "type": "bool"
        },
        {
          "internalType": "uint256",
          "name": "_size",
          "type": "uint256"
        },
        {
          "internalType": "uint256",
          "name": "_entryFundingRate",
          "type": "uint256"
        }
      ],
      "name": "getFundingFee",
      "outputs": [
        {
          "internalType": "uint256",
          "name": "",
          "type": "uint256"
        }
      ],
      "stateMutability": "view",
      "type": "function"
    },
    {
      "inputs": [
        {
          "internalType": "address",
          "name": "_token",
          "type": "address"
        }
      ],
      "name": "getGlobalShortDelta",
      "outputs": [
        {
          "internalType": "bool",
          "name": "",
          "type": "bool"
        },
        {
          "internalType": "uint256",
          "name": "",
          "type": "uint256"
        }
      ],
      "stateMutability": "view",
      "type": "function"
    },
    {
      "inputs": [
        {
          "internalType": "address",
          "name": "_token",
          "type": "address"
        }
      ],
      "name": "getMaxPrice",
      "outputs": [
        {
          "internalType": "uint256",
          "name": "",
          "type": "uint256"
        }
      ],
      "stateMutability": "view",
      "type": "function"
    },
    {
      "inputs": [
        {
          "internalType": "address",
          "name": "_token",
          "type": "address"
        }
      ],
      "name": "getMinPrice",
      "outputs": [
        {
          "internalType": "uint256",
          "name": "",
          "type": "uint256"
        }
      ],
      "stateMutability": "view",
      "type": "function"
    },
    {
      "inputs": [
        {
          "internalType": "address",
          "name": "_indexToken",
          "type": "address"
        },
        {
          "internalType": "uint256",
          "name": "_size",
          "type": "uint256"
        },
        {
          "internalType": "uint256",
          "name": "_averagePrice",
          "type": "uint256"
        },
        {
          "internalType": "bool",
          "name": "_isLong",
          "type": "bool"
        },
        {
          "internalType": "uint256",
          "name": "_nextPrice",
          "type": "uint256"
        },
        {
          "internalType": "uint256",
          "name": "_sizeDelta",
          "type": "uint256"
        },
        {
          "internalType": "uint256",
          "name": "_lastIncreasedTime",
          "type": "uint256"
        }
      ],
      "name": "getNextAveragePrice",
      "outputs": [
        {
          "internalType": "uint256",
          "name": "",
          "type": "uint256"
        }
      ],
      "stateMutability": "view",
      "type": "function"
    },
    {
      "inputs": [
        {
          "internalType": "address",
          "name": "_token",
          "type": "address"
        }
      ],
      "name": "getNextFundingRate",
      "outputs": [
        {
          "internalType": "uint256",
          "name": "",
          "type": "uint256"
        }
      ],
      "stateMutability": "view",
      "type": "function"
    },
    {
      "inputs": [
        {
          "internalType": "address",
          "name": "_indexToken",
          "type": "address"
        },
        {
          "internalType": "uint256",
          "name": "_nextPrice",
          "type": "uint256"
        },
        {
          "internalType": "uint256",
          "name": "_sizeDelta",
          "type": "uint256"
        }
      ],
      "name": "getNextGlobalShortAveragePrice",
      "outputs": [
        {
          "internalType": "uint256",
          "name": "",
          "type": "uint256"
        }
      ],
      "stateMutability": "view",
      "type": "function"
    },
    {
      "inputs": [
        {
          "internalType": "address",
          "name": "_account",
          "type": "address"
        },
        {
          "internalType": "address",
          "name": "_collateralToken",
          "type": "address"
        },
        {
          "internalType": "address",
          "name": "_indexToken",
          "type": "address"
        },
        {
          "internalType": "bool",
          "name": "_isLong",
          "type": "bool"
        }
      ],
      "name": "getPosition",
      "outputs": [
        {
          "internalType": "uint256",
          "name": "",
          "type": "uint256"
        },
        {
          "internalType": "uint256",
          "name": "",
          "type": "uint256"
        },
        {
          "internalType": "uint256",
          "name": "",
          "type": "uint256"
        },
        {
          "internalType": "uint256",
          "name": "",
          "type": "uint256"
        },
        {
          "internalType": "uint256",
          "name": "",
          "type": "uint256"
        },
        {
          "internalType": "uint256",
          "name": "",
          "type": "uint256"
        },
        {
          "internalType": "bool",
          "name": "",
          "type": "bool"
        },
        {
          "internalType": "uint256",
          "name": "",
          "type": "uint256"
        }
      ],
      "stateMutability": "view",
      "type": "function"
    },
    {
      "inputs": [
        {
          "internalType": "address",
          "name": "_account",
          "type": "address"
        },
        {
          "internalType": "address",
          "name": "_collateralToken",
          "type": "address"
        },
        {
          "internalType": "address",
          "name": "_indexToken",
          "type": "address"
        },
        {
          "internalType": "bool",
          "name": "_isLong",
          "type": "bool"
        }
      ],
      "name": "getPositionDelta",
      "outputs": [
        {
          "internalType": "bool",
          "name": "",
          "type": "bool"
        },
        {
          "internalType": "uint256",
          "name": "",
          "type": "uint256"
        }
      ],
      "stateMutability": "view",
      "type": "function"
    },
    {
      "inputs": [
        {
          "internalType": "address",
          "name": "_account",
          "type": "address"
        },
        {
          "internalType": "address",
          "name": "_collateralToken",
          "type": "address"
        },
        {
          "internalType": "address",
          "name": "_indexToken",
          "type": "address"
        },
        {
          "internalType": "bool",
          "name": "_isLong",
          "type": "bool"
        },
        {
          "internalType": "uint256",
          "name": "_sizeDelta",
          "type": "uint256"
        }
      ],
      "name": "getPositionFee",
      "outputs": [
        {
          "internalType": "uint256",
          "name": "",
          "type": "uint256"
        }
      ],
      "stateMutability": "view",
      "type": "function"
    },
    {
      "inputs": [
        {
          "internalType": "address",
          "name": "_account",
          "type": "address"
        },
        {
          "internalType": "address",
          "name": "_collateralToken",
          "type": "address"
        },
        {
          "internalType": "address",
          "name": "_indexToken",
          "type": "address"
        },
        {
          "internalType": "bool",
          "name": "_isLong",
          "type": "bool"
        }
      ],
      "name": "getPositionKey",
      "outputs": [
        {
          "internalType": "bytes32",
          "name": "",
          "type": "bytes32"
        }
      ],
      "stateMutability": "pure",
      "type": "function"
    },
    {
      "inputs": [
        {
          "internalType": "address",
          "name": "_account",
          "type": "address"
        },
        {
          "internalType": "address",
          "name": "_collateralToken",
          "type": "address"
        },
        {
          "internalType": "address",
          "name": "_indexToken",
          "type": "address"
        },
        {
          "internalType": "bool",
          "name": "_isLong",
          "type": "bool"
        }
      ],
      "name": "getPositionLeverage",
      "outputs": [
        {
          "internalType": "uint256",
          "name": "",
          "type": "uint256"
        }
      ],
      "stateMutability": "view",
      "type": "function"
    },
    {
      "inputs": [
        {
          "internalType": "address",
          "name": "_token",
          "type": "address"
        },
        {
          "internalType": "uint256",
          "name": "_usdphAmount",
          "type": "uint256"
        }
      ],
      "name": "getRedemptionAmount",
      "outputs": [
        {
          "internalType": "uint256",
          "name": "",
          "type": "uint256"
        }
      ],
      "stateMutability": "view",
      "type": "function"
    },
    {
      "inputs": [
        {
          "internalType": "address",
          "name": "_token",
          "type": "address"
        }
      ],
      "name": "getRedemptionCollateral",
      "outputs": [
        {
          "internalType": "uint256",
          "name": "",
          "type": "uint256"
        }
      ],
      "stateMutability": "view",
      "type": "function"
    },
    {
      "inputs": [
        {
          "internalType": "address",
          "name": "_token",
          "type": "address"
        }
      ],
      "name": "getRedemptionCollateralUsd",
      "outputs": [
        {
          "internalType": "uint256",
          "name": "",
          "type": "uint256"
        }
      ],
      "stateMutability": "view",
      "type": "function"
    },
    {
      "inputs": [
        {
          "internalType": "address",
          "name": "_token",
          "type": "address"
        }
      ],
      "name": "getTargetUsdphAmount",
      "outputs": [
        {
          "internalType": "uint256",
          "name": "",
          "type": "uint256"
        }
      ],
      "stateMutability": "view",
      "type": "function"
    },
    {
      "inputs": [
        {
          "internalType": "address",
          "name": "_token",
          "type": "address"
        }
      ],
      "name": "getUtilisation",
      "outputs": [
        {
          "internalType": "uint256",
          "name": "",
          "type": "uint256"
        }
      ],
      "stateMutability": "view",
      "type": "function"
    },
    {
      "inputs": [
        {
          "internalType": "address",
          "name": "",
          "type": "address"
        }
      ],
      "name": "globalShortAveragePrices",
      "outputs": [
        {
          "internalType": "uint256",
          "name": "",
          "type": "uint256"
        }
      ],
      "stateMutability": "view",
      "type": "function"
    },
    {
      "inputs": [
        {
          "internalType": "address",
          "name": "",
          "type": "address"
        }
      ],
      "name": "globalShortSizes",
      "outputs": [
        {
          "internalType": "uint256",
          "name": "",
          "type": "uint256"
        }
      ],
      "stateMutability": "view",
      "type": "function"
    },
    {
      "inputs": [
        {
          "internalType": "address",
          "name": "",
          "type": "address"
        }
      ],
      "name": "guaranteedUsd",
      "outputs": [
        {
          "internalType": "uint256",
          "name": "",
          "type": "uint256"
        }
      ],
      "stateMutability": "view",
      "type": "function"
    },
    {
      "inputs": [],
      "name": "hasDynamicFees",
      "outputs": [
        {
          "internalType": "bool",
          "name": "",
          "type": "bool"
        }
      ],
      "stateMutability": "view",
      "type": "function"
    },
    {
      "inputs": [
        {
          "internalType": "address",
          "name": "_account",
          "type": "address"
        },
        {
          "internalType": "address",
          "name": "_collateralToken",
          "type": "address"
        },
        {
          "internalType": "address",
          "name": "_indexToken",
          "type": "address"
        },
        {
          "internalType": "uint256",
          "name": "_sizeDelta",
          "type": "uint256"
        },
        {
          "internalType": "bool",
          "name": "_isLong",
          "type": "bool"
        }
      ],
      "name": "increasePosition",
      "outputs": [],
      "stateMutability": "nonpayable",
      "type": "function"
    },
    {
      "inputs": [
        {
          "internalType": "address",
          "name": "_phlpManager",
          "type": "address"
        },
        {
          "internalType": "address",
          "name": "_router",
          "type": "address"
        },
        {
          "internalType": "address",
          "name": "_usdph",
          "type": "address"
        },
        {
          "internalType": "address",
          "name": "_priceOracle",
          "type": "address"
        },
        {
          "internalType": "uint256",
          "name": "_liquidationFeeUsd",
          "type": "uint256"
        },
        {
          "internalType": "uint256",
          "name": "_fundingRateFactor",
          "type": "uint256"
        },
        {
          "internalType": "uint256",
          "name": "_stableFundingRateFactor",
          "type": "uint256"
        }
      ],
      "name": "initialize",
      "outputs": [],
      "stateMutability": "nonpayable",
      "type": "function"
    },
    {
      "inputs": [],
      "name": "isInitialized",
      "outputs": [
        {
          "internalType": "bool",
          "name": "",
          "type": "bool"
        }
      ],
      "stateMutability": "view",
      "type": "function"
    },
    {
      "inputs": [],
      "name": "isLeverageEnabled",
      "outputs": [
        {
          "internalType": "bool",
          "name": "",
          "type": "bool"
        }
      ],
      "stateMutability": "view",
      "type": "function"
    },
    {
      "inputs": [
        {
          "internalType": "address",
          "name": "",
          "type": "address"
        }
      ],
      "name": "isLiquidator",
      "outputs": [
        {
          "internalType": "bool",
          "name": "",
          "type": "bool"
        }
      ],
      "stateMutability": "view",
      "type": "function"
    },
    {
      "inputs": [],
      "name": "isSwapEnabled",
      "outputs": [
        {
          "internalType": "bool",
          "name": "",
          "type": "bool"
        }
      ],
      "stateMutability": "view",
      "type": "function"
    },
    {
      "inputs": [
        {
          "internalType": "address",
          "name": "",
          "type": "address"
        }
      ],
      "name": "lastFundingTimes",
      "outputs": [
        {
          "internalType": "uint256",
          "name": "",
          "type": "uint256"
        }
      ],
      "stateMutability": "view",
      "type": "function"
    },
    {
      "inputs": [
        {
          "internalType": "address",
          "name": "_account",
          "type": "address"
        },
        {
          "internalType": "address",
          "name": "_collateralToken",
          "type": "address"
        },
        {
          "internalType": "address",
          "name": "_indexToken",
          "type": "address"
        },
        {
          "internalType": "bool",
          "name": "_isLong",
          "type": "bool"
        },
        {
          "internalType": "address",
          "name": "_feeReceiver",
          "type": "address"
        }
      ],
      "name": "liquidatePosition",
      "outputs": [],
      "stateMutability": "nonpayable",
      "type": "function"
    },
    {
      "inputs": [],
      "name": "liquidationFeeUsd",
      "outputs": [
        {
          "internalType": "uint256",
          "name": "",
          "type": "uint256"
        }
      ],
      "stateMutability": "view",
      "type": "function"
    },
    {
      "inputs": [],
      "name": "marginFeeBps",
      "outputs": [
        {
          "internalType": "uint256",
          "name": "",
          "type": "uint256"
        }
      ],
      "stateMutability": "view",
      "type": "function"
    },
    {
      "inputs": [],
      "name": "maxGasPrice",
      "outputs": [
        {
          "internalType": "uint256",
          "name": "",
          "type": "uint256"
        }
      ],
      "stateMutability": "view",
      "type": "function"
    },
    {
      "inputs": [
        {
          "internalType": "address",
          "name": "",
          "type": "address"
        }
      ],
      "name": "maxGlobalShortSizes",
      "outputs": [
        {
          "internalType": "uint256",
          "name": "",
          "type": "uint256"
        }
      ],
      "stateMutability": "view",
      "type": "function"
    },
    {
      "inputs": [],
      "name": "maxLeverage",
      "outputs": [
        {
          "internalType": "uint256",
          "name": "",
          "type": "uint256"
        }
      ],
      "stateMutability": "view",
      "type": "function"
    },
    {
      "inputs": [],
      "name": "maxMarginFeeBps",
      "outputs": [
        {
          "internalType": "uint256",
          "name": "",
          "type": "uint256"
        }
      ],
      "stateMutability": "view",
      "type": "function"
    },
    {
      "inputs": [
        {
          "internalType": "address",
          "name": "",
          "type": "address"
        }
      ],
      "name": "maxUsdphAmounts",
      "outputs": [
        {
          "internalType": "uint256",
          "name": "",
          "type": "uint256"
        }
      ],
      "stateMutability": "view",
      "type": "function"
    },
    {
      "inputs": [
        {
          "internalType": "address",
          "name": "",
          "type": "address"
        }
      ],
      "name": "minProfitBps",
      "outputs": [
        {
          "internalType": "uint256",
          "name": "",
          "type": "uint256"
        }
      ],
      "stateMutability": "view",
      "type": "function"
    },
    {
      "inputs": [],
      "name": "minProfitTime",
      "outputs": [
        {
          "internalType": "uint256",
          "name": "",
          "type": "uint256"
        }
      ],
      "stateMutability": "view",
      "type": "function"
    },
    {
      "inputs": [],
      "name": "mintBurnFeeBps",
      "outputs": [
        {
          "internalType": "uint256",
          "name": "",
          "type": "uint256"
        }
      ],
      "stateMutability": "view",
      "type": "function"
    },
    {
      "inputs": [],
      "name": "phlpManager",
      "outputs": [
        {
          "internalType": "address",
          "name": "",
          "type": "address"
        }
      ],
      "stateMutability": "view",
      "type": "function"
    },
    {
      "inputs": [
        {
          "internalType": "address",
          "name": "",
          "type": "address"
        }
      ],
      "name": "poolAmounts",
      "outputs": [
        {
          "internalType": "uint256",
          "name": "",
          "type": "uint256"
        }
      ],
      "stateMutability": "view",
      "type": "function"
    },
    {
      "inputs": [
        {
          "internalType": "bytes32",
          "name": "",
          "type": "bytes32"
        }
      ],
      "name": "positions",
      "outputs": [
        {
          "internalType": "uint256",
          "name": "size",
          "type": "uint256"
        },
        {
          "internalType": "uint256",
          "name": "collateral",
          "type": "uint256"
        },
        {
          "internalType": "uint256",
          "name": "averagePrice",
          "type": "uint256"
        },
        {
          "internalType": "uint256",
          "name": "entryFundingRate",
          "type": "uint256"
        },
        {
          "internalType": "uint256",
          "name": "reserveAmount",
          "type": "uint256"
        },
        {
          "internalType": "int256",
          "name": "realisedPnl",
          "type": "int256"
        },
        {
          "internalType": "uint256",
          "name": "lastIncreasedTime",
          "type": "uint256"
        }
      ],
      "stateMutability": "view",
      "type": "function"
    },
    {
      "inputs": [],
      "name": "priceOracle",
      "outputs": [
        {
          "internalType": "address",
          "name": "",
          "type": "address"
        }
      ],
      "stateMutability": "view",
      "type": "function"
    },
    {
      "inputs": [],
      "name": "renounceOwnership",
      "outputs": [],
      "stateMutability": "nonpayable",
      "type": "function"
    },
    {
      "inputs": [
        {
          "internalType": "address",
          "name": "",
          "type": "address"
        }
      ],
      "name": "reservedAmounts",
      "outputs": [
        {
          "internalType": "uint256",
          "name": "",
          "type": "uint256"
        }
      ],
      "stateMutability": "view",
      "type": "function"
    },
    {
      "inputs": [],
      "name": "router",
      "outputs": [
        {
          "internalType": "address",
          "name": "",
          "type": "address"
        }
      ],
      "stateMutability": "view",
      "type": "function"
    },
    {
      "inputs": [
        {
          "internalType": "address",
          "name": "_token",
          "type": "address"
        },
        {
          "internalType": "address",
          "name": "_receiver",
          "type": "address"
        }
      ],
      "name": "sellUSDPH",
      "outputs": [
        {
          "internalType": "uint256",
          "name": "",
          "type": "uint256"
        }
      ],
      "stateMutability": "nonpayable",
      "type": "function"
    },
    {
      "inputs": [
        {
          "internalType": "address",
          "name": "_token",
          "type": "address"
        },
        {
          "internalType": "uint256",
          "name": "_amount",
          "type": "uint256"
        }
      ],
      "name": "setBufferAmount",
      "outputs": [],
      "stateMutability": "nonpayable",
      "type": "function"
    },
    {
      "inputs": [
        {
          "internalType": "string[]",
          "name": "_errors",
          "type": "string[]"
        }
      ],
      "name": "setErrors",
      "outputs": [],
      "stateMutability": "nonpayable",
      "type": "function"
    },
    {
      "inputs": [
        {
          "internalType": "uint256",
          "name": "taxBps_",
          "type": "uint256"
        },
        {
          "internalType": "uint256",
          "name": "stableTaxBps_",
          "type": "uint256"
        },
        {
          "internalType": "uint256",
          "name": "mintBurnFeeBps_",
          "type": "uint256"
        },
        {
          "internalType": "uint256",
          "name": "swapFeeBps_",
          "type": "uint256"
        },
        {
          "internalType": "uint256",
          "name": "stableSwapFeeBps_",
          "type": "uint256"
        },
        {
          "internalType": "uint256",
          "name": "marginFeeBps_",
          "type": "uint256"
        },
        {
          "internalType": "uint256",
          "name": "maxMarginFeeBps_",
          "type": "uint256"
        },
        {
          "internalType": "uint256",
          "name": "liquidationFeeUsd_",
          "type": "uint256"
        },
        {
          "internalType": "uint256",
          "name": "minProfitTime_",
          "type": "uint256"
        },
        {
          "internalType": "bool",
          "name": "hasDynamicFees_",
          "type": "bool"
        }
      ],
      "name": "setFees",
      "outputs": [],
      "stateMutability": "nonpayable",
      "type": "function"
    },
    {
      "inputs": [
        {
          "internalType": "uint256",
          "name": "_fundingInterval",
          "type": "uint256"
        },
        {
          "internalType": "uint256",
          "name": "_fundingRateFactor",
          "type": "uint256"
        },
        {
          "internalType": "uint256",
          "name": "_stableFundingRateFactor",
          "type": "uint256"
        }
      ],
      "name": "setFundingRate",
      "outputs": [],
      "stateMutability": "nonpayable",
      "type": "function"
    },
    {
      "inputs": [
        {
          "internalType": "bool",
          "name": "_isLeverageEnabled",
          "type": "bool"
        }
      ],
      "name": "setIsLeverageEnabled",
      "outputs": [],
      "stateMutability": "nonpayable",
      "type": "function"
    },
    {
      "inputs": [
        {
          "internalType": "bool",
          "name": "_isSwapEnabled",
          "type": "bool"
        }
      ],
      "name": "setIsSwapEnabled",
      "outputs": [],
      "stateMutability": "nonpayable",
      "type": "function"
    },
    {
      "inputs": [
        {
          "internalType": "address",
          "name": "_liquidator",
          "type": "address"
        },
        {
          "internalType": "bool",
          "name": "_isActive",
          "type": "bool"
        }
      ],
      "name": "setLiquidator",
      "outputs": [],
      "stateMutability": "nonpayable",
      "type": "function"
    },
    {
      "inputs": [
        {
          "internalType": "uint256",
          "name": "_maxGasPrice",
          "type": "uint256"
        }
      ],
      "name": "setMaxGasPrice",
      "outputs": [],
      "stateMutability": "nonpayable",
      "type": "function"
    },
    {
      "inputs": [
        {
          "internalType": "address",
          "name": "_token",
          "type": "address"
        },
        {
          "internalType": "uint256",
          "name": "_amount",
          "type": "uint256"
        }
      ],
      "name": "setMaxGlobalShortSize",
      "outputs": [],
      "stateMutability": "nonpayable",
      "type": "function"
    },
    {
      "inputs": [
        {
          "internalType": "uint256",
          "name": "_maxLeverage",
          "type": "uint256"
        }
      ],
      "name": "setMaxLeverage",
      "outputs": [],
      "stateMutability": "nonpayable",
      "type": "function"
    },
    {
      "inputs": [
        {
          "internalType": "address",
          "name": "_priceOracle",
          "type": "address"
        }
      ],
      "name": "setPriceOracle",
      "outputs": [],
      "stateMutability": "nonpayable",
      "type": "function"
    },
    {
      "inputs": [
        {
          "internalType": "uint256",
          "name": "_stakingBps",
          "type": "uint256"
        }
      ],
      "name": "setStakingBps",
      "outputs": [],
      "stateMutability": "nonpayable",
      "type": "function"
    },
    {
      "inputs": [
        {
          "internalType": "address",
          "name": "_token",
          "type": "address"
        },
        {
          "internalType": "uint256",
          "name": "_tokenDecimals",
          "type": "uint256"
        },
        {
          "internalType": "uint256",
          "name": "_tokenWeight",
          "type": "uint256"
        },
        {
          "internalType": "uint256",
          "name": "_minProfitBps",
          "type": "uint256"
        },
        {
          "internalType": "uint256",
          "name": "_maxUsdphAmount",
          "type": "uint256"
        },
        {
          "internalType": "bool",
          "name": "_isStable",
          "type": "bool"
        },
        {
          "internalType": "bool",
          "name": "_isShortable",
          "type": "bool"
        }
      ],
      "name": "setTokenConfig",
      "outputs": [],
      "stateMutability": "nonpayable",
      "type": "function"
    },
    {
      "inputs": [
        {
          "internalType": "address",
          "name": "_token",
          "type": "address"
        },
        {
          "internalType": "uint256",
          "name": "_amount",
          "type": "uint256"
        }
      ],
      "name": "setUsdphAmount",
      "outputs": [],
      "stateMutability": "nonpayable",
      "type": "function"
    },
    {
      "inputs": [
        {
          "internalType": "address",
          "name": "",
          "type": "address"
        }
      ],
      "name": "shortableTokens",
      "outputs": [
        {
          "internalType": "bool",
          "name": "",
          "type": "bool"
        }
      ],
      "stateMutability": "view",
      "type": "function"
    },
    {
      "inputs": [],
      "name": "stableFundingRateFactor",
      "outputs": [
        {
          "internalType": "uint256",
          "name": "",
          "type": "uint256"
        }
      ],
      "stateMutability": "view",
      "type": "function"
    },
    {
      "inputs": [],
      "name": "stableSwapFeeBps",
      "outputs": [
        {
          "internalType": "uint256",
          "name": "",
          "type": "uint256"
        }
      ],
      "stateMutability": "view",
      "type": "function"
    },
    {
      "inputs": [],
      "name": "stableTaxBps",
      "outputs": [
        {
          "internalType": "uint256",
          "name": "",
          "type": "uint256"
        }
      ],
      "stateMutability": "view",
      "type": "function"
    },
    {
      "inputs": [
        {
          "internalType": "address",
          "name": "",
          "type": "address"
        }
      ],
      "name": "stableTokens",
      "outputs": [
        {
          "internalType": "bool",
          "name": "",
          "type": "bool"
        }
      ],
      "stateMutability": "view",
      "type": "function"
    },
    {
      "inputs": [],
      "name": "stakingBps",
      "outputs": [
        {
          "internalType": "uint256",
          "name": "",
          "type": "uint256"
        }
      ],
      "stateMutability": "view",
      "type": "function"
    },
    {
      "inputs": [
        {
          "internalType": "address",
          "name": "_tokenIn",
          "type": "address"
        },
        {
          "internalType": "address",
          "name": "_tokenOut",
          "type": "address"
        },
        {
          "internalType": "address",
          "name": "_receiver",
          "type": "address"
        }
      ],
      "name": "swap",
      "outputs": [
        {
          "internalType": "uint256",
          "name": "",
          "type": "uint256"
        }
      ],
      "stateMutability": "nonpayable",
      "type": "function"
    },
    {
      "inputs": [],
      "name": "swapFeeBps",
      "outputs": [
        {
          "internalType": "uint256",
          "name": "",
          "type": "uint256"
        }
      ],
      "stateMutability": "view",
      "type": "function"
    },
    {
      "inputs": [],
      "name": "taxBps",
      "outputs": [
        {
          "internalType": "uint256",
          "name": "",
          "type": "uint256"
        }
      ],
      "stateMutability": "view",
      "type": "function"
    },
    {
      "inputs": [
        {
          "internalType": "address",
          "name": "",
          "type": "address"
        }
      ],
      "name": "tokenBalances",
      "outputs": [
        {
          "internalType": "uint256",
          "name": "",
          "type": "uint256"
        }
      ],
      "stateMutability": "view",
      "type": "function"
    },
    {
      "inputs": [
        {
          "internalType": "address",
          "name": "",
          "type": "address"
        }
      ],
      "name": "tokenDecimals",
      "outputs": [
        {
          "internalType": "uint256",
          "name": "",
          "type": "uint256"
        }
      ],
      "stateMutability": "view",
      "type": "function"
    },
    {
      "inputs": [
        {
          "internalType": "address",
          "name": "_token",
          "type": "address"
        },
        {
          "internalType": "uint256",
          "name": "_tokenAmount",
          "type": "uint256"
        }
      ],
      "name": "tokenToUsdMin",
      "outputs": [
        {
          "internalType": "uint256",
          "name": "",
          "type": "uint256"
        }
      ],
      "stateMutability": "view",
      "type": "function"
    },
    {
      "inputs": [
        {
          "internalType": "address",
          "name": "",
          "type": "address"
        }
      ],
      "name": "tokenWeights",
      "outputs": [
        {
          "internalType": "uint256",
          "name": "",
          "type": "uint256"
        }
      ],
      "stateMutability": "view",
      "type": "function"
    },
    {
      "inputs": [],
      "name": "totalTokenWeights",
      "outputs": [
        {
          "internalType": "uint256",
          "name": "",
          "type": "uint256"
        }
      ],
      "stateMutability": "view",
      "type": "function"
    },
    {
      "inputs": [
        {
          "internalType": "address",
          "name": "_collateralToken",
          "type": "address"
        },
        {
          "internalType": "address",
          "name": "_indexToken",
          "type": "address"
        }
      ],
      "name": "updateCumulativeFundingRate",
      "outputs": [],
      "stateMutability": "nonpayable",
      "type": "function"
    },
    {
      "inputs": [
        {
          "internalType": "address",
          "name": "_token",
          "type": "address"
        },
        {
          "internalType": "uint256",
          "name": "_usdAmount",
          "type": "uint256"
        },
        {
          "internalType": "uint256",
          "name": "_price",
          "type": "uint256"
        }
      ],
      "name": "usdToToken",
      "outputs": [
        {
          "internalType": "uint256",
          "name": "",
          "type": "uint256"
        }
      ],
      "stateMutability": "view",
      "type": "function"
    },
    {
      "inputs": [
        {
          "internalType": "address",
          "name": "_token",
          "type": "address"
        },
        {
          "internalType": "uint256",
          "name": "_usdAmount",
          "type": "uint256"
        }
      ],
      "name": "usdToTokenMax",
      "outputs": [
        {
          "internalType": "uint256",
          "name": "",
          "type": "uint256"
        }
      ],
      "stateMutability": "view",
      "type": "function"
    },
    {
      "inputs": [
        {
          "internalType": "address",
          "name": "_token",
          "type": "address"
        },
        {
          "internalType": "uint256",
          "name": "_usdAmount",
          "type": "uint256"
        }
      ],
      "name": "usdToTokenMin",
      "outputs": [
        {
          "internalType": "uint256",
          "name": "",
          "type": "uint256"
        }
      ],
      "stateMutability": "view",
      "type": "function"
    },
    {
      "inputs": [],
      "name": "usdph",
      "outputs": [
        {
          "internalType": "address",
          "name": "",
          "type": "address"
        }
      ],
      "stateMutability": "view",
      "type": "function"
    },
    {
      "inputs": [
        {
          "internalType": "address",
          "name": "",
          "type": "address"
        }
      ],
      "name": "usdphAmounts",
      "outputs": [
        {
          "internalType": "uint256",
          "name": "",
          "type": "uint256"
        }
      ],
      "stateMutability": "view",
      "type": "function"
    },
    {
      "inputs": [
        {
          "internalType": "address",
          "name": "_account",
          "type": "address"
        },
        {
          "internalType": "address",
          "name": "_collateralToken",
          "type": "address"
        },
        {
          "internalType": "address",
          "name": "_indexToken",
          "type": "address"
        },
        {
          "internalType": "bool",
          "name": "_isLong",
          "type": "bool"
        },
        {
          "internalType": "bool",
          "name": "_raise",
          "type": "bool"
        }
      ],
      "name": "validateLiquidation",
      "outputs": [
        {
          "internalType": "uint256",
          "name": "",
          "type": "uint256"
        },
        {
          "internalType": "uint256",
          "name": "",
          "type": "uint256"
        }
      ],
      "stateMutability": "view",
      "type": "function"
    },
    {
      "inputs": [],
      "name": "whitelistedTokenCount",
      "outputs": [
        {
          "internalType": "uint256",
          "name": "",
          "type": "uint256"
        }
      ],
      "stateMutability": "view",
      "type": "function"
    },
    {
      "inputs": [
        {
          "internalType": "address",
          "name": "",
          "type": "address"
        }
      ],
      "name": "whitelistedTokens",
      "outputs": [
        {
          "internalType": "bool",
          "name": "",
          "type": "bool"
        }
      ],
      "stateMutability": "view",
      "type": "function"
    },
    {
      "inputs": [
        {
          "internalType": "address",
          "name": "_token",
          "type": "address"
        },
        {
          "internalType": "address",
          "name": "_receiver",
          "type": "address"
        }
      ],
      "name": "withdrawFees",
      "outputs": [
        {
          "internalType": "uint256",
          "name": "",
          "type": "uint256"
        }
      ],
      "stateMutability": "nonpayable",
      "type": "function"
    }
  ],
  "bytecode": "0x60806040526002805462ff00001961ff0019909116610100171690556207a12060075560326009556014600a818155601e600b819055600c556004600d556064600e819055600f91909155601055611b586011556013805460ff1916905561708090553480156200006f57600080fd5b5060006200007c620000d5565b6001600160a01b038116600081815260208190526040808220805460ff191660011790555192935090917f994a936646fe87ffe4f1e469d3d6aa417d6b855598397f323de5b449f765f0c39190a25060018055620000d9565b3390565b615fa180620000e96000396000f3fe608060405234801561001057600080fd5b50600436106106e05760003560e01c80637df0a5c711610387578063c66640fa116101de578063e2b5b6f71161010f578063f8703af8116100ad578063fbfded6d11610087578063fbfded6d14610dba578063fce28c1014610dcd578063fdaf6ac314610dd5578063fed1a60614610de8576106e0565b8063f8703af814610d97578063f887ea4014610d9f578063fa12dbc014610da7576106e0565b8063e77fc7a4116100e9578063e77fc7a414610d4b578063efa10a6e14610d5e578063f07456ce14610d71578063f255527814610d84576106e0565b8063e2b5b6f714610d1d578063e468baf014610d25578063e67f59a714610d38576106e0565b8063daf9c2101161017c578063dc8f5fac11610156578063dc8f5fac14610ce7578063de2ea94814610cef578063e124e6d214610d02578063e16314b514610d15576106e0565b8063daf9c21014610cae578063db3555fb14610cc1578063db97495f14610cd4576106e0565b8063d54d5a9f116101b8578063d54d5a9f14610c5f578063d8f897c314610c80578063d9ac422514610c93578063da76524c14610c9b576106e0565b8063c66640fa14610c31578063d2fa635e14610c39578063d3127e6314610c4c576106e0565b80639899cd02116102b8578063b136ca4911610256578063c25317d411610230578063c25317d414610bfb578063c3c7b9e914610c03578063c4f718bf14610c16578063c65bc7b114610c1e576106e0565b8063b136ca4914610bc2578063b1cc53ab14610bd5578063b364accb14610be8576106e0565b8063a42ab3d211610292578063a42ab3d214610b81578063a93acac214610b94578063ab2f3ad414610ba7578063ae3302c214610bba576106e0565b80639899cd0214610b535780639d7432ca14610b665780639f392eb314610b79576106e0565b80638a78daa81161032557806393316212116102ff5780639331621214610b1d57806395082d2514610b305780639698d25a14610b385780639849e41214610b4b576106e0565b80638a78daa814610aef5780638b22a56114610b025780638ee573ac14610b0a576106e0565b8063843d439911610361578063843d439914610ab65780638585f4d214610ac95780638a27d46814610adc5780638a39735a1461074e576106e0565b80637df0a5c71461074e57806381a612d614610a9057806382a0849014610aa3576106e0565b8063421528731161053b57806352f55eed1161046c57806362287a321161040a5780637065cb48116103e45780637065cb4814610a4f578063715018a614610a6257806379c36d9f14610a6a5780637c2eb9f714610a7d576106e0565b806362287a3214610a2c5780636274980314610a345780636be6026b14610a47576106e0565b80635bae4263116104465780635bae4263146109e05780635c07eaab146109f35780635da69ed714610a065780635f7bc11914610a19576106e0565b806352f55eed146109a7578063530e784f146109ba57806356f040b1146109cd576106e0565b80634a993ee9116104d9578063514ea4bf116104b3578063514ea4bf1461094857806351723e821461096e578063523fba7f14610981578063529a356f14610994576106e0565b80634a993ee91461091a5780634b8d6f3b1461092d5780634befe2ca14610940576106e0565b80634453a374116105155780634453a374146108ac57806345a6f370146108bf57806348d91abf146108e05780634a3f088d146108f3576106e0565b8063421528731461087357806342b60b031461088657806342e8518214610899576106e0565b80632630c12f1161061557806334c1557d116105b35780633c5a6e351161058d5780633c5a6e35146108485780633de39c111461085b5780633e72a262146108635780633eacd2f81461086b576106e0565b806334c1557d1461074e578063351a964d1461082b578063392e53cd14610840576106e0565b80632c668ec1116105ef5780632c668ec1146107ea5780632d4b0576146107fd5780632ffdaf891461081057806330455ede14610818576106e0565b80632630c12f146107bc57806329951c0f146107c457806329ff9615146107d7576106e0565b8063134ca63b116106825780631bcffcf81161065c5780631bcffcf81461077b5780631ce9cb8f14610783578063219403a51461079657806324138665146107a9576106e0565b8063134ca63b146107565780631352adce1461075e578063174d269414610773576106e0565b806307c58752116106be57806307c587521461072b5780630842b076146107335780630a48d5a91461073b578063126082cf1461074e576106e0565b806303563e67146106e557806304fef1db146107035780630754d4fb14610716575b600080fd5b6106ed610e08565b6040516106fa91906159e0565b60405180910390f35b6106ed61071136600461509d565b610e0d565b6107296107243660046154ca565b610e70565b005b6106ed610ecb565b6106ed610edd565b6106ed6107493660046154ca565b610ee3565b6106ed610f36565b6106ed610f3c565b610766610f42565b6040516106fa919061585d565b6106ed610f51565b6106ed610f57565b6106ed61079136600461509d565b610f5d565b6106ed6107a436600461509d565b610f6f565b6107296107b73660046156ff565b61103b565b610766611073565b6106ed6107d236600461509d565b611082565b6106ed6107e536600461509d565b611094565b6106ed6107f83660046154ca565b6110a3565b6106ed61080b366004615199565b6110e9565b6106ed611122565b6107296108263660046156c7565b611128565b61083361114a565b6040516106fa91906159c5565b610833611158565b6107296108563660046155e9565b611161565b6106ed6112a5565b6108336112ab565b6106ed6112ba565b6106ed61088136600461572f565b6112c0565b61083361089436600461509d565b611362565b6106ed6108a736600461509d565b611377565b6107296108ba366004615494565b611389565b6108d26108cd366004615199565b6113bc565b6040516106fa9291906159d0565b6107296108ee366004615382565b61144f565b610906610901366004615199565b61181f565b6040516106fa989796959493929190615e0a565b6106ed61092836600461509d565b611902565b61072961093b366004615658565b611914565b6106ed611967565b61095b6109563660046156ff565b61196d565b6040516106fa9796959493929190615aa1565b6106ed61097c366004615199565b6119aa565b6106ed61098f36600461509d565b611a49565b6108336109a236600461509d565b611a5a565b6106ed6109b536600461509d565b611a6f565b6107296109c836600461509d565b611a81565b6106ed6109db36600461509d565b611aab565b6106ed6109ee3660046150b7565b611abd565b6108d2610a01366004615525565b611d9e565b6106ed610a143660046150b7565b611e96565b610729610a2736600461509d565b61212e565b6106ed612206565b6106ed610a4236600461509d565b61220c565b6106ed61221e565b610729610a5d36600461509d565b612225565b610729612325565b610729610a783660046157a1565b6123f3565b610729610a8b3660046156c7565b6124b6565b6106ed610a9e36600461509d565b6124f8565b6106ed610ab13660046153d5565b61257c565b6106ed610ac43660046155a4565b6125f9565b610729610ad73660046154ca565b612697565b610729610aea366004615776565b6126bb565b6106ed610afd36600461509d565b612701565b610766612713565b6106ed610b1836600461509d565b612729565b6106ed610b2b3660046150e9565b61273b565b6106ed6129e0565b6106ed610b4636600461509d565b6129f1565b6106ed612a03565b6106ed610b613660046154ca565b612a09565b6106ed610b743660046154f3565b612a26565b610833612acf565b6106ed610b8f3660046154ca565b612ad8565b6106ed610ba236600461509d565b612af5565b6106ed610bb536600461509d565b612bf3565b6106ed612c05565b6106ed610bd036600461509d565b612c0b565b6106ed610be336600461544e565b612cac565b6108d2610bf636600461509d565b612d3c565b6106ed612dd4565b6106ed610c1136600461509d565b612dda565b6106ed612dec565b6106ed610c2c36600461509d565b612df2565b6106ed612e04565b610729610c473660046156ff565b612e0a565b610729610c5a3660046156ff565b612e17565b610c72610c6d366004615254565b612e33565b6040516106fa929190615dfc565b6106ed610c8e36600461509d565b612ed4565b6106ed612ee6565b6106ed610ca936600461531b565b612eec565b610833610cbc36600461509d565b612f82565b610833610ccf36600461509d565b612f97565b6106ed610ce2366004615563565b612fac565b6106ed61303d565b610729610cfd3660046151ee565b613043565b6106ed610d1036600461509d565b6133cc565b6106ed613401565b6106ed613407565b610766610d333660046156ff565b61340d565b610729610d4636600461509d565b613437565b610729610d5936600461512b565b61350c565b610729610d6c3660046154ca565b61359f565b6106ed610d7f36600461509d565b6135c3565b6106ed610d923660046150b7565b6135d5565b6106ed61362b565b610766613631565b6106ed610db53660046154f3565b613640565b610729610dc83660046150b7565b61367a565b6106ed613854565b6106ed610de33660046152be565b61385a565b610dfb610df63660046156ff565b61389e565b6040516106fa9190615c6d565b601281565b6001600160a01b03811660009081526024602052604081205480610e35576000915050610e6b565b6001600160a01b038316600090815260256020526040902054610e67908290610e6190620f4240613939565b90613992565b9150505b919050565b610e786139f9565b6001600160a01b03821660009081526022602052604090205480821115610eb257610eac83610ea78484613a5e565b613abb565b50610ec7565b610ec583610ec08385613a5e565b613b6e565b505b5050565b6d04ee2d6d415b85acef810000000081565b601a5490565b600081610ef257506000610f30565b6000610efd846124f8565b6001600160a01b0385166000908152601c6020526040902054909150610f2b600a82900a610e618685613939565b925050505b92915050565b61271081565b60165481565b6005546001600160a01b031681565b60085481565b600d5481565b602b6020526000908152604090205481565b600080600560009054906101000a90046001600160a01b03166001600160a01b03166318160ddd6040518163ffffffff1660e01b815260040160206040518083038186803b158015610fc057600080fd5b505afa158015610fd4573d6000803e3d6000fd5b505050506040513d601f19601f82011682018060405250810190610ff89190615717565b905080611009576000915050610e6b565b6001600160a01b03831660009081526021602052604090205460175461103390610e618385613939565b949350505050565b6110436139f9565b61271081111561106e5760405162461bcd60e51b815260040161106590615d81565b60405180910390fd5b601155565b6004546001600160a01b031681565b60236020526000908152604090205481565b6000610f308261074984612c0b565b6000806110af846133cc565b905060006110ce82610e61866c0c9f2c9cd04674edea40000000613939565b600554909150610f2b9082906001600160a01b0316876112c0565b600084848484604051602001611102949392919061581f565b604051602081830303815290604052805190602001209050949350505050565b600c5481565b6111306139f9565b600280549115156101000261ff0019909216919091179055565b600254610100900460ff1681565b60025460ff1681565b6111696139f9565b6001600160a01b0387166000908152601b602052604090205460ff166111e657600654611197906001613c41565b600655601a80546001810182556000919091527f057c384a7d1c54f3a1b2e5e67b2617b8224fdfd1ea7234eea573a6ff665ff63e0180546001600160a01b0319166001600160a01b0389161790555b6017546001600160a01b03881660009081526021602052604090205461120d908290613a5e565b6001600160a01b0389166000908152601b602090815260408083208054600160ff1991821617909155601c83528184208c9055602183528184208b9055601d83528184208a905560238352818420899055601e835281842080548216891515179055601f9092529091208054909116841515179055905061128e8187613c41565b60175561129a886133cc565b505050505050505050565b60185481565b60025462010000900460ff1681565b60095481565b60055460009081906001600160a01b038581169116146112f8576001600160a01b0384166000908152601c60205260409020546112fb565b60125b6005549091506000906001600160a01b03858116911614611334576001600160a01b0384166000908152601c6020526040902054611337565b60125b905061135682600a0a610e6183600a0a8961393990919063ffffffff16565b925050505b9392505050565b601e6020526000908152604090205460ff1681565b60226020526000908152604090205481565b6113916139f9565b6001600160a01b03919091166000908152601960205260409020805460ff1916911515919091179055565b60008060006113cd878787876110e9565b6000818152602a6020908152604091829020825160e081018452815480825260018301549382019390935260028201549381018490526003820154606082015260048201546080820152600582015460a082015260069091015460c0820181905293945092611440928992918990611d9e565b93509350505094509492505050565b60026001541415611495576040805162461bcd60e51b815260206004820152601f6024820152600080516020615ea9833981519152604482015290519081900360640190fd5b60026001819055546114b19062010000900460ff16601c613c9b565b6114b9613cc7565b6114c285613ce3565b6114cd848483613d0e565b604051634eae147d60e11b815273__$7755faed26cf1bae10a06b43cf0e10c1d9$__90639d5c28fa9061150c908890889088908890889060040161588b565b60006040518083038186803b15801561152457600080fd5b505af4158015611538573d6000803e3d6000fd5b50505050611546848461367a565b6000611554868686856110e9565b6000818152602a602052604081209192508361157857611573866124f8565b611581565b611581866133cc565b825490915061159257600282018190555b8154158015906115a25750600085115b156115c8576115c2868360000154846002015487858a8860060154612fac565b60028301555b60006115e1898989888a88600001548960030154613e24565b905060006115ee89613f1b565b905060006115fc8a83610ee3565b600186015490915061160e9082613c41565b6001860181905561162390841115601d613c9b565b60018501546116329084613a5e565b60018601556116428a8a89612cac565b600386015584546116539089613c41565b808655426006870155611669901515601e613c9b565b61167b85600001548660010154613fd1565b6116898b8b8b8a6001612e33565b505060006116978b8a612ad8565b60048701549091506116a99082613c41565b60048701556116b88b82613ff5565b87156116fd576116d18b6116cc8b87613c41565b61408a565b6116db8b836140fb565b6116e58b8461416c565b6116f88b6116f38d87612a09565b614277565b611769565b6001600160a01b038a166000908152602c602052604090205461173a576001600160a01b038a166000908152602d6020526040902085905561175f565b6117458a868b612a26565b6001600160a01b038b166000908152602d60205260409020555b6117698a8a614336565b7f2fe68525253654c21998f35787a8d0f361905ef647c854092430ab65f2f15022878d8d8d868e8e8c8c6040516117a899989796959493929190615a3d565b60405180910390a17f20853733b590dce729d9f4628682ebd9a34d2354e72679e66f43a008fc03b773878760000154886001015489600201548a600301548b600401548c600501548c604051611805989796959493929190615ad1565b60405180910390a150506001805550505050505050505050565b60008060008060008060008060006118398d8d8d8d6110e9565b6000818152602a60209081526040808320815160e081018352815481526001820154938101939093526002810154918301919091526003810154606083015260048101546080830152600581015460a0830181905260069091015460c08301529293509181126118b0578160a001516000036118b6565b8160a001515b9050816000015182602001518360400151846060015185608001518560008860a0015112158860c001519a509a509a509a509a509a509a509a5050505094995094995094999196509450565b60266020526000908152604090205481565b61191c6139f9565b60005b81811015610ec55782828281811061193357fe5b90506020028101906119459190615e42565b6000838152602f6020526040902061195e929091614fe5565b5060010161191f565b6101f481565b602a602052600090815260409020805460018201546002830154600384015460048501546005860154600690960154949593949293919290919087565b6000806119b9868686866110e9565b6000818152602a6020908152604091829020825160e0810184528154815260018201549281018390526002820154938101939093526003810154606084015260048101546080840152600581015460a08401526006015460c083015291925090611a269015156025613c9b565b60208101518151611a3e9190610e6190612710613939565b979650505050505050565b602080526000908152604090205481565b60196020526000908152604090205460ff1681565b60246020526000908152604090205481565b611a896139f9565b600480546001600160a01b0319166001600160a01b0392909216919091179055565b601d6020526000908152604090205481565b600060026001541415611b05576040805162461bcd60e51b815260206004820152601f6024820152600080516020615ea9833981519152604482015290519081900360640190fd5b6002600155611b126143bc565b6001600160a01b0383166000908152601b6020526040902054611b399060ff166013613c9b565b600554600090611b51906001600160a01b0316613f1b565b9050611b61600082116014613c9b565b611b6b848561367a565b6000611b7785836110a3565b9050611b87600082116015613c9b565b611b918583613b6e565b611b9b8582614277565b600554604051632770a7eb60e21b81526001600160a01b0390911690639dc29fac90611bcd903090869060040161598b565b600060405180830381600087803b158015611be757600080fd5b505af1158015611bfb573d6000803e3d6000fd5b50506005546040516370a0823160e01b81526001600160a01b0390911692506370a082319150611c2f90309060040161585d565b60206040518083038186803b158015611c4757600080fd5b505afa158015611c5b573d6000803e3d6000fd5b505050506040513d601f19601f82011682018060405250810190611c7f9190615717565b6005546001600160a01b03166000908152602080526040808220929092559051637f0df83960e11b815273__$7755faed26cf1bae10a06b43cf0e10c1d9$__9063fe1bf07290611cd79030908a908890600401615c13565b60206040518083038186803b158015611cef57600080fd5b505af4158015611d03573d6000803e3d6000fd5b505050506040513d601f19601f82011682018060405250810190611d279190615717565b90506000611d368784846143dc565b9050611d46600082116016613c9b565b611d518782886144dc565b7ff0769e076d0b71b7205e1d6800e3ede98265f5a21bacbd6067947cbe7a3fa6718688868486604051611d8895949392919061593f565b60405180910390a1600180559695505050505050565b600080611daf600086116026613c9b565b600084611dc457611dbf886133cc565b611dcd565b611dcd886124f8565b90506000818711611de757611de28288613a5e565b611df1565b611df18783613a5e565b90506000611e0388610e618b85613939565b905060008715611e165750878311611e1b565b508288115b6000611e3260125489613c4190919063ffffffff16565b4211611e56576001600160a01b038c166000908152601d6020526040902054611e59565b60005b9050818015611e7c5750611e6d8b82613939565b611e7984612710613939565b11155b15611e8657600092505b509a909950975050505050505050565b600060026001541415611ede576040805162461bcd60e51b815260206004820152601f6024820152600080516020615ea9833981519152604482015290519081900360640190fd5b6002600155611eeb6143bc565b6001600160a01b0383166000908152601b6020526040902054611f129060ff166010613c9b565b6000611f1d84613f1b565b9050611f2d600082116011613c9b565b611f37848561367a565b6000611f42856124f8565b90506000611f616c0c9f2c9cd04674edea40000000610e618585613939565b600554909150611f7d90829088906001600160a01b03166112c0565b9050611f8d600082116012613c9b565b6040516311f4d42760e21b815260009073__$7755faed26cf1bae10a06b43cf0e10c1d9$__906347d3509c90611fcb9030908b908790600401615c13565b60206040518083038186803b158015611fe357600080fd5b505af4158015611ff7573d6000803e3d6000fd5b505050506040513d601f19601f8201168201806040525081019061201b9190615717565b9050600061202a8886846143dc565b905060006120496c0c9f2c9cd04674edea40000000610e618488613939565b6005549091506120659082908b906001600160a01b03166112c0565b90506120718982613abb565b61207b898361416c565b6005546040516340c10f1960e01b81526001600160a01b03909116906340c10f19906120ad908b90859060040161598b565b600060405180830381600087803b1580156120c757600080fd5b505af11580156120db573d6000803e3d6000fd5b505050507fc6c8b444f53d4e65122f6f9780fd7db1ff1a47d82ff0cbb2f450eee0c289e534888a88848760405161211695949392919061593f565b60405180910390a16001805598975050505050505050565b60026001541415612174576040805162461bcd60e51b815260206004820152601f6024820152600080516020615ea9833981519152604482015290519081900360640190fd5b60026001556001600160a01b0381166000908152601b60205260409020546121a09060ff16600e613c9b565b60006121ab82613f1b565b90506121bb60008211600f613c9b565b6121c5828261416c565b7fa5a389190ebf6170a133bda5c769b77f4d6715b8aa172ec0ddf8473d0b4944bd82826040516121f692919061598b565b60405180910390a1505060018055565b60065481565b602d6020526000908152604090205481565b620f424081565b60008061223061458c565b6001600160a01b0316815260208101919091526040016000205460ff166122885760405162461bcd60e51b815260040180806020018281038252602d815260200180615ef4602d913960400191505060405180910390fd5b6001600160a01b0381166122cd5760405162461bcd60e51b815260040180806020018281038252602b815260200180615ec9602b913960400191505060405180910390fd5b6040516001600160a01b038216907f994a936646fe87ffe4f1e469d3d6aa417d6b855598397f323de5b449f765f0c390600090a26001600160a01b03166000908152602081905260409020805460ff19166001179055565b60008061233061458c565b6001600160a01b0316815260208101919091526040016000205460ff166123885760405162461bcd60e51b815260040180806020018281038252602d815260200180615ef4602d913960400191505060405180910390fd5b61239061458c565b6001600160a01b03167f58619076adf5bb0943d100ef88d52d7c3fd691b19d3a9071b555b651fbf418da60405160405180910390a26000806123d061458c565b6001600160a01b031681526020810191909152604001600020805460ff19169055565b6123fb6139f9565b61240b6101f48b11156003613c9b565b61241b6101f48a11156004613c9b565b61242b6101f48911156005613c9b565b61243b6101f48811156006613c9b565b61244b6101f48711156007613c9b565b61245d6101f4600f5411156008613c9b565b6124796d04ee2d6d415b85acef81000000008411156009613c9b565b600999909955600a97909755600b95909555600c93909355600d91909155600f556010556008556012556013805460ff1916911515919091179055565b6124be6139f9565b6002805462ff00001916620100008315158102919091179182905560ff910416156124ee57600f54600e556124f5565b601054600e555b50565b600480546040516303b6b4bb60e51b81526000926001600160a01b03909216916376d697609161252c918691869101615970565b60206040518083038186803b15801561254457600080fd5b505afa158015612558573d6000803e3d6000fd5b505050506040513d601f19601f82011682018060405250810190610f309190615717565b6000600260015414156125c4576040805162461bcd60e51b815260206004820152601f6024820152600080516020615ea9833981519152604482015290519081900360640190fd5b60026001556125d1613cc7565b6125da88613ce3565b6125e988888888888888614590565b6001805598975050505050505050565b6040516368d0f93f60e11b815260009073__$7755faed26cf1bae10a06b43cf0e10c1d9$__9063d1a1f27e9061263d9030908a908a908a908a908a90600401615c37565b60206040518083038186803b15801561265557600080fd5b505af4158015612669573d6000803e3d6000fd5b505050506040513d601f19601f8201168201806040525081019061268d9190615717565b9695505050505050565b61269f6139f9565b6001600160a01b03909116600090815260266020526040902055565b6126c36139f9565b6126d3610e10841015600a613c9b565b6126e3612710831115600b613c9b565b6126f3612710821115600c613c9b565b601492909255601555601655565b602c6020526000908152604090205481565b600254630100000090046001600160a01b031681565b601c6020526000908152604090205481565b600060026001541415612783576040805162461bcd60e51b815260206004820152601f6024820152600080516020615ea9833981519152604482015290519081900360640190fd5b600260018190555461279e90610100900460ff166017613c9b565b6001600160a01b0384166000908152601b60205260409020546127c59060ff166018613c9b565b6001600160a01b0383166000908152601b60205260409020546127ec9060ff166019613c9b565b61280c836001600160a01b0316856001600160a01b03161415601a613c9b565b612816848561367a565b612820838461367a565b600061282b85613f1b565b905061283b60008211601b613c9b565b6000612846866124f8565b90506000612853866133cc565b9050600061286582610e618686613939565b90506128728189896112c0565b905060006128916c0c9f2c9cd04674edea40000000610e618787613939565b6005549091506128ad9082908b906001600160a01b03166112c0565b9050600073__$7755faed26cf1bae10a06b43cf0e10c1d9$__63828f8db2308c8c866040518563ffffffff1660e01b81526004016128ee9493929190615be9565b60206040518083038186803b15801561290657600080fd5b505af415801561291a573d6000803e3d6000fd5b505050506040513d601f19601f8201168201806040525081019061293e9190615717565b9050600061294d8a85846143dc565b90506129598b84613abb565b6129638a84613b6e565b61296d8b8861416c565b6129778a85614277565b6129808a61497d565b61298b8a828b6144dc565b7f0874b2d545cb271cdbda4e093020c452328b24af12382ed62c4d00f5c26709db898c8c8a8886886040516129c697969594939291906158fe565b60405180910390a1600180559a9950505050505050505050565b6c0c9f2c9cd04674edea4000000081565b602e6020526000908152604090205481565b60145481565b600081612a1857506000610f30565b61135b8383610db5866133cc565b6001600160a01b0383166000908152602c6020908152604080832054602d90925282205482858211612a6157612a5c8683613a5e565b612a6b565b612a6b8287613a5e565b90506000612a7d83610e618685613939565b90508683116000612a8e8689613c41565b9050600082612aa657612aa18285613c41565b612ab0565b612ab08285613a5e565b9050612ac081610e618c85613939565b9b9a5050505050505050505050565b60135460ff1681565b600081612ae757506000610f30565b61135b8383610db5866124f8565b6014546001600160a01b03821660009081526029602052604081205490914291612b1e91613c41565b1115612b2c57506000610e6b565b6014546001600160a01b0383166000908152602960205260408120549091612b5991610e61904290613a5e565b6001600160a01b03841660009081526024602052604090205490915080612b8557600092505050610e6b565b6001600160a01b0384166000908152601e602052604081205460ff16612bad57601554612bb1565b6016545b6001600160a01b038616600090815260256020526040902054909150612bea908390610e61908690612be4908690613939565b90613939565b95945050505050565b60216020526000908152604090205481565b60075481565b6001600160a01b0381166000908152601e602052604081205460ff1615612c4b57506001600160a01b038116600090815260246020526040902054610e6b565b6001600160a01b038216600090815260276020526040812054612c6f908490612a09565b6001600160a01b038416600090815260256020908152604080832054602490925290912054919250610e6791612ca6908490613c41565b90613a5e565b60405163429a429f60e01b815260009073__$7755faed26cf1bae10a06b43cf0e10c1d9$__9063429a429f90612cec903090889088908890600401615bbf565b60206040518083038186803b158015612d0457600080fd5b505af4158015612d18573d6000803e3d6000fd5b505050506040513d601f19601f820116820180604052508101906110339190615717565b6001600160a01b0381166000908152602c6020526040812054819080612d69576000809250925050612dcf565b6000612d74856133cc565b6001600160a01b0386166000908152602d6020526040812054919250828211612da657612da18383613a5e565b612db0565b612db08284613a5e565b90506000612dc283610e618785613939565b9390921195509193505050505b915091565b600a5481565b60256020526000908152604090205481565b60155481565b60286020526000908152604090205481565b60105481565b612e126139f9565b601855565b612e1f6139f9565b612e2e61271082116002613c9b565b600755565b60008073__$7755faed26cf1bae10a06b43cf0e10c1d9$__63070ce0273089898989896040518763ffffffff1660e01b8152600401612e7796959493929190615b07565b604080518083038186803b158015612e8e57600080fd5b505af4158015612ea2573d6000803e3d6000fd5b505050506040513d601f19601f82011682018060405250810190612ec69190615753565b915091509550959350505050565b60296020526000908152604090205481565b60125481565b604051636df5632b60e11b815260009073__$7755faed26cf1bae10a06b43cf0e10c1d9$__9063dbeac65690612f329030908b908b908b908b908b908b90600401615b7b565b60206040518083038186803b158015612f4a57600080fd5b505af4158015612f5e573d6000803e3d6000fd5b505050506040513d601f19601f82011682018060405250810190611a3e9190615717565b601b6020526000908152604090205460ff1681565b601f6020526000908152604090205460ff1681565b6000806000612fbe8a8a8a8a88611d9e565b90925090506000612fcf8a87613c41565b905060008815612ffe5783612fed57612fe88284613a5e565b612ff7565b612ff78284613c41565b905061301f565b836130125761300d8284613c41565b61301c565b61301c8284613a5e565b90505b61302d81610e618a85613939565b9c9b505050505050505050505050565b60175481565b60026001541415613089576040805162461bcd60e51b815260206004820152601f6024820152600080516020615ea9833981519152604482015290519081900360640190fd5b6002600155336000908152601960205260409020546130ac9060ff166022613c9b565b6130b6848461367a565b60006130c4868686866110e9565b6000818152602a6020908152604091829020825160e08101845281548082526001830154938201939093526002820154938101939093526003810154606084015260048101546080840152600581015460a08401526006015460c0830152919250906131339015156023613c9b565b600080613144898989896000612e33565b9150915061315782600014156024613c9b565b816002141561317e57613174898989600087600001518b8f614590565b50505050506133c1565b600061318a8983612a09565b90506000601154612710146131b9576131b4612710610e616011548561393990919063ffffffff16565b6131bb565b815b6001600160a01b038b166000908152602b60205260409020549091506131e19082613c41565b6001600160a01b038b166000908152602b60205260409081902091909155517f5d0c0019d3d45fadeb74eff9d2c9924d146d000ac6bcf3c28bf0ac3c9baa011a90613231908c90869085906159a4565b60405180910390a180821115613254576132548a61324f8484613a5e565b61416c565b6132628a86608001516149c0565b87156132915760208501518551613283918c9161327e91613a5e565b6140fb565b6132918a6116f38c86612a09565b6000886132a6576132a18a6133cc565b6132af565b6132af8a6124f8565b90507f2e1f85a64a2f22cf2f0c42584e7c919ed4abe8d53675cff0f62bf1e95a1c676f878d8d8d8d8b600001518c602001518d608001518e60a001518a6040516133029a999897969594939291906159e9565b60405180910390a18815801561331b5750856020015184105b156133445760208601516000906133329086613a5e565b90506133428c61324f8e84612a09565b505b88613357576133578a8760000151614a69565b6000878152602a602052604081208181556001810182905560028101829055600381018290556004810182905560058101829055600601556008546133a3908c906116f3908290612a09565b6133b98b6133b38d600854612a09565b8a6144dc565b505050505050505b505060018055505050565b600480546040516303b6b4bb60e51b81526000926001600160a01b03909216916376d697609161252c91869160019101615970565b60115481565b600b5481565b601a818154811061341d57600080fd5b6000918252602090912001546001600160a01b0316905081565b61343f6139f9565b6001600160a01b0381166000908152601b60205260409020546134669060ff16600d613c9b565b6001600160a01b03811660009081526021602052604090205460175461348b91613a5e565b6017556001600160a01b0381166000908152601b60209081526040808320805460ff19908116909155601c835281842084905560218352818420849055601d835281842084905560238352818420849055601e8352818420805482169055601f90925290912080549091169055600654613506906001613a5e565b60065550565b6135146139f9565b6002546135269060ff16156001613c9b565b600280546001600160a01b039889166301000000026301000000600160b81b031960ff1990921660011791909116179055600380549688166001600160a01b0319978816179055600580549588169587169590951790945560048054939096169290941691909117909355600892909255601555601655565b6135a76139f9565b6001600160a01b039091166000908152602e6020526040902055565b60276020526000908152604090205481565b60006135df6139f9565b6001600160a01b0383166000908152602b602052604090205480613607576000915050610f30565b6001600160a01b0384166000908152602b602052604081205561135b8482856144dc565b600e5481565b6003546001600160a01b031681565b60008261364f5750600061135b565b6001600160a01b0384166000908152601c6020526040902054612bea83610e6186600a85900a613939565b60405163fbfded6d60e01b815260009073__$7755faed26cf1bae10a06b43cf0e10c1d9$__9063fbfded6d906136b69086908690600401615871565b60206040518083038186803b1580156136ce57600080fd5b505af41580156136e2573d6000803e3d6000fd5b505050506040513d601f19601f8201168201806040525081019061370691906156e3565b9050806137135750610ec7565b6001600160a01b0383166000908152602960205260409020546137605760145461374190612be44282613992565b6001600160a01b03841660009081526029602052604090205550610ec7565b6014546001600160a01b03841660009081526029602052604090205442916137889190613c41565b11156137945750610ec7565b600061379f84612af5565b6001600160a01b0385166000908152602860205260409020549091506137c59082613c41565b6001600160a01b0385166000908152602860205260409020556014546137ef90612be44282613992565b6001600160a01b038516600090815260296020908152604080832093909355602890528190205490517fa146fc154e1913322e9817d49f0d5c37466c24326e15de10e739a948be815eab916138469187919061598b565b60405180910390a150505050565b610e1081565b6040516320a56def60e21b815260009073__$7755faed26cf1bae10a06b43cf0e10c1d9$__90638295b7bc9061263d9030908a908a908a908a908a90600401615b41565b602f6020908152600091825260409182902080548351601f6002600019610100600186161502019093169290920491820184900484028101840190945280845290918301828280156139315780601f1061390657610100808354040283529160200191613931565b820191906000526020600020905b81548152906001019060200180831161391457829003601f168201915b505050505081565b60008261394857506000610f30565b8282028284828161395557fe5b041461135b5760405162461bcd60e51b8152600401808060200182810382526021815260200180615f216021913960400191505060405180910390fd5b60008082116139e8576040805162461bcd60e51b815260206004820152601a60248201527f536166654d6174683a206469766973696f6e206279207a65726f000000000000604482015290519081900360640190fd5b8183816139f157fe5b049392505050565b600080613a0461458c565b6001600160a01b0316815260208101919091526040016000205460ff16613a5c5760405162461bcd60e51b815260040180806020018281038252602d815260200180615ef4602d913960400191505060405180910390fd5b565b600082821115613ab5576040805162461bcd60e51b815260206004820152601e60248201527f536166654d6174683a207375627472616374696f6e206f766572666c6f770000604482015290519081900360640190fd5b50900390565b6001600160a01b038216600090815260226020526040902054613ade9082613c41565b6001600160a01b0383166000908152602260209081526040808320939093556023905220548015613b30576001600160a01b038316600090815260226020526040902054613b30908210156033613c9b565b7ffbf914421322be849bbd116e701fe46b8e6b903e15192c1d479b8748a73845208383604051613b6192919061598b565b60405180910390a1505050565b6001600160a01b038216600090815260226020526040902054818111613be9576001600160a01b03831660009081526022602052604080822091909155517fda43d5cdf64be33afb6f3e9858581d78f3855a1f6fcb50e5eb86c0c5db312d1c90613bdb908590849061598b565b60405180910390a150610ec7565b613bf38183613a5e565b6001600160a01b0384166000908152602260205260409081902091909155517fda43d5cdf64be33afb6f3e9858581d78f3855a1f6fcb50e5eb86c0c5db312d1c90613b61908590859061598b565b60008282018381101561135b576040805162461bcd60e51b815260206004820152601b60248201527f536166654d6174683a206164646974696f6e206f766572666c6f770000000000604482015290519081900360640190fd5b6000818152602f6020526040902082610ec55760405162461bcd60e51b81526004016110659190615cc0565b601854613cd357613a5c565b613a5c6018543a11156037613c9b565b6124f5336001600160a01b0383161480613d0757506003546001600160a01b031633145b6029613c9b565b8015613d8757613d33826001600160a01b0316846001600160a01b031614602a613c9b565b6001600160a01b0383166000908152601b6020526040902054613d5a9060ff16602b613c9b565b6001600160a01b0383166000908152601e6020526040902054613d829060ff1615602c613c9b565b610ec5565b6001600160a01b0383166000908152601b6020526040902054613dae9060ff16602d613c9b565b6001600160a01b0383166000908152601e6020526040902054613dd59060ff16602e613c9b565b6001600160a01b0382166000908152601e6020526040902054613dfd9060ff1615602f613c9b565b6001600160a01b0382166000908152601f6020526040902054610ec59060ff166030613c9b565b600080613e34898989898961385a565b90506000613e468a8a8a8a8989612eec565b9050613e528282613c41565b91506000613e608a84612a09565b90506000613e7f612710610e616011548561393990919063ffffffff16565b6001600160a01b038c166000908152602b6020526040902054909150613ea59082613c41565b6001600160a01b038c166000908152602b60205260409081902091909155517f5d0c0019d3d45fadeb74eff9d2c9924d146d000ac6bcf3c28bf0ac3c9baa011a90613ef5908d90879085906159a4565b60405180910390a1613f0b8b61324f8484613a5e565b50919a9950505050505050505050565b6001600160a01b03811660008181526020805260408082205490516370a0823160e01b8152919290918391906370a0823190613f5b90309060040161585d565b60206040518083038186803b158015613f7357600080fd5b505afa158015613f87573d6000803e3d6000fd5b505050506040513d601f19601f82011682018060405250810190613fab9190615717565b6001600160a01b0385166000908152602080526040902081905590506110338183613a5e565b81613fe757613fe281156027613c9b565b610ec7565b610ec7818310156028613c9b565b6001600160a01b0382166000908152602560205260409020546140189082613c41565b6001600160a01b03831660009081526025602081815260408084208590556024825290922054915261404d9111156034613c9b565b7faa5649d82f5462be9d19b0f2b31a59b2259950a6076550bac9f3a1c07db9f66d828260405161407e92919061598b565b60405180910390a15050565b6001600160a01b0382166000908152602760205260409020546140ad9082613c41565b6001600160a01b0383166000908152602760205260409081902091909155517fd9d4761f75e0d0103b5cbeab941eeb443d7a56a35b5baf2a0787c03f03f4e4749061407e908490849061598b565b6001600160a01b03821660009081526027602052604090205461411e9082613a5e565b6001600160a01b0383166000908152602760205260409081902091909155517f34e07158b9db50df5613e591c44ea2ebc82834eff4a4dc3a46e000e608261d689061407e908490849061598b565b6001600160a01b03821660009081526024602052604090205461418f9082613c41565b6001600160a01b0383166000818152602460205260408082209390935591516370a0823160e01b81526370a08231906141cc90309060040161585d565b60206040518083038186803b1580156141e457600080fd5b505afa1580156141f8573d6000803e3d6000fd5b505050506040513d601f19601f8201168201806040525081019061421c9190615717565b6001600160a01b038416600090815260246020526040902054909150614246908210156031613c9b565b7f976177fbe09a15e5e43f848844963a42b41ef919ef17ff21a17a5421de8f47378383604051613b6192919061598b565b604080518082018252601a81527f5661756c743a20706f6f6c416d6f756e742065786365656465640000000000006020808301919091526001600160a01b0385166000908152602490915291909120546142d2918390614ad1565b6001600160a01b038316600090815260246020908152604080832084905560259091529020546143059110156032613c9b565b7f112726233fbeaeed0f5b1dba5cb0b2b81883dee49fb35ff99fd98ed9f6d31eb0828260405161407e92919061598b565b6001600160a01b0382166000908152602c60205260409020546143599082613c41565b6001600160a01b0383166000908152602c6020908152604080832093909355602e905220548015610ec5576001600160a01b0383166000908152602c6020526040902054811015610ec55760405162461bcd60e51b815260040161106590615dc5565b600254613a5c90630100000090046001600160a01b031633146036613c9b565b6000806143f9612710610e616143f28287613a5e565b8790613939565b905060006144078583613a5e565b905060006011546127101461443657614431612710610e616011548561393990919063ffffffff16565b614438565b815b6001600160a01b0388166000908152602b602052604090205490915061445e9082613c41565b6001600160a01b0388166000908152602b60205260409020557f47cd9dda0e50ce30bcaaacd0488452b596221c07ac402a581cfae4d3933cac2b876144a38185610ee3565b836040516144b3939291906159a4565b60405180910390a1808211156144d1576144d18761324f8484613a5e565b509095945050505050565b6144f06001600160a01b0384168284614b68565b6040516370a0823160e01b81526001600160a01b038416906370a082319061451c90309060040161585d565b60206040518083038186803b15801561453457600080fd5b505afa158015614548573d6000803e3d6000fd5b505050506040513d601f19601f8201168201806040525081019061456c9190615717565b6001600160a01b0390931660009081526020805260409020929092555050565b3390565b6040516381d11a2360e01b815260009073__$7755faed26cf1bae10a06b43cf0e10c1d9$__906381d11a23906145d6908b908b908b908b908b908b908b906004016158bf565b60006040518083038186803b1580156145ee57600080fd5b505af4158015614602573d6000803e3d6000fd5b50505050614610878761367a565b600061461e898989876110e9565b6000818152602a6020526040902080549192509061463f901515601f613c9b565b61465186826000015410156020613c9b565b61466387826001015410156021613c9b565b60018101548154600483015460009161468091610e61908b613939565b60048401549091506146929082613a5e565b60048401556146a18b826149c0565b506000806146b38d8d8d8d8d8d614bba565b8554919350915089146147fc576146cb8c8c8a612cac565b600385015583546146dc908a613a5e565b80855560018501546146ee9190613fd1565b6146fc8d8d8d8b6001612e33565b505087156147295761471f8c6116cc866001015486613a5e90919063ffffffff16565b6147298c8a6140fb565b60008861473e576147398c6133cc565b614747565b6147478c6124f8565b90507f93d75d64d1f84fc6f430a64fc578bdd4c1e090e90ea2d51773e626d19de56d30868f8f8f8f8f8f8861477c8c8c613a5e565b60405161479199989796959493929190615a3d565b60405180910390a17f20853733b590dce729d9f4628682ebd9a34d2354e72679e66f43a008fc03b7738686600001548760010154886002015489600301548a600401548b60050154886040516147ee989796959493929190615ad1565b60405180910390a15061491b565b87156148165761480c8c8461408a565b6148168c8a6140fb565b60008861482b576148268c6133cc565b614834565b6148348c6124f8565b90507f93d75d64d1f84fc6f430a64fc578bdd4c1e090e90ea2d51773e626d19de56d30868f8f8f8f8f8f886148698c8c613a5e565b60405161487e99989796959493929190615a3d565b60405180910390a17f73af1d417d82c240fdb6d319b34ad884487c6bf2845d98980cc52ad9171cb4558686600001548760010154886002015489600301548a600401548b600501546040516148d99796959493929190615aa1565b60405180910390a1506000858152602a602052604081208181556001810182905560028101829055600381018290556004810182905560058101829055600601555b8761492a5761492a8b8a614a69565b811561496a578715614944576149448c6116f38e85612a09565b60006149508d83612a09565b905061495d8d828a6144dc565b9550611a3e945050505050565b5060009c9b505050505050505050505050565b6001600160a01b03811660009081526026602090815260408083205460249092529091205410156124f55760405162461bcd60e51b815260040161106590615d4a565b604080518082018252601b81527f5661756c743a20696e73756666696369656e74207265736572766500000000006020808301919091526001600160a01b038516600090815260259091529190912054614a1b918390614ad1565b6001600160a01b0383166000908152602560205260409081902091909155517f533cb5ed32be6a90284e96b5747a1bfc2d38fdb5768a6b5f67ff7d62144ed67b9061407e908490849061598b565b6001600160a01b0382166000908152602c602052604090205480821115614aa957506001600160a01b0382166000908152602c6020526040812055610ec7565b614ab38183613a5e565b6001600160a01b0384166000908152602c6020526040902055505050565b60008184841115614b605760405162461bcd60e51b81526004018080602001828103825283818151815260200191508051906020019080838360005b83811015614b25578181015183820152602001614b0d565b50505050905090810190601f168015614b525780820380516001836020036101000a031916815260200191505b509250505060405180910390fd5b505050900390565b604080516001600160a01b038416602482015260448082018490528251808303909101815260649091019091526020810180516001600160e01b031663a9059cbb60e01b179052610ec5908490614dae565b6000806000614bcb898989876110e9565b6000818152602a60205260408120805460038201549394509092614bf8918d918d918d918b918d91613e24565b9050600080600080614c198d876000015488600201548d8a60060154611d9e565b87549195508593509150614c3190610e618d84613939565b925050506000828015614c445750600082115b15614c745750600584018054820190558088614c74576000614c668e84612a09565b9050614c728e82614277565b505b82158015614c825750600082115b15614cc6576001850154614c969083613a5e565b600186015588614cba576000614cac8e84612a09565b9050614cb88e8261416c565b505b60058501805483900390555b8a15614cee57614cd6818c613c41565b6001860154909150614ce8908c613a5e565b60018601555b84548a1415614d11576001850154614d07908290613c41565b6000600187015590505b8084811115614d2b57614d248286613a5e565b9050614d5f565b6001860154614d3a9086613a5e565b60018701558915614d5f576000614d518f87612a09565b9050614d5d8f82614277565b505b7f3ff41bdde87755b687ae83d0221a232b6be51a803330ed9661c1b5d0105e0d8a878585604051614d9293929190615a8b565b60405180910390a1909e909d509b505050505050505050505050565b6000614e03826040518060400160405280602081526020017f5361666545524332303a206c6f772d6c6576656c2063616c6c206661696c6564815250856001600160a01b0316614e5f9092919063ffffffff16565b805190915015610ec557808060200190516020811015614e2257600080fd5b5051610ec55760405162461bcd60e51b815260040180806020018281038252602a815260200180615f42602a913960400191505060405180910390fd5b6060611033848460008585614e7385614f79565b614ec4576040805162461bcd60e51b815260206004820152601d60248201527f416464726573733a2063616c6c20746f206e6f6e2d636f6e7472616374000000604482015290519081900360640190fd5b600080866001600160a01b031685876040518082805190602001908083835b60208310614f025780518252601f199092019160209182019101614ee3565b6001836020036101000a03801982511681845116808217855250505050505090500191505060006040518083038185875af1925050503d8060008114614f64576040519150601f19603f3d011682016040523d82523d6000602084013e614f69565b606091505b5091509150611a3e828286614f7f565b3b151590565b60608315614f8e57508161135b565b825115614f9e5782518084602001fd5b60405162461bcd60e51b8152602060048201818152845160248401528451859391928392604401919085019080838360008315614b25578181015183820152602001614b0d565b828054600181600116156101000203166002900490600052602060002090601f01602090048101928261501b5760008555615061565b82601f106150345782800160ff19823516178555615061565b82800160010185558215615061579182015b82811115615061578235825591602001919060010190615046565b5061506d929150615071565b5090565b5b8082111561506d5760008155600101615072565b80356001600160a01b0381168114610e6b57600080fd5b6000602082840312156150ae578081fd5b61135b82615086565b600080604083850312156150c9578081fd5b6150d283615086565b91506150e060208401615086565b90509250929050565b6000806000606084860312156150fd578081fd5b61510684615086565b925061511460208501615086565b915061512260408501615086565b90509250925092565b600080600080600080600060e0888a031215615145578283fd5b61514e88615086565b965061515c60208901615086565b955061516a60408901615086565b945061517860608901615086565b9699959850939660808101359560a0820135955060c0909101359350915050565b600080600080608085870312156151ae578384fd5b6151b785615086565b93506151c560208601615086565b92506151d360408601615086565b915060608501356151e381615e9a565b939692955090935050565b600080600080600060a08688031215615205578081fd5b61520e86615086565b945061521c60208701615086565b935061522a60408701615086565b9250606086013561523a81615e9a565b915061524860808701615086565b90509295509295909350565b600080600080600060a0868803121561526b578081fd5b61527486615086565b945061528260208701615086565b935061529060408701615086565b925060608601356152a081615e9a565b915060808601356152b081615e9a565b809150509295509295909350565b600080600080600060a086880312156152d5578081fd5b6152de86615086565b94506152ec60208701615086565b93506152fa60408701615086565b9250606086013561530a81615e9a565b949793965091946080013592915050565b60008060008060008060c08789031215615333578182fd5b61533c87615086565b955061534a60208801615086565b945061535860408801615086565b9350606087013561536881615e9a565b9598949750929560808101359460a0909101359350915050565b600080600080600060a08688031215615399578283fd5b6153a286615086565b94506153b060208701615086565b93506153be60408701615086565b92506060860135915060808601356152b081615e9a565b600080600080600080600060e0888a0312156153ef578081fd5b6153f888615086565b965061540660208901615086565b955061541460408901615086565b9450606088013593506080880135925060a088013561543281615e9a565b915061544060c08901615086565b905092959891949750929550565b600080600060608486031215615462578081fd5b61546b84615086565b925061547960208501615086565b9150604084013561548981615e9a565b809150509250925092565b600080604083850312156154a6578182fd5b6154af83615086565b915060208301356154bf81615e9a565b809150509250929050565b600080604083850312156154dc578182fd5b6154e583615086565b946020939093013593505050565b600080600060608486031215615507578081fd5b61551084615086565b95602085013595506040909401359392505050565b600080600080600060a0868803121561553c578283fd5b61554586615086565b94506020860135935060408601359250606086013561530a81615e9a565b600080600080600080600060e0888a03121561557d578081fd5b61558688615086565b96506020880135955060408801359450606088013561517881615e9a565b600080600080600060a086880312156155bb578283fd5b6155c486615086565b945060208601359350604086013592506060860135915060808601356152b081615e9a565b600080600080600080600060e0888a031215615603578081fd5b61560c88615086565b96506020880135955060408801359450606088013593506080880135925060a088013561563881615e9a565b915060c088013561564881615e9a565b8091505092959891949750929550565b6000806020838503121561566a578182fd5b823567ffffffffffffffff80821115615681578384fd5b818501915085601f830112615694578384fd5b8135818111156156a2578485fd5b86602080830285010111156156b5578485fd5b60209290920196919550909350505050565b6000602082840312156156d8578081fd5b813561135b81615e9a565b6000602082840312156156f4578081fd5b815161135b81615e9a565b600060208284031215615710578081fd5b5035919050565b600060208284031215615728578081fd5b5051919050565b600080600060608486031215615743578081fd5b8335925061511460208501615086565b60008060408385031215615765578182fd5b505080516020909101519092909150565b60008060006060848603121561578a578081fd5b505081359360208301359350604090920135919050565b6000806000806000806000806000806101408b8d0312156157c0578384fd5b8a35995060208b0135985060408b0135975060608b0135965060808b0135955060a08b0135945060c08b0135935060e08b013592506101008b013591506101208b013561580c81615e9a565b809150509295989b9194979a5092959850565b6bffffffffffffffffffffffff19606095861b8116825293851b841660148201529190931b909116602882015290151560f81b603c820152603d0190565b6001600160a01b0391909116815260200190565b6001600160a01b0392831681529116602082015260400190565b6001600160a01b03958616815293851660208501529190931660408301526060820192909252901515608082015260a00190565b6001600160a01b0397881681529587166020870152938616604086015260608501929092526080840152151560a083015290911660c082015260e00190565b6001600160a01b03978816815295871660208701529390951660408501526060840191909152608083015260a082019290925260c081019190915260e00190565b6001600160a01b03958616815293909416602084015260408301919091526060820152608081019190915260a00190565b6001600160a01b039290921682521515602082015260400190565b6001600160a01b03929092168252602082015260400190565b6001600160a01b039390931683526020830191909152604082015260600190565b901515815260200190565b9115158252602082015260400190565b90815260200190565b998a526001600160a01b0398891660208b015296881660408a0152949096166060880152911515608087015260a086015260c085015260e08401929092526101008301919091526101208201526101400190565b9889526001600160a01b0397881660208a01529587166040890152939095166060870152608086019190915260a085015291151560c084015260e08301919091526101008201526101200190565b9283529015156020830152604082015260600190565b968752602087019590955260408601939093526060850191909152608084015260a083015260c082015260e00190565b978852602088019690965260408701949094526060860192909252608085015260a084015260c083015260e08201526101000190565b6001600160a01b0396871681529486166020860152928516604085015293166060830152911515608082015290151560a082015260c00190565b6001600160a01b0396871681529486166020860152928516604085015293166060830152911515608082015260a081019190915260c00190565b6001600160a01b03978816815295871660208701529386166040860152919094166060840152921515608083015260a082019290925260c081019190915260e00190565b6001600160a01b039485168152928416602084015292166040820152901515606082015260800190565b6001600160a01b039485168152928416602084015292166040820152606081019190915260800190565b6001600160a01b039384168152919092166020820152604081019190915260600190565b6001600160a01b03968716815294909516602085015260408401929092526060830152608082015290151560a082015260c00190565b6000602080835283518082850152825b81811015615c9957858101830151858201604001528201615c7d565b81811115615caa5783604083870101525b50601f01601f1916929092016040019392505050565b60006020808301818452828554600180821660008114615ce75760018114615d0557615d3d565b60028304607f16855260ff1983166040890152606088019350615d3d565b60028304808652615d158a615e8e565b885b82811015615d335781548b820160400152908401908801615d17565b8a01604001955050505b5091979650505050505050565b6020808252601a908201527f5661756c743a20706f6f6c416d6f756e74203c20627566666572000000000000604082015260600190565b60208082526024908201527f5661756c743a207374616b696e67206270732063616e206e6f7420676f20686960408201526333b432b960e11b606082015260800190565b6020808252601a908201527f5661756c743a206d61782073686f727473206578636565646564000000000000604082015260600190565b918252602082015260400190565b978852602088019690965260408701949094526060860192909252608085015260a0840152151560c083015260e08201526101000190565b6000808335601e19843603018112615e58578283fd5b83018035915067ffffffffffffffff821115615e72578283fd5b602001915036819003821315615e8757600080fd5b9250929050565b60009081526020902090565b80151581146124f557600080fdfe5265656e7472616e637947756172643a207265656e7472616e742063616c6c004d756c74694f776e61626c653a206e6577206f776e657220697320746865207a65726f20616464726573734d756c74694f776e61626c653a2063616c6c6572206973206e6f74206f6e65206f6620746865206f776e657273536166654d6174683a206d756c7469706c69636174696f6e206f766572666c6f775361666545524332303a204552433230206f7065726174696f6e20646964206e6f742073756363656564a26469706673582212205cd3feb753d11bd08c8a393049ae8f2b651bdb3c711680c84e1ae740743fea3f64736f6c63430007060033",
  "linkReferences": {
    "contracts/protocol/libraries/logic/VaultUtils.sol": {
      "VaultUtils": [
        {
          "length": 20,
          "start": 5573
        },
        {
          "length": 20,
          "start": 7572
        },
        {
          "length": 20,
          "start": 8328
        },
        {
          "length": 20,
          "start": 9972
        },
        {
          "length": 20,
          "start": 10652
        },
        {
          "length": 20,
          "start": 11687
        },
        {
          "length": 20,
          "start": 12065
        },
        {
          "length": 20,
          "start": 12263
        },
        {
          "length": 20,
          "start": 14197
        },
        {
          "length": 20,
          "start": 14677
        },
        {
          "length": 20,
          "start": 18059
        }
      ]
    }
  },
  "deployedLinkReferences": {
    "contracts/protocol/libraries/logic/VaultUtils.sol": {
      "VaultUtils": [
        {
          "length": 20,
          "start": 5340
        },
        {
          "length": 20,
          "start": 7339
        },
        {
          "length": 20,
          "start": 8095
        },
        {
          "length": 20,
          "start": 9739
        },
        {
          "length": 20,
          "start": 10419
        },
        {
          "length": 20,
          "start": 11454
        },
        {
          "length": 20,
          "start": 11832
        },
        {
          "length": 20,
          "start": 12030
        },
        {
          "length": 20,
          "start": 13964
        },
        {
          "length": 20,
          "start": 14444
        },
        {
          "length": 20,
          "start": 17826
        }
      ]
    }
  }
}