{
  "_format": "hh-sol-artifact-1",
  "contractName": "Vault",
  "sourceName": "contracts/protocol/core/Vault.sol",
  "abi": [
    {
      "inputs": [
        {
          "internalType": "contract IAddressesProvider",
          "name": "addressesProvider_",
          "type": "address"
        },
        {
          "internalType": "address",
          "name": "treasury",
          "type": "address"
        }
      ],
      "stateMutability": "nonpayable",
      "type": "constructor"
    },
    {
      "anonymous": false,
      "inputs": [
        {
          "indexed": false,
          "internalType": "address",
          "name": "account",
          "type": "address"
        },
        {
          "indexed": false,
          "internalType": "address",
          "name": "token",
          "type": "address"
        },
        {
          "indexed": false,
          "internalType": "uint256",
          "name": "tokenAmount",
          "type": "uint256"
        },
        {
          "indexed": false,
          "internalType": "uint256",
          "name": "usdphAmount",
          "type": "uint256"
        },
        {
          "indexed": false,
          "internalType": "uint256",
          "name": "feeBps",
          "type": "uint256"
        }
      ],
      "name": "BuyUSDPH",
      "type": "event"
    },
    {
      "anonymous": false,
      "inputs": [
        {
          "indexed": false,
          "internalType": "bytes32",
          "name": "key",
          "type": "bytes32"
        },
        {
          "indexed": false,
          "internalType": "uint256",
          "name": "size",
          "type": "uint256"
        },
        {
          "indexed": false,
          "internalType": "uint256",
          "name": "collateral",
          "type": "uint256"
        },
        {
          "indexed": false,
          "internalType": "uint256",
          "name": "averagePrice",
          "type": "uint256"
        },
        {
          "indexed": false,
          "internalType": "uint256",
          "name": "entryFundingRate",
          "type": "uint256"
        },
        {
          "indexed": false,
          "internalType": "uint256",
          "name": "reserveAmount",
          "type": "uint256"
        },
        {
          "indexed": false,
          "internalType": "int256",
          "name": "realisedPnl",
          "type": "int256"
        }
      ],
      "name": "ClosePosition",
      "type": "event"
    },
    {
      "anonymous": false,
      "inputs": [
        {
          "indexed": false,
          "internalType": "address",
          "name": "token",
          "type": "address"
        },
        {
          "indexed": false,
          "internalType": "uint256",
          "name": "feeUsd",
          "type": "uint256"
        },
        {
          "indexed": false,
          "internalType": "uint256",
          "name": "feeTokens",
          "type": "uint256"
        }
      ],
      "name": "CollectMarginFees",
      "type": "event"
    },
    {
      "anonymous": false,
      "inputs": [
        {
          "indexed": false,
          "internalType": "address",
          "name": "token",
          "type": "address"
        },
        {
          "indexed": false,
          "internalType": "uint256",
          "name": "feeUsd",
          "type": "uint256"
        },
        {
          "indexed": false,
          "internalType": "uint256",
          "name": "feeTokens",
          "type": "uint256"
        }
      ],
      "name": "CollectSwapFees",
      "type": "event"
    },
    {
      "anonymous": false,
      "inputs": [
        {
          "indexed": false,
          "internalType": "address",
          "name": "token",
          "type": "address"
        },
        {
          "indexed": false,
          "internalType": "uint256",
          "name": "amount",
          "type": "uint256"
        }
      ],
      "name": "DecreaseGuaranteedUsd",
      "type": "event"
    },
    {
      "anonymous": false,
      "inputs": [
        {
          "indexed": false,
          "internalType": "address",
          "name": "token",
          "type": "address"
        },
        {
          "indexed": false,
          "internalType": "uint256",
          "name": "amount",
          "type": "uint256"
        }
      ],
      "name": "DecreasePoolAmount",
      "type": "event"
    },
    {
      "anonymous": false,
      "inputs": [
        {
          "indexed": false,
          "internalType": "bytes32",
          "name": "key",
          "type": "bytes32"
        },
        {
          "indexed": false,
          "internalType": "address",
          "name": "account",
          "type": "address"
        },
        {
          "indexed": false,
          "internalType": "address",
          "name": "collateralToken",
          "type": "address"
        },
        {
          "indexed": false,
          "internalType": "address",
          "name": "indexToken",
          "type": "address"
        },
        {
          "indexed": false,
          "internalType": "uint256",
          "name": "collateralDelta",
          "type": "uint256"
        },
        {
          "indexed": false,
          "internalType": "uint256",
          "name": "sizeDelta",
          "type": "uint256"
        },
        {
          "indexed": false,
          "internalType": "bool",
          "name": "isLong",
          "type": "bool"
        },
        {
          "indexed": false,
          "internalType": "uint256",
          "name": "price",
          "type": "uint256"
        },
        {
          "indexed": false,
          "internalType": "uint256",
          "name": "fee",
          "type": "uint256"
        }
      ],
      "name": "DecreasePosition",
      "type": "event"
    },
    {
      "anonymous": false,
      "inputs": [
        {
          "indexed": false,
          "internalType": "address",
          "name": "token",
          "type": "address"
        },
        {
          "indexed": false,
          "internalType": "uint256",
          "name": "amount",
          "type": "uint256"
        }
      ],
      "name": "DecreaseReservedAmount",
      "type": "event"
    },
    {
      "anonymous": false,
      "inputs": [
        {
          "indexed": false,
          "internalType": "address",
          "name": "token",
          "type": "address"
        },
        {
          "indexed": false,
          "internalType": "uint256",
          "name": "amount",
          "type": "uint256"
        }
      ],
      "name": "DecreaseUsdphAmount",
      "type": "event"
    },
    {
      "anonymous": false,
      "inputs": [
        {
          "indexed": false,
          "internalType": "address",
          "name": "token",
          "type": "address"
        },
        {
          "indexed": false,
          "internalType": "uint256",
          "name": "amount",
          "type": "uint256"
        }
      ],
      "name": "DirectPoolDeposit",
      "type": "event"
    },
    {
      "anonymous": false,
      "inputs": [
        {
          "indexed": false,
          "internalType": "address",
          "name": "token",
          "type": "address"
        },
        {
          "indexed": false,
          "internalType": "uint256",
          "name": "amount",
          "type": "uint256"
        }
      ],
      "name": "IncreaseGuaranteedUsd",
      "type": "event"
    },
    {
      "anonymous": false,
      "inputs": [
        {
          "indexed": false,
          "internalType": "address",
          "name": "token",
          "type": "address"
        },
        {
          "indexed": false,
          "internalType": "uint256",
          "name": "amount",
          "type": "uint256"
        }
      ],
      "name": "IncreasePoolAmount",
      "type": "event"
    },
    {
      "anonymous": false,
      "inputs": [
        {
          "indexed": false,
          "internalType": "bytes32",
          "name": "key",
          "type": "bytes32"
        },
        {
          "indexed": false,
          "internalType": "address",
          "name": "account",
          "type": "address"
        },
        {
          "indexed": false,
          "internalType": "address",
          "name": "collateralToken",
          "type": "address"
        },
        {
          "indexed": false,
          "internalType": "address",
          "name": "indexToken",
          "type": "address"
        },
        {
          "indexed": false,
          "internalType": "uint256",
          "name": "collateralDelta",
          "type": "uint256"
        },
        {
          "indexed": false,
          "internalType": "uint256",
          "name": "sizeDelta",
          "type": "uint256"
        },
        {
          "indexed": false,
          "internalType": "bool",
          "name": "isLong",
          "type": "bool"
        },
        {
          "indexed": false,
          "internalType": "uint256",
          "name": "price",
          "type": "uint256"
        },
        {
          "indexed": false,
          "internalType": "uint256",
          "name": "fee",
          "type": "uint256"
        }
      ],
      "name": "IncreasePosition",
      "type": "event"
    },
    {
      "anonymous": false,
      "inputs": [
        {
          "indexed": false,
          "internalType": "address",
          "name": "token",
          "type": "address"
        },
        {
          "indexed": false,
          "internalType": "uint256",
          "name": "amount",
          "type": "uint256"
        }
      ],
      "name": "IncreaseReservedAmount",
      "type": "event"
    },
    {
      "anonymous": false,
      "inputs": [
        {
          "indexed": false,
          "internalType": "address",
          "name": "token",
          "type": "address"
        },
        {
          "indexed": false,
          "internalType": "uint256",
          "name": "amount",
          "type": "uint256"
        }
      ],
      "name": "IncreaseUsdphAmount",
      "type": "event"
    },
    {
      "anonymous": false,
      "inputs": [
        {
          "indexed": false,
          "internalType": "bytes32",
          "name": "key",
          "type": "bytes32"
        },
        {
          "indexed": false,
          "internalType": "address",
          "name": "account",
          "type": "address"
        },
        {
          "indexed": false,
          "internalType": "address",
          "name": "collateralToken",
          "type": "address"
        },
        {
          "indexed": false,
          "internalType": "address",
          "name": "indexToken",
          "type": "address"
        },
        {
          "indexed": false,
          "internalType": "bool",
          "name": "isLong",
          "type": "bool"
        },
        {
          "indexed": false,
          "internalType": "uint256",
          "name": "size",
          "type": "uint256"
        },
        {
          "indexed": false,
          "internalType": "uint256",
          "name": "collateral",
          "type": "uint256"
        },
        {
          "indexed": false,
          "internalType": "uint256",
          "name": "reserveAmount",
          "type": "uint256"
        },
        {
          "indexed": false,
          "internalType": "int256",
          "name": "realisedPnl",
          "type": "int256"
        },
        {
          "indexed": false,
          "internalType": "uint256",
          "name": "markPrice",
          "type": "uint256"
        }
      ],
      "name": "LiquidatePosition",
      "type": "event"
    },
    {
      "anonymous": false,
      "inputs": [
        {
          "indexed": false,
          "internalType": "address",
          "name": "account",
          "type": "address"
        },
        {
          "indexed": false,
          "internalType": "address",
          "name": "token",
          "type": "address"
        },
        {
          "indexed": false,
          "internalType": "uint256",
          "name": "usdphAmount",
          "type": "uint256"
        },
        {
          "indexed": false,
          "internalType": "uint256",
          "name": "tokenAmount",
          "type": "uint256"
        },
        {
          "indexed": false,
          "internalType": "uint256",
          "name": "feeBps",
          "type": "uint256"
        }
      ],
      "name": "SellUSDPH",
      "type": "event"
    },
    {
      "anonymous": false,
      "inputs": [
        {
          "indexed": false,
          "internalType": "address",
          "name": "account",
          "type": "address"
        },
        {
          "indexed": false,
          "internalType": "address",
          "name": "tokenIn",
          "type": "address"
        },
        {
          "indexed": false,
          "internalType": "address",
          "name": "tokenOut",
          "type": "address"
        },
        {
          "indexed": false,
          "internalType": "uint256",
          "name": "amountIn",
          "type": "uint256"
        },
        {
          "indexed": false,
          "internalType": "uint256",
          "name": "amountOut",
          "type": "uint256"
        },
        {
          "indexed": false,
          "internalType": "uint256",
          "name": "amountOutAfterFees",
          "type": "uint256"
        },
        {
          "indexed": false,
          "internalType": "uint256",
          "name": "feeBps",
          "type": "uint256"
        }
      ],
      "name": "Swap",
      "type": "event"
    },
    {
      "anonymous": false,
      "inputs": [
        {
          "indexed": true,
          "internalType": "address",
          "name": "previousTreasury",
          "type": "address"
        },
        {
          "indexed": true,
          "internalType": "address",
          "name": "newTreasury",
          "type": "address"
        }
      ],
      "name": "TreasuryTransferred",
      "type": "event"
    },
    {
      "anonymous": false,
      "inputs": [
        {
          "indexed": false,
          "internalType": "address",
          "name": "token",
          "type": "address"
        },
        {
          "indexed": false,
          "internalType": "uint256",
          "name": "fundingRate",
          "type": "uint256"
        }
      ],
      "name": "UpdateFundingRate",
      "type": "event"
    },
    {
      "anonymous": false,
      "inputs": [
        {
          "indexed": false,
          "internalType": "bytes32",
          "name": "key",
          "type": "bytes32"
        },
        {
          "indexed": false,
          "internalType": "bool",
          "name": "hasProfit",
          "type": "bool"
        },
        {
          "indexed": false,
          "internalType": "uint256",
          "name": "delta",
          "type": "uint256"
        }
      ],
      "name": "UpdatePnl",
      "type": "event"
    },
    {
      "anonymous": false,
      "inputs": [
        {
          "indexed": false,
          "internalType": "bytes32",
          "name": "key",
          "type": "bytes32"
        },
        {
          "indexed": false,
          "internalType": "uint256",
          "name": "size",
          "type": "uint256"
        },
        {
          "indexed": false,
          "internalType": "uint256",
          "name": "collateral",
          "type": "uint256"
        },
        {
          "indexed": false,
          "internalType": "uint256",
          "name": "averagePrice",
          "type": "uint256"
        },
        {
          "indexed": false,
          "internalType": "uint256",
          "name": "entryFundingRate",
          "type": "uint256"
        },
        {
          "indexed": false,
          "internalType": "uint256",
          "name": "reserveAmount",
          "type": "uint256"
        },
        {
          "indexed": false,
          "internalType": "int256",
          "name": "realisedPnl",
          "type": "int256"
        },
        {
          "indexed": false,
          "internalType": "uint256",
          "name": "markPrice",
          "type": "uint256"
        }
      ],
      "name": "UpdatePosition",
      "type": "event"
    },
    {
      "inputs": [],
      "name": "BASIS_POINTS_DIVISOR",
      "outputs": [
        {
          "internalType": "uint256",
          "name": "",
          "type": "uint256"
        }
      ],
      "stateMutability": "view",
      "type": "function"
    },
    {
      "inputs": [],
      "name": "FUNDING_RATE_PRECISION",
      "outputs": [
        {
          "internalType": "uint256",
          "name": "",
          "type": "uint256"
        }
      ],
      "stateMutability": "view",
      "type": "function"
    },
    {
      "inputs": [],
      "name": "PRICE_PRECISION",
      "outputs": [
        {
          "internalType": "uint256",
          "name": "",
          "type": "uint256"
        }
      ],
      "stateMutability": "view",
      "type": "function"
    },
    {
      "inputs": [],
      "name": "USDPH_DECIMALS",
      "outputs": [
        {
          "internalType": "uint256",
          "name": "",
          "type": "uint256"
        }
      ],
      "stateMutability": "view",
      "type": "function"
    },
    {
      "inputs": [],
      "name": "addressesProvider",
      "outputs": [
        {
          "internalType": "contract IAddressesProvider",
          "name": "",
          "type": "address"
        }
      ],
      "stateMutability": "view",
      "type": "function"
    },
    {
      "inputs": [
        {
          "internalType": "uint256",
          "name": "_amount",
          "type": "uint256"
        },
        {
          "internalType": "address",
          "name": "_tokenDiv",
          "type": "address"
        },
        {
          "internalType": "address",
          "name": "_tokenMul",
          "type": "address"
        }
      ],
      "name": "adjustForDecimals",
      "outputs": [
        {
          "internalType": "uint256",
          "name": "",
          "type": "uint256"
        }
      ],
      "stateMutability": "view",
      "type": "function"
    },
    {
      "inputs": [
        {
          "internalType": "uint256",
          "name": "i",
          "type": "uint256"
        }
      ],
      "name": "allWhitelistedTokens",
      "outputs": [
        {
          "internalType": "address",
          "name": "",
          "type": "address"
        }
      ],
      "stateMutability": "view",
      "type": "function"
    },
    {
      "inputs": [],
      "name": "allWhitelistedTokensLength",
      "outputs": [
        {
          "internalType": "uint256",
          "name": "",
          "type": "uint256"
        }
      ],
      "stateMutability": "view",
      "type": "function"
    },
    {
      "inputs": [
        {
          "internalType": "address",
          "name": "_token",
          "type": "address"
        },
        {
          "internalType": "address",
          "name": "_receiver",
          "type": "address"
        }
      ],
      "name": "buyUSDPH",
      "outputs": [
        {
          "internalType": "uint256",
          "name": "",
          "type": "uint256"
        }
      ],
      "stateMutability": "nonpayable",
      "type": "function"
    },
    {
      "inputs": [
        {
          "internalType": "address",
          "name": "_token",
          "type": "address"
        }
      ],
      "name": "clearTokenConfig",
      "outputs": [],
      "stateMutability": "nonpayable",
      "type": "function"
    },
    {
      "inputs": [
        {
          "internalType": "address",
          "name": "",
          "type": "address"
        }
      ],
      "name": "cumulativeFundingRates",
      "outputs": [
        {
          "internalType": "uint256",
          "name": "",
          "type": "uint256"
        }
      ],
      "stateMutability": "view",
      "type": "function"
    },
    {
      "inputs": [
        {
          "internalType": "address",
          "name": "_account",
          "type": "address"
        },
        {
          "internalType": "address",
          "name": "_collateralToken",
          "type": "address"
        },
        {
          "internalType": "address",
          "name": "_indexToken",
          "type": "address"
        },
        {
          "internalType": "uint256",
          "name": "_collateralDelta",
          "type": "uint256"
        },
        {
          "internalType": "uint256",
          "name": "_sizeDelta",
          "type": "uint256"
        },
        {
          "internalType": "bool",
          "name": "_isLong",
          "type": "bool"
        },
        {
          "internalType": "address",
          "name": "_receiver",
          "type": "address"
        }
      ],
      "name": "decreasePosition",
      "outputs": [
        {
          "internalType": "uint256",
          "name": "",
          "type": "uint256"
        }
      ],
      "stateMutability": "nonpayable",
      "type": "function"
    },
    {
      "inputs": [
        {
          "internalType": "address",
          "name": "_token",
          "type": "address"
        }
      ],
      "name": "directPoolDeposit",
      "outputs": [],
      "stateMutability": "nonpayable",
      "type": "function"
    },
    {
      "inputs": [
        {
          "internalType": "address",
          "name": "",
          "type": "address"
        }
      ],
      "name": "feeReserves",
      "outputs": [
        {
          "internalType": "uint256",
          "name": "",
          "type": "uint256"
        }
      ],
      "stateMutability": "view",
      "type": "function"
    },
    {
      "inputs": [
        {
          "internalType": "address",
          "name": "_indexToken",
          "type": "address"
        },
        {
          "internalType": "uint256",
          "name": "_size",
          "type": "uint256"
        },
        {
          "internalType": "uint256",
          "name": "_averagePrice",
          "type": "uint256"
        },
        {
          "internalType": "bool",
          "name": "_isLong",
          "type": "bool"
        },
        {
          "internalType": "uint256",
          "name": "_lastIncreasedTime",
          "type": "uint256"
        }
      ],
      "name": "getDelta",
      "outputs": [
        {
          "internalType": "bool",
          "name": "",
          "type": "bool"
        },
        {
          "internalType": "uint256",
          "name": "",
          "type": "uint256"
        }
      ],
      "stateMutability": "view",
      "type": "function"
    },
    {
      "inputs": [
        {
          "internalType": "address",
          "name": "_collateralToken",
          "type": "address"
        },
        {
          "internalType": "address",
          "name": "_indexToken",
          "type": "address"
        },
        {
          "internalType": "bool",
          "name": "_isLong",
          "type": "bool"
        }
      ],
      "name": "getEntryFundingRate",
      "outputs": [
        {
          "internalType": "uint256",
          "name": "",
          "type": "uint256"
        }
      ],
      "stateMutability": "view",
      "type": "function"
    },
    {
      "inputs": [
        {
          "internalType": "address",
          "name": "_token",
          "type": "address"
        },
        {
          "internalType": "uint256",
          "name": "_usdphDelta",
          "type": "uint256"
        },
        {
          "internalType": "uint256",
          "name": "_feeBps",
          "type": "uint256"
        },
        {
          "internalType": "uint256",
          "name": "_taxBps",
          "type": "uint256"
        },
        {
          "internalType": "bool",
          "name": "_increment",
          "type": "bool"
        }
      ],
      "name": "getFeeBps",
      "outputs": [
        {
          "internalType": "uint256",
          "name": "",
          "type": "uint256"
        }
      ],
      "stateMutability": "view",
      "type": "function"
    },
    {
      "inputs": [
        {
          "internalType": "address",
          "name": "_account",
          "type": "address"
        },
        {
          "internalType": "address",
          "name": "_collateralToken",
          "type": "address"
        },
        {
          "internalType": "address",
          "name": "_indexToken",
          "type": "address"
        },
        {
          "internalType": "bool",
          "name": "_isLong",
          "type": "bool"
        },
        {
          "internalType": "uint256",
          "name": "_size",
          "type": "uint256"
        },
        {
          "internalType": "uint256",
          "name": "_entryFundingRate",
          "type": "uint256"
        }
      ],
      "name": "getFundingFee",
      "outputs": [
        {
          "internalType": "uint256",
          "name": "",
          "type": "uint256"
        }
      ],
      "stateMutability": "view",
      "type": "function"
    },
    {
      "inputs": [
        {
          "internalType": "address",
          "name": "_indexToken",
          "type": "address"
        },
        {
          "internalType": "uint256",
          "name": "_size",
          "type": "uint256"
        },
        {
          "internalType": "uint256",
          "name": "_averagePrice",
          "type": "uint256"
        },
        {
          "internalType": "bool",
          "name": "_isLong",
          "type": "bool"
        },
        {
          "internalType": "uint256",
          "name": "_nextPrice",
          "type": "uint256"
        },
        {
          "internalType": "uint256",
          "name": "_sizeDelta",
          "type": "uint256"
        },
        {
          "internalType": "uint256",
          "name": "_lastIncreasedTime",
          "type": "uint256"
        }
      ],
      "name": "getNextAveragePrice",
      "outputs": [
        {
          "internalType": "uint256",
          "name": "",
          "type": "uint256"
        }
      ],
      "stateMutability": "view",
      "type": "function"
    },
    {
      "inputs": [
        {
          "internalType": "address",
          "name": "_token",
          "type": "address"
        }
      ],
      "name": "getNextFundingRate",
      "outputs": [
        {
          "internalType": "uint256",
          "name": "",
          "type": "uint256"
        }
      ],
      "stateMutability": "view",
      "type": "function"
    },
    {
      "inputs": [
        {
          "internalType": "address",
          "name": "_indexToken",
          "type": "address"
        },
        {
          "internalType": "uint256",
          "name": "_nextPrice",
          "type": "uint256"
        },
        {
          "internalType": "uint256",
          "name": "_sizeDelta",
          "type": "uint256"
        }
      ],
      "name": "getNextGlobalShortAveragePrice",
      "outputs": [
        {
          "internalType": "uint256",
          "name": "",
          "type": "uint256"
        }
      ],
      "stateMutability": "view",
      "type": "function"
    },
    {
      "inputs": [
        {
          "internalType": "address",
          "name": "_account",
          "type": "address"
        },
        {
          "internalType": "address",
          "name": "_collateralToken",
          "type": "address"
        },
        {
          "internalType": "address",
          "name": "_indexToken",
          "type": "address"
        },
        {
          "internalType": "bool",
          "name": "_isLong",
          "type": "bool"
        }
      ],
      "name": "getPosition",
      "outputs": [
        {
          "internalType": "uint256",
          "name": "",
          "type": "uint256"
        },
        {
          "internalType": "uint256",
          "name": "",
          "type": "uint256"
        },
        {
          "internalType": "uint256",
          "name": "",
          "type": "uint256"
        },
        {
          "internalType": "uint256",
          "name": "",
          "type": "uint256"
        },
        {
          "internalType": "uint256",
          "name": "",
          "type": "uint256"
        },
        {
          "internalType": "uint256",
          "name": "",
          "type": "uint256"
        },
        {
          "internalType": "bool",
          "name": "",
          "type": "bool"
        },
        {
          "internalType": "uint256",
          "name": "",
          "type": "uint256"
        }
      ],
      "stateMutability": "view",
      "type": "function"
    },
    {
      "inputs": [
        {
          "internalType": "address",
          "name": "_token",
          "type": "address"
        },
        {
          "internalType": "uint256",
          "name": "_usdphAmount",
          "type": "uint256"
        }
      ],
      "name": "getRedemptionAmount",
      "outputs": [
        {
          "internalType": "uint256",
          "name": "",
          "type": "uint256"
        }
      ],
      "stateMutability": "view",
      "type": "function"
    },
    {
      "inputs": [
        {
          "internalType": "address",
          "name": "_token",
          "type": "address"
        }
      ],
      "name": "getRedemptionCollateral",
      "outputs": [
        {
          "internalType": "uint256",
          "name": "",
          "type": "uint256"
        }
      ],
      "stateMutability": "view",
      "type": "function"
    },
    {
      "inputs": [
        {
          "internalType": "address",
          "name": "_token",
          "type": "address"
        }
      ],
      "name": "getRedemptionCollateralUsd",
      "outputs": [
        {
          "internalType": "uint256",
          "name": "",
          "type": "uint256"
        }
      ],
      "stateMutability": "view",
      "type": "function"
    },
    {
      "inputs": [
        {
          "internalType": "address",
          "name": "_token",
          "type": "address"
        }
      ],
      "name": "getTokenConfig",
      "outputs": [
        {
          "components": [
            {
              "internalType": "bool",
              "name": "isWhitelisted",
              "type": "bool"
            },
            {
              "internalType": "uint256",
              "name": "decimals",
              "type": "uint256"
            },
            {
              "internalType": "uint256",
              "name": "weight",
              "type": "uint256"
            },
            {
              "internalType": "uint256",
              "name": "minProfitBps",
              "type": "uint256"
            },
            {
              "internalType": "uint256",
              "name": "maxUsdphAmount",
              "type": "uint256"
            },
            {
              "internalType": "bool",
              "name": "isStable",
              "type": "bool"
            },
            {
              "internalType": "bool",
              "name": "isShortable",
              "type": "bool"
            },
            {
              "internalType": "uint256",
              "name": "bufferAmount",
              "type": "uint256"
            },
            {
              "internalType": "uint256",
              "name": "maxGlobalShortSize",
              "type": "uint256"
            }
          ],
          "internalType": "struct DataTypes.TokenConfig",
          "name": "",
          "type": "tuple"
        }
      ],
      "stateMutability": "view",
      "type": "function"
    },
    {
      "inputs": [],
      "name": "getVaultConfig",
      "outputs": [
        {
          "components": [
            {
              "internalType": "bool",
              "name": "isSwapEnabled",
              "type": "bool"
            },
            {
              "internalType": "bool",
              "name": "isLeverageEnabled",
              "type": "bool"
            },
            {
              "internalType": "uint256",
              "name": "maxLeverage",
              "type": "uint256"
            },
            {
              "internalType": "uint256",
              "name": "maxGasPrice",
              "type": "uint256"
            },
            {
              "internalType": "uint256",
              "name": "taxBps",
              "type": "uint256"
            },
            {
              "internalType": "uint256",
              "name": "stableTaxBps",
              "type": "uint256"
            },
            {
              "internalType": "uint256",
              "name": "mintBurnFeeBps",
              "type": "uint256"
            },
            {
              "internalType": "uint256",
              "name": "swapFeeBps",
              "type": "uint256"
            },
            {
              "internalType": "uint256",
              "name": "stableSwapFeeBps",
              "type": "uint256"
            },
            {
              "internalType": "uint256",
              "name": "marginFeeBps",
              "type": "uint256"
            },
            {
              "internalType": "uint256",
              "name": "_marginFeeBps",
              "type": "uint256"
            },
            {
              "internalType": "uint256",
              "name": "maxMarginFeeBps",
              "type": "uint256"
            },
            {
              "internalType": "uint256",
              "name": "liquidationFeeUsd",
              "type": "uint256"
            },
            {
              "internalType": "uint256",
              "name": "minProfitTime",
              "type": "uint256"
            },
            {
              "internalType": "bool",
              "name": "hasDynamicFees",
              "type": "bool"
            },
            {
              "internalType": "uint256",
              "name": "stakingBps",
              "type": "uint256"
            },
            {
              "internalType": "uint256",
              "name": "fundingInterval",
              "type": "uint256"
            },
            {
              "internalType": "uint256",
              "name": "fundingRateFactor",
              "type": "uint256"
            },
            {
              "internalType": "uint256",
              "name": "stableFundingRateFactor",
              "type": "uint256"
            }
          ],
          "internalType": "struct DataTypes.VaultConfig",
          "name": "",
          "type": "tuple"
        }
      ],
      "stateMutability": "view",
      "type": "function"
    },
    {
      "inputs": [
        {
          "internalType": "address",
          "name": "",
          "type": "address"
        }
      ],
      "name": "globalShortAveragePrices",
      "outputs": [
        {
          "internalType": "uint256",
          "name": "",
          "type": "uint256"
        }
      ],
      "stateMutability": "view",
      "type": "function"
    },
    {
      "inputs": [
        {
          "internalType": "address",
          "name": "",
          "type": "address"
        }
      ],
      "name": "globalShortSizes",
      "outputs": [
        {
          "internalType": "uint256",
          "name": "",
          "type": "uint256"
        }
      ],
      "stateMutability": "view",
      "type": "function"
    },
    {
      "inputs": [
        {
          "internalType": "address",
          "name": "",
          "type": "address"
        }
      ],
      "name": "guaranteedUsd",
      "outputs": [
        {
          "internalType": "uint256",
          "name": "",
          "type": "uint256"
        }
      ],
      "stateMutability": "view",
      "type": "function"
    },
    {
      "inputs": [
        {
          "internalType": "address",
          "name": "_account",
          "type": "address"
        },
        {
          "internalType": "address",
          "name": "_collateralToken",
          "type": "address"
        },
        {
          "internalType": "address",
          "name": "_indexToken",
          "type": "address"
        },
        {
          "internalType": "uint256",
          "name": "_sizeDelta",
          "type": "uint256"
        },
        {
          "internalType": "bool",
          "name": "_isLong",
          "type": "bool"
        }
      ],
      "name": "increasePosition",
      "outputs": [],
      "stateMutability": "nonpayable",
      "type": "function"
    },
    {
      "inputs": [
        {
          "internalType": "address",
          "name": "",
          "type": "address"
        }
      ],
      "name": "lastFundingTimes",
      "outputs": [
        {
          "internalType": "uint256",
          "name": "",
          "type": "uint256"
        }
      ],
      "stateMutability": "view",
      "type": "function"
    },
    {
      "inputs": [
        {
          "internalType": "address",
          "name": "_account",
          "type": "address"
        },
        {
          "internalType": "address",
          "name": "_collateralToken",
          "type": "address"
        },
        {
          "internalType": "address",
          "name": "_indexToken",
          "type": "address"
        },
        {
          "internalType": "bool",
          "name": "_isLong",
          "type": "bool"
        },
        {
          "internalType": "address",
          "name": "_feeReceiver",
          "type": "address"
        }
      ],
      "name": "liquidatePosition",
      "outputs": [],
      "stateMutability": "nonpayable",
      "type": "function"
    },
    {
      "inputs": [
        {
          "internalType": "address",
          "name": "",
          "type": "address"
        }
      ],
      "name": "poolAmounts",
      "outputs": [
        {
          "internalType": "uint256",
          "name": "",
          "type": "uint256"
        }
      ],
      "stateMutability": "view",
      "type": "function"
    },
    {
      "inputs": [
        {
          "internalType": "bytes32",
          "name": "",
          "type": "bytes32"
        }
      ],
      "name": "positions",
      "outputs": [
        {
          "internalType": "uint256",
          "name": "size",
          "type": "uint256"
        },
        {
          "internalType": "uint256",
          "name": "collateral",
          "type": "uint256"
        },
        {
          "internalType": "uint256",
          "name": "averagePrice",
          "type": "uint256"
        },
        {
          "internalType": "uint256",
          "name": "entryFundingRate",
          "type": "uint256"
        },
        {
          "internalType": "uint256",
          "name": "reserveAmount",
          "type": "uint256"
        },
        {
          "internalType": "int256",
          "name": "realisedPnl",
          "type": "int256"
        },
        {
          "internalType": "uint256",
          "name": "lastIncreasedTime",
          "type": "uint256"
        }
      ],
      "stateMutability": "view",
      "type": "function"
    },
    {
      "inputs": [
        {
          "internalType": "address",
          "name": "",
          "type": "address"
        }
      ],
      "name": "reservedAmounts",
      "outputs": [
        {
          "internalType": "uint256",
          "name": "",
          "type": "uint256"
        }
      ],
      "stateMutability": "view",
      "type": "function"
    },
    {
      "inputs": [
        {
          "internalType": "address",
          "name": "_token",
          "type": "address"
        },
        {
          "internalType": "address",
          "name": "_receiver",
          "type": "address"
        }
      ],
      "name": "sellUSDPH",
      "outputs": [
        {
          "internalType": "uint256",
          "name": "",
          "type": "uint256"
        }
      ],
      "stateMutability": "nonpayable",
      "type": "function"
    },
    {
      "inputs": [
        {
          "internalType": "address",
          "name": "_token",
          "type": "address"
        },
        {
          "components": [
            {
              "internalType": "bool",
              "name": "isWhitelisted",
              "type": "bool"
            },
            {
              "internalType": "uint256",
              "name": "decimals",
              "type": "uint256"
            },
            {
              "internalType": "uint256",
              "name": "weight",
              "type": "uint256"
            },
            {
              "internalType": "uint256",
              "name": "minProfitBps",
              "type": "uint256"
            },
            {
              "internalType": "uint256",
              "name": "maxUsdphAmount",
              "type": "uint256"
            },
            {
              "internalType": "bool",
              "name": "isStable",
              "type": "bool"
            },
            {
              "internalType": "bool",
              "name": "isShortable",
              "type": "bool"
            },
            {
              "internalType": "uint256",
              "name": "bufferAmount",
              "type": "uint256"
            },
            {
              "internalType": "uint256",
              "name": "maxGlobalShortSize",
              "type": "uint256"
            }
          ],
          "internalType": "struct DataTypes.TokenConfig",
          "name": "tokenConfig",
          "type": "tuple"
        }
      ],
      "name": "setTokenConfig",
      "outputs": [],
      "stateMutability": "nonpayable",
      "type": "function"
    },
    {
      "inputs": [
        {
          "components": [
            {
              "internalType": "bool",
              "name": "isSwapEnabled",
              "type": "bool"
            },
            {
              "internalType": "bool",
              "name": "isLeverageEnabled",
              "type": "bool"
            },
            {
              "internalType": "uint256",
              "name": "maxLeverage",
              "type": "uint256"
            },
            {
              "internalType": "uint256",
              "name": "maxGasPrice",
              "type": "uint256"
            },
            {
              "internalType": "uint256",
              "name": "taxBps",
              "type": "uint256"
            },
            {
              "internalType": "uint256",
              "name": "stableTaxBps",
              "type": "uint256"
            },
            {
              "internalType": "uint256",
              "name": "mintBurnFeeBps",
              "type": "uint256"
            },
            {
              "internalType": "uint256",
              "name": "swapFeeBps",
              "type": "uint256"
            },
            {
              "internalType": "uint256",
              "name": "stableSwapFeeBps",
              "type": "uint256"
            },
            {
              "internalType": "uint256",
              "name": "marginFeeBps",
              "type": "uint256"
            },
            {
              "internalType": "uint256",
              "name": "_marginFeeBps",
              "type": "uint256"
            },
            {
              "internalType": "uint256",
              "name": "maxMarginFeeBps",
              "type": "uint256"
            },
            {
              "internalType": "uint256",
              "name": "liquidationFeeUsd",
              "type": "uint256"
            },
            {
              "internalType": "uint256",
              "name": "minProfitTime",
              "type": "uint256"
            },
            {
              "internalType": "bool",
              "name": "hasDynamicFees",
              "type": "bool"
            },
            {
              "internalType": "uint256",
              "name": "stakingBps",
              "type": "uint256"
            },
            {
              "internalType": "uint256",
              "name": "fundingInterval",
              "type": "uint256"
            },
            {
              "internalType": "uint256",
              "name": "fundingRateFactor",
              "type": "uint256"
            },
            {
              "internalType": "uint256",
              "name": "stableFundingRateFactor",
              "type": "uint256"
            }
          ],
          "internalType": "struct DataTypes.VaultConfig",
          "name": "vaultConfig",
          "type": "tuple"
        }
      ],
      "name": "setVaultConfig",
      "outputs": [],
      "stateMutability": "nonpayable",
      "type": "function"
    },
    {
      "inputs": [
        {
          "internalType": "address",
          "name": "_tokenIn",
          "type": "address"
        },
        {
          "internalType": "address",
          "name": "_tokenOut",
          "type": "address"
        },
        {
          "internalType": "address",
          "name": "_receiver",
          "type": "address"
        }
      ],
      "name": "swap",
      "outputs": [
        {
          "internalType": "uint256",
          "name": "",
          "type": "uint256"
        }
      ],
      "stateMutability": "nonpayable",
      "type": "function"
    },
    {
      "inputs": [
        {
          "internalType": "address",
          "name": "",
          "type": "address"
        }
      ],
      "name": "tokenBalances",
      "outputs": [
        {
          "internalType": "uint256",
          "name": "",
          "type": "uint256"
        }
      ],
      "stateMutability": "view",
      "type": "function"
    },
    {
      "inputs": [
        {
          "internalType": "address",
          "name": "_token",
          "type": "address"
        },
        {
          "internalType": "uint256",
          "name": "_tokenAmount",
          "type": "uint256"
        }
      ],
      "name": "tokenToUsdMin",
      "outputs": [
        {
          "internalType": "uint256",
          "name": "",
          "type": "uint256"
        }
      ],
      "stateMutability": "view",
      "type": "function"
    },
    {
      "inputs": [],
      "name": "totalTokenWeights",
      "outputs": [
        {
          "internalType": "uint256",
          "name": "",
          "type": "uint256"
        }
      ],
      "stateMutability": "view",
      "type": "function"
    },
    {
      "inputs": [
        {
          "internalType": "address",
          "name": "newTreasury",
          "type": "address"
        }
      ],
      "name": "transferTreasury",
      "outputs": [],
      "stateMutability": "nonpayable",
      "type": "function"
    },
    {
      "inputs": [],
      "name": "treasury",
      "outputs": [
        {
          "internalType": "address",
          "name": "",
          "type": "address"
        }
      ],
      "stateMutability": "view",
      "type": "function"
    },
    {
      "inputs": [
        {
          "internalType": "address",
          "name": "_collateralToken",
          "type": "address"
        },
        {
          "internalType": "address",
          "name": "_indexToken",
          "type": "address"
        }
      ],
      "name": "updateCumulativeFundingRate",
      "outputs": [],
      "stateMutability": "nonpayable",
      "type": "function"
    },
    {
      "inputs": [
        {
          "internalType": "address",
          "name": "",
          "type": "address"
        }
      ],
      "name": "usdphAmounts",
      "outputs": [
        {
          "internalType": "uint256",
          "name": "",
          "type": "uint256"
        }
      ],
      "stateMutability": "view",
      "type": "function"
    },
    {
      "inputs": [
        {
          "internalType": "address",
          "name": "_account",
          "type": "address"
        },
        {
          "internalType": "address",
          "name": "_collateralToken",
          "type": "address"
        },
        {
          "internalType": "address",
          "name": "_indexToken",
          "type": "address"
        },
        {
          "internalType": "bool",
          "name": "_isLong",
          "type": "bool"
        },
        {
          "internalType": "bool",
          "name": "_raise",
          "type": "bool"
        }
      ],
      "name": "validateLiquidation",
      "outputs": [
        {
          "internalType": "uint256",
          "name": "",
          "type": "uint256"
        },
        {
          "internalType": "uint256",
          "name": "",
          "type": "uint256"
        }
      ],
      "stateMutability": "view",
      "type": "function"
    },
    {
      "inputs": [
        {
          "internalType": "address",
          "name": "_token",
          "type": "address"
        },
        {
          "internalType": "address",
          "name": "_receiver",
          "type": "address"
        }
      ],
      "name": "withdrawFees",
      "outputs": [
        {
          "internalType": "uint256",
          "name": "",
          "type": "uint256"
        }
      ],
      "stateMutability": "nonpayable",
      "type": "function"
    }
  ],
  "bytecode": "0x60806040523480156200001157600080fd5b5060405162005ace38038062005ace8339810160408190526200003491620000a8565b600080546001600160a01b0319166001600160a01b03831690811782556040518392907febebcc22237fa047dcfebf54b185ec126c9b24d45f4bd2a18e4fa02e07308c40908290a3505060018055600280546001600160a01b0319166001600160a01b0392909216919091179055620000ff565b60008060408385031215620000bb578182fd5b8251620000c881620000e6565b6020840151909250620000db81620000e6565b809150509250929050565b6001600160a01b0381168114620000fc57600080fd5b50565b6159bf806200010f6000396000f3fe608060405234801561001057600080fd5b50600436106102bb5760003560e01c80638a78daa811610182578063cb67e3b1116100e9578063dc8f5fac116100a2578063e67f59a71161007c578063e67f59a714610636578063f07456ce14610649578063f25552781461065c578063fbfded6d1461066f576102bb565b8063dc8f5fac14610608578063de2ea94814610610578063e468baf014610623576102bb565b8063cb67e3b11461057b578063d54d5a9f1461059b578063d8a6021c146105bc578063d8f897c3146105cf578063da76524c146105e2578063db97495f146105f5576102bb565b8063b136ca491161013b578063b136ca4914610512578063b1cc53ab14610525578063b2a2353e14610538578063c3c7b9e91461054d578063c65bc7b114610560578063c72c4d1014610573576102bb565b80638a78daa8146104ab5780638f45aba9146104be57806393316212146104d157806395082d25146104e45780639d7432ca146104ec578063a93acac2146104ff576102bb565b8063514ea4bf116102265780635f7bc119116101df5780635f7bc1191461044257806361d027b314610455578063627498031461046a5780636be6026b1461047d57806382a0849014610485578063843d439914610498576102bb565b8063514ea4bf146103af578063523fba7f146103d557806352f55eed146103e85780635bae4263146103fb5780635c07eaab1461040e5780635da69ed71461042f576102bb565b806329ff96151161027857806329ff9615146103295780632c668ec11461033c578063421528731461034f57806342e851821461036257806348d91abf146103755780634a3f088d14610388576102bb565b806303563e67146102c05780630842b076146102de5780630a48d5a9146102e6578063126082cf146102f95780631ce9cb8f1461030157806328a32d5c14610314575b600080fd5b6102c8610682565b6040516102d59190615727565b60405180910390f35b6102c8610687565b6102c86102f4366004614e20565b61068d565b6102c86107eb565b6102c861030f366004614a70565b6107f1565b610327610322366004614ddf565b610802565b005b6102c8610337366004614a70565b61087a565b6102c861034a366004614e20565b610891565b6102c861035d36600461500c565b610a52565b6102c8610370366004614a70565b610b89565b610327610383366004614cc4565b610b9b565b61039b610396366004614b2a565b611093565b6040516102d598979695949392919061573e565b6103c26103bd366004614fc4565b61117d565b6040516102d59796959493929190615256565b6102c86103e3366004614a70565b6111ba565b6102c86103f6366004614a70565b6111cc565b6102c8610409366004614aa8565b6111de565b61042161041c366004614e7f565b611531565b6040516102d592919061518e565b6102c861043d366004614aa8565b6115df565b610327610450366004614a70565b6119d2565b61045d611aaa565b6040516102d59190615099565b6102c8610478366004614a70565b611ab9565b6102c8611acb565b6102c8610493366004614d1d565b611ad2565b6102c86104a6366004614f34565b611bbe565b6102c86104b9366004614a70565b611c69565b6103276104cc366004614fdc565b611c7b565b6102c86104df366004614ae0565b611c95565b6102c861214b565b6102c86104fa366004614e4b565b61215c565b6102c861050d366004614a70565b612205565b6102c8610520366004614a70565b61229c565b6102c8610533366004614da0565b612341565b6105406123d9565b6040516102d59190615634565b6102c861055b366004614a70565b6124a4565b6102c861056e366004614a70565b6124b6565b61045d6124c8565b61058e610589366004614a70565b6124d7565b6040516102d591906154dc565b6105ae6105a9366004614bf5565b612570565b6040516102d5929190615730565b6103276105ca366004614a70565b612610565b6102c86105dd366004614a70565b6126bf565b6102c86105f0366004614c57565b6126d1565b6102c8610603366004614ed0565b612772565b6102c8612803565b61032761061e366004614b85565b612809565b61045d610631366004614fc4565b612ce5565b610327610644366004614a70565b612d12565b6102c8610657366004614a70565b612d87565b6102c861066a366004614aa8565b612d99565b61032761067d366004614aa8565b612e43565b601281565b60165490565b60008161069c575060006107e5565b6107e260156002016000856001600160a01b03166001600160a01b0316815260200190815260200160002060010154600a0a6107dc600260009054906101000a90046001600160a01b03166001600160a01b031663fca513a86040518163ffffffff1660e01b815260040160206040518083038186803b15801561071f57600080fd5b505afa158015610733573d6000803e3d6000fd5b505050506040513d601f19601f820116820180604052508101906107579190614a8c565b6001600160a01b03166376d697608760006040518363ffffffff1660e01b8152600401610785929190615139565b60206040518083038186803b15801561079d57600080fd5b505afa1580156107b1573d6000803e3d6000fd5b505050506040513d601f19601f820116820180604052508101906107d59190614ff4565b8590613022565b9061307b565b90505b92915050565b61271081565b602080526000908152604090205481565b61080a6130e2565b6040516326286a1760e21b815273__$b78f613ea061fec7c9d435e56b901996b3$__906398a1a85c90610846906015908690869060040161558c565b60006040518083038186803b15801561085e57600080fd5b505af4158015610872573d6000803e3d6000fd5b505050505050565b6000610889826102f48461229c565b90505b919050565b600080600260009054906101000a90046001600160a01b03166001600160a01b031663fca513a86040518163ffffffff1660e01b815260040160206040518083038186803b1580156108e257600080fd5b505afa1580156108f6573d6000803e3d6000fd5b505050506040513d601f19601f8201168201806040525081019061091a9190614a8c565b6001600160a01b03166376d697608560016040518363ffffffff1660e01b8152600401610948929190615139565b60206040518083038186803b15801561096057600080fd5b505afa158015610974573d6000803e3d6000fd5b505050506040513d601f19601f820116820180604052508101906109989190614ff4565b905060006109b7826107dc866c0c9f2c9cd04674edea40000000613022565b9050610a4981600260009054906101000a90046001600160a01b03166001600160a01b0316638ad6de4e6040518163ffffffff1660e01b815260040160206040518083038186803b158015610a0b57600080fd5b505afa158015610a1f573d6000803e3d6000fd5b505050506040513d601f19601f82011682018060405250810190610a439190614a8c565b87610a52565b95945050505050565b600080600260009054906101000a90046001600160a01b03166001600160a01b0316638ad6de4e6040518163ffffffff1660e01b815260040160206040518083038186803b158015610aa357600080fd5b505afa158015610ab7573d6000803e3d6000fd5b505050506040513d601f19601f82011682018060405250810190610adb9190614a8c565b90506000816001600160a01b0316856001600160a01b031614610b19576001600160a01b038516600090815260176020526040902060010154610b1c565b60125b90506000826001600160a01b0316856001600160a01b031614610b5a576001600160a01b038516600090815260176020526040902060010154610b5d565b60125b9050610b7c82600a0a6107dc83600a0a8a61302290919063ffffffff16565b93505050505b9392505050565b60196020526000908152604090205481565b60026001541415610be1576040805162461bcd60e51b815260206004820152601f60248201526000805160206158c3833981519152604482015290519081900360640190fd5b6002600155604051634755223960e01b815273__$b78f613ea061fec7c9d435e56b901996b3$__90634755223990610c2490601590889088908790600401615565565b60006040518083038186803b158015610c3c57600080fd5b505af4158015610c50573d6000803e3d6000fd5b505060025460405163087939f760e11b815273__$4da268b6594158c99595fc242692fce69d$__93506310f273ee9250610ca0916001600160a01b03169089908990899089908990600401615330565b60006040518083038186803b158015610cb857600080fd5b505af4158015610ccc573d6000803e3d6000fd5b50505050610cda8484612e43565b6000610ce88686868561317d565b6000818152601f602090815260408083206002548251631f94a27560e31b8152925195965090946001600160a01b039091169263fca513a89260048082019391829003018186803b158015610d3c57600080fd5b505afa158015610d50573d6000803e3d6000fd5b505050506040513d601f19601f82011682018060405250810190610d749190614a8c565b6001600160a01b03166376d6976087866040518363ffffffff1660e01b8152600401610da1929190615139565b60206040518083038186803b158015610db957600080fd5b505afa158015610dcd573d6000803e3d6000fd5b505050506040513d601f19601f82011682018060405250810190610df19190614ff4565b8254909150610e0257600282018190555b815415801590610e125750600085115b15610e3857610e32868360000154846002015487858a8860060154612772565b60028301555b6000610e51898989888a886000015489600301546131b6565b90506000610e5e89613337565b90506000610e6c8a8361068d565b6001860154909150610e7e90826133ef565b60018601819055610e9390841115601d613449565b6001850154610ea29084613482565b6001860155610eb28a8a89612341565b60038601558454610ec390896133ef565b808655426006870155610ed9901515601e613449565b610eeb856000015486600101546134df565b610ef98b8b8b8a6001612570565b50506000610f098b8a6001613503565b6004870154909150610f1b90826133ef565b6004870155610f2a8b82613638565b8715610f7157610f438b610f3e8b876133ef565b6136cd565b610f4d8b8361373e565b610f578b846137af565b610f6c8b610f678d876000613503565b6138c7565b610fdd565b6001600160a01b038a16600090815260216020526040902054610fae576001600160a01b038a166000908152602260205260409020859055610fd3565b610fb98a868b61215c565b6001600160a01b038b166000908152602260205260409020555b610fdd8a8a613985565b7f2fe68525253654c21998f35787a8d0f361905ef647c854092430ab65f2f15022878d8d8d868e8e8c8c60405161101c999897969594939291906151f2565b60405180910390a17f20853733b590dce729d9f4628682ebd9a34d2354e72679e66f43a008fc03b773878760000154886001015489600201548a600301548b600401548c600501548c604051611079989796959493929190615286565b60405180910390a150506001805550505050505050505050565b6000806000806000806000806000601f60006110b18f8f8f8f61317d565b81526020019081526020016000206040518060e001604052908160008201548152602001600182015481526020016002820154815260200160038201548152602001600482015481526020016005820154815260200160068201548152505090506000808260a001511361112c578160a00151600003611132565b8160a001515b9050816000015182602001518360400151846060015185608001518560008860a0015112158860c0015199509950995099509950995099509950505094995094995094999196509450565b601f602052600090815260409020805460018201546002830154600384015460048501546005860154600690960154949593949293919290919087565b60186020526000908152604090205481565b601a6020526000908152604090205481565b600060026001541415611226576040805162461bcd60e51b815260206004820152601f60248201526000805160206158c3833981519152604482015290519081900360640190fd5b60026001556112336139fd565b6001600160a01b03831660009081526017602052604090205461125a9060ff166013613449565b6002546040805163456b6f2760e11b815290516000926001600160a01b031691638ad6de4e916004808301926020929190829003018186803b15801561129f57600080fd5b505afa1580156112b3573d6000803e3d6000fd5b505050506040513d601f19601f820116820180604052508101906112d79190614a8c565b905060006112e482613337565b90506112f4600082116014613449565b6112fe8586612e43565b600061130a8683610891565b905061131a600082116015613449565b6113248683613a95565b61132e86826138c7565b604051632770a7eb60e21b81526001600160a01b03841690639dc29fac9061135c9030908690600401615154565b600060405180830381600087803b15801561137657600080fd5b505af115801561138a573d6000803e3d6000fd5b50506040516370a0823160e01b81526001600160a01b03861692506370a0823191506113ba903090600401615099565b60206040518083038186803b1580156113d257600080fd5b505afa1580156113e6573d6000803e3d6000fd5b505050506040513d601f19601f8201168201806040525081019061140a9190614ff4565b6001600160a01b0380851660009081526018602052604080822093909355600254925163562b7e0760e11b8152909273__$4da268b6594158c99595fc242692fce69d$__9263ac56fc0e9261146992909116908b9088906004016153dc565b60206040518083038186803b15801561148157600080fd5b505af4158015611495573d6000803e3d6000fd5b505050506040513d601f19601f820116820180604052508101906114b99190614ff4565b905060006114c8888484613b68565b90506114d8600082116016613449565b6114e3888289613c5e565b7ff0769e076d0b71b7205e1d6800e3ede98265f5a21bacbd6067947cbe7a3fa671878986848660405161151a959493929190615108565b60405180910390a160018055979650505050505050565b60025460405163067dc85960e51b8152600091829173__$4da268b6594158c99595fc242692fce69d$__9163cfb90b2091611582916001600160a01b0316908b908b908b908b908b90600401615400565b604080518083038186803b15801561159957600080fd5b505af41580156115ad573d6000803e3d6000fd5b505050506040513d601f19601f820116820180604052508101906115d19190614f97565b915091509550959350505050565b600060026001541415611627576040805162461bcd60e51b815260206004820152601f60248201526000805160206158c3833981519152604482015290519081900360640190fd5b60026001556116346139fd565b6001600160a01b03831660009081526017602052604090205461165b9060ff166010613449565b6002546040805163456b6f2760e11b815290516000926001600160a01b031691638ad6de4e916004808301926020929190829003018186803b1580156116a057600080fd5b505afa1580156116b4573d6000803e3d6000fd5b505050506040513d601f19601f820116820180604052508101906116d89190614a8c565b905060006116e585613337565b90506116f5600082116011613449565b6116ff8586612e43565b60025460408051631f94a27560e31b815290516000926001600160a01b03169163fca513a8916004808301926020929190829003018186803b15801561174457600080fd5b505afa158015611758573d6000803e3d6000fd5b505050506040513d601f19601f8201168201806040525081019061177c9190614a8c565b6001600160a01b03166376d697608760006040518363ffffffff1660e01b81526004016117aa929190615139565b60206040518083038186803b1580156117c257600080fd5b505afa1580156117d6573d6000803e3d6000fd5b505050506040513d601f19601f820116820180604052508101906117fa9190614ff4565b905060006118196c0c9f2c9cd04674edea400000006107dc8585613022565b9050611826818886610a52565b9050611836600082116012613449565b6002546040516360d41f1560e11b815260009173__$4da268b6594158c99595fc242692fce69d$__9163c1a83e2a91611881916001600160a01b03909116908c9087906004016153dc565b60206040518083038186803b15801561189957600080fd5b505af41580156118ad573d6000803e3d6000fd5b505050506040513d601f19601f820116820180604052508101906118d19190614ff4565b905060006118e0898684613b68565b905060006118ff6c0c9f2c9cd04674edea400000006107dc8488613022565b905061190c818b89610a52565b90506119188a82613d0f565b6119228a836137af565b6040516340c10f1960e01b81526001600160a01b038816906340c10f1990611950908c908590600401615154565b600060405180830381600087803b15801561196a57600080fd5b505af115801561197e573d6000803e3d6000fd5b505050507fc6c8b444f53d4e65122f6f9780fd7db1ff1a47d82ff0cbb2f450eee0c289e534898b8884876040516119b9959493929190615108565b60405180910390a1600180559998505050505050505050565b60026001541415611a18576040805162461bcd60e51b815260206004820152601f60248201526000805160206158c3833981519152604482015290519081900360640190fd5b60026001556001600160a01b038116600090815260176020526040902054611a449060ff16600e613449565b6000611a4f82613337565b9050611a5f60008211600f613449565b611a6982826137af565b7fa5a389190ebf6170a133bda5c769b77f4d6715b8aa172ec0ddf8473d0b4944bd8282604051611a9a929190615154565b60405180910390a1505060018055565b6000546001600160a01b031690565b60226020526000908152604090205481565b620f424081565b600060026001541415611b1a576040805162461bcd60e51b815260206004820152601f60248201526000805160206158c3833981519152604482015290519081900360640190fd5b600260018190555460405163d44c289f60e01b815273__$4da268b6594158c99595fc242692fce69d$__9163d44c289f91611b6f916001600160a01b0316908c908c908c908c908c908c908c9060040161536a565b60006040518083038186803b158015611b8757600080fd5b505af4158015611b9b573d6000803e3d6000fd5b50505050611bae88888888888888613db8565b6001805598975050505050505050565b6002546040516308e83b0160e21b815260009173__$4da268b6594158c99595fc242692fce69d$__916323a0ec0491611c0f916001600160a01b03909116908a908a908a908a908a90600401615438565b60206040518083038186803b158015611c2757600080fd5b505af4158015611c3b573d6000803e3d6000fd5b505050506040513d601f19601f82011682018060405250810190611c5f9190614ff4565b9695505050505050565b60216020526000908152604090205481565b611c836130e2565b806003611c908282615798565b505050565b600060026001541415611cdd576040805162461bcd60e51b815260206004820152601f60248201526000805160206158c3833981519152604482015290519081900360640190fd5b6002600155600354611cf39060ff166017613449565b6001600160a01b038416600090815260176020526040902054611d1a9060ff166018613449565b6001600160a01b038316600090815260176020526040902054611d419060ff166019613449565b611d61836001600160a01b0316856001600160a01b03161415601a613449565b611d6b8485612e43565b611d758384612e43565b6000611d8085613337565b9050611d9060008211601b613449565b60025460408051631f94a27560e31b815290516000926001600160a01b03169163fca513a8916004808301926020929190829003018186803b158015611dd557600080fd5b505afa158015611de9573d6000803e3d6000fd5b505050506040513d601f19601f82011682018060405250810190611e0d9190614a8c565b90506000816001600160a01b03166376d697608860006040518363ffffffff1660e01b8152600401611e40929190615139565b60206040518083038186803b158015611e5857600080fd5b505afa158015611e6c573d6000803e3d6000fd5b505050506040513d601f19601f82011682018060405250810190611e909190614ff4565b90506000826001600160a01b03166376d697608860016040518363ffffffff1660e01b8152600401611ec3929190615139565b60206040518083038186803b158015611edb57600080fd5b505afa158015611eef573d6000803e3d6000fd5b505050506040513d601f19601f82011682018060405250810190611f139190614ff4565b90506000611f25826107dc8786613022565b9050611f32818a8a610a52565b90506000611f516c0c9f2c9cd04674edea400000006107dc8887613022565b9050611fde818b600260009054906101000a90046001600160a01b03166001600160a01b0316638ad6de4e6040518163ffffffff1660e01b815260040160206040518083038186803b158015611fa657600080fd5b505afa158015611fba573d6000803e3d6000fd5b505050506040513d601f19601f8201168201806040525081019061035d9190614a8c565b6002546040516321f8d70b60e21b815291925060009173__$4da268b6594158c99595fc242692fce69d$__916387e35c2c9161202c916001600160a01b0316908f908f9088906004016153b2565b60206040518083038186803b15801561204457600080fd5b505af4158015612058573d6000803e3d6000fd5b505050506040513d601f19601f8201168201806040525081019061207c9190614ff4565b9050600061208b8b8584613b68565b90506120978c84613d0f565b6120a18b84613a95565b6120ab8c896137af565b6120b58b856138c7565b6001600160a01b038b16600090815260176020908152604080832060060154601a909252909120546120ea9111156064613449565b6120f58b828c613c5e565b7f0874b2d545cb271cdbda4e093020c452328b24af12382ed62c4d00f5c26709db8a8d8d8b88868860405161213097969594939291906150c7565b60405180910390a1600180559b9a5050505050505050505050565b6c0c9f2c9cd04674edea4000000081565b6001600160a01b038316600090815260216020908152604080832054602290925282205482858211612197576121928683613482565b6121a1565b6121a18287613482565b905060006121b3836107dc8685613022565b905086831160006121c486896133ef565b90506000826121dc576121d782856133ef565b6121e6565b6121e68285613482565b90506121f6816107dc8c85613022565b9b9a5050505050505050505050565b6002546040516246b9f360e11b815260009173__$4da268b6594158c99595fc242692fce69d$__91628d73e69161224c916001600160a01b039091169086906004016150ad565b60206040518083038186803b15801561226457600080fd5b505af4158015612278573d6000803e3d6000fd5b505050506040513d601f19601f820116820180604052508101906108899190614ff4565b6001600160a01b03811660009081526017602052604081206005015460ff16156122df57506001600160a01b0381166000908152601a602052604090205461088c565b6001600160a01b0382166000908152601c602052604081205461230490849083613503565b6001600160a01b0384166000908152601b6020908152604080832054601a90925290912054919250610b829161233b9084906133ef565b90613482565b60405163429a429f60e01b815260009073__$4da268b6594158c99595fc242692fce69d$__9063429a429f906123819030908890889088906004016154b2565b60206040518083038186803b15801561239957600080fd5b505af41580156123ad573d6000803e3d6000fd5b505050506040513d601f19601f820116820180604052508101906123d19190614ff4565b949350505050565b6123e161497b565b50604080516102608101825260035460ff8082161515835261010091829004811615156020840152600454938301939093526005546060830152600654608083015260075460a083015260085460c083015260095460e0830152600a5490820152600b54610120820152600c54610140820152600d54610160820152600e54610180820152600f546101a082015260105490911615156101c08201526011546101e082015260125461020082015260135461022082015260145461024082015290565b601b6020526000908152604090205481565b601d6020526000908152604090205481565b6002546001600160a01b031681565b6124df614a13565b506001600160a01b0316600090815260176020908152604091829020825161012081018452815460ff9081161515825260018301549382019390935260028201549381019390935260038101546060840152600481015460808401526005810154808316151560a085015261010090819004909216151560c0840152600681015460e0840152600701549082015290565b600254604051634e9c917560e01b8152600091829173__$4da268b6594158c99595fc242692fce69d$__91634e9c9175916125c1916001600160a01b0316908b908b908b908b908b906004016152bc565b604080518083038186803b1580156125d857600080fd5b505af41580156125ec573d6000803e3d6000fd5b505050506040513d601f19601f820116820180604052508101906115d19190615032565b6126186142f2565b6001600160a01b0316612629611aaa565b6001600160a01b03161461266e5760405162461bcd60e51b815260040180806020018281038252602b8152602001806158e3602b913960400191505060405180910390fd5b6001600160a01b0381166126b35760405162461bcd60e51b815260040180806020018281038252603181526020018061592f6031913960400191505060405180910390fd5b6126bc816142f6565b50565b601e6020526000908152604090205481565b604051636df5632b60e11b815260009073__$4da268b6594158c99595fc242692fce69d$__9063dbeac656906127179030908b908b908b908b908b908b9060040161546e565b60206040518083038186803b15801561272f57600080fd5b505af4158015612743573d6000803e3d6000fd5b505050506040513d601f19601f820116820180604052508101906127679190614ff4565b979650505050505050565b60008060006127848a8a8a8a88611531565b909250905060006127958a876133ef565b9050600088156127c457836127b3576127ae8284613482565b6127bd565b6127bd82846133ef565b90506127e5565b836127d8576127d382846133ef565b6127e2565b6127e28284613482565b90505b6127f3816107dc8a85613022565b9c9b505050505050505050505050565b60155490565b6002600154141561284f576040805162461bcd60e51b815260206004820152601f60248201526000805160206158c3833981519152604482015290519081900360640190fd5b6002600181905554604080516335116f6f60e11b815290516128e89233926001600160a01b0390911691636a22dede91600480820192602092909190829003018186803b15801561289f57600080fd5b505afa1580156128b3573d6000803e3d6000fd5b505050506040513d601f19601f820116820180604052508101906128d79190614a8c565b6001600160a01b0316146022613449565b6128f28484612e43565b60006129008686868661317d565b6000818152601f6020908152604091829020825160e08101845281548082526001830154938201939093526002820154938101939093526003810154606084015260048101546080840152600581015460a08401526006015460c08301529192509061296f9015156023613449565b600080612980898989896000612570565b9150915061299382600014156024613449565b81600214156129ba576129b0898989600087600001518b8f613db8565b5050505050612cda565b60115460006129ca8a8483613503565b9050600082612710146129ec576129e76127106107dc8486613022565b6129ee565b815b6001600160a01b038c166000908152602080526040902054909150612a1390826133ef565b6001600160a01b038c1660009081526020805260409081902091909155517f5d0c0019d3d45fadeb74eff9d2c9924d146d000ac6bcf3c28bf0ac3c9baa011a90612a62908d908790859061516d565b60405180910390a180821115612a8557612a858b612a808484613482565b6137af565b612a938b8760800151614351565b8815612ac45760208601518651612ab4918d91612aaf91613482565b61373e565b612ac48b610f678d876000613503565b60025460408051631f94a27560e31b815290516000926001600160a01b03169163fca513a8916004808301926020929190829003018186803b158015612b0957600080fd5b505afa158015612b1d573d6000803e3d6000fd5b505050506040513d601f19601f82011682018060405250810190612b419190614a8c565b6001600160a01b03166376d697608c8c156040518363ffffffff1660e01b8152600401612b6f929190615139565b60206040518083038186803b158015612b8757600080fd5b505afa158015612b9b573d6000803e3d6000fd5b505050506040513d601f19601f82011682018060405250810190612bbf9190614ff4565b90507f2e1f85a64a2f22cf2f0c42584e7c919ed4abe8d53675cff0f62bf1e95a1c676f888e8e8e8e8c600001518d602001518e608001518f60a001518a604051612c129a9998979695949392919061519e565b60405180910390a189158015612c2b5750866020015185105b15612c56576020870151600090612c429087613482565b9050612c548d612a808f846000613503565b505b89612c6957612c698b88600001516143f9565b6000888152601f602052604081208181556001810182905560028101829055600381018290556004810182905560058101829055600601819055600e5490612cba908e90610f679082908590613503565b612cd08d612cca8f846000613503565b8c613c5e565b5050505050505050505b505060018055505050565b600060156001018281548110612cf757fe5b6000918252602090912001546001600160a01b031692915050565b612d1a6130e2565b604051632e43d10160e01b815273__$b78f613ea061fec7c9d435e56b901996b3$__90632e43d10190612d5490601590859060040161554e565b60006040518083038186803b158015612d6c57600080fd5b505af4158015612d80573d6000803e3d6000fd5b5050505050565b601c6020526000908152604090205481565b6000612da36142f2565b6001600160a01b0316612db4611aaa565b6001600160a01b031614612df95760405162461bcd60e51b815260040180806020018281038252602b8152602001806158e3602b913960400191505060405180910390fd5b6001600160a01b038316600090815260208052604090205480612e205760009150506107e5565b6001600160a01b03841660009081526020805260408120556107e2848285613c5e565b60405163fbfded6d60e01b815260009073__$4da268b6594158c99595fc242692fce69d$__9063fbfded6d90612e7f90869086906004016150ad565b60206040518083038186803b158015612e9757600080fd5b505af4158015612eab573d6000803e3d6000fd5b505050506040513d601f19601f82011682018060405250810190612ecf9190614f7b565b905080612edc575061301e565b6012546001600160a01b0384166000908152601e6020526040902054612f3157612f1081612f0a428261307b565b90613022565b6001600160a01b0385166000908152601e60205260409020555061301e9050565b6001600160a01b0384166000908152601e60205260409020544290612f5690836133ef565b1115612f6357505061301e565b6000612f6e85612205565b6001600160a01b0386166000908152601d6020526040902054909150612f9490826133ef565b6001600160a01b0386166000908152601d6020526040902055612fbb82612f0a428261307b565b6001600160a01b0386166000908152601e6020908152604080832093909355601d90528190205490517fa146fc154e1913322e9817d49f0d5c37466c24326e15de10e739a948be815eab9161301291889190615154565b60405180910390a15050505b5050565b600082613031575060006107e5565b8282028284828161303e57fe5b04146107e25760405162461bcd60e51b815260040180806020018281038252602181526020018061590e6021913960400191505060405180910390fd5b60008082116130d1576040805162461bcd60e51b815260206004820152601a60248201527f536166654d6174683a206469766973696f6e206279207a65726f000000000000604482015290519081900360640190fd5b8183816130da57fe5b049392505050565b6002546040805163d759932b60e01b8152905161317b926001600160a01b03169163d759932b916004808301926020929190829003018186803b15801561312857600080fd5b505afa15801561313c573d6000803e3d6000fd5b505050506040513d601f19601f820116820180604052508101906131609190614a8c565b6001600160a01b0316336001600160a01b0316146066613449565b565b600084848484604051602001613196949392919061505b565b604051602081830303815290604052805190602001209050949350505050565b60008061326c6131ca8a8a8a8a89896126d1565b60025460405163d4b9aa6360e01b815273__$4da268b6594158c99595fc242692fce69d$__9163d4b9aa6391613216916001600160a01b0316908f908f908f908f908f906004016152f6565b60206040518083038186803b15801561322e57600080fd5b505af4158015613242573d6000803e3d6000fd5b505050506040513d601f19601f820116820180604052508101906132669190614ff4565b906133ef565b9050600061327c89836000613503565b9050600061329e6127106107dc6003600e01548561302290919063ffffffff16565b6001600160a01b038b1660009081526020805260409020549091506132c390826133ef565b6001600160a01b038b1660009081526020805260409081902091909155517f5d0c0019d3d45fadeb74eff9d2c9924d146d000ac6bcf3c28bf0ac3c9baa011a90613312908c908690859061516d565b60405180910390a16133288a612a808484613482565b50909998505050505050505050565b6001600160a01b0381166000818152601860205260408082205490516370a0823160e01b8152919290918391906370a0823190613378903090600401615099565b60206040518083038186803b15801561339057600080fd5b505afa1580156133a4573d6000803e3d6000fd5b505050506040513d601f19601f820116820180604052508101906133c89190614ff4565b6001600160a01b038516600090815260186020526040902081905590506123d18183613482565b6000828201838110156107e2576040805162461bcd60e51b815260206004820152601b60248201527f536166654d6174683a206164646974696f6e206f766572666c6f770000000000604482015290519081900360640190fd5b60405163cda9d28760e01b815273__$4f8bc482092a6098cbfc784738a0424e8d$__9063cda9d28790610846908590859060040161518e565b6000828211156134d9576040805162461bcd60e51b815260206004820152601e60248201527f536166654d6174683a207375627472616374696f6e206f766572666c6f770000604482015290519081900360640190fd5b50900390565b816134f5576134f081156027613449565b61301e565b61301e818310156028613449565b60008261351257506000610b82565b60025460408051631f94a27560e31b815290516123d1926001600160a01b03169163fca513a8916004808301926020929190829003018186803b15801561355857600080fd5b505afa15801561356c573d6000803e3d6000fd5b505050506040513d601f19601f820116820180604052508101906135909190614a8c565b6001600160a01b03166376d697608685156040518363ffffffff1660e01b81526004016135be929190615139565b60206040518083038186803b1580156135d657600080fd5b505afa1580156135ea573d6000803e3d6000fd5b505050506040513d601f19601f8201168201806040525081019061360e9190614ff4565b6001600160a01b0386166000908152601760205260409020600101546107dc908690600a0a613022565b6001600160a01b0382166000908152601b602052604090205461365b90826133ef565b6001600160a01b0383166000908152601b60208181526040808420859055601a82529092205491526136909111156034613449565b7faa5649d82f5462be9d19b0f2b31a59b2259950a6076550bac9f3a1c07db9f66d82826040516136c1929190615154565b60405180910390a15050565b6001600160a01b0382166000908152601c60205260409020546136f090826133ef565b6001600160a01b0383166000908152601c60205260409081902091909155517fd9d4761f75e0d0103b5cbeab941eeb443d7a56a35b5baf2a0787c03f03f4e474906136c19084908490615154565b6001600160a01b0382166000908152601c60205260409020546137619082613482565b6001600160a01b0383166000908152601c60205260409081902091909155517f34e07158b9db50df5613e591c44ea2ebc82834eff4a4dc3a46e000e608261d68906136c19084908490615154565b6001600160a01b0382166000908152601a60205260409020546137d290826133ef565b6001600160a01b0383166000818152601a60205260408082209390935591516370a0823160e01b81526370a082319061380f903090600401615099565b60206040518083038186803b15801561382757600080fd5b505afa15801561383b573d6000803e3d6000fd5b505050506040513d601f19601f8201168201806040525081019061385f9190614ff4565b6001600160a01b0384166000908152601a6020526040902054909150613889908210156031613449565b7f976177fbe09a15e5e43f848844963a42b41ef919ef17ff21a17a5421de8f473783836040516138ba929190615154565b60405180910390a1505050565b604080518082018252601a8082527f5661756c743a20706f6f6c416d6f756e742065786365656465640000000000006020808401919091526001600160a01b03861660009081529190529190912054613921918390614461565b6001600160a01b0383166000908152601a60209081526040808320849055601b9091529020546139549110156032613449565b7f112726233fbeaeed0f5b1dba5cb0b2b81883dee49fb35ff99fd98ed9f6d31eb082826040516136c1929190615154565b6001600160a01b0382166000908152602160205260409020546139a890826133ef565b6001600160a01b0383166000908152602160209081526040808320939093556017905220600701548015611c90576001600160a01b038316600090815260216020526040902054611c90908210156065613449565b600254604080516251a4fb60e31b8152905161317b926001600160a01b03169163028d27d8916004808301926020929190829003018186803b158015613a4257600080fd5b505afa158015613a56573d6000803e3d6000fd5b505050506040513d601f19601f82011682018060405250810190613a7a9190614a8c565b6001600160a01b0316336001600160a01b0316146036613449565b6001600160a01b038216600090815260196020526040902054818111613b10576001600160a01b03831660009081526019602052604080822091909155517fda43d5cdf64be33afb6f3e9858581d78f3855a1f6fcb50e5eb86c0c5db312d1c90613b029085908490615154565b60405180910390a15061301e565b613b1a8183613482565b6001600160a01b0384166000908152601960205260409081902091909155517fda43d5cdf64be33afb6f3e9858581d78f3855a1f6fcb50e5eb86c0c5db312d1c906138ba9085908590615154565b600080613b856127106107dc613b7e8287613482565b8790613022565b90506000613b938583613482565b60115490915060006127108214613bb957613bb46127106107dc8585613022565b613bbb565b825b6001600160a01b0389166000908152602080526040902054909150613be090826133ef565b6001600160a01b03891660009081526020805260409020557f47cd9dda0e50ce30bcaaacd0488452b596221c07ac402a581cfae4d3933cac2b88613c24818661068d565b83604051613c349392919061516d565b60405180910390a180831115613c5257613c5288612a808584613482565b50919695505050505050565b613c726001600160a01b03841682846144f8565b6040516370a0823160e01b81526001600160a01b038416906370a0823190613c9e903090600401615099565b60206040518083038186803b158015613cb657600080fd5b505afa158015613cca573d6000803e3d6000fd5b505050506040513d601f19601f82011682018060405250810190613cee9190614ff4565b6001600160a01b039093166000908152601860205260409020929092555050565b6001600160a01b038216600090815260196020526040902054613d3290826133ef565b6001600160a01b0383166000908152601960209081526040808320939093556017905220600401548015613d87576001600160a01b038316600090815260196020526040902054613d87908210156033613449565b7ffbf914421322be849bbd116e701fe46b8e6b903e15192c1d479b8748a738452083836040516138ba929190615154565b6000613dc48787612e43565b6000613dd28989898761317d565b6000818152601f60208190526040909120805492935091613df69190151590613449565b613e0886826000015410156020613449565b613e1a87826001015410156021613449565b600181015481546004830154600091613e37916107dc908b613022565b6004840154909150613e499082613482565b6004840155613e588b82614351565b50600080613e6a8d8d8d8d8d8d61454a565b85549193509150891461409057613e828c8c8a612341565b60038501558354613e93908a613482565b8085556001850154613ea591906134df565b613eb38d8d8d8b6001612570565b50508715613ee057613ed68c610f3e86600101548661348290919063ffffffff16565b613ee08c8a61373e565b60025460408051631f94a27560e31b815290516000926001600160a01b03169163fca513a8916004808301926020929190829003018186803b158015613f2557600080fd5b505afa158015613f39573d6000803e3d6000fd5b505050506040513d601f19601f82011682018060405250810190613f5d9190614a8c565b6001600160a01b03166376d697608d8b156040518363ffffffff1660e01b8152600401613f8b929190615139565b60206040518083038186803b158015613fa357600080fd5b505afa158015613fb7573d6000803e3d6000fd5b505050506040513d601f19601f82011682018060405250810190613fdb9190614ff4565b90507f93d75d64d1f84fc6f430a64fc578bdd4c1e090e90ea2d51773e626d19de56d30868f8f8f8f8f8f886140108c8c613482565b604051614025999897969594939291906151f2565b60405180910390a17f20853733b590dce729d9f4628682ebd9a34d2354e72679e66f43a008fc03b7738686600001548760010154886002015489600301548a600401548b6005015488604051614082989796959493929190615286565b60405180910390a15061428c565b87156140aa576140a08c846136cd565b6140aa8c8a61373e565b60025460408051631f94a27560e31b815290516000926001600160a01b03169163fca513a8916004808301926020929190829003018186803b1580156140ef57600080fd5b505afa158015614103573d6000803e3d6000fd5b505050506040513d601f19601f820116820180604052508101906141279190614a8c565b6001600160a01b03166376d697608d8b156040518363ffffffff1660e01b8152600401614155929190615139565b60206040518083038186803b15801561416d57600080fd5b505afa158015614181573d6000803e3d6000fd5b505050506040513d601f19601f820116820180604052508101906141a59190614ff4565b90507f93d75d64d1f84fc6f430a64fc578bdd4c1e090e90ea2d51773e626d19de56d30868f8f8f8f8f8f886141da8c8c613482565b6040516141ef999897969594939291906151f2565b60405180910390a17f73af1d417d82c240fdb6d319b34ad884487c6bf2845d98980cc52ad9171cb4558686600001548760010154886002015489600301548a600401548b6005015460405161424a9796959493929190615256565b60405180910390a1506000858152601f602052604081208181556001810182905560028101829055600381018290556004810182905560058101829055600601555b8761429b5761429b8b8a6143f9565b81156142df5787156142b7576142b78c610f678e856000613503565b60006142c58d836000613503565b90506142d28d828a613c5e565b9550612767945050505050565b5060009c9b505050505050505050505050565b3390565b600080546040516001600160a01b03808516939216917febebcc22237fa047dcfebf54b185ec126c9b24d45f4bd2a18e4fa02e07308c4091a3600080546001600160a01b0319166001600160a01b0392909216919091179055565b604080518082018252601b8082527f5661756c743a20696e73756666696369656e74207265736572766500000000006020808401919091526001600160a01b038616600090815291905291909120546143ab918390614461565b6001600160a01b0383166000908152601b60205260409081902091909155517f533cb5ed32be6a90284e96b5747a1bfc2d38fdb5768a6b5f67ff7d62144ed67b906136c19084908490615154565b6001600160a01b0382166000908152602160205260409020548082111561443957506001600160a01b03821660009081526021602052604081205561301e565b6144438183613482565b6001600160a01b038416600090815260216020526040902055505050565b600081848411156144f05760405162461bcd60e51b81526004018080602001828103825283818151815260200191508051906020019080838360005b838110156144b557818101518382015260200161449d565b50505050905090810190601f1680156144e25780820380516001836020036101000a031916815260200191505b509250505060405180910390fd5b505050900390565b604080516001600160a01b038416602482015260448082018490528251808303909101815260649091019091526020810180516001600160e01b031663a9059cbb60e01b179052611c90908490614744565b600080600061455b8989898761317d565b6000818152601f60205260408120805460038201549394509092614588918d918d918d918b918d916131b6565b90506000806000806145a98d876000015488600201548d8a60060154611531565b875491955085935091506145c1906107dc8d84613022565b9250505060008280156145d45750600082115b1561460657506005840180548201905580886146065760006145f88e846000613503565b90506146048e826138c7565b505b821580156146145750600082115b1561465a5760018501546146289083613482565b60018601558861464e5760006146408e846000613503565b905061464c8e826137af565b505b60058501805483900390555b8a156146825761466a818c6133ef565b600186015490915061467c908c613482565b60018601555b84548a14156146a557600185015461469b9082906133ef565b6000600187015590505b80848111156146bf576146b88286613482565b90506146f5565b60018601546146ce9086613482565b600187015589156146f55760006146e78f876000613503565b90506146f38f826138c7565b505b7f3ff41bdde87755b687ae83d0221a232b6be51a803330ed9661c1b5d0105e0d8a87858560405161472893929190615240565b60405180910390a1909e909d509b505050505050505050505050565b6000614799826040518060400160405280602081526020017f5361666545524332303a206c6f772d6c6576656c2063616c6c206661696c6564815250856001600160a01b03166147f59092919063ffffffff16565b805190915015611c90578080602001905160208110156147b857600080fd5b5051611c905760405162461bcd60e51b815260040180806020018281038252602a815260200180615960602a913960400191505060405180910390fd5b60606123d18484600085856148098561490f565b61485a576040805162461bcd60e51b815260206004820152601d60248201527f416464726573733a2063616c6c20746f206e6f6e2d636f6e7472616374000000604482015290519081900360640190fd5b600080866001600160a01b031685876040518082805190602001908083835b602083106148985780518252601f199092019160209182019101614879565b6001836020036101000a03801982511681845116808217855250505050505090500191505060006040518083038185875af1925050503d80600081146148fa576040519150601f19603f3d011682016040523d82523d6000602084013e6148ff565b606091505b5091509150612767828286614915565b3b151590565b60608315614924575081610b82565b8251156149345782518084602001fd5b60405162461bcd60e51b81526020600482018181528451602484015284518593919283926044019190850190808383600083156144b557818101518382015260200161449d565b604051806102600160405280600015158152602001600015158152602001600081526020016000815260200160008152602001600081526020016000815260200160008152602001600081526020016000815260200160008152602001600081526020016000815260200160008152602001600015158152602001600081526020016000815260200160008152602001600081525090565b6040518061012001604052806000151581526020016000815260200160008152602001600081526020016000815260200160001515815260200160001515815260200160008152602001600081525090565b803561088c816158b4565b600060208284031215614a81578081fd5b81356107e28161589f565b600060208284031215614a9d578081fd5b81516107e28161589f565b60008060408385031215614aba578081fd5b8235614ac58161589f565b91506020830135614ad58161589f565b809150509250929050565b600080600060608486031215614af4578081fd5b8335614aff8161589f565b92506020840135614b0f8161589f565b91506040840135614b1f8161589f565b809150509250925092565b60008060008060808587031215614b3f578081fd5b8435614b4a8161589f565b93506020850135614b5a8161589f565b92506040850135614b6a8161589f565b91506060850135614b7a816158b4565b939692955090935050565b600080600080600060a08688031215614b9c578081fd5b8535614ba78161589f565b94506020860135614bb78161589f565b93506040860135614bc78161589f565b92506060860135614bd7816158b4565b91506080860135614be78161589f565b809150509295509295909350565b600080600080600060a08688031215614c0c578081fd5b8535614c178161589f565b94506020860135614c278161589f565b93506040860135614c378161589f565b92506060860135614c47816158b4565b91506080860135614be7816158b4565b60008060008060008060c08789031215614c6f578081fd5b8635614c7a8161589f565b95506020870135614c8a8161589f565b94506040870135614c9a8161589f565b93506060870135614caa816158b4565b9598949750929560808101359460a0909101359350915050565b600080600080600060a08688031215614cdb578081fd5b8535614ce68161589f565b94506020860135614cf68161589f565b93506040860135614d068161589f565b9250606086013591506080860135614be7816158b4565b600080600080600080600060e0888a031215614d37578485fd5b8735614d428161589f565b96506020880135614d528161589f565b95506040880135614d628161589f565b9450606088013593506080880135925060a0880135614d80816158b4565b915060c0880135614d908161589f565b8091505092959891949750929550565b600080600060608486031215614db4578081fd5b8335614dbf8161589f565b92506020840135614dcf8161589f565b91506040840135614b1f816158b4565b600080828403610140811215614df3578283fd5b8335614dfe8161589f565b9250610120601f1982011215614e12578182fd5b506020830190509250929050565b60008060408385031215614e32578182fd5b8235614e3d8161589f565b946020939093013593505050565b600080600060608486031215614e5f578081fd5b8335614e6a8161589f565b95602085013595506040909401359392505050565b600080600080600060a08688031215614e96578283fd5b8535614ea18161589f565b945060208601359350604086013592506060860135614ebf816158b4565b949793965091946080013592915050565b600080600080600080600060e0888a031215614eea578081fd5b8735614ef58161589f565b965060208801359550604088013594506060880135614f13816158b4565b9699959850939660808101359560a0820135955060c0909101359350915050565b600080600080600060a08688031215614f4b578283fd5b8535614f568161589f565b94506020860135935060408601359250606086013591506080860135614be7816158b4565b600060208284031215614f8c578081fd5b81516107e2816158b4565b60008060408385031215614fa9578182fd5b8251614fb4816158b4565b6020939093015192949293505050565b600060208284031215614fd5578081fd5b5035919050565b60006102608284031215614fee578081fd5b50919050565b600060208284031215615005578081fd5b5051919050565b600080600060608486031215615020578081fd5b833592506020840135614b0f8161589f565b60008060408385031215615044578182fd5b505080516020909101519092909150565b15159052565b6bffffffffffffffffffffffff19606095861b8116825293851b841660148201529190931b909116602882015290151560f81b603c820152603d0190565b6001600160a01b0391909116815260200190565b6001600160a01b0392831681529116602082015260400190565b6001600160a01b03978816815295871660208701529390951660408501526060840191909152608083015260a082019290925260c081019190915260e00190565b6001600160a01b03958616815293909416602084015260408301919091526060820152608081019190915260a00190565b6001600160a01b039290921682521515602082015260400190565b6001600160a01b03929092168252602082015260400190565b6001600160a01b039390931683526020830191909152604082015260600190565b9115158252602082015260400190565b998a526001600160a01b0398891660208b015296881660408a0152949096166060880152911515608087015260a086015260c085015260e08401929092526101008301919091526101208201526101400190565b9889526001600160a01b0397881660208a01529587166040890152939095166060870152608086019190915260a085015291151560c084015260e08301919091526101008201526101200190565b9283529015156020830152604082015260600190565b968752602087019590955260408601939093526060850191909152608084015260a083015260c082015260e00190565b978852602088019690965260408701949094526060860192909252608085015260a084015260c083015260e08201526101000190565b6001600160a01b0396871681529486166020860152928516604085015293166060830152911515608082015290151560a082015260c00190565b6001600160a01b0396871681529486166020860152928516604085015293166060830152911515608082015260a081019190915260c00190565b6001600160a01b0396871681529486166020860152928516604085015293166060830152608082019290925290151560a082015260c00190565b6001600160a01b039889168152968816602088015294871660408701529286166060860152608085019190915260a0840152151560c083015290911660e08201526101000190565b6001600160a01b039485168152928416602084015292166040820152606081019190915260800190565b6001600160a01b039384168152919092166020820152604081019190915260600190565b6001600160a01b039687168152949095166020850152604084019290925260608301521515608082015260a081019190915260c00190565b6001600160a01b03968716815294909516602085015260408401929092526060830152608082015290151560a082015260c00190565b6001600160a01b03978816815295871660208701529386166040860152919094166060840152921515608083015260a082019290925260c081019190915260e00190565b6001600160a01b039485168152928416602084015292166040820152901515606082015260800190565b6000610120820190508251151582526020830151602083015260408301516040830152606083015160608301526080830151608083015260a0830151151560a083015260c083015161553160c0840182615055565b5060e083015160e083015261010080840151818401525092915050565b9182526001600160a01b0316602082015260400190565b9384526001600160a01b039283166020850152911660408301521515606082015260800190565b8381526001600160a01b038316602082015261016081016155b8604083016155b385614a65565b615055565b6020830135606083015260408301356080830152606083013560a0830152608083013560c08301526155ec60a08401614a65565b6155f960e0840182615055565b5061560660c08401614a65565b61010061561581850183615055565b60e0850135610120850152808501356101408501525050949350505050565b600061026082019050615648828451615055565b602083015161565a6020840182615055565b5060408301516040830152606083015160608301526080830151608083015260a083015160a083015260c083015160c083015260e083015160e08301526101008084015181840152506101208084015181840152506101408084015181840152506101608084015181840152506101808084015181840152506101a08084015181840152506101c0808401516156f282850182615055565b50506101e083810151908301526102008084015190830152610220808401519083015261024092830151929091019190915290565b90815260200190565b918252602082015260400190565b978852602088019690965260408701949094526060860192909252608085015260a0840152151560c083015260e08201526101000190565b600081356107e5816158b4565b60ff1981541660ff8315151681178255505050565b6157aa6157a483615776565b82615783565b6157bf6157b960208401615776565b82615886565b60408201356001820155606082013560028201556080820135600382015560a0820135600482015560c0820135600582015560e08201356006820155610100820135600782015561012082013560088201556101408201356009820155610160820135600a820155610180820135600b8201556101a0820135600c82015561585661584d6101c08401615776565b600d8301615783565b6101e0820135600e820155610200820135600f820155610220820135601082015561024082013560118201555050565b805461ff00191691151560081b61ff0016919091179055565b6001600160a01b03811681146126bc57600080fd5b80151581146126bc57600080fdfe5265656e7472616e637947756172643a207265656e7472616e742063616c6c0054726561737572794f776e61626c653a2063616c6c6572206973206e6f7420746865207472656173757279536166654d6174683a206d756c7469706c69636174696f6e206f766572666c6f7754726561737572794f776e61626c653a206e657720747265617375727920697320746865207a65726f20616464726573735361666545524332303a204552433230206f7065726174696f6e20646964206e6f742073756363656564a264697066735822122021057d4182c5fea6342ead5d0101eaee26f94c7480cbe3eafa03cae68f36a22f64736f6c63430007060033",
  "linkReferences": {
    "contracts/protocol/libraries/logic/TokenConfigsLogic.sol": {
      "TokenConfigsLogic": [
        {
          "length": 20,
          "start": 2344
        },
        {
          "length": 20,
          "start": 3332
        },
        {
          "length": 20,
          "start": 11832
        }
      ]
    },
    "contracts/protocol/libraries/utils/GeneralUtils.sol": {
      "GeneralUtils": [
        {
          "length": 20,
          "start": 13671
        }
      ]
    },
    "contracts/protocol/libraries/utils/VaultUtils.sol": {
      "VaultUtils": [
        {
          "length": 20,
          "start": 3443
        },
        {
          "length": 20,
          "start": 5450
        },
        {
          "length": 20,
          "start": 5719
        },
        {
          "length": 20,
          "start": 6490
        },
        {
          "length": 20,
          "start": 7232
        },
        {
          "length": 20,
          "start": 7394
        },
        {
          "length": 20,
          "start": 8453
        },
        {
          "length": 20,
          "start": 9000
        },
        {
          "length": 20,
          "start": 9314
        },
        {
          "length": 20,
          "start": 9878
        },
        {
          "length": 20,
          "start": 10226
        },
        {
          "length": 20,
          "start": 12132
        },
        {
          "length": 20,
          "start": 13035
        }
      ]
    }
  },
  "deployedLinkReferences": {
    "contracts/protocol/libraries/logic/TokenConfigsLogic.sol": {
      "TokenConfigsLogic": [
        {
          "length": 20,
          "start": 2073
        },
        {
          "length": 20,
          "start": 3061
        },
        {
          "length": 20,
          "start": 11561
        }
      ]
    },
    "contracts/protocol/libraries/utils/GeneralUtils.sol": {
      "GeneralUtils": [
        {
          "length": 20,
          "start": 13400
        }
      ]
    },
    "contracts/protocol/libraries/utils/VaultUtils.sol": {
      "VaultUtils": [
        {
          "length": 20,
          "start": 3172
        },
        {
          "length": 20,
          "start": 5179
        },
        {
          "length": 20,
          "start": 5448
        },
        {
          "length": 20,
          "start": 6219
        },
        {
          "length": 20,
          "start": 6961
        },
        {
          "length": 20,
          "start": 7123
        },
        {
          "length": 20,
          "start": 8182
        },
        {
          "length": 20,
          "start": 8729
        },
        {
          "length": 20,
          "start": 9043
        },
        {
          "length": 20,
          "start": 9607
        },
        {
          "length": 20,
          "start": 9955
        },
        {
          "length": 20,
          "start": 11861
        },
        {
          "length": 20,
          "start": 12764
        }
      ]
    }
  }
}